{
	"Main.sol": {
		"StudentRecord": {
			"abi": [
				{
					"inputs": [
						{
							"internalType": "uint256",
							"name": "",
							"type": "uint256"
						}
					],
					"name": "Cohort",
					"outputs": [
						{
							"internalType": "string",
							"name": "name",
							"type": "string"
						},
						{
							"internalType": "uint256",
							"name": "age",
							"type": "uint256"
						},
						{
							"internalType": "uint256",
							"name": "studentsID",
							"type": "uint256"
						},
						{
							"internalType": "uint256",
							"name": "grades",
							"type": "uint256"
						}
					],
					"stateMutability": "view",
					"type": "function"
				},
				{
					"inputs": [
						{
							"internalType": "string",
							"name": "_name",
							"type": "string"
						},
						{
							"internalType": "uint256",
							"name": "_age",
							"type": "uint256"
						},
						{
							"internalType": "uint256",
							"name": "_studentsID",
							"type": "uint256"
						},
						{
							"internalType": "uint256",
							"name": "_grades",
							"type": "uint256"
						}
					],
					"name": "addStudents",
					"outputs": [],
					"stateMutability": "nonpayable",
					"type": "function"
				},
				{
					"inputs": [
						{
							"internalType": "uint256",
							"name": "_studentsID",
							"type": "uint256"
						}
					],
					"name": "getStudent",
					"outputs": [
						{
							"internalType": "string",
							"name": "",
							"type": "string"
						}
					],
					"stateMutability": "view",
					"type": "function"
				},
				{
					"inputs": [],
					"name": "getTotalStudent",
					"outputs": [
						{
							"internalType": "uint256",
							"name": "",
							"type": "uint256"
						}
					],
					"stateMutability": "view",
					"type": "function"
				},
				{
					"inputs": [
						{
							"internalType": "uint256",
							"name": "",
							"type": "uint256"
						}
					],
					"name": "studentRecords",
					"outputs": [
						{
							"internalType": "string",
							"name": "name",
							"type": "string"
						},
						{
							"internalType": "uint256",
							"name": "age",
							"type": "uint256"
						},
						{
							"internalType": "uint256",
							"name": "studentsID",
							"type": "uint256"
						},
						{
							"internalType": "uint256",
							"name": "grades",
							"type": "uint256"
						}
					],
					"stateMutability": "view",
					"type": "function"
				},
				{
					"inputs": [
						{
							"internalType": "uint256",
							"name": "_studentsID",
							"type": "uint256"
						},
						{
							"internalType": "string",
							"name": "_name",
							"type": "string"
						},
						{
							"internalType": "uint256",
							"name": "_age",
							"type": "uint256"
						},
						{
							"internalType": "uint256",
							"name": "_grades",
							"type": "uint256"
						}
					],
					"name": "updateStudent",
					"outputs": [],
					"stateMutability": "nonpayable",
					"type": "function"
				}
			],
			"devdoc": {
				"kind": "dev",
				"methods": {},
				"version": 1
			},
			"evm": {
				"assembly": "    /* \"Main.sol\":57:1336  contract StudentRecord{... */\n  mstore(0x40, 0x80)\n  callvalue\n  dup1\n  iszero\n  tag_1\n  jumpi\n  0x00\n  dup1\n  revert\ntag_1:\n  pop\n  dataSize(sub_0)\n  dup1\n  dataOffset(sub_0)\n  0x00\n  codecopy\n  0x00\n  return\nstop\n\nsub_0: assembly {\n        /* \"Main.sol\":57:1336  contract StudentRecord{... */\n      mstore(0x40, 0x80)\n      callvalue\n      dup1\n      iszero\n      tag_1\n      jumpi\n      0x00\n      dup1\n      revert\n    tag_1:\n      pop\n      jumpi(tag_2, lt(calldatasize, 0x04))\n      shr(0xe0, calldataload(0x00))\n      dup1\n      0x563d9460\n      eq\n      tag_3\n      jumpi\n      dup1\n      0x642f9163\n      eq\n      tag_4\n      jumpi\n      dup1\n      0x905634f9\n      eq\n      tag_5\n      jumpi\n      dup1\n      0xce4f23ec\n      eq\n      tag_6\n      jumpi\n      dup1\n      0xe80bfbca\n      eq\n      tag_7\n      jumpi\n      dup1\n      0xe91903a7\n      eq\n      tag_8\n      jumpi\n    tag_2:\n      0x00\n      dup1\n      revert\n        /* \"Main.sol\":688:1122  function updateStudent(... */\n    tag_3:\n      tag_9\n      0x04\n      dup1\n      calldatasize\n      sub\n      dup2\n      add\n      swap1\n      tag_10\n      swap2\n      swap1\n      tag_11\n      jump\t// in\n    tag_10:\n      tag_12\n      jump\t// in\n    tag_9:\n      stop\n        /* \"Main.sol\":1123:1247  function getStudent(uint256 _studentsID) public view returns (string memory){... */\n    tag_4:\n      tag_13\n      0x04\n      dup1\n      calldatasize\n      sub\n      dup2\n      add\n      swap1\n      tag_14\n      swap2\n      swap1\n      tag_15\n      jump\t// in\n    tag_14:\n      tag_16\n      jump\t// in\n    tag_13:\n      mload(0x40)\n      tag_17\n      swap2\n      swap1\n      tag_18\n      jump\t// in\n    tag_17:\n      mload(0x40)\n      dup1\n      swap2\n      sub\n      swap1\n      return\n        /* \"Main.sol\":207:230  Student[] public Cohort */\n    tag_5:\n      tag_19\n      0x04\n      dup1\n      calldatasize\n      sub\n      dup2\n      add\n      swap1\n      tag_20\n      swap2\n      swap1\n      tag_15\n      jump\t// in\n    tag_20:\n      tag_21\n      jump\t// in\n    tag_19:\n      mload(0x40)\n      tag_22\n      swap5\n      swap4\n      swap3\n      swap2\n      swap1\n      tag_23\n      jump\t// in\n    tag_22:\n      mload(0x40)\n      dup1\n      swap2\n      sub\n      swap1\n      return\n        /* \"Main.sol\":1248:1334  function getTotalStudent() public view returns (uint256) {... */\n    tag_6:\n      tag_24\n      tag_25\n      jump\t// in\n    tag_24:\n      mload(0x40)\n      tag_26\n      swap2\n      swap1\n      tag_27\n      jump\t// in\n    tag_26:\n      mload(0x40)\n      dup1\n      swap2\n      sub\n      swap1\n      return\n        /* \"Main.sol\":293:682  function addStudents(... */\n    tag_7:\n      tag_28\n      0x04\n      dup1\n      calldatasize\n      sub\n      dup2\n      add\n      swap1\n      tag_29\n      swap2\n      swap1\n      tag_30\n      jump\t// in\n    tag_29:\n      tag_31\n      jump\t// in\n    tag_28:\n      stop\n        /* \"Main.sol\":236:286  mapping (uint256 => Student) public studentRecords */\n    tag_8:\n      tag_32\n      0x04\n      dup1\n      calldatasize\n      sub\n      dup2\n      add\n      swap1\n      tag_33\n      swap2\n      swap1\n      tag_15\n      jump\t// in\n    tag_33:\n      tag_34\n      jump\t// in\n    tag_32:\n      mload(0x40)\n      tag_35\n      swap5\n      swap4\n      swap3\n      swap2\n      swap1\n      tag_23\n      jump\t// in\n    tag_35:\n      mload(0x40)\n      dup1\n      swap2\n      sub\n      swap1\n      return\n        /* \"Main.sol\":688:1122  function updateStudent(... */\n    tag_12:\n        /* \"Main.sol\":864:886  Student memory student */\n      0x00\n        /* \"Main.sol\":889:903  studentRecords */\n      0x01\n        /* \"Main.sol\":889:916  studentRecords[_studentsID] */\n      0x00\n        /* \"Main.sol\":904:915  _studentsID */\n      dup7\n        /* \"Main.sol\":889:916  studentRecords[_studentsID] */\n      dup2\n      mstore\n      0x20\n      add\n      swap1\n      dup2\n      mstore\n      0x20\n      add\n      0x00\n      keccak256\n        /* \"Main.sol\":864:916  Student memory student = studentRecords[_studentsID] */\n      mload(0x40)\n      dup1\n      0x80\n      add\n      0x40\n      mstore\n      swap1\n      dup2\n      0x00\n      dup3\n      add\n      dup1\n      sload\n      tag_37\n      swap1\n      tag_38\n      jump\t// in\n    tag_37:\n      dup1\n      0x1f\n      add\n      0x20\n      dup1\n      swap2\n      div\n      mul\n      0x20\n      add\n      mload(0x40)\n      swap1\n      dup2\n      add\n      0x40\n      mstore\n      dup1\n      swap3\n      swap2\n      swap1\n      dup2\n      dup2\n      mstore\n      0x20\n      add\n      dup3\n      dup1\n      sload\n      tag_39\n      swap1\n      tag_38\n      jump\t// in\n    tag_39:\n      dup1\n      iszero\n      tag_40\n      jumpi\n      dup1\n      0x1f\n      lt\n      tag_41\n      jumpi\n      0x0100\n      dup1\n      dup4\n      sload\n      div\n      mul\n      dup4\n      mstore\n      swap2\n      0x20\n      add\n      swap2\n      jump(tag_40)\n    tag_41:\n      dup3\n      add\n      swap2\n      swap1\n      0x00\n      mstore\n      keccak256(0x00, 0x20)\n      swap1\n    tag_42:\n      dup2\n      sload\n      dup2\n      mstore\n      swap1\n      0x01\n      add\n      swap1\n      0x20\n      add\n      dup1\n      dup4\n      gt\n      tag_42\n      jumpi\n      dup3\n      swap1\n      sub\n      0x1f\n      and\n      dup3\n      add\n      swap2\n    tag_40:\n      pop\n      pop\n      pop\n      pop\n      pop\n      dup2\n      mstore\n      0x20\n      add\n      0x01\n      dup3\n      add\n      sload\n      dup2\n      mstore\n      0x20\n      add\n      0x02\n      dup3\n      add\n      sload\n      dup2\n      mstore\n      0x20\n      add\n      0x03\n      dup3\n      add\n      sload\n      dup2\n      mstore\n      pop\n      pop\n      swap1\n      pop\n        /* \"Main.sol\":945:950  _name */\n      dup4\n        /* \"Main.sol\":930:937  student */\n      dup2\n        /* \"Main.sol\":930:942  student.name */\n      0x00\n      add\n        /* \"Main.sol\":930:950  student.name = _name */\n      dup2\n      swap1\n      mstore\n      pop\n        /* \"Main.sol\":978:982  _age */\n      dup3\n        /* \"Main.sol\":964:971  student */\n      dup2\n        /* \"Main.sol\":964:975  student.age */\n      0x20\n      add\n        /* \"Main.sol\":964:982  student.age = _age */\n      dup2\n      dup2\n      mstore\n      pop\n      pop\n        /* \"Main.sol\":1013:1020  _grades */\n      dup2\n        /* \"Main.sol\":996:1003  student */\n      dup2\n        /* \"Main.sol\":996:1010  student.grades */\n      0x60\n      add\n        /* \"Main.sol\":996:1020  student.grades = _grades */\n      dup2\n      dup2\n      mstore\n      pop\n      pop\n        /* \"Main.sol\":1064:1071  student */\n      dup1\n        /* \"Main.sol\":1034:1048  studentRecords */\n      0x01\n        /* \"Main.sol\":1034:1061  studentRecords[_studentsID] */\n      0x00\n        /* \"Main.sol\":1049:1060  _studentsID */\n      dup8\n        /* \"Main.sol\":1034:1061  studentRecords[_studentsID] */\n      dup2\n      mstore\n      0x20\n      add\n      swap1\n      dup2\n      mstore\n      0x20\n      add\n      0x00\n      keccak256\n        /* \"Main.sol\":1034:1071  studentRecords[_studentsID] = student */\n      0x00\n      dup3\n      add\n      mload\n      dup2\n      0x00\n      add\n      swap1\n      dup2\n      tag_43\n      swap2\n      swap1\n      tag_44\n      jump\t// in\n    tag_43:\n      pop\n      0x20\n      dup3\n      add\n      mload\n      dup2\n      0x01\n      add\n      sstore\n      0x40\n      dup3\n      add\n      mload\n      dup2\n      0x02\n      add\n      sstore\n      0x60\n      dup3\n      add\n      mload\n      dup2\n      0x03\n      add\n      sstore\n      swap1\n      pop\n      pop\n        /* \"Main.sol\":1107:1114  student */\n      dup1\n        /* \"Main.sol\":1085:1091  Cohort */\n      0x00\n        /* \"Main.sol\":1092:1103  _studentsID */\n      dup7\n        /* \"Main.sol\":1085:1104  Cohort[_studentsID] */\n      dup2\n      sload\n      dup2\n      lt\n      tag_45\n      jumpi\n      tag_46\n      tag_47\n      jump\t// in\n    tag_46:\n    tag_45:\n      swap1\n      0x00\n      mstore\n      keccak256(0x00, 0x20)\n      swap1\n      0x04\n      mul\n      add\n        /* \"Main.sol\":1085:1114  Cohort[_studentsID] = student */\n      0x00\n      dup3\n      add\n      mload\n      dup2\n      0x00\n      add\n      swap1\n      dup2\n      tag_49\n      swap2\n      swap1\n      tag_44\n      jump\t// in\n    tag_49:\n      pop\n      0x20\n      dup3\n      add\n      mload\n      dup2\n      0x01\n      add\n      sstore\n      0x40\n      dup3\n      add\n      mload\n      dup2\n      0x02\n      add\n      sstore\n      0x60\n      dup3\n      add\n      mload\n      dup2\n      0x03\n      add\n      sstore\n      swap1\n      pop\n      pop\n        /* \"Main.sol\":850:1122  {... */\n      pop\n        /* \"Main.sol\":688:1122  function updateStudent(... */\n      pop\n      pop\n      pop\n      pop\n      jump\t// out\n        /* \"Main.sol\":1123:1247  function getStudent(uint256 _studentsID) public view returns (string memory){... */\n    tag_16:\n        /* \"Main.sol\":1185:1198  string memory */\n      0x60\n        /* \"Main.sol\":1212:1226  studentRecords */\n      0x01\n        /* \"Main.sol\":1212:1239  studentRecords[_studentsID] */\n      0x00\n        /* \"Main.sol\":1227:1238  _studentsID */\n      dup4\n        /* \"Main.sol\":1212:1239  studentRecords[_studentsID] */\n      dup2\n      mstore\n      0x20\n      add\n      swap1\n      dup2\n      mstore\n      0x20\n      add\n      0x00\n      keccak256\n        /* \"Main.sol\":1212:1244  studentRecords[_studentsID].name */\n      0x00\n      add\n        /* \"Main.sol\":1205:1244  return studentRecords[_studentsID].name */\n      dup1\n      sload\n      tag_51\n      swap1\n      tag_38\n      jump\t// in\n    tag_51:\n      dup1\n      0x1f\n      add\n      0x20\n      dup1\n      swap2\n      div\n      mul\n      0x20\n      add\n      mload(0x40)\n      swap1\n      dup2\n      add\n      0x40\n      mstore\n      dup1\n      swap3\n      swap2\n      swap1\n      dup2\n      dup2\n      mstore\n      0x20\n      add\n      dup3\n      dup1\n      sload\n      tag_52\n      swap1\n      tag_38\n      jump\t// in\n    tag_52:\n      dup1\n      iszero\n      tag_53\n      jumpi\n      dup1\n      0x1f\n      lt\n      tag_54\n      jumpi\n      0x0100\n      dup1\n      dup4\n      sload\n      div\n      mul\n      dup4\n      mstore\n      swap2\n      0x20\n      add\n      swap2\n      jump(tag_53)\n    tag_54:\n      dup3\n      add\n      swap2\n      swap1\n      0x00\n      mstore\n      keccak256(0x00, 0x20)\n      swap1\n    tag_55:\n      dup2\n      sload\n      dup2\n      mstore\n      swap1\n      0x01\n      add\n      swap1\n      0x20\n      add\n      dup1\n      dup4\n      gt\n      tag_55\n      jumpi\n      dup3\n      swap1\n      sub\n      0x1f\n      and\n      dup3\n      add\n      swap2\n    tag_53:\n      pop\n      pop\n      pop\n      pop\n      pop\n      swap1\n      pop\n        /* \"Main.sol\":1123:1247  function getStudent(uint256 _studentsID) public view returns (string memory){... */\n      swap2\n      swap1\n      pop\n      jump\t// out\n        /* \"Main.sol\":207:230  Student[] public Cohort */\n    tag_21:\n      0x00\n      dup2\n      dup2\n      sload\n      dup2\n      lt\n      tag_56\n      jumpi\n      0x00\n      dup1\n      revert\n    tag_56:\n      swap1\n      0x00\n      mstore\n      keccak256(0x00, 0x20)\n      swap1\n      0x04\n      mul\n      add\n      0x00\n      swap2\n      pop\n      swap1\n      pop\n      dup1\n      0x00\n      add\n      dup1\n      sload\n      tag_58\n      swap1\n      tag_38\n      jump\t// in\n    tag_58:\n      dup1\n      0x1f\n      add\n      0x20\n      dup1\n      swap2\n      div\n      mul\n      0x20\n      add\n      mload(0x40)\n      swap1\n      dup2\n      add\n      0x40\n      mstore\n      dup1\n      swap3\n      swap2\n      swap1\n      dup2\n      dup2\n      mstore\n      0x20\n      add\n      dup3\n      dup1\n      sload\n      tag_59\n      swap1\n      tag_38\n      jump\t// in\n    tag_59:\n      dup1\n      iszero\n      tag_60\n      jumpi\n      dup1\n      0x1f\n      lt\n      tag_61\n      jumpi\n      0x0100\n      dup1\n      dup4\n      sload\n      div\n      mul\n      dup4\n      mstore\n      swap2\n      0x20\n      add\n      swap2\n      jump(tag_60)\n    tag_61:\n      dup3\n      add\n      swap2\n      swap1\n      0x00\n      mstore\n      keccak256(0x00, 0x20)\n      swap1\n    tag_62:\n      dup2\n      sload\n      dup2\n      mstore\n      swap1\n      0x01\n      add\n      swap1\n      0x20\n      add\n      dup1\n      dup4\n      gt\n      tag_62\n      jumpi\n      dup3\n      swap1\n      sub\n      0x1f\n      and\n      dup3\n      add\n      swap2\n    tag_60:\n      pop\n      pop\n      pop\n      pop\n      pop\n      swap1\n      dup1\n      0x01\n      add\n      sload\n      swap1\n      dup1\n      0x02\n      add\n      sload\n      swap1\n      dup1\n      0x03\n      add\n      sload\n      swap1\n      pop\n      dup5\n      jump\t// out\n        /* \"Main.sol\":1248:1334  function getTotalStudent() public view returns (uint256) {... */\n    tag_25:\n        /* \"Main.sol\":1296:1303  uint256 */\n      0x00\n        /* \"Main.sol\":1318:1324  Cohort */\n      dup1\n        /* \"Main.sol\":1318:1331  Cohort.length */\n      dup1\n      sload\n      swap1\n      pop\n        /* \"Main.sol\":1311:1331  return Cohort.length */\n      swap1\n      pop\n        /* \"Main.sol\":1248:1334  function getTotalStudent() public view returns (uint256) {... */\n      swap1\n      jump\t// out\n        /* \"Main.sol\":293:682  function addStudents(... */\n    tag_31:\n        /* \"Main.sol\":456:481  Student memory newStudent */\n      0x00\n        /* \"Main.sol\":484:598  Student({... */\n      mload(0x40)\n      dup1\n      0x80\n      add\n      0x40\n      mstore\n      dup1\n        /* \"Main.sol\":508:513  _name */\n      dup7\n        /* \"Main.sol\":484:598  Student({... */\n      dup2\n      mstore\n      0x20\n      add\n        /* \"Main.sol\":528:532  _age */\n      dup6\n        /* \"Main.sol\":484:598  Student({... */\n      dup2\n      mstore\n      0x20\n      add\n        /* \"Main.sol\":554:565  _studentsID */\n      dup5\n        /* \"Main.sol\":484:598  Student({... */\n      dup2\n      mstore\n      0x20\n      add\n        /* \"Main.sol\":583:590  _grades */\n      dup4\n        /* \"Main.sol\":484:598  Student({... */\n      dup2\n      mstore\n      pop\n        /* \"Main.sol\":456:598  Student memory newStudent = Student({... */\n      swap1\n      pop\n        /* \"Main.sol\":605:611  Cohort */\n      0x00\n        /* \"Main.sol\":617:627  newStudent */\n      dup2\n        /* \"Main.sol\":605:628  Cohort.push(newStudent) */\n      swap1\n      dup1\n      0x01\n      dup2\n      sload\n      add\n      dup1\n      dup3\n      sstore\n      dup1\n      swap2\n      pop\n      pop\n      0x01\n      swap1\n      sub\n      swap1\n      0x00\n      mstore\n      keccak256(0x00, 0x20)\n      swap1\n      0x04\n      mul\n      add\n      0x00\n      swap1\n      swap2\n      swap1\n      swap2\n      swap1\n      swap2\n      pop\n      0x00\n      dup3\n      add\n      mload\n      dup2\n      0x00\n      add\n      swap1\n      dup2\n      tag_66\n      swap2\n      swap1\n      tag_44\n      jump\t// in\n    tag_66:\n      pop\n      0x20\n      dup3\n      add\n      mload\n      dup2\n      0x01\n      add\n      sstore\n      0x40\n      dup3\n      add\n      mload\n      dup2\n      0x02\n      add\n      sstore\n      0x60\n      dup3\n      add\n      mload\n      dup2\n      0x03\n      add\n      sstore\n      pop\n      pop\n        /* \"Main.sol\":665:675  newStudent */\n      dup1\n        /* \"Main.sol\":635:649  studentRecords */\n      0x01\n        /* \"Main.sol\":635:662  studentRecords[_studentsID] */\n      0x00\n        /* \"Main.sol\":650:661  _studentsID */\n      dup6\n        /* \"Main.sol\":635:662  studentRecords[_studentsID] */\n      dup2\n      mstore\n      0x20\n      add\n      swap1\n      dup2\n      mstore\n      0x20\n      add\n      0x00\n      keccak256\n        /* \"Main.sol\":635:675  studentRecords[_studentsID] = newStudent */\n      0x00\n      dup3\n      add\n      mload\n      dup2\n      0x00\n      add\n      swap1\n      dup2\n      tag_67\n      swap2\n      swap1\n      tag_44\n      jump\t// in\n    tag_67:\n      pop\n      0x20\n      dup3\n      add\n      mload\n      dup2\n      0x01\n      add\n      sstore\n      0x40\n      dup3\n      add\n      mload\n      dup2\n      0x02\n      add\n      sstore\n      0x60\n      dup3\n      add\n      mload\n      dup2\n      0x03\n      add\n      sstore\n      swap1\n      pop\n      pop\n        /* \"Main.sol\":449:682  {... */\n      pop\n        /* \"Main.sol\":293:682  function addStudents(... */\n      pop\n      pop\n      pop\n      pop\n      jump\t// out\n        /* \"Main.sol\":236:286  mapping (uint256 => Student) public studentRecords */\n    tag_34:\n      mstore(0x20, 0x01)\n      dup1\n      0x00\n      mstore\n      keccak256(0x00, 0x40)\n      0x00\n      swap2\n      pop\n      swap1\n      pop\n      dup1\n      0x00\n      add\n      dup1\n      sload\n      tag_68\n      swap1\n      tag_38\n      jump\t// in\n    tag_68:\n      dup1\n      0x1f\n      add\n      0x20\n      dup1\n      swap2\n      div\n      mul\n      0x20\n      add\n      mload(0x40)\n      swap1\n      dup2\n      add\n      0x40\n      mstore\n      dup1\n      swap3\n      swap2\n      swap1\n      dup2\n      dup2\n      mstore\n      0x20\n      add\n      dup3\n      dup1\n      sload\n      tag_69\n      swap1\n      tag_38\n      jump\t// in\n    tag_69:\n      dup1\n      iszero\n      tag_70\n      jumpi\n      dup1\n      0x1f\n      lt\n      tag_71\n      jumpi\n      0x0100\n      dup1\n      dup4\n      sload\n      div\n      mul\n      dup4\n      mstore\n      swap2\n      0x20\n      add\n      swap2\n      jump(tag_70)\n    tag_71:\n      dup3\n      add\n      swap2\n      swap1\n      0x00\n      mstore\n      keccak256(0x00, 0x20)\n      swap1\n    tag_72:\n      dup2\n      sload\n      dup2\n      mstore\n      swap1\n      0x01\n      add\n      swap1\n      0x20\n      add\n      dup1\n      dup4\n      gt\n      tag_72\n      jumpi\n      dup3\n      swap1\n      sub\n      0x1f\n      and\n      dup3\n      add\n      swap2\n    tag_70:\n      pop\n      pop\n      pop\n      pop\n      pop\n      swap1\n      dup1\n      0x01\n      add\n      sload\n      swap1\n      dup1\n      0x02\n      add\n      sload\n      swap1\n      dup1\n      0x03\n      add\n      sload\n      swap1\n      pop\n      dup5\n      jump\t// out\n        /* \"#utility.yul\":7:82   */\n    tag_73:\n        /* \"#utility.yul\":40:46   */\n      0x00\n        /* \"#utility.yul\":73:75   */\n      0x40\n        /* \"#utility.yul\":67:76   */\n      mload\n        /* \"#utility.yul\":57:76   */\n      swap1\n      pop\n        /* \"#utility.yul\":7:82   */\n      swap1\n      jump\t// out\n        /* \"#utility.yul\":88:205   */\n    tag_74:\n        /* \"#utility.yul\":197:198   */\n      0x00\n        /* \"#utility.yul\":194:195   */\n      dup1\n        /* \"#utility.yul\":187:199   */\n      revert\n        /* \"#utility.yul\":211:328   */\n    tag_75:\n        /* \"#utility.yul\":320:321   */\n      0x00\n        /* \"#utility.yul\":317:318   */\n      dup1\n        /* \"#utility.yul\":310:322   */\n      revert\n        /* \"#utility.yul\":334:411   */\n    tag_76:\n        /* \"#utility.yul\":371:378   */\n      0x00\n        /* \"#utility.yul\":400:405   */\n      dup2\n        /* \"#utility.yul\":389:405   */\n      swap1\n      pop\n        /* \"#utility.yul\":334:411   */\n      swap2\n      swap1\n      pop\n      jump\t// out\n        /* \"#utility.yul\":417:539   */\n    tag_77:\n        /* \"#utility.yul\":490:514   */\n      tag_116\n        /* \"#utility.yul\":508:513   */\n      dup2\n        /* \"#utility.yul\":490:514   */\n      tag_76\n      jump\t// in\n    tag_116:\n        /* \"#utility.yul\":483:488   */\n      dup2\n        /* \"#utility.yul\":480:515   */\n      eq\n        /* \"#utility.yul\":470:533   */\n      tag_117\n      jumpi\n        /* \"#utility.yul\":529:530   */\n      0x00\n        /* \"#utility.yul\":526:527   */\n      dup1\n        /* \"#utility.yul\":519:531   */\n      revert\n        /* \"#utility.yul\":470:533   */\n    tag_117:\n        /* \"#utility.yul\":417:539   */\n      pop\n      jump\t// out\n        /* \"#utility.yul\":545:684   */\n    tag_78:\n        /* \"#utility.yul\":591:596   */\n      0x00\n        /* \"#utility.yul\":629:635   */\n      dup2\n        /* \"#utility.yul\":616:636   */\n      calldataload\n        /* \"#utility.yul\":607:636   */\n      swap1\n      pop\n        /* \"#utility.yul\":645:678   */\n      tag_119\n        /* \"#utility.yul\":672:677   */\n      dup2\n        /* \"#utility.yul\":645:678   */\n      tag_77\n      jump\t// in\n    tag_119:\n        /* \"#utility.yul\":545:684   */\n      swap3\n      swap2\n      pop\n      pop\n      jump\t// out\n        /* \"#utility.yul\":690:807   */\n    tag_79:\n        /* \"#utility.yul\":799:800   */\n      0x00\n        /* \"#utility.yul\":796:797   */\n      dup1\n        /* \"#utility.yul\":789:801   */\n      revert\n        /* \"#utility.yul\":813:930   */\n    tag_80:\n        /* \"#utility.yul\":922:923   */\n      0x00\n        /* \"#utility.yul\":919:920   */\n      dup1\n        /* \"#utility.yul\":912:924   */\n      revert\n        /* \"#utility.yul\":936:1038   */\n    tag_81:\n        /* \"#utility.yul\":977:983   */\n      0x00\n        /* \"#utility.yul\":1028:1030   */\n      0x1f\n        /* \"#utility.yul\":1024:1031   */\n      not\n        /* \"#utility.yul\":1019:1021   */\n      0x1f\n        /* \"#utility.yul\":1012:1017   */\n      dup4\n        /* \"#utility.yul\":1008:1022   */\n      add\n        /* \"#utility.yul\":1004:1032   */\n      and\n        /* \"#utility.yul\":994:1032   */\n      swap1\n      pop\n        /* \"#utility.yul\":936:1038   */\n      swap2\n      swap1\n      pop\n      jump\t// out\n        /* \"#utility.yul\":1044:1224   */\n    tag_82:\n        /* \"#utility.yul\":1092:1169   */\n      0x4e487b7100000000000000000000000000000000000000000000000000000000\n        /* \"#utility.yul\":1089:1090   */\n      0x00\n        /* \"#utility.yul\":1082:1170   */\n      mstore\n        /* \"#utility.yul\":1189:1193   */\n      0x41\n        /* \"#utility.yul\":1186:1187   */\n      0x04\n        /* \"#utility.yul\":1179:1194   */\n      mstore\n        /* \"#utility.yul\":1213:1217   */\n      0x24\n        /* \"#utility.yul\":1210:1211   */\n      0x00\n        /* \"#utility.yul\":1203:1218   */\n      revert\n        /* \"#utility.yul\":1230:1511   */\n    tag_83:\n        /* \"#utility.yul\":1313:1340   */\n      tag_125\n        /* \"#utility.yul\":1335:1339   */\n      dup3\n        /* \"#utility.yul\":1313:1340   */\n      tag_81\n      jump\t// in\n    tag_125:\n        /* \"#utility.yul\":1305:1311   */\n      dup2\n        /* \"#utility.yul\":1301:1341   */\n      add\n        /* \"#utility.yul\":1443:1449   */\n      dup2\n        /* \"#utility.yul\":1431:1441   */\n      dup2\n        /* \"#utility.yul\":1428:1450   */\n      lt\n        /* \"#utility.yul\":1407:1425   */\n      0xffffffffffffffff\n        /* \"#utility.yul\":1395:1405   */\n      dup3\n        /* \"#utility.yul\":1392:1426   */\n      gt\n        /* \"#utility.yul\":1389:1451   */\n      or\n        /* \"#utility.yul\":1386:1474   */\n      iszero\n      tag_126\n      jumpi\n        /* \"#utility.yul\":1454:1472   */\n      tag_127\n      tag_82\n      jump\t// in\n    tag_127:\n        /* \"#utility.yul\":1386:1474   */\n    tag_126:\n        /* \"#utility.yul\":1494:1504   */\n      dup1\n        /* \"#utility.yul\":1490:1492   */\n      0x40\n        /* \"#utility.yul\":1483:1505   */\n      mstore\n        /* \"#utility.yul\":1273:1511   */\n      pop\n        /* \"#utility.yul\":1230:1511   */\n      pop\n      pop\n      jump\t// out\n        /* \"#utility.yul\":1517:1646   */\n    tag_84:\n        /* \"#utility.yul\":1551:1557   */\n      0x00\n        /* \"#utility.yul\":1578:1598   */\n      tag_129\n      tag_73\n      jump\t// in\n    tag_129:\n        /* \"#utility.yul\":1568:1598   */\n      swap1\n      pop\n        /* \"#utility.yul\":1607:1640   */\n      tag_130\n        /* \"#utility.yul\":1635:1639   */\n      dup3\n        /* \"#utility.yul\":1627:1633   */\n      dup3\n        /* \"#utility.yul\":1607:1640   */\n      tag_83\n      jump\t// in\n    tag_130:\n        /* \"#utility.yul\":1517:1646   */\n      swap2\n      swap1\n      pop\n      jump\t// out\n        /* \"#utility.yul\":1652:1960   */\n    tag_85:\n        /* \"#utility.yul\":1714:1718   */\n      0x00\n        /* \"#utility.yul\":1804:1822   */\n      0xffffffffffffffff\n        /* \"#utility.yul\":1796:1802   */\n      dup3\n        /* \"#utility.yul\":1793:1823   */\n      gt\n        /* \"#utility.yul\":1790:1846   */\n      iszero\n      tag_132\n      jumpi\n        /* \"#utility.yul\":1826:1844   */\n      tag_133\n      tag_82\n      jump\t// in\n    tag_133:\n        /* \"#utility.yul\":1790:1846   */\n    tag_132:\n        /* \"#utility.yul\":1864:1893   */\n      tag_134\n        /* \"#utility.yul\":1886:1892   */\n      dup3\n        /* \"#utility.yul\":1864:1893   */\n      tag_81\n      jump\t// in\n    tag_134:\n        /* \"#utility.yul\":1856:1893   */\n      swap1\n      pop\n        /* \"#utility.yul\":1948:1952   */\n      0x20\n        /* \"#utility.yul\":1942:1946   */\n      dup2\n        /* \"#utility.yul\":1938:1953   */\n      add\n        /* \"#utility.yul\":1930:1953   */\n      swap1\n      pop\n        /* \"#utility.yul\":1652:1960   */\n      swap2\n      swap1\n      pop\n      jump\t// out\n        /* \"#utility.yul\":1966:2114   */\n    tag_86:\n        /* \"#utility.yul\":2064:2070   */\n      dup3\n        /* \"#utility.yul\":2059:2062   */\n      dup2\n        /* \"#utility.yul\":2054:2057   */\n      dup4\n        /* \"#utility.yul\":2041:2071   */\n      calldatacopy\n        /* \"#utility.yul\":2105:2106   */\n      0x00\n        /* \"#utility.yul\":2096:2102   */\n      dup4\n        /* \"#utility.yul\":2091:2094   */\n      dup4\n        /* \"#utility.yul\":2087:2103   */\n      add\n        /* \"#utility.yul\":2080:2107   */\n      mstore\n        /* \"#utility.yul\":1966:2114   */\n      pop\n      pop\n      pop\n      jump\t// out\n        /* \"#utility.yul\":2120:2545   */\n    tag_87:\n        /* \"#utility.yul\":2198:2203   */\n      0x00\n        /* \"#utility.yul\":2223:2289   */\n      tag_137\n        /* \"#utility.yul\":2239:2288   */\n      tag_138\n        /* \"#utility.yul\":2281:2287   */\n      dup5\n        /* \"#utility.yul\":2239:2288   */\n      tag_85\n      jump\t// in\n    tag_138:\n        /* \"#utility.yul\":2223:2289   */\n      tag_84\n      jump\t// in\n    tag_137:\n        /* \"#utility.yul\":2214:2289   */\n      swap1\n      pop\n        /* \"#utility.yul\":2312:2318   */\n      dup3\n        /* \"#utility.yul\":2305:2310   */\n      dup2\n        /* \"#utility.yul\":2298:2319   */\n      mstore\n        /* \"#utility.yul\":2350:2354   */\n      0x20\n        /* \"#utility.yul\":2343:2348   */\n      dup2\n        /* \"#utility.yul\":2339:2355   */\n      add\n        /* \"#utility.yul\":2388:2391   */\n      dup5\n        /* \"#utility.yul\":2379:2385   */\n      dup5\n        /* \"#utility.yul\":2374:2377   */\n      dup5\n        /* \"#utility.yul\":2370:2386   */\n      add\n        /* \"#utility.yul\":2367:2392   */\n      gt\n        /* \"#utility.yul\":2364:2476   */\n      iszero\n      tag_139\n      jumpi\n        /* \"#utility.yul\":2395:2474   */\n      tag_140\n      tag_80\n      jump\t// in\n    tag_140:\n        /* \"#utility.yul\":2364:2476   */\n    tag_139:\n        /* \"#utility.yul\":2485:2539   */\n      tag_141\n        /* \"#utility.yul\":2532:2538   */\n      dup5\n        /* \"#utility.yul\":2527:2530   */\n      dup3\n        /* \"#utility.yul\":2522:2525   */\n      dup6\n        /* \"#utility.yul\":2485:2539   */\n      tag_86\n      jump\t// in\n    tag_141:\n        /* \"#utility.yul\":2204:2545   */\n      pop\n        /* \"#utility.yul\":2120:2545   */\n      swap4\n      swap3\n      pop\n      pop\n      pop\n      jump\t// out\n        /* \"#utility.yul\":2565:2905   */\n    tag_88:\n        /* \"#utility.yul\":2621:2626   */\n      0x00\n        /* \"#utility.yul\":2670:2673   */\n      dup3\n        /* \"#utility.yul\":2663:2667   */\n      0x1f\n        /* \"#utility.yul\":2655:2661   */\n      dup4\n        /* \"#utility.yul\":2651:2668   */\n      add\n        /* \"#utility.yul\":2647:2674   */\n      slt\n        /* \"#utility.yul\":2637:2759   */\n      tag_143\n      jumpi\n        /* \"#utility.yul\":2678:2757   */\n      tag_144\n      tag_79\n      jump\t// in\n    tag_144:\n        /* \"#utility.yul\":2637:2759   */\n    tag_143:\n        /* \"#utility.yul\":2795:2801   */\n      dup2\n        /* \"#utility.yul\":2782:2802   */\n      calldataload\n        /* \"#utility.yul\":2820:2899   */\n      tag_145\n        /* \"#utility.yul\":2895:2898   */\n      dup5\n        /* \"#utility.yul\":2887:2893   */\n      dup3\n        /* \"#utility.yul\":2880:2884   */\n      0x20\n        /* \"#utility.yul\":2872:2878   */\n      dup7\n        /* \"#utility.yul\":2868:2885   */\n      add\n        /* \"#utility.yul\":2820:2899   */\n      tag_87\n      jump\t// in\n    tag_145:\n        /* \"#utility.yul\":2811:2899   */\n      swap2\n      pop\n        /* \"#utility.yul\":2627:2905   */\n      pop\n        /* \"#utility.yul\":2565:2905   */\n      swap3\n      swap2\n      pop\n      pop\n      jump\t// out\n        /* \"#utility.yul\":2911:3856   */\n    tag_11:\n        /* \"#utility.yul\":3007:3013   */\n      0x00\n        /* \"#utility.yul\":3015:3021   */\n      dup1\n        /* \"#utility.yul\":3023:3029   */\n      0x00\n        /* \"#utility.yul\":3031:3037   */\n      dup1\n        /* \"#utility.yul\":3080:3083   */\n      0x80\n        /* \"#utility.yul\":3068:3077   */\n      dup6\n        /* \"#utility.yul\":3059:3066   */\n      dup8\n        /* \"#utility.yul\":3055:3078   */\n      sub\n        /* \"#utility.yul\":3051:3084   */\n      slt\n        /* \"#utility.yul\":3048:3168   */\n      iszero\n      tag_147\n      jumpi\n        /* \"#utility.yul\":3087:3166   */\n      tag_148\n      tag_74\n      jump\t// in\n    tag_148:\n        /* \"#utility.yul\":3048:3168   */\n    tag_147:\n        /* \"#utility.yul\":3207:3208   */\n      0x00\n        /* \"#utility.yul\":3232:3285   */\n      tag_149\n        /* \"#utility.yul\":3277:3284   */\n      dup8\n        /* \"#utility.yul\":3268:3274   */\n      dup3\n        /* \"#utility.yul\":3257:3266   */\n      dup9\n        /* \"#utility.yul\":3253:3275   */\n      add\n        /* \"#utility.yul\":3232:3285   */\n      tag_78\n      jump\t// in\n    tag_149:\n        /* \"#utility.yul\":3222:3285   */\n      swap5\n      pop\n        /* \"#utility.yul\":3178:3295   */\n      pop\n        /* \"#utility.yul\":3362:3364   */\n      0x20\n        /* \"#utility.yul\":3351:3360   */\n      dup6\n        /* \"#utility.yul\":3347:3365   */\n      add\n        /* \"#utility.yul\":3334:3366   */\n      calldataload\n        /* \"#utility.yul\":3393:3411   */\n      0xffffffffffffffff\n        /* \"#utility.yul\":3385:3391   */\n      dup2\n        /* \"#utility.yul\":3382:3412   */\n      gt\n        /* \"#utility.yul\":3379:3496   */\n      iszero\n      tag_150\n      jumpi\n        /* \"#utility.yul\":3415:3494   */\n      tag_151\n      tag_75\n      jump\t// in\n    tag_151:\n        /* \"#utility.yul\":3379:3496   */\n    tag_150:\n        /* \"#utility.yul\":3520:3583   */\n      tag_152\n        /* \"#utility.yul\":3575:3582   */\n      dup8\n        /* \"#utility.yul\":3566:3572   */\n      dup3\n        /* \"#utility.yul\":3555:3564   */\n      dup9\n        /* \"#utility.yul\":3551:3573   */\n      add\n        /* \"#utility.yul\":3520:3583   */\n      tag_88\n      jump\t// in\n    tag_152:\n        /* \"#utility.yul\":3510:3583   */\n      swap4\n      pop\n        /* \"#utility.yul\":3305:3593   */\n      pop\n        /* \"#utility.yul\":3632:3634   */\n      0x40\n        /* \"#utility.yul\":3658:3711   */\n      tag_153\n        /* \"#utility.yul\":3703:3710   */\n      dup8\n        /* \"#utility.yul\":3694:3700   */\n      dup3\n        /* \"#utility.yul\":3683:3692   */\n      dup9\n        /* \"#utility.yul\":3679:3701   */\n      add\n        /* \"#utility.yul\":3658:3711   */\n      tag_78\n      jump\t// in\n    tag_153:\n        /* \"#utility.yul\":3648:3711   */\n      swap3\n      pop\n        /* \"#utility.yul\":3603:3721   */\n      pop\n        /* \"#utility.yul\":3760:3762   */\n      0x60\n        /* \"#utility.yul\":3786:3839   */\n      tag_154\n        /* \"#utility.yul\":3831:3838   */\n      dup8\n        /* \"#utility.yul\":3822:3828   */\n      dup3\n        /* \"#utility.yul\":3811:3820   */\n      dup9\n        /* \"#utility.yul\":3807:3829   */\n      add\n        /* \"#utility.yul\":3786:3839   */\n      tag_78\n      jump\t// in\n    tag_154:\n        /* \"#utility.yul\":3776:3839   */\n      swap2\n      pop\n        /* \"#utility.yul\":3731:3849   */\n      pop\n        /* \"#utility.yul\":2911:3856   */\n      swap3\n      swap6\n      swap2\n      swap5\n      pop\n      swap3\n      pop\n      jump\t// out\n        /* \"#utility.yul\":3862:4191   */\n    tag_15:\n        /* \"#utility.yul\":3921:3927   */\n      0x00\n        /* \"#utility.yul\":3970:3972   */\n      0x20\n        /* \"#utility.yul\":3958:3967   */\n      dup3\n        /* \"#utility.yul\":3949:3956   */\n      dup5\n        /* \"#utility.yul\":3945:3968   */\n      sub\n        /* \"#utility.yul\":3941:3973   */\n      slt\n        /* \"#utility.yul\":3938:4057   */\n      iszero\n      tag_156\n      jumpi\n        /* \"#utility.yul\":3976:4055   */\n      tag_157\n      tag_74\n      jump\t// in\n    tag_157:\n        /* \"#utility.yul\":3938:4057   */\n    tag_156:\n        /* \"#utility.yul\":4096:4097   */\n      0x00\n        /* \"#utility.yul\":4121:4174   */\n      tag_158\n        /* \"#utility.yul\":4166:4173   */\n      dup5\n        /* \"#utility.yul\":4157:4163   */\n      dup3\n        /* \"#utility.yul\":4146:4155   */\n      dup6\n        /* \"#utility.yul\":4142:4164   */\n      add\n        /* \"#utility.yul\":4121:4174   */\n      tag_78\n      jump\t// in\n    tag_158:\n        /* \"#utility.yul\":4111:4174   */\n      swap2\n      pop\n        /* \"#utility.yul\":4067:4184   */\n      pop\n        /* \"#utility.yul\":3862:4191   */\n      swap3\n      swap2\n      pop\n      pop\n      jump\t// out\n        /* \"#utility.yul\":4197:4296   */\n    tag_89:\n        /* \"#utility.yul\":4249:4255   */\n      0x00\n        /* \"#utility.yul\":4283:4288   */\n      dup2\n        /* \"#utility.yul\":4277:4289   */\n      mload\n        /* \"#utility.yul\":4267:4289   */\n      swap1\n      pop\n        /* \"#utility.yul\":4197:4296   */\n      swap2\n      swap1\n      pop\n      jump\t// out\n        /* \"#utility.yul\":4302:4471   */\n    tag_90:\n        /* \"#utility.yul\":4386:4397   */\n      0x00\n        /* \"#utility.yul\":4420:4426   */\n      dup3\n        /* \"#utility.yul\":4415:4418   */\n      dup3\n        /* \"#utility.yul\":4408:4427   */\n      mstore\n        /* \"#utility.yul\":4460:4464   */\n      0x20\n        /* \"#utility.yul\":4455:4458   */\n      dup3\n        /* \"#utility.yul\":4451:4465   */\n      add\n        /* \"#utility.yul\":4436:4465   */\n      swap1\n      pop\n        /* \"#utility.yul\":4302:4471   */\n      swap3\n      swap2\n      pop\n      pop\n      jump\t// out\n        /* \"#utility.yul\":4477:4616   */\n    tag_91:\n        /* \"#utility.yul\":4566:4572   */\n      dup3\n        /* \"#utility.yul\":4561:4564   */\n      dup2\n        /* \"#utility.yul\":4556:4559   */\n      dup4\n        /* \"#utility.yul\":4550:4573   */\n      mcopy\n        /* \"#utility.yul\":4607:4608   */\n      0x00\n        /* \"#utility.yul\":4598:4604   */\n      dup4\n        /* \"#utility.yul\":4593:4596   */\n      dup4\n        /* \"#utility.yul\":4589:4605   */\n      add\n        /* \"#utility.yul\":4582:4609   */\n      mstore\n        /* \"#utility.yul\":4477:4616   */\n      pop\n      pop\n      pop\n      jump\t// out\n        /* \"#utility.yul\":4622:4999   */\n    tag_92:\n        /* \"#utility.yul\":4710:4713   */\n      0x00\n        /* \"#utility.yul\":4738:4777   */\n      tag_163\n        /* \"#utility.yul\":4771:4776   */\n      dup3\n        /* \"#utility.yul\":4738:4777   */\n      tag_89\n      jump\t// in\n    tag_163:\n        /* \"#utility.yul\":4793:4864   */\n      tag_164\n        /* \"#utility.yul\":4857:4863   */\n      dup2\n        /* \"#utility.yul\":4852:4855   */\n      dup6\n        /* \"#utility.yul\":4793:4864   */\n      tag_90\n      jump\t// in\n    tag_164:\n        /* \"#utility.yul\":4786:4864   */\n      swap4\n      pop\n        /* \"#utility.yul\":4873:4938   */\n      tag_165\n        /* \"#utility.yul\":4931:4937   */\n      dup2\n        /* \"#utility.yul\":4926:4929   */\n      dup6\n        /* \"#utility.yul\":4919:4923   */\n      0x20\n        /* \"#utility.yul\":4912:4917   */\n      dup7\n        /* \"#utility.yul\":4908:4924   */\n      add\n        /* \"#utility.yul\":4873:4938   */\n      tag_91\n      jump\t// in\n    tag_165:\n        /* \"#utility.yul\":4963:4992   */\n      tag_166\n        /* \"#utility.yul\":4985:4991   */\n      dup2\n        /* \"#utility.yul\":4963:4992   */\n      tag_81\n      jump\t// in\n    tag_166:\n        /* \"#utility.yul\":4958:4961   */\n      dup5\n        /* \"#utility.yul\":4954:4993   */\n      add\n        /* \"#utility.yul\":4947:4993   */\n      swap2\n      pop\n        /* \"#utility.yul\":4714:4999   */\n      pop\n        /* \"#utility.yul\":4622:4999   */\n      swap3\n      swap2\n      pop\n      pop\n      jump\t// out\n        /* \"#utility.yul\":5005:5318   */\n    tag_18:\n        /* \"#utility.yul\":5118:5122   */\n      0x00\n        /* \"#utility.yul\":5156:5158   */\n      0x20\n        /* \"#utility.yul\":5145:5154   */\n      dup3\n        /* \"#utility.yul\":5141:5159   */\n      add\n        /* \"#utility.yul\":5133:5159   */\n      swap1\n      pop\n        /* \"#utility.yul\":5205:5214   */\n      dup2\n        /* \"#utility.yul\":5199:5203   */\n      dup2\n        /* \"#utility.yul\":5195:5215   */\n      sub\n        /* \"#utility.yul\":5191:5192   */\n      0x00\n        /* \"#utility.yul\":5180:5189   */\n      dup4\n        /* \"#utility.yul\":5176:5193   */\n      add\n        /* \"#utility.yul\":5169:5216   */\n      mstore\n        /* \"#utility.yul\":5233:5311   */\n      tag_168\n        /* \"#utility.yul\":5306:5310   */\n      dup2\n        /* \"#utility.yul\":5297:5303   */\n      dup5\n        /* \"#utility.yul\":5233:5311   */\n      tag_92\n      jump\t// in\n    tag_168:\n        /* \"#utility.yul\":5225:5311   */\n      swap1\n      pop\n        /* \"#utility.yul\":5005:5318   */\n      swap3\n      swap2\n      pop\n      pop\n      jump\t// out\n        /* \"#utility.yul\":5324:5442   */\n    tag_93:\n        /* \"#utility.yul\":5411:5435   */\n      tag_170\n        /* \"#utility.yul\":5429:5434   */\n      dup2\n        /* \"#utility.yul\":5411:5435   */\n      tag_76\n      jump\t// in\n    tag_170:\n        /* \"#utility.yul\":5406:5409   */\n      dup3\n        /* \"#utility.yul\":5399:5436   */\n      mstore\n        /* \"#utility.yul\":5324:5442   */\n      pop\n      pop\n      jump\t// out\n        /* \"#utility.yul\":5448:6092   */\n    tag_23:\n        /* \"#utility.yul\":5645:5649   */\n      0x00\n        /* \"#utility.yul\":5683:5686   */\n      0x80\n        /* \"#utility.yul\":5672:5681   */\n      dup3\n        /* \"#utility.yul\":5668:5687   */\n      add\n        /* \"#utility.yul\":5660:5687   */\n      swap1\n      pop\n        /* \"#utility.yul\":5733:5742   */\n      dup2\n        /* \"#utility.yul\":5727:5731   */\n      dup2\n        /* \"#utility.yul\":5723:5743   */\n      sub\n        /* \"#utility.yul\":5719:5720   */\n      0x00\n        /* \"#utility.yul\":5708:5717   */\n      dup4\n        /* \"#utility.yul\":5704:5721   */\n      add\n        /* \"#utility.yul\":5697:5744   */\n      mstore\n        /* \"#utility.yul\":5761:5839   */\n      tag_172\n        /* \"#utility.yul\":5834:5838   */\n      dup2\n        /* \"#utility.yul\":5825:5831   */\n      dup8\n        /* \"#utility.yul\":5761:5839   */\n      tag_92\n      jump\t// in\n    tag_172:\n        /* \"#utility.yul\":5753:5839   */\n      swap1\n      pop\n        /* \"#utility.yul\":5849:5921   */\n      tag_173\n        /* \"#utility.yul\":5917:5919   */\n      0x20\n        /* \"#utility.yul\":5906:5915   */\n      dup4\n        /* \"#utility.yul\":5902:5920   */\n      add\n        /* \"#utility.yul\":5893:5899   */\n      dup7\n        /* \"#utility.yul\":5849:5921   */\n      tag_93\n      jump\t// in\n    tag_173:\n        /* \"#utility.yul\":5931:6003   */\n      tag_174\n        /* \"#utility.yul\":5999:6001   */\n      0x40\n        /* \"#utility.yul\":5988:5997   */\n      dup4\n        /* \"#utility.yul\":5984:6002   */\n      add\n        /* \"#utility.yul\":5975:5981   */\n      dup6\n        /* \"#utility.yul\":5931:6003   */\n      tag_93\n      jump\t// in\n    tag_174:\n        /* \"#utility.yul\":6013:6085   */\n      tag_175\n        /* \"#utility.yul\":6081:6083   */\n      0x60\n        /* \"#utility.yul\":6070:6079   */\n      dup4\n        /* \"#utility.yul\":6066:6084   */\n      add\n        /* \"#utility.yul\":6057:6063   */\n      dup5\n        /* \"#utility.yul\":6013:6085   */\n      tag_93\n      jump\t// in\n    tag_175:\n        /* \"#utility.yul\":5448:6092   */\n      swap6\n      swap5\n      pop\n      pop\n      pop\n      pop\n      pop\n      jump\t// out\n        /* \"#utility.yul\":6098:6320   */\n    tag_27:\n        /* \"#utility.yul\":6191:6195   */\n      0x00\n        /* \"#utility.yul\":6229:6231   */\n      0x20\n        /* \"#utility.yul\":6218:6227   */\n      dup3\n        /* \"#utility.yul\":6214:6232   */\n      add\n        /* \"#utility.yul\":6206:6232   */\n      swap1\n      pop\n        /* \"#utility.yul\":6242:6313   */\n      tag_177\n        /* \"#utility.yul\":6310:6311   */\n      0x00\n        /* \"#utility.yul\":6299:6308   */\n      dup4\n        /* \"#utility.yul\":6295:6312   */\n      add\n        /* \"#utility.yul\":6286:6292   */\n      dup5\n        /* \"#utility.yul\":6242:6313   */\n      tag_93\n      jump\t// in\n    tag_177:\n        /* \"#utility.yul\":6098:6320   */\n      swap3\n      swap2\n      pop\n      pop\n      jump\t// out\n        /* \"#utility.yul\":6326:7271   */\n    tag_30:\n        /* \"#utility.yul\":6422:6428   */\n      0x00\n        /* \"#utility.yul\":6430:6436   */\n      dup1\n        /* \"#utility.yul\":6438:6444   */\n      0x00\n        /* \"#utility.yul\":6446:6452   */\n      dup1\n        /* \"#utility.yul\":6495:6498   */\n      0x80\n        /* \"#utility.yul\":6483:6492   */\n      dup6\n        /* \"#utility.yul\":6474:6481   */\n      dup8\n        /* \"#utility.yul\":6470:6493   */\n      sub\n        /* \"#utility.yul\":6466:6499   */\n      slt\n        /* \"#utility.yul\":6463:6583   */\n      iszero\n      tag_179\n      jumpi\n        /* \"#utility.yul\":6502:6581   */\n      tag_180\n      tag_74\n      jump\t// in\n    tag_180:\n        /* \"#utility.yul\":6463:6583   */\n    tag_179:\n        /* \"#utility.yul\":6650:6651   */\n      0x00\n        /* \"#utility.yul\":6639:6648   */\n      dup6\n        /* \"#utility.yul\":6635:6652   */\n      add\n        /* \"#utility.yul\":6622:6653   */\n      calldataload\n        /* \"#utility.yul\":6680:6698   */\n      0xffffffffffffffff\n        /* \"#utility.yul\":6672:6678   */\n      dup2\n        /* \"#utility.yul\":6669:6699   */\n      gt\n        /* \"#utility.yul\":6666:6783   */\n      iszero\n      tag_181\n      jumpi\n        /* \"#utility.yul\":6702:6781   */\n      tag_182\n      tag_75\n      jump\t// in\n    tag_182:\n        /* \"#utility.yul\":6666:6783   */\n    tag_181:\n        /* \"#utility.yul\":6807:6870   */\n      tag_183\n        /* \"#utility.yul\":6862:6869   */\n      dup8\n        /* \"#utility.yul\":6853:6859   */\n      dup3\n        /* \"#utility.yul\":6842:6851   */\n      dup9\n        /* \"#utility.yul\":6838:6860   */\n      add\n        /* \"#utility.yul\":6807:6870   */\n      tag_88\n      jump\t// in\n    tag_183:\n        /* \"#utility.yul\":6797:6870   */\n      swap5\n      pop\n        /* \"#utility.yul\":6593:6880   */\n      pop\n        /* \"#utility.yul\":6919:6921   */\n      0x20\n        /* \"#utility.yul\":6945:6998   */\n      tag_184\n        /* \"#utility.yul\":6990:6997   */\n      dup8\n        /* \"#utility.yul\":6981:6987   */\n      dup3\n        /* \"#utility.yul\":6970:6979   */\n      dup9\n        /* \"#utility.yul\":6966:6988   */\n      add\n        /* \"#utility.yul\":6945:6998   */\n      tag_78\n      jump\t// in\n    tag_184:\n        /* \"#utility.yul\":6935:6998   */\n      swap4\n      pop\n        /* \"#utility.yul\":6890:7008   */\n      pop\n        /* \"#utility.yul\":7047:7049   */\n      0x40\n        /* \"#utility.yul\":7073:7126   */\n      tag_185\n        /* \"#utility.yul\":7118:7125   */\n      dup8\n        /* \"#utility.yul\":7109:7115   */\n      dup3\n        /* \"#utility.yul\":7098:7107   */\n      dup9\n        /* \"#utility.yul\":7094:7116   */\n      add\n        /* \"#utility.yul\":7073:7126   */\n      tag_78\n      jump\t// in\n    tag_185:\n        /* \"#utility.yul\":7063:7126   */\n      swap3\n      pop\n        /* \"#utility.yul\":7018:7136   */\n      pop\n        /* \"#utility.yul\":7175:7177   */\n      0x60\n        /* \"#utility.yul\":7201:7254   */\n      tag_186\n        /* \"#utility.yul\":7246:7253   */\n      dup8\n        /* \"#utility.yul\":7237:7243   */\n      dup3\n        /* \"#utility.yul\":7226:7235   */\n      dup9\n        /* \"#utility.yul\":7222:7244   */\n      add\n        /* \"#utility.yul\":7201:7254   */\n      tag_78\n      jump\t// in\n    tag_186:\n        /* \"#utility.yul\":7191:7254   */\n      swap2\n      pop\n        /* \"#utility.yul\":7146:7264   */\n      pop\n        /* \"#utility.yul\":6326:7271   */\n      swap3\n      swap6\n      swap2\n      swap5\n      pop\n      swap3\n      pop\n      jump\t// out\n        /* \"#utility.yul\":7277:7457   */\n    tag_94:\n        /* \"#utility.yul\":7325:7402   */\n      0x4e487b7100000000000000000000000000000000000000000000000000000000\n        /* \"#utility.yul\":7322:7323   */\n      0x00\n        /* \"#utility.yul\":7315:7403   */\n      mstore\n        /* \"#utility.yul\":7422:7426   */\n      0x22\n        /* \"#utility.yul\":7419:7420   */\n      0x04\n        /* \"#utility.yul\":7412:7427   */\n      mstore\n        /* \"#utility.yul\":7446:7450   */\n      0x24\n        /* \"#utility.yul\":7443:7444   */\n      0x00\n        /* \"#utility.yul\":7436:7451   */\n      revert\n        /* \"#utility.yul\":7463:7783   */\n    tag_38:\n        /* \"#utility.yul\":7507:7513   */\n      0x00\n        /* \"#utility.yul\":7544:7545   */\n      0x02\n        /* \"#utility.yul\":7538:7542   */\n      dup3\n        /* \"#utility.yul\":7534:7546   */\n      div\n        /* \"#utility.yul\":7524:7546   */\n      swap1\n      pop\n        /* \"#utility.yul\":7591:7592   */\n      0x01\n        /* \"#utility.yul\":7585:7589   */\n      dup3\n        /* \"#utility.yul\":7581:7593   */\n      and\n        /* \"#utility.yul\":7612:7630   */\n      dup1\n        /* \"#utility.yul\":7602:7683   */\n      tag_189\n      jumpi\n        /* \"#utility.yul\":7668:7672   */\n      0x7f\n        /* \"#utility.yul\":7660:7666   */\n      dup3\n        /* \"#utility.yul\":7656:7673   */\n      and\n        /* \"#utility.yul\":7646:7673   */\n      swap2\n      pop\n        /* \"#utility.yul\":7602:7683   */\n    tag_189:\n        /* \"#utility.yul\":7730:7732   */\n      0x20\n        /* \"#utility.yul\":7722:7728   */\n      dup3\n        /* \"#utility.yul\":7719:7733   */\n      lt\n        /* \"#utility.yul\":7699:7717   */\n      dup2\n        /* \"#utility.yul\":7696:7734   */\n      sub\n        /* \"#utility.yul\":7693:7777   */\n      tag_190\n      jumpi\n        /* \"#utility.yul\":7749:7767   */\n      tag_191\n      tag_94\n      jump\t// in\n    tag_191:\n        /* \"#utility.yul\":7693:7777   */\n    tag_190:\n        /* \"#utility.yul\":7514:7783   */\n      pop\n        /* \"#utility.yul\":7463:7783   */\n      swap2\n      swap1\n      pop\n      jump\t// out\n        /* \"#utility.yul\":7789:7930   */\n    tag_95:\n        /* \"#utility.yul\":7838:7842   */\n      0x00\n        /* \"#utility.yul\":7861:7864   */\n      dup2\n        /* \"#utility.yul\":7853:7864   */\n      swap1\n      pop\n        /* \"#utility.yul\":7884:7887   */\n      dup2\n        /* \"#utility.yul\":7881:7882   */\n      0x00\n        /* \"#utility.yul\":7874:7888   */\n      mstore\n        /* \"#utility.yul\":7918:7922   */\n      0x20\n        /* \"#utility.yul\":7915:7916   */\n      0x00\n        /* \"#utility.yul\":7905:7923   */\n      keccak256\n        /* \"#utility.yul\":7897:7923   */\n      swap1\n      pop\n        /* \"#utility.yul\":7789:7930   */\n      swap2\n      swap1\n      pop\n      jump\t// out\n        /* \"#utility.yul\":7936:8029   */\n    tag_96:\n        /* \"#utility.yul\":7973:7979   */\n      0x00\n        /* \"#utility.yul\":8020:8022   */\n      0x20\n        /* \"#utility.yul\":8015:8017   */\n      0x1f\n        /* \"#utility.yul\":8008:8013   */\n      dup4\n        /* \"#utility.yul\":8004:8018   */\n      add\n        /* \"#utility.yul\":8000:8023   */\n      div\n        /* \"#utility.yul\":7990:8023   */\n      swap1\n      pop\n        /* \"#utility.yul\":7936:8029   */\n      swap2\n      swap1\n      pop\n      jump\t// out\n        /* \"#utility.yul\":8035:8142   */\n    tag_97:\n        /* \"#utility.yul\":8079:8087   */\n      0x00\n        /* \"#utility.yul\":8129:8134   */\n      dup3\n        /* \"#utility.yul\":8123:8127   */\n      dup3\n        /* \"#utility.yul\":8119:8135   */\n      shl\n        /* \"#utility.yul\":8098:8135   */\n      swap1\n      pop\n        /* \"#utility.yul\":8035:8142   */\n      swap3\n      swap2\n      pop\n      pop\n      jump\t// out\n        /* \"#utility.yul\":8148:8541   */\n    tag_98:\n        /* \"#utility.yul\":8217:8223   */\n      0x00\n        /* \"#utility.yul\":8267:8268   */\n      0x08\n        /* \"#utility.yul\":8255:8265   */\n      dup4\n        /* \"#utility.yul\":8251:8269   */\n      mul\n        /* \"#utility.yul\":8290:8387   */\n      tag_196\n        /* \"#utility.yul\":8320:8386   */\n      0xffffffffffffffffffffffffffffffffffffffffffffffffffffffffffffffff\n        /* \"#utility.yul\":8309:8318   */\n      dup3\n        /* \"#utility.yul\":8290:8387   */\n      tag_97\n      jump\t// in\n    tag_196:\n        /* \"#utility.yul\":8408:8447   */\n      tag_197\n        /* \"#utility.yul\":8438:8446   */\n      dup7\n        /* \"#utility.yul\":8427:8436   */\n      dup4\n        /* \"#utility.yul\":8408:8447   */\n      tag_97\n      jump\t// in\n    tag_197:\n        /* \"#utility.yul\":8396:8447   */\n      swap6\n      pop\n        /* \"#utility.yul\":8480:8484   */\n      dup1\n        /* \"#utility.yul\":8476:8485   */\n      not\n        /* \"#utility.yul\":8469:8474   */\n      dup5\n        /* \"#utility.yul\":8465:8486   */\n      and\n        /* \"#utility.yul\":8456:8486   */\n      swap4\n      pop\n        /* \"#utility.yul\":8529:8533   */\n      dup1\n        /* \"#utility.yul\":8519:8527   */\n      dup7\n        /* \"#utility.yul\":8515:8534   */\n      and\n        /* \"#utility.yul\":8508:8513   */\n      dup5\n        /* \"#utility.yul\":8505:8535   */\n      or\n        /* \"#utility.yul\":8495:8535   */\n      swap3\n      pop\n        /* \"#utility.yul\":8224:8541   */\n      pop\n      pop\n        /* \"#utility.yul\":8148:8541   */\n      swap4\n      swap3\n      pop\n      pop\n      pop\n      jump\t// out\n        /* \"#utility.yul\":8547:8607   */\n    tag_99:\n        /* \"#utility.yul\":8575:8578   */\n      0x00\n        /* \"#utility.yul\":8596:8601   */\n      dup2\n        /* \"#utility.yul\":8589:8601   */\n      swap1\n      pop\n        /* \"#utility.yul\":8547:8607   */\n      swap2\n      swap1\n      pop\n      jump\t// out\n        /* \"#utility.yul\":8613:8755   */\n    tag_100:\n        /* \"#utility.yul\":8663:8672   */\n      0x00\n        /* \"#utility.yul\":8696:8749   */\n      tag_200\n        /* \"#utility.yul\":8714:8748   */\n      tag_201\n        /* \"#utility.yul\":8723:8747   */\n      tag_202\n        /* \"#utility.yul\":8741:8746   */\n      dup5\n        /* \"#utility.yul\":8723:8747   */\n      tag_76\n      jump\t// in\n    tag_202:\n        /* \"#utility.yul\":8714:8748   */\n      tag_99\n      jump\t// in\n    tag_201:\n        /* \"#utility.yul\":8696:8749   */\n      tag_76\n      jump\t// in\n    tag_200:\n        /* \"#utility.yul\":8683:8749   */\n      swap1\n      pop\n        /* \"#utility.yul\":8613:8755   */\n      swap2\n      swap1\n      pop\n      jump\t// out\n        /* \"#utility.yul\":8761:8836   */\n    tag_101:\n        /* \"#utility.yul\":8804:8807   */\n      0x00\n        /* \"#utility.yul\":8825:8830   */\n      dup2\n        /* \"#utility.yul\":8818:8830   */\n      swap1\n      pop\n        /* \"#utility.yul\":8761:8836   */\n      swap2\n      swap1\n      pop\n      jump\t// out\n        /* \"#utility.yul\":8842:9111   */\n    tag_102:\n        /* \"#utility.yul\":8952:8991   */\n      tag_205\n        /* \"#utility.yul\":8983:8990   */\n      dup4\n        /* \"#utility.yul\":8952:8991   */\n      tag_100\n      jump\t// in\n    tag_205:\n        /* \"#utility.yul\":9013:9104   */\n      tag_206\n        /* \"#utility.yul\":9062:9103   */\n      tag_207\n        /* \"#utility.yul\":9086:9102   */\n      dup3\n        /* \"#utility.yul\":9062:9103   */\n      tag_101\n      jump\t// in\n    tag_207:\n        /* \"#utility.yul\":9054:9060   */\n      dup5\n        /* \"#utility.yul\":9047:9051   */\n      dup5\n        /* \"#utility.yul\":9041:9052   */\n      sload\n        /* \"#utility.yul\":9013:9104   */\n      tag_98\n      jump\t// in\n    tag_206:\n        /* \"#utility.yul\":9007:9011   */\n      dup3\n        /* \"#utility.yul\":9000:9105   */\n      sstore\n        /* \"#utility.yul\":8918:9111   */\n      pop\n        /* \"#utility.yul\":8842:9111   */\n      pop\n      pop\n      pop\n      jump\t// out\n        /* \"#utility.yul\":9117:9190   */\n    tag_103:\n        /* \"#utility.yul\":9162:9165   */\n      0x00\n        /* \"#utility.yul\":9117:9190   */\n      swap1\n      jump\t// out\n        /* \"#utility.yul\":9196:9385   */\n    tag_104:\n        /* \"#utility.yul\":9273:9305   */\n      tag_210\n      tag_103\n      jump\t// in\n    tag_210:\n        /* \"#utility.yul\":9314:9379   */\n      tag_211\n        /* \"#utility.yul\":9372:9378   */\n      dup2\n        /* \"#utility.yul\":9364:9370   */\n      dup5\n        /* \"#utility.yul\":9358:9362   */\n      dup5\n        /* \"#utility.yul\":9314:9379   */\n      tag_102\n      jump\t// in\n    tag_211:\n        /* \"#utility.yul\":9249:9385   */\n      pop\n        /* \"#utility.yul\":9196:9385   */\n      pop\n      pop\n      jump\t// out\n        /* \"#utility.yul\":9391:9577   */\n    tag_105:\n        /* \"#utility.yul\":9451:9571   */\n    tag_213:\n        /* \"#utility.yul\":9468:9471   */\n      dup2\n        /* \"#utility.yul\":9461:9466   */\n      dup2\n        /* \"#utility.yul\":9458:9472   */\n      lt\n        /* \"#utility.yul\":9451:9571   */\n      iszero\n      tag_215\n      jumpi\n        /* \"#utility.yul\":9522:9561   */\n      tag_216\n        /* \"#utility.yul\":9559:9560   */\n      0x00\n        /* \"#utility.yul\":9552:9557   */\n      dup3\n        /* \"#utility.yul\":9522:9561   */\n      tag_104\n      jump\t// in\n    tag_216:\n        /* \"#utility.yul\":9495:9496   */\n      0x01\n        /* \"#utility.yul\":9488:9493   */\n      dup2\n        /* \"#utility.yul\":9484:9497   */\n      add\n        /* \"#utility.yul\":9475:9497   */\n      swap1\n      pop\n        /* \"#utility.yul\":9451:9571   */\n      jump(tag_213)\n    tag_215:\n        /* \"#utility.yul\":9391:9577   */\n      pop\n      pop\n      jump\t// out\n        /* \"#utility.yul\":9583:10126   */\n    tag_106:\n        /* \"#utility.yul\":9684:9686   */\n      0x1f\n        /* \"#utility.yul\":9679:9682   */\n      dup3\n        /* \"#utility.yul\":9676:9687   */\n      gt\n        /* \"#utility.yul\":9673:10119   */\n      iszero\n      tag_218\n      jumpi\n        /* \"#utility.yul\":9718:9756   */\n      tag_219\n        /* \"#utility.yul\":9750:9755   */\n      dup2\n        /* \"#utility.yul\":9718:9756   */\n      tag_95\n      jump\t// in\n    tag_219:\n        /* \"#utility.yul\":9802:9831   */\n      tag_220\n        /* \"#utility.yul\":9820:9830   */\n      dup5\n        /* \"#utility.yul\":9802:9831   */\n      tag_96\n      jump\t// in\n    tag_220:\n        /* \"#utility.yul\":9792:9800   */\n      dup2\n        /* \"#utility.yul\":9788:9832   */\n      add\n        /* \"#utility.yul\":9985:9987   */\n      0x20\n        /* \"#utility.yul\":9973:9983   */\n      dup6\n        /* \"#utility.yul\":9970:9988   */\n      lt\n        /* \"#utility.yul\":9967:10016   */\n      iszero\n      tag_221\n      jumpi\n        /* \"#utility.yul\":10006:10014   */\n      dup2\n        /* \"#utility.yul\":9991:10014   */\n      swap1\n      pop\n        /* \"#utility.yul\":9967:10016   */\n    tag_221:\n        /* \"#utility.yul\":10029:10109   */\n      tag_222\n        /* \"#utility.yul\":10085:10107   */\n      tag_223\n        /* \"#utility.yul\":10103:10106   */\n      dup6\n        /* \"#utility.yul\":10085:10107   */\n      tag_96\n      jump\t// in\n    tag_223:\n        /* \"#utility.yul\":10075:10083   */\n      dup4\n        /* \"#utility.yul\":10071:10108   */\n      add\n        /* \"#utility.yul\":10058:10069   */\n      dup3\n        /* \"#utility.yul\":10029:10109   */\n      tag_105\n      jump\t// in\n    tag_222:\n        /* \"#utility.yul\":9688:10119   */\n      pop\n      pop\n        /* \"#utility.yul\":9673:10119   */\n    tag_218:\n        /* \"#utility.yul\":9583:10126   */\n      pop\n      pop\n      pop\n      jump\t// out\n        /* \"#utility.yul\":10132:10249   */\n    tag_107:\n        /* \"#utility.yul\":10186:10194   */\n      0x00\n        /* \"#utility.yul\":10236:10241   */\n      dup3\n        /* \"#utility.yul\":10230:10234   */\n      dup3\n        /* \"#utility.yul\":10226:10242   */\n      shr\n        /* \"#utility.yul\":10205:10242   */\n      swap1\n      pop\n        /* \"#utility.yul\":10132:10249   */\n      swap3\n      swap2\n      pop\n      pop\n      jump\t// out\n        /* \"#utility.yul\":10255:10424   */\n    tag_108:\n        /* \"#utility.yul\":10299:10305   */\n      0x00\n        /* \"#utility.yul\":10332:10383   */\n      tag_226\n        /* \"#utility.yul\":10380:10381   */\n      0x00\n        /* \"#utility.yul\":10376:10382   */\n      not\n        /* \"#utility.yul\":10368:10373   */\n      dup5\n        /* \"#utility.yul\":10365:10366   */\n      0x08\n        /* \"#utility.yul\":10361:10374   */\n      mul\n        /* \"#utility.yul\":10332:10383   */\n      tag_107\n      jump\t// in\n    tag_226:\n        /* \"#utility.yul\":10328:10384   */\n      not\n        /* \"#utility.yul\":10413:10417   */\n      dup1\n        /* \"#utility.yul\":10407:10411   */\n      dup4\n        /* \"#utility.yul\":10403:10418   */\n      and\n        /* \"#utility.yul\":10393:10418   */\n      swap2\n      pop\n        /* \"#utility.yul\":10306:10424   */\n      pop\n        /* \"#utility.yul\":10255:10424   */\n      swap3\n      swap2\n      pop\n      pop\n      jump\t// out\n        /* \"#utility.yul\":10429:10724   */\n    tag_109:\n        /* \"#utility.yul\":10505:10509   */\n      0x00\n        /* \"#utility.yul\":10651:10680   */\n      tag_228\n        /* \"#utility.yul\":10676:10679   */\n      dup4\n        /* \"#utility.yul\":10670:10674   */\n      dup4\n        /* \"#utility.yul\":10651:10680   */\n      tag_108\n      jump\t// in\n    tag_228:\n        /* \"#utility.yul\":10643:10680   */\n      swap2\n      pop\n        /* \"#utility.yul\":10713:10716   */\n      dup3\n        /* \"#utility.yul\":10710:10711   */\n      0x02\n        /* \"#utility.yul\":10706:10717   */\n      mul\n        /* \"#utility.yul\":10700:10704   */\n      dup3\n        /* \"#utility.yul\":10697:10718   */\n      or\n        /* \"#utility.yul\":10689:10718   */\n      swap1\n      pop\n        /* \"#utility.yul\":10429:10724   */\n      swap3\n      swap2\n      pop\n      pop\n      jump\t// out\n        /* \"#utility.yul\":10729:12124   */\n    tag_44:\n        /* \"#utility.yul\":10846:10883   */\n      tag_230\n        /* \"#utility.yul\":10879:10882   */\n      dup3\n        /* \"#utility.yul\":10846:10883   */\n      tag_89\n      jump\t// in\n    tag_230:\n        /* \"#utility.yul\":10948:10966   */\n      0xffffffffffffffff\n        /* \"#utility.yul\":10940:10946   */\n      dup2\n        /* \"#utility.yul\":10937:10967   */\n      gt\n        /* \"#utility.yul\":10934:10990   */\n      iszero\n      tag_231\n      jumpi\n        /* \"#utility.yul\":10970:10988   */\n      tag_232\n      tag_82\n      jump\t// in\n    tag_232:\n        /* \"#utility.yul\":10934:10990   */\n    tag_231:\n        /* \"#utility.yul\":11014:11052   */\n      tag_233\n        /* \"#utility.yul\":11046:11050   */\n      dup3\n        /* \"#utility.yul\":11040:11051   */\n      sload\n        /* \"#utility.yul\":11014:11052   */\n      tag_38\n      jump\t// in\n    tag_233:\n        /* \"#utility.yul\":11099:11166   */\n      tag_234\n        /* \"#utility.yul\":11159:11165   */\n      dup3\n        /* \"#utility.yul\":11151:11157   */\n      dup3\n        /* \"#utility.yul\":11145:11149   */\n      dup6\n        /* \"#utility.yul\":11099:11166   */\n      tag_106\n      jump\t// in\n    tag_234:\n        /* \"#utility.yul\":11193:11194   */\n      0x00\n        /* \"#utility.yul\":11217:11221   */\n      0x20\n        /* \"#utility.yul\":11204:11221   */\n      swap1\n      pop\n        /* \"#utility.yul\":11249:11251   */\n      0x1f\n        /* \"#utility.yul\":11241:11247   */\n      dup4\n        /* \"#utility.yul\":11238:11252   */\n      gt\n        /* \"#utility.yul\":11266:11267   */\n      0x01\n        /* \"#utility.yul\":11261:11879   */\n      dup2\n      eq\n      tag_236\n      jumpi\n        /* \"#utility.yul\":11923:11924   */\n      0x00\n        /* \"#utility.yul\":11940:11946   */\n      dup5\n        /* \"#utility.yul\":11937:12014   */\n      iszero\n      tag_237\n      jumpi\n        /* \"#utility.yul\":11989:11998   */\n      dup3\n        /* \"#utility.yul\":11984:11987   */\n      dup8\n        /* \"#utility.yul\":11980:11999   */\n      add\n        /* \"#utility.yul\":11974:12000   */\n      mload\n        /* \"#utility.yul\":11965:12000   */\n      swap1\n      pop\n        /* \"#utility.yul\":11937:12014   */\n    tag_237:\n        /* \"#utility.yul\":12040:12107   */\n      tag_238\n        /* \"#utility.yul\":12100:12106   */\n      dup6\n        /* \"#utility.yul\":12093:12098   */\n      dup3\n        /* \"#utility.yul\":12040:12107   */\n      tag_109\n      jump\t// in\n    tag_238:\n        /* \"#utility.yul\":12034:12038   */\n      dup7\n        /* \"#utility.yul\":12027:12108   */\n      sstore\n        /* \"#utility.yul\":11896:12118   */\n      pop\n        /* \"#utility.yul\":11231:12118   */\n      jump(tag_235)\n        /* \"#utility.yul\":11261:11879   */\n    tag_236:\n        /* \"#utility.yul\":11313:11317   */\n      0x1f\n        /* \"#utility.yul\":11309:11318   */\n      not\n        /* \"#utility.yul\":11301:11307   */\n      dup5\n        /* \"#utility.yul\":11297:11319   */\n      and\n        /* \"#utility.yul\":11347:11384   */\n      tag_239\n        /* \"#utility.yul\":11379:11383   */\n      dup7\n        /* \"#utility.yul\":11347:11384   */\n      tag_95\n      jump\t// in\n    tag_239:\n        /* \"#utility.yul\":11406:11407   */\n      0x00\n        /* \"#utility.yul\":11420:11628   */\n    tag_240:\n        /* \"#utility.yul\":11434:11441   */\n      dup3\n        /* \"#utility.yul\":11431:11432   */\n      dup2\n        /* \"#utility.yul\":11428:11442   */\n      lt\n        /* \"#utility.yul\":11420:11628   */\n      iszero\n      tag_242\n      jumpi\n        /* \"#utility.yul\":11513:11522   */\n      dup5\n        /* \"#utility.yul\":11508:11511   */\n      dup10\n        /* \"#utility.yul\":11504:11523   */\n      add\n        /* \"#utility.yul\":11498:11524   */\n      mload\n        /* \"#utility.yul\":11490:11496   */\n      dup3\n        /* \"#utility.yul\":11483:11525   */\n      sstore\n        /* \"#utility.yul\":11564:11565   */\n      0x01\n        /* \"#utility.yul\":11556:11562   */\n      dup3\n        /* \"#utility.yul\":11552:11566   */\n      add\n        /* \"#utility.yul\":11542:11566   */\n      swap2\n      pop\n        /* \"#utility.yul\":11611:11613   */\n      0x20\n        /* \"#utility.yul\":11600:11609   */\n      dup6\n        /* \"#utility.yul\":11596:11614   */\n      add\n        /* \"#utility.yul\":11583:11614   */\n      swap5\n      pop\n        /* \"#utility.yul\":11457:11461   */\n      0x20\n        /* \"#utility.yul\":11454:11455   */\n      dup2\n        /* \"#utility.yul\":11450:11462   */\n      add\n        /* \"#utility.yul\":11445:11462   */\n      swap1\n      pop\n        /* \"#utility.yul\":11420:11628   */\n      jump(tag_240)\n    tag_242:\n        /* \"#utility.yul\":11656:11662   */\n      dup7\n        /* \"#utility.yul\":11647:11654   */\n      dup4\n        /* \"#utility.yul\":11644:11663   */\n      lt\n        /* \"#utility.yul\":11641:11820   */\n      iszero\n      tag_243\n      jumpi\n        /* \"#utility.yul\":11714:11723   */\n      dup5\n        /* \"#utility.yul\":11709:11712   */\n      dup10\n        /* \"#utility.yul\":11705:11724   */\n      add\n        /* \"#utility.yul\":11699:11725   */\n      mload\n        /* \"#utility.yul\":11757:11805   */\n      tag_244\n        /* \"#utility.yul\":11799:11803   */\n      0x1f\n        /* \"#utility.yul\":11791:11797   */\n      dup10\n        /* \"#utility.yul\":11787:11804   */\n      and\n        /* \"#utility.yul\":11776:11785   */\n      dup3\n        /* \"#utility.yul\":11757:11805   */\n      tag_108\n      jump\t// in\n    tag_244:\n        /* \"#utility.yul\":11749:11755   */\n      dup4\n        /* \"#utility.yul\":11742:11806   */\n      sstore\n        /* \"#utility.yul\":11664:11820   */\n      pop\n        /* \"#utility.yul\":11641:11820   */\n    tag_243:\n        /* \"#utility.yul\":11866:11867   */\n      0x01\n        /* \"#utility.yul\":11862:11863   */\n      0x02\n        /* \"#utility.yul\":11854:11860   */\n      dup9\n        /* \"#utility.yul\":11850:11864   */\n      mul\n        /* \"#utility.yul\":11846:11868   */\n      add\n        /* \"#utility.yul\":11840:11844   */\n      dup9\n        /* \"#utility.yul\":11833:11869   */\n      sstore\n        /* \"#utility.yul\":11268:11879   */\n      pop\n      pop\n      pop\n        /* \"#utility.yul\":11231:12118   */\n    tag_235:\n      pop\n        /* \"#utility.yul\":10821:12124   */\n      pop\n      pop\n      pop\n        /* \"#utility.yul\":10729:12124   */\n      pop\n      pop\n      jump\t// out\n        /* \"#utility.yul\":12130:12310   */\n    tag_47:\n        /* \"#utility.yul\":12178:12255   */\n      0x4e487b7100000000000000000000000000000000000000000000000000000000\n        /* \"#utility.yul\":12175:12176   */\n      0x00\n        /* \"#utility.yul\":12168:12256   */\n      mstore\n        /* \"#utility.yul\":12275:12279   */\n      0x32\n        /* \"#utility.yul\":12272:12273   */\n      0x04\n        /* \"#utility.yul\":12265:12280   */\n      mstore\n        /* \"#utility.yul\":12299:12303   */\n      0x24\n        /* \"#utility.yul\":12296:12297   */\n      0x00\n        /* \"#utility.yul\":12289:12304   */\n      revert\n\n    auxdata: 0xa26469706673582212202d6450773c4985ff7307f9641cf65b375a4de77fcb7e53db7b4848069a06c81c64736f6c634300081a0033\n}\n",
				"bytecode": {
					"linkReferences": {},
					"object": "6080604052348015600e575f80fd5b50610c928061001c5f395ff3fe608060405234801561000f575f80fd5b5060043610610060575f3560e01c8063563d946014610064578063642f916314610080578063905634f9146100b0578063ce4f23ec146100e3578063e80bfbca14610101578063e91903a71461011d575b5f80fd5b61007e60048036038101906100799190610749565b610150565b005b61009a600480360381019061009591906107c9565b6102db565b6040516100a79190610854565b60405180910390f35b6100ca60048036038101906100c591906107c9565b61037e565b6040516100da9493929190610883565b60405180910390f35b6100eb61043e565b6040516100f891906108cd565b60405180910390f35b61011b600480360381019061011691906108e6565b610449565b005b610137600480360381019061013291906107c9565b610517565b6040516101479493929190610883565b60405180910390f35b5f60015f8681526020019081526020015f206040518060800160405290815f8201805461017c90610993565b80601f01602080910402602001604051908101604052809291908181526020018280546101a890610993565b80156101f35780601f106101ca576101008083540402835291602001916101f3565b820191905f5260205f20905b8154815290600101906020018083116101d657829003601f168201915b505050505081526020016001820154815260200160028201548152602001600382015481525050905083815f018190525082816020018181525050818160600181815250508060015f8781526020019081526020015f205f820151815f01908161025d9190610b60565b50602082015181600101556040820151816002015560608201518160030155905050805f868154811061029357610292610c2f565b5b905f5260205f2090600402015f820151815f0190816102b29190610b60565b506020820151816001015560408201518160020155606082015181600301559050505050505050565b606060015f8381526020019081526020015f205f0180546102fb90610993565b80601f016020809104026020016040519081016040528092919081815260200182805461032790610993565b80156103725780601f1061034957610100808354040283529160200191610372565b820191905f5260205f20905b81548152906001019060200180831161035557829003601f168201915b50505050509050919050565b5f818154811061038c575f80fd5b905f5260205f2090600402015f91509050805f0180546103ab90610993565b80601f01602080910402602001604051908101604052809291908181526020018280546103d790610993565b80156104225780601f106103f957610100808354040283529160200191610422565b820191905f5260205f20905b81548152906001019060200180831161040557829003601f168201915b5050505050908060010154908060020154908060030154905084565b5f8080549050905090565b5f60405180608001604052808681526020018581526020018481526020018381525090505f81908060018154018082558091505060019003905f5260205f2090600402015f909190919091505f820151815f0190816104a89190610b60565b5060208201518160010155604082015181600201556060820151816003015550508060015f8581526020019081526020015f205f820151815f0190816104ee9190610b60565b506020820151816001015560408201518160020155606082015181600301559050505050505050565b6001602052805f5260405f205f91509050805f01805461053690610993565b80601f016020809104026020016040519081016040528092919081815260200182805461056290610993565b80156105ad5780601f10610584576101008083540402835291602001916105ad565b820191905f5260205f20905b81548152906001019060200180831161059057829003601f168201915b5050505050908060010154908060020154908060030154905084565b5f604051905090565b5f80fd5b5f80fd5b5f819050919050565b6105ec816105da565b81146105f6575f80fd5b50565b5f81359050610607816105e3565b92915050565b5f80fd5b5f80fd5b5f601f19601f8301169050919050565b7f4e487b71000000000000000000000000000000000000000000000000000000005f52604160045260245ffd5b61065b82610615565b810181811067ffffffffffffffff8211171561067a57610679610625565b5b80604052505050565b5f61068c6105c9565b90506106988282610652565b919050565b5f67ffffffffffffffff8211156106b7576106b6610625565b5b6106c082610615565b9050602081019050919050565b828183375f83830152505050565b5f6106ed6106e88461069d565b610683565b90508281526020810184848401111561070957610708610611565b5b6107148482856106cd565b509392505050565b5f82601f8301126107305761072f61060d565b5b81356107408482602086016106db565b91505092915050565b5f805f8060808587031215610761576107606105d2565b5b5f61076e878288016105f9565b945050602085013567ffffffffffffffff81111561078f5761078e6105d6565b5b61079b8782880161071c565b93505060406107ac878288016105f9565b92505060606107bd878288016105f9565b91505092959194509250565b5f602082840312156107de576107dd6105d2565b5b5f6107eb848285016105f9565b91505092915050565b5f81519050919050565b5f82825260208201905092915050565b8281835e5f83830152505050565b5f610826826107f4565b61083081856107fe565b935061084081856020860161080e565b61084981610615565b840191505092915050565b5f6020820190508181035f83015261086c818461081c565b905092915050565b61087d816105da565b82525050565b5f6080820190508181035f83015261089b818761081c565b90506108aa6020830186610874565b6108b76040830185610874565b6108c46060830184610874565b95945050505050565b5f6020820190506108e05f830184610874565b92915050565b5f805f80608085870312156108fe576108fd6105d2565b5b5f85013567ffffffffffffffff81111561091b5761091a6105d6565b5b6109278782880161071c565b9450506020610938878288016105f9565b9350506040610949878288016105f9565b925050606061095a878288016105f9565b91505092959194509250565b7f4e487b71000000000000000000000000000000000000000000000000000000005f52602260045260245ffd5b5f60028204905060018216806109aa57607f821691505b6020821081036109bd576109bc610966565b5b50919050565b5f819050815f5260205f209050919050565b5f6020601f8301049050919050565b5f82821b905092915050565b5f60088302610a1f7fffffffffffffffffffffffffffffffffffffffffffffffffffffffffffffffff826109e4565b610a2986836109e4565b95508019841693508086168417925050509392505050565b5f819050919050565b5f610a64610a5f610a5a846105da565b610a41565b6105da565b9050919050565b5f819050919050565b610a7d83610a4a565b610a91610a8982610a6b565b8484546109f0565b825550505050565b5f90565b610aa5610a99565b610ab0818484610a74565b505050565b5b81811015610ad357610ac85f82610a9d565b600181019050610ab6565b5050565b601f821115610b1857610ae9816109c3565b610af2846109d5565b81016020851015610b01578190505b610b15610b0d856109d5565b830182610ab5565b50505b505050565b5f82821c905092915050565b5f610b385f1984600802610b1d565b1980831691505092915050565b5f610b508383610b29565b9150826002028217905092915050565b610b69826107f4565b67ffffffffffffffff811115610b8257610b81610625565b5b610b8c8254610993565b610b97828285610ad7565b5f60209050601f831160018114610bc8575f8415610bb6578287015190505b610bc08582610b45565b865550610c27565b601f198416610bd6866109c3565b5f5b82811015610bfd57848901518255600182019150602085019450602081019050610bd8565b86831015610c1a5784890151610c16601f891682610b29565b8355505b6001600288020188555050505b505050505050565b7f4e487b71000000000000000000000000000000000000000000000000000000005f52603260045260245ffdfea26469706673582212202d6450773c4985ff7307f9641cf65b375a4de77fcb7e53db7b4848069a06c81c64736f6c634300081a0033",
					"opcodes": "PUSH1 0x80 PUSH1 0x40 MSTORE CALLVALUE DUP1 ISZERO PUSH1 0xE JUMPI PUSH0 DUP1 REVERT JUMPDEST POP PUSH2 0xC92 DUP1 PUSH2 0x1C PUSH0 CODECOPY PUSH0 RETURN INVALID PUSH1 0x80 PUSH1 0x40 MSTORE CALLVALUE DUP1 ISZERO PUSH2 0xF JUMPI PUSH0 DUP1 REVERT JUMPDEST POP PUSH1 0x4 CALLDATASIZE LT PUSH2 0x60 JUMPI PUSH0 CALLDATALOAD PUSH1 0xE0 SHR DUP1 PUSH4 0x563D9460 EQ PUSH2 0x64 JUMPI DUP1 PUSH4 0x642F9163 EQ PUSH2 0x80 JUMPI DUP1 PUSH4 0x905634F9 EQ PUSH2 0xB0 JUMPI DUP1 PUSH4 0xCE4F23EC EQ PUSH2 0xE3 JUMPI DUP1 PUSH4 0xE80BFBCA EQ PUSH2 0x101 JUMPI DUP1 PUSH4 0xE91903A7 EQ PUSH2 0x11D JUMPI JUMPDEST PUSH0 DUP1 REVERT JUMPDEST PUSH2 0x7E PUSH1 0x4 DUP1 CALLDATASIZE SUB DUP2 ADD SWAP1 PUSH2 0x79 SWAP2 SWAP1 PUSH2 0x749 JUMP JUMPDEST PUSH2 0x150 JUMP JUMPDEST STOP JUMPDEST PUSH2 0x9A PUSH1 0x4 DUP1 CALLDATASIZE SUB DUP2 ADD SWAP1 PUSH2 0x95 SWAP2 SWAP1 PUSH2 0x7C9 JUMP JUMPDEST PUSH2 0x2DB JUMP JUMPDEST PUSH1 0x40 MLOAD PUSH2 0xA7 SWAP2 SWAP1 PUSH2 0x854 JUMP JUMPDEST PUSH1 0x40 MLOAD DUP1 SWAP2 SUB SWAP1 RETURN JUMPDEST PUSH2 0xCA PUSH1 0x4 DUP1 CALLDATASIZE SUB DUP2 ADD SWAP1 PUSH2 0xC5 SWAP2 SWAP1 PUSH2 0x7C9 JUMP JUMPDEST PUSH2 0x37E JUMP JUMPDEST PUSH1 0x40 MLOAD PUSH2 0xDA SWAP5 SWAP4 SWAP3 SWAP2 SWAP1 PUSH2 0x883 JUMP JUMPDEST PUSH1 0x40 MLOAD DUP1 SWAP2 SUB SWAP1 RETURN JUMPDEST PUSH2 0xEB PUSH2 0x43E JUMP JUMPDEST PUSH1 0x40 MLOAD PUSH2 0xF8 SWAP2 SWAP1 PUSH2 0x8CD JUMP JUMPDEST PUSH1 0x40 MLOAD DUP1 SWAP2 SUB SWAP1 RETURN JUMPDEST PUSH2 0x11B PUSH1 0x4 DUP1 CALLDATASIZE SUB DUP2 ADD SWAP1 PUSH2 0x116 SWAP2 SWAP1 PUSH2 0x8E6 JUMP JUMPDEST PUSH2 0x449 JUMP JUMPDEST STOP JUMPDEST PUSH2 0x137 PUSH1 0x4 DUP1 CALLDATASIZE SUB DUP2 ADD SWAP1 PUSH2 0x132 SWAP2 SWAP1 PUSH2 0x7C9 JUMP JUMPDEST PUSH2 0x517 JUMP JUMPDEST PUSH1 0x40 MLOAD PUSH2 0x147 SWAP5 SWAP4 SWAP3 SWAP2 SWAP1 PUSH2 0x883 JUMP JUMPDEST PUSH1 0x40 MLOAD DUP1 SWAP2 SUB SWAP1 RETURN JUMPDEST PUSH0 PUSH1 0x1 PUSH0 DUP7 DUP2 MSTORE PUSH1 0x20 ADD SWAP1 DUP2 MSTORE PUSH1 0x20 ADD PUSH0 KECCAK256 PUSH1 0x40 MLOAD DUP1 PUSH1 0x80 ADD PUSH1 0x40 MSTORE SWAP1 DUP2 PUSH0 DUP3 ADD DUP1 SLOAD PUSH2 0x17C SWAP1 PUSH2 0x993 JUMP JUMPDEST DUP1 PUSH1 0x1F ADD PUSH1 0x20 DUP1 SWAP2 DIV MUL PUSH1 0x20 ADD PUSH1 0x40 MLOAD SWAP1 DUP2 ADD PUSH1 0x40 MSTORE DUP1 SWAP3 SWAP2 SWAP1 DUP2 DUP2 MSTORE PUSH1 0x20 ADD DUP3 DUP1 SLOAD PUSH2 0x1A8 SWAP1 PUSH2 0x993 JUMP JUMPDEST DUP1 ISZERO PUSH2 0x1F3 JUMPI DUP1 PUSH1 0x1F LT PUSH2 0x1CA JUMPI PUSH2 0x100 DUP1 DUP4 SLOAD DIV MUL DUP4 MSTORE SWAP2 PUSH1 0x20 ADD SWAP2 PUSH2 0x1F3 JUMP JUMPDEST DUP3 ADD SWAP2 SWAP1 PUSH0 MSTORE PUSH1 0x20 PUSH0 KECCAK256 SWAP1 JUMPDEST DUP2 SLOAD DUP2 MSTORE SWAP1 PUSH1 0x1 ADD SWAP1 PUSH1 0x20 ADD DUP1 DUP4 GT PUSH2 0x1D6 JUMPI DUP3 SWAP1 SUB PUSH1 0x1F AND DUP3 ADD SWAP2 JUMPDEST POP POP POP POP POP DUP2 MSTORE PUSH1 0x20 ADD PUSH1 0x1 DUP3 ADD SLOAD DUP2 MSTORE PUSH1 0x20 ADD PUSH1 0x2 DUP3 ADD SLOAD DUP2 MSTORE PUSH1 0x20 ADD PUSH1 0x3 DUP3 ADD SLOAD DUP2 MSTORE POP POP SWAP1 POP DUP4 DUP2 PUSH0 ADD DUP2 SWAP1 MSTORE POP DUP3 DUP2 PUSH1 0x20 ADD DUP2 DUP2 MSTORE POP POP DUP2 DUP2 PUSH1 0x60 ADD DUP2 DUP2 MSTORE POP POP DUP1 PUSH1 0x1 PUSH0 DUP8 DUP2 MSTORE PUSH1 0x20 ADD SWAP1 DUP2 MSTORE PUSH1 0x20 ADD PUSH0 KECCAK256 PUSH0 DUP3 ADD MLOAD DUP2 PUSH0 ADD SWAP1 DUP2 PUSH2 0x25D SWAP2 SWAP1 PUSH2 0xB60 JUMP JUMPDEST POP PUSH1 0x20 DUP3 ADD MLOAD DUP2 PUSH1 0x1 ADD SSTORE PUSH1 0x40 DUP3 ADD MLOAD DUP2 PUSH1 0x2 ADD SSTORE PUSH1 0x60 DUP3 ADD MLOAD DUP2 PUSH1 0x3 ADD SSTORE SWAP1 POP POP DUP1 PUSH0 DUP7 DUP2 SLOAD DUP2 LT PUSH2 0x293 JUMPI PUSH2 0x292 PUSH2 0xC2F JUMP JUMPDEST JUMPDEST SWAP1 PUSH0 MSTORE PUSH1 0x20 PUSH0 KECCAK256 SWAP1 PUSH1 0x4 MUL ADD PUSH0 DUP3 ADD MLOAD DUP2 PUSH0 ADD SWAP1 DUP2 PUSH2 0x2B2 SWAP2 SWAP1 PUSH2 0xB60 JUMP JUMPDEST POP PUSH1 0x20 DUP3 ADD MLOAD DUP2 PUSH1 0x1 ADD SSTORE PUSH1 0x40 DUP3 ADD MLOAD DUP2 PUSH1 0x2 ADD SSTORE PUSH1 0x60 DUP3 ADD MLOAD DUP2 PUSH1 0x3 ADD SSTORE SWAP1 POP POP POP POP POP POP POP JUMP JUMPDEST PUSH1 0x60 PUSH1 0x1 PUSH0 DUP4 DUP2 MSTORE PUSH1 0x20 ADD SWAP1 DUP2 MSTORE PUSH1 0x20 ADD PUSH0 KECCAK256 PUSH0 ADD DUP1 SLOAD PUSH2 0x2FB SWAP1 PUSH2 0x993 JUMP JUMPDEST DUP1 PUSH1 0x1F ADD PUSH1 0x20 DUP1 SWAP2 DIV MUL PUSH1 0x20 ADD PUSH1 0x40 MLOAD SWAP1 DUP2 ADD PUSH1 0x40 MSTORE DUP1 SWAP3 SWAP2 SWAP1 DUP2 DUP2 MSTORE PUSH1 0x20 ADD DUP3 DUP1 SLOAD PUSH2 0x327 SWAP1 PUSH2 0x993 JUMP JUMPDEST DUP1 ISZERO PUSH2 0x372 JUMPI DUP1 PUSH1 0x1F LT PUSH2 0x349 JUMPI PUSH2 0x100 DUP1 DUP4 SLOAD DIV MUL DUP4 MSTORE SWAP2 PUSH1 0x20 ADD SWAP2 PUSH2 0x372 JUMP JUMPDEST DUP3 ADD SWAP2 SWAP1 PUSH0 MSTORE PUSH1 0x20 PUSH0 KECCAK256 SWAP1 JUMPDEST DUP2 SLOAD DUP2 MSTORE SWAP1 PUSH1 0x1 ADD SWAP1 PUSH1 0x20 ADD DUP1 DUP4 GT PUSH2 0x355 JUMPI DUP3 SWAP1 SUB PUSH1 0x1F AND DUP3 ADD SWAP2 JUMPDEST POP POP POP POP POP SWAP1 POP SWAP2 SWAP1 POP JUMP JUMPDEST PUSH0 DUP2 DUP2 SLOAD DUP2 LT PUSH2 0x38C JUMPI PUSH0 DUP1 REVERT JUMPDEST SWAP1 PUSH0 MSTORE PUSH1 0x20 PUSH0 KECCAK256 SWAP1 PUSH1 0x4 MUL ADD PUSH0 SWAP2 POP SWAP1 POP DUP1 PUSH0 ADD DUP1 SLOAD PUSH2 0x3AB SWAP1 PUSH2 0x993 JUMP JUMPDEST DUP1 PUSH1 0x1F ADD PUSH1 0x20 DUP1 SWAP2 DIV MUL PUSH1 0x20 ADD PUSH1 0x40 MLOAD SWAP1 DUP2 ADD PUSH1 0x40 MSTORE DUP1 SWAP3 SWAP2 SWAP1 DUP2 DUP2 MSTORE PUSH1 0x20 ADD DUP3 DUP1 SLOAD PUSH2 0x3D7 SWAP1 PUSH2 0x993 JUMP JUMPDEST DUP1 ISZERO PUSH2 0x422 JUMPI DUP1 PUSH1 0x1F LT PUSH2 0x3F9 JUMPI PUSH2 0x100 DUP1 DUP4 SLOAD DIV MUL DUP4 MSTORE SWAP2 PUSH1 0x20 ADD SWAP2 PUSH2 0x422 JUMP JUMPDEST DUP3 ADD SWAP2 SWAP1 PUSH0 MSTORE PUSH1 0x20 PUSH0 KECCAK256 SWAP1 JUMPDEST DUP2 SLOAD DUP2 MSTORE SWAP1 PUSH1 0x1 ADD SWAP1 PUSH1 0x20 ADD DUP1 DUP4 GT PUSH2 0x405 JUMPI DUP3 SWAP1 SUB PUSH1 0x1F AND DUP3 ADD SWAP2 JUMPDEST POP POP POP POP POP SWAP1 DUP1 PUSH1 0x1 ADD SLOAD SWAP1 DUP1 PUSH1 0x2 ADD SLOAD SWAP1 DUP1 PUSH1 0x3 ADD SLOAD SWAP1 POP DUP5 JUMP JUMPDEST PUSH0 DUP1 DUP1 SLOAD SWAP1 POP SWAP1 POP SWAP1 JUMP JUMPDEST PUSH0 PUSH1 0x40 MLOAD DUP1 PUSH1 0x80 ADD PUSH1 0x40 MSTORE DUP1 DUP7 DUP2 MSTORE PUSH1 0x20 ADD DUP6 DUP2 MSTORE PUSH1 0x20 ADD DUP5 DUP2 MSTORE PUSH1 0x20 ADD DUP4 DUP2 MSTORE POP SWAP1 POP PUSH0 DUP2 SWAP1 DUP1 PUSH1 0x1 DUP2 SLOAD ADD DUP1 DUP3 SSTORE DUP1 SWAP2 POP POP PUSH1 0x1 SWAP1 SUB SWAP1 PUSH0 MSTORE PUSH1 0x20 PUSH0 KECCAK256 SWAP1 PUSH1 0x4 MUL ADD PUSH0 SWAP1 SWAP2 SWAP1 SWAP2 SWAP1 SWAP2 POP PUSH0 DUP3 ADD MLOAD DUP2 PUSH0 ADD SWAP1 DUP2 PUSH2 0x4A8 SWAP2 SWAP1 PUSH2 0xB60 JUMP JUMPDEST POP PUSH1 0x20 DUP3 ADD MLOAD DUP2 PUSH1 0x1 ADD SSTORE PUSH1 0x40 DUP3 ADD MLOAD DUP2 PUSH1 0x2 ADD SSTORE PUSH1 0x60 DUP3 ADD MLOAD DUP2 PUSH1 0x3 ADD SSTORE POP POP DUP1 PUSH1 0x1 PUSH0 DUP6 DUP2 MSTORE PUSH1 0x20 ADD SWAP1 DUP2 MSTORE PUSH1 0x20 ADD PUSH0 KECCAK256 PUSH0 DUP3 ADD MLOAD DUP2 PUSH0 ADD SWAP1 DUP2 PUSH2 0x4EE SWAP2 SWAP1 PUSH2 0xB60 JUMP JUMPDEST POP PUSH1 0x20 DUP3 ADD MLOAD DUP2 PUSH1 0x1 ADD SSTORE PUSH1 0x40 DUP3 ADD MLOAD DUP2 PUSH1 0x2 ADD SSTORE PUSH1 0x60 DUP3 ADD MLOAD DUP2 PUSH1 0x3 ADD SSTORE SWAP1 POP POP POP POP POP POP POP JUMP JUMPDEST PUSH1 0x1 PUSH1 0x20 MSTORE DUP1 PUSH0 MSTORE PUSH1 0x40 PUSH0 KECCAK256 PUSH0 SWAP2 POP SWAP1 POP DUP1 PUSH0 ADD DUP1 SLOAD PUSH2 0x536 SWAP1 PUSH2 0x993 JUMP JUMPDEST DUP1 PUSH1 0x1F ADD PUSH1 0x20 DUP1 SWAP2 DIV MUL PUSH1 0x20 ADD PUSH1 0x40 MLOAD SWAP1 DUP2 ADD PUSH1 0x40 MSTORE DUP1 SWAP3 SWAP2 SWAP1 DUP2 DUP2 MSTORE PUSH1 0x20 ADD DUP3 DUP1 SLOAD PUSH2 0x562 SWAP1 PUSH2 0x993 JUMP JUMPDEST DUP1 ISZERO PUSH2 0x5AD JUMPI DUP1 PUSH1 0x1F LT PUSH2 0x584 JUMPI PUSH2 0x100 DUP1 DUP4 SLOAD DIV MUL DUP4 MSTORE SWAP2 PUSH1 0x20 ADD SWAP2 PUSH2 0x5AD JUMP JUMPDEST DUP3 ADD SWAP2 SWAP1 PUSH0 MSTORE PUSH1 0x20 PUSH0 KECCAK256 SWAP1 JUMPDEST DUP2 SLOAD DUP2 MSTORE SWAP1 PUSH1 0x1 ADD SWAP1 PUSH1 0x20 ADD DUP1 DUP4 GT PUSH2 0x590 JUMPI DUP3 SWAP1 SUB PUSH1 0x1F AND DUP3 ADD SWAP2 JUMPDEST POP POP POP POP POP SWAP1 DUP1 PUSH1 0x1 ADD SLOAD SWAP1 DUP1 PUSH1 0x2 ADD SLOAD SWAP1 DUP1 PUSH1 0x3 ADD SLOAD SWAP1 POP DUP5 JUMP JUMPDEST PUSH0 PUSH1 0x40 MLOAD SWAP1 POP SWAP1 JUMP JUMPDEST PUSH0 DUP1 REVERT JUMPDEST PUSH0 DUP1 REVERT JUMPDEST PUSH0 DUP2 SWAP1 POP SWAP2 SWAP1 POP JUMP JUMPDEST PUSH2 0x5EC DUP2 PUSH2 0x5DA JUMP JUMPDEST DUP2 EQ PUSH2 0x5F6 JUMPI PUSH0 DUP1 REVERT JUMPDEST POP JUMP JUMPDEST PUSH0 DUP2 CALLDATALOAD SWAP1 POP PUSH2 0x607 DUP2 PUSH2 0x5E3 JUMP JUMPDEST SWAP3 SWAP2 POP POP JUMP JUMPDEST PUSH0 DUP1 REVERT JUMPDEST PUSH0 DUP1 REVERT JUMPDEST PUSH0 PUSH1 0x1F NOT PUSH1 0x1F DUP4 ADD AND SWAP1 POP SWAP2 SWAP1 POP JUMP JUMPDEST PUSH32 0x4E487B7100000000000000000000000000000000000000000000000000000000 PUSH0 MSTORE PUSH1 0x41 PUSH1 0x4 MSTORE PUSH1 0x24 PUSH0 REVERT JUMPDEST PUSH2 0x65B DUP3 PUSH2 0x615 JUMP JUMPDEST DUP2 ADD DUP2 DUP2 LT PUSH8 0xFFFFFFFFFFFFFFFF DUP3 GT OR ISZERO PUSH2 0x67A JUMPI PUSH2 0x679 PUSH2 0x625 JUMP JUMPDEST JUMPDEST DUP1 PUSH1 0x40 MSTORE POP POP POP JUMP JUMPDEST PUSH0 PUSH2 0x68C PUSH2 0x5C9 JUMP JUMPDEST SWAP1 POP PUSH2 0x698 DUP3 DUP3 PUSH2 0x652 JUMP JUMPDEST SWAP2 SWAP1 POP JUMP JUMPDEST PUSH0 PUSH8 0xFFFFFFFFFFFFFFFF DUP3 GT ISZERO PUSH2 0x6B7 JUMPI PUSH2 0x6B6 PUSH2 0x625 JUMP JUMPDEST JUMPDEST PUSH2 0x6C0 DUP3 PUSH2 0x615 JUMP JUMPDEST SWAP1 POP PUSH1 0x20 DUP2 ADD SWAP1 POP SWAP2 SWAP1 POP JUMP JUMPDEST DUP3 DUP2 DUP4 CALLDATACOPY PUSH0 DUP4 DUP4 ADD MSTORE POP POP POP JUMP JUMPDEST PUSH0 PUSH2 0x6ED PUSH2 0x6E8 DUP5 PUSH2 0x69D JUMP JUMPDEST PUSH2 0x683 JUMP JUMPDEST SWAP1 POP DUP3 DUP2 MSTORE PUSH1 0x20 DUP2 ADD DUP5 DUP5 DUP5 ADD GT ISZERO PUSH2 0x709 JUMPI PUSH2 0x708 PUSH2 0x611 JUMP JUMPDEST JUMPDEST PUSH2 0x714 DUP5 DUP3 DUP6 PUSH2 0x6CD JUMP JUMPDEST POP SWAP4 SWAP3 POP POP POP JUMP JUMPDEST PUSH0 DUP3 PUSH1 0x1F DUP4 ADD SLT PUSH2 0x730 JUMPI PUSH2 0x72F PUSH2 0x60D JUMP JUMPDEST JUMPDEST DUP2 CALLDATALOAD PUSH2 0x740 DUP5 DUP3 PUSH1 0x20 DUP7 ADD PUSH2 0x6DB JUMP JUMPDEST SWAP2 POP POP SWAP3 SWAP2 POP POP JUMP JUMPDEST PUSH0 DUP1 PUSH0 DUP1 PUSH1 0x80 DUP6 DUP8 SUB SLT ISZERO PUSH2 0x761 JUMPI PUSH2 0x760 PUSH2 0x5D2 JUMP JUMPDEST JUMPDEST PUSH0 PUSH2 0x76E DUP8 DUP3 DUP9 ADD PUSH2 0x5F9 JUMP JUMPDEST SWAP5 POP POP PUSH1 0x20 DUP6 ADD CALLDATALOAD PUSH8 0xFFFFFFFFFFFFFFFF DUP2 GT ISZERO PUSH2 0x78F JUMPI PUSH2 0x78E PUSH2 0x5D6 JUMP JUMPDEST JUMPDEST PUSH2 0x79B DUP8 DUP3 DUP9 ADD PUSH2 0x71C JUMP JUMPDEST SWAP4 POP POP PUSH1 0x40 PUSH2 0x7AC DUP8 DUP3 DUP9 ADD PUSH2 0x5F9 JUMP JUMPDEST SWAP3 POP POP PUSH1 0x60 PUSH2 0x7BD DUP8 DUP3 DUP9 ADD PUSH2 0x5F9 JUMP JUMPDEST SWAP2 POP POP SWAP3 SWAP6 SWAP2 SWAP5 POP SWAP3 POP JUMP JUMPDEST PUSH0 PUSH1 0x20 DUP3 DUP5 SUB SLT ISZERO PUSH2 0x7DE JUMPI PUSH2 0x7DD PUSH2 0x5D2 JUMP JUMPDEST JUMPDEST PUSH0 PUSH2 0x7EB DUP5 DUP3 DUP6 ADD PUSH2 0x5F9 JUMP JUMPDEST SWAP2 POP POP SWAP3 SWAP2 POP POP JUMP JUMPDEST PUSH0 DUP2 MLOAD SWAP1 POP SWAP2 SWAP1 POP JUMP JUMPDEST PUSH0 DUP3 DUP3 MSTORE PUSH1 0x20 DUP3 ADD SWAP1 POP SWAP3 SWAP2 POP POP JUMP JUMPDEST DUP3 DUP2 DUP4 MCOPY PUSH0 DUP4 DUP4 ADD MSTORE POP POP POP JUMP JUMPDEST PUSH0 PUSH2 0x826 DUP3 PUSH2 0x7F4 JUMP JUMPDEST PUSH2 0x830 DUP2 DUP6 PUSH2 0x7FE JUMP JUMPDEST SWAP4 POP PUSH2 0x840 DUP2 DUP6 PUSH1 0x20 DUP7 ADD PUSH2 0x80E JUMP JUMPDEST PUSH2 0x849 DUP2 PUSH2 0x615 JUMP JUMPDEST DUP5 ADD SWAP2 POP POP SWAP3 SWAP2 POP POP JUMP JUMPDEST PUSH0 PUSH1 0x20 DUP3 ADD SWAP1 POP DUP2 DUP2 SUB PUSH0 DUP4 ADD MSTORE PUSH2 0x86C DUP2 DUP5 PUSH2 0x81C JUMP JUMPDEST SWAP1 POP SWAP3 SWAP2 POP POP JUMP JUMPDEST PUSH2 0x87D DUP2 PUSH2 0x5DA JUMP JUMPDEST DUP3 MSTORE POP POP JUMP JUMPDEST PUSH0 PUSH1 0x80 DUP3 ADD SWAP1 POP DUP2 DUP2 SUB PUSH0 DUP4 ADD MSTORE PUSH2 0x89B DUP2 DUP8 PUSH2 0x81C JUMP JUMPDEST SWAP1 POP PUSH2 0x8AA PUSH1 0x20 DUP4 ADD DUP7 PUSH2 0x874 JUMP JUMPDEST PUSH2 0x8B7 PUSH1 0x40 DUP4 ADD DUP6 PUSH2 0x874 JUMP JUMPDEST PUSH2 0x8C4 PUSH1 0x60 DUP4 ADD DUP5 PUSH2 0x874 JUMP JUMPDEST SWAP6 SWAP5 POP POP POP POP POP JUMP JUMPDEST PUSH0 PUSH1 0x20 DUP3 ADD SWAP1 POP PUSH2 0x8E0 PUSH0 DUP4 ADD DUP5 PUSH2 0x874 JUMP JUMPDEST SWAP3 SWAP2 POP POP JUMP JUMPDEST PUSH0 DUP1 PUSH0 DUP1 PUSH1 0x80 DUP6 DUP8 SUB SLT ISZERO PUSH2 0x8FE JUMPI PUSH2 0x8FD PUSH2 0x5D2 JUMP JUMPDEST JUMPDEST PUSH0 DUP6 ADD CALLDATALOAD PUSH8 0xFFFFFFFFFFFFFFFF DUP2 GT ISZERO PUSH2 0x91B JUMPI PUSH2 0x91A PUSH2 0x5D6 JUMP JUMPDEST JUMPDEST PUSH2 0x927 DUP8 DUP3 DUP9 ADD PUSH2 0x71C JUMP JUMPDEST SWAP5 POP POP PUSH1 0x20 PUSH2 0x938 DUP8 DUP3 DUP9 ADD PUSH2 0x5F9 JUMP JUMPDEST SWAP4 POP POP PUSH1 0x40 PUSH2 0x949 DUP8 DUP3 DUP9 ADD PUSH2 0x5F9 JUMP JUMPDEST SWAP3 POP POP PUSH1 0x60 PUSH2 0x95A DUP8 DUP3 DUP9 ADD PUSH2 0x5F9 JUMP JUMPDEST SWAP2 POP POP SWAP3 SWAP6 SWAP2 SWAP5 POP SWAP3 POP JUMP JUMPDEST PUSH32 0x4E487B7100000000000000000000000000000000000000000000000000000000 PUSH0 MSTORE PUSH1 0x22 PUSH1 0x4 MSTORE PUSH1 0x24 PUSH0 REVERT JUMPDEST PUSH0 PUSH1 0x2 DUP3 DIV SWAP1 POP PUSH1 0x1 DUP3 AND DUP1 PUSH2 0x9AA JUMPI PUSH1 0x7F DUP3 AND SWAP2 POP JUMPDEST PUSH1 0x20 DUP3 LT DUP2 SUB PUSH2 0x9BD JUMPI PUSH2 0x9BC PUSH2 0x966 JUMP JUMPDEST JUMPDEST POP SWAP2 SWAP1 POP JUMP JUMPDEST PUSH0 DUP2 SWAP1 POP DUP2 PUSH0 MSTORE PUSH1 0x20 PUSH0 KECCAK256 SWAP1 POP SWAP2 SWAP1 POP JUMP JUMPDEST PUSH0 PUSH1 0x20 PUSH1 0x1F DUP4 ADD DIV SWAP1 POP SWAP2 SWAP1 POP JUMP JUMPDEST PUSH0 DUP3 DUP3 SHL SWAP1 POP SWAP3 SWAP2 POP POP JUMP JUMPDEST PUSH0 PUSH1 0x8 DUP4 MUL PUSH2 0xA1F PUSH32 0xFFFFFFFFFFFFFFFFFFFFFFFFFFFFFFFFFFFFFFFFFFFFFFFFFFFFFFFFFFFFFFFF DUP3 PUSH2 0x9E4 JUMP JUMPDEST PUSH2 0xA29 DUP7 DUP4 PUSH2 0x9E4 JUMP JUMPDEST SWAP6 POP DUP1 NOT DUP5 AND SWAP4 POP DUP1 DUP7 AND DUP5 OR SWAP3 POP POP POP SWAP4 SWAP3 POP POP POP JUMP JUMPDEST PUSH0 DUP2 SWAP1 POP SWAP2 SWAP1 POP JUMP JUMPDEST PUSH0 PUSH2 0xA64 PUSH2 0xA5F PUSH2 0xA5A DUP5 PUSH2 0x5DA JUMP JUMPDEST PUSH2 0xA41 JUMP JUMPDEST PUSH2 0x5DA JUMP JUMPDEST SWAP1 POP SWAP2 SWAP1 POP JUMP JUMPDEST PUSH0 DUP2 SWAP1 POP SWAP2 SWAP1 POP JUMP JUMPDEST PUSH2 0xA7D DUP4 PUSH2 0xA4A JUMP JUMPDEST PUSH2 0xA91 PUSH2 0xA89 DUP3 PUSH2 0xA6B JUMP JUMPDEST DUP5 DUP5 SLOAD PUSH2 0x9F0 JUMP JUMPDEST DUP3 SSTORE POP POP POP POP JUMP JUMPDEST PUSH0 SWAP1 JUMP JUMPDEST PUSH2 0xAA5 PUSH2 0xA99 JUMP JUMPDEST PUSH2 0xAB0 DUP2 DUP5 DUP5 PUSH2 0xA74 JUMP JUMPDEST POP POP POP JUMP JUMPDEST JUMPDEST DUP2 DUP2 LT ISZERO PUSH2 0xAD3 JUMPI PUSH2 0xAC8 PUSH0 DUP3 PUSH2 0xA9D JUMP JUMPDEST PUSH1 0x1 DUP2 ADD SWAP1 POP PUSH2 0xAB6 JUMP JUMPDEST POP POP JUMP JUMPDEST PUSH1 0x1F DUP3 GT ISZERO PUSH2 0xB18 JUMPI PUSH2 0xAE9 DUP2 PUSH2 0x9C3 JUMP JUMPDEST PUSH2 0xAF2 DUP5 PUSH2 0x9D5 JUMP JUMPDEST DUP2 ADD PUSH1 0x20 DUP6 LT ISZERO PUSH2 0xB01 JUMPI DUP2 SWAP1 POP JUMPDEST PUSH2 0xB15 PUSH2 0xB0D DUP6 PUSH2 0x9D5 JUMP JUMPDEST DUP4 ADD DUP3 PUSH2 0xAB5 JUMP JUMPDEST POP POP JUMPDEST POP POP POP JUMP JUMPDEST PUSH0 DUP3 DUP3 SHR SWAP1 POP SWAP3 SWAP2 POP POP JUMP JUMPDEST PUSH0 PUSH2 0xB38 PUSH0 NOT DUP5 PUSH1 0x8 MUL PUSH2 0xB1D JUMP JUMPDEST NOT DUP1 DUP4 AND SWAP2 POP POP SWAP3 SWAP2 POP POP JUMP JUMPDEST PUSH0 PUSH2 0xB50 DUP4 DUP4 PUSH2 0xB29 JUMP JUMPDEST SWAP2 POP DUP3 PUSH1 0x2 MUL DUP3 OR SWAP1 POP SWAP3 SWAP2 POP POP JUMP JUMPDEST PUSH2 0xB69 DUP3 PUSH2 0x7F4 JUMP JUMPDEST PUSH8 0xFFFFFFFFFFFFFFFF DUP2 GT ISZERO PUSH2 0xB82 JUMPI PUSH2 0xB81 PUSH2 0x625 JUMP JUMPDEST JUMPDEST PUSH2 0xB8C DUP3 SLOAD PUSH2 0x993 JUMP JUMPDEST PUSH2 0xB97 DUP3 DUP3 DUP6 PUSH2 0xAD7 JUMP JUMPDEST PUSH0 PUSH1 0x20 SWAP1 POP PUSH1 0x1F DUP4 GT PUSH1 0x1 DUP2 EQ PUSH2 0xBC8 JUMPI PUSH0 DUP5 ISZERO PUSH2 0xBB6 JUMPI DUP3 DUP8 ADD MLOAD SWAP1 POP JUMPDEST PUSH2 0xBC0 DUP6 DUP3 PUSH2 0xB45 JUMP JUMPDEST DUP7 SSTORE POP PUSH2 0xC27 JUMP JUMPDEST PUSH1 0x1F NOT DUP5 AND PUSH2 0xBD6 DUP7 PUSH2 0x9C3 JUMP JUMPDEST PUSH0 JUMPDEST DUP3 DUP2 LT ISZERO PUSH2 0xBFD JUMPI DUP5 DUP10 ADD MLOAD DUP3 SSTORE PUSH1 0x1 DUP3 ADD SWAP2 POP PUSH1 0x20 DUP6 ADD SWAP5 POP PUSH1 0x20 DUP2 ADD SWAP1 POP PUSH2 0xBD8 JUMP JUMPDEST DUP7 DUP4 LT ISZERO PUSH2 0xC1A JUMPI DUP5 DUP10 ADD MLOAD PUSH2 0xC16 PUSH1 0x1F DUP10 AND DUP3 PUSH2 0xB29 JUMP JUMPDEST DUP4 SSTORE POP JUMPDEST PUSH1 0x1 PUSH1 0x2 DUP9 MUL ADD DUP9 SSTORE POP POP POP JUMPDEST POP POP POP POP POP POP JUMP JUMPDEST PUSH32 0x4E487B7100000000000000000000000000000000000000000000000000000000 PUSH0 MSTORE PUSH1 0x32 PUSH1 0x4 MSTORE PUSH1 0x24 PUSH0 REVERT INVALID LOG2 PUSH5 0x6970667358 0x22 SLT KECCAK256 0x2D PUSH5 0x50773C4985 SELFDESTRUCT PUSH20 0x7F9641CF65B375A4DE77FCB7E53DB7B4848069A MOD 0xC8 SHR PUSH5 0x736F6C6343 STOP ADDMOD BYTE STOP CALLER "
				},
				"gasEstimates": {
					"creation": {
						"codeDepositCost": "643600",
						"executionCost": "674",
						"totalCost": "644274"
					},
					"external": {
						"Cohort(uint256)": "infinite",
						"addStudents(string,uint256,uint256,uint256)": "infinite",
						"getStudent(uint256)": "infinite",
						"getTotalStudent()": "2484",
						"studentRecords(uint256)": "infinite",
						"updateStudent(uint256,string,uint256,uint256)": "infinite"
					}
				},
				"methodIdentifiers": {
					"Cohort(uint256)": "905634f9",
					"addStudents(string,uint256,uint256,uint256)": "e80bfbca",
					"getStudent(uint256)": "642f9163",
					"getTotalStudent()": "ce4f23ec",
					"studentRecords(uint256)": "e91903a7",
					"updateStudent(uint256,string,uint256,uint256)": "563d9460"
				}
			},
			"storageLayout": {
				"storage": [
					{
						"astId": 14,
						"contract": "Main.sol:StudentRecord",
						"label": "Cohort",
						"offset": 0,
						"slot": "0",
						"type": "t_array(t_struct(Student)10_storage)dyn_storage"
					},
					{
						"astId": 19,
						"contract": "Main.sol:StudentRecord",
						"label": "studentRecords",
						"offset": 0,
						"slot": "1",
						"type": "t_mapping(t_uint256,t_struct(Student)10_storage)"
					}
				],
				"types": {
					"t_array(t_struct(Student)10_storage)dyn_storage": {
						"base": "t_struct(Student)10_storage",
						"encoding": "dynamic_array",
						"label": "struct StudentRecord.Student[]",
						"numberOfBytes": "32"
					},
					"t_mapping(t_uint256,t_struct(Student)10_storage)": {
						"encoding": "mapping",
						"key": "t_uint256",
						"label": "mapping(uint256 => struct StudentRecord.Student)",
						"numberOfBytes": "32",
						"value": "t_struct(Student)10_storage"
					},
					"t_string_storage": {
						"encoding": "bytes",
						"label": "string",
						"numberOfBytes": "32"
					},
					"t_struct(Student)10_storage": {
						"encoding": "inplace",
						"label": "struct StudentRecord.Student",
						"members": [
							{
								"astId": 3,
								"contract": "Main.sol:StudentRecord",
								"label": "name",
								"offset": 0,
								"slot": "0",
								"type": "t_string_storage"
							},
							{
								"astId": 5,
								"contract": "Main.sol:StudentRecord",
								"label": "age",
								"offset": 0,
								"slot": "1",
								"type": "t_uint256"
							},
							{
								"astId": 7,
								"contract": "Main.sol:StudentRecord",
								"label": "studentsID",
								"offset": 0,
								"slot": "2",
								"type": "t_uint256"
							},
							{
								"astId": 9,
								"contract": "Main.sol:StudentRecord",
								"label": "grades",
								"offset": 0,
								"slot": "3",
								"type": "t_uint256"
							}
						],
						"numberOfBytes": "128"
					},
					"t_uint256": {
						"encoding": "inplace",
						"label": "uint256",
						"numberOfBytes": "32"
					}
				}
			},
			"userdoc": {
				"kind": "user",
				"methods": {},
				"version": 1
			}
		}
	}
}