{
	"Library.sol": {
		"Library": {
			"abi": [
				{
					"inputs": [
						{
							"internalType": "string",
							"name": "",
							"type": "string"
						}
					],
					"name": "NametoBorrowersIndex",
					"outputs": [
						{
							"internalType": "uint256",
							"name": "",
							"type": "uint256"
						}
					],
					"stateMutability": "view",
					"type": "function"
				},
				{
					"inputs": [
						{
							"internalType": "string",
							"name": "_title",
							"type": "string"
						},
						{
							"internalType": "uint256",
							"name": "_bookIndex",
							"type": "uint256"
						},
						{
							"internalType": "uint256",
							"name": "_copies",
							"type": "uint256"
						}
					],
					"name": "addBook",
					"outputs": [],
					"stateMutability": "nonpayable",
					"type": "function"
				},
				{
					"inputs": [
						{
							"internalType": "uint256",
							"name": "",
							"type": "uint256"
						}
					],
					"name": "booksId",
					"outputs": [
						{
							"internalType": "string",
							"name": "title",
							"type": "string"
						},
						{
							"internalType": "uint256",
							"name": "copiesRemaining",
							"type": "uint256"
						},
						{
							"internalType": "uint256",
							"name": "bookIndex",
							"type": "uint256"
						},
						{
							"internalType": "bool",
							"name": "isBorrowed",
							"type": "bool"
						},
						{
							"internalType": "bool",
							"name": "isReturned",
							"type": "bool"
						}
					],
					"stateMutability": "view",
					"type": "function"
				},
				{
					"inputs": [
						{
							"internalType": "string",
							"name": "BorrowedBy",
							"type": "string"
						},
						{
							"internalType": "uint256",
							"name": "",
							"type": "uint256"
						}
					],
					"name": "borrowedBook",
					"outputs": [
						{
							"internalType": "string",
							"name": "title",
							"type": "string"
						},
						{
							"internalType": "uint256",
							"name": "copiesRemaining",
							"type": "uint256"
						},
						{
							"internalType": "uint256",
							"name": "bookIndex",
							"type": "uint256"
						},
						{
							"internalType": "bool",
							"name": "isBorrowed",
							"type": "bool"
						},
						{
							"internalType": "bool",
							"name": "isReturned",
							"type": "bool"
						}
					],
					"stateMutability": "view",
					"type": "function"
				},
				{
					"inputs": [
						{
							"internalType": "uint256",
							"name": "_id",
							"type": "uint256"
						},
						{
							"internalType": "string",
							"name": "_borrowedBy",
							"type": "string"
						},
						{
							"internalType": "uint256",
							"name": "_copiesBorrowed",
							"type": "uint256"
						}
					],
					"name": "borrowingBook",
					"outputs": [],
					"stateMutability": "nonpayable",
					"type": "function"
				},
				{
					"inputs": [
						{
							"internalType": "uint256",
							"name": "",
							"type": "uint256"
						}
					],
					"name": "hasBorrowed",
					"outputs": [
						{
							"internalType": "string",
							"name": "",
							"type": "string"
						}
					],
					"stateMutability": "view",
					"type": "function"
				},
				{
					"inputs": [
						{
							"internalType": "uint256",
							"name": "_id",
							"type": "uint256"
						},
						{
							"internalType": "string",
							"name": "_returnedBy",
							"type": "string"
						},
						{
							"internalType": "uint256",
							"name": "_copiesReturned",
							"type": "uint256"
						}
					],
					"name": "returnedBook",
					"outputs": [],
					"stateMutability": "nonpayable",
					"type": "function"
				},
				{
					"inputs": [],
					"name": "vieBorrowers",
					"outputs": [
						{
							"internalType": "string[]",
							"name": "",
							"type": "string[]"
						}
					],
					"stateMutability": "view",
					"type": "function"
				}
			],
			"devdoc": {
				"kind": "dev",
				"methods": {},
				"version": 1
			},
			"evm": {
				"assembly": "    /* \"Library.sol\":58:1929  contract Library{... */\n  mstore(0x40, 0x80)\n  callvalue\n  dup1\n  iszero\n  tag_1\n  jumpi\n  0x00\n  dup1\n  revert\ntag_1:\n  pop\n  dataSize(sub_0)\n  dup1\n  dataOffset(sub_0)\n  0x00\n  codecopy\n  0x00\n  return\nstop\n\nsub_0: assembly {\n        /* \"Library.sol\":58:1929  contract Library{... */\n      mstore(0x40, 0x80)\n      callvalue\n      dup1\n      iszero\n      tag_1\n      jumpi\n      0x00\n      dup1\n      revert\n    tag_1:\n      pop\n      jumpi(tag_2, lt(calldatasize, 0x04))\n      shr(0xe0, calldataload(0x00))\n      dup1\n      0x80d76e82\n      gt\n      tag_11\n      jumpi\n      dup1\n      0x80d76e82\n      eq\n      tag_7\n      jumpi\n      dup1\n      0xb3525490\n      eq\n      tag_8\n      jumpi\n      dup1\n      0xd2c42260\n      eq\n      tag_9\n      jumpi\n      dup1\n      0xd7fdc27b\n      eq\n      tag_10\n      jumpi\n      jump(tag_2)\n    tag_11:\n      dup1\n      0x168b2c10\n      eq\n      tag_3\n      jumpi\n      dup1\n      0x27e22949\n      eq\n      tag_4\n      jumpi\n      dup1\n      0x52ef8109\n      eq\n      tag_5\n      jumpi\n      dup1\n      0x632b39a9\n      eq\n      tag_6\n      jumpi\n    tag_2:\n      0x00\n      dup1\n      revert\n        /* \"Library.sol\":1827:1926  function vieBorrowers() public view returns(string[] memory){... */\n    tag_3:\n      tag_12\n      tag_13\n      jump\t// in\n    tag_12:\n      mload(0x40)\n      tag_14\n      swap2\n      swap1\n      tag_15\n      jump\t// in\n    tag_14:\n      mload(0x40)\n      dup1\n      swap2\n      sub\n      swap1\n      return\n        /* \"Library.sol\":931:1335  function borrowingBook(uint256 _id,string memory _borrowedBy, uint _copiesBorrowed)public{... */\n    tag_4:\n      tag_16\n      0x04\n      dup1\n      calldatasize\n      sub\n      dup2\n      add\n      swap1\n      tag_17\n      swap2\n      swap1\n      tag_18\n      jump\t// in\n    tag_17:\n      tag_19\n      jump\t// in\n    tag_16:\n      stop\n        /* \"Library.sol\":424:475  mapping(string => uint) public NametoBorrowersIndex */\n    tag_5:\n      tag_20\n      0x04\n      dup1\n      calldatasize\n      sub\n      dup2\n      add\n      swap1\n      tag_21\n      swap2\n      swap1\n      tag_22\n      jump\t// in\n    tag_21:\n      tag_23\n      jump\t// in\n    tag_20:\n      mload(0x40)\n      tag_24\n      swap2\n      swap1\n      tag_25\n      jump\t// in\n    tag_24:\n      mload(0x40)\n      dup1\n      swap2\n      sub\n      swap1\n      return\n        /* \"Library.sol\":524:598  mapping (string BorrowedBy => mapping (uint => Book) ) public borrowedBook */\n    tag_6:\n      tag_26\n      0x04\n      dup1\n      calldatasize\n      sub\n      dup2\n      add\n      swap1\n      tag_27\n      swap2\n      swap1\n      tag_28\n      jump\t// in\n    tag_27:\n      tag_29\n      jump\t// in\n    tag_26:\n      mload(0x40)\n      tag_30\n      swap6\n      swap5\n      swap4\n      swap3\n      swap2\n      swap1\n      tag_31\n      jump\t// in\n    tag_30:\n      mload(0x40)\n      dup1\n      swap2\n      sub\n      swap1\n      return\n        /* \"Library.sol\":666:925  function addBook(string memory _title,uint _bookIndex, uint _copies )public { ... */\n    tag_7:\n      tag_32\n      0x04\n      dup1\n      calldatasize\n      sub\n      dup2\n      add\n      swap1\n      tag_33\n      swap2\n      swap1\n      tag_34\n      jump\t// in\n    tag_33:\n      tag_35\n      jump\t// in\n    tag_32:\n      stop\n        /* \"Library.sol\":603:630  string[] public hasBorrowed */\n    tag_8:\n      tag_36\n      0x04\n      dup1\n      calldatasize\n      sub\n      dup2\n      add\n      swap1\n      tag_37\n      swap2\n      swap1\n      tag_38\n      jump\t// in\n    tag_37:\n      tag_39\n      jump\t// in\n    tag_36:\n      mload(0x40)\n      tag_40\n      swap2\n      swap1\n      tag_41\n      jump\t// in\n    tag_40:\n      mload(0x40)\n      dup1\n      swap2\n      sub\n      swap1\n      return\n        /* \"Library.sol\":1344:1821  function returnedBook(uint256 _id,string memory _returnedBy, uint _copiesReturned)public{... */\n    tag_9:\n      tag_42\n      0x04\n      dup1\n      calldatasize\n      sub\n      dup2\n      add\n      swap1\n      tag_43\n      swap2\n      swap1\n      tag_18\n      jump\t// in\n    tag_43:\n      tag_44\n      jump\t// in\n    tag_42:\n      stop\n        /* \"Library.sol\":481:518  mapping (uint => Book) public booksId */\n    tag_10:\n      tag_45\n      0x04\n      dup1\n      calldatasize\n      sub\n      dup2\n      add\n      swap1\n      tag_46\n      swap2\n      swap1\n      tag_38\n      jump\t// in\n    tag_46:\n      tag_47\n      jump\t// in\n    tag_45:\n      mload(0x40)\n      tag_48\n      swap6\n      swap5\n      swap4\n      swap3\n      swap2\n      swap1\n      tag_31\n      jump\t// in\n    tag_48:\n      mload(0x40)\n      dup1\n      swap2\n      sub\n      swap1\n      return\n        /* \"Library.sol\":1827:1926  function vieBorrowers() public view returns(string[] memory){... */\n    tag_13:\n        /* \"Library.sol\":1871:1886  string[] memory */\n      0x60\n        /* \"Library.sol\":1904:1915  hasBorrowed */\n      0x03\n        /* \"Library.sol\":1897:1915  return hasBorrowed */\n      dup1\n      sload\n      dup1\n      0x20\n      mul\n      0x20\n      add\n      mload(0x40)\n      swap1\n      dup2\n      add\n      0x40\n      mstore\n      dup1\n      swap3\n      swap2\n      swap1\n      dup2\n      dup2\n      mstore\n      0x20\n      add\n      0x00\n      swap1\n    tag_50:\n      dup3\n      dup3\n      lt\n      iszero\n      tag_51\n      jumpi\n      dup4\n      dup3\n      swap1\n      0x00\n      mstore\n      keccak256(0x00, 0x20)\n      add\n      dup1\n      sload\n      tag_53\n      swap1\n      tag_54\n      jump\t// in\n    tag_53:\n      dup1\n      0x1f\n      add\n      0x20\n      dup1\n      swap2\n      div\n      mul\n      0x20\n      add\n      mload(0x40)\n      swap1\n      dup2\n      add\n      0x40\n      mstore\n      dup1\n      swap3\n      swap2\n      swap1\n      dup2\n      dup2\n      mstore\n      0x20\n      add\n      dup3\n      dup1\n      sload\n      tag_55\n      swap1\n      tag_54\n      jump\t// in\n    tag_55:\n      dup1\n      iszero\n      tag_56\n      jumpi\n      dup1\n      0x1f\n      lt\n      tag_57\n      jumpi\n      0x0100\n      dup1\n      dup4\n      sload\n      div\n      mul\n      dup4\n      mstore\n      swap2\n      0x20\n      add\n      swap2\n      jump(tag_56)\n    tag_57:\n      dup3\n      add\n      swap2\n      swap1\n      0x00\n      mstore\n      keccak256(0x00, 0x20)\n      swap1\n    tag_58:\n      dup2\n      sload\n      dup2\n      mstore\n      swap1\n      0x01\n      add\n      swap1\n      0x20\n      add\n      dup1\n      dup4\n      gt\n      tag_58\n      jumpi\n      dup3\n      swap1\n      sub\n      0x1f\n      and\n      dup3\n      add\n      swap2\n    tag_56:\n      pop\n      pop\n      pop\n      pop\n      pop\n      dup2\n      mstore\n      0x20\n      add\n      swap1\n      0x01\n      add\n      swap1\n      jump(tag_50)\n    tag_51:\n      pop\n      pop\n      pop\n      pop\n      swap1\n      pop\n        /* \"Library.sol\":1827:1926  function vieBorrowers() public view returns(string[] memory){... */\n      swap1\n      jump\t// out\n        /* \"Library.sol\":931:1335  function borrowingBook(uint256 _id,string memory _borrowedBy, uint _copiesBorrowed)public{... */\n    tag_19:\n        /* \"Library.sol\":1056:1060  true */\n      0x01\n        /* \"Library.sol\":1030:1037  booksId */\n      dup1\n        /* \"Library.sol\":1030:1042  booksId[_id] */\n      0x00\n        /* \"Library.sol\":1038:1041  _id */\n      dup6\n        /* \"Library.sol\":1030:1042  booksId[_id] */\n      dup2\n      mstore\n      0x20\n      add\n      swap1\n      dup2\n      mstore\n      0x20\n      add\n      0x00\n      keccak256\n        /* \"Library.sol\":1030:1053  booksId[_id].isBorrowed */\n      0x03\n      add\n      0x00\n        /* \"Library.sol\":1030:1060  booksId[_id].isBorrowed = true */\n      0x0100\n      exp\n      dup2\n      sload\n      dup2\n      0xff\n      mul\n      not\n      and\n      swap1\n      dup4\n      iszero\n      iszero\n      mul\n      or\n      swap1\n      sstore\n      pop\n        /* \"Library.sol\":1070:1096  Book storage BorrowedBooks */\n      0x00\n        /* \"Library.sol\":1099:1106  booksId */\n      0x01\n        /* \"Library.sol\":1099:1111  booksId[_id] */\n      0x00\n        /* \"Library.sol\":1107:1110  _id */\n      dup6\n        /* \"Library.sol\":1099:1111  booksId[_id] */\n      dup2\n      mstore\n      0x20\n      add\n      swap1\n      dup2\n      mstore\n      0x20\n      add\n      0x00\n      keccak256\n        /* \"Library.sol\":1070:1111  Book storage BorrowedBooks = booksId[_id] */\n      swap1\n      pop\n        /* \"Library.sol\":1154:1167  BorrowedBooks */\n      dup1\n        /* \"Library.sol\":1121:1133  borrowedBook */\n      0x02\n        /* \"Library.sol\":1134:1145  _borrowedBy */\n      dup5\n        /* \"Library.sol\":1121:1146  borrowedBook[_borrowedBy] */\n      mload(0x40)\n      tag_60\n      swap2\n      swap1\n      tag_61\n      jump\t// in\n    tag_60:\n      swap1\n      dup2\n      mstore\n      0x20\n      add\n      mload(0x40)\n      dup1\n      swap2\n      sub\n      swap1\n      keccak256\n        /* \"Library.sol\":1121:1151  borrowedBook[_borrowedBy][_id] */\n      0x00\n        /* \"Library.sol\":1147:1150  _id */\n      dup7\n        /* \"Library.sol\":1121:1151  borrowedBook[_borrowedBy][_id] */\n      dup2\n      mstore\n      0x20\n      add\n      swap1\n      dup2\n      mstore\n      0x20\n      add\n      0x00\n      keccak256\n        /* \"Library.sol\":1121:1167  borrowedBook[_borrowedBy][_id] = BorrowedBooks */\n      0x00\n      dup3\n      add\n      dup2\n      0x00\n      add\n      swap1\n      dup2\n      tag_62\n      swap2\n      swap1\n      tag_63\n      jump\t// in\n    tag_62:\n      pop\n      0x01\n      dup3\n      add\n      sload\n      dup2\n      0x01\n      add\n      sstore\n      0x02\n      dup3\n      add\n      sload\n      dup2\n      0x02\n      add\n      sstore\n      0x03\n      dup3\n      add\n      0x00\n      swap1\n      sload\n      swap1\n      0x0100\n      exp\n      swap1\n      div\n      0xff\n      and\n      dup2\n      0x03\n      add\n      exp(0x0100, 0x00)\n      dup2\n      sload\n      dup2\n      0xff\n      mul\n      not\n      and\n      swap1\n      dup4\n      iszero\n      iszero\n      mul\n      or\n      swap1\n      sstore\n      pop\n      0x03\n      dup3\n      add\n      0x01\n      swap1\n      sload\n      swap1\n      0x0100\n      exp\n      swap1\n      div\n      0xff\n      and\n      dup2\n      0x03\n      add\n      exp(0x0100, 0x01)\n      dup2\n      sload\n      dup2\n      0xff\n      mul\n      not\n      and\n      swap1\n      dup4\n      iszero\n      iszero\n      mul\n      or\n      swap1\n      sstore\n      pop\n      0x04\n      dup3\n      add\n      dup2\n      0x04\n      add\n      swap1\n      dup1\n      sload\n      tag_64\n      swap3\n      swap2\n      swap1\n      tag_65\n      jump\t// in\n    tag_64:\n      pop\n      swap1\n      pop\n      pop\n        /* \"Library.sol\":1210:1225  _copiesBorrowed */\n      dup2\n        /* \"Library.sol\":1177:1190  BorrowedBooks */\n      dup2\n        /* \"Library.sol\":1177:1206  BorrowedBooks.copiesRemaining */\n      0x01\n      add\n      0x00\n        /* \"Library.sol\":1177:1225  BorrowedBooks.copiesRemaining -= _copiesBorrowed */\n      dup3\n      dup3\n      sload\n      tag_66\n      swap2\n      swap1\n      tag_67\n      jump\t// in\n    tag_66:\n      swap3\n      pop\n      pop\n      dup2\n      swap1\n      sstore\n      pop\n        /* \"Library.sol\":1235:1246  hasBorrowed */\n      0x03\n        /* \"Library.sol\":1252:1263  _borrowedBy */\n      dup4\n        /* \"Library.sol\":1235:1264  hasBorrowed.push(_borrowedBy) */\n      swap1\n      dup1\n      0x01\n      dup2\n      sload\n      add\n      dup1\n      dup3\n      sstore\n      dup1\n      swap2\n      pop\n      pop\n      0x01\n      swap1\n      sub\n      swap1\n      0x00\n      mstore\n      keccak256(0x00, 0x20)\n      add\n      0x00\n      swap1\n      swap2\n      swap1\n      swap2\n      swap1\n      swap2\n      pop\n      swap1\n      dup2\n      tag_69\n      swap2\n      swap1\n      tag_70\n      jump\t// in\n    tag_69:\n      pop\n        /* \"Library.sol\":1311:1325  totalBorrowers */\n      0x04\n      0x00\n        /* \"Library.sol\":1311:1327  totalBorrowers++ */\n      dup2\n      sload\n      dup1\n      swap3\n      swap2\n      swap1\n      tag_71\n      swap1\n      tag_72\n      jump\t// in\n    tag_71:\n      swap2\n      swap1\n      pop\n      sstore\n        /* \"Library.sol\":1275:1295  NametoBorrowersIndex */\n      0x00\n        /* \"Library.sol\":1296:1307  _borrowedBy */\n      dup5\n        /* \"Library.sol\":1275:1308  NametoBorrowersIndex[_borrowedBy] */\n      mload(0x40)\n      tag_73\n      swap2\n      swap1\n      tag_61\n      jump\t// in\n    tag_73:\n      swap1\n      dup2\n      mstore\n      0x20\n      add\n      mload(0x40)\n      dup1\n      swap2\n      sub\n      swap1\n      keccak256\n        /* \"Library.sol\":1275:1327  NametoBorrowersIndex[_borrowedBy] = totalBorrowers++ */\n      dup2\n      swap1\n      sstore\n      pop\n        /* \"Library.sol\":1020:1335  {... */\n      pop\n        /* \"Library.sol\":931:1335  function borrowingBook(uint256 _id,string memory _borrowedBy, uint _copiesBorrowed)public{... */\n      pop\n      pop\n      pop\n      jump\t// out\n        /* \"Library.sol\":424:475  mapping(string => uint) public NametoBorrowersIndex */\n    tag_23:\n      0x00\n      dup2\n      dup1\n      mload\n      0x20\n      dup2\n      add\n      dup3\n      add\n      dup1\n      mload\n      dup5\n      dup3\n      mstore\n      0x20\n      dup4\n      add\n      0x20\n      dup6\n      add\n      keccak256\n      dup2\n      dup4\n      mstore\n      dup1\n      swap6\n      pop\n      pop\n      pop\n      pop\n      pop\n      pop\n      0x00\n      swap2\n      pop\n      swap1\n      pop\n      sload\n      dup2\n      jump\t// out\n        /* \"Library.sol\":524:598  mapping (string BorrowedBy => mapping (uint => Book) ) public borrowedBook */\n    tag_29:\n      0x02\n      dup3\n      dup1\n      mload\n      0x20\n      dup2\n      add\n      dup3\n      add\n      dup1\n      mload\n      dup5\n      dup3\n      mstore\n      0x20\n      dup4\n      add\n      0x20\n      dup6\n      add\n      keccak256\n      dup2\n      dup4\n      mstore\n      dup1\n      swap6\n      pop\n      pop\n      pop\n      pop\n      pop\n      pop\n      0x20\n      mstore\n      dup1\n      0x00\n      mstore\n      keccak256(0x00, 0x40)\n      0x00\n      swap2\n      pop\n      swap2\n      pop\n      pop\n      dup1\n      0x00\n      add\n      dup1\n      sload\n      tag_74\n      swap1\n      tag_54\n      jump\t// in\n    tag_74:\n      dup1\n      0x1f\n      add\n      0x20\n      dup1\n      swap2\n      div\n      mul\n      0x20\n      add\n      mload(0x40)\n      swap1\n      dup2\n      add\n      0x40\n      mstore\n      dup1\n      swap3\n      swap2\n      swap1\n      dup2\n      dup2\n      mstore\n      0x20\n      add\n      dup3\n      dup1\n      sload\n      tag_75\n      swap1\n      tag_54\n      jump\t// in\n    tag_75:\n      dup1\n      iszero\n      tag_76\n      jumpi\n      dup1\n      0x1f\n      lt\n      tag_77\n      jumpi\n      0x0100\n      dup1\n      dup4\n      sload\n      div\n      mul\n      dup4\n      mstore\n      swap2\n      0x20\n      add\n      swap2\n      jump(tag_76)\n    tag_77:\n      dup3\n      add\n      swap2\n      swap1\n      0x00\n      mstore\n      keccak256(0x00, 0x20)\n      swap1\n    tag_78:\n      dup2\n      sload\n      dup2\n      mstore\n      swap1\n      0x01\n      add\n      swap1\n      0x20\n      add\n      dup1\n      dup4\n      gt\n      tag_78\n      jumpi\n      dup3\n      swap1\n      sub\n      0x1f\n      and\n      dup3\n      add\n      swap2\n    tag_76:\n      pop\n      pop\n      pop\n      pop\n      pop\n      swap1\n      dup1\n      0x01\n      add\n      sload\n      swap1\n      dup1\n      0x02\n      add\n      sload\n      swap1\n      dup1\n      0x03\n      add\n      0x00\n      swap1\n      sload\n      swap1\n      0x0100\n      exp\n      swap1\n      div\n      0xff\n      and\n      swap1\n      dup1\n      0x03\n      add\n      0x01\n      swap1\n      sload\n      swap1\n      0x0100\n      exp\n      swap1\n      div\n      0xff\n      and\n      swap1\n      pop\n      dup6\n      jump\t// out\n        /* \"Library.sol\":666:925  function addBook(string memory _title,uint _bookIndex, uint _copies )public { ... */\n    tag_35:\n        /* \"Library.sol\":753:773  Book storage newBook */\n      0x00\n        /* \"Library.sol\":776:783  booksId */\n      0x01\n        /* \"Library.sol\":776:795  booksId[_bookIndex] */\n      0x00\n        /* \"Library.sol\":784:794  _bookIndex */\n      dup5\n        /* \"Library.sol\":776:795  booksId[_bookIndex] */\n      dup2\n      mstore\n      0x20\n      add\n      swap1\n      dup2\n      mstore\n      0x20\n      add\n      0x00\n      keccak256\n        /* \"Library.sol\":753:795  Book storage newBook = booksId[_bookIndex] */\n      swap1\n      pop\n        /* \"Library.sol\":821:827  _title */\n      dup4\n        /* \"Library.sol\":805:812  newBook */\n      dup2\n        /* \"Library.sol\":805:818  newBook.title */\n      0x00\n      add\n        /* \"Library.sol\":805:827  newBook.title = _title */\n      swap1\n      dup2\n      tag_80\n      swap2\n      swap1\n      tag_70\n      jump\t// in\n    tag_80:\n      pop\n        /* \"Library.sol\":862:869  _copies */\n      dup2\n        /* \"Library.sol\":837:844  newBook */\n      dup2\n        /* \"Library.sol\":837:860  newBook.copiesRemaining */\n      0x01\n      add\n        /* \"Library.sol\":837:869  newBook.copiesRemaining =_copies */\n      dup2\n      swap1\n      sstore\n      pop\n        /* \"Library.sol\":899:909  _bookIndex */\n      dup3\n        /* \"Library.sol\":879:886  newBook */\n      dup2\n        /* \"Library.sol\":879:896  newBook.bookIndex */\n      0x02\n      add\n        /* \"Library.sol\":879:909  newBook.bookIndex = _bookIndex */\n      dup2\n      swap1\n      sstore\n      pop\n        /* \"Library.sol\":742:925  { ... */\n      pop\n        /* \"Library.sol\":666:925  function addBook(string memory _title,uint _bookIndex, uint _copies )public { ... */\n      pop\n      pop\n      pop\n      jump\t// out\n        /* \"Library.sol\":603:630  string[] public hasBorrowed */\n    tag_39:\n      0x03\n      dup2\n      dup2\n      sload\n      dup2\n      lt\n      tag_81\n      jumpi\n      0x00\n      dup1\n      revert\n    tag_81:\n      swap1\n      0x00\n      mstore\n      keccak256(0x00, 0x20)\n      add\n      0x00\n      swap2\n      pop\n      swap1\n      pop\n      dup1\n      sload\n      tag_83\n      swap1\n      tag_54\n      jump\t// in\n    tag_83:\n      dup1\n      0x1f\n      add\n      0x20\n      dup1\n      swap2\n      div\n      mul\n      0x20\n      add\n      mload(0x40)\n      swap1\n      dup2\n      add\n      0x40\n      mstore\n      dup1\n      swap3\n      swap2\n      swap1\n      dup2\n      dup2\n      mstore\n      0x20\n      add\n      dup3\n      dup1\n      sload\n      tag_84\n      swap1\n      tag_54\n      jump\t// in\n    tag_84:\n      dup1\n      iszero\n      tag_85\n      jumpi\n      dup1\n      0x1f\n      lt\n      tag_86\n      jumpi\n      0x0100\n      dup1\n      dup4\n      sload\n      div\n      mul\n      dup4\n      mstore\n      swap2\n      0x20\n      add\n      swap2\n      jump(tag_85)\n    tag_86:\n      dup3\n      add\n      swap2\n      swap1\n      0x00\n      mstore\n      keccak256(0x00, 0x20)\n      swap1\n    tag_87:\n      dup2\n      sload\n      dup2\n      mstore\n      swap1\n      0x01\n      add\n      swap1\n      0x20\n      add\n      dup1\n      dup4\n      gt\n      tag_87\n      jumpi\n      dup3\n      swap1\n      sub\n      0x1f\n      and\n      dup3\n      add\n      swap2\n    tag_85:\n      pop\n      pop\n      pop\n      pop\n      pop\n      dup2\n      jump\t// out\n        /* \"Library.sol\":1344:1821  function returnedBook(uint256 _id,string memory _returnedBy, uint _copiesReturned)public{... */\n    tag_44:\n        /* \"Library.sol\":1468:1472  true */\n      0x01\n        /* \"Library.sol\":1442:1449  booksId */\n      dup1\n        /* \"Library.sol\":1442:1454  booksId[_id] */\n      0x00\n        /* \"Library.sol\":1450:1453  _id */\n      dup6\n        /* \"Library.sol\":1442:1454  booksId[_id] */\n      dup2\n      mstore\n      0x20\n      add\n      swap1\n      dup2\n      mstore\n      0x20\n      add\n      0x00\n      keccak256\n        /* \"Library.sol\":1442:1465  booksId[_id].isReturned */\n      0x03\n      add\n      0x01\n        /* \"Library.sol\":1442:1472  booksId[_id].isReturned = true */\n      0x0100\n      exp\n      dup2\n      sload\n      dup2\n      0xff\n      mul\n      not\n      and\n      swap1\n      dup4\n      iszero\n      iszero\n      mul\n      or\n      swap1\n      sstore\n      pop\n        /* \"Library.sol\":1482:1508  Book storage BorrowedBooks */\n      0x00\n        /* \"Library.sol\":1511:1518  booksId */\n      0x01\n        /* \"Library.sol\":1511:1523  booksId[_id] */\n      0x00\n        /* \"Library.sol\":1519:1522  _id */\n      dup6\n        /* \"Library.sol\":1511:1523  booksId[_id] */\n      dup2\n      mstore\n      0x20\n      add\n      swap1\n      dup2\n      mstore\n      0x20\n      add\n      0x00\n      keccak256\n        /* \"Library.sol\":1482:1523  Book storage BorrowedBooks = booksId[_id] */\n      swap1\n      pop\n        /* \"Library.sol\":1566:1579  BorrowedBooks */\n      dup1\n        /* \"Library.sol\":1533:1545  borrowedBook */\n      0x02\n        /* \"Library.sol\":1546:1557  _returnedBy */\n      dup5\n        /* \"Library.sol\":1533:1558  borrowedBook[_returnedBy] */\n      mload(0x40)\n      tag_89\n      swap2\n      swap1\n      tag_61\n      jump\t// in\n    tag_89:\n      swap1\n      dup2\n      mstore\n      0x20\n      add\n      mload(0x40)\n      dup1\n      swap2\n      sub\n      swap1\n      keccak256\n        /* \"Library.sol\":1533:1563  borrowedBook[_returnedBy][_id] */\n      0x00\n        /* \"Library.sol\":1559:1562  _id */\n      dup7\n        /* \"Library.sol\":1533:1563  borrowedBook[_returnedBy][_id] */\n      dup2\n      mstore\n      0x20\n      add\n      swap1\n      dup2\n      mstore\n      0x20\n      add\n      0x00\n      keccak256\n        /* \"Library.sol\":1533:1579  borrowedBook[_returnedBy][_id] = BorrowedBooks */\n      0x00\n      dup3\n      add\n      dup2\n      0x00\n      add\n      swap1\n      dup2\n      tag_90\n      swap2\n      swap1\n      tag_63\n      jump\t// in\n    tag_90:\n      pop\n      0x01\n      dup3\n      add\n      sload\n      dup2\n      0x01\n      add\n      sstore\n      0x02\n      dup3\n      add\n      sload\n      dup2\n      0x02\n      add\n      sstore\n      0x03\n      dup3\n      add\n      0x00\n      swap1\n      sload\n      swap1\n      0x0100\n      exp\n      swap1\n      div\n      0xff\n      and\n      dup2\n      0x03\n      add\n      exp(0x0100, 0x00)\n      dup2\n      sload\n      dup2\n      0xff\n      mul\n      not\n      and\n      swap1\n      dup4\n      iszero\n      iszero\n      mul\n      or\n      swap1\n      sstore\n      pop\n      0x03\n      dup3\n      add\n      0x01\n      swap1\n      sload\n      swap1\n      0x0100\n      exp\n      swap1\n      div\n      0xff\n      and\n      dup2\n      0x03\n      add\n      exp(0x0100, 0x01)\n      dup2\n      sload\n      dup2\n      0xff\n      mul\n      not\n      and\n      swap1\n      dup4\n      iszero\n      iszero\n      mul\n      or\n      swap1\n      sstore\n      pop\n      0x04\n      dup3\n      add\n      dup2\n      0x04\n      add\n      swap1\n      dup1\n      sload\n      tag_91\n      swap3\n      swap2\n      swap1\n      tag_65\n      jump\t// in\n    tag_91:\n      pop\n      swap1\n      pop\n      pop\n        /* \"Library.sol\":1623:1638  _copiesReturned */\n      dup2\n        /* \"Library.sol\":1590:1603  BorrowedBooks */\n      dup2\n        /* \"Library.sol\":1590:1619  BorrowedBooks.copiesRemaining */\n      0x01\n      add\n      0x00\n        /* \"Library.sol\":1590:1638  BorrowedBooks.copiesRemaining += _copiesReturned */\n      dup3\n      dup3\n      sload\n      tag_92\n      swap2\n      swap1\n      tag_93\n      jump\t// in\n    tag_92:\n      swap3\n      pop\n      pop\n      dup2\n      swap1\n      sstore\n      pop\n        /* \"Library.sol\":1648:1666  uint indexposition */\n      0x00\n        /* \"Library.sol\":1669:1689  NametoBorrowersIndex */\n      dup1\n        /* \"Library.sol\":1690:1701  _returnedBy */\n      dup5\n        /* \"Library.sol\":1669:1702  NametoBorrowersIndex[_returnedBy] */\n      mload(0x40)\n      tag_94\n      swap2\n      swap1\n      tag_61\n      jump\t// in\n    tag_94:\n      swap1\n      dup2\n      mstore\n      0x20\n      add\n      mload(0x40)\n      dup1\n      swap2\n      sub\n      swap1\n      keccak256\n      sload\n        /* \"Library.sol\":1648:1702  uint indexposition = NametoBorrowersIndex[_returnedBy] */\n      swap1\n      pop\n        /* \"Library.sol\":1741:1752  hasBorrowed */\n      0x03\n        /* \"Library.sol\":1773:1774  1 */\n      0x01\n        /* \"Library.sol\":1753:1764  hasBorrowed */\n      0x03\n        /* \"Library.sol\":1753:1771  hasBorrowed.length */\n      dup1\n      sload\n      swap1\n      pop\n        /* \"Library.sol\":1753:1774  hasBorrowed.length -1 */\n      tag_95\n      swap2\n      swap1\n      tag_67\n      jump\t// in\n    tag_95:\n        /* \"Library.sol\":1741:1776  hasBorrowed[hasBorrowed.length -1 ] */\n      dup2\n      sload\n      dup2\n      lt\n      tag_96\n      jumpi\n      tag_97\n      tag_98\n      jump\t// in\n    tag_97:\n    tag_96:\n      swap1\n      0x00\n      mstore\n      keccak256(0x00, 0x20)\n      add\n        /* \"Library.sol\":1712:1723  hasBorrowed */\n      0x03\n        /* \"Library.sol\":1724:1737  indexposition */\n      dup3\n        /* \"Library.sol\":1712:1738  hasBorrowed[indexposition] */\n      dup2\n      sload\n      dup2\n      lt\n      tag_100\n      jumpi\n      tag_101\n      tag_98\n      jump\t// in\n    tag_101:\n    tag_100:\n      swap1\n      0x00\n      mstore\n      keccak256(0x00, 0x20)\n      add\n        /* \"Library.sol\":1712:1776  hasBorrowed[indexposition] = hasBorrowed[hasBorrowed.length -1 ] */\n      swap1\n      dup2\n      tag_103\n      swap2\n      swap1\n      tag_104\n      jump\t// in\n    tag_103:\n      pop\n        /* \"Library.sol\":1786:1797  hasBorrowed */\n      0x03\n        /* \"Library.sol\":1786:1803  hasBorrowed.pop() */\n      dup1\n      sload\n      dup1\n      tag_105\n      jumpi\n      tag_106\n      tag_107\n      jump\t// in\n    tag_106:\n    tag_105:\n      0x01\n      swap1\n      sub\n      dup2\n      dup2\n      swap1\n      0x00\n      mstore\n      keccak256(0x00, 0x20)\n      add\n      0x00\n      tag_109\n      swap2\n      swap1\n      tag_110\n      jump\t// in\n    tag_109:\n      swap1\n      sstore\n        /* \"Library.sol\":1432:1821  {... */\n      pop\n      pop\n        /* \"Library.sol\":1344:1821  function returnedBook(uint256 _id,string memory _returnedBy, uint _copiesReturned)public{... */\n      pop\n      pop\n      pop\n      jump\t// out\n        /* \"Library.sol\":481:518  mapping (uint => Book) public booksId */\n    tag_47:\n      mstore(0x20, 0x01)\n      dup1\n      0x00\n      mstore\n      keccak256(0x00, 0x40)\n      0x00\n      swap2\n      pop\n      swap1\n      pop\n      dup1\n      0x00\n      add\n      dup1\n      sload\n      tag_111\n      swap1\n      tag_54\n      jump\t// in\n    tag_111:\n      dup1\n      0x1f\n      add\n      0x20\n      dup1\n      swap2\n      div\n      mul\n      0x20\n      add\n      mload(0x40)\n      swap1\n      dup2\n      add\n      0x40\n      mstore\n      dup1\n      swap3\n      swap2\n      swap1\n      dup2\n      dup2\n      mstore\n      0x20\n      add\n      dup3\n      dup1\n      sload\n      tag_112\n      swap1\n      tag_54\n      jump\t// in\n    tag_112:\n      dup1\n      iszero\n      tag_113\n      jumpi\n      dup1\n      0x1f\n      lt\n      tag_114\n      jumpi\n      0x0100\n      dup1\n      dup4\n      sload\n      div\n      mul\n      dup4\n      mstore\n      swap2\n      0x20\n      add\n      swap2\n      jump(tag_113)\n    tag_114:\n      dup3\n      add\n      swap2\n      swap1\n      0x00\n      mstore\n      keccak256(0x00, 0x20)\n      swap1\n    tag_115:\n      dup2\n      sload\n      dup2\n      mstore\n      swap1\n      0x01\n      add\n      swap1\n      0x20\n      add\n      dup1\n      dup4\n      gt\n      tag_115\n      jumpi\n      dup3\n      swap1\n      sub\n      0x1f\n      and\n      dup3\n      add\n      swap2\n    tag_113:\n      pop\n      pop\n      pop\n      pop\n      pop\n      swap1\n      dup1\n      0x01\n      add\n      sload\n      swap1\n      dup1\n      0x02\n      add\n      sload\n      swap1\n      dup1\n      0x03\n      add\n      0x00\n      swap1\n      sload\n      swap1\n      0x0100\n      exp\n      swap1\n      div\n      0xff\n      and\n      swap1\n      dup1\n      0x03\n      add\n      0x01\n      swap1\n      sload\n      swap1\n      0x0100\n      exp\n      swap1\n      div\n      0xff\n      and\n      swap1\n      pop\n      dup6\n      jump\t// out\n    tag_65:\n      dup3\n      dup1\n      sload\n      dup3\n      dup3\n      sstore\n      swap1\n      0x00\n      mstore\n      keccak256(0x00, 0x20)\n      swap1\n      0x06\n      mul\n      dup2\n      add\n      swap3\n      dup3\n      iszero\n      tag_116\n      jumpi\n      0x00\n      mstore\n      keccak256(0x00, 0x20)\n      swap2\n      0x06\n      mul\n      dup3\n      add\n    tag_117:\n      dup3\n      dup2\n      gt\n      iszero\n      tag_118\n      jumpi\n      dup3\n      dup3\n      0x00\n      dup3\n      add\n      dup2\n      0x00\n      add\n      swap1\n      dup2\n      tag_119\n      swap2\n      swap1\n      tag_63\n      jump\t// in\n    tag_119:\n      pop\n      0x01\n      dup3\n      add\n      dup2\n      0x01\n      add\n      0x00\n      dup3\n      add\n      dup2\n      0x00\n      add\n      swap1\n      dup2\n      tag_120\n      swap2\n      swap1\n      tag_63\n      jump\t// in\n    tag_120:\n      pop\n      0x01\n      dup3\n      add\n      sload\n      dup2\n      0x01\n      add\n      sstore\n      0x02\n      dup3\n      add\n      sload\n      dup2\n      0x02\n      add\n      sstore\n      0x03\n      dup3\n      add\n      0x00\n      swap1\n      sload\n      swap1\n      0x0100\n      exp\n      swap1\n      div\n      0xff\n      and\n      dup2\n      0x03\n      add\n      exp(0x0100, 0x00)\n      dup2\n      sload\n      dup2\n      0xff\n      mul\n      not\n      and\n      swap1\n      dup4\n      iszero\n      iszero\n      mul\n      or\n      swap1\n      sstore\n      pop\n      0x03\n      dup3\n      add\n      0x01\n      swap1\n      sload\n      swap1\n      0x0100\n      exp\n      swap1\n      div\n      0xff\n      and\n      dup2\n      0x03\n      add\n      exp(0x0100, 0x01)\n      dup2\n      sload\n      dup2\n      0xff\n      mul\n      not\n      and\n      swap1\n      dup4\n      iszero\n      iszero\n      mul\n      or\n      swap1\n      sstore\n      pop\n      0x04\n      dup3\n      add\n      dup2\n      0x04\n      add\n      swap1\n      dup1\n      sload\n      tag_121\n      swap3\n      swap2\n      swap1\n      tag_65\n      jump\t// in\n    tag_121:\n      pop\n      pop\n      pop\n      pop\n      pop\n      swap2\n      0x06\n      add\n      swap2\n      swap1\n      0x06\n      add\n      swap1\n      jump(tag_117)\n    tag_118:\n    tag_116:\n      pop\n      swap1\n      pop\n      tag_122\n      swap2\n      swap1\n      tag_123\n      jump\t// in\n    tag_122:\n      pop\n      swap1\n      jump\t// out\n    tag_110:\n      pop\n      dup1\n      sload\n      tag_124\n      swap1\n      tag_54\n      jump\t// in\n    tag_124:\n      0x00\n      dup3\n      sstore\n      dup1\n      0x1f\n      lt\n      tag_126\n      jumpi\n      pop\n      jump(tag_125)\n    tag_126:\n      0x1f\n      add\n      0x20\n      swap1\n      div\n      swap1\n      0x00\n      mstore\n      keccak256(0x00, 0x20)\n      swap1\n      dup2\n      add\n      swap1\n      tag_127\n      swap2\n      swap1\n      tag_128\n      jump\t// in\n    tag_127:\n    tag_125:\n      pop\n      jump\t// out\n    tag_123:\n    tag_129:\n      dup1\n      dup3\n      gt\n      iszero\n      tag_130\n      jumpi\n      0x00\n      dup1\n      dup3\n      add\n      0x00\n      tag_131\n      swap2\n      swap1\n      tag_110\n      jump\t// in\n    tag_131:\n      0x01\n      dup3\n      add\n      0x00\n      dup1\n      dup3\n      add\n      0x00\n      tag_132\n      swap2\n      swap1\n      tag_110\n      jump\t// in\n    tag_132:\n      0x01\n      dup3\n      add\n      0x00\n      swap1\n      sstore\n      0x02\n      dup3\n      add\n      0x00\n      swap1\n      sstore\n      0x03\n      dup3\n      add\n      exp(0x0100, 0x00)\n      dup2\n      sload\n      swap1\n      0xff\n      mul\n      not\n      and\n      swap1\n      sstore\n      0x03\n      dup3\n      add\n      exp(0x0100, 0x01)\n      dup2\n      sload\n      swap1\n      0xff\n      mul\n      not\n      and\n      swap1\n      sstore\n      0x04\n      dup3\n      add\n      0x00\n      tag_133\n      swap2\n      swap1\n      tag_134\n      jump\t// in\n    tag_133:\n      pop\n      pop\n      pop\n      0x06\n      add\n      jump(tag_129)\n    tag_130:\n      pop\n      swap1\n      jump\t// out\n    tag_128:\n    tag_135:\n      dup1\n      dup3\n      gt\n      iszero\n      tag_136\n      jumpi\n      0x00\n      dup2\n      0x00\n      swap1\n      sstore\n      pop\n      0x01\n      add\n      jump(tag_135)\n    tag_136:\n      pop\n      swap1\n      jump\t// out\n    tag_134:\n      pop\n      dup1\n      sload\n      0x00\n      dup3\n      sstore\n      0x06\n      mul\n      swap1\n      0x00\n      mstore\n      keccak256(0x00, 0x20)\n      swap1\n      dup2\n      add\n      swap1\n      tag_138\n      swap2\n      swap1\n      tag_123\n      jump\t// in\n    tag_138:\n      pop\n      jump\t// out\n        /* \"#utility.yul\":7:131   */\n    tag_139:\n        /* \"#utility.yul\":84:90   */\n      0x00\n        /* \"#utility.yul\":118:123   */\n      dup2\n        /* \"#utility.yul\":112:124   */\n      mload\n        /* \"#utility.yul\":102:124   */\n      swap1\n      pop\n        /* \"#utility.yul\":7:131   */\n      swap2\n      swap1\n      pop\n      jump\t// out\n        /* \"#utility.yul\":137:331   */\n    tag_140:\n        /* \"#utility.yul\":246:257   */\n      0x00\n        /* \"#utility.yul\":280:286   */\n      dup3\n        /* \"#utility.yul\":275:278   */\n      dup3\n        /* \"#utility.yul\":268:287   */\n      mstore\n        /* \"#utility.yul\":320:324   */\n      0x20\n        /* \"#utility.yul\":315:318   */\n      dup3\n        /* \"#utility.yul\":311:325   */\n      add\n        /* \"#utility.yul\":296:325   */\n      swap1\n      pop\n        /* \"#utility.yul\":137:331   */\n      swap3\n      swap2\n      pop\n      pop\n      jump\t// out\n        /* \"#utility.yul\":337:479   */\n    tag_141:\n        /* \"#utility.yul\":414:418   */\n      0x00\n        /* \"#utility.yul\":437:440   */\n      dup2\n        /* \"#utility.yul\":429:440   */\n      swap1\n      pop\n        /* \"#utility.yul\":467:471   */\n      0x20\n        /* \"#utility.yul\":462:465   */\n      dup3\n        /* \"#utility.yul\":458:472   */\n      add\n        /* \"#utility.yul\":450:472   */\n      swap1\n      pop\n        /* \"#utility.yul\":337:479   */\n      swap2\n      swap1\n      pop\n      jump\t// out\n        /* \"#utility.yul\":485:584   */\n    tag_142:\n        /* \"#utility.yul\":537:543   */\n      0x00\n        /* \"#utility.yul\":571:576   */\n      dup2\n        /* \"#utility.yul\":565:577   */\n      mload\n        /* \"#utility.yul\":555:577   */\n      swap1\n      pop\n        /* \"#utility.yul\":485:584   */\n      swap2\n      swap1\n      pop\n      jump\t// out\n        /* \"#utility.yul\":590:749   */\n    tag_143:\n        /* \"#utility.yul\":664:675   */\n      0x00\n        /* \"#utility.yul\":698:704   */\n      dup3\n        /* \"#utility.yul\":693:696   */\n      dup3\n        /* \"#utility.yul\":686:705   */\n      mstore\n        /* \"#utility.yul\":738:742   */\n      0x20\n        /* \"#utility.yul\":733:736   */\n      dup3\n        /* \"#utility.yul\":729:743   */\n      add\n        /* \"#utility.yul\":714:743   */\n      swap1\n      pop\n        /* \"#utility.yul\":590:749   */\n      swap3\n      swap2\n      pop\n      pop\n      jump\t// out\n        /* \"#utility.yul\":755:894   */\n    tag_144:\n        /* \"#utility.yul\":844:850   */\n      dup3\n        /* \"#utility.yul\":839:842   */\n      dup2\n        /* \"#utility.yul\":834:837   */\n      dup4\n        /* \"#utility.yul\":828:851   */\n      mcopy\n        /* \"#utility.yul\":885:886   */\n      0x00\n        /* \"#utility.yul\":876:882   */\n      dup4\n        /* \"#utility.yul\":871:874   */\n      dup4\n        /* \"#utility.yul\":867:883   */\n      add\n        /* \"#utility.yul\":860:887   */\n      mstore\n        /* \"#utility.yul\":755:894   */\n      pop\n      pop\n      pop\n      jump\t// out\n        /* \"#utility.yul\":900:1002   */\n    tag_145:\n        /* \"#utility.yul\":941:947   */\n      0x00\n        /* \"#utility.yul\":992:994   */\n      0x1f\n        /* \"#utility.yul\":988:995   */\n      not\n        /* \"#utility.yul\":983:985   */\n      0x1f\n        /* \"#utility.yul\":976:981   */\n      dup4\n        /* \"#utility.yul\":972:986   */\n      add\n        /* \"#utility.yul\":968:996   */\n      and\n        /* \"#utility.yul\":958:996   */\n      swap1\n      pop\n        /* \"#utility.yul\":900:1002   */\n      swap2\n      swap1\n      pop\n      jump\t// out\n        /* \"#utility.yul\":1008:1365   */\n    tag_146:\n        /* \"#utility.yul\":1086:1089   */\n      0x00\n        /* \"#utility.yul\":1114:1153   */\n      tag_201\n        /* \"#utility.yul\":1147:1152   */\n      dup3\n        /* \"#utility.yul\":1114:1153   */\n      tag_142\n      jump\t// in\n    tag_201:\n        /* \"#utility.yul\":1169:1230   */\n      tag_202\n        /* \"#utility.yul\":1223:1229   */\n      dup2\n        /* \"#utility.yul\":1218:1221   */\n      dup6\n        /* \"#utility.yul\":1169:1230   */\n      tag_143\n      jump\t// in\n    tag_202:\n        /* \"#utility.yul\":1162:1230   */\n      swap4\n      pop\n        /* \"#utility.yul\":1239:1304   */\n      tag_203\n        /* \"#utility.yul\":1297:1303   */\n      dup2\n        /* \"#utility.yul\":1292:1295   */\n      dup6\n        /* \"#utility.yul\":1285:1289   */\n      0x20\n        /* \"#utility.yul\":1278:1283   */\n      dup7\n        /* \"#utility.yul\":1274:1290   */\n      add\n        /* \"#utility.yul\":1239:1304   */\n      tag_144\n      jump\t// in\n    tag_203:\n        /* \"#utility.yul\":1329:1358   */\n      tag_204\n        /* \"#utility.yul\":1351:1357   */\n      dup2\n        /* \"#utility.yul\":1329:1358   */\n      tag_145\n      jump\t// in\n    tag_204:\n        /* \"#utility.yul\":1324:1327   */\n      dup5\n        /* \"#utility.yul\":1320:1359   */\n      add\n        /* \"#utility.yul\":1313:1359   */\n      swap2\n      pop\n        /* \"#utility.yul\":1090:1365   */\n      pop\n        /* \"#utility.yul\":1008:1365   */\n      swap3\n      swap2\n      pop\n      pop\n      jump\t// out\n        /* \"#utility.yul\":1371:1567   */\n    tag_147:\n        /* \"#utility.yul\":1460:1470   */\n      0x00\n        /* \"#utility.yul\":1495:1561   */\n      tag_206\n        /* \"#utility.yul\":1557:1560   */\n      dup4\n        /* \"#utility.yul\":1549:1555   */\n      dup4\n        /* \"#utility.yul\":1495:1561   */\n      tag_146\n      jump\t// in\n    tag_206:\n        /* \"#utility.yul\":1481:1561   */\n      swap1\n      pop\n        /* \"#utility.yul\":1371:1567   */\n      swap3\n      swap2\n      pop\n      pop\n      jump\t// out\n        /* \"#utility.yul\":1573:1696   */\n    tag_148:\n        /* \"#utility.yul\":1653:1657   */\n      0x00\n        /* \"#utility.yul\":1685:1689   */\n      0x20\n        /* \"#utility.yul\":1680:1683   */\n      dup3\n        /* \"#utility.yul\":1676:1690   */\n      add\n        /* \"#utility.yul\":1668:1690   */\n      swap1\n      pop\n        /* \"#utility.yul\":1573:1696   */\n      swap2\n      swap1\n      pop\n      jump\t// out\n        /* \"#utility.yul\":1730:2721   */\n    tag_149:\n        /* \"#utility.yul\":1869:1872   */\n      0x00\n        /* \"#utility.yul\":1898:1962   */\n      tag_209\n        /* \"#utility.yul\":1956:1961   */\n      dup3\n        /* \"#utility.yul\":1898:1962   */\n      tag_139\n      jump\t// in\n    tag_209:\n        /* \"#utility.yul\":1978:2074   */\n      tag_210\n        /* \"#utility.yul\":2067:2073   */\n      dup2\n        /* \"#utility.yul\":2062:2065   */\n      dup6\n        /* \"#utility.yul\":1978:2074   */\n      tag_140\n      jump\t// in\n    tag_210:\n        /* \"#utility.yul\":1971:2074   */\n      swap4\n      pop\n        /* \"#utility.yul\":2100:2103   */\n      dup4\n        /* \"#utility.yul\":2145:2149   */\n      0x20\n        /* \"#utility.yul\":2137:2143   */\n      dup3\n        /* \"#utility.yul\":2133:2150   */\n      mul\n        /* \"#utility.yul\":2128:2131   */\n      dup6\n        /* \"#utility.yul\":2124:2151   */\n      add\n        /* \"#utility.yul\":2175:2241   */\n      tag_211\n        /* \"#utility.yul\":2235:2240   */\n      dup6\n        /* \"#utility.yul\":2175:2241   */\n      tag_141\n      jump\t// in\n    tag_211:\n        /* \"#utility.yul\":2264:2271   */\n      dup1\n        /* \"#utility.yul\":2295:2296   */\n      0x00\n        /* \"#utility.yul\":2280:2676   */\n    tag_212:\n        /* \"#utility.yul\":2305:2311   */\n      dup6\n        /* \"#utility.yul\":2302:2303   */\n      dup2\n        /* \"#utility.yul\":2299:2312   */\n      lt\n        /* \"#utility.yul\":2280:2676   */\n      iszero\n      tag_214\n      jumpi\n        /* \"#utility.yul\":2376:2385   */\n      dup5\n        /* \"#utility.yul\":2370:2374   */\n      dup5\n        /* \"#utility.yul\":2366:2386   */\n      sub\n        /* \"#utility.yul\":2361:2364   */\n      dup10\n        /* \"#utility.yul\":2354:2387   */\n      mstore\n        /* \"#utility.yul\":2427:2433   */\n      dup2\n        /* \"#utility.yul\":2421:2434   */\n      mload\n        /* \"#utility.yul\":2455:2539   */\n      tag_215\n        /* \"#utility.yul\":2534:2538   */\n      dup6\n        /* \"#utility.yul\":2519:2532   */\n      dup3\n        /* \"#utility.yul\":2455:2539   */\n      tag_147\n      jump\t// in\n    tag_215:\n        /* \"#utility.yul\":2447:2539   */\n      swap5\n      pop\n        /* \"#utility.yul\":2562:2632   */\n      tag_216\n        /* \"#utility.yul\":2625:2631   */\n      dup4\n        /* \"#utility.yul\":2562:2632   */\n      tag_148\n      jump\t// in\n    tag_216:\n        /* \"#utility.yul\":2552:2632   */\n      swap3\n      pop\n        /* \"#utility.yul\":2661:2665   */\n      0x20\n        /* \"#utility.yul\":2656:2659   */\n      dup11\n        /* \"#utility.yul\":2652:2666   */\n      add\n        /* \"#utility.yul\":2645:2666   */\n      swap10\n      pop\n        /* \"#utility.yul\":2340:2676   */\n      pop\n        /* \"#utility.yul\":2327:2328   */\n      0x01\n        /* \"#utility.yul\":2324:2325   */\n      dup2\n        /* \"#utility.yul\":2320:2329   */\n      add\n        /* \"#utility.yul\":2315:2329   */\n      swap1\n      pop\n        /* \"#utility.yul\":2280:2676   */\n      jump(tag_212)\n    tag_214:\n        /* \"#utility.yul\":2284:2298   */\n      pop\n        /* \"#utility.yul\":2692:2696   */\n      dup3\n        /* \"#utility.yul\":2685:2696   */\n      swap8\n      pop\n        /* \"#utility.yul\":2712:2715   */\n      dup8\n        /* \"#utility.yul\":2705:2715   */\n      swap6\n      pop\n        /* \"#utility.yul\":1874:2721   */\n      pop\n      pop\n      pop\n      pop\n      pop\n        /* \"#utility.yul\":1730:2721   */\n      swap3\n      swap2\n      pop\n      pop\n      jump\t// out\n        /* \"#utility.yul\":2727:3140   */\n    tag_15:\n        /* \"#utility.yul\":2890:2894   */\n      0x00\n        /* \"#utility.yul\":2928:2930   */\n      0x20\n        /* \"#utility.yul\":2917:2926   */\n      dup3\n        /* \"#utility.yul\":2913:2931   */\n      add\n        /* \"#utility.yul\":2905:2931   */\n      swap1\n      pop\n        /* \"#utility.yul\":2977:2986   */\n      dup2\n        /* \"#utility.yul\":2971:2975   */\n      dup2\n        /* \"#utility.yul\":2967:2987   */\n      sub\n        /* \"#utility.yul\":2963:2964   */\n      0x00\n        /* \"#utility.yul\":2952:2961   */\n      dup4\n        /* \"#utility.yul\":2948:2965   */\n      add\n        /* \"#utility.yul\":2941:2988   */\n      mstore\n        /* \"#utility.yul\":3005:3133   */\n      tag_218\n        /* \"#utility.yul\":3128:3132   */\n      dup2\n        /* \"#utility.yul\":3119:3125   */\n      dup5\n        /* \"#utility.yul\":3005:3133   */\n      tag_149\n      jump\t// in\n    tag_218:\n        /* \"#utility.yul\":2997:3133   */\n      swap1\n      pop\n        /* \"#utility.yul\":2727:3140   */\n      swap3\n      swap2\n      pop\n      pop\n      jump\t// out\n        /* \"#utility.yul\":3146:3221   */\n    tag_150:\n        /* \"#utility.yul\":3179:3185   */\n      0x00\n        /* \"#utility.yul\":3212:3214   */\n      0x40\n        /* \"#utility.yul\":3206:3215   */\n      mload\n        /* \"#utility.yul\":3196:3215   */\n      swap1\n      pop\n        /* \"#utility.yul\":3146:3221   */\n      swap1\n      jump\t// out\n        /* \"#utility.yul\":3227:3344   */\n    tag_151:\n        /* \"#utility.yul\":3336:3337   */\n      0x00\n        /* \"#utility.yul\":3333:3334   */\n      dup1\n        /* \"#utility.yul\":3326:3338   */\n      revert\n        /* \"#utility.yul\":3350:3467   */\n    tag_152:\n        /* \"#utility.yul\":3459:3460   */\n      0x00\n        /* \"#utility.yul\":3456:3457   */\n      dup1\n        /* \"#utility.yul\":3449:3461   */\n      revert\n        /* \"#utility.yul\":3473:3550   */\n    tag_153:\n        /* \"#utility.yul\":3510:3517   */\n      0x00\n        /* \"#utility.yul\":3539:3544   */\n      dup2\n        /* \"#utility.yul\":3528:3544   */\n      swap1\n      pop\n        /* \"#utility.yul\":3473:3550   */\n      swap2\n      swap1\n      pop\n      jump\t// out\n        /* \"#utility.yul\":3556:3678   */\n    tag_154:\n        /* \"#utility.yul\":3629:3653   */\n      tag_224\n        /* \"#utility.yul\":3647:3652   */\n      dup2\n        /* \"#utility.yul\":3629:3653   */\n      tag_153\n      jump\t// in\n    tag_224:\n        /* \"#utility.yul\":3622:3627   */\n      dup2\n        /* \"#utility.yul\":3619:3654   */\n      eq\n        /* \"#utility.yul\":3609:3672   */\n      tag_225\n      jumpi\n        /* \"#utility.yul\":3668:3669   */\n      0x00\n        /* \"#utility.yul\":3665:3666   */\n      dup1\n        /* \"#utility.yul\":3658:3670   */\n      revert\n        /* \"#utility.yul\":3609:3672   */\n    tag_225:\n        /* \"#utility.yul\":3556:3678   */\n      pop\n      jump\t// out\n        /* \"#utility.yul\":3684:3823   */\n    tag_155:\n        /* \"#utility.yul\":3730:3735   */\n      0x00\n        /* \"#utility.yul\":3768:3774   */\n      dup2\n        /* \"#utility.yul\":3755:3775   */\n      calldataload\n        /* \"#utility.yul\":3746:3775   */\n      swap1\n      pop\n        /* \"#utility.yul\":3784:3817   */\n      tag_227\n        /* \"#utility.yul\":3811:3816   */\n      dup2\n        /* \"#utility.yul\":3784:3817   */\n      tag_154\n      jump\t// in\n    tag_227:\n        /* \"#utility.yul\":3684:3823   */\n      swap3\n      swap2\n      pop\n      pop\n      jump\t// out\n        /* \"#utility.yul\":3829:3946   */\n    tag_156:\n        /* \"#utility.yul\":3938:3939   */\n      0x00\n        /* \"#utility.yul\":3935:3936   */\n      dup1\n        /* \"#utility.yul\":3928:3940   */\n      revert\n        /* \"#utility.yul\":3952:4069   */\n    tag_157:\n        /* \"#utility.yul\":4061:4062   */\n      0x00\n        /* \"#utility.yul\":4058:4059   */\n      dup1\n        /* \"#utility.yul\":4051:4063   */\n      revert\n        /* \"#utility.yul\":4075:4255   */\n    tag_158:\n        /* \"#utility.yul\":4123:4200   */\n      0x4e487b7100000000000000000000000000000000000000000000000000000000\n        /* \"#utility.yul\":4120:4121   */\n      0x00\n        /* \"#utility.yul\":4113:4201   */\n      mstore\n        /* \"#utility.yul\":4220:4224   */\n      0x41\n        /* \"#utility.yul\":4217:4218   */\n      0x04\n        /* \"#utility.yul\":4210:4225   */\n      mstore\n        /* \"#utility.yul\":4244:4248   */\n      0x24\n        /* \"#utility.yul\":4241:4242   */\n      0x00\n        /* \"#utility.yul\":4234:4249   */\n      revert\n        /* \"#utility.yul\":4261:4542   */\n    tag_159:\n        /* \"#utility.yul\":4344:4371   */\n      tag_232\n        /* \"#utility.yul\":4366:4370   */\n      dup3\n        /* \"#utility.yul\":4344:4371   */\n      tag_145\n      jump\t// in\n    tag_232:\n        /* \"#utility.yul\":4336:4342   */\n      dup2\n        /* \"#utility.yul\":4332:4372   */\n      add\n        /* \"#utility.yul\":4474:4480   */\n      dup2\n        /* \"#utility.yul\":4462:4472   */\n      dup2\n        /* \"#utility.yul\":4459:4481   */\n      lt\n        /* \"#utility.yul\":4438:4456   */\n      0xffffffffffffffff\n        /* \"#utility.yul\":4426:4436   */\n      dup3\n        /* \"#utility.yul\":4423:4457   */\n      gt\n        /* \"#utility.yul\":4420:4482   */\n      or\n        /* \"#utility.yul\":4417:4505   */\n      iszero\n      tag_233\n      jumpi\n        /* \"#utility.yul\":4485:4503   */\n      tag_234\n      tag_158\n      jump\t// in\n    tag_234:\n        /* \"#utility.yul\":4417:4505   */\n    tag_233:\n        /* \"#utility.yul\":4525:4535   */\n      dup1\n        /* \"#utility.yul\":4521:4523   */\n      0x40\n        /* \"#utility.yul\":4514:4536   */\n      mstore\n        /* \"#utility.yul\":4304:4542   */\n      pop\n        /* \"#utility.yul\":4261:4542   */\n      pop\n      pop\n      jump\t// out\n        /* \"#utility.yul\":4548:4677   */\n    tag_160:\n        /* \"#utility.yul\":4582:4588   */\n      0x00\n        /* \"#utility.yul\":4609:4629   */\n      tag_236\n      tag_150\n      jump\t// in\n    tag_236:\n        /* \"#utility.yul\":4599:4629   */\n      swap1\n      pop\n        /* \"#utility.yul\":4638:4671   */\n      tag_237\n        /* \"#utility.yul\":4666:4670   */\n      dup3\n        /* \"#utility.yul\":4658:4664   */\n      dup3\n        /* \"#utility.yul\":4638:4671   */\n      tag_159\n      jump\t// in\n    tag_237:\n        /* \"#utility.yul\":4548:4677   */\n      swap2\n      swap1\n      pop\n      jump\t// out\n        /* \"#utility.yul\":4683:4991   */\n    tag_161:\n        /* \"#utility.yul\":4745:4749   */\n      0x00\n        /* \"#utility.yul\":4835:4853   */\n      0xffffffffffffffff\n        /* \"#utility.yul\":4827:4833   */\n      dup3\n        /* \"#utility.yul\":4824:4854   */\n      gt\n        /* \"#utility.yul\":4821:4877   */\n      iszero\n      tag_239\n      jumpi\n        /* \"#utility.yul\":4857:4875   */\n      tag_240\n      tag_158\n      jump\t// in\n    tag_240:\n        /* \"#utility.yul\":4821:4877   */\n    tag_239:\n        /* \"#utility.yul\":4895:4924   */\n      tag_241\n        /* \"#utility.yul\":4917:4923   */\n      dup3\n        /* \"#utility.yul\":4895:4924   */\n      tag_145\n      jump\t// in\n    tag_241:\n        /* \"#utility.yul\":4887:4924   */\n      swap1\n      pop\n        /* \"#utility.yul\":4979:4983   */\n      0x20\n        /* \"#utility.yul\":4973:4977   */\n      dup2\n        /* \"#utility.yul\":4969:4984   */\n      add\n        /* \"#utility.yul\":4961:4984   */\n      swap1\n      pop\n        /* \"#utility.yul\":4683:4991   */\n      swap2\n      swap1\n      pop\n      jump\t// out\n        /* \"#utility.yul\":4997:5145   */\n    tag_162:\n        /* \"#utility.yul\":5095:5101   */\n      dup3\n        /* \"#utility.yul\":5090:5093   */\n      dup2\n        /* \"#utility.yul\":5085:5088   */\n      dup4\n        /* \"#utility.yul\":5072:5102   */\n      calldatacopy\n        /* \"#utility.yul\":5136:5137   */\n      0x00\n        /* \"#utility.yul\":5127:5133   */\n      dup4\n        /* \"#utility.yul\":5122:5125   */\n      dup4\n        /* \"#utility.yul\":5118:5134   */\n      add\n        /* \"#utility.yul\":5111:5138   */\n      mstore\n        /* \"#utility.yul\":4997:5145   */\n      pop\n      pop\n      pop\n      jump\t// out\n        /* \"#utility.yul\":5151:5576   */\n    tag_163:\n        /* \"#utility.yul\":5229:5234   */\n      0x00\n        /* \"#utility.yul\":5254:5320   */\n      tag_244\n        /* \"#utility.yul\":5270:5319   */\n      tag_245\n        /* \"#utility.yul\":5312:5318   */\n      dup5\n        /* \"#utility.yul\":5270:5319   */\n      tag_161\n      jump\t// in\n    tag_245:\n        /* \"#utility.yul\":5254:5320   */\n      tag_160\n      jump\t// in\n    tag_244:\n        /* \"#utility.yul\":5245:5320   */\n      swap1\n      pop\n        /* \"#utility.yul\":5343:5349   */\n      dup3\n        /* \"#utility.yul\":5336:5341   */\n      dup2\n        /* \"#utility.yul\":5329:5350   */\n      mstore\n        /* \"#utility.yul\":5381:5385   */\n      0x20\n        /* \"#utility.yul\":5374:5379   */\n      dup2\n        /* \"#utility.yul\":5370:5386   */\n      add\n        /* \"#utility.yul\":5419:5422   */\n      dup5\n        /* \"#utility.yul\":5410:5416   */\n      dup5\n        /* \"#utility.yul\":5405:5408   */\n      dup5\n        /* \"#utility.yul\":5401:5417   */\n      add\n        /* \"#utility.yul\":5398:5423   */\n      gt\n        /* \"#utility.yul\":5395:5507   */\n      iszero\n      tag_246\n      jumpi\n        /* \"#utility.yul\":5426:5505   */\n      tag_247\n      tag_157\n      jump\t// in\n    tag_247:\n        /* \"#utility.yul\":5395:5507   */\n    tag_246:\n        /* \"#utility.yul\":5516:5570   */\n      tag_248\n        /* \"#utility.yul\":5563:5569   */\n      dup5\n        /* \"#utility.yul\":5558:5561   */\n      dup3\n        /* \"#utility.yul\":5553:5556   */\n      dup6\n        /* \"#utility.yul\":5516:5570   */\n      tag_162\n      jump\t// in\n    tag_248:\n        /* \"#utility.yul\":5235:5576   */\n      pop\n        /* \"#utility.yul\":5151:5576   */\n      swap4\n      swap3\n      pop\n      pop\n      pop\n      jump\t// out\n        /* \"#utility.yul\":5596:5936   */\n    tag_164:\n        /* \"#utility.yul\":5652:5657   */\n      0x00\n        /* \"#utility.yul\":5701:5704   */\n      dup3\n        /* \"#utility.yul\":5694:5698   */\n      0x1f\n        /* \"#utility.yul\":5686:5692   */\n      dup4\n        /* \"#utility.yul\":5682:5699   */\n      add\n        /* \"#utility.yul\":5678:5705   */\n      slt\n        /* \"#utility.yul\":5668:5790   */\n      tag_250\n      jumpi\n        /* \"#utility.yul\":5709:5788   */\n      tag_251\n      tag_156\n      jump\t// in\n    tag_251:\n        /* \"#utility.yul\":5668:5790   */\n    tag_250:\n        /* \"#utility.yul\":5826:5832   */\n      dup2\n        /* \"#utility.yul\":5813:5833   */\n      calldataload\n        /* \"#utility.yul\":5851:5930   */\n      tag_252\n        /* \"#utility.yul\":5926:5929   */\n      dup5\n        /* \"#utility.yul\":5918:5924   */\n      dup3\n        /* \"#utility.yul\":5911:5915   */\n      0x20\n        /* \"#utility.yul\":5903:5909   */\n      dup7\n        /* \"#utility.yul\":5899:5916   */\n      add\n        /* \"#utility.yul\":5851:5930   */\n      tag_163\n      jump\t// in\n    tag_252:\n        /* \"#utility.yul\":5842:5930   */\n      swap2\n      pop\n        /* \"#utility.yul\":5658:5936   */\n      pop\n        /* \"#utility.yul\":5596:5936   */\n      swap3\n      swap2\n      pop\n      pop\n      jump\t// out\n        /* \"#utility.yul\":5942:6741   */\n    tag_18:\n        /* \"#utility.yul\":6029:6035   */\n      0x00\n        /* \"#utility.yul\":6037:6043   */\n      dup1\n        /* \"#utility.yul\":6045:6051   */\n      0x00\n        /* \"#utility.yul\":6094:6096   */\n      0x60\n        /* \"#utility.yul\":6082:6091   */\n      dup5\n        /* \"#utility.yul\":6073:6080   */\n      dup7\n        /* \"#utility.yul\":6069:6092   */\n      sub\n        /* \"#utility.yul\":6065:6097   */\n      slt\n        /* \"#utility.yul\":6062:6181   */\n      iszero\n      tag_254\n      jumpi\n        /* \"#utility.yul\":6100:6179   */\n      tag_255\n      tag_151\n      jump\t// in\n    tag_255:\n        /* \"#utility.yul\":6062:6181   */\n    tag_254:\n        /* \"#utility.yul\":6220:6221   */\n      0x00\n        /* \"#utility.yul\":6245:6298   */\n      tag_256\n        /* \"#utility.yul\":6290:6297   */\n      dup7\n        /* \"#utility.yul\":6281:6287   */\n      dup3\n        /* \"#utility.yul\":6270:6279   */\n      dup8\n        /* \"#utility.yul\":6266:6288   */\n      add\n        /* \"#utility.yul\":6245:6298   */\n      tag_155\n      jump\t// in\n    tag_256:\n        /* \"#utility.yul\":6235:6298   */\n      swap4\n      pop\n        /* \"#utility.yul\":6191:6308   */\n      pop\n        /* \"#utility.yul\":6375:6377   */\n      0x20\n        /* \"#utility.yul\":6364:6373   */\n      dup5\n        /* \"#utility.yul\":6360:6378   */\n      add\n        /* \"#utility.yul\":6347:6379   */\n      calldataload\n        /* \"#utility.yul\":6406:6424   */\n      0xffffffffffffffff\n        /* \"#utility.yul\":6398:6404   */\n      dup2\n        /* \"#utility.yul\":6395:6425   */\n      gt\n        /* \"#utility.yul\":6392:6509   */\n      iszero\n      tag_257\n      jumpi\n        /* \"#utility.yul\":6428:6507   */\n      tag_258\n      tag_152\n      jump\t// in\n    tag_258:\n        /* \"#utility.yul\":6392:6509   */\n    tag_257:\n        /* \"#utility.yul\":6533:6596   */\n      tag_259\n        /* \"#utility.yul\":6588:6595   */\n      dup7\n        /* \"#utility.yul\":6579:6585   */\n      dup3\n        /* \"#utility.yul\":6568:6577   */\n      dup8\n        /* \"#utility.yul\":6564:6586   */\n      add\n        /* \"#utility.yul\":6533:6596   */\n      tag_164\n      jump\t// in\n    tag_259:\n        /* \"#utility.yul\":6523:6596   */\n      swap3\n      pop\n        /* \"#utility.yul\":6318:6606   */\n      pop\n        /* \"#utility.yul\":6645:6647   */\n      0x40\n        /* \"#utility.yul\":6671:6724   */\n      tag_260\n        /* \"#utility.yul\":6716:6723   */\n      dup7\n        /* \"#utility.yul\":6707:6713   */\n      dup3\n        /* \"#utility.yul\":6696:6705   */\n      dup8\n        /* \"#utility.yul\":6692:6714   */\n      add\n        /* \"#utility.yul\":6671:6724   */\n      tag_155\n      jump\t// in\n    tag_260:\n        /* \"#utility.yul\":6661:6724   */\n      swap2\n      pop\n        /* \"#utility.yul\":6616:6734   */\n      pop\n        /* \"#utility.yul\":5942:6741   */\n      swap3\n      pop\n      swap3\n      pop\n      swap3\n      jump\t// out\n        /* \"#utility.yul\":6747:7256   */\n    tag_22:\n        /* \"#utility.yul\":6816:6822   */\n      0x00\n        /* \"#utility.yul\":6865:6867   */\n      0x20\n        /* \"#utility.yul\":6853:6862   */\n      dup3\n        /* \"#utility.yul\":6844:6851   */\n      dup5\n        /* \"#utility.yul\":6840:6863   */\n      sub\n        /* \"#utility.yul\":6836:6868   */\n      slt\n        /* \"#utility.yul\":6833:6952   */\n      iszero\n      tag_262\n      jumpi\n        /* \"#utility.yul\":6871:6950   */\n      tag_263\n      tag_151\n      jump\t// in\n    tag_263:\n        /* \"#utility.yul\":6833:6952   */\n    tag_262:\n        /* \"#utility.yul\":7019:7020   */\n      0x00\n        /* \"#utility.yul\":7008:7017   */\n      dup3\n        /* \"#utility.yul\":7004:7021   */\n      add\n        /* \"#utility.yul\":6991:7022   */\n      calldataload\n        /* \"#utility.yul\":7049:7067   */\n      0xffffffffffffffff\n        /* \"#utility.yul\":7041:7047   */\n      dup2\n        /* \"#utility.yul\":7038:7068   */\n      gt\n        /* \"#utility.yul\":7035:7152   */\n      iszero\n      tag_264\n      jumpi\n        /* \"#utility.yul\":7071:7150   */\n      tag_265\n      tag_152\n      jump\t// in\n    tag_265:\n        /* \"#utility.yul\":7035:7152   */\n    tag_264:\n        /* \"#utility.yul\":7176:7239   */\n      tag_266\n        /* \"#utility.yul\":7231:7238   */\n      dup5\n        /* \"#utility.yul\":7222:7228   */\n      dup3\n        /* \"#utility.yul\":7211:7220   */\n      dup6\n        /* \"#utility.yul\":7207:7229   */\n      add\n        /* \"#utility.yul\":7176:7239   */\n      tag_164\n      jump\t// in\n    tag_266:\n        /* \"#utility.yul\":7166:7239   */\n      swap2\n      pop\n        /* \"#utility.yul\":6962:7249   */\n      pop\n        /* \"#utility.yul\":6747:7256   */\n      swap3\n      swap2\n      pop\n      pop\n      jump\t// out\n        /* \"#utility.yul\":7262:7380   */\n    tag_165:\n        /* \"#utility.yul\":7349:7373   */\n      tag_268\n        /* \"#utility.yul\":7367:7372   */\n      dup2\n        /* \"#utility.yul\":7349:7373   */\n      tag_153\n      jump\t// in\n    tag_268:\n        /* \"#utility.yul\":7344:7347   */\n      dup3\n        /* \"#utility.yul\":7337:7374   */\n      mstore\n        /* \"#utility.yul\":7262:7380   */\n      pop\n      pop\n      jump\t// out\n        /* \"#utility.yul\":7386:7608   */\n    tag_25:\n        /* \"#utility.yul\":7479:7483   */\n      0x00\n        /* \"#utility.yul\":7517:7519   */\n      0x20\n        /* \"#utility.yul\":7506:7515   */\n      dup3\n        /* \"#utility.yul\":7502:7520   */\n      add\n        /* \"#utility.yul\":7494:7520   */\n      swap1\n      pop\n        /* \"#utility.yul\":7530:7601   */\n      tag_270\n        /* \"#utility.yul\":7598:7599   */\n      0x00\n        /* \"#utility.yul\":7587:7596   */\n      dup4\n        /* \"#utility.yul\":7583:7600   */\n      add\n        /* \"#utility.yul\":7574:7580   */\n      dup5\n        /* \"#utility.yul\":7530:7601   */\n      tag_165\n      jump\t// in\n    tag_270:\n        /* \"#utility.yul\":7386:7608   */\n      swap3\n      swap2\n      pop\n      pop\n      jump\t// out\n        /* \"#utility.yul\":7614:8268   */\n    tag_28:\n        /* \"#utility.yul\":7692:7698   */\n      0x00\n        /* \"#utility.yul\":7700:7706   */\n      dup1\n        /* \"#utility.yul\":7749:7751   */\n      0x40\n        /* \"#utility.yul\":7737:7746   */\n      dup4\n        /* \"#utility.yul\":7728:7735   */\n      dup6\n        /* \"#utility.yul\":7724:7747   */\n      sub\n        /* \"#utility.yul\":7720:7752   */\n      slt\n        /* \"#utility.yul\":7717:7836   */\n      iszero\n      tag_272\n      jumpi\n        /* \"#utility.yul\":7755:7834   */\n      tag_273\n      tag_151\n      jump\t// in\n    tag_273:\n        /* \"#utility.yul\":7717:7836   */\n    tag_272:\n        /* \"#utility.yul\":7903:7904   */\n      0x00\n        /* \"#utility.yul\":7892:7901   */\n      dup4\n        /* \"#utility.yul\":7888:7905   */\n      add\n        /* \"#utility.yul\":7875:7906   */\n      calldataload\n        /* \"#utility.yul\":7933:7951   */\n      0xffffffffffffffff\n        /* \"#utility.yul\":7925:7931   */\n      dup2\n        /* \"#utility.yul\":7922:7952   */\n      gt\n        /* \"#utility.yul\":7919:8036   */\n      iszero\n      tag_274\n      jumpi\n        /* \"#utility.yul\":7955:8034   */\n      tag_275\n      tag_152\n      jump\t// in\n    tag_275:\n        /* \"#utility.yul\":7919:8036   */\n    tag_274:\n        /* \"#utility.yul\":8060:8123   */\n      tag_276\n        /* \"#utility.yul\":8115:8122   */\n      dup6\n        /* \"#utility.yul\":8106:8112   */\n      dup3\n        /* \"#utility.yul\":8095:8104   */\n      dup7\n        /* \"#utility.yul\":8091:8113   */\n      add\n        /* \"#utility.yul\":8060:8123   */\n      tag_164\n      jump\t// in\n    tag_276:\n        /* \"#utility.yul\":8050:8123   */\n      swap3\n      pop\n        /* \"#utility.yul\":7846:8133   */\n      pop\n        /* \"#utility.yul\":8172:8174   */\n      0x20\n        /* \"#utility.yul\":8198:8251   */\n      tag_277\n        /* \"#utility.yul\":8243:8250   */\n      dup6\n        /* \"#utility.yul\":8234:8240   */\n      dup3\n        /* \"#utility.yul\":8223:8232   */\n      dup7\n        /* \"#utility.yul\":8219:8241   */\n      add\n        /* \"#utility.yul\":8198:8251   */\n      tag_155\n      jump\t// in\n    tag_277:\n        /* \"#utility.yul\":8188:8251   */\n      swap2\n      pop\n        /* \"#utility.yul\":8143:8261   */\n      pop\n        /* \"#utility.yul\":7614:8268   */\n      swap3\n      pop\n      swap3\n      swap1\n      pop\n      jump\t// out\n        /* \"#utility.yul\":8274:8443   */\n    tag_166:\n        /* \"#utility.yul\":8358:8369   */\n      0x00\n        /* \"#utility.yul\":8392:8398   */\n      dup3\n        /* \"#utility.yul\":8387:8390   */\n      dup3\n        /* \"#utility.yul\":8380:8399   */\n      mstore\n        /* \"#utility.yul\":8432:8436   */\n      0x20\n        /* \"#utility.yul\":8427:8430   */\n      dup3\n        /* \"#utility.yul\":8423:8437   */\n      add\n        /* \"#utility.yul\":8408:8437   */\n      swap1\n      pop\n        /* \"#utility.yul\":8274:8443   */\n      swap3\n      swap2\n      pop\n      pop\n      jump\t// out\n        /* \"#utility.yul\":8449:8826   */\n    tag_167:\n        /* \"#utility.yul\":8537:8540   */\n      0x00\n        /* \"#utility.yul\":8565:8604   */\n      tag_280\n        /* \"#utility.yul\":8598:8603   */\n      dup3\n        /* \"#utility.yul\":8565:8604   */\n      tag_142\n      jump\t// in\n    tag_280:\n        /* \"#utility.yul\":8620:8691   */\n      tag_281\n        /* \"#utility.yul\":8684:8690   */\n      dup2\n        /* \"#utility.yul\":8679:8682   */\n      dup6\n        /* \"#utility.yul\":8620:8691   */\n      tag_166\n      jump\t// in\n    tag_281:\n        /* \"#utility.yul\":8613:8691   */\n      swap4\n      pop\n        /* \"#utility.yul\":8700:8765   */\n      tag_282\n        /* \"#utility.yul\":8758:8764   */\n      dup2\n        /* \"#utility.yul\":8753:8756   */\n      dup6\n        /* \"#utility.yul\":8746:8750   */\n      0x20\n        /* \"#utility.yul\":8739:8744   */\n      dup7\n        /* \"#utility.yul\":8735:8751   */\n      add\n        /* \"#utility.yul\":8700:8765   */\n      tag_144\n      jump\t// in\n    tag_282:\n        /* \"#utility.yul\":8790:8819   */\n      tag_283\n        /* \"#utility.yul\":8812:8818   */\n      dup2\n        /* \"#utility.yul\":8790:8819   */\n      tag_145\n      jump\t// in\n    tag_283:\n        /* \"#utility.yul\":8785:8788   */\n      dup5\n        /* \"#utility.yul\":8781:8820   */\n      add\n        /* \"#utility.yul\":8774:8820   */\n      swap2\n      pop\n        /* \"#utility.yul\":8541:8826   */\n      pop\n        /* \"#utility.yul\":8449:8826   */\n      swap3\n      swap2\n      pop\n      pop\n      jump\t// out\n        /* \"#utility.yul\":8832:8922   */\n    tag_168:\n        /* \"#utility.yul\":8866:8873   */\n      0x00\n        /* \"#utility.yul\":8909:8914   */\n      dup2\n        /* \"#utility.yul\":8902:8915   */\n      iszero\n        /* \"#utility.yul\":8895:8916   */\n      iszero\n        /* \"#utility.yul\":8884:8916   */\n      swap1\n      pop\n        /* \"#utility.yul\":8832:8922   */\n      swap2\n      swap1\n      pop\n      jump\t// out\n        /* \"#utility.yul\":8928:9037   */\n    tag_169:\n        /* \"#utility.yul\":9009:9030   */\n      tag_286\n        /* \"#utility.yul\":9024:9029   */\n      dup2\n        /* \"#utility.yul\":9009:9030   */\n      tag_168\n      jump\t// in\n    tag_286:\n        /* \"#utility.yul\":9004:9007   */\n      dup3\n        /* \"#utility.yul\":8997:9031   */\n      mstore\n        /* \"#utility.yul\":8928:9037   */\n      pop\n      pop\n      jump\t// out\n        /* \"#utility.yul\":9043:9774   */\n    tag_31:\n        /* \"#utility.yul\":9256:9260   */\n      0x00\n        /* \"#utility.yul\":9294:9297   */\n      0xa0\n        /* \"#utility.yul\":9283:9292   */\n      dup3\n        /* \"#utility.yul\":9279:9298   */\n      add\n        /* \"#utility.yul\":9271:9298   */\n      swap1\n      pop\n        /* \"#utility.yul\":9344:9353   */\n      dup2\n        /* \"#utility.yul\":9338:9342   */\n      dup2\n        /* \"#utility.yul\":9334:9354   */\n      sub\n        /* \"#utility.yul\":9330:9331   */\n      0x00\n        /* \"#utility.yul\":9319:9328   */\n      dup4\n        /* \"#utility.yul\":9315:9332   */\n      add\n        /* \"#utility.yul\":9308:9355   */\n      mstore\n        /* \"#utility.yul\":9372:9450   */\n      tag_288\n        /* \"#utility.yul\":9445:9449   */\n      dup2\n        /* \"#utility.yul\":9436:9442   */\n      dup9\n        /* \"#utility.yul\":9372:9450   */\n      tag_167\n      jump\t// in\n    tag_288:\n        /* \"#utility.yul\":9364:9450   */\n      swap1\n      pop\n        /* \"#utility.yul\":9460:9532   */\n      tag_289\n        /* \"#utility.yul\":9528:9530   */\n      0x20\n        /* \"#utility.yul\":9517:9526   */\n      dup4\n        /* \"#utility.yul\":9513:9531   */\n      add\n        /* \"#utility.yul\":9504:9510   */\n      dup8\n        /* \"#utility.yul\":9460:9532   */\n      tag_165\n      jump\t// in\n    tag_289:\n        /* \"#utility.yul\":9542:9614   */\n      tag_290\n        /* \"#utility.yul\":9610:9612   */\n      0x40\n        /* \"#utility.yul\":9599:9608   */\n      dup4\n        /* \"#utility.yul\":9595:9613   */\n      add\n        /* \"#utility.yul\":9586:9592   */\n      dup7\n        /* \"#utility.yul\":9542:9614   */\n      tag_165\n      jump\t// in\n    tag_290:\n        /* \"#utility.yul\":9624:9690   */\n      tag_291\n        /* \"#utility.yul\":9686:9688   */\n      0x60\n        /* \"#utility.yul\":9675:9684   */\n      dup4\n        /* \"#utility.yul\":9671:9689   */\n      add\n        /* \"#utility.yul\":9662:9668   */\n      dup6\n        /* \"#utility.yul\":9624:9690   */\n      tag_169\n      jump\t// in\n    tag_291:\n        /* \"#utility.yul\":9700:9767   */\n      tag_292\n        /* \"#utility.yul\":9762:9765   */\n      0x80\n        /* \"#utility.yul\":9751:9760   */\n      dup4\n        /* \"#utility.yul\":9747:9766   */\n      add\n        /* \"#utility.yul\":9738:9744   */\n      dup5\n        /* \"#utility.yul\":9700:9767   */\n      tag_169\n      jump\t// in\n    tag_292:\n        /* \"#utility.yul\":9043:9774   */\n      swap7\n      swap6\n      pop\n      pop\n      pop\n      pop\n      pop\n      pop\n      jump\t// out\n        /* \"#utility.yul\":9780:10579   */\n    tag_34:\n        /* \"#utility.yul\":9867:9873   */\n      0x00\n        /* \"#utility.yul\":9875:9881   */\n      dup1\n        /* \"#utility.yul\":9883:9889   */\n      0x00\n        /* \"#utility.yul\":9932:9934   */\n      0x60\n        /* \"#utility.yul\":9920:9929   */\n      dup5\n        /* \"#utility.yul\":9911:9918   */\n      dup7\n        /* \"#utility.yul\":9907:9930   */\n      sub\n        /* \"#utility.yul\":9903:9935   */\n      slt\n        /* \"#utility.yul\":9900:10019   */\n      iszero\n      tag_294\n      jumpi\n        /* \"#utility.yul\":9938:10017   */\n      tag_295\n      tag_151\n      jump\t// in\n    tag_295:\n        /* \"#utility.yul\":9900:10019   */\n    tag_294:\n        /* \"#utility.yul\":10086:10087   */\n      0x00\n        /* \"#utility.yul\":10075:10084   */\n      dup5\n        /* \"#utility.yul\":10071:10088   */\n      add\n        /* \"#utility.yul\":10058:10089   */\n      calldataload\n        /* \"#utility.yul\":10116:10134   */\n      0xffffffffffffffff\n        /* \"#utility.yul\":10108:10114   */\n      dup2\n        /* \"#utility.yul\":10105:10135   */\n      gt\n        /* \"#utility.yul\":10102:10219   */\n      iszero\n      tag_296\n      jumpi\n        /* \"#utility.yul\":10138:10217   */\n      tag_297\n      tag_152\n      jump\t// in\n    tag_297:\n        /* \"#utility.yul\":10102:10219   */\n    tag_296:\n        /* \"#utility.yul\":10243:10306   */\n      tag_298\n        /* \"#utility.yul\":10298:10305   */\n      dup7\n        /* \"#utility.yul\":10289:10295   */\n      dup3\n        /* \"#utility.yul\":10278:10287   */\n      dup8\n        /* \"#utility.yul\":10274:10296   */\n      add\n        /* \"#utility.yul\":10243:10306   */\n      tag_164\n      jump\t// in\n    tag_298:\n        /* \"#utility.yul\":10233:10306   */\n      swap4\n      pop\n        /* \"#utility.yul\":10029:10316   */\n      pop\n        /* \"#utility.yul\":10355:10357   */\n      0x20\n        /* \"#utility.yul\":10381:10434   */\n      tag_299\n        /* \"#utility.yul\":10426:10433   */\n      dup7\n        /* \"#utility.yul\":10417:10423   */\n      dup3\n        /* \"#utility.yul\":10406:10415   */\n      dup8\n        /* \"#utility.yul\":10402:10424   */\n      add\n        /* \"#utility.yul\":10381:10434   */\n      tag_155\n      jump\t// in\n    tag_299:\n        /* \"#utility.yul\":10371:10434   */\n      swap3\n      pop\n        /* \"#utility.yul\":10326:10444   */\n      pop\n        /* \"#utility.yul\":10483:10485   */\n      0x40\n        /* \"#utility.yul\":10509:10562   */\n      tag_300\n        /* \"#utility.yul\":10554:10561   */\n      dup7\n        /* \"#utility.yul\":10545:10551   */\n      dup3\n        /* \"#utility.yul\":10534:10543   */\n      dup8\n        /* \"#utility.yul\":10530:10552   */\n      add\n        /* \"#utility.yul\":10509:10562   */\n      tag_155\n      jump\t// in\n    tag_300:\n        /* \"#utility.yul\":10499:10562   */\n      swap2\n      pop\n        /* \"#utility.yul\":10454:10572   */\n      pop\n        /* \"#utility.yul\":9780:10579   */\n      swap3\n      pop\n      swap3\n      pop\n      swap3\n      jump\t// out\n        /* \"#utility.yul\":10585:10914   */\n    tag_38:\n        /* \"#utility.yul\":10644:10650   */\n      0x00\n        /* \"#utility.yul\":10693:10695   */\n      0x20\n        /* \"#utility.yul\":10681:10690   */\n      dup3\n        /* \"#utility.yul\":10672:10679   */\n      dup5\n        /* \"#utility.yul\":10668:10691   */\n      sub\n        /* \"#utility.yul\":10664:10696   */\n      slt\n        /* \"#utility.yul\":10661:10780   */\n      iszero\n      tag_302\n      jumpi\n        /* \"#utility.yul\":10699:10778   */\n      tag_303\n      tag_151\n      jump\t// in\n    tag_303:\n        /* \"#utility.yul\":10661:10780   */\n    tag_302:\n        /* \"#utility.yul\":10819:10820   */\n      0x00\n        /* \"#utility.yul\":10844:10897   */\n      tag_304\n        /* \"#utility.yul\":10889:10896   */\n      dup5\n        /* \"#utility.yul\":10880:10886   */\n      dup3\n        /* \"#utility.yul\":10869:10878   */\n      dup6\n        /* \"#utility.yul\":10865:10887   */\n      add\n        /* \"#utility.yul\":10844:10897   */\n      tag_155\n      jump\t// in\n    tag_304:\n        /* \"#utility.yul\":10834:10897   */\n      swap2\n      pop\n        /* \"#utility.yul\":10790:10907   */\n      pop\n        /* \"#utility.yul\":10585:10914   */\n      swap3\n      swap2\n      pop\n      pop\n      jump\t// out\n        /* \"#utility.yul\":10920:11233   */\n    tag_41:\n        /* \"#utility.yul\":11033:11037   */\n      0x00\n        /* \"#utility.yul\":11071:11073   */\n      0x20\n        /* \"#utility.yul\":11060:11069   */\n      dup3\n        /* \"#utility.yul\":11056:11074   */\n      add\n        /* \"#utility.yul\":11048:11074   */\n      swap1\n      pop\n        /* \"#utility.yul\":11120:11129   */\n      dup2\n        /* \"#utility.yul\":11114:11118   */\n      dup2\n        /* \"#utility.yul\":11110:11130   */\n      sub\n        /* \"#utility.yul\":11106:11107   */\n      0x00\n        /* \"#utility.yul\":11095:11104   */\n      dup4\n        /* \"#utility.yul\":11091:11108   */\n      add\n        /* \"#utility.yul\":11084:11131   */\n      mstore\n        /* \"#utility.yul\":11148:11226   */\n      tag_306\n        /* \"#utility.yul\":11221:11225   */\n      dup2\n        /* \"#utility.yul\":11212:11218   */\n      dup5\n        /* \"#utility.yul\":11148:11226   */\n      tag_167\n      jump\t// in\n    tag_306:\n        /* \"#utility.yul\":11140:11226   */\n      swap1\n      pop\n        /* \"#utility.yul\":10920:11233   */\n      swap3\n      swap2\n      pop\n      pop\n      jump\t// out\n        /* \"#utility.yul\":11239:11419   */\n    tag_170:\n        /* \"#utility.yul\":11287:11364   */\n      0x4e487b7100000000000000000000000000000000000000000000000000000000\n        /* \"#utility.yul\":11284:11285   */\n      0x00\n        /* \"#utility.yul\":11277:11365   */\n      mstore\n        /* \"#utility.yul\":11384:11388   */\n      0x22\n        /* \"#utility.yul\":11381:11382   */\n      0x04\n        /* \"#utility.yul\":11374:11389   */\n      mstore\n        /* \"#utility.yul\":11408:11412   */\n      0x24\n        /* \"#utility.yul\":11405:11406   */\n      0x00\n        /* \"#utility.yul\":11398:11413   */\n      revert\n        /* \"#utility.yul\":11425:11745   */\n    tag_54:\n        /* \"#utility.yul\":11469:11475   */\n      0x00\n        /* \"#utility.yul\":11506:11507   */\n      0x02\n        /* \"#utility.yul\":11500:11504   */\n      dup3\n        /* \"#utility.yul\":11496:11508   */\n      div\n        /* \"#utility.yul\":11486:11508   */\n      swap1\n      pop\n        /* \"#utility.yul\":11553:11554   */\n      0x01\n        /* \"#utility.yul\":11547:11551   */\n      dup3\n        /* \"#utility.yul\":11543:11555   */\n      and\n        /* \"#utility.yul\":11574:11592   */\n      dup1\n        /* \"#utility.yul\":11564:11645   */\n      tag_309\n      jumpi\n        /* \"#utility.yul\":11630:11634   */\n      0x7f\n        /* \"#utility.yul\":11622:11628   */\n      dup3\n        /* \"#utility.yul\":11618:11635   */\n      and\n        /* \"#utility.yul\":11608:11635   */\n      swap2\n      pop\n        /* \"#utility.yul\":11564:11645   */\n    tag_309:\n        /* \"#utility.yul\":11692:11694   */\n      0x20\n        /* \"#utility.yul\":11684:11690   */\n      dup3\n        /* \"#utility.yul\":11681:11695   */\n      lt\n        /* \"#utility.yul\":11661:11679   */\n      dup2\n        /* \"#utility.yul\":11658:11696   */\n      sub\n        /* \"#utility.yul\":11655:11739   */\n      tag_310\n      jumpi\n        /* \"#utility.yul\":11711:11729   */\n      tag_311\n      tag_170\n      jump\t// in\n    tag_311:\n        /* \"#utility.yul\":11655:11739   */\n    tag_310:\n        /* \"#utility.yul\":11476:11745   */\n      pop\n        /* \"#utility.yul\":11425:11745   */\n      swap2\n      swap1\n      pop\n      jump\t// out\n        /* \"#utility.yul\":11751:11899   */\n    tag_171:\n        /* \"#utility.yul\":11853:11864   */\n      0x00\n        /* \"#utility.yul\":11890:11893   */\n      dup2\n        /* \"#utility.yul\":11875:11893   */\n      swap1\n      pop\n        /* \"#utility.yul\":11751:11899   */\n      swap3\n      swap2\n      pop\n      pop\n      jump\t// out\n        /* \"#utility.yul\":11905:12295   */\n    tag_172:\n        /* \"#utility.yul\":12011:12014   */\n      0x00\n        /* \"#utility.yul\":12039:12078   */\n      tag_314\n        /* \"#utility.yul\":12072:12077   */\n      dup3\n        /* \"#utility.yul\":12039:12078   */\n      tag_142\n      jump\t// in\n    tag_314:\n        /* \"#utility.yul\":12094:12183   */\n      tag_315\n        /* \"#utility.yul\":12176:12182   */\n      dup2\n        /* \"#utility.yul\":12171:12174   */\n      dup6\n        /* \"#utility.yul\":12094:12183   */\n      tag_171\n      jump\t// in\n    tag_315:\n        /* \"#utility.yul\":12087:12183   */\n      swap4\n      pop\n        /* \"#utility.yul\":12192:12257   */\n      tag_316\n        /* \"#utility.yul\":12250:12256   */\n      dup2\n        /* \"#utility.yul\":12245:12248   */\n      dup6\n        /* \"#utility.yul\":12238:12242   */\n      0x20\n        /* \"#utility.yul\":12231:12236   */\n      dup7\n        /* \"#utility.yul\":12227:12243   */\n      add\n        /* \"#utility.yul\":12192:12257   */\n      tag_144\n      jump\t// in\n    tag_316:\n        /* \"#utility.yul\":12282:12288   */\n      dup1\n        /* \"#utility.yul\":12277:12280   */\n      dup5\n        /* \"#utility.yul\":12273:12289   */\n      add\n        /* \"#utility.yul\":12266:12289   */\n      swap2\n      pop\n        /* \"#utility.yul\":12015:12295   */\n      pop\n        /* \"#utility.yul\":11905:12295   */\n      swap3\n      swap2\n      pop\n      pop\n      jump\t// out\n        /* \"#utility.yul\":12301:12576   */\n    tag_61:\n        /* \"#utility.yul\":12433:12436   */\n      0x00\n        /* \"#utility.yul\":12455:12550   */\n      tag_318\n        /* \"#utility.yul\":12546:12549   */\n      dup3\n        /* \"#utility.yul\":12537:12543   */\n      dup5\n        /* \"#utility.yul\":12455:12550   */\n      tag_172\n      jump\t// in\n    tag_318:\n        /* \"#utility.yul\":12448:12550   */\n      swap2\n      pop\n        /* \"#utility.yul\":12567:12570   */\n      dup2\n        /* \"#utility.yul\":12560:12570   */\n      swap1\n      pop\n        /* \"#utility.yul\":12301:12576   */\n      swap3\n      swap2\n      pop\n      pop\n      jump\t// out\n        /* \"#utility.yul\":12582:12731   */\n    tag_173:\n        /* \"#utility.yul\":12631:12637   */\n      0x00\n        /* \"#utility.yul\":12665:12670   */\n      dup2\n        /* \"#utility.yul\":12659:12671   */\n      sload\n        /* \"#utility.yul\":12649:12671   */\n      swap1\n      pop\n        /* \"#utility.yul\":12691:12724   */\n      tag_320\n        /* \"#utility.yul\":12717:12723   */\n      dup2\n        /* \"#utility.yul\":12691:12724   */\n      tag_54\n      jump\t// in\n    tag_320:\n        /* \"#utility.yul\":12681:12724   */\n      swap1\n      pop\n        /* \"#utility.yul\":12582:12731   */\n      swap2\n      swap1\n      pop\n      jump\t// out\n        /* \"#utility.yul\":12737:12878   */\n    tag_174:\n        /* \"#utility.yul\":12786:12790   */\n      0x00\n        /* \"#utility.yul\":12809:12812   */\n      dup2\n        /* \"#utility.yul\":12801:12812   */\n      swap1\n      pop\n        /* \"#utility.yul\":12832:12835   */\n      dup2\n        /* \"#utility.yul\":12829:12830   */\n      0x00\n        /* \"#utility.yul\":12822:12836   */\n      mstore\n        /* \"#utility.yul\":12866:12870   */\n      0x20\n        /* \"#utility.yul\":12863:12864   */\n      0x00\n        /* \"#utility.yul\":12853:12871   */\n      keccak256\n        /* \"#utility.yul\":12845:12871   */\n      swap1\n      pop\n        /* \"#utility.yul\":12737:12878   */\n      swap2\n      swap1\n      pop\n      jump\t// out\n        /* \"#utility.yul\":12884:12977   */\n    tag_175:\n        /* \"#utility.yul\":12921:12927   */\n      0x00\n        /* \"#utility.yul\":12968:12970   */\n      0x20\n        /* \"#utility.yul\":12963:12965   */\n      0x1f\n        /* \"#utility.yul\":12956:12961   */\n      dup4\n        /* \"#utility.yul\":12952:12966   */\n      add\n        /* \"#utility.yul\":12948:12971   */\n      div\n        /* \"#utility.yul\":12938:12971   */\n      swap1\n      pop\n        /* \"#utility.yul\":12884:12977   */\n      swap2\n      swap1\n      pop\n      jump\t// out\n        /* \"#utility.yul\":12983:13090   */\n    tag_176:\n        /* \"#utility.yul\":13027:13035   */\n      0x00\n        /* \"#utility.yul\":13077:13082   */\n      dup3\n        /* \"#utility.yul\":13071:13075   */\n      dup3\n        /* \"#utility.yul\":13067:13083   */\n      shl\n        /* \"#utility.yul\":13046:13083   */\n      swap1\n      pop\n        /* \"#utility.yul\":12983:13090   */\n      swap3\n      swap2\n      pop\n      pop\n      jump\t// out\n        /* \"#utility.yul\":13096:13489   */\n    tag_177:\n        /* \"#utility.yul\":13165:13171   */\n      0x00\n        /* \"#utility.yul\":13215:13216   */\n      0x08\n        /* \"#utility.yul\":13203:13213   */\n      dup4\n        /* \"#utility.yul\":13199:13217   */\n      mul\n        /* \"#utility.yul\":13238:13335   */\n      tag_325\n        /* \"#utility.yul\":13268:13334   */\n      0xffffffffffffffffffffffffffffffffffffffffffffffffffffffffffffffff\n        /* \"#utility.yul\":13257:13266   */\n      dup3\n        /* \"#utility.yul\":13238:13335   */\n      tag_176\n      jump\t// in\n    tag_325:\n        /* \"#utility.yul\":13356:13395   */\n      tag_326\n        /* \"#utility.yul\":13386:13394   */\n      dup7\n        /* \"#utility.yul\":13375:13384   */\n      dup4\n        /* \"#utility.yul\":13356:13395   */\n      tag_176\n      jump\t// in\n    tag_326:\n        /* \"#utility.yul\":13344:13395   */\n      swap6\n      pop\n        /* \"#utility.yul\":13428:13432   */\n      dup1\n        /* \"#utility.yul\":13424:13433   */\n      not\n        /* \"#utility.yul\":13417:13422   */\n      dup5\n        /* \"#utility.yul\":13413:13434   */\n      and\n        /* \"#utility.yul\":13404:13434   */\n      swap4\n      pop\n        /* \"#utility.yul\":13477:13481   */\n      dup1\n        /* \"#utility.yul\":13467:13475   */\n      dup7\n        /* \"#utility.yul\":13463:13482   */\n      and\n        /* \"#utility.yul\":13456:13461   */\n      dup5\n        /* \"#utility.yul\":13453:13483   */\n      or\n        /* \"#utility.yul\":13443:13483   */\n      swap3\n      pop\n        /* \"#utility.yul\":13172:13489   */\n      pop\n      pop\n        /* \"#utility.yul\":13096:13489   */\n      swap4\n      swap3\n      pop\n      pop\n      pop\n      jump\t// out\n        /* \"#utility.yul\":13495:13555   */\n    tag_178:\n        /* \"#utility.yul\":13523:13526   */\n      0x00\n        /* \"#utility.yul\":13544:13549   */\n      dup2\n        /* \"#utility.yul\":13537:13549   */\n      swap1\n      pop\n        /* \"#utility.yul\":13495:13555   */\n      swap2\n      swap1\n      pop\n      jump\t// out\n        /* \"#utility.yul\":13561:13703   */\n    tag_179:\n        /* \"#utility.yul\":13611:13620   */\n      0x00\n        /* \"#utility.yul\":13644:13697   */\n      tag_329\n        /* \"#utility.yul\":13662:13696   */\n      tag_330\n        /* \"#utility.yul\":13671:13695   */\n      tag_331\n        /* \"#utility.yul\":13689:13694   */\n      dup5\n        /* \"#utility.yul\":13671:13695   */\n      tag_153\n      jump\t// in\n    tag_331:\n        /* \"#utility.yul\":13662:13696   */\n      tag_178\n      jump\t// in\n    tag_330:\n        /* \"#utility.yul\":13644:13697   */\n      tag_153\n      jump\t// in\n    tag_329:\n        /* \"#utility.yul\":13631:13697   */\n      swap1\n      pop\n        /* \"#utility.yul\":13561:13703   */\n      swap2\n      swap1\n      pop\n      jump\t// out\n        /* \"#utility.yul\":13709:13784   */\n    tag_180:\n        /* \"#utility.yul\":13752:13755   */\n      0x00\n        /* \"#utility.yul\":13773:13778   */\n      dup2\n        /* \"#utility.yul\":13766:13778   */\n      swap1\n      pop\n        /* \"#utility.yul\":13709:13784   */\n      swap2\n      swap1\n      pop\n      jump\t// out\n        /* \"#utility.yul\":13790:14059   */\n    tag_181:\n        /* \"#utility.yul\":13900:13939   */\n      tag_334\n        /* \"#utility.yul\":13931:13938   */\n      dup4\n        /* \"#utility.yul\":13900:13939   */\n      tag_179\n      jump\t// in\n    tag_334:\n        /* \"#utility.yul\":13961:14052   */\n      tag_335\n        /* \"#utility.yul\":14010:14051   */\n      tag_336\n        /* \"#utility.yul\":14034:14050   */\n      dup3\n        /* \"#utility.yul\":14010:14051   */\n      tag_180\n      jump\t// in\n    tag_336:\n        /* \"#utility.yul\":14002:14008   */\n      dup5\n        /* \"#utility.yul\":13995:13999   */\n      dup5\n        /* \"#utility.yul\":13989:14000   */\n      sload\n        /* \"#utility.yul\":13961:14052   */\n      tag_177\n      jump\t// in\n    tag_335:\n        /* \"#utility.yul\":13955:13959   */\n      dup3\n        /* \"#utility.yul\":13948:14053   */\n      sstore\n        /* \"#utility.yul\":13866:14059   */\n      pop\n        /* \"#utility.yul\":13790:14059   */\n      pop\n      pop\n      pop\n      jump\t// out\n        /* \"#utility.yul\":14065:14138   */\n    tag_182:\n        /* \"#utility.yul\":14110:14113   */\n      0x00\n        /* \"#utility.yul\":14065:14138   */\n      swap1\n      jump\t// out\n        /* \"#utility.yul\":14144:14333   */\n    tag_183:\n        /* \"#utility.yul\":14221:14253   */\n      tag_339\n      tag_182\n      jump\t// in\n    tag_339:\n        /* \"#utility.yul\":14262:14327   */\n      tag_340\n        /* \"#utility.yul\":14320:14326   */\n      dup2\n        /* \"#utility.yul\":14312:14318   */\n      dup5\n        /* \"#utility.yul\":14306:14310   */\n      dup5\n        /* \"#utility.yul\":14262:14327   */\n      tag_181\n      jump\t// in\n    tag_340:\n        /* \"#utility.yul\":14197:14333   */\n      pop\n        /* \"#utility.yul\":14144:14333   */\n      pop\n      pop\n      jump\t// out\n        /* \"#utility.yul\":14339:14525   */\n    tag_184:\n        /* \"#utility.yul\":14399:14519   */\n    tag_342:\n        /* \"#utility.yul\":14416:14419   */\n      dup2\n        /* \"#utility.yul\":14409:14414   */\n      dup2\n        /* \"#utility.yul\":14406:14420   */\n      lt\n        /* \"#utility.yul\":14399:14519   */\n      iszero\n      tag_344\n      jumpi\n        /* \"#utility.yul\":14470:14509   */\n      tag_345\n        /* \"#utility.yul\":14507:14508   */\n      0x00\n        /* \"#utility.yul\":14500:14505   */\n      dup3\n        /* \"#utility.yul\":14470:14509   */\n      tag_183\n      jump\t// in\n    tag_345:\n        /* \"#utility.yul\":14443:14444   */\n      0x01\n        /* \"#utility.yul\":14436:14441   */\n      dup2\n        /* \"#utility.yul\":14432:14445   */\n      add\n        /* \"#utility.yul\":14423:14445   */\n      swap1\n      pop\n        /* \"#utility.yul\":14399:14519   */\n      jump(tag_342)\n    tag_344:\n        /* \"#utility.yul\":14339:14525   */\n      pop\n      pop\n      jump\t// out\n        /* \"#utility.yul\":14531:15074   */\n    tag_185:\n        /* \"#utility.yul\":14632:14634   */\n      0x1f\n        /* \"#utility.yul\":14627:14630   */\n      dup3\n        /* \"#utility.yul\":14624:14635   */\n      gt\n        /* \"#utility.yul\":14621:15067   */\n      iszero\n      tag_347\n      jumpi\n        /* \"#utility.yul\":14666:14704   */\n      tag_348\n        /* \"#utility.yul\":14698:14703   */\n      dup2\n        /* \"#utility.yul\":14666:14704   */\n      tag_174\n      jump\t// in\n    tag_348:\n        /* \"#utility.yul\":14750:14779   */\n      tag_349\n        /* \"#utility.yul\":14768:14778   */\n      dup5\n        /* \"#utility.yul\":14750:14779   */\n      tag_175\n      jump\t// in\n    tag_349:\n        /* \"#utility.yul\":14740:14748   */\n      dup2\n        /* \"#utility.yul\":14736:14780   */\n      add\n        /* \"#utility.yul\":14933:14935   */\n      0x20\n        /* \"#utility.yul\":14921:14931   */\n      dup6\n        /* \"#utility.yul\":14918:14936   */\n      lt\n        /* \"#utility.yul\":14915:14964   */\n      iszero\n      tag_350\n      jumpi\n        /* \"#utility.yul\":14954:14962   */\n      dup2\n        /* \"#utility.yul\":14939:14962   */\n      swap1\n      pop\n        /* \"#utility.yul\":14915:14964   */\n    tag_350:\n        /* \"#utility.yul\":14977:15057   */\n      tag_351\n        /* \"#utility.yul\":15033:15055   */\n      tag_352\n        /* \"#utility.yul\":15051:15054   */\n      dup6\n        /* \"#utility.yul\":15033:15055   */\n      tag_175\n      jump\t// in\n    tag_352:\n        /* \"#utility.yul\":15023:15031   */\n      dup4\n        /* \"#utility.yul\":15019:15056   */\n      add\n        /* \"#utility.yul\":15006:15017   */\n      dup3\n        /* \"#utility.yul\":14977:15057   */\n      tag_184\n      jump\t// in\n    tag_351:\n        /* \"#utility.yul\":14636:15067   */\n      pop\n      pop\n        /* \"#utility.yul\":14621:15067   */\n    tag_347:\n        /* \"#utility.yul\":14531:15074   */\n      pop\n      pop\n      pop\n      jump\t// out\n        /* \"#utility.yul\":15080:15197   */\n    tag_186:\n        /* \"#utility.yul\":15134:15142   */\n      0x00\n        /* \"#utility.yul\":15184:15189   */\n      dup3\n        /* \"#utility.yul\":15178:15182   */\n      dup3\n        /* \"#utility.yul\":15174:15190   */\n      shr\n        /* \"#utility.yul\":15153:15190   */\n      swap1\n      pop\n        /* \"#utility.yul\":15080:15197   */\n      swap3\n      swap2\n      pop\n      pop\n      jump\t// out\n        /* \"#utility.yul\":15203:15372   */\n    tag_187:\n        /* \"#utility.yul\":15247:15253   */\n      0x00\n        /* \"#utility.yul\":15280:15331   */\n      tag_355\n        /* \"#utility.yul\":15328:15329   */\n      0x00\n        /* \"#utility.yul\":15324:15330   */\n      not\n        /* \"#utility.yul\":15316:15321   */\n      dup5\n        /* \"#utility.yul\":15313:15314   */\n      0x08\n        /* \"#utility.yul\":15309:15322   */\n      mul\n        /* \"#utility.yul\":15280:15331   */\n      tag_186\n      jump\t// in\n    tag_355:\n        /* \"#utility.yul\":15276:15332   */\n      not\n        /* \"#utility.yul\":15361:15365   */\n      dup1\n        /* \"#utility.yul\":15355:15359   */\n      dup4\n        /* \"#utility.yul\":15351:15366   */\n      and\n        /* \"#utility.yul\":15341:15366   */\n      swap2\n      pop\n        /* \"#utility.yul\":15254:15372   */\n      pop\n        /* \"#utility.yul\":15203:15372   */\n      swap3\n      swap2\n      pop\n      pop\n      jump\t// out\n        /* \"#utility.yul\":15377:15672   */\n    tag_188:\n        /* \"#utility.yul\":15453:15457   */\n      0x00\n        /* \"#utility.yul\":15599:15628   */\n      tag_357\n        /* \"#utility.yul\":15624:15627   */\n      dup4\n        /* \"#utility.yul\":15618:15622   */\n      dup4\n        /* \"#utility.yul\":15599:15628   */\n      tag_187\n      jump\t// in\n    tag_357:\n        /* \"#utility.yul\":15591:15628   */\n      swap2\n      pop\n        /* \"#utility.yul\":15661:15664   */\n      dup3\n        /* \"#utility.yul\":15658:15659   */\n      0x02\n        /* \"#utility.yul\":15654:15665   */\n      mul\n        /* \"#utility.yul\":15648:15652   */\n      dup3\n        /* \"#utility.yul\":15645:15666   */\n      or\n        /* \"#utility.yul\":15637:15666   */\n      swap1\n      pop\n        /* \"#utility.yul\":15377:15672   */\n      swap3\n      swap2\n      pop\n      pop\n      jump\t// out\n        /* \"#utility.yul\":15677:17128   */\n    tag_63:\n        /* \"#utility.yul\":15788:15791   */\n      dup2\n        /* \"#utility.yul\":15782:15786   */\n      dup2\n        /* \"#utility.yul\":15779:15792   */\n      sub\n        /* \"#utility.yul\":15776:15802   */\n      tag_359\n      jumpi\n        /* \"#utility.yul\":15795:15800   */\n      pop\n      pop\n      jump(tag_358)\n        /* \"#utility.yul\":15776:15802   */\n    tag_359:\n        /* \"#utility.yul\":15826:15860   */\n      tag_360\n        /* \"#utility.yul\":15856:15859   */\n      dup3\n        /* \"#utility.yul\":15826:15860   */\n      tag_173\n      jump\t// in\n    tag_360:\n        /* \"#utility.yul\":15925:15943   */\n      0xffffffffffffffff\n        /* \"#utility.yul\":15917:15923   */\n      dup2\n        /* \"#utility.yul\":15914:15944   */\n      gt\n        /* \"#utility.yul\":15911:15967   */\n      iszero\n      tag_361\n      jumpi\n        /* \"#utility.yul\":15947:15965   */\n      tag_362\n      tag_158\n      jump\t// in\n    tag_362:\n        /* \"#utility.yul\":15911:15967   */\n    tag_361:\n        /* \"#utility.yul\":15991:16029   */\n      tag_363\n        /* \"#utility.yul\":16023:16027   */\n      dup3\n        /* \"#utility.yul\":16017:16028   */\n      sload\n        /* \"#utility.yul\":15991:16029   */\n      tag_54\n      jump\t// in\n    tag_363:\n        /* \"#utility.yul\":16076:16143   */\n      tag_364\n        /* \"#utility.yul\":16136:16142   */\n      dup3\n        /* \"#utility.yul\":16128:16134   */\n      dup3\n        /* \"#utility.yul\":16122:16126   */\n      dup6\n        /* \"#utility.yul\":16076:16143   */\n      tag_185\n      jump\t// in\n    tag_364:\n        /* \"#utility.yul\":16170:16171   */\n      0x00\n        /* \"#utility.yul\":16199:16201   */\n      0x1f\n        /* \"#utility.yul\":16191:16197   */\n      dup4\n        /* \"#utility.yul\":16188:16202   */\n      gt\n        /* \"#utility.yul\":16216:16217   */\n      0x01\n        /* \"#utility.yul\":16211:16883   */\n      dup2\n      eq\n      tag_366\n      jumpi\n        /* \"#utility.yul\":16927:16928   */\n      0x00\n        /* \"#utility.yul\":16944:16950   */\n      dup5\n        /* \"#utility.yul\":16941:17018   */\n      iszero\n      tag_367\n      jumpi\n        /* \"#utility.yul\":16993:17002   */\n      dup3\n        /* \"#utility.yul\":16988:16991   */\n      dup8\n        /* \"#utility.yul\":16984:17003   */\n      add\n        /* \"#utility.yul\":16978:17004   */\n      sload\n        /* \"#utility.yul\":16969:17004   */\n      swap1\n      pop\n        /* \"#utility.yul\":16941:17018   */\n    tag_367:\n        /* \"#utility.yul\":17044:17111   */\n      tag_368\n        /* \"#utility.yul\":17104:17110   */\n      dup6\n        /* \"#utility.yul\":17097:17102   */\n      dup3\n        /* \"#utility.yul\":17044:17111   */\n      tag_188\n      jump\t// in\n    tag_368:\n        /* \"#utility.yul\":17038:17042   */\n      dup7\n        /* \"#utility.yul\":17031:17112   */\n      sstore\n        /* \"#utility.yul\":16900:17122   */\n      pop\n        /* \"#utility.yul\":16181:17122   */\n      jump(tag_365)\n        /* \"#utility.yul\":16211:16883   */\n    tag_366:\n        /* \"#utility.yul\":16263:16267   */\n      0x1f\n        /* \"#utility.yul\":16259:16268   */\n      not\n        /* \"#utility.yul\":16251:16257   */\n      dup5\n        /* \"#utility.yul\":16247:16269   */\n      and\n        /* \"#utility.yul\":16289:16325   */\n      tag_369\n        /* \"#utility.yul\":16321:16324   */\n      dup8\n        /* \"#utility.yul\":16289:16325   */\n      tag_174\n      jump\t// in\n    tag_369:\n        /* \"#utility.yul\":16282:16325   */\n      swap7\n      pop\n        /* \"#utility.yul\":16352:16389   */\n      tag_370\n        /* \"#utility.yul\":16384:16388   */\n      dup7\n        /* \"#utility.yul\":16352:16389   */\n      tag_174\n      jump\t// in\n    tag_370:\n        /* \"#utility.yul\":16411:16412   */\n      0x00\n        /* \"#utility.yul\":16425:16632   */\n    tag_371:\n        /* \"#utility.yul\":16439:16446   */\n      dup3\n        /* \"#utility.yul\":16436:16437   */\n      dup2\n        /* \"#utility.yul\":16433:16447   */\n      lt\n        /* \"#utility.yul\":16425:16632   */\n      iszero\n      tag_373\n      jumpi\n        /* \"#utility.yul\":16518:16527   */\n      dup5\n        /* \"#utility.yul\":16513:16516   */\n      dup10\n        /* \"#utility.yul\":16509:16528   */\n      add\n        /* \"#utility.yul\":16503:16529   */\n      sload\n        /* \"#utility.yul\":16495:16501   */\n      dup3\n        /* \"#utility.yul\":16488:16530   */\n      sstore\n        /* \"#utility.yul\":16569:16570   */\n      0x01\n        /* \"#utility.yul\":16561:16567   */\n      dup3\n        /* \"#utility.yul\":16557:16571   */\n      add\n        /* \"#utility.yul\":16547:16571   */\n      swap2\n      pop\n        /* \"#utility.yul\":16616:16617   */\n      0x01\n        /* \"#utility.yul\":16605:16614   */\n      dup6\n        /* \"#utility.yul\":16601:16618   */\n      add\n        /* \"#utility.yul\":16588:16618   */\n      swap5\n      pop\n        /* \"#utility.yul\":16462:16466   */\n      0x20\n        /* \"#utility.yul\":16459:16460   */\n      dup2\n        /* \"#utility.yul\":16455:16467   */\n      add\n        /* \"#utility.yul\":16450:16467   */\n      swap1\n      pop\n        /* \"#utility.yul\":16425:16632   */\n      jump(tag_371)\n    tag_373:\n        /* \"#utility.yul\":16660:16666   */\n      dup7\n        /* \"#utility.yul\":16651:16658   */\n      dup4\n        /* \"#utility.yul\":16648:16667   */\n      lt\n        /* \"#utility.yul\":16645:16824   */\n      iszero\n      tag_374\n      jumpi\n        /* \"#utility.yul\":16718:16727   */\n      dup5\n        /* \"#utility.yul\":16713:16716   */\n      dup10\n        /* \"#utility.yul\":16709:16728   */\n      add\n        /* \"#utility.yul\":16703:16729   */\n      sload\n        /* \"#utility.yul\":16761:16809   */\n      tag_375\n        /* \"#utility.yul\":16803:16807   */\n      0x1f\n        /* \"#utility.yul\":16795:16801   */\n      dup10\n        /* \"#utility.yul\":16791:16808   */\n      and\n        /* \"#utility.yul\":16780:16789   */\n      dup3\n        /* \"#utility.yul\":16761:16809   */\n      tag_187\n      jump\t// in\n    tag_375:\n        /* \"#utility.yul\":16753:16759   */\n      dup4\n        /* \"#utility.yul\":16746:16810   */\n      sstore\n        /* \"#utility.yul\":16668:16824   */\n      pop\n        /* \"#utility.yul\":16645:16824   */\n    tag_374:\n        /* \"#utility.yul\":16870:16871   */\n      0x01\n        /* \"#utility.yul\":16866:16867   */\n      0x02\n        /* \"#utility.yul\":16858:16864   */\n      dup9\n        /* \"#utility.yul\":16854:16868   */\n      mul\n        /* \"#utility.yul\":16850:16872   */\n      add\n        /* \"#utility.yul\":16844:16848   */\n      dup9\n        /* \"#utility.yul\":16837:16873   */\n      sstore\n        /* \"#utility.yul\":16218:16883   */\n      pop\n      pop\n      pop\n        /* \"#utility.yul\":16181:17122   */\n    tag_365:\n      pop\n        /* \"#utility.yul\":15766:17128   */\n      pop\n      pop\n      pop\n        /* \"#utility.yul\":15677:17128   */\n      pop\n      pop\n    tag_358:\n      jump\t// out\n        /* \"#utility.yul\":17134:17314   */\n    tag_189:\n        /* \"#utility.yul\":17182:17259   */\n      0x4e487b7100000000000000000000000000000000000000000000000000000000\n        /* \"#utility.yul\":17179:17180   */\n      0x00\n        /* \"#utility.yul\":17172:17260   */\n      mstore\n        /* \"#utility.yul\":17279:17283   */\n      0x11\n        /* \"#utility.yul\":17276:17277   */\n      0x04\n        /* \"#utility.yul\":17269:17284   */\n      mstore\n        /* \"#utility.yul\":17303:17307   */\n      0x24\n        /* \"#utility.yul\":17300:17301   */\n      0x00\n        /* \"#utility.yul\":17293:17308   */\n      revert\n        /* \"#utility.yul\":17320:17514   */\n    tag_67:\n        /* \"#utility.yul\":17360:17364   */\n      0x00\n        /* \"#utility.yul\":17380:17400   */\n      tag_378\n        /* \"#utility.yul\":17398:17399   */\n      dup3\n        /* \"#utility.yul\":17380:17400   */\n      tag_153\n      jump\t// in\n    tag_378:\n        /* \"#utility.yul\":17375:17400   */\n      swap2\n      pop\n        /* \"#utility.yul\":17414:17434   */\n      tag_379\n        /* \"#utility.yul\":17432:17433   */\n      dup4\n        /* \"#utility.yul\":17414:17434   */\n      tag_153\n      jump\t// in\n    tag_379:\n        /* \"#utility.yul\":17409:17434   */\n      swap3\n      pop\n        /* \"#utility.yul\":17458:17459   */\n      dup3\n        /* \"#utility.yul\":17455:17456   */\n      dup3\n        /* \"#utility.yul\":17451:17460   */\n      sub\n        /* \"#utility.yul\":17443:17460   */\n      swap1\n      pop\n        /* \"#utility.yul\":17482:17483   */\n      dup2\n        /* \"#utility.yul\":17476:17480   */\n      dup2\n        /* \"#utility.yul\":17473:17484   */\n      gt\n        /* \"#utility.yul\":17470:17507   */\n      iszero\n      tag_380\n      jumpi\n        /* \"#utility.yul\":17487:17505   */\n      tag_381\n      tag_189\n      jump\t// in\n    tag_381:\n        /* \"#utility.yul\":17470:17507   */\n    tag_380:\n        /* \"#utility.yul\":17320:17514   */\n      swap3\n      swap2\n      pop\n      pop\n      jump\t// out\n        /* \"#utility.yul\":17520:18915   */\n    tag_70:\n        /* \"#utility.yul\":17637:17674   */\n      tag_383\n        /* \"#utility.yul\":17670:17673   */\n      dup3\n        /* \"#utility.yul\":17637:17674   */\n      tag_142\n      jump\t// in\n    tag_383:\n        /* \"#utility.yul\":17739:17757   */\n      0xffffffffffffffff\n        /* \"#utility.yul\":17731:17737   */\n      dup2\n        /* \"#utility.yul\":17728:17758   */\n      gt\n        /* \"#utility.yul\":17725:17781   */\n      iszero\n      tag_384\n      jumpi\n        /* \"#utility.yul\":17761:17779   */\n      tag_385\n      tag_158\n      jump\t// in\n    tag_385:\n        /* \"#utility.yul\":17725:17781   */\n    tag_384:\n        /* \"#utility.yul\":17805:17843   */\n      tag_386\n        /* \"#utility.yul\":17837:17841   */\n      dup3\n        /* \"#utility.yul\":17831:17842   */\n      sload\n        /* \"#utility.yul\":17805:17843   */\n      tag_54\n      jump\t// in\n    tag_386:\n        /* \"#utility.yul\":17890:17957   */\n      tag_387\n        /* \"#utility.yul\":17950:17956   */\n      dup3\n        /* \"#utility.yul\":17942:17948   */\n      dup3\n        /* \"#utility.yul\":17936:17940   */\n      dup6\n        /* \"#utility.yul\":17890:17957   */\n      tag_185\n      jump\t// in\n    tag_387:\n        /* \"#utility.yul\":17984:17985   */\n      0x00\n        /* \"#utility.yul\":18008:18012   */\n      0x20\n        /* \"#utility.yul\":17995:18012   */\n      swap1\n      pop\n        /* \"#utility.yul\":18040:18042   */\n      0x1f\n        /* \"#utility.yul\":18032:18038   */\n      dup4\n        /* \"#utility.yul\":18029:18043   */\n      gt\n        /* \"#utility.yul\":18057:18058   */\n      0x01\n        /* \"#utility.yul\":18052:18670   */\n      dup2\n      eq\n      tag_389\n      jumpi\n        /* \"#utility.yul\":18714:18715   */\n      0x00\n        /* \"#utility.yul\":18731:18737   */\n      dup5\n        /* \"#utility.yul\":18728:18805   */\n      iszero\n      tag_390\n      jumpi\n        /* \"#utility.yul\":18780:18789   */\n      dup3\n        /* \"#utility.yul\":18775:18778   */\n      dup8\n        /* \"#utility.yul\":18771:18790   */\n      add\n        /* \"#utility.yul\":18765:18791   */\n      mload\n        /* \"#utility.yul\":18756:18791   */\n      swap1\n      pop\n        /* \"#utility.yul\":18728:18805   */\n    tag_390:\n        /* \"#utility.yul\":18831:18898   */\n      tag_391\n        /* \"#utility.yul\":18891:18897   */\n      dup6\n        /* \"#utility.yul\":18884:18889   */\n      dup3\n        /* \"#utility.yul\":18831:18898   */\n      tag_188\n      jump\t// in\n    tag_391:\n        /* \"#utility.yul\":18825:18829   */\n      dup7\n        /* \"#utility.yul\":18818:18899   */\n      sstore\n        /* \"#utility.yul\":18687:18909   */\n      pop\n        /* \"#utility.yul\":18022:18909   */\n      jump(tag_388)\n        /* \"#utility.yul\":18052:18670   */\n    tag_389:\n        /* \"#utility.yul\":18104:18108   */\n      0x1f\n        /* \"#utility.yul\":18100:18109   */\n      not\n        /* \"#utility.yul\":18092:18098   */\n      dup5\n        /* \"#utility.yul\":18088:18110   */\n      and\n        /* \"#utility.yul\":18138:18175   */\n      tag_392\n        /* \"#utility.yul\":18170:18174   */\n      dup7\n        /* \"#utility.yul\":18138:18175   */\n      tag_174\n      jump\t// in\n    tag_392:\n        /* \"#utility.yul\":18197:18198   */\n      0x00\n        /* \"#utility.yul\":18211:18419   */\n    tag_393:\n        /* \"#utility.yul\":18225:18232   */\n      dup3\n        /* \"#utility.yul\":18222:18223   */\n      dup2\n        /* \"#utility.yul\":18219:18233   */\n      lt\n        /* \"#utility.yul\":18211:18419   */\n      iszero\n      tag_395\n      jumpi\n        /* \"#utility.yul\":18304:18313   */\n      dup5\n        /* \"#utility.yul\":18299:18302   */\n      dup10\n        /* \"#utility.yul\":18295:18314   */\n      add\n        /* \"#utility.yul\":18289:18315   */\n      mload\n        /* \"#utility.yul\":18281:18287   */\n      dup3\n        /* \"#utility.yul\":18274:18316   */\n      sstore\n        /* \"#utility.yul\":18355:18356   */\n      0x01\n        /* \"#utility.yul\":18347:18353   */\n      dup3\n        /* \"#utility.yul\":18343:18357   */\n      add\n        /* \"#utility.yul\":18333:18357   */\n      swap2\n      pop\n        /* \"#utility.yul\":18402:18404   */\n      0x20\n        /* \"#utility.yul\":18391:18400   */\n      dup6\n        /* \"#utility.yul\":18387:18405   */\n      add\n        /* \"#utility.yul\":18374:18405   */\n      swap5\n      pop\n        /* \"#utility.yul\":18248:18252   */\n      0x20\n        /* \"#utility.yul\":18245:18246   */\n      dup2\n        /* \"#utility.yul\":18241:18253   */\n      add\n        /* \"#utility.yul\":18236:18253   */\n      swap1\n      pop\n        /* \"#utility.yul\":18211:18419   */\n      jump(tag_393)\n    tag_395:\n        /* \"#utility.yul\":18447:18453   */\n      dup7\n        /* \"#utility.yul\":18438:18445   */\n      dup4\n        /* \"#utility.yul\":18435:18454   */\n      lt\n        /* \"#utility.yul\":18432:18611   */\n      iszero\n      tag_396\n      jumpi\n        /* \"#utility.yul\":18505:18514   */\n      dup5\n        /* \"#utility.yul\":18500:18503   */\n      dup10\n        /* \"#utility.yul\":18496:18515   */\n      add\n        /* \"#utility.yul\":18490:18516   */\n      mload\n        /* \"#utility.yul\":18548:18596   */\n      tag_397\n        /* \"#utility.yul\":18590:18594   */\n      0x1f\n        /* \"#utility.yul\":18582:18588   */\n      dup10\n        /* \"#utility.yul\":18578:18595   */\n      and\n        /* \"#utility.yul\":18567:18576   */\n      dup3\n        /* \"#utility.yul\":18548:18596   */\n      tag_187\n      jump\t// in\n    tag_397:\n        /* \"#utility.yul\":18540:18546   */\n      dup4\n        /* \"#utility.yul\":18533:18597   */\n      sstore\n        /* \"#utility.yul\":18455:18611   */\n      pop\n        /* \"#utility.yul\":18432:18611   */\n    tag_396:\n        /* \"#utility.yul\":18657:18658   */\n      0x01\n        /* \"#utility.yul\":18653:18654   */\n      0x02\n        /* \"#utility.yul\":18645:18651   */\n      dup9\n        /* \"#utility.yul\":18641:18655   */\n      mul\n        /* \"#utility.yul\":18637:18659   */\n      add\n        /* \"#utility.yul\":18631:18635   */\n      dup9\n        /* \"#utility.yul\":18624:18660   */\n      sstore\n        /* \"#utility.yul\":18059:18670   */\n      pop\n      pop\n      pop\n        /* \"#utility.yul\":18022:18909   */\n    tag_388:\n      pop\n        /* \"#utility.yul\":17612:18915   */\n      pop\n      pop\n      pop\n        /* \"#utility.yul\":17520:18915   */\n      pop\n      pop\n      jump\t// out\n        /* \"#utility.yul\":18921:19154   */\n    tag_72:\n        /* \"#utility.yul\":18960:18963   */\n      0x00\n        /* \"#utility.yul\":18983:19007   */\n      tag_399\n        /* \"#utility.yul\":19001:19006   */\n      dup3\n        /* \"#utility.yul\":18983:19007   */\n      tag_153\n      jump\t// in\n    tag_399:\n        /* \"#utility.yul\":18974:19007   */\n      swap2\n      pop\n        /* \"#utility.yul\":19029:19095   */\n      0xffffffffffffffffffffffffffffffffffffffffffffffffffffffffffffffff\n        /* \"#utility.yul\":19022:19027   */\n      dup3\n        /* \"#utility.yul\":19019:19096   */\n      sub\n        /* \"#utility.yul\":19016:19119   */\n      tag_400\n      jumpi\n        /* \"#utility.yul\":19099:19117   */\n      tag_401\n      tag_189\n      jump\t// in\n    tag_401:\n        /* \"#utility.yul\":19016:19119   */\n    tag_400:\n        /* \"#utility.yul\":19146:19147   */\n      0x01\n        /* \"#utility.yul\":19139:19144   */\n      dup3\n        /* \"#utility.yul\":19135:19148   */\n      add\n        /* \"#utility.yul\":19128:19148   */\n      swap1\n      pop\n        /* \"#utility.yul\":18921:19154   */\n      swap2\n      swap1\n      pop\n      jump\t// out\n        /* \"#utility.yul\":19160:19351   */\n    tag_93:\n        /* \"#utility.yul\":19200:19203   */\n      0x00\n        /* \"#utility.yul\":19219:19239   */\n      tag_403\n        /* \"#utility.yul\":19237:19238   */\n      dup3\n        /* \"#utility.yul\":19219:19239   */\n      tag_153\n      jump\t// in\n    tag_403:\n        /* \"#utility.yul\":19214:19239   */\n      swap2\n      pop\n        /* \"#utility.yul\":19253:19273   */\n      tag_404\n        /* \"#utility.yul\":19271:19272   */\n      dup4\n        /* \"#utility.yul\":19253:19273   */\n      tag_153\n      jump\t// in\n    tag_404:\n        /* \"#utility.yul\":19248:19273   */\n      swap3\n      pop\n        /* \"#utility.yul\":19296:19297   */\n      dup3\n        /* \"#utility.yul\":19293:19294   */\n      dup3\n        /* \"#utility.yul\":19289:19298   */\n      add\n        /* \"#utility.yul\":19282:19298   */\n      swap1\n      pop\n        /* \"#utility.yul\":19317:19320   */\n      dup1\n        /* \"#utility.yul\":19314:19315   */\n      dup3\n        /* \"#utility.yul\":19311:19321   */\n      gt\n        /* \"#utility.yul\":19308:19344   */\n      iszero\n      tag_405\n      jumpi\n        /* \"#utility.yul\":19324:19342   */\n      tag_406\n      tag_189\n      jump\t// in\n    tag_406:\n        /* \"#utility.yul\":19308:19344   */\n    tag_405:\n        /* \"#utility.yul\":19160:19351   */\n      swap3\n      swap2\n      pop\n      pop\n      jump\t// out\n        /* \"#utility.yul\":19357:19537   */\n    tag_98:\n        /* \"#utility.yul\":19405:19482   */\n      0x4e487b7100000000000000000000000000000000000000000000000000000000\n        /* \"#utility.yul\":19402:19403   */\n      0x00\n        /* \"#utility.yul\":19395:19483   */\n      mstore\n        /* \"#utility.yul\":19502:19506   */\n      0x32\n        /* \"#utility.yul\":19499:19500   */\n      0x04\n        /* \"#utility.yul\":19492:19507   */\n      mstore\n        /* \"#utility.yul\":19526:19530   */\n      0x24\n        /* \"#utility.yul\":19523:19524   */\n      0x00\n        /* \"#utility.yul\":19516:19531   */\n      revert\n        /* \"#utility.yul\":19543:19696   */\n    tag_190:\n        /* \"#utility.yul\":19596:19602   */\n      0x00\n        /* \"#utility.yul\":19630:19635   */\n      dup2\n        /* \"#utility.yul\":19624:19636   */\n      sload\n        /* \"#utility.yul\":19614:19636   */\n      swap1\n      pop\n        /* \"#utility.yul\":19656:19689   */\n      tag_409\n        /* \"#utility.yul\":19682:19688   */\n      dup2\n        /* \"#utility.yul\":19656:19689   */\n      tag_54\n      jump\t// in\n    tag_409:\n        /* \"#utility.yul\":19646:19689   */\n      swap1\n      pop\n        /* \"#utility.yul\":19543:19696   */\n      swap2\n      swap1\n      pop\n      jump\t// out\n        /* \"#utility.yul\":19702:19847   */\n    tag_191:\n        /* \"#utility.yul\":19755:19759   */\n      0x00\n        /* \"#utility.yul\":19778:19781   */\n      dup2\n        /* \"#utility.yul\":19770:19781   */\n      swap1\n      pop\n        /* \"#utility.yul\":19801:19804   */\n      dup2\n        /* \"#utility.yul\":19798:19799   */\n      0x00\n        /* \"#utility.yul\":19791:19805   */\n      mstore\n        /* \"#utility.yul\":19835:19839   */\n      0x20\n        /* \"#utility.yul\":19832:19833   */\n      0x00\n        /* \"#utility.yul\":19822:19840   */\n      keccak256\n        /* \"#utility.yul\":19814:19840   */\n      swap1\n      pop\n        /* \"#utility.yul\":19702:19847   */\n      swap2\n      swap1\n      pop\n      jump\t// out\n        /* \"#utility.yul\":19853:21316   */\n    tag_104:\n        /* \"#utility.yul\":19968:19971   */\n      dup2\n        /* \"#utility.yul\":19962:19966   */\n      dup2\n        /* \"#utility.yul\":19959:19972   */\n      sub\n        /* \"#utility.yul\":19956:19982   */\n      tag_412\n      jumpi\n        /* \"#utility.yul\":19975:19980   */\n      pop\n      pop\n      jump(tag_411)\n        /* \"#utility.yul\":19956:19982   */\n    tag_412:\n        /* \"#utility.yul\":20006:20044   */\n      tag_413\n        /* \"#utility.yul\":20040:20043   */\n      dup3\n        /* \"#utility.yul\":20006:20044   */\n      tag_190\n      jump\t// in\n    tag_413:\n        /* \"#utility.yul\":20109:20127   */\n      0xffffffffffffffff\n        /* \"#utility.yul\":20101:20107   */\n      dup2\n        /* \"#utility.yul\":20098:20128   */\n      gt\n        /* \"#utility.yul\":20095:20151   */\n      iszero\n      tag_414\n      jumpi\n        /* \"#utility.yul\":20131:20149   */\n      tag_415\n      tag_158\n      jump\t// in\n    tag_415:\n        /* \"#utility.yul\":20095:20151   */\n    tag_414:\n        /* \"#utility.yul\":20175:20213   */\n      tag_416\n        /* \"#utility.yul\":20207:20211   */\n      dup3\n        /* \"#utility.yul\":20201:20212   */\n      sload\n        /* \"#utility.yul\":20175:20213   */\n      tag_54\n      jump\t// in\n    tag_416:\n        /* \"#utility.yul\":20260:20327   */\n      tag_417\n        /* \"#utility.yul\":20320:20326   */\n      dup3\n        /* \"#utility.yul\":20312:20318   */\n      dup3\n        /* \"#utility.yul\":20306:20310   */\n      dup6\n        /* \"#utility.yul\":20260:20327   */\n      tag_185\n      jump\t// in\n    tag_417:\n        /* \"#utility.yul\":20354:20355   */\n      0x00\n        /* \"#utility.yul\":20383:20385   */\n      0x1f\n        /* \"#utility.yul\":20375:20381   */\n      dup4\n        /* \"#utility.yul\":20372:20386   */\n      gt\n        /* \"#utility.yul\":20400:20401   */\n      0x01\n        /* \"#utility.yul\":20395:21071   */\n      dup2\n      eq\n      tag_419\n      jumpi\n        /* \"#utility.yul\":21115:21116   */\n      0x00\n        /* \"#utility.yul\":21132:21138   */\n      dup5\n        /* \"#utility.yul\":21129:21206   */\n      iszero\n      tag_420\n      jumpi\n        /* \"#utility.yul\":21181:21190   */\n      dup3\n        /* \"#utility.yul\":21176:21179   */\n      dup8\n        /* \"#utility.yul\":21172:21191   */\n      add\n        /* \"#utility.yul\":21166:21192   */\n      sload\n        /* \"#utility.yul\":21157:21192   */\n      swap1\n      pop\n        /* \"#utility.yul\":21129:21206   */\n    tag_420:\n        /* \"#utility.yul\":21232:21299   */\n      tag_421\n        /* \"#utility.yul\":21292:21298   */\n      dup6\n        /* \"#utility.yul\":21285:21290   */\n      dup3\n        /* \"#utility.yul\":21232:21299   */\n      tag_188\n      jump\t// in\n    tag_421:\n        /* \"#utility.yul\":21226:21230   */\n      dup7\n        /* \"#utility.yul\":21219:21300   */\n      sstore\n        /* \"#utility.yul\":21088:21310   */\n      pop\n        /* \"#utility.yul\":20365:21310   */\n      jump(tag_418)\n        /* \"#utility.yul\":20395:21071   */\n    tag_419:\n        /* \"#utility.yul\":20447:20451   */\n      0x1f\n        /* \"#utility.yul\":20443:20452   */\n      not\n        /* \"#utility.yul\":20435:20441   */\n      dup5\n        /* \"#utility.yul\":20431:20453   */\n      and\n        /* \"#utility.yul\":20473:20513   */\n      tag_422\n        /* \"#utility.yul\":20509:20512   */\n      dup8\n        /* \"#utility.yul\":20473:20513   */\n      tag_191\n      jump\t// in\n    tag_422:\n        /* \"#utility.yul\":20466:20513   */\n      swap7\n      pop\n        /* \"#utility.yul\":20540:20577   */\n      tag_423\n        /* \"#utility.yul\":20572:20576   */\n      dup7\n        /* \"#utility.yul\":20540:20577   */\n      tag_174\n      jump\t// in\n    tag_423:\n        /* \"#utility.yul\":20599:20600   */\n      0x00\n        /* \"#utility.yul\":20613:20820   */\n    tag_424:\n        /* \"#utility.yul\":20627:20634   */\n      dup3\n        /* \"#utility.yul\":20624:20625   */\n      dup2\n        /* \"#utility.yul\":20621:20635   */\n      lt\n        /* \"#utility.yul\":20613:20820   */\n      iszero\n      tag_426\n      jumpi\n        /* \"#utility.yul\":20706:20715   */\n      dup5\n        /* \"#utility.yul\":20701:20704   */\n      dup10\n        /* \"#utility.yul\":20697:20716   */\n      add\n        /* \"#utility.yul\":20691:20717   */\n      sload\n        /* \"#utility.yul\":20683:20689   */\n      dup3\n        /* \"#utility.yul\":20676:20718   */\n      sstore\n        /* \"#utility.yul\":20757:20758   */\n      0x01\n        /* \"#utility.yul\":20749:20755   */\n      dup3\n        /* \"#utility.yul\":20745:20759   */\n      add\n        /* \"#utility.yul\":20735:20759   */\n      swap2\n      pop\n        /* \"#utility.yul\":20804:20805   */\n      0x01\n        /* \"#utility.yul\":20793:20802   */\n      dup6\n        /* \"#utility.yul\":20789:20806   */\n      add\n        /* \"#utility.yul\":20776:20806   */\n      swap5\n      pop\n        /* \"#utility.yul\":20650:20654   */\n      0x20\n        /* \"#utility.yul\":20647:20648   */\n      dup2\n        /* \"#utility.yul\":20643:20655   */\n      add\n        /* \"#utility.yul\":20638:20655   */\n      swap1\n      pop\n        /* \"#utility.yul\":20613:20820   */\n      jump(tag_424)\n    tag_426:\n        /* \"#utility.yul\":20848:20854   */\n      dup7\n        /* \"#utility.yul\":20839:20846   */\n      dup4\n        /* \"#utility.yul\":20836:20855   */\n      lt\n        /* \"#utility.yul\":20833:21012   */\n      iszero\n      tag_427\n      jumpi\n        /* \"#utility.yul\":20906:20915   */\n      dup5\n        /* \"#utility.yul\":20901:20904   */\n      dup10\n        /* \"#utility.yul\":20897:20916   */\n      add\n        /* \"#utility.yul\":20891:20917   */\n      sload\n        /* \"#utility.yul\":20949:20997   */\n      tag_428\n        /* \"#utility.yul\":20991:20995   */\n      0x1f\n        /* \"#utility.yul\":20983:20989   */\n      dup10\n        /* \"#utility.yul\":20979:20996   */\n      and\n        /* \"#utility.yul\":20968:20977   */\n      dup3\n        /* \"#utility.yul\":20949:20997   */\n      tag_187\n      jump\t// in\n    tag_428:\n        /* \"#utility.yul\":20941:20947   */\n      dup4\n        /* \"#utility.yul\":20934:20998   */\n      sstore\n        /* \"#utility.yul\":20856:21012   */\n      pop\n        /* \"#utility.yul\":20833:21012   */\n    tag_427:\n        /* \"#utility.yul\":21058:21059   */\n      0x01\n        /* \"#utility.yul\":21054:21055   */\n      0x02\n        /* \"#utility.yul\":21046:21052   */\n      dup9\n        /* \"#utility.yul\":21042:21056   */\n      mul\n        /* \"#utility.yul\":21038:21060   */\n      add\n        /* \"#utility.yul\":21032:21036   */\n      dup9\n        /* \"#utility.yul\":21025:21061   */\n      sstore\n        /* \"#utility.yul\":20402:21071   */\n      pop\n      pop\n      pop\n        /* \"#utility.yul\":20365:21310   */\n    tag_418:\n      pop\n        /* \"#utility.yul\":19946:21316   */\n      pop\n      pop\n      pop\n        /* \"#utility.yul\":19853:21316   */\n      pop\n      pop\n    tag_411:\n      jump\t// out\n        /* \"#utility.yul\":21322:21502   */\n    tag_107:\n        /* \"#utility.yul\":21370:21447   */\n      0x4e487b7100000000000000000000000000000000000000000000000000000000\n        /* \"#utility.yul\":21367:21368   */\n      0x00\n        /* \"#utility.yul\":21360:21448   */\n      mstore\n        /* \"#utility.yul\":21467:21471   */\n      0x31\n        /* \"#utility.yul\":21464:21465   */\n      0x04\n        /* \"#utility.yul\":21457:21472   */\n      mstore\n        /* \"#utility.yul\":21491:21495   */\n      0x24\n        /* \"#utility.yul\":21488:21489   */\n      0x00\n        /* \"#utility.yul\":21481:21496   */\n      revert\n\n    auxdata: 0xa2646970667358221220baee43ac0b7b2432e0958182e9e55f4787728968f99b8144fb0bd92b99e4ab3d64736f6c634300081a0033\n}\n",
				"bytecode": {
					"linkReferences": {},
					"object": "6080604052348015600e575f80fd5b506116af8061001c5f395ff3fe608060405234801561000f575f80fd5b5060043610610086575f3560e01c806380d76e821161005957806380d76e8214610128578063b352549014610144578063d2c4226014610174578063d7fdc27b1461019057610086565b8063168b2c101461008a57806327e22949146100a857806352ef8109146100c4578063632b39a9146100f4575b5f80fd5b6100926101c4565b60405161009f9190610bf0565b60405180910390f35b6100c260048036038101906100bd9190610d80565b610298565b005b6100de60048036038101906100d99190610dec565b610427565b6040516100eb9190610e42565b60405180910390f35b61010e60048036038101906101099190610e5b565b610453565b60405161011f959493929190610f17565b60405180910390f35b610142600480360381019061013d9190610f6f565b610547565b005b61015e60048036038101906101599190610fdb565b610584565b60405161016b9190611006565b60405180910390f35b61018e60048036038101906101899190610d80565b61062a565b005b6101aa60048036038101906101a59190610fdb565b6107f6565b6040516101bb959493929190610f17565b60405180910390f35b60606003805480602002602001604051908101604052809291908181526020015f905b8282101561028f578382905f5260205f2001805461020490611053565b80601f016020809104026020016040519081016040528092919081815260200182805461023090611053565b801561027b5780601f106102525761010080835404028352916020019161027b565b820191905f5260205f20905b81548152906001019060200180831161025e57829003601f168201915b5050505050815260200190600101906101e7565b50505050905090565b6001805f8581526020019081526020015f206003015f6101000a81548160ff0219169083151502179055505f60015f8581526020019081526020015f209050806002846040516102e891906110bd565b90815260200160405180910390205f8681526020019081526020015f205f8201815f0190816103179190611285565b506001820154816001015560028201548160020155600382015f9054906101000a900460ff16816003015f6101000a81548160ff0219169083151502179055506003820160019054906101000a900460ff168160030160016101000a81548160ff021916908315150217905550600482018160040190805461039a9291906108c7565b5090505081816001015f8282546103b19190611397565b92505081905550600383908060018154018082558091505060019003905f5260205f20015f9091909190915090816103e991906113ca565b5060045f8154809291906103fc90611499565b919050555f8460405161040f91906110bd565b90815260200160405180910390208190555050505050565b5f818051602081018201805184825260208301602085012081835280955050505050505f915090505481565b600282805160208101820180518482526020830160208501208183528095505050505050602052805f5260405f205f9150915050805f01805461049590611053565b80601f01602080910402602001604051908101604052809291908181526020018280546104c190611053565b801561050c5780601f106104e35761010080835404028352916020019161050c565b820191905f5260205f20905b8154815290600101906020018083116104ef57829003601f168201915b505050505090806001015490806002015490806003015f9054906101000a900460ff16908060030160019054906101000a900460ff16905085565b5f60015f8481526020019081526020015f20905083815f01908161056b91906113ca565b5081816001018190555082816002018190555050505050565b60038181548110610593575f80fd5b905f5260205f20015f9150905080546105ab90611053565b80601f01602080910402602001604051908101604052809291908181526020018280546105d790611053565b80156106225780601f106105f957610100808354040283529160200191610622565b820191905f5260205f20905b81548152906001019060200180831161060557829003601f168201915b505050505081565b6001805f8581526020019081526020015f2060030160016101000a81548160ff0219169083151502179055505f60015f8581526020019081526020015f2090508060028460405161067b91906110bd565b90815260200160405180910390205f8681526020019081526020015f205f8201815f0190816106aa9190611285565b506001820154816001015560028201548160020155600382015f9054906101000a900460ff16816003015f6101000a81548160ff0219169083151502179055506003820160019054906101000a900460ff168160030160016101000a81548160ff021916908315150217905550600482018160040190805461072d9291906108c7565b5090505081816001015f82825461074491906114e0565b925050819055505f808460405161075b91906110bd565b9081526020016040518091039020549050600360016003805490506107809190611397565b8154811061079157610790611513565b5b905f5260205f2001600382815481106107ad576107ac611513565b5b905f5260205f200190816107c19190611567565b5060038054806107d4576107d361164c565b5b600190038181905f5260205f20015f6107ed91906109ce565b90555050505050565b6001602052805f5260405f205f91509050805f01805461081590611053565b80601f016020809104026020016040519081016040528092919081815260200182805461084190611053565b801561088c5780601f106108635761010080835404028352916020019161088c565b820191905f5260205f20905b81548152906001019060200180831161086f57829003601f168201915b505050505090806001015490806002015490806003015f9054906101000a900460ff16908060030160019054906101000a900460ff16905085565b828054828255905f5260205f209060060281019282156109bd575f5260205f209160060282015b828111156109bc5782825f8201815f01908161090a9190611285565b5060018201816001015f8201815f0190816109259190611285565b506001820154816001015560028201548160020155600382015f9054906101000a900460ff16816003015f6101000a81548160ff0219169083151502179055506003820160019054906101000a900460ff168160030160016101000a81548160ff02191690831515021790555060048201816004019080546109a89291906108c7565b5050505050916006019190600601906108ee565b5b5090506109ca9190610a0b565b5090565b5080546109da90611053565b5f825580601f106109eb5750610a08565b601f0160209004905f5260205f2090810190610a079190610a89565b5b50565b5b80821115610a85575f8082015f610a2391906109ce565b600182015f8082015f610a3691906109ce565b600182015f9055600282015f9055600382015f6101000a81549060ff02191690556003820160016101000a81549060ff0219169055600482015f610a7a9190610aa4565b505050600601610a0c565b5090565b5b80821115610aa0575f815f905550600101610a8a565b5090565b5080545f8255600602905f5260205f2090810190610ac29190610a0b565b50565b5f81519050919050565b5f82825260208201905092915050565b5f819050602082019050919050565b5f81519050919050565b5f82825260208201905092915050565b8281835e5f83830152505050565b5f601f19601f8301169050919050565b5f610b3082610aee565b610b3a8185610af8565b9350610b4a818560208601610b08565b610b5381610b16565b840191505092915050565b5f610b698383610b26565b905092915050565b5f602082019050919050565b5f610b8782610ac5565b610b918185610acf565b935083602082028501610ba385610adf565b805f5b85811015610bde5784840389528151610bbf8582610b5e565b9450610bca83610b71565b925060208a01995050600181019050610ba6565b50829750879550505050505092915050565b5f6020820190508181035f830152610c088184610b7d565b905092915050565b5f604051905090565b5f80fd5b5f80fd5b5f819050919050565b610c3381610c21565b8114610c3d575f80fd5b50565b5f81359050610c4e81610c2a565b92915050565b5f80fd5b5f80fd5b7f4e487b71000000000000000000000000000000000000000000000000000000005f52604160045260245ffd5b610c9282610b16565b810181811067ffffffffffffffff82111715610cb157610cb0610c5c565b5b80604052505050565b5f610cc3610c10565b9050610ccf8282610c89565b919050565b5f67ffffffffffffffff821115610cee57610ced610c5c565b5b610cf782610b16565b9050602081019050919050565b828183375f83830152505050565b5f610d24610d1f84610cd4565b610cba565b905082815260208101848484011115610d4057610d3f610c58565b5b610d4b848285610d04565b509392505050565b5f82601f830112610d6757610d66610c54565b5b8135610d77848260208601610d12565b91505092915050565b5f805f60608486031215610d9757610d96610c19565b5b5f610da486828701610c40565b935050602084013567ffffffffffffffff811115610dc557610dc4610c1d565b5b610dd186828701610d53565b9250506040610de286828701610c40565b9150509250925092565b5f60208284031215610e0157610e00610c19565b5b5f82013567ffffffffffffffff811115610e1e57610e1d610c1d565b5b610e2a84828501610d53565b91505092915050565b610e3c81610c21565b82525050565b5f602082019050610e555f830184610e33565b92915050565b5f8060408385031215610e7157610e70610c19565b5b5f83013567ffffffffffffffff811115610e8e57610e8d610c1d565b5b610e9a85828601610d53565b9250506020610eab85828601610c40565b9150509250929050565b5f82825260208201905092915050565b5f610ecf82610aee565b610ed98185610eb5565b9350610ee9818560208601610b08565b610ef281610b16565b840191505092915050565b5f8115159050919050565b610f1181610efd565b82525050565b5f60a0820190508181035f830152610f2f8188610ec5565b9050610f3e6020830187610e33565b610f4b6040830186610e33565b610f586060830185610f08565b610f656080830184610f08565b9695505050505050565b5f805f60608486031215610f8657610f85610c19565b5b5f84013567ffffffffffffffff811115610fa357610fa2610c1d565b5b610faf86828701610d53565b9350506020610fc086828701610c40565b9250506040610fd186828701610c40565b9150509250925092565b5f60208284031215610ff057610fef610c19565b5b5f610ffd84828501610c40565b91505092915050565b5f6020820190508181035f83015261101e8184610ec5565b905092915050565b7f4e487b71000000000000000000000000000000000000000000000000000000005f52602260045260245ffd5b5f600282049050600182168061106a57607f821691505b60208210810361107d5761107c611026565b5b50919050565b5f81905092915050565b5f61109782610aee565b6110a18185611083565b93506110b1818560208601610b08565b80840191505092915050565b5f6110c8828461108d565b915081905092915050565b5f815490506110e181611053565b9050919050565b5f819050815f5260205f209050919050565b5f6020601f8301049050919050565b5f82821b905092915050565b5f600883026111447fffffffffffffffffffffffffffffffffffffffffffffffffffffffffffffffff82611109565b61114e8683611109565b95508019841693508086168417925050509392505050565b5f819050919050565b5f61118961118461117f84610c21565b611166565b610c21565b9050919050565b5f819050919050565b6111a28361116f565b6111b66111ae82611190565b848454611115565b825550505050565b5f90565b6111ca6111be565b6111d5818484611199565b505050565b5b818110156111f8576111ed5f826111c2565b6001810190506111db565b5050565b601f82111561123d5761120e816110e8565b611217846110fa565b81016020851015611226578190505b61123a611232856110fa565b8301826111da565b50505b505050565b5f82821c905092915050565b5f61125d5f1984600802611242565b1980831691505092915050565b5f611275838361124e565b9150826002028217905092915050565b818103611293575050611368565b61129c826110d3565b67ffffffffffffffff8111156112b5576112b4610c5c565b5b6112bf8254611053565b6112ca8282856111fc565b5f601f8311600181146112f7575f84156112e5578287015490505b6112ef858261126a565b865550611361565b601f198416611305876110e8565b9650611310866110e8565b5f5b8281101561133757848901548255600182019150600185019450602081019050611312565b868310156113545784890154611350601f89168261124e565b8355505b6001600288020188555050505b5050505050505b565b7f4e487b71000000000000000000000000000000000000000000000000000000005f52601160045260245ffd5b5f6113a182610c21565b91506113ac83610c21565b92508282039050818111156113c4576113c361136a565b5b92915050565b6113d382610aee565b67ffffffffffffffff8111156113ec576113eb610c5c565b5b6113f68254611053565b6114018282856111fc565b5f60209050601f831160018114611432575f8415611420578287015190505b61142a858261126a565b865550611491565b601f198416611440866110e8565b5f5b8281101561146757848901518255600182019150602085019450602081019050611442565b868310156114845784890151611480601f89168261124e565b8355505b6001600288020188555050505b505050505050565b5f6114a382610c21565b91507fffffffffffffffffffffffffffffffffffffffffffffffffffffffffffffffff82036114d5576114d461136a565b5b600182019050919050565b5f6114ea82610c21565b91506114f583610c21565b925082820190508082111561150d5761150c61136a565b5b92915050565b7f4e487b71000000000000000000000000000000000000000000000000000000005f52603260045260245ffd5b5f8154905061154e81611053565b9050919050565b5f819050815f5260205f209050919050565b81810361157557505061164a565b61157e82611540565b67ffffffffffffffff81111561159757611596610c5c565b5b6115a18254611053565b6115ac8282856111fc565b5f601f8311600181146115d9575f84156115c7578287015490505b6115d1858261126a565b865550611643565b601f1984166115e787611555565b96506115f2866110e8565b5f5b82811015611619578489015482556001820191506001850194506020810190506115f4565b868310156116365784890154611632601f89168261124e565b8355505b6001600288020188555050505b5050505050505b565b7f4e487b71000000000000000000000000000000000000000000000000000000005f52603160045260245ffdfea2646970667358221220baee43ac0b7b2432e0958182e9e55f4787728968f99b8144fb0bd92b99e4ab3d64736f6c634300081a0033",
					"opcodes": "PUSH1 0x80 PUSH1 0x40 MSTORE CALLVALUE DUP1 ISZERO PUSH1 0xE JUMPI PUSH0 DUP1 REVERT JUMPDEST POP PUSH2 0x16AF DUP1 PUSH2 0x1C PUSH0 CODECOPY PUSH0 RETURN INVALID PUSH1 0x80 PUSH1 0x40 MSTORE CALLVALUE DUP1 ISZERO PUSH2 0xF JUMPI PUSH0 DUP1 REVERT JUMPDEST POP PUSH1 0x4 CALLDATASIZE LT PUSH2 0x86 JUMPI PUSH0 CALLDATALOAD PUSH1 0xE0 SHR DUP1 PUSH4 0x80D76E82 GT PUSH2 0x59 JUMPI DUP1 PUSH4 0x80D76E82 EQ PUSH2 0x128 JUMPI DUP1 PUSH4 0xB3525490 EQ PUSH2 0x144 JUMPI DUP1 PUSH4 0xD2C42260 EQ PUSH2 0x174 JUMPI DUP1 PUSH4 0xD7FDC27B EQ PUSH2 0x190 JUMPI PUSH2 0x86 JUMP JUMPDEST DUP1 PUSH4 0x168B2C10 EQ PUSH2 0x8A JUMPI DUP1 PUSH4 0x27E22949 EQ PUSH2 0xA8 JUMPI DUP1 PUSH4 0x52EF8109 EQ PUSH2 0xC4 JUMPI DUP1 PUSH4 0x632B39A9 EQ PUSH2 0xF4 JUMPI JUMPDEST PUSH0 DUP1 REVERT JUMPDEST PUSH2 0x92 PUSH2 0x1C4 JUMP JUMPDEST PUSH1 0x40 MLOAD PUSH2 0x9F SWAP2 SWAP1 PUSH2 0xBF0 JUMP JUMPDEST PUSH1 0x40 MLOAD DUP1 SWAP2 SUB SWAP1 RETURN JUMPDEST PUSH2 0xC2 PUSH1 0x4 DUP1 CALLDATASIZE SUB DUP2 ADD SWAP1 PUSH2 0xBD SWAP2 SWAP1 PUSH2 0xD80 JUMP JUMPDEST PUSH2 0x298 JUMP JUMPDEST STOP JUMPDEST PUSH2 0xDE PUSH1 0x4 DUP1 CALLDATASIZE SUB DUP2 ADD SWAP1 PUSH2 0xD9 SWAP2 SWAP1 PUSH2 0xDEC JUMP JUMPDEST PUSH2 0x427 JUMP JUMPDEST PUSH1 0x40 MLOAD PUSH2 0xEB SWAP2 SWAP1 PUSH2 0xE42 JUMP JUMPDEST PUSH1 0x40 MLOAD DUP1 SWAP2 SUB SWAP1 RETURN JUMPDEST PUSH2 0x10E PUSH1 0x4 DUP1 CALLDATASIZE SUB DUP2 ADD SWAP1 PUSH2 0x109 SWAP2 SWAP1 PUSH2 0xE5B JUMP JUMPDEST PUSH2 0x453 JUMP JUMPDEST PUSH1 0x40 MLOAD PUSH2 0x11F SWAP6 SWAP5 SWAP4 SWAP3 SWAP2 SWAP1 PUSH2 0xF17 JUMP JUMPDEST PUSH1 0x40 MLOAD DUP1 SWAP2 SUB SWAP1 RETURN JUMPDEST PUSH2 0x142 PUSH1 0x4 DUP1 CALLDATASIZE SUB DUP2 ADD SWAP1 PUSH2 0x13D SWAP2 SWAP1 PUSH2 0xF6F JUMP JUMPDEST PUSH2 0x547 JUMP JUMPDEST STOP JUMPDEST PUSH2 0x15E PUSH1 0x4 DUP1 CALLDATASIZE SUB DUP2 ADD SWAP1 PUSH2 0x159 SWAP2 SWAP1 PUSH2 0xFDB JUMP JUMPDEST PUSH2 0x584 JUMP JUMPDEST PUSH1 0x40 MLOAD PUSH2 0x16B SWAP2 SWAP1 PUSH2 0x1006 JUMP JUMPDEST PUSH1 0x40 MLOAD DUP1 SWAP2 SUB SWAP1 RETURN JUMPDEST PUSH2 0x18E PUSH1 0x4 DUP1 CALLDATASIZE SUB DUP2 ADD SWAP1 PUSH2 0x189 SWAP2 SWAP1 PUSH2 0xD80 JUMP JUMPDEST PUSH2 0x62A JUMP JUMPDEST STOP JUMPDEST PUSH2 0x1AA PUSH1 0x4 DUP1 CALLDATASIZE SUB DUP2 ADD SWAP1 PUSH2 0x1A5 SWAP2 SWAP1 PUSH2 0xFDB JUMP JUMPDEST PUSH2 0x7F6 JUMP JUMPDEST PUSH1 0x40 MLOAD PUSH2 0x1BB SWAP6 SWAP5 SWAP4 SWAP3 SWAP2 SWAP1 PUSH2 0xF17 JUMP JUMPDEST PUSH1 0x40 MLOAD DUP1 SWAP2 SUB SWAP1 RETURN JUMPDEST PUSH1 0x60 PUSH1 0x3 DUP1 SLOAD DUP1 PUSH1 0x20 MUL PUSH1 0x20 ADD PUSH1 0x40 MLOAD SWAP1 DUP2 ADD PUSH1 0x40 MSTORE DUP1 SWAP3 SWAP2 SWAP1 DUP2 DUP2 MSTORE PUSH1 0x20 ADD PUSH0 SWAP1 JUMPDEST DUP3 DUP3 LT ISZERO PUSH2 0x28F JUMPI DUP4 DUP3 SWAP1 PUSH0 MSTORE PUSH1 0x20 PUSH0 KECCAK256 ADD DUP1 SLOAD PUSH2 0x204 SWAP1 PUSH2 0x1053 JUMP JUMPDEST DUP1 PUSH1 0x1F ADD PUSH1 0x20 DUP1 SWAP2 DIV MUL PUSH1 0x20 ADD PUSH1 0x40 MLOAD SWAP1 DUP2 ADD PUSH1 0x40 MSTORE DUP1 SWAP3 SWAP2 SWAP1 DUP2 DUP2 MSTORE PUSH1 0x20 ADD DUP3 DUP1 SLOAD PUSH2 0x230 SWAP1 PUSH2 0x1053 JUMP JUMPDEST DUP1 ISZERO PUSH2 0x27B JUMPI DUP1 PUSH1 0x1F LT PUSH2 0x252 JUMPI PUSH2 0x100 DUP1 DUP4 SLOAD DIV MUL DUP4 MSTORE SWAP2 PUSH1 0x20 ADD SWAP2 PUSH2 0x27B JUMP JUMPDEST DUP3 ADD SWAP2 SWAP1 PUSH0 MSTORE PUSH1 0x20 PUSH0 KECCAK256 SWAP1 JUMPDEST DUP2 SLOAD DUP2 MSTORE SWAP1 PUSH1 0x1 ADD SWAP1 PUSH1 0x20 ADD DUP1 DUP4 GT PUSH2 0x25E JUMPI DUP3 SWAP1 SUB PUSH1 0x1F AND DUP3 ADD SWAP2 JUMPDEST POP POP POP POP POP DUP2 MSTORE PUSH1 0x20 ADD SWAP1 PUSH1 0x1 ADD SWAP1 PUSH2 0x1E7 JUMP JUMPDEST POP POP POP POP SWAP1 POP SWAP1 JUMP JUMPDEST PUSH1 0x1 DUP1 PUSH0 DUP6 DUP2 MSTORE PUSH1 0x20 ADD SWAP1 DUP2 MSTORE PUSH1 0x20 ADD PUSH0 KECCAK256 PUSH1 0x3 ADD PUSH0 PUSH2 0x100 EXP DUP2 SLOAD DUP2 PUSH1 0xFF MUL NOT AND SWAP1 DUP4 ISZERO ISZERO MUL OR SWAP1 SSTORE POP PUSH0 PUSH1 0x1 PUSH0 DUP6 DUP2 MSTORE PUSH1 0x20 ADD SWAP1 DUP2 MSTORE PUSH1 0x20 ADD PUSH0 KECCAK256 SWAP1 POP DUP1 PUSH1 0x2 DUP5 PUSH1 0x40 MLOAD PUSH2 0x2E8 SWAP2 SWAP1 PUSH2 0x10BD JUMP JUMPDEST SWAP1 DUP2 MSTORE PUSH1 0x20 ADD PUSH1 0x40 MLOAD DUP1 SWAP2 SUB SWAP1 KECCAK256 PUSH0 DUP7 DUP2 MSTORE PUSH1 0x20 ADD SWAP1 DUP2 MSTORE PUSH1 0x20 ADD PUSH0 KECCAK256 PUSH0 DUP3 ADD DUP2 PUSH0 ADD SWAP1 DUP2 PUSH2 0x317 SWAP2 SWAP1 PUSH2 0x1285 JUMP JUMPDEST POP PUSH1 0x1 DUP3 ADD SLOAD DUP2 PUSH1 0x1 ADD SSTORE PUSH1 0x2 DUP3 ADD SLOAD DUP2 PUSH1 0x2 ADD SSTORE PUSH1 0x3 DUP3 ADD PUSH0 SWAP1 SLOAD SWAP1 PUSH2 0x100 EXP SWAP1 DIV PUSH1 0xFF AND DUP2 PUSH1 0x3 ADD PUSH0 PUSH2 0x100 EXP DUP2 SLOAD DUP2 PUSH1 0xFF MUL NOT AND SWAP1 DUP4 ISZERO ISZERO MUL OR SWAP1 SSTORE POP PUSH1 0x3 DUP3 ADD PUSH1 0x1 SWAP1 SLOAD SWAP1 PUSH2 0x100 EXP SWAP1 DIV PUSH1 0xFF AND DUP2 PUSH1 0x3 ADD PUSH1 0x1 PUSH2 0x100 EXP DUP2 SLOAD DUP2 PUSH1 0xFF MUL NOT AND SWAP1 DUP4 ISZERO ISZERO MUL OR SWAP1 SSTORE POP PUSH1 0x4 DUP3 ADD DUP2 PUSH1 0x4 ADD SWAP1 DUP1 SLOAD PUSH2 0x39A SWAP3 SWAP2 SWAP1 PUSH2 0x8C7 JUMP JUMPDEST POP SWAP1 POP POP DUP2 DUP2 PUSH1 0x1 ADD PUSH0 DUP3 DUP3 SLOAD PUSH2 0x3B1 SWAP2 SWAP1 PUSH2 0x1397 JUMP JUMPDEST SWAP3 POP POP DUP2 SWAP1 SSTORE POP PUSH1 0x3 DUP4 SWAP1 DUP1 PUSH1 0x1 DUP2 SLOAD ADD DUP1 DUP3 SSTORE DUP1 SWAP2 POP POP PUSH1 0x1 SWAP1 SUB SWAP1 PUSH0 MSTORE PUSH1 0x20 PUSH0 KECCAK256 ADD PUSH0 SWAP1 SWAP2 SWAP1 SWAP2 SWAP1 SWAP2 POP SWAP1 DUP2 PUSH2 0x3E9 SWAP2 SWAP1 PUSH2 0x13CA JUMP JUMPDEST POP PUSH1 0x4 PUSH0 DUP2 SLOAD DUP1 SWAP3 SWAP2 SWAP1 PUSH2 0x3FC SWAP1 PUSH2 0x1499 JUMP JUMPDEST SWAP2 SWAP1 POP SSTORE PUSH0 DUP5 PUSH1 0x40 MLOAD PUSH2 0x40F SWAP2 SWAP1 PUSH2 0x10BD JUMP JUMPDEST SWAP1 DUP2 MSTORE PUSH1 0x20 ADD PUSH1 0x40 MLOAD DUP1 SWAP2 SUB SWAP1 KECCAK256 DUP2 SWAP1 SSTORE POP POP POP POP POP JUMP JUMPDEST PUSH0 DUP2 DUP1 MLOAD PUSH1 0x20 DUP2 ADD DUP3 ADD DUP1 MLOAD DUP5 DUP3 MSTORE PUSH1 0x20 DUP4 ADD PUSH1 0x20 DUP6 ADD KECCAK256 DUP2 DUP4 MSTORE DUP1 SWAP6 POP POP POP POP POP POP PUSH0 SWAP2 POP SWAP1 POP SLOAD DUP2 JUMP JUMPDEST PUSH1 0x2 DUP3 DUP1 MLOAD PUSH1 0x20 DUP2 ADD DUP3 ADD DUP1 MLOAD DUP5 DUP3 MSTORE PUSH1 0x20 DUP4 ADD PUSH1 0x20 DUP6 ADD KECCAK256 DUP2 DUP4 MSTORE DUP1 SWAP6 POP POP POP POP POP POP PUSH1 0x20 MSTORE DUP1 PUSH0 MSTORE PUSH1 0x40 PUSH0 KECCAK256 PUSH0 SWAP2 POP SWAP2 POP POP DUP1 PUSH0 ADD DUP1 SLOAD PUSH2 0x495 SWAP1 PUSH2 0x1053 JUMP JUMPDEST DUP1 PUSH1 0x1F ADD PUSH1 0x20 DUP1 SWAP2 DIV MUL PUSH1 0x20 ADD PUSH1 0x40 MLOAD SWAP1 DUP2 ADD PUSH1 0x40 MSTORE DUP1 SWAP3 SWAP2 SWAP1 DUP2 DUP2 MSTORE PUSH1 0x20 ADD DUP3 DUP1 SLOAD PUSH2 0x4C1 SWAP1 PUSH2 0x1053 JUMP JUMPDEST DUP1 ISZERO PUSH2 0x50C JUMPI DUP1 PUSH1 0x1F LT PUSH2 0x4E3 JUMPI PUSH2 0x100 DUP1 DUP4 SLOAD DIV MUL DUP4 MSTORE SWAP2 PUSH1 0x20 ADD SWAP2 PUSH2 0x50C JUMP JUMPDEST DUP3 ADD SWAP2 SWAP1 PUSH0 MSTORE PUSH1 0x20 PUSH0 KECCAK256 SWAP1 JUMPDEST DUP2 SLOAD DUP2 MSTORE SWAP1 PUSH1 0x1 ADD SWAP1 PUSH1 0x20 ADD DUP1 DUP4 GT PUSH2 0x4EF JUMPI DUP3 SWAP1 SUB PUSH1 0x1F AND DUP3 ADD SWAP2 JUMPDEST POP POP POP POP POP SWAP1 DUP1 PUSH1 0x1 ADD SLOAD SWAP1 DUP1 PUSH1 0x2 ADD SLOAD SWAP1 DUP1 PUSH1 0x3 ADD PUSH0 SWAP1 SLOAD SWAP1 PUSH2 0x100 EXP SWAP1 DIV PUSH1 0xFF AND SWAP1 DUP1 PUSH1 0x3 ADD PUSH1 0x1 SWAP1 SLOAD SWAP1 PUSH2 0x100 EXP SWAP1 DIV PUSH1 0xFF AND SWAP1 POP DUP6 JUMP JUMPDEST PUSH0 PUSH1 0x1 PUSH0 DUP5 DUP2 MSTORE PUSH1 0x20 ADD SWAP1 DUP2 MSTORE PUSH1 0x20 ADD PUSH0 KECCAK256 SWAP1 POP DUP4 DUP2 PUSH0 ADD SWAP1 DUP2 PUSH2 0x56B SWAP2 SWAP1 PUSH2 0x13CA JUMP JUMPDEST POP DUP2 DUP2 PUSH1 0x1 ADD DUP2 SWAP1 SSTORE POP DUP3 DUP2 PUSH1 0x2 ADD DUP2 SWAP1 SSTORE POP POP POP POP POP JUMP JUMPDEST PUSH1 0x3 DUP2 DUP2 SLOAD DUP2 LT PUSH2 0x593 JUMPI PUSH0 DUP1 REVERT JUMPDEST SWAP1 PUSH0 MSTORE PUSH1 0x20 PUSH0 KECCAK256 ADD PUSH0 SWAP2 POP SWAP1 POP DUP1 SLOAD PUSH2 0x5AB SWAP1 PUSH2 0x1053 JUMP JUMPDEST DUP1 PUSH1 0x1F ADD PUSH1 0x20 DUP1 SWAP2 DIV MUL PUSH1 0x20 ADD PUSH1 0x40 MLOAD SWAP1 DUP2 ADD PUSH1 0x40 MSTORE DUP1 SWAP3 SWAP2 SWAP1 DUP2 DUP2 MSTORE PUSH1 0x20 ADD DUP3 DUP1 SLOAD PUSH2 0x5D7 SWAP1 PUSH2 0x1053 JUMP JUMPDEST DUP1 ISZERO PUSH2 0x622 JUMPI DUP1 PUSH1 0x1F LT PUSH2 0x5F9 JUMPI PUSH2 0x100 DUP1 DUP4 SLOAD DIV MUL DUP4 MSTORE SWAP2 PUSH1 0x20 ADD SWAP2 PUSH2 0x622 JUMP JUMPDEST DUP3 ADD SWAP2 SWAP1 PUSH0 MSTORE PUSH1 0x20 PUSH0 KECCAK256 SWAP1 JUMPDEST DUP2 SLOAD DUP2 MSTORE SWAP1 PUSH1 0x1 ADD SWAP1 PUSH1 0x20 ADD DUP1 DUP4 GT PUSH2 0x605 JUMPI DUP3 SWAP1 SUB PUSH1 0x1F AND DUP3 ADD SWAP2 JUMPDEST POP POP POP POP POP DUP2 JUMP JUMPDEST PUSH1 0x1 DUP1 PUSH0 DUP6 DUP2 MSTORE PUSH1 0x20 ADD SWAP1 DUP2 MSTORE PUSH1 0x20 ADD PUSH0 KECCAK256 PUSH1 0x3 ADD PUSH1 0x1 PUSH2 0x100 EXP DUP2 SLOAD DUP2 PUSH1 0xFF MUL NOT AND SWAP1 DUP4 ISZERO ISZERO MUL OR SWAP1 SSTORE POP PUSH0 PUSH1 0x1 PUSH0 DUP6 DUP2 MSTORE PUSH1 0x20 ADD SWAP1 DUP2 MSTORE PUSH1 0x20 ADD PUSH0 KECCAK256 SWAP1 POP DUP1 PUSH1 0x2 DUP5 PUSH1 0x40 MLOAD PUSH2 0x67B SWAP2 SWAP1 PUSH2 0x10BD JUMP JUMPDEST SWAP1 DUP2 MSTORE PUSH1 0x20 ADD PUSH1 0x40 MLOAD DUP1 SWAP2 SUB SWAP1 KECCAK256 PUSH0 DUP7 DUP2 MSTORE PUSH1 0x20 ADD SWAP1 DUP2 MSTORE PUSH1 0x20 ADD PUSH0 KECCAK256 PUSH0 DUP3 ADD DUP2 PUSH0 ADD SWAP1 DUP2 PUSH2 0x6AA SWAP2 SWAP1 PUSH2 0x1285 JUMP JUMPDEST POP PUSH1 0x1 DUP3 ADD SLOAD DUP2 PUSH1 0x1 ADD SSTORE PUSH1 0x2 DUP3 ADD SLOAD DUP2 PUSH1 0x2 ADD SSTORE PUSH1 0x3 DUP3 ADD PUSH0 SWAP1 SLOAD SWAP1 PUSH2 0x100 EXP SWAP1 DIV PUSH1 0xFF AND DUP2 PUSH1 0x3 ADD PUSH0 PUSH2 0x100 EXP DUP2 SLOAD DUP2 PUSH1 0xFF MUL NOT AND SWAP1 DUP4 ISZERO ISZERO MUL OR SWAP1 SSTORE POP PUSH1 0x3 DUP3 ADD PUSH1 0x1 SWAP1 SLOAD SWAP1 PUSH2 0x100 EXP SWAP1 DIV PUSH1 0xFF AND DUP2 PUSH1 0x3 ADD PUSH1 0x1 PUSH2 0x100 EXP DUP2 SLOAD DUP2 PUSH1 0xFF MUL NOT AND SWAP1 DUP4 ISZERO ISZERO MUL OR SWAP1 SSTORE POP PUSH1 0x4 DUP3 ADD DUP2 PUSH1 0x4 ADD SWAP1 DUP1 SLOAD PUSH2 0x72D SWAP3 SWAP2 SWAP1 PUSH2 0x8C7 JUMP JUMPDEST POP SWAP1 POP POP DUP2 DUP2 PUSH1 0x1 ADD PUSH0 DUP3 DUP3 SLOAD PUSH2 0x744 SWAP2 SWAP1 PUSH2 0x14E0 JUMP JUMPDEST SWAP3 POP POP DUP2 SWAP1 SSTORE POP PUSH0 DUP1 DUP5 PUSH1 0x40 MLOAD PUSH2 0x75B SWAP2 SWAP1 PUSH2 0x10BD JUMP JUMPDEST SWAP1 DUP2 MSTORE PUSH1 0x20 ADD PUSH1 0x40 MLOAD DUP1 SWAP2 SUB SWAP1 KECCAK256 SLOAD SWAP1 POP PUSH1 0x3 PUSH1 0x1 PUSH1 0x3 DUP1 SLOAD SWAP1 POP PUSH2 0x780 SWAP2 SWAP1 PUSH2 0x1397 JUMP JUMPDEST DUP2 SLOAD DUP2 LT PUSH2 0x791 JUMPI PUSH2 0x790 PUSH2 0x1513 JUMP JUMPDEST JUMPDEST SWAP1 PUSH0 MSTORE PUSH1 0x20 PUSH0 KECCAK256 ADD PUSH1 0x3 DUP3 DUP2 SLOAD DUP2 LT PUSH2 0x7AD JUMPI PUSH2 0x7AC PUSH2 0x1513 JUMP JUMPDEST JUMPDEST SWAP1 PUSH0 MSTORE PUSH1 0x20 PUSH0 KECCAK256 ADD SWAP1 DUP2 PUSH2 0x7C1 SWAP2 SWAP1 PUSH2 0x1567 JUMP JUMPDEST POP PUSH1 0x3 DUP1 SLOAD DUP1 PUSH2 0x7D4 JUMPI PUSH2 0x7D3 PUSH2 0x164C JUMP JUMPDEST JUMPDEST PUSH1 0x1 SWAP1 SUB DUP2 DUP2 SWAP1 PUSH0 MSTORE PUSH1 0x20 PUSH0 KECCAK256 ADD PUSH0 PUSH2 0x7ED SWAP2 SWAP1 PUSH2 0x9CE JUMP JUMPDEST SWAP1 SSTORE POP POP POP POP POP JUMP JUMPDEST PUSH1 0x1 PUSH1 0x20 MSTORE DUP1 PUSH0 MSTORE PUSH1 0x40 PUSH0 KECCAK256 PUSH0 SWAP2 POP SWAP1 POP DUP1 PUSH0 ADD DUP1 SLOAD PUSH2 0x815 SWAP1 PUSH2 0x1053 JUMP JUMPDEST DUP1 PUSH1 0x1F ADD PUSH1 0x20 DUP1 SWAP2 DIV MUL PUSH1 0x20 ADD PUSH1 0x40 MLOAD SWAP1 DUP2 ADD PUSH1 0x40 MSTORE DUP1 SWAP3 SWAP2 SWAP1 DUP2 DUP2 MSTORE PUSH1 0x20 ADD DUP3 DUP1 SLOAD PUSH2 0x841 SWAP1 PUSH2 0x1053 JUMP JUMPDEST DUP1 ISZERO PUSH2 0x88C JUMPI DUP1 PUSH1 0x1F LT PUSH2 0x863 JUMPI PUSH2 0x100 DUP1 DUP4 SLOAD DIV MUL DUP4 MSTORE SWAP2 PUSH1 0x20 ADD SWAP2 PUSH2 0x88C JUMP JUMPDEST DUP3 ADD SWAP2 SWAP1 PUSH0 MSTORE PUSH1 0x20 PUSH0 KECCAK256 SWAP1 JUMPDEST DUP2 SLOAD DUP2 MSTORE SWAP1 PUSH1 0x1 ADD SWAP1 PUSH1 0x20 ADD DUP1 DUP4 GT PUSH2 0x86F JUMPI DUP3 SWAP1 SUB PUSH1 0x1F AND DUP3 ADD SWAP2 JUMPDEST POP POP POP POP POP SWAP1 DUP1 PUSH1 0x1 ADD SLOAD SWAP1 DUP1 PUSH1 0x2 ADD SLOAD SWAP1 DUP1 PUSH1 0x3 ADD PUSH0 SWAP1 SLOAD SWAP1 PUSH2 0x100 EXP SWAP1 DIV PUSH1 0xFF AND SWAP1 DUP1 PUSH1 0x3 ADD PUSH1 0x1 SWAP1 SLOAD SWAP1 PUSH2 0x100 EXP SWAP1 DIV PUSH1 0xFF AND SWAP1 POP DUP6 JUMP JUMPDEST DUP3 DUP1 SLOAD DUP3 DUP3 SSTORE SWAP1 PUSH0 MSTORE PUSH1 0x20 PUSH0 KECCAK256 SWAP1 PUSH1 0x6 MUL DUP2 ADD SWAP3 DUP3 ISZERO PUSH2 0x9BD JUMPI PUSH0 MSTORE PUSH1 0x20 PUSH0 KECCAK256 SWAP2 PUSH1 0x6 MUL DUP3 ADD JUMPDEST DUP3 DUP2 GT ISZERO PUSH2 0x9BC JUMPI DUP3 DUP3 PUSH0 DUP3 ADD DUP2 PUSH0 ADD SWAP1 DUP2 PUSH2 0x90A SWAP2 SWAP1 PUSH2 0x1285 JUMP JUMPDEST POP PUSH1 0x1 DUP3 ADD DUP2 PUSH1 0x1 ADD PUSH0 DUP3 ADD DUP2 PUSH0 ADD SWAP1 DUP2 PUSH2 0x925 SWAP2 SWAP1 PUSH2 0x1285 JUMP JUMPDEST POP PUSH1 0x1 DUP3 ADD SLOAD DUP2 PUSH1 0x1 ADD SSTORE PUSH1 0x2 DUP3 ADD SLOAD DUP2 PUSH1 0x2 ADD SSTORE PUSH1 0x3 DUP3 ADD PUSH0 SWAP1 SLOAD SWAP1 PUSH2 0x100 EXP SWAP1 DIV PUSH1 0xFF AND DUP2 PUSH1 0x3 ADD PUSH0 PUSH2 0x100 EXP DUP2 SLOAD DUP2 PUSH1 0xFF MUL NOT AND SWAP1 DUP4 ISZERO ISZERO MUL OR SWAP1 SSTORE POP PUSH1 0x3 DUP3 ADD PUSH1 0x1 SWAP1 SLOAD SWAP1 PUSH2 0x100 EXP SWAP1 DIV PUSH1 0xFF AND DUP2 PUSH1 0x3 ADD PUSH1 0x1 PUSH2 0x100 EXP DUP2 SLOAD DUP2 PUSH1 0xFF MUL NOT AND SWAP1 DUP4 ISZERO ISZERO MUL OR SWAP1 SSTORE POP PUSH1 0x4 DUP3 ADD DUP2 PUSH1 0x4 ADD SWAP1 DUP1 SLOAD PUSH2 0x9A8 SWAP3 SWAP2 SWAP1 PUSH2 0x8C7 JUMP JUMPDEST POP POP POP POP POP SWAP2 PUSH1 0x6 ADD SWAP2 SWAP1 PUSH1 0x6 ADD SWAP1 PUSH2 0x8EE JUMP JUMPDEST JUMPDEST POP SWAP1 POP PUSH2 0x9CA SWAP2 SWAP1 PUSH2 0xA0B JUMP JUMPDEST POP SWAP1 JUMP JUMPDEST POP DUP1 SLOAD PUSH2 0x9DA SWAP1 PUSH2 0x1053 JUMP JUMPDEST PUSH0 DUP3 SSTORE DUP1 PUSH1 0x1F LT PUSH2 0x9EB JUMPI POP PUSH2 0xA08 JUMP JUMPDEST PUSH1 0x1F ADD PUSH1 0x20 SWAP1 DIV SWAP1 PUSH0 MSTORE PUSH1 0x20 PUSH0 KECCAK256 SWAP1 DUP2 ADD SWAP1 PUSH2 0xA07 SWAP2 SWAP1 PUSH2 0xA89 JUMP JUMPDEST JUMPDEST POP JUMP JUMPDEST JUMPDEST DUP1 DUP3 GT ISZERO PUSH2 0xA85 JUMPI PUSH0 DUP1 DUP3 ADD PUSH0 PUSH2 0xA23 SWAP2 SWAP1 PUSH2 0x9CE JUMP JUMPDEST PUSH1 0x1 DUP3 ADD PUSH0 DUP1 DUP3 ADD PUSH0 PUSH2 0xA36 SWAP2 SWAP1 PUSH2 0x9CE JUMP JUMPDEST PUSH1 0x1 DUP3 ADD PUSH0 SWAP1 SSTORE PUSH1 0x2 DUP3 ADD PUSH0 SWAP1 SSTORE PUSH1 0x3 DUP3 ADD PUSH0 PUSH2 0x100 EXP DUP2 SLOAD SWAP1 PUSH1 0xFF MUL NOT AND SWAP1 SSTORE PUSH1 0x3 DUP3 ADD PUSH1 0x1 PUSH2 0x100 EXP DUP2 SLOAD SWAP1 PUSH1 0xFF MUL NOT AND SWAP1 SSTORE PUSH1 0x4 DUP3 ADD PUSH0 PUSH2 0xA7A SWAP2 SWAP1 PUSH2 0xAA4 JUMP JUMPDEST POP POP POP PUSH1 0x6 ADD PUSH2 0xA0C JUMP JUMPDEST POP SWAP1 JUMP JUMPDEST JUMPDEST DUP1 DUP3 GT ISZERO PUSH2 0xAA0 JUMPI PUSH0 DUP2 PUSH0 SWAP1 SSTORE POP PUSH1 0x1 ADD PUSH2 0xA8A JUMP JUMPDEST POP SWAP1 JUMP JUMPDEST POP DUP1 SLOAD PUSH0 DUP3 SSTORE PUSH1 0x6 MUL SWAP1 PUSH0 MSTORE PUSH1 0x20 PUSH0 KECCAK256 SWAP1 DUP2 ADD SWAP1 PUSH2 0xAC2 SWAP2 SWAP1 PUSH2 0xA0B JUMP JUMPDEST POP JUMP JUMPDEST PUSH0 DUP2 MLOAD SWAP1 POP SWAP2 SWAP1 POP JUMP JUMPDEST PUSH0 DUP3 DUP3 MSTORE PUSH1 0x20 DUP3 ADD SWAP1 POP SWAP3 SWAP2 POP POP JUMP JUMPDEST PUSH0 DUP2 SWAP1 POP PUSH1 0x20 DUP3 ADD SWAP1 POP SWAP2 SWAP1 POP JUMP JUMPDEST PUSH0 DUP2 MLOAD SWAP1 POP SWAP2 SWAP1 POP JUMP JUMPDEST PUSH0 DUP3 DUP3 MSTORE PUSH1 0x20 DUP3 ADD SWAP1 POP SWAP3 SWAP2 POP POP JUMP JUMPDEST DUP3 DUP2 DUP4 MCOPY PUSH0 DUP4 DUP4 ADD MSTORE POP POP POP JUMP JUMPDEST PUSH0 PUSH1 0x1F NOT PUSH1 0x1F DUP4 ADD AND SWAP1 POP SWAP2 SWAP1 POP JUMP JUMPDEST PUSH0 PUSH2 0xB30 DUP3 PUSH2 0xAEE JUMP JUMPDEST PUSH2 0xB3A DUP2 DUP6 PUSH2 0xAF8 JUMP JUMPDEST SWAP4 POP PUSH2 0xB4A DUP2 DUP6 PUSH1 0x20 DUP7 ADD PUSH2 0xB08 JUMP JUMPDEST PUSH2 0xB53 DUP2 PUSH2 0xB16 JUMP JUMPDEST DUP5 ADD SWAP2 POP POP SWAP3 SWAP2 POP POP JUMP JUMPDEST PUSH0 PUSH2 0xB69 DUP4 DUP4 PUSH2 0xB26 JUMP JUMPDEST SWAP1 POP SWAP3 SWAP2 POP POP JUMP JUMPDEST PUSH0 PUSH1 0x20 DUP3 ADD SWAP1 POP SWAP2 SWAP1 POP JUMP JUMPDEST PUSH0 PUSH2 0xB87 DUP3 PUSH2 0xAC5 JUMP JUMPDEST PUSH2 0xB91 DUP2 DUP6 PUSH2 0xACF JUMP JUMPDEST SWAP4 POP DUP4 PUSH1 0x20 DUP3 MUL DUP6 ADD PUSH2 0xBA3 DUP6 PUSH2 0xADF JUMP JUMPDEST DUP1 PUSH0 JUMPDEST DUP6 DUP2 LT ISZERO PUSH2 0xBDE JUMPI DUP5 DUP5 SUB DUP10 MSTORE DUP2 MLOAD PUSH2 0xBBF DUP6 DUP3 PUSH2 0xB5E JUMP JUMPDEST SWAP5 POP PUSH2 0xBCA DUP4 PUSH2 0xB71 JUMP JUMPDEST SWAP3 POP PUSH1 0x20 DUP11 ADD SWAP10 POP POP PUSH1 0x1 DUP2 ADD SWAP1 POP PUSH2 0xBA6 JUMP JUMPDEST POP DUP3 SWAP8 POP DUP8 SWAP6 POP POP POP POP POP POP SWAP3 SWAP2 POP POP JUMP JUMPDEST PUSH0 PUSH1 0x20 DUP3 ADD SWAP1 POP DUP2 DUP2 SUB PUSH0 DUP4 ADD MSTORE PUSH2 0xC08 DUP2 DUP5 PUSH2 0xB7D JUMP JUMPDEST SWAP1 POP SWAP3 SWAP2 POP POP JUMP JUMPDEST PUSH0 PUSH1 0x40 MLOAD SWAP1 POP SWAP1 JUMP JUMPDEST PUSH0 DUP1 REVERT JUMPDEST PUSH0 DUP1 REVERT JUMPDEST PUSH0 DUP2 SWAP1 POP SWAP2 SWAP1 POP JUMP JUMPDEST PUSH2 0xC33 DUP2 PUSH2 0xC21 JUMP JUMPDEST DUP2 EQ PUSH2 0xC3D JUMPI PUSH0 DUP1 REVERT JUMPDEST POP JUMP JUMPDEST PUSH0 DUP2 CALLDATALOAD SWAP1 POP PUSH2 0xC4E DUP2 PUSH2 0xC2A JUMP JUMPDEST SWAP3 SWAP2 POP POP JUMP JUMPDEST PUSH0 DUP1 REVERT JUMPDEST PUSH0 DUP1 REVERT JUMPDEST PUSH32 0x4E487B7100000000000000000000000000000000000000000000000000000000 PUSH0 MSTORE PUSH1 0x41 PUSH1 0x4 MSTORE PUSH1 0x24 PUSH0 REVERT JUMPDEST PUSH2 0xC92 DUP3 PUSH2 0xB16 JUMP JUMPDEST DUP2 ADD DUP2 DUP2 LT PUSH8 0xFFFFFFFFFFFFFFFF DUP3 GT OR ISZERO PUSH2 0xCB1 JUMPI PUSH2 0xCB0 PUSH2 0xC5C JUMP JUMPDEST JUMPDEST DUP1 PUSH1 0x40 MSTORE POP POP POP JUMP JUMPDEST PUSH0 PUSH2 0xCC3 PUSH2 0xC10 JUMP JUMPDEST SWAP1 POP PUSH2 0xCCF DUP3 DUP3 PUSH2 0xC89 JUMP JUMPDEST SWAP2 SWAP1 POP JUMP JUMPDEST PUSH0 PUSH8 0xFFFFFFFFFFFFFFFF DUP3 GT ISZERO PUSH2 0xCEE JUMPI PUSH2 0xCED PUSH2 0xC5C JUMP JUMPDEST JUMPDEST PUSH2 0xCF7 DUP3 PUSH2 0xB16 JUMP JUMPDEST SWAP1 POP PUSH1 0x20 DUP2 ADD SWAP1 POP SWAP2 SWAP1 POP JUMP JUMPDEST DUP3 DUP2 DUP4 CALLDATACOPY PUSH0 DUP4 DUP4 ADD MSTORE POP POP POP JUMP JUMPDEST PUSH0 PUSH2 0xD24 PUSH2 0xD1F DUP5 PUSH2 0xCD4 JUMP JUMPDEST PUSH2 0xCBA JUMP JUMPDEST SWAP1 POP DUP3 DUP2 MSTORE PUSH1 0x20 DUP2 ADD DUP5 DUP5 DUP5 ADD GT ISZERO PUSH2 0xD40 JUMPI PUSH2 0xD3F PUSH2 0xC58 JUMP JUMPDEST JUMPDEST PUSH2 0xD4B DUP5 DUP3 DUP6 PUSH2 0xD04 JUMP JUMPDEST POP SWAP4 SWAP3 POP POP POP JUMP JUMPDEST PUSH0 DUP3 PUSH1 0x1F DUP4 ADD SLT PUSH2 0xD67 JUMPI PUSH2 0xD66 PUSH2 0xC54 JUMP JUMPDEST JUMPDEST DUP2 CALLDATALOAD PUSH2 0xD77 DUP5 DUP3 PUSH1 0x20 DUP7 ADD PUSH2 0xD12 JUMP JUMPDEST SWAP2 POP POP SWAP3 SWAP2 POP POP JUMP JUMPDEST PUSH0 DUP1 PUSH0 PUSH1 0x60 DUP5 DUP7 SUB SLT ISZERO PUSH2 0xD97 JUMPI PUSH2 0xD96 PUSH2 0xC19 JUMP JUMPDEST JUMPDEST PUSH0 PUSH2 0xDA4 DUP7 DUP3 DUP8 ADD PUSH2 0xC40 JUMP JUMPDEST SWAP4 POP POP PUSH1 0x20 DUP5 ADD CALLDATALOAD PUSH8 0xFFFFFFFFFFFFFFFF DUP2 GT ISZERO PUSH2 0xDC5 JUMPI PUSH2 0xDC4 PUSH2 0xC1D JUMP JUMPDEST JUMPDEST PUSH2 0xDD1 DUP7 DUP3 DUP8 ADD PUSH2 0xD53 JUMP JUMPDEST SWAP3 POP POP PUSH1 0x40 PUSH2 0xDE2 DUP7 DUP3 DUP8 ADD PUSH2 0xC40 JUMP JUMPDEST SWAP2 POP POP SWAP3 POP SWAP3 POP SWAP3 JUMP JUMPDEST PUSH0 PUSH1 0x20 DUP3 DUP5 SUB SLT ISZERO PUSH2 0xE01 JUMPI PUSH2 0xE00 PUSH2 0xC19 JUMP JUMPDEST JUMPDEST PUSH0 DUP3 ADD CALLDATALOAD PUSH8 0xFFFFFFFFFFFFFFFF DUP2 GT ISZERO PUSH2 0xE1E JUMPI PUSH2 0xE1D PUSH2 0xC1D JUMP JUMPDEST JUMPDEST PUSH2 0xE2A DUP5 DUP3 DUP6 ADD PUSH2 0xD53 JUMP JUMPDEST SWAP2 POP POP SWAP3 SWAP2 POP POP JUMP JUMPDEST PUSH2 0xE3C DUP2 PUSH2 0xC21 JUMP JUMPDEST DUP3 MSTORE POP POP JUMP JUMPDEST PUSH0 PUSH1 0x20 DUP3 ADD SWAP1 POP PUSH2 0xE55 PUSH0 DUP4 ADD DUP5 PUSH2 0xE33 JUMP JUMPDEST SWAP3 SWAP2 POP POP JUMP JUMPDEST PUSH0 DUP1 PUSH1 0x40 DUP4 DUP6 SUB SLT ISZERO PUSH2 0xE71 JUMPI PUSH2 0xE70 PUSH2 0xC19 JUMP JUMPDEST JUMPDEST PUSH0 DUP4 ADD CALLDATALOAD PUSH8 0xFFFFFFFFFFFFFFFF DUP2 GT ISZERO PUSH2 0xE8E JUMPI PUSH2 0xE8D PUSH2 0xC1D JUMP JUMPDEST JUMPDEST PUSH2 0xE9A DUP6 DUP3 DUP7 ADD PUSH2 0xD53 JUMP JUMPDEST SWAP3 POP POP PUSH1 0x20 PUSH2 0xEAB DUP6 DUP3 DUP7 ADD PUSH2 0xC40 JUMP JUMPDEST SWAP2 POP POP SWAP3 POP SWAP3 SWAP1 POP JUMP JUMPDEST PUSH0 DUP3 DUP3 MSTORE PUSH1 0x20 DUP3 ADD SWAP1 POP SWAP3 SWAP2 POP POP JUMP JUMPDEST PUSH0 PUSH2 0xECF DUP3 PUSH2 0xAEE JUMP JUMPDEST PUSH2 0xED9 DUP2 DUP6 PUSH2 0xEB5 JUMP JUMPDEST SWAP4 POP PUSH2 0xEE9 DUP2 DUP6 PUSH1 0x20 DUP7 ADD PUSH2 0xB08 JUMP JUMPDEST PUSH2 0xEF2 DUP2 PUSH2 0xB16 JUMP JUMPDEST DUP5 ADD SWAP2 POP POP SWAP3 SWAP2 POP POP JUMP JUMPDEST PUSH0 DUP2 ISZERO ISZERO SWAP1 POP SWAP2 SWAP1 POP JUMP JUMPDEST PUSH2 0xF11 DUP2 PUSH2 0xEFD JUMP JUMPDEST DUP3 MSTORE POP POP JUMP JUMPDEST PUSH0 PUSH1 0xA0 DUP3 ADD SWAP1 POP DUP2 DUP2 SUB PUSH0 DUP4 ADD MSTORE PUSH2 0xF2F DUP2 DUP9 PUSH2 0xEC5 JUMP JUMPDEST SWAP1 POP PUSH2 0xF3E PUSH1 0x20 DUP4 ADD DUP8 PUSH2 0xE33 JUMP JUMPDEST PUSH2 0xF4B PUSH1 0x40 DUP4 ADD DUP7 PUSH2 0xE33 JUMP JUMPDEST PUSH2 0xF58 PUSH1 0x60 DUP4 ADD DUP6 PUSH2 0xF08 JUMP JUMPDEST PUSH2 0xF65 PUSH1 0x80 DUP4 ADD DUP5 PUSH2 0xF08 JUMP JUMPDEST SWAP7 SWAP6 POP POP POP POP POP POP JUMP JUMPDEST PUSH0 DUP1 PUSH0 PUSH1 0x60 DUP5 DUP7 SUB SLT ISZERO PUSH2 0xF86 JUMPI PUSH2 0xF85 PUSH2 0xC19 JUMP JUMPDEST JUMPDEST PUSH0 DUP5 ADD CALLDATALOAD PUSH8 0xFFFFFFFFFFFFFFFF DUP2 GT ISZERO PUSH2 0xFA3 JUMPI PUSH2 0xFA2 PUSH2 0xC1D JUMP JUMPDEST JUMPDEST PUSH2 0xFAF DUP7 DUP3 DUP8 ADD PUSH2 0xD53 JUMP JUMPDEST SWAP4 POP POP PUSH1 0x20 PUSH2 0xFC0 DUP7 DUP3 DUP8 ADD PUSH2 0xC40 JUMP JUMPDEST SWAP3 POP POP PUSH1 0x40 PUSH2 0xFD1 DUP7 DUP3 DUP8 ADD PUSH2 0xC40 JUMP JUMPDEST SWAP2 POP POP SWAP3 POP SWAP3 POP SWAP3 JUMP JUMPDEST PUSH0 PUSH1 0x20 DUP3 DUP5 SUB SLT ISZERO PUSH2 0xFF0 JUMPI PUSH2 0xFEF PUSH2 0xC19 JUMP JUMPDEST JUMPDEST PUSH0 PUSH2 0xFFD DUP5 DUP3 DUP6 ADD PUSH2 0xC40 JUMP JUMPDEST SWAP2 POP POP SWAP3 SWAP2 POP POP JUMP JUMPDEST PUSH0 PUSH1 0x20 DUP3 ADD SWAP1 POP DUP2 DUP2 SUB PUSH0 DUP4 ADD MSTORE PUSH2 0x101E DUP2 DUP5 PUSH2 0xEC5 JUMP JUMPDEST SWAP1 POP SWAP3 SWAP2 POP POP JUMP JUMPDEST PUSH32 0x4E487B7100000000000000000000000000000000000000000000000000000000 PUSH0 MSTORE PUSH1 0x22 PUSH1 0x4 MSTORE PUSH1 0x24 PUSH0 REVERT JUMPDEST PUSH0 PUSH1 0x2 DUP3 DIV SWAP1 POP PUSH1 0x1 DUP3 AND DUP1 PUSH2 0x106A JUMPI PUSH1 0x7F DUP3 AND SWAP2 POP JUMPDEST PUSH1 0x20 DUP3 LT DUP2 SUB PUSH2 0x107D JUMPI PUSH2 0x107C PUSH2 0x1026 JUMP JUMPDEST JUMPDEST POP SWAP2 SWAP1 POP JUMP JUMPDEST PUSH0 DUP2 SWAP1 POP SWAP3 SWAP2 POP POP JUMP JUMPDEST PUSH0 PUSH2 0x1097 DUP3 PUSH2 0xAEE JUMP JUMPDEST PUSH2 0x10A1 DUP2 DUP6 PUSH2 0x1083 JUMP JUMPDEST SWAP4 POP PUSH2 0x10B1 DUP2 DUP6 PUSH1 0x20 DUP7 ADD PUSH2 0xB08 JUMP JUMPDEST DUP1 DUP5 ADD SWAP2 POP POP SWAP3 SWAP2 POP POP JUMP JUMPDEST PUSH0 PUSH2 0x10C8 DUP3 DUP5 PUSH2 0x108D JUMP JUMPDEST SWAP2 POP DUP2 SWAP1 POP SWAP3 SWAP2 POP POP JUMP JUMPDEST PUSH0 DUP2 SLOAD SWAP1 POP PUSH2 0x10E1 DUP2 PUSH2 0x1053 JUMP JUMPDEST SWAP1 POP SWAP2 SWAP1 POP JUMP JUMPDEST PUSH0 DUP2 SWAP1 POP DUP2 PUSH0 MSTORE PUSH1 0x20 PUSH0 KECCAK256 SWAP1 POP SWAP2 SWAP1 POP JUMP JUMPDEST PUSH0 PUSH1 0x20 PUSH1 0x1F DUP4 ADD DIV SWAP1 POP SWAP2 SWAP1 POP JUMP JUMPDEST PUSH0 DUP3 DUP3 SHL SWAP1 POP SWAP3 SWAP2 POP POP JUMP JUMPDEST PUSH0 PUSH1 0x8 DUP4 MUL PUSH2 0x1144 PUSH32 0xFFFFFFFFFFFFFFFFFFFFFFFFFFFFFFFFFFFFFFFFFFFFFFFFFFFFFFFFFFFFFFFF DUP3 PUSH2 0x1109 JUMP JUMPDEST PUSH2 0x114E DUP7 DUP4 PUSH2 0x1109 JUMP JUMPDEST SWAP6 POP DUP1 NOT DUP5 AND SWAP4 POP DUP1 DUP7 AND DUP5 OR SWAP3 POP POP POP SWAP4 SWAP3 POP POP POP JUMP JUMPDEST PUSH0 DUP2 SWAP1 POP SWAP2 SWAP1 POP JUMP JUMPDEST PUSH0 PUSH2 0x1189 PUSH2 0x1184 PUSH2 0x117F DUP5 PUSH2 0xC21 JUMP JUMPDEST PUSH2 0x1166 JUMP JUMPDEST PUSH2 0xC21 JUMP JUMPDEST SWAP1 POP SWAP2 SWAP1 POP JUMP JUMPDEST PUSH0 DUP2 SWAP1 POP SWAP2 SWAP1 POP JUMP JUMPDEST PUSH2 0x11A2 DUP4 PUSH2 0x116F JUMP JUMPDEST PUSH2 0x11B6 PUSH2 0x11AE DUP3 PUSH2 0x1190 JUMP JUMPDEST DUP5 DUP5 SLOAD PUSH2 0x1115 JUMP JUMPDEST DUP3 SSTORE POP POP POP POP JUMP JUMPDEST PUSH0 SWAP1 JUMP JUMPDEST PUSH2 0x11CA PUSH2 0x11BE JUMP JUMPDEST PUSH2 0x11D5 DUP2 DUP5 DUP5 PUSH2 0x1199 JUMP JUMPDEST POP POP POP JUMP JUMPDEST JUMPDEST DUP2 DUP2 LT ISZERO PUSH2 0x11F8 JUMPI PUSH2 0x11ED PUSH0 DUP3 PUSH2 0x11C2 JUMP JUMPDEST PUSH1 0x1 DUP2 ADD SWAP1 POP PUSH2 0x11DB JUMP JUMPDEST POP POP JUMP JUMPDEST PUSH1 0x1F DUP3 GT ISZERO PUSH2 0x123D JUMPI PUSH2 0x120E DUP2 PUSH2 0x10E8 JUMP JUMPDEST PUSH2 0x1217 DUP5 PUSH2 0x10FA JUMP JUMPDEST DUP2 ADD PUSH1 0x20 DUP6 LT ISZERO PUSH2 0x1226 JUMPI DUP2 SWAP1 POP JUMPDEST PUSH2 0x123A PUSH2 0x1232 DUP6 PUSH2 0x10FA JUMP JUMPDEST DUP4 ADD DUP3 PUSH2 0x11DA JUMP JUMPDEST POP POP JUMPDEST POP POP POP JUMP JUMPDEST PUSH0 DUP3 DUP3 SHR SWAP1 POP SWAP3 SWAP2 POP POP JUMP JUMPDEST PUSH0 PUSH2 0x125D PUSH0 NOT DUP5 PUSH1 0x8 MUL PUSH2 0x1242 JUMP JUMPDEST NOT DUP1 DUP4 AND SWAP2 POP POP SWAP3 SWAP2 POP POP JUMP JUMPDEST PUSH0 PUSH2 0x1275 DUP4 DUP4 PUSH2 0x124E JUMP JUMPDEST SWAP2 POP DUP3 PUSH1 0x2 MUL DUP3 OR SWAP1 POP SWAP3 SWAP2 POP POP JUMP JUMPDEST DUP2 DUP2 SUB PUSH2 0x1293 JUMPI POP POP PUSH2 0x1368 JUMP JUMPDEST PUSH2 0x129C DUP3 PUSH2 0x10D3 JUMP JUMPDEST PUSH8 0xFFFFFFFFFFFFFFFF DUP2 GT ISZERO PUSH2 0x12B5 JUMPI PUSH2 0x12B4 PUSH2 0xC5C JUMP JUMPDEST JUMPDEST PUSH2 0x12BF DUP3 SLOAD PUSH2 0x1053 JUMP JUMPDEST PUSH2 0x12CA DUP3 DUP3 DUP6 PUSH2 0x11FC JUMP JUMPDEST PUSH0 PUSH1 0x1F DUP4 GT PUSH1 0x1 DUP2 EQ PUSH2 0x12F7 JUMPI PUSH0 DUP5 ISZERO PUSH2 0x12E5 JUMPI DUP3 DUP8 ADD SLOAD SWAP1 POP JUMPDEST PUSH2 0x12EF DUP6 DUP3 PUSH2 0x126A JUMP JUMPDEST DUP7 SSTORE POP PUSH2 0x1361 JUMP JUMPDEST PUSH1 0x1F NOT DUP5 AND PUSH2 0x1305 DUP8 PUSH2 0x10E8 JUMP JUMPDEST SWAP7 POP PUSH2 0x1310 DUP7 PUSH2 0x10E8 JUMP JUMPDEST PUSH0 JUMPDEST DUP3 DUP2 LT ISZERO PUSH2 0x1337 JUMPI DUP5 DUP10 ADD SLOAD DUP3 SSTORE PUSH1 0x1 DUP3 ADD SWAP2 POP PUSH1 0x1 DUP6 ADD SWAP5 POP PUSH1 0x20 DUP2 ADD SWAP1 POP PUSH2 0x1312 JUMP JUMPDEST DUP7 DUP4 LT ISZERO PUSH2 0x1354 JUMPI DUP5 DUP10 ADD SLOAD PUSH2 0x1350 PUSH1 0x1F DUP10 AND DUP3 PUSH2 0x124E JUMP JUMPDEST DUP4 SSTORE POP JUMPDEST PUSH1 0x1 PUSH1 0x2 DUP9 MUL ADD DUP9 SSTORE POP POP POP JUMPDEST POP POP POP POP POP POP JUMPDEST JUMP JUMPDEST PUSH32 0x4E487B7100000000000000000000000000000000000000000000000000000000 PUSH0 MSTORE PUSH1 0x11 PUSH1 0x4 MSTORE PUSH1 0x24 PUSH0 REVERT JUMPDEST PUSH0 PUSH2 0x13A1 DUP3 PUSH2 0xC21 JUMP JUMPDEST SWAP2 POP PUSH2 0x13AC DUP4 PUSH2 0xC21 JUMP JUMPDEST SWAP3 POP DUP3 DUP3 SUB SWAP1 POP DUP2 DUP2 GT ISZERO PUSH2 0x13C4 JUMPI PUSH2 0x13C3 PUSH2 0x136A JUMP JUMPDEST JUMPDEST SWAP3 SWAP2 POP POP JUMP JUMPDEST PUSH2 0x13D3 DUP3 PUSH2 0xAEE JUMP JUMPDEST PUSH8 0xFFFFFFFFFFFFFFFF DUP2 GT ISZERO PUSH2 0x13EC JUMPI PUSH2 0x13EB PUSH2 0xC5C JUMP JUMPDEST JUMPDEST PUSH2 0x13F6 DUP3 SLOAD PUSH2 0x1053 JUMP JUMPDEST PUSH2 0x1401 DUP3 DUP3 DUP6 PUSH2 0x11FC JUMP JUMPDEST PUSH0 PUSH1 0x20 SWAP1 POP PUSH1 0x1F DUP4 GT PUSH1 0x1 DUP2 EQ PUSH2 0x1432 JUMPI PUSH0 DUP5 ISZERO PUSH2 0x1420 JUMPI DUP3 DUP8 ADD MLOAD SWAP1 POP JUMPDEST PUSH2 0x142A DUP6 DUP3 PUSH2 0x126A JUMP JUMPDEST DUP7 SSTORE POP PUSH2 0x1491 JUMP JUMPDEST PUSH1 0x1F NOT DUP5 AND PUSH2 0x1440 DUP7 PUSH2 0x10E8 JUMP JUMPDEST PUSH0 JUMPDEST DUP3 DUP2 LT ISZERO PUSH2 0x1467 JUMPI DUP5 DUP10 ADD MLOAD DUP3 SSTORE PUSH1 0x1 DUP3 ADD SWAP2 POP PUSH1 0x20 DUP6 ADD SWAP5 POP PUSH1 0x20 DUP2 ADD SWAP1 POP PUSH2 0x1442 JUMP JUMPDEST DUP7 DUP4 LT ISZERO PUSH2 0x1484 JUMPI DUP5 DUP10 ADD MLOAD PUSH2 0x1480 PUSH1 0x1F DUP10 AND DUP3 PUSH2 0x124E JUMP JUMPDEST DUP4 SSTORE POP JUMPDEST PUSH1 0x1 PUSH1 0x2 DUP9 MUL ADD DUP9 SSTORE POP POP POP JUMPDEST POP POP POP POP POP POP JUMP JUMPDEST PUSH0 PUSH2 0x14A3 DUP3 PUSH2 0xC21 JUMP JUMPDEST SWAP2 POP PUSH32 0xFFFFFFFFFFFFFFFFFFFFFFFFFFFFFFFFFFFFFFFFFFFFFFFFFFFFFFFFFFFFFFFF DUP3 SUB PUSH2 0x14D5 JUMPI PUSH2 0x14D4 PUSH2 0x136A JUMP JUMPDEST JUMPDEST PUSH1 0x1 DUP3 ADD SWAP1 POP SWAP2 SWAP1 POP JUMP JUMPDEST PUSH0 PUSH2 0x14EA DUP3 PUSH2 0xC21 JUMP JUMPDEST SWAP2 POP PUSH2 0x14F5 DUP4 PUSH2 0xC21 JUMP JUMPDEST SWAP3 POP DUP3 DUP3 ADD SWAP1 POP DUP1 DUP3 GT ISZERO PUSH2 0x150D JUMPI PUSH2 0x150C PUSH2 0x136A JUMP JUMPDEST JUMPDEST SWAP3 SWAP2 POP POP JUMP JUMPDEST PUSH32 0x4E487B7100000000000000000000000000000000000000000000000000000000 PUSH0 MSTORE PUSH1 0x32 PUSH1 0x4 MSTORE PUSH1 0x24 PUSH0 REVERT JUMPDEST PUSH0 DUP2 SLOAD SWAP1 POP PUSH2 0x154E DUP2 PUSH2 0x1053 JUMP JUMPDEST SWAP1 POP SWAP2 SWAP1 POP JUMP JUMPDEST PUSH0 DUP2 SWAP1 POP DUP2 PUSH0 MSTORE PUSH1 0x20 PUSH0 KECCAK256 SWAP1 POP SWAP2 SWAP1 POP JUMP JUMPDEST DUP2 DUP2 SUB PUSH2 0x1575 JUMPI POP POP PUSH2 0x164A JUMP JUMPDEST PUSH2 0x157E DUP3 PUSH2 0x1540 JUMP JUMPDEST PUSH8 0xFFFFFFFFFFFFFFFF DUP2 GT ISZERO PUSH2 0x1597 JUMPI PUSH2 0x1596 PUSH2 0xC5C JUMP JUMPDEST JUMPDEST PUSH2 0x15A1 DUP3 SLOAD PUSH2 0x1053 JUMP JUMPDEST PUSH2 0x15AC DUP3 DUP3 DUP6 PUSH2 0x11FC JUMP JUMPDEST PUSH0 PUSH1 0x1F DUP4 GT PUSH1 0x1 DUP2 EQ PUSH2 0x15D9 JUMPI PUSH0 DUP5 ISZERO PUSH2 0x15C7 JUMPI DUP3 DUP8 ADD SLOAD SWAP1 POP JUMPDEST PUSH2 0x15D1 DUP6 DUP3 PUSH2 0x126A JUMP JUMPDEST DUP7 SSTORE POP PUSH2 0x1643 JUMP JUMPDEST PUSH1 0x1F NOT DUP5 AND PUSH2 0x15E7 DUP8 PUSH2 0x1555 JUMP JUMPDEST SWAP7 POP PUSH2 0x15F2 DUP7 PUSH2 0x10E8 JUMP JUMPDEST PUSH0 JUMPDEST DUP3 DUP2 LT ISZERO PUSH2 0x1619 JUMPI DUP5 DUP10 ADD SLOAD DUP3 SSTORE PUSH1 0x1 DUP3 ADD SWAP2 POP PUSH1 0x1 DUP6 ADD SWAP5 POP PUSH1 0x20 DUP2 ADD SWAP1 POP PUSH2 0x15F4 JUMP JUMPDEST DUP7 DUP4 LT ISZERO PUSH2 0x1636 JUMPI DUP5 DUP10 ADD SLOAD PUSH2 0x1632 PUSH1 0x1F DUP10 AND DUP3 PUSH2 0x124E JUMP JUMPDEST DUP4 SSTORE POP JUMPDEST PUSH1 0x1 PUSH1 0x2 DUP9 MUL ADD DUP9 SSTORE POP POP POP JUMPDEST POP POP POP POP POP POP JUMPDEST JUMP JUMPDEST PUSH32 0x4E487B7100000000000000000000000000000000000000000000000000000000 PUSH0 MSTORE PUSH1 0x31 PUSH1 0x4 MSTORE PUSH1 0x24 PUSH0 REVERT INVALID LOG2 PUSH5 0x6970667358 0x22 SLT KECCAK256 0xBA 0xEE NUMBER 0xAC SIGNEXTEND PUSH28 0x2432E0958182E9E55F4787728968F99B8144FB0BD92B99E4AB3D6473 PUSH16 0x6C634300081A00330000000000000000 "
				},
				"gasEstimates": {
					"creation": {
						"codeDepositCost": "1161400",
						"executionCost": "1205",
						"totalCost": "1162605"
					},
					"external": {
						"NametoBorrowersIndex(string)": "infinite",
						"addBook(string,uint256,uint256)": "infinite",
						"booksId(uint256)": "infinite",
						"borrowedBook(string,uint256)": "infinite",
						"borrowingBook(uint256,string,uint256)": "infinite",
						"hasBorrowed(uint256)": "infinite",
						"returnedBook(uint256,string,uint256)": "infinite",
						"vieBorrowers()": "infinite"
					}
				},
				"methodIdentifiers": {
					"NametoBorrowersIndex(string)": "52ef8109",
					"addBook(string,uint256,uint256)": "80d76e82",
					"booksId(uint256)": "d7fdc27b",
					"borrowedBook(string,uint256)": "632b39a9",
					"borrowingBook(uint256,string,uint256)": "27e22949",
					"hasBorrowed(uint256)": "b3525490",
					"returnedBook(uint256,string,uint256)": "d2c42260",
					"vieBorrowers()": "168b2c10"
				}
			},
			"storageLayout": {
				"storage": [
					{
						"astId": 32,
						"contract": "Library.sol:Library",
						"label": "NametoBorrowersIndex",
						"offset": 0,
						"slot": "0",
						"type": "t_mapping(t_string_memory_ptr,t_uint256)"
					},
					{
						"astId": 37,
						"contract": "Library.sol:Library",
						"label": "booksId",
						"offset": 0,
						"slot": "1",
						"type": "t_mapping(t_uint256,t_struct(Book)16_storage)"
					},
					{
						"astId": 44,
						"contract": "Library.sol:Library",
						"label": "borrowedBook",
						"offset": 0,
						"slot": "2",
						"type": "t_mapping(t_string_memory_ptr,t_mapping(t_uint256,t_struct(Book)16_storage))"
					},
					{
						"astId": 47,
						"contract": "Library.sol:Library",
						"label": "hasBorrowed",
						"offset": 0,
						"slot": "3",
						"type": "t_array(t_string_storage)dyn_storage"
					},
					{
						"astId": 49,
						"contract": "Library.sol:Library",
						"label": "totalBorrowers",
						"offset": 0,
						"slot": "4",
						"type": "t_uint256"
					}
				],
				"types": {
					"t_array(t_string_storage)dyn_storage": {
						"base": "t_string_storage",
						"encoding": "dynamic_array",
						"label": "string[]",
						"numberOfBytes": "32"
					},
					"t_array(t_struct(Borrower)22_storage)dyn_storage": {
						"base": "t_struct(Borrower)22_storage",
						"encoding": "dynamic_array",
						"label": "struct Library.Borrower[]",
						"numberOfBytes": "32"
					},
					"t_bool": {
						"encoding": "inplace",
						"label": "bool",
						"numberOfBytes": "1"
					},
					"t_mapping(t_string_memory_ptr,t_mapping(t_uint256,t_struct(Book)16_storage))": {
						"encoding": "mapping",
						"key": "t_string_memory_ptr",
						"label": "mapping(string => mapping(uint256 => struct Library.Book))",
						"numberOfBytes": "32",
						"value": "t_mapping(t_uint256,t_struct(Book)16_storage)"
					},
					"t_mapping(t_string_memory_ptr,t_uint256)": {
						"encoding": "mapping",
						"key": "t_string_memory_ptr",
						"label": "mapping(string => uint256)",
						"numberOfBytes": "32",
						"value": "t_uint256"
					},
					"t_mapping(t_uint256,t_struct(Book)16_storage)": {
						"encoding": "mapping",
						"key": "t_uint256",
						"label": "mapping(uint256 => struct Library.Book)",
						"numberOfBytes": "32",
						"value": "t_struct(Book)16_storage"
					},
					"t_string_memory_ptr": {
						"encoding": "bytes",
						"label": "string",
						"numberOfBytes": "32"
					},
					"t_string_storage": {
						"encoding": "bytes",
						"label": "string",
						"numberOfBytes": "32"
					},
					"t_struct(Book)16_storage": {
						"encoding": "inplace",
						"label": "struct Library.Book",
						"members": [
							{
								"astId": 3,
								"contract": "Library.sol:Library",
								"label": "title",
								"offset": 0,
								"slot": "0",
								"type": "t_string_storage"
							},
							{
								"astId": 5,
								"contract": "Library.sol:Library",
								"label": "copiesRemaining",
								"offset": 0,
								"slot": "1",
								"type": "t_uint256"
							},
							{
								"astId": 7,
								"contract": "Library.sol:Library",
								"label": "bookIndex",
								"offset": 0,
								"slot": "2",
								"type": "t_uint256"
							},
							{
								"astId": 9,
								"contract": "Library.sol:Library",
								"label": "isBorrowed",
								"offset": 0,
								"slot": "3",
								"type": "t_bool"
							},
							{
								"astId": 11,
								"contract": "Library.sol:Library",
								"label": "isReturned",
								"offset": 1,
								"slot": "3",
								"type": "t_bool"
							},
							{
								"astId": 15,
								"contract": "Library.sol:Library",
								"label": "hasBorrowed",
								"offset": 0,
								"slot": "4",
								"type": "t_array(t_struct(Borrower)22_storage)dyn_storage"
							}
						],
						"numberOfBytes": "160"
					},
					"t_struct(Borrower)22_storage": {
						"encoding": "inplace",
						"label": "struct Library.Borrower",
						"members": [
							{
								"astId": 18,
								"contract": "Library.sol:Library",
								"label": "borrowedBy",
								"offset": 0,
								"slot": "0",
								"type": "t_string_storage"
							},
							{
								"astId": 21,
								"contract": "Library.sol:Library",
								"label": "borrowedBook",
								"offset": 0,
								"slot": "1",
								"type": "t_struct(Book)16_storage"
							}
						],
						"numberOfBytes": "192"
					},
					"t_uint256": {
						"encoding": "inplace",
						"label": "uint256",
						"numberOfBytes": "32"
					}
				}
			},
			"userdoc": {
				"kind": "user",
				"methods": {},
				"version": 1
			}
		}
	}
}