{
	"Salarytracker.sol": {
		"Salarytracker": {
			"abi": [
				{
					"inputs": [
						{
							"internalType": "string",
							"name": "_name",
							"type": "string"
						},
						{
							"internalType": "uint256",
							"name": "_salary",
							"type": "uint256"
						},
						{
							"internalType": "string",
							"name": "companyName",
							"type": "string"
						}
					],
					"name": "addEmployee",
					"outputs": [],
					"stateMutability": "nonpayable",
					"type": "function"
				},
				{
					"inputs": [
						{
							"internalType": "string",
							"name": "",
							"type": "string"
						}
					],
					"name": "employeesMap",
					"outputs": [
						{
							"internalType": "string",
							"name": "name",
							"type": "string"
						},
						{
							"internalType": "uint256",
							"name": "salary",
							"type": "uint256"
						}
					],
					"stateMutability": "view",
					"type": "function"
				},
				{
					"inputs": [
						{
							"internalType": "string",
							"name": "company",
							"type": "string"
						}
					],
					"name": "getEmpDetails",
					"outputs": [
						{
							"internalType": "string",
							"name": "",
							"type": "string"
						},
						{
							"internalType": "uint256",
							"name": "",
							"type": "uint256"
						}
					],
					"stateMutability": "view",
					"type": "function"
				},
				{
					"inputs": [
						{
							"internalType": "string",
							"name": "_name",
							"type": "string"
						}
					],
					"name": "getEmpSalary",
					"outputs": [
						{
							"internalType": "uint256",
							"name": "",
							"type": "uint256"
						}
					],
					"stateMutability": "view",
					"type": "function"
				},
				{
					"inputs": [
						{
							"internalType": "string",
							"name": "_name",
							"type": "string"
						},
						{
							"internalType": "uint256",
							"name": "salary",
							"type": "uint256"
						}
					],
					"name": "updateEmpSalary",
					"outputs": [],
					"stateMutability": "nonpayable",
					"type": "function"
				}
			],
			"devdoc": {
				"kind": "dev",
				"methods": {},
				"version": 1
			},
			"evm": {
				"assembly": "    /* \"Salarytracker.sol\":196:1215  contract Salarytracker{... */\n  mstore(0x40, 0x80)\n  callvalue\n  dup1\n  iszero\n  tag_1\n  jumpi\n  0x00\n  dup1\n  revert\ntag_1:\n  pop\n  dataSize(sub_0)\n  dup1\n  dataOffset(sub_0)\n  0x00\n  codecopy\n  0x00\n  return\nstop\n\nsub_0: assembly {\n        /* \"Salarytracker.sol\":196:1215  contract Salarytracker{... */\n      mstore(0x40, 0x80)\n      callvalue\n      dup1\n      iszero\n      tag_1\n      jumpi\n      0x00\n      dup1\n      revert\n    tag_1:\n      pop\n      jumpi(tag_2, lt(calldatasize, 0x04))\n      shr(0xe0, calldataload(0x00))\n      dup1\n      0x1ae0defb\n      eq\n      tag_3\n      jumpi\n      dup1\n      0x27bfbee3\n      eq\n      tag_4\n      jumpi\n      dup1\n      0x51254646\n      eq\n      tag_5\n      jumpi\n      dup1\n      0x707338da\n      eq\n      tag_6\n      jumpi\n      dup1\n      0x76e8cca9\n      eq\n      tag_7\n      jumpi\n    tag_2:\n      0x00\n      dup1\n      revert\n        /* \"Salarytracker.sol\":639:829  function updateEmpSalary(string memory _name, uint salary )external{... */\n    tag_3:\n      tag_8\n      0x04\n      dup1\n      calldatasize\n      sub\n      dup2\n      add\n      swap1\n      tag_9\n      swap2\n      swap1\n      tag_10\n      jump\t// in\n    tag_9:\n      tag_11\n      jump\t// in\n    tag_8:\n      stop\n        /* \"Salarytracker.sol\":1006:1214  function getEmpDetails(string memory company )external view returns ( string memory, uint) {... */\n    tag_4:\n      tag_12\n      0x04\n      dup1\n      calldatasize\n      sub\n      dup2\n      add\n      swap1\n      tag_13\n      swap2\n      swap1\n      tag_14\n      jump\t// in\n    tag_13:\n      tag_15\n      jump\t// in\n    tag_12:\n      mload(0x40)\n      tag_16\n      swap3\n      swap2\n      swap1\n      tag_17\n      jump\t// in\n    tag_16:\n      mload(0x40)\n      dup1\n      swap2\n      sub\n      swap1\n      return\n        /* \"Salarytracker.sol\":300:349  mapping (string => Employees) public employeesMap */\n    tag_5:\n      tag_18\n      0x04\n      dup1\n      calldatasize\n      sub\n      dup2\n      add\n      swap1\n      tag_19\n      swap2\n      swap1\n      tag_14\n      jump\t// in\n    tag_19:\n      tag_20\n      jump\t// in\n    tag_18:\n      mload(0x40)\n      tag_21\n      swap3\n      swap2\n      swap1\n      tag_17\n      jump\t// in\n    tag_21:\n      mload(0x40)\n      dup1\n      swap2\n      sub\n      swap1\n      return\n        /* \"Salarytracker.sol\":353:635  function addEmployee(string memory _name ,uint  _salary, string memory companyName)  external{... */\n    tag_6:\n      tag_22\n      0x04\n      dup1\n      calldatasize\n      sub\n      dup2\n      add\n      swap1\n      tag_23\n      swap2\n      swap1\n      tag_24\n      jump\t// in\n    tag_23:\n      tag_25\n      jump\t// in\n    tag_22:\n      stop\n        /* \"Salarytracker.sol\":832:1004  function getEmpSalary(string memory _name)public view returns(uint){... */\n    tag_7:\n      tag_26\n      0x04\n      dup1\n      calldatasize\n      sub\n      dup2\n      add\n      swap1\n      tag_27\n      swap2\n      swap1\n      tag_14\n      jump\t// in\n    tag_27:\n      tag_28\n      jump\t// in\n    tag_26:\n      mload(0x40)\n      tag_29\n      swap2\n      swap1\n      tag_30\n      jump\t// in\n    tag_29:\n      mload(0x40)\n      dup1\n      swap2\n      sub\n      swap1\n      return\n        /* \"Salarytracker.sol\":639:829  function updateEmpSalary(string memory _name, uint salary )external{... */\n    tag_11:\n        /* \"Salarytracker.sol\":712:734  Employees storage emp1 */\n      0x00\n        /* \"Salarytracker.sol\":738:750  employeesMap */\n      dup1\n        /* \"Salarytracker.sol\":751:756  _name */\n      dup4\n        /* \"Salarytracker.sol\":738:757  employeesMap[_name] */\n      mload(0x40)\n      tag_32\n      swap2\n      swap1\n      tag_33\n      jump\t// in\n    tag_32:\n      swap1\n      dup2\n      mstore\n      0x20\n      add\n      mload(0x40)\n      dup1\n      swap2\n      sub\n      swap1\n      keccak256\n        /* \"Salarytracker.sol\":712:757  Employees storage emp1 =  employeesMap[_name] */\n      swap1\n      pop\n        /* \"Salarytracker.sol\":777:783  salary */\n      dup2\n        /* \"Salarytracker.sol\":763:767  emp1 */\n      dup2\n        /* \"Salarytracker.sol\":763:774  emp1.salary */\n      0x01\n      add\n        /* \"Salarytracker.sol\":763:783  emp1.salary = salary */\n      dup2\n      swap1\n      sstore\n      pop\n        /* \"Salarytracker.sol\":812:816  emp1 */\n      dup1\n        /* \"Salarytracker.sol\":792:804  employeesMap */\n      0x00\n        /* \"Salarytracker.sol\":805:810  _name */\n      dup5\n        /* \"Salarytracker.sol\":792:811  employeesMap[_name] */\n      mload(0x40)\n      tag_34\n      swap2\n      swap1\n      tag_33\n      jump\t// in\n    tag_34:\n      swap1\n      dup2\n      mstore\n      0x20\n      add\n      mload(0x40)\n      dup1\n      swap2\n      sub\n      swap1\n      keccak256\n        /* \"Salarytracker.sol\":792:816  employeesMap[_name]=emp1 */\n      0x00\n      dup3\n      add\n      dup2\n      0x00\n      add\n      swap1\n      dup2\n      tag_35\n      swap2\n      swap1\n      tag_36\n      jump\t// in\n    tag_35:\n      pop\n      0x01\n      dup3\n      add\n      sload\n      dup2\n      0x01\n      add\n      sstore\n      swap1\n      pop\n      pop\n        /* \"Salarytracker.sol\":706:829  {... */\n      pop\n        /* \"Salarytracker.sol\":639:829  function updateEmpSalary(string memory _name, uint salary )external{... */\n      pop\n      pop\n      jump\t// out\n        /* \"Salarytracker.sol\":1006:1214  function getEmpDetails(string memory company )external view returns ( string memory, uint) {... */\n    tag_15:\n        /* \"Salarytracker.sol\":1076:1089  string memory */\n      0x60\n        /* \"Salarytracker.sol\":1091:1095  uint */\n      0x00\n        /* \"Salarytracker.sol\":1107:1134  Employees storage _employee */\n      dup1\n        /* \"Salarytracker.sol\":1138:1150  employeesMap */\n      0x00\n        /* \"Salarytracker.sol\":1151:1158  company */\n      dup5\n        /* \"Salarytracker.sol\":1138:1159  employeesMap[company] */\n      mload(0x40)\n      tag_38\n      swap2\n      swap1\n      tag_33\n      jump\t// in\n    tag_38:\n      swap1\n      dup2\n      mstore\n      0x20\n      add\n      mload(0x40)\n      dup1\n      swap2\n      sub\n      swap1\n      keccak256\n        /* \"Salarytracker.sol\":1107:1159  Employees storage _employee  = employeesMap[company] */\n      swap1\n      pop\n        /* \"Salarytracker.sol\":1177:1186  _employee */\n      dup1\n        /* \"Salarytracker.sol\":1177:1191  _employee.name */\n      0x00\n      add\n        /* \"Salarytracker.sol\":1193:1202  _employee */\n      dup2\n        /* \"Salarytracker.sol\":1193:1209  _employee.salary */\n      0x01\n      add\n      sload\n        /* \"Salarytracker.sol\":1169:1211  return (_employee.name ,_employee.salary ) */\n      dup2\n      dup1\n      sload\n      tag_39\n      swap1\n      tag_40\n      jump\t// in\n    tag_39:\n      dup1\n      0x1f\n      add\n      0x20\n      dup1\n      swap2\n      div\n      mul\n      0x20\n      add\n      mload(0x40)\n      swap1\n      dup2\n      add\n      0x40\n      mstore\n      dup1\n      swap3\n      swap2\n      swap1\n      dup2\n      dup2\n      mstore\n      0x20\n      add\n      dup3\n      dup1\n      sload\n      tag_41\n      swap1\n      tag_40\n      jump\t// in\n    tag_41:\n      dup1\n      iszero\n      tag_42\n      jumpi\n      dup1\n      0x1f\n      lt\n      tag_43\n      jumpi\n      0x0100\n      dup1\n      dup4\n      sload\n      div\n      mul\n      dup4\n      mstore\n      swap2\n      0x20\n      add\n      swap2\n      jump(tag_42)\n    tag_43:\n      dup3\n      add\n      swap2\n      swap1\n      0x00\n      mstore\n      keccak256(0x00, 0x20)\n      swap1\n    tag_44:\n      dup2\n      sload\n      dup2\n      mstore\n      swap1\n      0x01\n      add\n      swap1\n      0x20\n      add\n      dup1\n      dup4\n      gt\n      tag_44\n      jumpi\n      dup3\n      swap1\n      sub\n      0x1f\n      and\n      dup3\n      add\n      swap2\n    tag_42:\n      pop\n      pop\n      pop\n      pop\n      pop\n      swap2\n      pop\n      swap3\n      pop\n      swap3\n      pop\n      pop\n        /* \"Salarytracker.sol\":1006:1214  function getEmpDetails(string memory company )external view returns ( string memory, uint) {... */\n      swap2\n      pop\n      swap2\n      jump\t// out\n        /* \"Salarytracker.sol\":300:349  mapping (string => Employees) public employeesMap */\n    tag_20:\n      0x00\n      dup2\n      dup1\n      mload\n      0x20\n      dup2\n      add\n      dup3\n      add\n      dup1\n      mload\n      dup5\n      dup3\n      mstore\n      0x20\n      dup4\n      add\n      0x20\n      dup6\n      add\n      keccak256\n      dup2\n      dup4\n      mstore\n      dup1\n      swap6\n      pop\n      pop\n      pop\n      pop\n      pop\n      pop\n      0x00\n      swap2\n      pop\n      swap1\n      pop\n      dup1\n      0x00\n      add\n      dup1\n      sload\n      tag_45\n      swap1\n      tag_40\n      jump\t// in\n    tag_45:\n      dup1\n      0x1f\n      add\n      0x20\n      dup1\n      swap2\n      div\n      mul\n      0x20\n      add\n      mload(0x40)\n      swap1\n      dup2\n      add\n      0x40\n      mstore\n      dup1\n      swap3\n      swap2\n      swap1\n      dup2\n      dup2\n      mstore\n      0x20\n      add\n      dup3\n      dup1\n      sload\n      tag_46\n      swap1\n      tag_40\n      jump\t// in\n    tag_46:\n      dup1\n      iszero\n      tag_47\n      jumpi\n      dup1\n      0x1f\n      lt\n      tag_48\n      jumpi\n      0x0100\n      dup1\n      dup4\n      sload\n      div\n      mul\n      dup4\n      mstore\n      swap2\n      0x20\n      add\n      swap2\n      jump(tag_47)\n    tag_48:\n      dup3\n      add\n      swap2\n      swap1\n      0x00\n      mstore\n      keccak256(0x00, 0x20)\n      swap1\n    tag_49:\n      dup2\n      sload\n      dup2\n      mstore\n      swap1\n      0x01\n      add\n      swap1\n      0x20\n      add\n      dup1\n      dup4\n      gt\n      tag_49\n      jumpi\n      dup3\n      swap1\n      sub\n      0x1f\n      and\n      dup3\n      add\n      swap2\n    tag_47:\n      pop\n      pop\n      pop\n      pop\n      pop\n      swap1\n      dup1\n      0x01\n      add\n      sload\n      swap1\n      pop\n      dup3\n      jump\t// out\n        /* \"Salarytracker.sol\":353:635  function addEmployee(string memory _name ,uint  _salary, string memory companyName)  external{... */\n    tag_25:\n        /* \"Salarytracker.sol\":452:482  Employees storage newEmployees */\n      0x00\n        /* \"Salarytracker.sol\":485:497  employeesMap */\n      dup1\n        /* \"Salarytracker.sol\":498:509  companyName */\n      dup3\n        /* \"Salarytracker.sol\":485:510  employeesMap[companyName] */\n      mload(0x40)\n      tag_51\n      swap2\n      swap1\n      tag_33\n      jump\t// in\n    tag_51:\n      swap1\n      dup2\n      mstore\n      0x20\n      add\n      mload(0x40)\n      dup1\n      swap2\n      sub\n      swap1\n      keccak256\n        /* \"Salarytracker.sol\":452:510  Employees storage newEmployees = employeesMap[companyName] */\n      swap1\n      pop\n        /* \"Salarytracker.sol\":536:541  _name */\n      dup4\n        /* \"Salarytracker.sol\":516:528  newEmployees */\n      dup2\n        /* \"Salarytracker.sol\":516:533  newEmployees.name */\n      0x00\n      add\n        /* \"Salarytracker.sol\":516:541  newEmployees.name = _name */\n      swap1\n      dup2\n      tag_52\n      swap2\n      swap1\n      tag_53\n      jump\t// in\n    tag_52:\n      pop\n        /* \"Salarytracker.sol\":567:574  _salary */\n      dup3\n        /* \"Salarytracker.sol\":547:559  newEmployees */\n      dup2\n        /* \"Salarytracker.sol\":547:566  newEmployees.salary */\n      0x01\n      add\n        /* \"Salarytracker.sol\":547:574  newEmployees.salary=_salary */\n      dup2\n      swap1\n      sstore\n      pop\n        /* \"Salarytracker.sol\":610:622  newEmployees */\n      dup1\n        /* \"Salarytracker.sol\":582:594  employeesMap */\n      0x00\n        /* \"Salarytracker.sol\":595:606  companyName */\n      dup4\n        /* \"Salarytracker.sol\":582:607  employeesMap[companyName] */\n      mload(0x40)\n      tag_54\n      swap2\n      swap1\n      tag_33\n      jump\t// in\n    tag_54:\n      swap1\n      dup2\n      mstore\n      0x20\n      add\n      mload(0x40)\n      dup1\n      swap2\n      sub\n      swap1\n      keccak256\n        /* \"Salarytracker.sol\":582:622  employeesMap[companyName] = newEmployees */\n      0x00\n      dup3\n      add\n      dup2\n      0x00\n      add\n      swap1\n      dup2\n      tag_55\n      swap2\n      swap1\n      tag_36\n      jump\t// in\n    tag_55:\n      pop\n      0x01\n      dup3\n      add\n      sload\n      dup2\n      0x01\n      add\n      sstore\n      swap1\n      pop\n      pop\n        /* \"Salarytracker.sol\":446:635  {... */\n      pop\n        /* \"Salarytracker.sol\":353:635  function addEmployee(string memory _name ,uint  _salary, string memory companyName)  external{... */\n      pop\n      pop\n      pop\n      jump\t// out\n        /* \"Salarytracker.sol\":832:1004  function getEmpSalary(string memory _name)public view returns(uint){... */\n    tag_28:\n        /* \"Salarytracker.sol\":894:898  uint */\n      0x00\n        /* \"Salarytracker.sol\":913:935  Employees storage emp1 */\n      dup1\n        /* \"Salarytracker.sol\":939:951  employeesMap */\n      0x00\n        /* \"Salarytracker.sol\":952:957  _name */\n      dup4\n        /* \"Salarytracker.sol\":939:958  employeesMap[_name] */\n      mload(0x40)\n      tag_57\n      swap2\n      swap1\n      tag_33\n      jump\t// in\n    tag_57:\n      swap1\n      dup2\n      mstore\n      0x20\n      add\n      mload(0x40)\n      dup1\n      swap2\n      sub\n      swap1\n      keccak256\n        /* \"Salarytracker.sol\":913:958  Employees storage emp1 =  employeesMap[_name] */\n      swap1\n      pop\n        /* \"Salarytracker.sol\":980:984  emp1 */\n      dup1\n        /* \"Salarytracker.sol\":980:991  emp1.salary */\n      0x01\n      add\n      sload\n        /* \"Salarytracker.sol\":972:992  return (emp1.salary) */\n      swap2\n      pop\n      pop\n        /* \"Salarytracker.sol\":832:1004  function getEmpSalary(string memory _name)public view returns(uint){... */\n      swap2\n      swap1\n      pop\n      jump\t// out\n        /* \"#utility.yul\":7:82   */\n    tag_58:\n        /* \"#utility.yul\":40:46   */\n      0x00\n        /* \"#utility.yul\":73:75   */\n      0x40\n        /* \"#utility.yul\":67:76   */\n      mload\n        /* \"#utility.yul\":57:76   */\n      swap1\n      pop\n        /* \"#utility.yul\":7:82   */\n      swap1\n      jump\t// out\n        /* \"#utility.yul\":88:205   */\n    tag_59:\n        /* \"#utility.yul\":197:198   */\n      0x00\n        /* \"#utility.yul\":194:195   */\n      dup1\n        /* \"#utility.yul\":187:199   */\n      revert\n        /* \"#utility.yul\":211:328   */\n    tag_60:\n        /* \"#utility.yul\":320:321   */\n      0x00\n        /* \"#utility.yul\":317:318   */\n      dup1\n        /* \"#utility.yul\":310:322   */\n      revert\n        /* \"#utility.yul\":334:451   */\n    tag_61:\n        /* \"#utility.yul\":443:444   */\n      0x00\n        /* \"#utility.yul\":440:441   */\n      dup1\n        /* \"#utility.yul\":433:445   */\n      revert\n        /* \"#utility.yul\":457:574   */\n    tag_62:\n        /* \"#utility.yul\":566:567   */\n      0x00\n        /* \"#utility.yul\":563:564   */\n      dup1\n        /* \"#utility.yul\":556:568   */\n      revert\n        /* \"#utility.yul\":580:682   */\n    tag_63:\n        /* \"#utility.yul\":621:627   */\n      0x00\n        /* \"#utility.yul\":672:674   */\n      0x1f\n        /* \"#utility.yul\":668:675   */\n      not\n        /* \"#utility.yul\":663:665   */\n      0x1f\n        /* \"#utility.yul\":656:661   */\n      dup4\n        /* \"#utility.yul\":652:666   */\n      add\n        /* \"#utility.yul\":648:676   */\n      and\n        /* \"#utility.yul\":638:676   */\n      swap1\n      pop\n        /* \"#utility.yul\":580:682   */\n      swap2\n      swap1\n      pop\n      jump\t// out\n        /* \"#utility.yul\":688:868   */\n    tag_64:\n        /* \"#utility.yul\":736:813   */\n      0x4e487b7100000000000000000000000000000000000000000000000000000000\n        /* \"#utility.yul\":733:734   */\n      0x00\n        /* \"#utility.yul\":726:814   */\n      mstore\n        /* \"#utility.yul\":833:837   */\n      0x41\n        /* \"#utility.yul\":830:831   */\n      0x04\n        /* \"#utility.yul\":823:838   */\n      mstore\n        /* \"#utility.yul\":857:861   */\n      0x24\n        /* \"#utility.yul\":854:855   */\n      0x00\n        /* \"#utility.yul\":847:862   */\n      revert\n        /* \"#utility.yul\":874:1155   */\n    tag_65:\n        /* \"#utility.yul\":957:984   */\n      tag_107\n        /* \"#utility.yul\":979:983   */\n      dup3\n        /* \"#utility.yul\":957:984   */\n      tag_63\n      jump\t// in\n    tag_107:\n        /* \"#utility.yul\":949:955   */\n      dup2\n        /* \"#utility.yul\":945:985   */\n      add\n        /* \"#utility.yul\":1087:1093   */\n      dup2\n        /* \"#utility.yul\":1075:1085   */\n      dup2\n        /* \"#utility.yul\":1072:1094   */\n      lt\n        /* \"#utility.yul\":1051:1069   */\n      0xffffffffffffffff\n        /* \"#utility.yul\":1039:1049   */\n      dup3\n        /* \"#utility.yul\":1036:1070   */\n      gt\n        /* \"#utility.yul\":1033:1095   */\n      or\n        /* \"#utility.yul\":1030:1118   */\n      iszero\n      tag_108\n      jumpi\n        /* \"#utility.yul\":1098:1116   */\n      tag_109\n      tag_64\n      jump\t// in\n    tag_109:\n        /* \"#utility.yul\":1030:1118   */\n    tag_108:\n        /* \"#utility.yul\":1138:1148   */\n      dup1\n        /* \"#utility.yul\":1134:1136   */\n      0x40\n        /* \"#utility.yul\":1127:1149   */\n      mstore\n        /* \"#utility.yul\":917:1155   */\n      pop\n        /* \"#utility.yul\":874:1155   */\n      pop\n      pop\n      jump\t// out\n        /* \"#utility.yul\":1161:1290   */\n    tag_66:\n        /* \"#utility.yul\":1195:1201   */\n      0x00\n        /* \"#utility.yul\":1222:1242   */\n      tag_111\n      tag_58\n      jump\t// in\n    tag_111:\n        /* \"#utility.yul\":1212:1242   */\n      swap1\n      pop\n        /* \"#utility.yul\":1251:1284   */\n      tag_112\n        /* \"#utility.yul\":1279:1283   */\n      dup3\n        /* \"#utility.yul\":1271:1277   */\n      dup3\n        /* \"#utility.yul\":1251:1284   */\n      tag_65\n      jump\t// in\n    tag_112:\n        /* \"#utility.yul\":1161:1290   */\n      swap2\n      swap1\n      pop\n      jump\t// out\n        /* \"#utility.yul\":1296:1604   */\n    tag_67:\n        /* \"#utility.yul\":1358:1362   */\n      0x00\n        /* \"#utility.yul\":1448:1466   */\n      0xffffffffffffffff\n        /* \"#utility.yul\":1440:1446   */\n      dup3\n        /* \"#utility.yul\":1437:1467   */\n      gt\n        /* \"#utility.yul\":1434:1490   */\n      iszero\n      tag_114\n      jumpi\n        /* \"#utility.yul\":1470:1488   */\n      tag_115\n      tag_64\n      jump\t// in\n    tag_115:\n        /* \"#utility.yul\":1434:1490   */\n    tag_114:\n        /* \"#utility.yul\":1508:1537   */\n      tag_116\n        /* \"#utility.yul\":1530:1536   */\n      dup3\n        /* \"#utility.yul\":1508:1537   */\n      tag_63\n      jump\t// in\n    tag_116:\n        /* \"#utility.yul\":1500:1537   */\n      swap1\n      pop\n        /* \"#utility.yul\":1592:1596   */\n      0x20\n        /* \"#utility.yul\":1586:1590   */\n      dup2\n        /* \"#utility.yul\":1582:1597   */\n      add\n        /* \"#utility.yul\":1574:1597   */\n      swap1\n      pop\n        /* \"#utility.yul\":1296:1604   */\n      swap2\n      swap1\n      pop\n      jump\t// out\n        /* \"#utility.yul\":1610:1758   */\n    tag_68:\n        /* \"#utility.yul\":1708:1714   */\n      dup3\n        /* \"#utility.yul\":1703:1706   */\n      dup2\n        /* \"#utility.yul\":1698:1701   */\n      dup4\n        /* \"#utility.yul\":1685:1715   */\n      calldatacopy\n        /* \"#utility.yul\":1749:1750   */\n      0x00\n        /* \"#utility.yul\":1740:1746   */\n      dup4\n        /* \"#utility.yul\":1735:1738   */\n      dup4\n        /* \"#utility.yul\":1731:1747   */\n      add\n        /* \"#utility.yul\":1724:1751   */\n      mstore\n        /* \"#utility.yul\":1610:1758   */\n      pop\n      pop\n      pop\n      jump\t// out\n        /* \"#utility.yul\":1764:2189   */\n    tag_69:\n        /* \"#utility.yul\":1842:1847   */\n      0x00\n        /* \"#utility.yul\":1867:1933   */\n      tag_119\n        /* \"#utility.yul\":1883:1932   */\n      tag_120\n        /* \"#utility.yul\":1925:1931   */\n      dup5\n        /* \"#utility.yul\":1883:1932   */\n      tag_67\n      jump\t// in\n    tag_120:\n        /* \"#utility.yul\":1867:1933   */\n      tag_66\n      jump\t// in\n    tag_119:\n        /* \"#utility.yul\":1858:1933   */\n      swap1\n      pop\n        /* \"#utility.yul\":1956:1962   */\n      dup3\n        /* \"#utility.yul\":1949:1954   */\n      dup2\n        /* \"#utility.yul\":1942:1963   */\n      mstore\n        /* \"#utility.yul\":1994:1998   */\n      0x20\n        /* \"#utility.yul\":1987:1992   */\n      dup2\n        /* \"#utility.yul\":1983:1999   */\n      add\n        /* \"#utility.yul\":2032:2035   */\n      dup5\n        /* \"#utility.yul\":2023:2029   */\n      dup5\n        /* \"#utility.yul\":2018:2021   */\n      dup5\n        /* \"#utility.yul\":2014:2030   */\n      add\n        /* \"#utility.yul\":2011:2036   */\n      gt\n        /* \"#utility.yul\":2008:2120   */\n      iszero\n      tag_121\n      jumpi\n        /* \"#utility.yul\":2039:2118   */\n      tag_122\n      tag_62\n      jump\t// in\n    tag_122:\n        /* \"#utility.yul\":2008:2120   */\n    tag_121:\n        /* \"#utility.yul\":2129:2183   */\n      tag_123\n        /* \"#utility.yul\":2176:2182   */\n      dup5\n        /* \"#utility.yul\":2171:2174   */\n      dup3\n        /* \"#utility.yul\":2166:2169   */\n      dup6\n        /* \"#utility.yul\":2129:2183   */\n      tag_68\n      jump\t// in\n    tag_123:\n        /* \"#utility.yul\":1848:2189   */\n      pop\n        /* \"#utility.yul\":1764:2189   */\n      swap4\n      swap3\n      pop\n      pop\n      pop\n      jump\t// out\n        /* \"#utility.yul\":2209:2549   */\n    tag_70:\n        /* \"#utility.yul\":2265:2270   */\n      0x00\n        /* \"#utility.yul\":2314:2317   */\n      dup3\n        /* \"#utility.yul\":2307:2311   */\n      0x1f\n        /* \"#utility.yul\":2299:2305   */\n      dup4\n        /* \"#utility.yul\":2295:2312   */\n      add\n        /* \"#utility.yul\":2291:2318   */\n      slt\n        /* \"#utility.yul\":2281:2403   */\n      tag_125\n      jumpi\n        /* \"#utility.yul\":2322:2401   */\n      tag_126\n      tag_61\n      jump\t// in\n    tag_126:\n        /* \"#utility.yul\":2281:2403   */\n    tag_125:\n        /* \"#utility.yul\":2439:2445   */\n      dup2\n        /* \"#utility.yul\":2426:2446   */\n      calldataload\n        /* \"#utility.yul\":2464:2543   */\n      tag_127\n        /* \"#utility.yul\":2539:2542   */\n      dup5\n        /* \"#utility.yul\":2531:2537   */\n      dup3\n        /* \"#utility.yul\":2524:2528   */\n      0x20\n        /* \"#utility.yul\":2516:2522   */\n      dup7\n        /* \"#utility.yul\":2512:2529   */\n      add\n        /* \"#utility.yul\":2464:2543   */\n      tag_69\n      jump\t// in\n    tag_127:\n        /* \"#utility.yul\":2455:2543   */\n      swap2\n      pop\n        /* \"#utility.yul\":2271:2549   */\n      pop\n        /* \"#utility.yul\":2209:2549   */\n      swap3\n      swap2\n      pop\n      pop\n      jump\t// out\n        /* \"#utility.yul\":2555:2632   */\n    tag_71:\n        /* \"#utility.yul\":2592:2599   */\n      0x00\n        /* \"#utility.yul\":2621:2626   */\n      dup2\n        /* \"#utility.yul\":2610:2626   */\n      swap1\n      pop\n        /* \"#utility.yul\":2555:2632   */\n      swap2\n      swap1\n      pop\n      jump\t// out\n        /* \"#utility.yul\":2638:2760   */\n    tag_72:\n        /* \"#utility.yul\":2711:2735   */\n      tag_130\n        /* \"#utility.yul\":2729:2734   */\n      dup2\n        /* \"#utility.yul\":2711:2735   */\n      tag_71\n      jump\t// in\n    tag_130:\n        /* \"#utility.yul\":2704:2709   */\n      dup2\n        /* \"#utility.yul\":2701:2736   */\n      eq\n        /* \"#utility.yul\":2691:2754   */\n      tag_131\n      jumpi\n        /* \"#utility.yul\":2750:2751   */\n      0x00\n        /* \"#utility.yul\":2747:2748   */\n      dup1\n        /* \"#utility.yul\":2740:2752   */\n      revert\n        /* \"#utility.yul\":2691:2754   */\n    tag_131:\n        /* \"#utility.yul\":2638:2760   */\n      pop\n      jump\t// out\n        /* \"#utility.yul\":2766:2905   */\n    tag_73:\n        /* \"#utility.yul\":2812:2817   */\n      0x00\n        /* \"#utility.yul\":2850:2856   */\n      dup2\n        /* \"#utility.yul\":2837:2857   */\n      calldataload\n        /* \"#utility.yul\":2828:2857   */\n      swap1\n      pop\n        /* \"#utility.yul\":2866:2899   */\n      tag_133\n        /* \"#utility.yul\":2893:2898   */\n      dup2\n        /* \"#utility.yul\":2866:2899   */\n      tag_72\n      jump\t// in\n    tag_133:\n        /* \"#utility.yul\":2766:2905   */\n      swap3\n      swap2\n      pop\n      pop\n      jump\t// out\n        /* \"#utility.yul\":2911:3565   */\n    tag_10:\n        /* \"#utility.yul\":2989:2995   */\n      0x00\n        /* \"#utility.yul\":2997:3003   */\n      dup1\n        /* \"#utility.yul\":3046:3048   */\n      0x40\n        /* \"#utility.yul\":3034:3043   */\n      dup4\n        /* \"#utility.yul\":3025:3032   */\n      dup6\n        /* \"#utility.yul\":3021:3044   */\n      sub\n        /* \"#utility.yul\":3017:3049   */\n      slt\n        /* \"#utility.yul\":3014:3133   */\n      iszero\n      tag_135\n      jumpi\n        /* \"#utility.yul\":3052:3131   */\n      tag_136\n      tag_59\n      jump\t// in\n    tag_136:\n        /* \"#utility.yul\":3014:3133   */\n    tag_135:\n        /* \"#utility.yul\":3200:3201   */\n      0x00\n        /* \"#utility.yul\":3189:3198   */\n      dup4\n        /* \"#utility.yul\":3185:3202   */\n      add\n        /* \"#utility.yul\":3172:3203   */\n      calldataload\n        /* \"#utility.yul\":3230:3248   */\n      0xffffffffffffffff\n        /* \"#utility.yul\":3222:3228   */\n      dup2\n        /* \"#utility.yul\":3219:3249   */\n      gt\n        /* \"#utility.yul\":3216:3333   */\n      iszero\n      tag_137\n      jumpi\n        /* \"#utility.yul\":3252:3331   */\n      tag_138\n      tag_60\n      jump\t// in\n    tag_138:\n        /* \"#utility.yul\":3216:3333   */\n    tag_137:\n        /* \"#utility.yul\":3357:3420   */\n      tag_139\n        /* \"#utility.yul\":3412:3419   */\n      dup6\n        /* \"#utility.yul\":3403:3409   */\n      dup3\n        /* \"#utility.yul\":3392:3401   */\n      dup7\n        /* \"#utility.yul\":3388:3410   */\n      add\n        /* \"#utility.yul\":3357:3420   */\n      tag_70\n      jump\t// in\n    tag_139:\n        /* \"#utility.yul\":3347:3420   */\n      swap3\n      pop\n        /* \"#utility.yul\":3143:3430   */\n      pop\n        /* \"#utility.yul\":3469:3471   */\n      0x20\n        /* \"#utility.yul\":3495:3548   */\n      tag_140\n        /* \"#utility.yul\":3540:3547   */\n      dup6\n        /* \"#utility.yul\":3531:3537   */\n      dup3\n        /* \"#utility.yul\":3520:3529   */\n      dup7\n        /* \"#utility.yul\":3516:3538   */\n      add\n        /* \"#utility.yul\":3495:3548   */\n      tag_73\n      jump\t// in\n    tag_140:\n        /* \"#utility.yul\":3485:3548   */\n      swap2\n      pop\n        /* \"#utility.yul\":3440:3558   */\n      pop\n        /* \"#utility.yul\":2911:3565   */\n      swap3\n      pop\n      swap3\n      swap1\n      pop\n      jump\t// out\n        /* \"#utility.yul\":3571:4080   */\n    tag_14:\n        /* \"#utility.yul\":3640:3646   */\n      0x00\n        /* \"#utility.yul\":3689:3691   */\n      0x20\n        /* \"#utility.yul\":3677:3686   */\n      dup3\n        /* \"#utility.yul\":3668:3675   */\n      dup5\n        /* \"#utility.yul\":3664:3687   */\n      sub\n        /* \"#utility.yul\":3660:3692   */\n      slt\n        /* \"#utility.yul\":3657:3776   */\n      iszero\n      tag_142\n      jumpi\n        /* \"#utility.yul\":3695:3774   */\n      tag_143\n      tag_59\n      jump\t// in\n    tag_143:\n        /* \"#utility.yul\":3657:3776   */\n    tag_142:\n        /* \"#utility.yul\":3843:3844   */\n      0x00\n        /* \"#utility.yul\":3832:3841   */\n      dup3\n        /* \"#utility.yul\":3828:3845   */\n      add\n        /* \"#utility.yul\":3815:3846   */\n      calldataload\n        /* \"#utility.yul\":3873:3891   */\n      0xffffffffffffffff\n        /* \"#utility.yul\":3865:3871   */\n      dup2\n        /* \"#utility.yul\":3862:3892   */\n      gt\n        /* \"#utility.yul\":3859:3976   */\n      iszero\n      tag_144\n      jumpi\n        /* \"#utility.yul\":3895:3974   */\n      tag_145\n      tag_60\n      jump\t// in\n    tag_145:\n        /* \"#utility.yul\":3859:3976   */\n    tag_144:\n        /* \"#utility.yul\":4000:4063   */\n      tag_146\n        /* \"#utility.yul\":4055:4062   */\n      dup5\n        /* \"#utility.yul\":4046:4052   */\n      dup3\n        /* \"#utility.yul\":4035:4044   */\n      dup6\n        /* \"#utility.yul\":4031:4053   */\n      add\n        /* \"#utility.yul\":4000:4063   */\n      tag_70\n      jump\t// in\n    tag_146:\n        /* \"#utility.yul\":3990:4063   */\n      swap2\n      pop\n        /* \"#utility.yul\":3786:4073   */\n      pop\n        /* \"#utility.yul\":3571:4080   */\n      swap3\n      swap2\n      pop\n      pop\n      jump\t// out\n        /* \"#utility.yul\":4086:4185   */\n    tag_74:\n        /* \"#utility.yul\":4138:4144   */\n      0x00\n        /* \"#utility.yul\":4172:4177   */\n      dup2\n        /* \"#utility.yul\":4166:4178   */\n      mload\n        /* \"#utility.yul\":4156:4178   */\n      swap1\n      pop\n        /* \"#utility.yul\":4086:4185   */\n      swap2\n      swap1\n      pop\n      jump\t// out\n        /* \"#utility.yul\":4191:4360   */\n    tag_75:\n        /* \"#utility.yul\":4275:4286   */\n      0x00\n        /* \"#utility.yul\":4309:4315   */\n      dup3\n        /* \"#utility.yul\":4304:4307   */\n      dup3\n        /* \"#utility.yul\":4297:4316   */\n      mstore\n        /* \"#utility.yul\":4349:4353   */\n      0x20\n        /* \"#utility.yul\":4344:4347   */\n      dup3\n        /* \"#utility.yul\":4340:4354   */\n      add\n        /* \"#utility.yul\":4325:4354   */\n      swap1\n      pop\n        /* \"#utility.yul\":4191:4360   */\n      swap3\n      swap2\n      pop\n      pop\n      jump\t// out\n        /* \"#utility.yul\":4366:4505   */\n    tag_76:\n        /* \"#utility.yul\":4455:4461   */\n      dup3\n        /* \"#utility.yul\":4450:4453   */\n      dup2\n        /* \"#utility.yul\":4445:4448   */\n      dup4\n        /* \"#utility.yul\":4439:4462   */\n      mcopy\n        /* \"#utility.yul\":4496:4497   */\n      0x00\n        /* \"#utility.yul\":4487:4493   */\n      dup4\n        /* \"#utility.yul\":4482:4485   */\n      dup4\n        /* \"#utility.yul\":4478:4494   */\n      add\n        /* \"#utility.yul\":4471:4498   */\n      mstore\n        /* \"#utility.yul\":4366:4505   */\n      pop\n      pop\n      pop\n      jump\t// out\n        /* \"#utility.yul\":4511:4888   */\n    tag_77:\n        /* \"#utility.yul\":4599:4602   */\n      0x00\n        /* \"#utility.yul\":4627:4666   */\n      tag_151\n        /* \"#utility.yul\":4660:4665   */\n      dup3\n        /* \"#utility.yul\":4627:4666   */\n      tag_74\n      jump\t// in\n    tag_151:\n        /* \"#utility.yul\":4682:4753   */\n      tag_152\n        /* \"#utility.yul\":4746:4752   */\n      dup2\n        /* \"#utility.yul\":4741:4744   */\n      dup6\n        /* \"#utility.yul\":4682:4753   */\n      tag_75\n      jump\t// in\n    tag_152:\n        /* \"#utility.yul\":4675:4753   */\n      swap4\n      pop\n        /* \"#utility.yul\":4762:4827   */\n      tag_153\n        /* \"#utility.yul\":4820:4826   */\n      dup2\n        /* \"#utility.yul\":4815:4818   */\n      dup6\n        /* \"#utility.yul\":4808:4812   */\n      0x20\n        /* \"#utility.yul\":4801:4806   */\n      dup7\n        /* \"#utility.yul\":4797:4813   */\n      add\n        /* \"#utility.yul\":4762:4827   */\n      tag_76\n      jump\t// in\n    tag_153:\n        /* \"#utility.yul\":4852:4881   */\n      tag_154\n        /* \"#utility.yul\":4874:4880   */\n      dup2\n        /* \"#utility.yul\":4852:4881   */\n      tag_63\n      jump\t// in\n    tag_154:\n        /* \"#utility.yul\":4847:4850   */\n      dup5\n        /* \"#utility.yul\":4843:4882   */\n      add\n        /* \"#utility.yul\":4836:4882   */\n      swap2\n      pop\n        /* \"#utility.yul\":4603:4888   */\n      pop\n        /* \"#utility.yul\":4511:4888   */\n      swap3\n      swap2\n      pop\n      pop\n      jump\t// out\n        /* \"#utility.yul\":4894:5012   */\n    tag_78:\n        /* \"#utility.yul\":4981:5005   */\n      tag_156\n        /* \"#utility.yul\":4999:5004   */\n      dup2\n        /* \"#utility.yul\":4981:5005   */\n      tag_71\n      jump\t// in\n    tag_156:\n        /* \"#utility.yul\":4976:4979   */\n      dup3\n        /* \"#utility.yul\":4969:5006   */\n      mstore\n        /* \"#utility.yul\":4894:5012   */\n      pop\n      pop\n      jump\t// out\n        /* \"#utility.yul\":5018:5441   */\n    tag_17:\n        /* \"#utility.yul\":5159:5163   */\n      0x00\n        /* \"#utility.yul\":5197:5199   */\n      0x40\n        /* \"#utility.yul\":5186:5195   */\n      dup3\n        /* \"#utility.yul\":5182:5200   */\n      add\n        /* \"#utility.yul\":5174:5200   */\n      swap1\n      pop\n        /* \"#utility.yul\":5246:5255   */\n      dup2\n        /* \"#utility.yul\":5240:5244   */\n      dup2\n        /* \"#utility.yul\":5236:5256   */\n      sub\n        /* \"#utility.yul\":5232:5233   */\n      0x00\n        /* \"#utility.yul\":5221:5230   */\n      dup4\n        /* \"#utility.yul\":5217:5234   */\n      add\n        /* \"#utility.yul\":5210:5257   */\n      mstore\n        /* \"#utility.yul\":5274:5352   */\n      tag_158\n        /* \"#utility.yul\":5347:5351   */\n      dup2\n        /* \"#utility.yul\":5338:5344   */\n      dup6\n        /* \"#utility.yul\":5274:5352   */\n      tag_77\n      jump\t// in\n    tag_158:\n        /* \"#utility.yul\":5266:5352   */\n      swap1\n      pop\n        /* \"#utility.yul\":5362:5434   */\n      tag_159\n        /* \"#utility.yul\":5430:5432   */\n      0x20\n        /* \"#utility.yul\":5419:5428   */\n      dup4\n        /* \"#utility.yul\":5415:5433   */\n      add\n        /* \"#utility.yul\":5406:5412   */\n      dup5\n        /* \"#utility.yul\":5362:5434   */\n      tag_78\n      jump\t// in\n    tag_159:\n        /* \"#utility.yul\":5018:5441   */\n      swap4\n      swap3\n      pop\n      pop\n      pop\n      jump\t// out\n        /* \"#utility.yul\":5447:6426   */\n    tag_24:\n        /* \"#utility.yul\":5544:5550   */\n      0x00\n        /* \"#utility.yul\":5552:5558   */\n      dup1\n        /* \"#utility.yul\":5560:5566   */\n      0x00\n        /* \"#utility.yul\":5609:5611   */\n      0x60\n        /* \"#utility.yul\":5597:5606   */\n      dup5\n        /* \"#utility.yul\":5588:5595   */\n      dup7\n        /* \"#utility.yul\":5584:5607   */\n      sub\n        /* \"#utility.yul\":5580:5612   */\n      slt\n        /* \"#utility.yul\":5577:5696   */\n      iszero\n      tag_161\n      jumpi\n        /* \"#utility.yul\":5615:5694   */\n      tag_162\n      tag_59\n      jump\t// in\n    tag_162:\n        /* \"#utility.yul\":5577:5696   */\n    tag_161:\n        /* \"#utility.yul\":5763:5764   */\n      0x00\n        /* \"#utility.yul\":5752:5761   */\n      dup5\n        /* \"#utility.yul\":5748:5765   */\n      add\n        /* \"#utility.yul\":5735:5766   */\n      calldataload\n        /* \"#utility.yul\":5793:5811   */\n      0xffffffffffffffff\n        /* \"#utility.yul\":5785:5791   */\n      dup2\n        /* \"#utility.yul\":5782:5812   */\n      gt\n        /* \"#utility.yul\":5779:5896   */\n      iszero\n      tag_163\n      jumpi\n        /* \"#utility.yul\":5815:5894   */\n      tag_164\n      tag_60\n      jump\t// in\n    tag_164:\n        /* \"#utility.yul\":5779:5896   */\n    tag_163:\n        /* \"#utility.yul\":5920:5983   */\n      tag_165\n        /* \"#utility.yul\":5975:5982   */\n      dup7\n        /* \"#utility.yul\":5966:5972   */\n      dup3\n        /* \"#utility.yul\":5955:5964   */\n      dup8\n        /* \"#utility.yul\":5951:5973   */\n      add\n        /* \"#utility.yul\":5920:5983   */\n      tag_70\n      jump\t// in\n    tag_165:\n        /* \"#utility.yul\":5910:5983   */\n      swap4\n      pop\n        /* \"#utility.yul\":5706:5993   */\n      pop\n        /* \"#utility.yul\":6032:6034   */\n      0x20\n        /* \"#utility.yul\":6058:6111   */\n      tag_166\n        /* \"#utility.yul\":6103:6110   */\n      dup7\n        /* \"#utility.yul\":6094:6100   */\n      dup3\n        /* \"#utility.yul\":6083:6092   */\n      dup8\n        /* \"#utility.yul\":6079:6101   */\n      add\n        /* \"#utility.yul\":6058:6111   */\n      tag_73\n      jump\t// in\n    tag_166:\n        /* \"#utility.yul\":6048:6111   */\n      swap3\n      pop\n        /* \"#utility.yul\":6003:6121   */\n      pop\n        /* \"#utility.yul\":6188:6190   */\n      0x40\n        /* \"#utility.yul\":6177:6186   */\n      dup5\n        /* \"#utility.yul\":6173:6191   */\n      add\n        /* \"#utility.yul\":6160:6192   */\n      calldataload\n        /* \"#utility.yul\":6219:6237   */\n      0xffffffffffffffff\n        /* \"#utility.yul\":6211:6217   */\n      dup2\n        /* \"#utility.yul\":6208:6238   */\n      gt\n        /* \"#utility.yul\":6205:6322   */\n      iszero\n      tag_167\n      jumpi\n        /* \"#utility.yul\":6241:6320   */\n      tag_168\n      tag_60\n      jump\t// in\n    tag_168:\n        /* \"#utility.yul\":6205:6322   */\n    tag_167:\n        /* \"#utility.yul\":6346:6409   */\n      tag_169\n        /* \"#utility.yul\":6401:6408   */\n      dup7\n        /* \"#utility.yul\":6392:6398   */\n      dup3\n        /* \"#utility.yul\":6381:6390   */\n      dup8\n        /* \"#utility.yul\":6377:6399   */\n      add\n        /* \"#utility.yul\":6346:6409   */\n      tag_70\n      jump\t// in\n    tag_169:\n        /* \"#utility.yul\":6336:6409   */\n      swap2\n      pop\n        /* \"#utility.yul\":6131:6419   */\n      pop\n        /* \"#utility.yul\":5447:6426   */\n      swap3\n      pop\n      swap3\n      pop\n      swap3\n      jump\t// out\n        /* \"#utility.yul\":6432:6654   */\n    tag_30:\n        /* \"#utility.yul\":6525:6529   */\n      0x00\n        /* \"#utility.yul\":6563:6565   */\n      0x20\n        /* \"#utility.yul\":6552:6561   */\n      dup3\n        /* \"#utility.yul\":6548:6566   */\n      add\n        /* \"#utility.yul\":6540:6566   */\n      swap1\n      pop\n        /* \"#utility.yul\":6576:6647   */\n      tag_171\n        /* \"#utility.yul\":6644:6645   */\n      0x00\n        /* \"#utility.yul\":6633:6642   */\n      dup4\n        /* \"#utility.yul\":6629:6646   */\n      add\n        /* \"#utility.yul\":6620:6626   */\n      dup5\n        /* \"#utility.yul\":6576:6647   */\n      tag_78\n      jump\t// in\n    tag_171:\n        /* \"#utility.yul\":6432:6654   */\n      swap3\n      swap2\n      pop\n      pop\n      jump\t// out\n        /* \"#utility.yul\":6660:6808   */\n    tag_79:\n        /* \"#utility.yul\":6762:6773   */\n      0x00\n        /* \"#utility.yul\":6799:6802   */\n      dup2\n        /* \"#utility.yul\":6784:6802   */\n      swap1\n      pop\n        /* \"#utility.yul\":6660:6808   */\n      swap3\n      swap2\n      pop\n      pop\n      jump\t// out\n        /* \"#utility.yul\":6814:7204   */\n    tag_80:\n        /* \"#utility.yul\":6920:6923   */\n      0x00\n        /* \"#utility.yul\":6948:6987   */\n      tag_174\n        /* \"#utility.yul\":6981:6986   */\n      dup3\n        /* \"#utility.yul\":6948:6987   */\n      tag_74\n      jump\t// in\n    tag_174:\n        /* \"#utility.yul\":7003:7092   */\n      tag_175\n        /* \"#utility.yul\":7085:7091   */\n      dup2\n        /* \"#utility.yul\":7080:7083   */\n      dup6\n        /* \"#utility.yul\":7003:7092   */\n      tag_79\n      jump\t// in\n    tag_175:\n        /* \"#utility.yul\":6996:7092   */\n      swap4\n      pop\n        /* \"#utility.yul\":7101:7166   */\n      tag_176\n        /* \"#utility.yul\":7159:7165   */\n      dup2\n        /* \"#utility.yul\":7154:7157   */\n      dup6\n        /* \"#utility.yul\":7147:7151   */\n      0x20\n        /* \"#utility.yul\":7140:7145   */\n      dup7\n        /* \"#utility.yul\":7136:7152   */\n      add\n        /* \"#utility.yul\":7101:7166   */\n      tag_76\n      jump\t// in\n    tag_176:\n        /* \"#utility.yul\":7191:7197   */\n      dup1\n        /* \"#utility.yul\":7186:7189   */\n      dup5\n        /* \"#utility.yul\":7182:7198   */\n      add\n        /* \"#utility.yul\":7175:7198   */\n      swap2\n      pop\n        /* \"#utility.yul\":6924:7204   */\n      pop\n        /* \"#utility.yul\":6814:7204   */\n      swap3\n      swap2\n      pop\n      pop\n      jump\t// out\n        /* \"#utility.yul\":7210:7485   */\n    tag_33:\n        /* \"#utility.yul\":7342:7345   */\n      0x00\n        /* \"#utility.yul\":7364:7459   */\n      tag_178\n        /* \"#utility.yul\":7455:7458   */\n      dup3\n        /* \"#utility.yul\":7446:7452   */\n      dup5\n        /* \"#utility.yul\":7364:7459   */\n      tag_80\n      jump\t// in\n    tag_178:\n        /* \"#utility.yul\":7357:7459   */\n      swap2\n      pop\n        /* \"#utility.yul\":7476:7479   */\n      dup2\n        /* \"#utility.yul\":7469:7479   */\n      swap1\n      pop\n        /* \"#utility.yul\":7210:7485   */\n      swap3\n      swap2\n      pop\n      pop\n      jump\t// out\n        /* \"#utility.yul\":7491:7671   */\n    tag_81:\n        /* \"#utility.yul\":7539:7616   */\n      0x4e487b7100000000000000000000000000000000000000000000000000000000\n        /* \"#utility.yul\":7536:7537   */\n      0x00\n        /* \"#utility.yul\":7529:7617   */\n      mstore\n        /* \"#utility.yul\":7636:7640   */\n      0x22\n        /* \"#utility.yul\":7633:7634   */\n      0x04\n        /* \"#utility.yul\":7626:7641   */\n      mstore\n        /* \"#utility.yul\":7660:7664   */\n      0x24\n        /* \"#utility.yul\":7657:7658   */\n      0x00\n        /* \"#utility.yul\":7650:7665   */\n      revert\n        /* \"#utility.yul\":7677:7997   */\n    tag_40:\n        /* \"#utility.yul\":7721:7727   */\n      0x00\n        /* \"#utility.yul\":7758:7759   */\n      0x02\n        /* \"#utility.yul\":7752:7756   */\n      dup3\n        /* \"#utility.yul\":7748:7760   */\n      div\n        /* \"#utility.yul\":7738:7760   */\n      swap1\n      pop\n        /* \"#utility.yul\":7805:7806   */\n      0x01\n        /* \"#utility.yul\":7799:7803   */\n      dup3\n        /* \"#utility.yul\":7795:7807   */\n      and\n        /* \"#utility.yul\":7826:7844   */\n      dup1\n        /* \"#utility.yul\":7816:7897   */\n      tag_181\n      jumpi\n        /* \"#utility.yul\":7882:7886   */\n      0x7f\n        /* \"#utility.yul\":7874:7880   */\n      dup3\n        /* \"#utility.yul\":7870:7887   */\n      and\n        /* \"#utility.yul\":7860:7887   */\n      swap2\n      pop\n        /* \"#utility.yul\":7816:7897   */\n    tag_181:\n        /* \"#utility.yul\":7944:7946   */\n      0x20\n        /* \"#utility.yul\":7936:7942   */\n      dup3\n        /* \"#utility.yul\":7933:7947   */\n      lt\n        /* \"#utility.yul\":7913:7931   */\n      dup2\n        /* \"#utility.yul\":7910:7948   */\n      sub\n        /* \"#utility.yul\":7907:7991   */\n      tag_182\n      jumpi\n        /* \"#utility.yul\":7963:7981   */\n      tag_183\n      tag_81\n      jump\t// in\n    tag_183:\n        /* \"#utility.yul\":7907:7991   */\n    tag_182:\n        /* \"#utility.yul\":7728:7997   */\n      pop\n        /* \"#utility.yul\":7677:7997   */\n      swap2\n      swap1\n      pop\n      jump\t// out\n        /* \"#utility.yul\":8003:8152   */\n    tag_82:\n        /* \"#utility.yul\":8052:8058   */\n      0x00\n        /* \"#utility.yul\":8086:8091   */\n      dup2\n        /* \"#utility.yul\":8080:8092   */\n      sload\n        /* \"#utility.yul\":8070:8092   */\n      swap1\n      pop\n        /* \"#utility.yul\":8112:8145   */\n      tag_185\n        /* \"#utility.yul\":8138:8144   */\n      dup2\n        /* \"#utility.yul\":8112:8145   */\n      tag_40\n      jump\t// in\n    tag_185:\n        /* \"#utility.yul\":8102:8145   */\n      swap1\n      pop\n        /* \"#utility.yul\":8003:8152   */\n      swap2\n      swap1\n      pop\n      jump\t// out\n        /* \"#utility.yul\":8158:8299   */\n    tag_83:\n        /* \"#utility.yul\":8207:8211   */\n      0x00\n        /* \"#utility.yul\":8230:8233   */\n      dup2\n        /* \"#utility.yul\":8222:8233   */\n      swap1\n      pop\n        /* \"#utility.yul\":8253:8256   */\n      dup2\n        /* \"#utility.yul\":8250:8251   */\n      0x00\n        /* \"#utility.yul\":8243:8257   */\n      mstore\n        /* \"#utility.yul\":8287:8291   */\n      0x20\n        /* \"#utility.yul\":8284:8285   */\n      0x00\n        /* \"#utility.yul\":8274:8292   */\n      keccak256\n        /* \"#utility.yul\":8266:8292   */\n      swap1\n      pop\n        /* \"#utility.yul\":8158:8299   */\n      swap2\n      swap1\n      pop\n      jump\t// out\n        /* \"#utility.yul\":8305:8398   */\n    tag_84:\n        /* \"#utility.yul\":8342:8348   */\n      0x00\n        /* \"#utility.yul\":8389:8391   */\n      0x20\n        /* \"#utility.yul\":8384:8386   */\n      0x1f\n        /* \"#utility.yul\":8377:8382   */\n      dup4\n        /* \"#utility.yul\":8373:8387   */\n      add\n        /* \"#utility.yul\":8369:8392   */\n      div\n        /* \"#utility.yul\":8359:8392   */\n      swap1\n      pop\n        /* \"#utility.yul\":8305:8398   */\n      swap2\n      swap1\n      pop\n      jump\t// out\n        /* \"#utility.yul\":8404:8511   */\n    tag_85:\n        /* \"#utility.yul\":8448:8456   */\n      0x00\n        /* \"#utility.yul\":8498:8503   */\n      dup3\n        /* \"#utility.yul\":8492:8496   */\n      dup3\n        /* \"#utility.yul\":8488:8504   */\n      shl\n        /* \"#utility.yul\":8467:8504   */\n      swap1\n      pop\n        /* \"#utility.yul\":8404:8511   */\n      swap3\n      swap2\n      pop\n      pop\n      jump\t// out\n        /* \"#utility.yul\":8517:8910   */\n    tag_86:\n        /* \"#utility.yul\":8586:8592   */\n      0x00\n        /* \"#utility.yul\":8636:8637   */\n      0x08\n        /* \"#utility.yul\":8624:8634   */\n      dup4\n        /* \"#utility.yul\":8620:8638   */\n      mul\n        /* \"#utility.yul\":8659:8756   */\n      tag_190\n        /* \"#utility.yul\":8689:8755   */\n      0xffffffffffffffffffffffffffffffffffffffffffffffffffffffffffffffff\n        /* \"#utility.yul\":8678:8687   */\n      dup3\n        /* \"#utility.yul\":8659:8756   */\n      tag_85\n      jump\t// in\n    tag_190:\n        /* \"#utility.yul\":8777:8816   */\n      tag_191\n        /* \"#utility.yul\":8807:8815   */\n      dup7\n        /* \"#utility.yul\":8796:8805   */\n      dup4\n        /* \"#utility.yul\":8777:8816   */\n      tag_85\n      jump\t// in\n    tag_191:\n        /* \"#utility.yul\":8765:8816   */\n      swap6\n      pop\n        /* \"#utility.yul\":8849:8853   */\n      dup1\n        /* \"#utility.yul\":8845:8854   */\n      not\n        /* \"#utility.yul\":8838:8843   */\n      dup5\n        /* \"#utility.yul\":8834:8855   */\n      and\n        /* \"#utility.yul\":8825:8855   */\n      swap4\n      pop\n        /* \"#utility.yul\":8898:8902   */\n      dup1\n        /* \"#utility.yul\":8888:8896   */\n      dup7\n        /* \"#utility.yul\":8884:8903   */\n      and\n        /* \"#utility.yul\":8877:8882   */\n      dup5\n        /* \"#utility.yul\":8874:8904   */\n      or\n        /* \"#utility.yul\":8864:8904   */\n      swap3\n      pop\n        /* \"#utility.yul\":8593:8910   */\n      pop\n      pop\n        /* \"#utility.yul\":8517:8910   */\n      swap4\n      swap3\n      pop\n      pop\n      pop\n      jump\t// out\n        /* \"#utility.yul\":8916:8976   */\n    tag_87:\n        /* \"#utility.yul\":8944:8947   */\n      0x00\n        /* \"#utility.yul\":8965:8970   */\n      dup2\n        /* \"#utility.yul\":8958:8970   */\n      swap1\n      pop\n        /* \"#utility.yul\":8916:8976   */\n      swap2\n      swap1\n      pop\n      jump\t// out\n        /* \"#utility.yul\":8982:9124   */\n    tag_88:\n        /* \"#utility.yul\":9032:9041   */\n      0x00\n        /* \"#utility.yul\":9065:9118   */\n      tag_194\n        /* \"#utility.yul\":9083:9117   */\n      tag_195\n        /* \"#utility.yul\":9092:9116   */\n      tag_196\n        /* \"#utility.yul\":9110:9115   */\n      dup5\n        /* \"#utility.yul\":9092:9116   */\n      tag_71\n      jump\t// in\n    tag_196:\n        /* \"#utility.yul\":9083:9117   */\n      tag_87\n      jump\t// in\n    tag_195:\n        /* \"#utility.yul\":9065:9118   */\n      tag_71\n      jump\t// in\n    tag_194:\n        /* \"#utility.yul\":9052:9118   */\n      swap1\n      pop\n        /* \"#utility.yul\":8982:9124   */\n      swap2\n      swap1\n      pop\n      jump\t// out\n        /* \"#utility.yul\":9130:9205   */\n    tag_89:\n        /* \"#utility.yul\":9173:9176   */\n      0x00\n        /* \"#utility.yul\":9194:9199   */\n      dup2\n        /* \"#utility.yul\":9187:9199   */\n      swap1\n      pop\n        /* \"#utility.yul\":9130:9205   */\n      swap2\n      swap1\n      pop\n      jump\t// out\n        /* \"#utility.yul\":9211:9480   */\n    tag_90:\n        /* \"#utility.yul\":9321:9360   */\n      tag_199\n        /* \"#utility.yul\":9352:9359   */\n      dup4\n        /* \"#utility.yul\":9321:9360   */\n      tag_88\n      jump\t// in\n    tag_199:\n        /* \"#utility.yul\":9382:9473   */\n      tag_200\n        /* \"#utility.yul\":9431:9472   */\n      tag_201\n        /* \"#utility.yul\":9455:9471   */\n      dup3\n        /* \"#utility.yul\":9431:9472   */\n      tag_89\n      jump\t// in\n    tag_201:\n        /* \"#utility.yul\":9423:9429   */\n      dup5\n        /* \"#utility.yul\":9416:9420   */\n      dup5\n        /* \"#utility.yul\":9410:9421   */\n      sload\n        /* \"#utility.yul\":9382:9473   */\n      tag_86\n      jump\t// in\n    tag_200:\n        /* \"#utility.yul\":9376:9380   */\n      dup3\n        /* \"#utility.yul\":9369:9474   */\n      sstore\n        /* \"#utility.yul\":9287:9480   */\n      pop\n        /* \"#utility.yul\":9211:9480   */\n      pop\n      pop\n      pop\n      jump\t// out\n        /* \"#utility.yul\":9486:9559   */\n    tag_91:\n        /* \"#utility.yul\":9531:9534   */\n      0x00\n        /* \"#utility.yul\":9486:9559   */\n      swap1\n      jump\t// out\n        /* \"#utility.yul\":9565:9754   */\n    tag_92:\n        /* \"#utility.yul\":9642:9674   */\n      tag_204\n      tag_91\n      jump\t// in\n    tag_204:\n        /* \"#utility.yul\":9683:9748   */\n      tag_205\n        /* \"#utility.yul\":9741:9747   */\n      dup2\n        /* \"#utility.yul\":9733:9739   */\n      dup5\n        /* \"#utility.yul\":9727:9731   */\n      dup5\n        /* \"#utility.yul\":9683:9748   */\n      tag_90\n      jump\t// in\n    tag_205:\n        /* \"#utility.yul\":9618:9754   */\n      pop\n        /* \"#utility.yul\":9565:9754   */\n      pop\n      pop\n      jump\t// out\n        /* \"#utility.yul\":9760:9946   */\n    tag_93:\n        /* \"#utility.yul\":9820:9940   */\n    tag_207:\n        /* \"#utility.yul\":9837:9840   */\n      dup2\n        /* \"#utility.yul\":9830:9835   */\n      dup2\n        /* \"#utility.yul\":9827:9841   */\n      lt\n        /* \"#utility.yul\":9820:9940   */\n      iszero\n      tag_209\n      jumpi\n        /* \"#utility.yul\":9891:9930   */\n      tag_210\n        /* \"#utility.yul\":9928:9929   */\n      0x00\n        /* \"#utility.yul\":9921:9926   */\n      dup3\n        /* \"#utility.yul\":9891:9930   */\n      tag_92\n      jump\t// in\n    tag_210:\n        /* \"#utility.yul\":9864:9865   */\n      0x01\n        /* \"#utility.yul\":9857:9862   */\n      dup2\n        /* \"#utility.yul\":9853:9866   */\n      add\n        /* \"#utility.yul\":9844:9866   */\n      swap1\n      pop\n        /* \"#utility.yul\":9820:9940   */\n      jump(tag_207)\n    tag_209:\n        /* \"#utility.yul\":9760:9946   */\n      pop\n      pop\n      jump\t// out\n        /* \"#utility.yul\":9952:10495   */\n    tag_94:\n        /* \"#utility.yul\":10053:10055   */\n      0x1f\n        /* \"#utility.yul\":10048:10051   */\n      dup3\n        /* \"#utility.yul\":10045:10056   */\n      gt\n        /* \"#utility.yul\":10042:10488   */\n      iszero\n      tag_212\n      jumpi\n        /* \"#utility.yul\":10087:10125   */\n      tag_213\n        /* \"#utility.yul\":10119:10124   */\n      dup2\n        /* \"#utility.yul\":10087:10125   */\n      tag_83\n      jump\t// in\n    tag_213:\n        /* \"#utility.yul\":10171:10200   */\n      tag_214\n        /* \"#utility.yul\":10189:10199   */\n      dup5\n        /* \"#utility.yul\":10171:10200   */\n      tag_84\n      jump\t// in\n    tag_214:\n        /* \"#utility.yul\":10161:10169   */\n      dup2\n        /* \"#utility.yul\":10157:10201   */\n      add\n        /* \"#utility.yul\":10354:10356   */\n      0x20\n        /* \"#utility.yul\":10342:10352   */\n      dup6\n        /* \"#utility.yul\":10339:10357   */\n      lt\n        /* \"#utility.yul\":10336:10385   */\n      iszero\n      tag_215\n      jumpi\n        /* \"#utility.yul\":10375:10383   */\n      dup2\n        /* \"#utility.yul\":10360:10383   */\n      swap1\n      pop\n        /* \"#utility.yul\":10336:10385   */\n    tag_215:\n        /* \"#utility.yul\":10398:10478   */\n      tag_216\n        /* \"#utility.yul\":10454:10476   */\n      tag_217\n        /* \"#utility.yul\":10472:10475   */\n      dup6\n        /* \"#utility.yul\":10454:10476   */\n      tag_84\n      jump\t// in\n    tag_217:\n        /* \"#utility.yul\":10444:10452   */\n      dup4\n        /* \"#utility.yul\":10440:10477   */\n      add\n        /* \"#utility.yul\":10427:10438   */\n      dup3\n        /* \"#utility.yul\":10398:10478   */\n      tag_93\n      jump\t// in\n    tag_216:\n        /* \"#utility.yul\":10057:10488   */\n      pop\n      pop\n        /* \"#utility.yul\":10042:10488   */\n    tag_212:\n        /* \"#utility.yul\":9952:10495   */\n      pop\n      pop\n      pop\n      jump\t// out\n        /* \"#utility.yul\":10501:10618   */\n    tag_95:\n        /* \"#utility.yul\":10555:10563   */\n      0x00\n        /* \"#utility.yul\":10605:10610   */\n      dup3\n        /* \"#utility.yul\":10599:10603   */\n      dup3\n        /* \"#utility.yul\":10595:10611   */\n      shr\n        /* \"#utility.yul\":10574:10611   */\n      swap1\n      pop\n        /* \"#utility.yul\":10501:10618   */\n      swap3\n      swap2\n      pop\n      pop\n      jump\t// out\n        /* \"#utility.yul\":10624:10793   */\n    tag_96:\n        /* \"#utility.yul\":10668:10674   */\n      0x00\n        /* \"#utility.yul\":10701:10752   */\n      tag_220\n        /* \"#utility.yul\":10749:10750   */\n      0x00\n        /* \"#utility.yul\":10745:10751   */\n      not\n        /* \"#utility.yul\":10737:10742   */\n      dup5\n        /* \"#utility.yul\":10734:10735   */\n      0x08\n        /* \"#utility.yul\":10730:10743   */\n      mul\n        /* \"#utility.yul\":10701:10752   */\n      tag_95\n      jump\t// in\n    tag_220:\n        /* \"#utility.yul\":10697:10753   */\n      not\n        /* \"#utility.yul\":10782:10786   */\n      dup1\n        /* \"#utility.yul\":10776:10780   */\n      dup4\n        /* \"#utility.yul\":10772:10787   */\n      and\n        /* \"#utility.yul\":10762:10787   */\n      swap2\n      pop\n        /* \"#utility.yul\":10675:10793   */\n      pop\n        /* \"#utility.yul\":10624:10793   */\n      swap3\n      swap2\n      pop\n      pop\n      jump\t// out\n        /* \"#utility.yul\":10798:11093   */\n    tag_97:\n        /* \"#utility.yul\":10874:10878   */\n      0x00\n        /* \"#utility.yul\":11020:11049   */\n      tag_222\n        /* \"#utility.yul\":11045:11048   */\n      dup4\n        /* \"#utility.yul\":11039:11043   */\n      dup4\n        /* \"#utility.yul\":11020:11049   */\n      tag_96\n      jump\t// in\n    tag_222:\n        /* \"#utility.yul\":11012:11049   */\n      swap2\n      pop\n        /* \"#utility.yul\":11082:11085   */\n      dup3\n        /* \"#utility.yul\":11079:11080   */\n      0x02\n        /* \"#utility.yul\":11075:11086   */\n      mul\n        /* \"#utility.yul\":11069:11073   */\n      dup3\n        /* \"#utility.yul\":11066:11087   */\n      or\n        /* \"#utility.yul\":11058:11087   */\n      swap1\n      pop\n        /* \"#utility.yul\":10798:11093   */\n      swap3\n      swap2\n      pop\n      pop\n      jump\t// out\n        /* \"#utility.yul\":11098:12549   */\n    tag_36:\n        /* \"#utility.yul\":11209:11212   */\n      dup2\n        /* \"#utility.yul\":11203:11207   */\n      dup2\n        /* \"#utility.yul\":11200:11213   */\n      sub\n        /* \"#utility.yul\":11197:11223   */\n      tag_224\n      jumpi\n        /* \"#utility.yul\":11216:11221   */\n      pop\n      pop\n      jump(tag_223)\n        /* \"#utility.yul\":11197:11223   */\n    tag_224:\n        /* \"#utility.yul\":11247:11281   */\n      tag_225\n        /* \"#utility.yul\":11277:11280   */\n      dup3\n        /* \"#utility.yul\":11247:11281   */\n      tag_82\n      jump\t// in\n    tag_225:\n        /* \"#utility.yul\":11346:11364   */\n      0xffffffffffffffff\n        /* \"#utility.yul\":11338:11344   */\n      dup2\n        /* \"#utility.yul\":11335:11365   */\n      gt\n        /* \"#utility.yul\":11332:11388   */\n      iszero\n      tag_226\n      jumpi\n        /* \"#utility.yul\":11368:11386   */\n      tag_227\n      tag_64\n      jump\t// in\n    tag_227:\n        /* \"#utility.yul\":11332:11388   */\n    tag_226:\n        /* \"#utility.yul\":11412:11450   */\n      tag_228\n        /* \"#utility.yul\":11444:11448   */\n      dup3\n        /* \"#utility.yul\":11438:11449   */\n      sload\n        /* \"#utility.yul\":11412:11450   */\n      tag_40\n      jump\t// in\n    tag_228:\n        /* \"#utility.yul\":11497:11564   */\n      tag_229\n        /* \"#utility.yul\":11557:11563   */\n      dup3\n        /* \"#utility.yul\":11549:11555   */\n      dup3\n        /* \"#utility.yul\":11543:11547   */\n      dup6\n        /* \"#utility.yul\":11497:11564   */\n      tag_94\n      jump\t// in\n    tag_229:\n        /* \"#utility.yul\":11591:11592   */\n      0x00\n        /* \"#utility.yul\":11620:11622   */\n      0x1f\n        /* \"#utility.yul\":11612:11618   */\n      dup4\n        /* \"#utility.yul\":11609:11623   */\n      gt\n        /* \"#utility.yul\":11637:11638   */\n      0x01\n        /* \"#utility.yul\":11632:12304   */\n      dup2\n      eq\n      tag_231\n      jumpi\n        /* \"#utility.yul\":12348:12349   */\n      0x00\n        /* \"#utility.yul\":12365:12371   */\n      dup5\n        /* \"#utility.yul\":12362:12439   */\n      iszero\n      tag_232\n      jumpi\n        /* \"#utility.yul\":12414:12423   */\n      dup3\n        /* \"#utility.yul\":12409:12412   */\n      dup8\n        /* \"#utility.yul\":12405:12424   */\n      add\n        /* \"#utility.yul\":12399:12425   */\n      sload\n        /* \"#utility.yul\":12390:12425   */\n      swap1\n      pop\n        /* \"#utility.yul\":12362:12439   */\n    tag_232:\n        /* \"#utility.yul\":12465:12532   */\n      tag_233\n        /* \"#utility.yul\":12525:12531   */\n      dup6\n        /* \"#utility.yul\":12518:12523   */\n      dup3\n        /* \"#utility.yul\":12465:12532   */\n      tag_97\n      jump\t// in\n    tag_233:\n        /* \"#utility.yul\":12459:12463   */\n      dup7\n        /* \"#utility.yul\":12452:12533   */\n      sstore\n        /* \"#utility.yul\":12321:12543   */\n      pop\n        /* \"#utility.yul\":11602:12543   */\n      jump(tag_230)\n        /* \"#utility.yul\":11632:12304   */\n    tag_231:\n        /* \"#utility.yul\":11684:11688   */\n      0x1f\n        /* \"#utility.yul\":11680:11689   */\n      not\n        /* \"#utility.yul\":11672:11678   */\n      dup5\n        /* \"#utility.yul\":11668:11690   */\n      and\n        /* \"#utility.yul\":11710:11746   */\n      tag_234\n        /* \"#utility.yul\":11742:11745   */\n      dup8\n        /* \"#utility.yul\":11710:11746   */\n      tag_83\n      jump\t// in\n    tag_234:\n        /* \"#utility.yul\":11703:11746   */\n      swap7\n      pop\n        /* \"#utility.yul\":11773:11810   */\n      tag_235\n        /* \"#utility.yul\":11805:11809   */\n      dup7\n        /* \"#utility.yul\":11773:11810   */\n      tag_83\n      jump\t// in\n    tag_235:\n        /* \"#utility.yul\":11832:11833   */\n      0x00\n        /* \"#utility.yul\":11846:12053   */\n    tag_236:\n        /* \"#utility.yul\":11860:11867   */\n      dup3\n        /* \"#utility.yul\":11857:11858   */\n      dup2\n        /* \"#utility.yul\":11854:11868   */\n      lt\n        /* \"#utility.yul\":11846:12053   */\n      iszero\n      tag_238\n      jumpi\n        /* \"#utility.yul\":11939:11948   */\n      dup5\n        /* \"#utility.yul\":11934:11937   */\n      dup10\n        /* \"#utility.yul\":11930:11949   */\n      add\n        /* \"#utility.yul\":11924:11950   */\n      sload\n        /* \"#utility.yul\":11916:11922   */\n      dup3\n        /* \"#utility.yul\":11909:11951   */\n      sstore\n        /* \"#utility.yul\":11990:11991   */\n      0x01\n        /* \"#utility.yul\":11982:11988   */\n      dup3\n        /* \"#utility.yul\":11978:11992   */\n      add\n        /* \"#utility.yul\":11968:11992   */\n      swap2\n      pop\n        /* \"#utility.yul\":12037:12038   */\n      0x01\n        /* \"#utility.yul\":12026:12035   */\n      dup6\n        /* \"#utility.yul\":12022:12039   */\n      add\n        /* \"#utility.yul\":12009:12039   */\n      swap5\n      pop\n        /* \"#utility.yul\":11883:11887   */\n      0x20\n        /* \"#utility.yul\":11880:11881   */\n      dup2\n        /* \"#utility.yul\":11876:11888   */\n      add\n        /* \"#utility.yul\":11871:11888   */\n      swap1\n      pop\n        /* \"#utility.yul\":11846:12053   */\n      jump(tag_236)\n    tag_238:\n        /* \"#utility.yul\":12081:12087   */\n      dup7\n        /* \"#utility.yul\":12072:12079   */\n      dup4\n        /* \"#utility.yul\":12069:12088   */\n      lt\n        /* \"#utility.yul\":12066:12245   */\n      iszero\n      tag_239\n      jumpi\n        /* \"#utility.yul\":12139:12148   */\n      dup5\n        /* \"#utility.yul\":12134:12137   */\n      dup10\n        /* \"#utility.yul\":12130:12149   */\n      add\n        /* \"#utility.yul\":12124:12150   */\n      sload\n        /* \"#utility.yul\":12182:12230   */\n      tag_240\n        /* \"#utility.yul\":12224:12228   */\n      0x1f\n        /* \"#utility.yul\":12216:12222   */\n      dup10\n        /* \"#utility.yul\":12212:12229   */\n      and\n        /* \"#utility.yul\":12201:12210   */\n      dup3\n        /* \"#utility.yul\":12182:12230   */\n      tag_96\n      jump\t// in\n    tag_240:\n        /* \"#utility.yul\":12174:12180   */\n      dup4\n        /* \"#utility.yul\":12167:12231   */\n      sstore\n        /* \"#utility.yul\":12089:12245   */\n      pop\n        /* \"#utility.yul\":12066:12245   */\n    tag_239:\n        /* \"#utility.yul\":12291:12292   */\n      0x01\n        /* \"#utility.yul\":12287:12288   */\n      0x02\n        /* \"#utility.yul\":12279:12285   */\n      dup9\n        /* \"#utility.yul\":12275:12289   */\n      mul\n        /* \"#utility.yul\":12271:12293   */\n      add\n        /* \"#utility.yul\":12265:12269   */\n      dup9\n        /* \"#utility.yul\":12258:12294   */\n      sstore\n        /* \"#utility.yul\":11639:12304   */\n      pop\n      pop\n      pop\n        /* \"#utility.yul\":11602:12543   */\n    tag_230:\n      pop\n        /* \"#utility.yul\":11187:12549   */\n      pop\n      pop\n      pop\n        /* \"#utility.yul\":11098:12549   */\n      pop\n      pop\n    tag_223:\n      jump\t// out\n        /* \"#utility.yul\":12555:13950   */\n    tag_53:\n        /* \"#utility.yul\":12672:12709   */\n      tag_242\n        /* \"#utility.yul\":12705:12708   */\n      dup3\n        /* \"#utility.yul\":12672:12709   */\n      tag_74\n      jump\t// in\n    tag_242:\n        /* \"#utility.yul\":12774:12792   */\n      0xffffffffffffffff\n        /* \"#utility.yul\":12766:12772   */\n      dup2\n        /* \"#utility.yul\":12763:12793   */\n      gt\n        /* \"#utility.yul\":12760:12816   */\n      iszero\n      tag_243\n      jumpi\n        /* \"#utility.yul\":12796:12814   */\n      tag_244\n      tag_64\n      jump\t// in\n    tag_244:\n        /* \"#utility.yul\":12760:12816   */\n    tag_243:\n        /* \"#utility.yul\":12840:12878   */\n      tag_245\n        /* \"#utility.yul\":12872:12876   */\n      dup3\n        /* \"#utility.yul\":12866:12877   */\n      sload\n        /* \"#utility.yul\":12840:12878   */\n      tag_40\n      jump\t// in\n    tag_245:\n        /* \"#utility.yul\":12925:12992   */\n      tag_246\n        /* \"#utility.yul\":12985:12991   */\n      dup3\n        /* \"#utility.yul\":12977:12983   */\n      dup3\n        /* \"#utility.yul\":12971:12975   */\n      dup6\n        /* \"#utility.yul\":12925:12992   */\n      tag_94\n      jump\t// in\n    tag_246:\n        /* \"#utility.yul\":13019:13020   */\n      0x00\n        /* \"#utility.yul\":13043:13047   */\n      0x20\n        /* \"#utility.yul\":13030:13047   */\n      swap1\n      pop\n        /* \"#utility.yul\":13075:13077   */\n      0x1f\n        /* \"#utility.yul\":13067:13073   */\n      dup4\n        /* \"#utility.yul\":13064:13078   */\n      gt\n        /* \"#utility.yul\":13092:13093   */\n      0x01\n        /* \"#utility.yul\":13087:13705   */\n      dup2\n      eq\n      tag_248\n      jumpi\n        /* \"#utility.yul\":13749:13750   */\n      0x00\n        /* \"#utility.yul\":13766:13772   */\n      dup5\n        /* \"#utility.yul\":13763:13840   */\n      iszero\n      tag_249\n      jumpi\n        /* \"#utility.yul\":13815:13824   */\n      dup3\n        /* \"#utility.yul\":13810:13813   */\n      dup8\n        /* \"#utility.yul\":13806:13825   */\n      add\n        /* \"#utility.yul\":13800:13826   */\n      mload\n        /* \"#utility.yul\":13791:13826   */\n      swap1\n      pop\n        /* \"#utility.yul\":13763:13840   */\n    tag_249:\n        /* \"#utility.yul\":13866:13933   */\n      tag_250\n        /* \"#utility.yul\":13926:13932   */\n      dup6\n        /* \"#utility.yul\":13919:13924   */\n      dup3\n        /* \"#utility.yul\":13866:13933   */\n      tag_97\n      jump\t// in\n    tag_250:\n        /* \"#utility.yul\":13860:13864   */\n      dup7\n        /* \"#utility.yul\":13853:13934   */\n      sstore\n        /* \"#utility.yul\":13722:13944   */\n      pop\n        /* \"#utility.yul\":13057:13944   */\n      jump(tag_247)\n        /* \"#utility.yul\":13087:13705   */\n    tag_248:\n        /* \"#utility.yul\":13139:13143   */\n      0x1f\n        /* \"#utility.yul\":13135:13144   */\n      not\n        /* \"#utility.yul\":13127:13133   */\n      dup5\n        /* \"#utility.yul\":13123:13145   */\n      and\n        /* \"#utility.yul\":13173:13210   */\n      tag_251\n        /* \"#utility.yul\":13205:13209   */\n      dup7\n        /* \"#utility.yul\":13173:13210   */\n      tag_83\n      jump\t// in\n    tag_251:\n        /* \"#utility.yul\":13232:13233   */\n      0x00\n        /* \"#utility.yul\":13246:13454   */\n    tag_252:\n        /* \"#utility.yul\":13260:13267   */\n      dup3\n        /* \"#utility.yul\":13257:13258   */\n      dup2\n        /* \"#utility.yul\":13254:13268   */\n      lt\n        /* \"#utility.yul\":13246:13454   */\n      iszero\n      tag_254\n      jumpi\n        /* \"#utility.yul\":13339:13348   */\n      dup5\n        /* \"#utility.yul\":13334:13337   */\n      dup10\n        /* \"#utility.yul\":13330:13349   */\n      add\n        /* \"#utility.yul\":13324:13350   */\n      mload\n        /* \"#utility.yul\":13316:13322   */\n      dup3\n        /* \"#utility.yul\":13309:13351   */\n      sstore\n        /* \"#utility.yul\":13390:13391   */\n      0x01\n        /* \"#utility.yul\":13382:13388   */\n      dup3\n        /* \"#utility.yul\":13378:13392   */\n      add\n        /* \"#utility.yul\":13368:13392   */\n      swap2\n      pop\n        /* \"#utility.yul\":13437:13439   */\n      0x20\n        /* \"#utility.yul\":13426:13435   */\n      dup6\n        /* \"#utility.yul\":13422:13440   */\n      add\n        /* \"#utility.yul\":13409:13440   */\n      swap5\n      pop\n        /* \"#utility.yul\":13283:13287   */\n      0x20\n        /* \"#utility.yul\":13280:13281   */\n      dup2\n        /* \"#utility.yul\":13276:13288   */\n      add\n        /* \"#utility.yul\":13271:13288   */\n      swap1\n      pop\n        /* \"#utility.yul\":13246:13454   */\n      jump(tag_252)\n    tag_254:\n        /* \"#utility.yul\":13482:13488   */\n      dup7\n        /* \"#utility.yul\":13473:13480   */\n      dup4\n        /* \"#utility.yul\":13470:13489   */\n      lt\n        /* \"#utility.yul\":13467:13646   */\n      iszero\n      tag_255\n      jumpi\n        /* \"#utility.yul\":13540:13549   */\n      dup5\n        /* \"#utility.yul\":13535:13538   */\n      dup10\n        /* \"#utility.yul\":13531:13550   */\n      add\n        /* \"#utility.yul\":13525:13551   */\n      mload\n        /* \"#utility.yul\":13583:13631   */\n      tag_256\n        /* \"#utility.yul\":13625:13629   */\n      0x1f\n        /* \"#utility.yul\":13617:13623   */\n      dup10\n        /* \"#utility.yul\":13613:13630   */\n      and\n        /* \"#utility.yul\":13602:13611   */\n      dup3\n        /* \"#utility.yul\":13583:13631   */\n      tag_96\n      jump\t// in\n    tag_256:\n        /* \"#utility.yul\":13575:13581   */\n      dup4\n        /* \"#utility.yul\":13568:13632   */\n      sstore\n        /* \"#utility.yul\":13490:13646   */\n      pop\n        /* \"#utility.yul\":13467:13646   */\n    tag_255:\n        /* \"#utility.yul\":13692:13693   */\n      0x01\n        /* \"#utility.yul\":13688:13689   */\n      0x02\n        /* \"#utility.yul\":13680:13686   */\n      dup9\n        /* \"#utility.yul\":13676:13690   */\n      mul\n        /* \"#utility.yul\":13672:13694   */\n      add\n        /* \"#utility.yul\":13666:13670   */\n      dup9\n        /* \"#utility.yul\":13659:13695   */\n      sstore\n        /* \"#utility.yul\":13094:13705   */\n      pop\n      pop\n      pop\n        /* \"#utility.yul\":13057:13944   */\n    tag_247:\n      pop\n        /* \"#utility.yul\":12647:13950   */\n      pop\n      pop\n      pop\n        /* \"#utility.yul\":12555:13950   */\n      pop\n      pop\n      jump\t// out\n\n    auxdata: 0xa264697066735822122050d7509217b75e1a803899dd4369263e343e1dadfde8852a99a78aa83070239d64736f6c634300081a0033\n}\n",
				"bytecode": {
					"linkReferences": {},
					"object": "6080604052348015600e575f80fd5b50610b5f8061001c5f395ff3fe608060405234801561000f575f80fd5b5060043610610055575f3560e01c80631ae0defb1461005957806327bfbee31461007557806351254646146100a6578063707338da146100d757806376e8cca9146100f3575b5f80fd5b610073600480360381019061006e9190610537565b610123565b005b61008f600480360381019061008a9190610591565b61018f565b60405161009d929190610647565b60405180910390f35b6100c060048036038101906100bb9190610591565b61024e565b6040516100ce929190610647565b60405180910390f35b6100f160048036038101906100ec9190610675565b61030b565b005b61010d60048036038101906101089190610591565b610389565b60405161011a91906106fd565b60405180910390f35b5f80836040516101339190610750565b90815260200160405180910390209050818160010181905550805f8460405161015c9190610750565b90815260200160405180910390205f8201815f01908161017c9190610975565b5060018201548160010155905050505050565b60605f805f846040516101a29190610750565b90815260200160405180910390209050805f0181600101548180546101c690610793565b80601f01602080910402602001604051908101604052809291908181526020018280546101f290610793565b801561023d5780601f106102145761010080835404028352916020019161023d565b820191905f5260205f20905b81548152906001019060200180831161022057829003601f168201915b505050505091509250925050915091565b5f818051602081018201805184825260208301602085012081835280955050505050505f91509050805f01805461028490610793565b80601f01602080910402602001604051908101604052809291908181526020018280546102b090610793565b80156102fb5780601f106102d2576101008083540402835291602001916102fb565b820191905f5260205f20905b8154815290600101906020018083116102de57829003601f168201915b5050505050908060010154905082565b5f808260405161031b9190610750565b9081526020016040518091039020905083815f01908161033b9190610a5a565b50828160010181905550805f836040516103559190610750565b90815260200160405180910390205f8201815f0190816103759190610975565b506001820154816001015590505050505050565b5f805f8360405161039a9190610750565b908152602001604051809103902090508060010154915050919050565b5f604051905090565b5f80fd5b5f80fd5b5f80fd5b5f80fd5b5f601f19601f8301169050919050565b7f4e487b71000000000000000000000000000000000000000000000000000000005f52604160045260245ffd5b610416826103d0565b810181811067ffffffffffffffff82111715610435576104346103e0565b5b80604052505050565b5f6104476103b7565b9050610453828261040d565b919050565b5f67ffffffffffffffff821115610472576104716103e0565b5b61047b826103d0565b9050602081019050919050565b828183375f83830152505050565b5f6104a86104a384610458565b61043e565b9050828152602081018484840111156104c4576104c36103cc565b5b6104cf848285610488565b509392505050565b5f82601f8301126104eb576104ea6103c8565b5b81356104fb848260208601610496565b91505092915050565b5f819050919050565b61051681610504565b8114610520575f80fd5b50565b5f813590506105318161050d565b92915050565b5f806040838503121561054d5761054c6103c0565b5b5f83013567ffffffffffffffff81111561056a576105696103c4565b5b610576858286016104d7565b925050602061058785828601610523565b9150509250929050565b5f602082840312156105a6576105a56103c0565b5b5f82013567ffffffffffffffff8111156105c3576105c26103c4565b5b6105cf848285016104d7565b91505092915050565b5f81519050919050565b5f82825260208201905092915050565b8281835e5f83830152505050565b5f61060a826105d8565b61061481856105e2565b93506106248185602086016105f2565b61062d816103d0565b840191505092915050565b61064181610504565b82525050565b5f6040820190508181035f83015261065f8185610600565b905061066e6020830184610638565b9392505050565b5f805f6060848603121561068c5761068b6103c0565b5b5f84013567ffffffffffffffff8111156106a9576106a86103c4565b5b6106b5868287016104d7565b93505060206106c686828701610523565b925050604084013567ffffffffffffffff8111156106e7576106e66103c4565b5b6106f3868287016104d7565b9150509250925092565b5f6020820190506107105f830184610638565b92915050565b5f81905092915050565b5f61072a826105d8565b6107348185610716565b93506107448185602086016105f2565b80840191505092915050565b5f61075b8284610720565b915081905092915050565b7f4e487b71000000000000000000000000000000000000000000000000000000005f52602260045260245ffd5b5f60028204905060018216806107aa57607f821691505b6020821081036107bd576107bc610766565b5b50919050565b5f815490506107d181610793565b9050919050565b5f819050815f5260205f209050919050565b5f6020601f8301049050919050565b5f82821b905092915050565b5f600883026108347fffffffffffffffffffffffffffffffffffffffffffffffffffffffffffffffff826107f9565b61083e86836107f9565b95508019841693508086168417925050509392505050565b5f819050919050565b5f61087961087461086f84610504565b610856565b610504565b9050919050565b5f819050919050565b6108928361085f565b6108a661089e82610880565b848454610805565b825550505050565b5f90565b6108ba6108ae565b6108c5818484610889565b505050565b5b818110156108e8576108dd5f826108b2565b6001810190506108cb565b5050565b601f82111561092d576108fe816107d8565b610907846107ea565b81016020851015610916578190505b61092a610922856107ea565b8301826108ca565b50505b505050565b5f82821c905092915050565b5f61094d5f1984600802610932565b1980831691505092915050565b5f610965838361093e565b9150826002028217905092915050565b818103610983575050610a58565b61098c826107c3565b67ffffffffffffffff8111156109a5576109a46103e0565b5b6109af8254610793565b6109ba8282856108ec565b5f601f8311600181146109e7575f84156109d5578287015490505b6109df858261095a565b865550610a51565b601f1984166109f5876107d8565b9650610a00866107d8565b5f5b82811015610a2757848901548255600182019150600185019450602081019050610a02565b86831015610a445784890154610a40601f89168261093e565b8355505b6001600288020188555050505b5050505050505b565b610a63826105d8565b67ffffffffffffffff811115610a7c57610a7b6103e0565b5b610a868254610793565b610a918282856108ec565b5f60209050601f831160018114610ac2575f8415610ab0578287015190505b610aba858261095a565b865550610b21565b601f198416610ad0866107d8565b5f5b82811015610af757848901518255600182019150602085019450602081019050610ad2565b86831015610b145784890151610b10601f89168261093e565b8355505b6001600288020188555050505b50505050505056fea264697066735822122050d7509217b75e1a803899dd4369263e343e1dadfde8852a99a78aa83070239d64736f6c634300081a0033",
					"opcodes": "PUSH1 0x80 PUSH1 0x40 MSTORE CALLVALUE DUP1 ISZERO PUSH1 0xE JUMPI PUSH0 DUP1 REVERT JUMPDEST POP PUSH2 0xB5F DUP1 PUSH2 0x1C PUSH0 CODECOPY PUSH0 RETURN INVALID PUSH1 0x80 PUSH1 0x40 MSTORE CALLVALUE DUP1 ISZERO PUSH2 0xF JUMPI PUSH0 DUP1 REVERT JUMPDEST POP PUSH1 0x4 CALLDATASIZE LT PUSH2 0x55 JUMPI PUSH0 CALLDATALOAD PUSH1 0xE0 SHR DUP1 PUSH4 0x1AE0DEFB EQ PUSH2 0x59 JUMPI DUP1 PUSH4 0x27BFBEE3 EQ PUSH2 0x75 JUMPI DUP1 PUSH4 0x51254646 EQ PUSH2 0xA6 JUMPI DUP1 PUSH4 0x707338DA EQ PUSH2 0xD7 JUMPI DUP1 PUSH4 0x76E8CCA9 EQ PUSH2 0xF3 JUMPI JUMPDEST PUSH0 DUP1 REVERT JUMPDEST PUSH2 0x73 PUSH1 0x4 DUP1 CALLDATASIZE SUB DUP2 ADD SWAP1 PUSH2 0x6E SWAP2 SWAP1 PUSH2 0x537 JUMP JUMPDEST PUSH2 0x123 JUMP JUMPDEST STOP JUMPDEST PUSH2 0x8F PUSH1 0x4 DUP1 CALLDATASIZE SUB DUP2 ADD SWAP1 PUSH2 0x8A SWAP2 SWAP1 PUSH2 0x591 JUMP JUMPDEST PUSH2 0x18F JUMP JUMPDEST PUSH1 0x40 MLOAD PUSH2 0x9D SWAP3 SWAP2 SWAP1 PUSH2 0x647 JUMP JUMPDEST PUSH1 0x40 MLOAD DUP1 SWAP2 SUB SWAP1 RETURN JUMPDEST PUSH2 0xC0 PUSH1 0x4 DUP1 CALLDATASIZE SUB DUP2 ADD SWAP1 PUSH2 0xBB SWAP2 SWAP1 PUSH2 0x591 JUMP JUMPDEST PUSH2 0x24E JUMP JUMPDEST PUSH1 0x40 MLOAD PUSH2 0xCE SWAP3 SWAP2 SWAP1 PUSH2 0x647 JUMP JUMPDEST PUSH1 0x40 MLOAD DUP1 SWAP2 SUB SWAP1 RETURN JUMPDEST PUSH2 0xF1 PUSH1 0x4 DUP1 CALLDATASIZE SUB DUP2 ADD SWAP1 PUSH2 0xEC SWAP2 SWAP1 PUSH2 0x675 JUMP JUMPDEST PUSH2 0x30B JUMP JUMPDEST STOP JUMPDEST PUSH2 0x10D PUSH1 0x4 DUP1 CALLDATASIZE SUB DUP2 ADD SWAP1 PUSH2 0x108 SWAP2 SWAP1 PUSH2 0x591 JUMP JUMPDEST PUSH2 0x389 JUMP JUMPDEST PUSH1 0x40 MLOAD PUSH2 0x11A SWAP2 SWAP1 PUSH2 0x6FD JUMP JUMPDEST PUSH1 0x40 MLOAD DUP1 SWAP2 SUB SWAP1 RETURN JUMPDEST PUSH0 DUP1 DUP4 PUSH1 0x40 MLOAD PUSH2 0x133 SWAP2 SWAP1 PUSH2 0x750 JUMP JUMPDEST SWAP1 DUP2 MSTORE PUSH1 0x20 ADD PUSH1 0x40 MLOAD DUP1 SWAP2 SUB SWAP1 KECCAK256 SWAP1 POP DUP2 DUP2 PUSH1 0x1 ADD DUP2 SWAP1 SSTORE POP DUP1 PUSH0 DUP5 PUSH1 0x40 MLOAD PUSH2 0x15C SWAP2 SWAP1 PUSH2 0x750 JUMP JUMPDEST SWAP1 DUP2 MSTORE PUSH1 0x20 ADD PUSH1 0x40 MLOAD DUP1 SWAP2 SUB SWAP1 KECCAK256 PUSH0 DUP3 ADD DUP2 PUSH0 ADD SWAP1 DUP2 PUSH2 0x17C SWAP2 SWAP1 PUSH2 0x975 JUMP JUMPDEST POP PUSH1 0x1 DUP3 ADD SLOAD DUP2 PUSH1 0x1 ADD SSTORE SWAP1 POP POP POP POP POP JUMP JUMPDEST PUSH1 0x60 PUSH0 DUP1 PUSH0 DUP5 PUSH1 0x40 MLOAD PUSH2 0x1A2 SWAP2 SWAP1 PUSH2 0x750 JUMP JUMPDEST SWAP1 DUP2 MSTORE PUSH1 0x20 ADD PUSH1 0x40 MLOAD DUP1 SWAP2 SUB SWAP1 KECCAK256 SWAP1 POP DUP1 PUSH0 ADD DUP2 PUSH1 0x1 ADD SLOAD DUP2 DUP1 SLOAD PUSH2 0x1C6 SWAP1 PUSH2 0x793 JUMP JUMPDEST DUP1 PUSH1 0x1F ADD PUSH1 0x20 DUP1 SWAP2 DIV MUL PUSH1 0x20 ADD PUSH1 0x40 MLOAD SWAP1 DUP2 ADD PUSH1 0x40 MSTORE DUP1 SWAP3 SWAP2 SWAP1 DUP2 DUP2 MSTORE PUSH1 0x20 ADD DUP3 DUP1 SLOAD PUSH2 0x1F2 SWAP1 PUSH2 0x793 JUMP JUMPDEST DUP1 ISZERO PUSH2 0x23D JUMPI DUP1 PUSH1 0x1F LT PUSH2 0x214 JUMPI PUSH2 0x100 DUP1 DUP4 SLOAD DIV MUL DUP4 MSTORE SWAP2 PUSH1 0x20 ADD SWAP2 PUSH2 0x23D JUMP JUMPDEST DUP3 ADD SWAP2 SWAP1 PUSH0 MSTORE PUSH1 0x20 PUSH0 KECCAK256 SWAP1 JUMPDEST DUP2 SLOAD DUP2 MSTORE SWAP1 PUSH1 0x1 ADD SWAP1 PUSH1 0x20 ADD DUP1 DUP4 GT PUSH2 0x220 JUMPI DUP3 SWAP1 SUB PUSH1 0x1F AND DUP3 ADD SWAP2 JUMPDEST POP POP POP POP POP SWAP2 POP SWAP3 POP SWAP3 POP POP SWAP2 POP SWAP2 JUMP JUMPDEST PUSH0 DUP2 DUP1 MLOAD PUSH1 0x20 DUP2 ADD DUP3 ADD DUP1 MLOAD DUP5 DUP3 MSTORE PUSH1 0x20 DUP4 ADD PUSH1 0x20 DUP6 ADD KECCAK256 DUP2 DUP4 MSTORE DUP1 SWAP6 POP POP POP POP POP POP PUSH0 SWAP2 POP SWAP1 POP DUP1 PUSH0 ADD DUP1 SLOAD PUSH2 0x284 SWAP1 PUSH2 0x793 JUMP JUMPDEST DUP1 PUSH1 0x1F ADD PUSH1 0x20 DUP1 SWAP2 DIV MUL PUSH1 0x20 ADD PUSH1 0x40 MLOAD SWAP1 DUP2 ADD PUSH1 0x40 MSTORE DUP1 SWAP3 SWAP2 SWAP1 DUP2 DUP2 MSTORE PUSH1 0x20 ADD DUP3 DUP1 SLOAD PUSH2 0x2B0 SWAP1 PUSH2 0x793 JUMP JUMPDEST DUP1 ISZERO PUSH2 0x2FB JUMPI DUP1 PUSH1 0x1F LT PUSH2 0x2D2 JUMPI PUSH2 0x100 DUP1 DUP4 SLOAD DIV MUL DUP4 MSTORE SWAP2 PUSH1 0x20 ADD SWAP2 PUSH2 0x2FB JUMP JUMPDEST DUP3 ADD SWAP2 SWAP1 PUSH0 MSTORE PUSH1 0x20 PUSH0 KECCAK256 SWAP1 JUMPDEST DUP2 SLOAD DUP2 MSTORE SWAP1 PUSH1 0x1 ADD SWAP1 PUSH1 0x20 ADD DUP1 DUP4 GT PUSH2 0x2DE JUMPI DUP3 SWAP1 SUB PUSH1 0x1F AND DUP3 ADD SWAP2 JUMPDEST POP POP POP POP POP SWAP1 DUP1 PUSH1 0x1 ADD SLOAD SWAP1 POP DUP3 JUMP JUMPDEST PUSH0 DUP1 DUP3 PUSH1 0x40 MLOAD PUSH2 0x31B SWAP2 SWAP1 PUSH2 0x750 JUMP JUMPDEST SWAP1 DUP2 MSTORE PUSH1 0x20 ADD PUSH1 0x40 MLOAD DUP1 SWAP2 SUB SWAP1 KECCAK256 SWAP1 POP DUP4 DUP2 PUSH0 ADD SWAP1 DUP2 PUSH2 0x33B SWAP2 SWAP1 PUSH2 0xA5A JUMP JUMPDEST POP DUP3 DUP2 PUSH1 0x1 ADD DUP2 SWAP1 SSTORE POP DUP1 PUSH0 DUP4 PUSH1 0x40 MLOAD PUSH2 0x355 SWAP2 SWAP1 PUSH2 0x750 JUMP JUMPDEST SWAP1 DUP2 MSTORE PUSH1 0x20 ADD PUSH1 0x40 MLOAD DUP1 SWAP2 SUB SWAP1 KECCAK256 PUSH0 DUP3 ADD DUP2 PUSH0 ADD SWAP1 DUP2 PUSH2 0x375 SWAP2 SWAP1 PUSH2 0x975 JUMP JUMPDEST POP PUSH1 0x1 DUP3 ADD SLOAD DUP2 PUSH1 0x1 ADD SSTORE SWAP1 POP POP POP POP POP POP JUMP JUMPDEST PUSH0 DUP1 PUSH0 DUP4 PUSH1 0x40 MLOAD PUSH2 0x39A SWAP2 SWAP1 PUSH2 0x750 JUMP JUMPDEST SWAP1 DUP2 MSTORE PUSH1 0x20 ADD PUSH1 0x40 MLOAD DUP1 SWAP2 SUB SWAP1 KECCAK256 SWAP1 POP DUP1 PUSH1 0x1 ADD SLOAD SWAP2 POP POP SWAP2 SWAP1 POP JUMP JUMPDEST PUSH0 PUSH1 0x40 MLOAD SWAP1 POP SWAP1 JUMP JUMPDEST PUSH0 DUP1 REVERT JUMPDEST PUSH0 DUP1 REVERT JUMPDEST PUSH0 DUP1 REVERT JUMPDEST PUSH0 DUP1 REVERT JUMPDEST PUSH0 PUSH1 0x1F NOT PUSH1 0x1F DUP4 ADD AND SWAP1 POP SWAP2 SWAP1 POP JUMP JUMPDEST PUSH32 0x4E487B7100000000000000000000000000000000000000000000000000000000 PUSH0 MSTORE PUSH1 0x41 PUSH1 0x4 MSTORE PUSH1 0x24 PUSH0 REVERT JUMPDEST PUSH2 0x416 DUP3 PUSH2 0x3D0 JUMP JUMPDEST DUP2 ADD DUP2 DUP2 LT PUSH8 0xFFFFFFFFFFFFFFFF DUP3 GT OR ISZERO PUSH2 0x435 JUMPI PUSH2 0x434 PUSH2 0x3E0 JUMP JUMPDEST JUMPDEST DUP1 PUSH1 0x40 MSTORE POP POP POP JUMP JUMPDEST PUSH0 PUSH2 0x447 PUSH2 0x3B7 JUMP JUMPDEST SWAP1 POP PUSH2 0x453 DUP3 DUP3 PUSH2 0x40D JUMP JUMPDEST SWAP2 SWAP1 POP JUMP JUMPDEST PUSH0 PUSH8 0xFFFFFFFFFFFFFFFF DUP3 GT ISZERO PUSH2 0x472 JUMPI PUSH2 0x471 PUSH2 0x3E0 JUMP JUMPDEST JUMPDEST PUSH2 0x47B DUP3 PUSH2 0x3D0 JUMP JUMPDEST SWAP1 POP PUSH1 0x20 DUP2 ADD SWAP1 POP SWAP2 SWAP1 POP JUMP JUMPDEST DUP3 DUP2 DUP4 CALLDATACOPY PUSH0 DUP4 DUP4 ADD MSTORE POP POP POP JUMP JUMPDEST PUSH0 PUSH2 0x4A8 PUSH2 0x4A3 DUP5 PUSH2 0x458 JUMP JUMPDEST PUSH2 0x43E JUMP JUMPDEST SWAP1 POP DUP3 DUP2 MSTORE PUSH1 0x20 DUP2 ADD DUP5 DUP5 DUP5 ADD GT ISZERO PUSH2 0x4C4 JUMPI PUSH2 0x4C3 PUSH2 0x3CC JUMP JUMPDEST JUMPDEST PUSH2 0x4CF DUP5 DUP3 DUP6 PUSH2 0x488 JUMP JUMPDEST POP SWAP4 SWAP3 POP POP POP JUMP JUMPDEST PUSH0 DUP3 PUSH1 0x1F DUP4 ADD SLT PUSH2 0x4EB JUMPI PUSH2 0x4EA PUSH2 0x3C8 JUMP JUMPDEST JUMPDEST DUP2 CALLDATALOAD PUSH2 0x4FB DUP5 DUP3 PUSH1 0x20 DUP7 ADD PUSH2 0x496 JUMP JUMPDEST SWAP2 POP POP SWAP3 SWAP2 POP POP JUMP JUMPDEST PUSH0 DUP2 SWAP1 POP SWAP2 SWAP1 POP JUMP JUMPDEST PUSH2 0x516 DUP2 PUSH2 0x504 JUMP JUMPDEST DUP2 EQ PUSH2 0x520 JUMPI PUSH0 DUP1 REVERT JUMPDEST POP JUMP JUMPDEST PUSH0 DUP2 CALLDATALOAD SWAP1 POP PUSH2 0x531 DUP2 PUSH2 0x50D JUMP JUMPDEST SWAP3 SWAP2 POP POP JUMP JUMPDEST PUSH0 DUP1 PUSH1 0x40 DUP4 DUP6 SUB SLT ISZERO PUSH2 0x54D JUMPI PUSH2 0x54C PUSH2 0x3C0 JUMP JUMPDEST JUMPDEST PUSH0 DUP4 ADD CALLDATALOAD PUSH8 0xFFFFFFFFFFFFFFFF DUP2 GT ISZERO PUSH2 0x56A JUMPI PUSH2 0x569 PUSH2 0x3C4 JUMP JUMPDEST JUMPDEST PUSH2 0x576 DUP6 DUP3 DUP7 ADD PUSH2 0x4D7 JUMP JUMPDEST SWAP3 POP POP PUSH1 0x20 PUSH2 0x587 DUP6 DUP3 DUP7 ADD PUSH2 0x523 JUMP JUMPDEST SWAP2 POP POP SWAP3 POP SWAP3 SWAP1 POP JUMP JUMPDEST PUSH0 PUSH1 0x20 DUP3 DUP5 SUB SLT ISZERO PUSH2 0x5A6 JUMPI PUSH2 0x5A5 PUSH2 0x3C0 JUMP JUMPDEST JUMPDEST PUSH0 DUP3 ADD CALLDATALOAD PUSH8 0xFFFFFFFFFFFFFFFF DUP2 GT ISZERO PUSH2 0x5C3 JUMPI PUSH2 0x5C2 PUSH2 0x3C4 JUMP JUMPDEST JUMPDEST PUSH2 0x5CF DUP5 DUP3 DUP6 ADD PUSH2 0x4D7 JUMP JUMPDEST SWAP2 POP POP SWAP3 SWAP2 POP POP JUMP JUMPDEST PUSH0 DUP2 MLOAD SWAP1 POP SWAP2 SWAP1 POP JUMP JUMPDEST PUSH0 DUP3 DUP3 MSTORE PUSH1 0x20 DUP3 ADD SWAP1 POP SWAP3 SWAP2 POP POP JUMP JUMPDEST DUP3 DUP2 DUP4 MCOPY PUSH0 DUP4 DUP4 ADD MSTORE POP POP POP JUMP JUMPDEST PUSH0 PUSH2 0x60A DUP3 PUSH2 0x5D8 JUMP JUMPDEST PUSH2 0x614 DUP2 DUP6 PUSH2 0x5E2 JUMP JUMPDEST SWAP4 POP PUSH2 0x624 DUP2 DUP6 PUSH1 0x20 DUP7 ADD PUSH2 0x5F2 JUMP JUMPDEST PUSH2 0x62D DUP2 PUSH2 0x3D0 JUMP JUMPDEST DUP5 ADD SWAP2 POP POP SWAP3 SWAP2 POP POP JUMP JUMPDEST PUSH2 0x641 DUP2 PUSH2 0x504 JUMP JUMPDEST DUP3 MSTORE POP POP JUMP JUMPDEST PUSH0 PUSH1 0x40 DUP3 ADD SWAP1 POP DUP2 DUP2 SUB PUSH0 DUP4 ADD MSTORE PUSH2 0x65F DUP2 DUP6 PUSH2 0x600 JUMP JUMPDEST SWAP1 POP PUSH2 0x66E PUSH1 0x20 DUP4 ADD DUP5 PUSH2 0x638 JUMP JUMPDEST SWAP4 SWAP3 POP POP POP JUMP JUMPDEST PUSH0 DUP1 PUSH0 PUSH1 0x60 DUP5 DUP7 SUB SLT ISZERO PUSH2 0x68C JUMPI PUSH2 0x68B PUSH2 0x3C0 JUMP JUMPDEST JUMPDEST PUSH0 DUP5 ADD CALLDATALOAD PUSH8 0xFFFFFFFFFFFFFFFF DUP2 GT ISZERO PUSH2 0x6A9 JUMPI PUSH2 0x6A8 PUSH2 0x3C4 JUMP JUMPDEST JUMPDEST PUSH2 0x6B5 DUP7 DUP3 DUP8 ADD PUSH2 0x4D7 JUMP JUMPDEST SWAP4 POP POP PUSH1 0x20 PUSH2 0x6C6 DUP7 DUP3 DUP8 ADD PUSH2 0x523 JUMP JUMPDEST SWAP3 POP POP PUSH1 0x40 DUP5 ADD CALLDATALOAD PUSH8 0xFFFFFFFFFFFFFFFF DUP2 GT ISZERO PUSH2 0x6E7 JUMPI PUSH2 0x6E6 PUSH2 0x3C4 JUMP JUMPDEST JUMPDEST PUSH2 0x6F3 DUP7 DUP3 DUP8 ADD PUSH2 0x4D7 JUMP JUMPDEST SWAP2 POP POP SWAP3 POP SWAP3 POP SWAP3 JUMP JUMPDEST PUSH0 PUSH1 0x20 DUP3 ADD SWAP1 POP PUSH2 0x710 PUSH0 DUP4 ADD DUP5 PUSH2 0x638 JUMP JUMPDEST SWAP3 SWAP2 POP POP JUMP JUMPDEST PUSH0 DUP2 SWAP1 POP SWAP3 SWAP2 POP POP JUMP JUMPDEST PUSH0 PUSH2 0x72A DUP3 PUSH2 0x5D8 JUMP JUMPDEST PUSH2 0x734 DUP2 DUP6 PUSH2 0x716 JUMP JUMPDEST SWAP4 POP PUSH2 0x744 DUP2 DUP6 PUSH1 0x20 DUP7 ADD PUSH2 0x5F2 JUMP JUMPDEST DUP1 DUP5 ADD SWAP2 POP POP SWAP3 SWAP2 POP POP JUMP JUMPDEST PUSH0 PUSH2 0x75B DUP3 DUP5 PUSH2 0x720 JUMP JUMPDEST SWAP2 POP DUP2 SWAP1 POP SWAP3 SWAP2 POP POP JUMP JUMPDEST PUSH32 0x4E487B7100000000000000000000000000000000000000000000000000000000 PUSH0 MSTORE PUSH1 0x22 PUSH1 0x4 MSTORE PUSH1 0x24 PUSH0 REVERT JUMPDEST PUSH0 PUSH1 0x2 DUP3 DIV SWAP1 POP PUSH1 0x1 DUP3 AND DUP1 PUSH2 0x7AA JUMPI PUSH1 0x7F DUP3 AND SWAP2 POP JUMPDEST PUSH1 0x20 DUP3 LT DUP2 SUB PUSH2 0x7BD JUMPI PUSH2 0x7BC PUSH2 0x766 JUMP JUMPDEST JUMPDEST POP SWAP2 SWAP1 POP JUMP JUMPDEST PUSH0 DUP2 SLOAD SWAP1 POP PUSH2 0x7D1 DUP2 PUSH2 0x793 JUMP JUMPDEST SWAP1 POP SWAP2 SWAP1 POP JUMP JUMPDEST PUSH0 DUP2 SWAP1 POP DUP2 PUSH0 MSTORE PUSH1 0x20 PUSH0 KECCAK256 SWAP1 POP SWAP2 SWAP1 POP JUMP JUMPDEST PUSH0 PUSH1 0x20 PUSH1 0x1F DUP4 ADD DIV SWAP1 POP SWAP2 SWAP1 POP JUMP JUMPDEST PUSH0 DUP3 DUP3 SHL SWAP1 POP SWAP3 SWAP2 POP POP JUMP JUMPDEST PUSH0 PUSH1 0x8 DUP4 MUL PUSH2 0x834 PUSH32 0xFFFFFFFFFFFFFFFFFFFFFFFFFFFFFFFFFFFFFFFFFFFFFFFFFFFFFFFFFFFFFFFF DUP3 PUSH2 0x7F9 JUMP JUMPDEST PUSH2 0x83E DUP7 DUP4 PUSH2 0x7F9 JUMP JUMPDEST SWAP6 POP DUP1 NOT DUP5 AND SWAP4 POP DUP1 DUP7 AND DUP5 OR SWAP3 POP POP POP SWAP4 SWAP3 POP POP POP JUMP JUMPDEST PUSH0 DUP2 SWAP1 POP SWAP2 SWAP1 POP JUMP JUMPDEST PUSH0 PUSH2 0x879 PUSH2 0x874 PUSH2 0x86F DUP5 PUSH2 0x504 JUMP JUMPDEST PUSH2 0x856 JUMP JUMPDEST PUSH2 0x504 JUMP JUMPDEST SWAP1 POP SWAP2 SWAP1 POP JUMP JUMPDEST PUSH0 DUP2 SWAP1 POP SWAP2 SWAP1 POP JUMP JUMPDEST PUSH2 0x892 DUP4 PUSH2 0x85F JUMP JUMPDEST PUSH2 0x8A6 PUSH2 0x89E DUP3 PUSH2 0x880 JUMP JUMPDEST DUP5 DUP5 SLOAD PUSH2 0x805 JUMP JUMPDEST DUP3 SSTORE POP POP POP POP JUMP JUMPDEST PUSH0 SWAP1 JUMP JUMPDEST PUSH2 0x8BA PUSH2 0x8AE JUMP JUMPDEST PUSH2 0x8C5 DUP2 DUP5 DUP5 PUSH2 0x889 JUMP JUMPDEST POP POP POP JUMP JUMPDEST JUMPDEST DUP2 DUP2 LT ISZERO PUSH2 0x8E8 JUMPI PUSH2 0x8DD PUSH0 DUP3 PUSH2 0x8B2 JUMP JUMPDEST PUSH1 0x1 DUP2 ADD SWAP1 POP PUSH2 0x8CB JUMP JUMPDEST POP POP JUMP JUMPDEST PUSH1 0x1F DUP3 GT ISZERO PUSH2 0x92D JUMPI PUSH2 0x8FE DUP2 PUSH2 0x7D8 JUMP JUMPDEST PUSH2 0x907 DUP5 PUSH2 0x7EA JUMP JUMPDEST DUP2 ADD PUSH1 0x20 DUP6 LT ISZERO PUSH2 0x916 JUMPI DUP2 SWAP1 POP JUMPDEST PUSH2 0x92A PUSH2 0x922 DUP6 PUSH2 0x7EA JUMP JUMPDEST DUP4 ADD DUP3 PUSH2 0x8CA JUMP JUMPDEST POP POP JUMPDEST POP POP POP JUMP JUMPDEST PUSH0 DUP3 DUP3 SHR SWAP1 POP SWAP3 SWAP2 POP POP JUMP JUMPDEST PUSH0 PUSH2 0x94D PUSH0 NOT DUP5 PUSH1 0x8 MUL PUSH2 0x932 JUMP JUMPDEST NOT DUP1 DUP4 AND SWAP2 POP POP SWAP3 SWAP2 POP POP JUMP JUMPDEST PUSH0 PUSH2 0x965 DUP4 DUP4 PUSH2 0x93E JUMP JUMPDEST SWAP2 POP DUP3 PUSH1 0x2 MUL DUP3 OR SWAP1 POP SWAP3 SWAP2 POP POP JUMP JUMPDEST DUP2 DUP2 SUB PUSH2 0x983 JUMPI POP POP PUSH2 0xA58 JUMP JUMPDEST PUSH2 0x98C DUP3 PUSH2 0x7C3 JUMP JUMPDEST PUSH8 0xFFFFFFFFFFFFFFFF DUP2 GT ISZERO PUSH2 0x9A5 JUMPI PUSH2 0x9A4 PUSH2 0x3E0 JUMP JUMPDEST JUMPDEST PUSH2 0x9AF DUP3 SLOAD PUSH2 0x793 JUMP JUMPDEST PUSH2 0x9BA DUP3 DUP3 DUP6 PUSH2 0x8EC JUMP JUMPDEST PUSH0 PUSH1 0x1F DUP4 GT PUSH1 0x1 DUP2 EQ PUSH2 0x9E7 JUMPI PUSH0 DUP5 ISZERO PUSH2 0x9D5 JUMPI DUP3 DUP8 ADD SLOAD SWAP1 POP JUMPDEST PUSH2 0x9DF DUP6 DUP3 PUSH2 0x95A JUMP JUMPDEST DUP7 SSTORE POP PUSH2 0xA51 JUMP JUMPDEST PUSH1 0x1F NOT DUP5 AND PUSH2 0x9F5 DUP8 PUSH2 0x7D8 JUMP JUMPDEST SWAP7 POP PUSH2 0xA00 DUP7 PUSH2 0x7D8 JUMP JUMPDEST PUSH0 JUMPDEST DUP3 DUP2 LT ISZERO PUSH2 0xA27 JUMPI DUP5 DUP10 ADD SLOAD DUP3 SSTORE PUSH1 0x1 DUP3 ADD SWAP2 POP PUSH1 0x1 DUP6 ADD SWAP5 POP PUSH1 0x20 DUP2 ADD SWAP1 POP PUSH2 0xA02 JUMP JUMPDEST DUP7 DUP4 LT ISZERO PUSH2 0xA44 JUMPI DUP5 DUP10 ADD SLOAD PUSH2 0xA40 PUSH1 0x1F DUP10 AND DUP3 PUSH2 0x93E JUMP JUMPDEST DUP4 SSTORE POP JUMPDEST PUSH1 0x1 PUSH1 0x2 DUP9 MUL ADD DUP9 SSTORE POP POP POP JUMPDEST POP POP POP POP POP POP JUMPDEST JUMP JUMPDEST PUSH2 0xA63 DUP3 PUSH2 0x5D8 JUMP JUMPDEST PUSH8 0xFFFFFFFFFFFFFFFF DUP2 GT ISZERO PUSH2 0xA7C JUMPI PUSH2 0xA7B PUSH2 0x3E0 JUMP JUMPDEST JUMPDEST PUSH2 0xA86 DUP3 SLOAD PUSH2 0x793 JUMP JUMPDEST PUSH2 0xA91 DUP3 DUP3 DUP6 PUSH2 0x8EC JUMP JUMPDEST PUSH0 PUSH1 0x20 SWAP1 POP PUSH1 0x1F DUP4 GT PUSH1 0x1 DUP2 EQ PUSH2 0xAC2 JUMPI PUSH0 DUP5 ISZERO PUSH2 0xAB0 JUMPI DUP3 DUP8 ADD MLOAD SWAP1 POP JUMPDEST PUSH2 0xABA DUP6 DUP3 PUSH2 0x95A JUMP JUMPDEST DUP7 SSTORE POP PUSH2 0xB21 JUMP JUMPDEST PUSH1 0x1F NOT DUP5 AND PUSH2 0xAD0 DUP7 PUSH2 0x7D8 JUMP JUMPDEST PUSH0 JUMPDEST DUP3 DUP2 LT ISZERO PUSH2 0xAF7 JUMPI DUP5 DUP10 ADD MLOAD DUP3 SSTORE PUSH1 0x1 DUP3 ADD SWAP2 POP PUSH1 0x20 DUP6 ADD SWAP5 POP PUSH1 0x20 DUP2 ADD SWAP1 POP PUSH2 0xAD2 JUMP JUMPDEST DUP7 DUP4 LT ISZERO PUSH2 0xB14 JUMPI DUP5 DUP10 ADD MLOAD PUSH2 0xB10 PUSH1 0x1F DUP10 AND DUP3 PUSH2 0x93E JUMP JUMPDEST DUP4 SSTORE POP JUMPDEST PUSH1 0x1 PUSH1 0x2 DUP9 MUL ADD DUP9 SSTORE POP POP POP JUMPDEST POP POP POP POP POP POP JUMP INVALID LOG2 PUSH5 0x6970667358 0x22 SLT KECCAK256 POP 0xD7 POP SWAP3 OR 0xB7 MCOPY BYTE DUP1 CODESIZE SWAP10 0xDD NUMBER PUSH10 0x263E343E1DADFDE8852A SWAP10 0xA7 DUP11 0xA8 ADDRESS PUSH17 0x239D64736F6C634300081A003300000000 "
				},
				"gasEstimates": {
					"creation": {
						"codeDepositCost": "582200",
						"executionCost": "611",
						"totalCost": "582811"
					},
					"external": {
						"addEmployee(string,uint256,string)": "infinite",
						"employeesMap(string)": "infinite",
						"getEmpDetails(string)": "infinite",
						"getEmpSalary(string)": "infinite",
						"updateEmpSalary(string,uint256)": "infinite"
					}
				},
				"methodIdentifiers": {
					"addEmployee(string,uint256,string)": "707338da",
					"employeesMap(string)": "51254646",
					"getEmpDetails(string)": "27bfbee3",
					"getEmpSalary(string)": "76e8cca9",
					"updateEmpSalary(string,uint256)": "1ae0defb"
				}
			},
			"storageLayout": {
				"storage": [
					{
						"astId": 12,
						"contract": "Salarytracker.sol:Salarytracker",
						"label": "employeesMap",
						"offset": 0,
						"slot": "0",
						"type": "t_mapping(t_string_memory_ptr,t_struct(Employees)7_storage)"
					}
				],
				"types": {
					"t_mapping(t_string_memory_ptr,t_struct(Employees)7_storage)": {
						"encoding": "mapping",
						"key": "t_string_memory_ptr",
						"label": "mapping(string => struct Salarytracker.Employees)",
						"numberOfBytes": "32",
						"value": "t_struct(Employees)7_storage"
					},
					"t_string_memory_ptr": {
						"encoding": "bytes",
						"label": "string",
						"numberOfBytes": "32"
					},
					"t_string_storage": {
						"encoding": "bytes",
						"label": "string",
						"numberOfBytes": "32"
					},
					"t_struct(Employees)7_storage": {
						"encoding": "inplace",
						"label": "struct Salarytracker.Employees",
						"members": [
							{
								"astId": 4,
								"contract": "Salarytracker.sol:Salarytracker",
								"label": "name",
								"offset": 0,
								"slot": "0",
								"type": "t_string_storage"
							},
							{
								"astId": 6,
								"contract": "Salarytracker.sol:Salarytracker",
								"label": "salary",
								"offset": 0,
								"slot": "1",
								"type": "t_uint256"
							}
						],
						"numberOfBytes": "64"
					},
					"t_uint256": {
						"encoding": "inplace",
						"label": "uint256",
						"numberOfBytes": "32"
					}
				}
			},
			"userdoc": {
				"kind": "user",
				"methods": {},
				"notice": "Features: 1. Add Candidates data : { Name, Age , isQualified ,  } 2. Vote Candidate 3. Get Total number of students*",
				"version": 1
			}
		}
	}
}