{
	"Record.sol": {
		"StudentRecord": {
			"abi": [
				{
					"inputs": [
						{
							"internalType": "string",
							"name": "_name",
							"type": "string"
						},
						{
							"internalType": "uint256",
							"name": "_age",
							"type": "uint256"
						},
						{
							"internalType": "string",
							"name": "_iD",
							"type": "string"
						}
					],
					"name": "addStudent",
					"outputs": [],
					"stateMutability": "nonpayable",
					"type": "function"
				},
				{
					"inputs": [],
					"name": "getTotalNumberOfStudents",
					"outputs": [
						{
							"internalType": "uint256",
							"name": "",
							"type": "uint256"
						}
					],
					"stateMutability": "view",
					"type": "function"
				},
				{
					"inputs": [
						{
							"internalType": "string",
							"name": "_iD",
							"type": "string"
						}
					],
					"name": "removeStudent",
					"outputs": [],
					"stateMutability": "nonpayable",
					"type": "function"
				},
				{
					"inputs": [
						{
							"internalType": "string",
							"name": "",
							"type": "string"
						}
					],
					"name": "student",
					"outputs": [
						{
							"internalType": "string",
							"name": "name",
							"type": "string"
						},
						{
							"internalType": "uint256",
							"name": "age",
							"type": "uint256"
						},
						{
							"internalType": "string",
							"name": "iD",
							"type": "string"
						}
					],
					"stateMutability": "view",
					"type": "function"
				},
				{
					"inputs": [
						{
							"internalType": "string",
							"name": "_iD",
							"type": "string"
						},
						{
							"internalType": "string",
							"name": "subjectName",
							"type": "string"
						},
						{
							"internalType": "uint256",
							"name": "marks",
							"type": "uint256"
						}
					],
					"name": "updateStudentGrade",
					"outputs": [],
					"stateMutability": "nonpayable",
					"type": "function"
				},
				{
					"inputs": [
						{
							"internalType": "string",
							"name": "_iD",
							"type": "string"
						}
					],
					"name": "viewStudentsGrade",
					"outputs": [
						{
							"components": [
								{
									"internalType": "string",
									"name": "subjectName",
									"type": "string"
								},
								{
									"internalType": "uint256",
									"name": "marks",
									"type": "uint256"
								}
							],
							"internalType": "struct StudentRecord.Grade[]",
							"name": "",
							"type": "tuple[]"
						}
					],
					"stateMutability": "view",
					"type": "function"
				}
			],
			"devdoc": {
				"kind": "dev",
				"methods": {},
				"version": 1
			},
			"evm": {
				"assembly": "    /* \"Record.sol\":255:1814  contract StudentRecord{... */\n  mstore(0x40, 0x80)\n  callvalue\n  dup1\n  iszero\n  tag_1\n  jumpi\n  0x00\n  dup1\n  revert\ntag_1:\n  pop\n  dataSize(sub_0)\n  dup1\n  dataOffset(sub_0)\n  0x00\n  codecopy\n  0x00\n  return\nstop\n\nsub_0: assembly {\n        /* \"Record.sol\":255:1814  contract StudentRecord{... */\n      mstore(0x40, 0x80)\n      callvalue\n      dup1\n      iszero\n      tag_1\n      jumpi\n      0x00\n      dup1\n      revert\n    tag_1:\n      pop\n      jumpi(tag_2, lt(calldatasize, 0x04))\n      shr(0xe0, calldataload(0x00))\n      dup1\n      0x3984403a\n      eq\n      tag_3\n      jumpi\n      dup1\n      0x413b09af\n      eq\n      tag_4\n      jumpi\n      dup1\n      0x59966cc4\n      eq\n      tag_5\n      jumpi\n      dup1\n      0x6c1f3ef6\n      eq\n      tag_6\n      jumpi\n      dup1\n      0xed32a8a1\n      eq\n      tag_7\n      jumpi\n      dup1\n      0xedd6cfb1\n      eq\n      tag_8\n      jumpi\n    tag_2:\n      0x00\n      dup1\n      revert\n        /* \"Record.sol\":1712:1811  function getTotalNumberOfStudents()public view returns (uint){... */\n    tag_3:\n      tag_9\n      tag_10\n      jump\t// in\n    tag_9:\n      mload(0x40)\n      tag_11\n      swap2\n      swap1\n      tag_12\n      jump\t// in\n    tag_11:\n      mload(0x40)\n      dup1\n      swap2\n      sub\n      swap1\n      return\n        /* \"Record.sol\":999:1254  function updateStudentGrade(string memory _iD, string memory subjectName ,uint marks)public{... */\n    tag_4:\n      tag_13\n      0x04\n      dup1\n      calldatasize\n      sub\n      dup2\n      add\n      swap1\n      tag_14\n      swap2\n      swap1\n      tag_15\n      jump\t// in\n    tag_14:\n      tag_16\n      jump\t// in\n    tag_13:\n      stop\n        /* \"Record.sol\":1583:1709  function viewStudentsGrade(string memory _iD )public view returns (Grade[] memory) {... */\n    tag_5:\n      tag_17\n      0x04\n      dup1\n      calldatasize\n      sub\n      dup2\n      add\n      swap1\n      tag_18\n      swap2\n      swap1\n      tag_19\n      jump\t// in\n    tag_18:\n      tag_20\n      jump\t// in\n    tag_17:\n      mload(0x40)\n      tag_21\n      swap2\n      swap1\n      tag_22\n      jump\t// in\n    tag_21:\n      mload(0x40)\n      dup1\n      swap2\n      sub\n      swap1\n      return\n        /* \"Record.sol\":521:566  mapping(string => StudentData) public student */\n    tag_6:\n      tag_23\n      0x04\n      dup1\n      calldatasize\n      sub\n      dup2\n      add\n      swap1\n      tag_24\n      swap2\n      swap1\n      tag_19\n      jump\t// in\n    tag_24:\n      tag_25\n      jump\t// in\n    tag_23:\n      mload(0x40)\n      tag_26\n      swap4\n      swap3\n      swap2\n      swap1\n      tag_27\n      jump\t// in\n    tag_26:\n      mload(0x40)\n      dup1\n      swap2\n      sub\n      swap1\n      return\n        /* \"Record.sol\":574:861  function addStudent(string memory _name, uint _age, string memory _iD)public{... */\n    tag_7:\n      tag_28\n      0x04\n      dup1\n      calldatasize\n      sub\n      dup2\n      add\n      swap1\n      tag_29\n      swap2\n      swap1\n      tag_30\n      jump\t// in\n    tag_29:\n      tag_31\n      jump\t// in\n    tag_28:\n      stop\n        /* \"Record.sol\":872:993  function removeStudent(string memory _iD )public {... */\n    tag_8:\n      tag_32\n      0x04\n      dup1\n      calldatasize\n      sub\n      dup2\n      add\n      swap1\n      tag_33\n      swap2\n      swap1\n      tag_19\n      jump\t// in\n    tag_33:\n      tag_34\n      jump\t// in\n    tag_32:\n      stop\n        /* \"Record.sol\":1712:1811  function getTotalNumberOfStudents()public view returns (uint){... */\n    tag_10:\n        /* \"Record.sol\":1768:1772  uint */\n      0x00\n        /* \"Record.sol\":1786:1807  totalNumberOfStudents */\n      sload(0x01)\n        /* \"Record.sol\":1779:1807  return totalNumberOfStudents */\n      swap1\n      pop\n        /* \"Record.sol\":1712:1811  function getTotalNumberOfStudents()public view returns (uint){... */\n      swap1\n      jump\t// out\n        /* \"Record.sol\":999:1254  function updateStudentGrade(string memory _iD, string memory subjectName ,uint marks)public{... */\n    tag_16:\n        /* \"Record.sol\":1100:1121  Grade memory newGrade */\n      0x00\n        /* \"Record.sol\":1124:1150  Grade(subjectName , marks) */\n      mload(0x40)\n      dup1\n      0x40\n      add\n      0x40\n      mstore\n      dup1\n        /* \"Record.sol\":1130:1141  subjectName */\n      dup5\n        /* \"Record.sol\":1124:1150  Grade(subjectName , marks) */\n      dup2\n      mstore\n      0x20\n      add\n        /* \"Record.sol\":1144:1149  marks */\n      dup4\n        /* \"Record.sol\":1124:1150  Grade(subjectName , marks) */\n      dup2\n      mstore\n      pop\n        /* \"Record.sol\":1100:1150  Grade memory newGrade = Grade(subjectName , marks) */\n      swap1\n      pop\n        /* \"Record.sol\":1160:1190  StudentData storage newStudent */\n      0x00\n        /* \"Record.sol\":1193:1200  student */\n      0x02\n        /* \"Record.sol\":1201:1204  _iD */\n      dup6\n        /* \"Record.sol\":1193:1205  student[_iD] */\n      mload(0x40)\n      tag_37\n      swap2\n      swap1\n      tag_38\n      jump\t// in\n    tag_37:\n      swap1\n      dup2\n      mstore\n      0x20\n      add\n      mload(0x40)\n      dup1\n      swap2\n      sub\n      swap1\n      keccak256\n        /* \"Record.sol\":1160:1205  StudentData storage newStudent = student[_iD] */\n      swap1\n      pop\n        /* \"Record.sol\":1215:1225  newStudent */\n      dup1\n        /* \"Record.sol\":1215:1232  newStudent.grades */\n      0x03\n      add\n        /* \"Record.sol\":1238:1246  newGrade */\n      dup3\n        /* \"Record.sol\":1215:1247  newStudent.grades.push(newGrade) */\n      swap1\n      dup1\n      0x01\n      dup2\n      sload\n      add\n      dup1\n      dup3\n      sstore\n      dup1\n      swap2\n      pop\n      pop\n      0x01\n      swap1\n      sub\n      swap1\n      0x00\n      mstore\n      keccak256(0x00, 0x20)\n      swap1\n      0x02\n      mul\n      add\n      0x00\n      swap1\n      swap2\n      swap1\n      swap2\n      swap1\n      swap2\n      pop\n      0x00\n      dup3\n      add\n      mload\n      dup2\n      0x00\n      add\n      swap1\n      dup2\n      tag_40\n      swap2\n      swap1\n      tag_41\n      jump\t// in\n    tag_40:\n      pop\n      0x20\n      dup3\n      add\n      mload\n      dup2\n      0x01\n      add\n      sstore\n      pop\n      pop\n        /* \"Record.sol\":1090:1254  {... */\n      pop\n      pop\n        /* \"Record.sol\":999:1254  function updateStudentGrade(string memory _iD, string memory subjectName ,uint marks)public{... */\n      pop\n      pop\n      pop\n      jump\t// out\n        /* \"Record.sol\":1583:1709  function viewStudentsGrade(string memory _iD )public view returns (Grade[] memory) {... */\n    tag_20:\n        /* \"Record.sol\":1650:1664  Grade[] memory */\n      0x60\n        /* \"Record.sol\":1683:1690  student */\n      0x02\n        /* \"Record.sol\":1691:1694  _iD */\n      dup3\n        /* \"Record.sol\":1683:1695  student[_iD] */\n      mload(0x40)\n      tag_43\n      swap2\n      swap1\n      tag_38\n      jump\t// in\n    tag_43:\n      swap1\n      dup2\n      mstore\n      0x20\n      add\n      mload(0x40)\n      dup1\n      swap2\n      sub\n      swap1\n      keccak256\n        /* \"Record.sol\":1683:1702  student[_iD].grades */\n      0x03\n      add\n        /* \"Record.sol\":1676:1702  return student[_iD].grades */\n      dup1\n      sload\n      dup1\n      0x20\n      mul\n      0x20\n      add\n      mload(0x40)\n      swap1\n      dup2\n      add\n      0x40\n      mstore\n      dup1\n      swap3\n      swap2\n      swap1\n      dup2\n      dup2\n      mstore\n      0x20\n      add\n      0x00\n      swap1\n    tag_44:\n      dup3\n      dup3\n      lt\n      iszero\n      tag_45\n      jumpi\n      dup4\n      dup3\n      swap1\n      0x00\n      mstore\n      keccak256(0x00, 0x20)\n      swap1\n      0x02\n      mul\n      add\n      mload(0x40)\n      dup1\n      0x40\n      add\n      0x40\n      mstore\n      swap1\n      dup2\n      0x00\n      dup3\n      add\n      dup1\n      sload\n      tag_47\n      swap1\n      tag_48\n      jump\t// in\n    tag_47:\n      dup1\n      0x1f\n      add\n      0x20\n      dup1\n      swap2\n      div\n      mul\n      0x20\n      add\n      mload(0x40)\n      swap1\n      dup2\n      add\n      0x40\n      mstore\n      dup1\n      swap3\n      swap2\n      swap1\n      dup2\n      dup2\n      mstore\n      0x20\n      add\n      dup3\n      dup1\n      sload\n      tag_49\n      swap1\n      tag_48\n      jump\t// in\n    tag_49:\n      dup1\n      iszero\n      tag_50\n      jumpi\n      dup1\n      0x1f\n      lt\n      tag_51\n      jumpi\n      0x0100\n      dup1\n      dup4\n      sload\n      div\n      mul\n      dup4\n      mstore\n      swap2\n      0x20\n      add\n      swap2\n      jump(tag_50)\n    tag_51:\n      dup3\n      add\n      swap2\n      swap1\n      0x00\n      mstore\n      keccak256(0x00, 0x20)\n      swap1\n    tag_52:\n      dup2\n      sload\n      dup2\n      mstore\n      swap1\n      0x01\n      add\n      swap1\n      0x20\n      add\n      dup1\n      dup4\n      gt\n      tag_52\n      jumpi\n      dup3\n      swap1\n      sub\n      0x1f\n      and\n      dup3\n      add\n      swap2\n    tag_50:\n      pop\n      pop\n      pop\n      pop\n      pop\n      dup2\n      mstore\n      0x20\n      add\n      0x01\n      dup3\n      add\n      sload\n      dup2\n      mstore\n      pop\n      pop\n      dup2\n      mstore\n      0x20\n      add\n      swap1\n      0x01\n      add\n      swap1\n      jump(tag_44)\n    tag_45:\n      pop\n      pop\n      pop\n      pop\n      swap1\n      pop\n        /* \"Record.sol\":1583:1709  function viewStudentsGrade(string memory _iD )public view returns (Grade[] memory) {... */\n      swap2\n      swap1\n      pop\n      jump\t// out\n        /* \"Record.sol\":521:566  mapping(string => StudentData) public student */\n    tag_25:\n      0x02\n      dup2\n      dup1\n      mload\n      0x20\n      dup2\n      add\n      dup3\n      add\n      dup1\n      mload\n      dup5\n      dup3\n      mstore\n      0x20\n      dup4\n      add\n      0x20\n      dup6\n      add\n      keccak256\n      dup2\n      dup4\n      mstore\n      dup1\n      swap6\n      pop\n      pop\n      pop\n      pop\n      pop\n      pop\n      0x00\n      swap2\n      pop\n      swap1\n      pop\n      dup1\n      0x00\n      add\n      dup1\n      sload\n      tag_53\n      swap1\n      tag_48\n      jump\t// in\n    tag_53:\n      dup1\n      0x1f\n      add\n      0x20\n      dup1\n      swap2\n      div\n      mul\n      0x20\n      add\n      mload(0x40)\n      swap1\n      dup2\n      add\n      0x40\n      mstore\n      dup1\n      swap3\n      swap2\n      swap1\n      dup2\n      dup2\n      mstore\n      0x20\n      add\n      dup3\n      dup1\n      sload\n      tag_54\n      swap1\n      tag_48\n      jump\t// in\n    tag_54:\n      dup1\n      iszero\n      tag_55\n      jumpi\n      dup1\n      0x1f\n      lt\n      tag_56\n      jumpi\n      0x0100\n      dup1\n      dup4\n      sload\n      div\n      mul\n      dup4\n      mstore\n      swap2\n      0x20\n      add\n      swap2\n      jump(tag_55)\n    tag_56:\n      dup3\n      add\n      swap2\n      swap1\n      0x00\n      mstore\n      keccak256(0x00, 0x20)\n      swap1\n    tag_57:\n      dup2\n      sload\n      dup2\n      mstore\n      swap1\n      0x01\n      add\n      swap1\n      0x20\n      add\n      dup1\n      dup4\n      gt\n      tag_57\n      jumpi\n      dup3\n      swap1\n      sub\n      0x1f\n      and\n      dup3\n      add\n      swap2\n    tag_55:\n      pop\n      pop\n      pop\n      pop\n      pop\n      swap1\n      dup1\n      0x01\n      add\n      sload\n      swap1\n      dup1\n      0x02\n      add\n      dup1\n      sload\n      tag_58\n      swap1\n      tag_48\n      jump\t// in\n    tag_58:\n      dup1\n      0x1f\n      add\n      0x20\n      dup1\n      swap2\n      div\n      mul\n      0x20\n      add\n      mload(0x40)\n      swap1\n      dup2\n      add\n      0x40\n      mstore\n      dup1\n      swap3\n      swap2\n      swap1\n      dup2\n      dup2\n      mstore\n      0x20\n      add\n      dup3\n      dup1\n      sload\n      tag_59\n      swap1\n      tag_48\n      jump\t// in\n    tag_59:\n      dup1\n      iszero\n      tag_60\n      jumpi\n      dup1\n      0x1f\n      lt\n      tag_61\n      jumpi\n      0x0100\n      dup1\n      dup4\n      sload\n      div\n      mul\n      dup4\n      mstore\n      swap2\n      0x20\n      add\n      swap2\n      jump(tag_60)\n    tag_61:\n      dup3\n      add\n      swap2\n      swap1\n      0x00\n      mstore\n      keccak256(0x00, 0x20)\n      swap1\n    tag_62:\n      dup2\n      sload\n      dup2\n      mstore\n      swap1\n      0x01\n      add\n      swap1\n      0x20\n      add\n      dup1\n      dup4\n      gt\n      tag_62\n      jumpi\n      dup3\n      swap1\n      sub\n      0x1f\n      and\n      dup3\n      add\n      swap2\n    tag_60:\n      pop\n      pop\n      pop\n      pop\n      pop\n      swap1\n      pop\n      dup4\n      jump\t// out\n        /* \"Record.sol\":574:861  function addStudent(string memory _name, uint _age, string memory _iD)public{... */\n    tag_31:\n        /* \"Record.sol\":664:694  StudentData storage newStudent */\n      0x00\n        /* \"Record.sol\":697:704  student */\n      0x02\n        /* \"Record.sol\":705:708  _iD */\n      dup3\n        /* \"Record.sol\":697:709  student[_iD] */\n      mload(0x40)\n      tag_64\n      swap2\n      swap1\n      tag_38\n      jump\t// in\n    tag_64:\n      swap1\n      dup2\n      mstore\n      0x20\n      add\n      mload(0x40)\n      dup1\n      swap2\n      sub\n      swap1\n      keccak256\n        /* \"Record.sol\":664:709  StudentData storage newStudent = student[_iD] */\n      swap1\n      pop\n        /* \"Record.sol\":741:746  _name */\n      dup4\n        /* \"Record.sol\":723:733  newStudent */\n      dup2\n        /* \"Record.sol\":723:738  newStudent.name */\n      0x00\n      add\n        /* \"Record.sol\":723:746  newStudent.name = _name */\n      swap1\n      dup2\n      tag_65\n      swap2\n      swap1\n      tag_41\n      jump\t// in\n    tag_65:\n      pop\n        /* \"Record.sol\":775:779  _age */\n      dup3\n        /* \"Record.sol\":760:770  newStudent */\n      dup2\n        /* \"Record.sol\":760:774  newStudent.age */\n      0x01\n      add\n        /* \"Record.sol\":760:779  newStudent.age=_age */\n      dup2\n      swap1\n      sstore\n      pop\n        /* \"Record.sol\":807:810  _iD */\n      dup2\n        /* \"Record.sol\":793:803  newStudent */\n      dup2\n        /* \"Record.sol\":793:806  newStudent.iD */\n      0x02\n      add\n        /* \"Record.sol\":793:810  newStudent.iD=_iD */\n      swap1\n      dup2\n      tag_66\n      swap2\n      swap1\n      tag_41\n      jump\t// in\n    tag_66:\n      pop\n        /* \"Record.sol\":849:850  1 */\n      0x01\n        /* \"Record.sol\":824:845  totalNumberOfStudents */\n      dup1\n      0x00\n        /* \"Record.sol\":824:850  totalNumberOfStudents += 1 */\n      dup3\n      dup3\n      sload\n      tag_67\n      swap2\n      swap1\n      tag_68\n      jump\t// in\n    tag_67:\n      swap3\n      pop\n      pop\n      dup2\n      swap1\n      sstore\n      pop\n        /* \"Record.sol\":650:861  {... */\n      pop\n        /* \"Record.sol\":574:861  function addStudent(string memory _name, uint _age, string memory _iD)public{... */\n      pop\n      pop\n      pop\n      jump\t// out\n        /* \"Record.sol\":872:993  function removeStudent(string memory _iD )public {... */\n    tag_34:\n        /* \"Record.sol\":938:945  student */\n      0x02\n        /* \"Record.sol\":946:949  _iD */\n      dup2\n        /* \"Record.sol\":938:950  student[_iD] */\n      mload(0x40)\n      tag_70\n      swap2\n      swap1\n      tag_38\n      jump\t// in\n    tag_70:\n      swap1\n      dup2\n      mstore\n      0x20\n      add\n      mload(0x40)\n      dup1\n      swap2\n      sub\n      swap1\n      keccak256\n      0x00\n        /* \"Record.sol\":931:950  delete student[_iD] */\n      dup1\n      dup3\n      add\n      0x00\n      tag_71\n      swap2\n      swap1\n      tag_72\n      jump\t// in\n    tag_71:\n      0x01\n      dup3\n      add\n      0x00\n      swap1\n      sstore\n      0x02\n      dup3\n      add\n      0x00\n      tag_73\n      swap2\n      swap1\n      tag_72\n      jump\t// in\n    tag_73:\n      0x03\n      dup3\n      add\n      0x00\n      tag_74\n      swap2\n      swap1\n      tag_75\n      jump\t// in\n    tag_74:\n      pop\n      pop\n        /* \"Record.sol\":985:986  1 */\n      0x01\n        /* \"Record.sol\":960:981  totalNumberOfStudents */\n      dup1\n      0x00\n        /* \"Record.sol\":960:986  totalNumberOfStudents -= 1 */\n      dup3\n      dup3\n      sload\n      tag_76\n      swap2\n      swap1\n      tag_77\n      jump\t// in\n    tag_76:\n      swap3\n      pop\n      pop\n      dup2\n      swap1\n      sstore\n      pop\n        /* \"Record.sol\":872:993  function removeStudent(string memory _iD )public {... */\n      pop\n      jump\t// out\n    tag_72:\n      pop\n      dup1\n      sload\n      tag_78\n      swap1\n      tag_48\n      jump\t// in\n    tag_78:\n      0x00\n      dup3\n      sstore\n      dup1\n      0x1f\n      lt\n      tag_80\n      jumpi\n      pop\n      jump(tag_79)\n    tag_80:\n      0x1f\n      add\n      0x20\n      swap1\n      div\n      swap1\n      0x00\n      mstore\n      keccak256(0x00, 0x20)\n      swap1\n      dup2\n      add\n      swap1\n      tag_81\n      swap2\n      swap1\n      tag_82\n      jump\t// in\n    tag_81:\n    tag_79:\n      pop\n      jump\t// out\n    tag_75:\n      pop\n      dup1\n      sload\n      0x00\n      dup3\n      sstore\n      0x02\n      mul\n      swap1\n      0x00\n      mstore\n      keccak256(0x00, 0x20)\n      swap1\n      dup2\n      add\n      swap1\n      tag_84\n      swap2\n      swap1\n      tag_85\n      jump\t// in\n    tag_84:\n      pop\n      jump\t// out\n    tag_82:\n    tag_86:\n      dup1\n      dup3\n      gt\n      iszero\n      tag_87\n      jumpi\n      0x00\n      dup2\n      0x00\n      swap1\n      sstore\n      pop\n      0x01\n      add\n      jump(tag_86)\n    tag_87:\n      pop\n      swap1\n      jump\t// out\n    tag_85:\n    tag_88:\n      dup1\n      dup3\n      gt\n      iszero\n      tag_89\n      jumpi\n      0x00\n      dup1\n      dup3\n      add\n      0x00\n      tag_90\n      swap2\n      swap1\n      tag_72\n      jump\t// in\n    tag_90:\n      0x01\n      dup3\n      add\n      0x00\n      swap1\n      sstore\n      pop\n      0x02\n      add\n      jump(tag_88)\n    tag_89:\n      pop\n      swap1\n      jump\t// out\n        /* \"#utility.yul\":7:84   */\n    tag_91:\n        /* \"#utility.yul\":44:51   */\n      0x00\n        /* \"#utility.yul\":73:78   */\n      dup2\n        /* \"#utility.yul\":62:78   */\n      swap1\n      pop\n        /* \"#utility.yul\":7:84   */\n      swap2\n      swap1\n      pop\n      jump\t// out\n        /* \"#utility.yul\":90:208   */\n    tag_92:\n        /* \"#utility.yul\":177:201   */\n      tag_144\n        /* \"#utility.yul\":195:200   */\n      dup2\n        /* \"#utility.yul\":177:201   */\n      tag_91\n      jump\t// in\n    tag_144:\n        /* \"#utility.yul\":172:175   */\n      dup3\n        /* \"#utility.yul\":165:202   */\n      mstore\n        /* \"#utility.yul\":90:208   */\n      pop\n      pop\n      jump\t// out\n        /* \"#utility.yul\":214:436   */\n    tag_12:\n        /* \"#utility.yul\":307:311   */\n      0x00\n        /* \"#utility.yul\":345:347   */\n      0x20\n        /* \"#utility.yul\":334:343   */\n      dup3\n        /* \"#utility.yul\":330:348   */\n      add\n        /* \"#utility.yul\":322:348   */\n      swap1\n      pop\n        /* \"#utility.yul\":358:429   */\n      tag_146\n        /* \"#utility.yul\":426:427   */\n      0x00\n        /* \"#utility.yul\":415:424   */\n      dup4\n        /* \"#utility.yul\":411:428   */\n      add\n        /* \"#utility.yul\":402:408   */\n      dup5\n        /* \"#utility.yul\":358:429   */\n      tag_92\n      jump\t// in\n    tag_146:\n        /* \"#utility.yul\":214:436   */\n      swap3\n      swap2\n      pop\n      pop\n      jump\t// out\n        /* \"#utility.yul\":442:517   */\n    tag_93:\n        /* \"#utility.yul\":475:481   */\n      0x00\n        /* \"#utility.yul\":508:510   */\n      0x40\n        /* \"#utility.yul\":502:511   */\n      mload\n        /* \"#utility.yul\":492:511   */\n      swap1\n      pop\n        /* \"#utility.yul\":442:517   */\n      swap1\n      jump\t// out\n        /* \"#utility.yul\":523:640   */\n    tag_94:\n        /* \"#utility.yul\":632:633   */\n      0x00\n        /* \"#utility.yul\":629:630   */\n      dup1\n        /* \"#utility.yul\":622:634   */\n      revert\n        /* \"#utility.yul\":646:763   */\n    tag_95:\n        /* \"#utility.yul\":755:756   */\n      0x00\n        /* \"#utility.yul\":752:753   */\n      dup1\n        /* \"#utility.yul\":745:757   */\n      revert\n        /* \"#utility.yul\":769:886   */\n    tag_96:\n        /* \"#utility.yul\":878:879   */\n      0x00\n        /* \"#utility.yul\":875:876   */\n      dup1\n        /* \"#utility.yul\":868:880   */\n      revert\n        /* \"#utility.yul\":892:1009   */\n    tag_97:\n        /* \"#utility.yul\":1001:1002   */\n      0x00\n        /* \"#utility.yul\":998:999   */\n      dup1\n        /* \"#utility.yul\":991:1003   */\n      revert\n        /* \"#utility.yul\":1015:1117   */\n    tag_98:\n        /* \"#utility.yul\":1056:1062   */\n      0x00\n        /* \"#utility.yul\":1107:1109   */\n      0x1f\n        /* \"#utility.yul\":1103:1110   */\n      not\n        /* \"#utility.yul\":1098:1100   */\n      0x1f\n        /* \"#utility.yul\":1091:1096   */\n      dup4\n        /* \"#utility.yul\":1087:1101   */\n      add\n        /* \"#utility.yul\":1083:1111   */\n      and\n        /* \"#utility.yul\":1073:1111   */\n      swap1\n      pop\n        /* \"#utility.yul\":1015:1117   */\n      swap2\n      swap1\n      pop\n      jump\t// out\n        /* \"#utility.yul\":1123:1303   */\n    tag_99:\n        /* \"#utility.yul\":1171:1248   */\n      0x4e487b7100000000000000000000000000000000000000000000000000000000\n        /* \"#utility.yul\":1168:1169   */\n      0x00\n        /* \"#utility.yul\":1161:1249   */\n      mstore\n        /* \"#utility.yul\":1268:1272   */\n      0x41\n        /* \"#utility.yul\":1265:1266   */\n      0x04\n        /* \"#utility.yul\":1258:1273   */\n      mstore\n        /* \"#utility.yul\":1292:1296   */\n      0x24\n        /* \"#utility.yul\":1289:1290   */\n      0x00\n        /* \"#utility.yul\":1282:1297   */\n      revert\n        /* \"#utility.yul\":1309:1590   */\n    tag_100:\n        /* \"#utility.yul\":1392:1419   */\n      tag_155\n        /* \"#utility.yul\":1414:1418   */\n      dup3\n        /* \"#utility.yul\":1392:1419   */\n      tag_98\n      jump\t// in\n    tag_155:\n        /* \"#utility.yul\":1384:1390   */\n      dup2\n        /* \"#utility.yul\":1380:1420   */\n      add\n        /* \"#utility.yul\":1522:1528   */\n      dup2\n        /* \"#utility.yul\":1510:1520   */\n      dup2\n        /* \"#utility.yul\":1507:1529   */\n      lt\n        /* \"#utility.yul\":1486:1504   */\n      0xffffffffffffffff\n        /* \"#utility.yul\":1474:1484   */\n      dup3\n        /* \"#utility.yul\":1471:1505   */\n      gt\n        /* \"#utility.yul\":1468:1530   */\n      or\n        /* \"#utility.yul\":1465:1553   */\n      iszero\n      tag_156\n      jumpi\n        /* \"#utility.yul\":1533:1551   */\n      tag_157\n      tag_99\n      jump\t// in\n    tag_157:\n        /* \"#utility.yul\":1465:1553   */\n    tag_156:\n        /* \"#utility.yul\":1573:1583   */\n      dup1\n        /* \"#utility.yul\":1569:1571   */\n      0x40\n        /* \"#utility.yul\":1562:1584   */\n      mstore\n        /* \"#utility.yul\":1352:1590   */\n      pop\n        /* \"#utility.yul\":1309:1590   */\n      pop\n      pop\n      jump\t// out\n        /* \"#utility.yul\":1596:1725   */\n    tag_101:\n        /* \"#utility.yul\":1630:1636   */\n      0x00\n        /* \"#utility.yul\":1657:1677   */\n      tag_159\n      tag_93\n      jump\t// in\n    tag_159:\n        /* \"#utility.yul\":1647:1677   */\n      swap1\n      pop\n        /* \"#utility.yul\":1686:1719   */\n      tag_160\n        /* \"#utility.yul\":1714:1718   */\n      dup3\n        /* \"#utility.yul\":1706:1712   */\n      dup3\n        /* \"#utility.yul\":1686:1719   */\n      tag_100\n      jump\t// in\n    tag_160:\n        /* \"#utility.yul\":1596:1725   */\n      swap2\n      swap1\n      pop\n      jump\t// out\n        /* \"#utility.yul\":1731:2039   */\n    tag_102:\n        /* \"#utility.yul\":1793:1797   */\n      0x00\n        /* \"#utility.yul\":1883:1901   */\n      0xffffffffffffffff\n        /* \"#utility.yul\":1875:1881   */\n      dup3\n        /* \"#utility.yul\":1872:1902   */\n      gt\n        /* \"#utility.yul\":1869:1925   */\n      iszero\n      tag_162\n      jumpi\n        /* \"#utility.yul\":1905:1923   */\n      tag_163\n      tag_99\n      jump\t// in\n    tag_163:\n        /* \"#utility.yul\":1869:1925   */\n    tag_162:\n        /* \"#utility.yul\":1943:1972   */\n      tag_164\n        /* \"#utility.yul\":1965:1971   */\n      dup3\n        /* \"#utility.yul\":1943:1972   */\n      tag_98\n      jump\t// in\n    tag_164:\n        /* \"#utility.yul\":1935:1972   */\n      swap1\n      pop\n        /* \"#utility.yul\":2027:2031   */\n      0x20\n        /* \"#utility.yul\":2021:2025   */\n      dup2\n        /* \"#utility.yul\":2017:2032   */\n      add\n        /* \"#utility.yul\":2009:2032   */\n      swap1\n      pop\n        /* \"#utility.yul\":1731:2039   */\n      swap2\n      swap1\n      pop\n      jump\t// out\n        /* \"#utility.yul\":2045:2193   */\n    tag_103:\n        /* \"#utility.yul\":2143:2149   */\n      dup3\n        /* \"#utility.yul\":2138:2141   */\n      dup2\n        /* \"#utility.yul\":2133:2136   */\n      dup4\n        /* \"#utility.yul\":2120:2150   */\n      calldatacopy\n        /* \"#utility.yul\":2184:2185   */\n      0x00\n        /* \"#utility.yul\":2175:2181   */\n      dup4\n        /* \"#utility.yul\":2170:2173   */\n      dup4\n        /* \"#utility.yul\":2166:2182   */\n      add\n        /* \"#utility.yul\":2159:2186   */\n      mstore\n        /* \"#utility.yul\":2045:2193   */\n      pop\n      pop\n      pop\n      jump\t// out\n        /* \"#utility.yul\":2199:2624   */\n    tag_104:\n        /* \"#utility.yul\":2277:2282   */\n      0x00\n        /* \"#utility.yul\":2302:2368   */\n      tag_167\n        /* \"#utility.yul\":2318:2367   */\n      tag_168\n        /* \"#utility.yul\":2360:2366   */\n      dup5\n        /* \"#utility.yul\":2318:2367   */\n      tag_102\n      jump\t// in\n    tag_168:\n        /* \"#utility.yul\":2302:2368   */\n      tag_101\n      jump\t// in\n    tag_167:\n        /* \"#utility.yul\":2293:2368   */\n      swap1\n      pop\n        /* \"#utility.yul\":2391:2397   */\n      dup3\n        /* \"#utility.yul\":2384:2389   */\n      dup2\n        /* \"#utility.yul\":2377:2398   */\n      mstore\n        /* \"#utility.yul\":2429:2433   */\n      0x20\n        /* \"#utility.yul\":2422:2427   */\n      dup2\n        /* \"#utility.yul\":2418:2434   */\n      add\n        /* \"#utility.yul\":2467:2470   */\n      dup5\n        /* \"#utility.yul\":2458:2464   */\n      dup5\n        /* \"#utility.yul\":2453:2456   */\n      dup5\n        /* \"#utility.yul\":2449:2465   */\n      add\n        /* \"#utility.yul\":2446:2471   */\n      gt\n        /* \"#utility.yul\":2443:2555   */\n      iszero\n      tag_169\n      jumpi\n        /* \"#utility.yul\":2474:2553   */\n      tag_170\n      tag_97\n      jump\t// in\n    tag_170:\n        /* \"#utility.yul\":2443:2555   */\n    tag_169:\n        /* \"#utility.yul\":2564:2618   */\n      tag_171\n        /* \"#utility.yul\":2611:2617   */\n      dup5\n        /* \"#utility.yul\":2606:2609   */\n      dup3\n        /* \"#utility.yul\":2601:2604   */\n      dup6\n        /* \"#utility.yul\":2564:2618   */\n      tag_103\n      jump\t// in\n    tag_171:\n        /* \"#utility.yul\":2283:2624   */\n      pop\n        /* \"#utility.yul\":2199:2624   */\n      swap4\n      swap3\n      pop\n      pop\n      pop\n      jump\t// out\n        /* \"#utility.yul\":2644:2984   */\n    tag_105:\n        /* \"#utility.yul\":2700:2705   */\n      0x00\n        /* \"#utility.yul\":2749:2752   */\n      dup3\n        /* \"#utility.yul\":2742:2746   */\n      0x1f\n        /* \"#utility.yul\":2734:2740   */\n      dup4\n        /* \"#utility.yul\":2730:2747   */\n      add\n        /* \"#utility.yul\":2726:2753   */\n      slt\n        /* \"#utility.yul\":2716:2838   */\n      tag_173\n      jumpi\n        /* \"#utility.yul\":2757:2836   */\n      tag_174\n      tag_96\n      jump\t// in\n    tag_174:\n        /* \"#utility.yul\":2716:2838   */\n    tag_173:\n        /* \"#utility.yul\":2874:2880   */\n      dup2\n        /* \"#utility.yul\":2861:2881   */\n      calldataload\n        /* \"#utility.yul\":2899:2978   */\n      tag_175\n        /* \"#utility.yul\":2974:2977   */\n      dup5\n        /* \"#utility.yul\":2966:2972   */\n      dup3\n        /* \"#utility.yul\":2959:2963   */\n      0x20\n        /* \"#utility.yul\":2951:2957   */\n      dup7\n        /* \"#utility.yul\":2947:2964   */\n      add\n        /* \"#utility.yul\":2899:2978   */\n      tag_104\n      jump\t// in\n    tag_175:\n        /* \"#utility.yul\":2890:2978   */\n      swap2\n      pop\n        /* \"#utility.yul\":2706:2984   */\n      pop\n        /* \"#utility.yul\":2644:2984   */\n      swap3\n      swap2\n      pop\n      pop\n      jump\t// out\n        /* \"#utility.yul\":2990:3112   */\n    tag_106:\n        /* \"#utility.yul\":3063:3087   */\n      tag_177\n        /* \"#utility.yul\":3081:3086   */\n      dup2\n        /* \"#utility.yul\":3063:3087   */\n      tag_91\n      jump\t// in\n    tag_177:\n        /* \"#utility.yul\":3056:3061   */\n      dup2\n        /* \"#utility.yul\":3053:3088   */\n      eq\n        /* \"#utility.yul\":3043:3106   */\n      tag_178\n      jumpi\n        /* \"#utility.yul\":3102:3103   */\n      0x00\n        /* \"#utility.yul\":3099:3100   */\n      dup1\n        /* \"#utility.yul\":3092:3104   */\n      revert\n        /* \"#utility.yul\":3043:3106   */\n    tag_178:\n        /* \"#utility.yul\":2990:3112   */\n      pop\n      jump\t// out\n        /* \"#utility.yul\":3118:3257   */\n    tag_107:\n        /* \"#utility.yul\":3164:3169   */\n      0x00\n        /* \"#utility.yul\":3202:3208   */\n      dup2\n        /* \"#utility.yul\":3189:3209   */\n      calldataload\n        /* \"#utility.yul\":3180:3209   */\n      swap1\n      pop\n        /* \"#utility.yul\":3218:3251   */\n      tag_180\n        /* \"#utility.yul\":3245:3250   */\n      dup2\n        /* \"#utility.yul\":3218:3251   */\n      tag_106\n      jump\t// in\n    tag_180:\n        /* \"#utility.yul\":3118:3257   */\n      swap3\n      swap2\n      pop\n      pop\n      jump\t// out\n        /* \"#utility.yul\":3263:4242   */\n    tag_15:\n        /* \"#utility.yul\":3360:3366   */\n      0x00\n        /* \"#utility.yul\":3368:3374   */\n      dup1\n        /* \"#utility.yul\":3376:3382   */\n      0x00\n        /* \"#utility.yul\":3425:3427   */\n      0x60\n        /* \"#utility.yul\":3413:3422   */\n      dup5\n        /* \"#utility.yul\":3404:3411   */\n      dup7\n        /* \"#utility.yul\":3400:3423   */\n      sub\n        /* \"#utility.yul\":3396:3428   */\n      slt\n        /* \"#utility.yul\":3393:3512   */\n      iszero\n      tag_182\n      jumpi\n        /* \"#utility.yul\":3431:3510   */\n      tag_183\n      tag_94\n      jump\t// in\n    tag_183:\n        /* \"#utility.yul\":3393:3512   */\n    tag_182:\n        /* \"#utility.yul\":3579:3580   */\n      0x00\n        /* \"#utility.yul\":3568:3577   */\n      dup5\n        /* \"#utility.yul\":3564:3581   */\n      add\n        /* \"#utility.yul\":3551:3582   */\n      calldataload\n        /* \"#utility.yul\":3609:3627   */\n      0xffffffffffffffff\n        /* \"#utility.yul\":3601:3607   */\n      dup2\n        /* \"#utility.yul\":3598:3628   */\n      gt\n        /* \"#utility.yul\":3595:3712   */\n      iszero\n      tag_184\n      jumpi\n        /* \"#utility.yul\":3631:3710   */\n      tag_185\n      tag_95\n      jump\t// in\n    tag_185:\n        /* \"#utility.yul\":3595:3712   */\n    tag_184:\n        /* \"#utility.yul\":3736:3799   */\n      tag_186\n        /* \"#utility.yul\":3791:3798   */\n      dup7\n        /* \"#utility.yul\":3782:3788   */\n      dup3\n        /* \"#utility.yul\":3771:3780   */\n      dup8\n        /* \"#utility.yul\":3767:3789   */\n      add\n        /* \"#utility.yul\":3736:3799   */\n      tag_105\n      jump\t// in\n    tag_186:\n        /* \"#utility.yul\":3726:3799   */\n      swap4\n      pop\n        /* \"#utility.yul\":3522:3809   */\n      pop\n        /* \"#utility.yul\":3876:3878   */\n      0x20\n        /* \"#utility.yul\":3865:3874   */\n      dup5\n        /* \"#utility.yul\":3861:3879   */\n      add\n        /* \"#utility.yul\":3848:3880   */\n      calldataload\n        /* \"#utility.yul\":3907:3925   */\n      0xffffffffffffffff\n        /* \"#utility.yul\":3899:3905   */\n      dup2\n        /* \"#utility.yul\":3896:3926   */\n      gt\n        /* \"#utility.yul\":3893:4010   */\n      iszero\n      tag_187\n      jumpi\n        /* \"#utility.yul\":3929:4008   */\n      tag_188\n      tag_95\n      jump\t// in\n    tag_188:\n        /* \"#utility.yul\":3893:4010   */\n    tag_187:\n        /* \"#utility.yul\":4034:4097   */\n      tag_189\n        /* \"#utility.yul\":4089:4096   */\n      dup7\n        /* \"#utility.yul\":4080:4086   */\n      dup3\n        /* \"#utility.yul\":4069:4078   */\n      dup8\n        /* \"#utility.yul\":4065:4087   */\n      add\n        /* \"#utility.yul\":4034:4097   */\n      tag_105\n      jump\t// in\n    tag_189:\n        /* \"#utility.yul\":4024:4097   */\n      swap3\n      pop\n        /* \"#utility.yul\":3819:4107   */\n      pop\n        /* \"#utility.yul\":4146:4148   */\n      0x40\n        /* \"#utility.yul\":4172:4225   */\n      tag_190\n        /* \"#utility.yul\":4217:4224   */\n      dup7\n        /* \"#utility.yul\":4208:4214   */\n      dup3\n        /* \"#utility.yul\":4197:4206   */\n      dup8\n        /* \"#utility.yul\":4193:4215   */\n      add\n        /* \"#utility.yul\":4172:4225   */\n      tag_107\n      jump\t// in\n    tag_190:\n        /* \"#utility.yul\":4162:4225   */\n      swap2\n      pop\n        /* \"#utility.yul\":4117:4235   */\n      pop\n        /* \"#utility.yul\":3263:4242   */\n      swap3\n      pop\n      swap3\n      pop\n      swap3\n      jump\t// out\n        /* \"#utility.yul\":4248:4757   */\n    tag_19:\n        /* \"#utility.yul\":4317:4323   */\n      0x00\n        /* \"#utility.yul\":4366:4368   */\n      0x20\n        /* \"#utility.yul\":4354:4363   */\n      dup3\n        /* \"#utility.yul\":4345:4352   */\n      dup5\n        /* \"#utility.yul\":4341:4364   */\n      sub\n        /* \"#utility.yul\":4337:4369   */\n      slt\n        /* \"#utility.yul\":4334:4453   */\n      iszero\n      tag_192\n      jumpi\n        /* \"#utility.yul\":4372:4451   */\n      tag_193\n      tag_94\n      jump\t// in\n    tag_193:\n        /* \"#utility.yul\":4334:4453   */\n    tag_192:\n        /* \"#utility.yul\":4520:4521   */\n      0x00\n        /* \"#utility.yul\":4509:4518   */\n      dup3\n        /* \"#utility.yul\":4505:4522   */\n      add\n        /* \"#utility.yul\":4492:4523   */\n      calldataload\n        /* \"#utility.yul\":4550:4568   */\n      0xffffffffffffffff\n        /* \"#utility.yul\":4542:4548   */\n      dup2\n        /* \"#utility.yul\":4539:4569   */\n      gt\n        /* \"#utility.yul\":4536:4653   */\n      iszero\n      tag_194\n      jumpi\n        /* \"#utility.yul\":4572:4651   */\n      tag_195\n      tag_95\n      jump\t// in\n    tag_195:\n        /* \"#utility.yul\":4536:4653   */\n    tag_194:\n        /* \"#utility.yul\":4677:4740   */\n      tag_196\n        /* \"#utility.yul\":4732:4739   */\n      dup5\n        /* \"#utility.yul\":4723:4729   */\n      dup3\n        /* \"#utility.yul\":4712:4721   */\n      dup6\n        /* \"#utility.yul\":4708:4730   */\n      add\n        /* \"#utility.yul\":4677:4740   */\n      tag_105\n      jump\t// in\n    tag_196:\n        /* \"#utility.yul\":4667:4740   */\n      swap2\n      pop\n        /* \"#utility.yul\":4463:4750   */\n      pop\n        /* \"#utility.yul\":4248:4757   */\n      swap3\n      swap2\n      pop\n      pop\n      jump\t// out\n        /* \"#utility.yul\":4763:4898   */\n    tag_108:\n        /* \"#utility.yul\":4851:4857   */\n      0x00\n        /* \"#utility.yul\":4885:4890   */\n      dup2\n        /* \"#utility.yul\":4879:4891   */\n      mload\n        /* \"#utility.yul\":4869:4891   */\n      swap1\n      pop\n        /* \"#utility.yul\":4763:4898   */\n      swap2\n      swap1\n      pop\n      jump\t// out\n        /* \"#utility.yul\":4904:5109   */\n    tag_109:\n        /* \"#utility.yul\":5024:5035   */\n      0x00\n        /* \"#utility.yul\":5058:5064   */\n      dup3\n        /* \"#utility.yul\":5053:5056   */\n      dup3\n        /* \"#utility.yul\":5046:5065   */\n      mstore\n        /* \"#utility.yul\":5098:5102   */\n      0x20\n        /* \"#utility.yul\":5093:5096   */\n      dup3\n        /* \"#utility.yul\":5089:5103   */\n      add\n        /* \"#utility.yul\":5074:5103   */\n      swap1\n      pop\n        /* \"#utility.yul\":4904:5109   */\n      swap3\n      swap2\n      pop\n      pop\n      jump\t// out\n        /* \"#utility.yul\":5115:5268   */\n    tag_110:\n        /* \"#utility.yul\":5203:5207   */\n      0x00\n        /* \"#utility.yul\":5226:5229   */\n      dup2\n        /* \"#utility.yul\":5218:5229   */\n      swap1\n      pop\n        /* \"#utility.yul\":5256:5260   */\n      0x20\n        /* \"#utility.yul\":5251:5254   */\n      dup3\n        /* \"#utility.yul\":5247:5261   */\n      add\n        /* \"#utility.yul\":5239:5261   */\n      swap1\n      pop\n        /* \"#utility.yul\":5115:5268   */\n      swap2\n      swap1\n      pop\n      jump\t// out\n        /* \"#utility.yul\":5274:5373   */\n    tag_111:\n        /* \"#utility.yul\":5326:5332   */\n      0x00\n        /* \"#utility.yul\":5360:5365   */\n      dup2\n        /* \"#utility.yul\":5354:5366   */\n      mload\n        /* \"#utility.yul\":5344:5366   */\n      swap1\n      pop\n        /* \"#utility.yul\":5274:5373   */\n      swap2\n      swap1\n      pop\n      jump\t// out\n        /* \"#utility.yul\":5379:5538   */\n    tag_112:\n        /* \"#utility.yul\":5453:5464   */\n      0x00\n        /* \"#utility.yul\":5487:5493   */\n      dup3\n        /* \"#utility.yul\":5482:5485   */\n      dup3\n        /* \"#utility.yul\":5475:5494   */\n      mstore\n        /* \"#utility.yul\":5527:5531   */\n      0x20\n        /* \"#utility.yul\":5522:5525   */\n      dup3\n        /* \"#utility.yul\":5518:5532   */\n      add\n        /* \"#utility.yul\":5503:5532   */\n      swap1\n      pop\n        /* \"#utility.yul\":5379:5538   */\n      swap3\n      swap2\n      pop\n      pop\n      jump\t// out\n        /* \"#utility.yul\":5544:5683   */\n    tag_113:\n        /* \"#utility.yul\":5633:5639   */\n      dup3\n        /* \"#utility.yul\":5628:5631   */\n      dup2\n        /* \"#utility.yul\":5623:5626   */\n      dup4\n        /* \"#utility.yul\":5617:5640   */\n      mcopy\n        /* \"#utility.yul\":5674:5675   */\n      0x00\n        /* \"#utility.yul\":5665:5671   */\n      dup4\n        /* \"#utility.yul\":5660:5663   */\n      dup4\n        /* \"#utility.yul\":5656:5672   */\n      add\n        /* \"#utility.yul\":5649:5676   */\n      mstore\n        /* \"#utility.yul\":5544:5683   */\n      pop\n      pop\n      pop\n      jump\t// out\n        /* \"#utility.yul\":5689:6046   */\n    tag_114:\n        /* \"#utility.yul\":5767:5770   */\n      0x00\n        /* \"#utility.yul\":5795:5834   */\n      tag_204\n        /* \"#utility.yul\":5828:5833   */\n      dup3\n        /* \"#utility.yul\":5795:5834   */\n      tag_111\n      jump\t// in\n    tag_204:\n        /* \"#utility.yul\":5850:5911   */\n      tag_205\n        /* \"#utility.yul\":5904:5910   */\n      dup2\n        /* \"#utility.yul\":5899:5902   */\n      dup6\n        /* \"#utility.yul\":5850:5911   */\n      tag_112\n      jump\t// in\n    tag_205:\n        /* \"#utility.yul\":5843:5911   */\n      swap4\n      pop\n        /* \"#utility.yul\":5920:5985   */\n      tag_206\n        /* \"#utility.yul\":5978:5984   */\n      dup2\n        /* \"#utility.yul\":5973:5976   */\n      dup6\n        /* \"#utility.yul\":5966:5970   */\n      0x20\n        /* \"#utility.yul\":5959:5964   */\n      dup7\n        /* \"#utility.yul\":5955:5971   */\n      add\n        /* \"#utility.yul\":5920:5985   */\n      tag_113\n      jump\t// in\n    tag_206:\n        /* \"#utility.yul\":6010:6039   */\n      tag_207\n        /* \"#utility.yul\":6032:6038   */\n      dup2\n        /* \"#utility.yul\":6010:6039   */\n      tag_98\n      jump\t// in\n    tag_207:\n        /* \"#utility.yul\":6005:6008   */\n      dup5\n        /* \"#utility.yul\":6001:6040   */\n      add\n        /* \"#utility.yul\":5994:6040   */\n      swap2\n      pop\n        /* \"#utility.yul\":5771:6046   */\n      pop\n        /* \"#utility.yul\":5689:6046   */\n      swap3\n      swap2\n      pop\n      pop\n      jump\t// out\n        /* \"#utility.yul\":6052:6160   */\n    tag_115:\n        /* \"#utility.yul\":6129:6153   */\n      tag_209\n        /* \"#utility.yul\":6147:6152   */\n      dup2\n        /* \"#utility.yul\":6129:6153   */\n      tag_91\n      jump\t// in\n    tag_209:\n        /* \"#utility.yul\":6124:6127   */\n      dup3\n        /* \"#utility.yul\":6117:6154   */\n      mstore\n        /* \"#utility.yul\":6052:6160   */\n      pop\n      pop\n      jump\t// out\n        /* \"#utility.yul\":6230:6826   */\n    tag_116:\n        /* \"#utility.yul\":6331:6334   */\n      0x00\n        /* \"#utility.yul\":6367:6371   */\n      0x40\n        /* \"#utility.yul\":6362:6365   */\n      dup4\n        /* \"#utility.yul\":6358:6372   */\n      add\n        /* \"#utility.yul\":6461:6465   */\n      0x00\n        /* \"#utility.yul\":6454:6459   */\n      dup4\n        /* \"#utility.yul\":6450:6466   */\n      add\n        /* \"#utility.yul\":6444:6467   */\n      mload\n        /* \"#utility.yul\":6514:6517   */\n      dup5\n        /* \"#utility.yul\":6508:6512   */\n      dup3\n        /* \"#utility.yul\":6504:6518   */\n      sub\n        /* \"#utility.yul\":6497:6501   */\n      0x00\n        /* \"#utility.yul\":6492:6495   */\n      dup7\n        /* \"#utility.yul\":6488:6502   */\n      add\n        /* \"#utility.yul\":6481:6519   */\n      mstore\n        /* \"#utility.yul\":6540:6613   */\n      tag_211\n        /* \"#utility.yul\":6608:6612   */\n      dup3\n        /* \"#utility.yul\":6594:6606   */\n      dup3\n        /* \"#utility.yul\":6540:6613   */\n      tag_114\n      jump\t// in\n    tag_211:\n        /* \"#utility.yul\":6532:6613   */\n      swap2\n      pop\n        /* \"#utility.yul\":6382:6624   */\n      pop\n        /* \"#utility.yul\":6707:6711   */\n      0x20\n        /* \"#utility.yul\":6700:6705   */\n      dup4\n        /* \"#utility.yul\":6696:6712   */\n      add\n        /* \"#utility.yul\":6690:6713   */\n      mload\n        /* \"#utility.yul\":6726:6789   */\n      tag_212\n        /* \"#utility.yul\":6783:6787   */\n      0x20\n        /* \"#utility.yul\":6778:6781   */\n      dup7\n        /* \"#utility.yul\":6774:6788   */\n      add\n        /* \"#utility.yul\":6760:6772   */\n      dup3\n        /* \"#utility.yul\":6726:6789   */\n      tag_115\n      jump\t// in\n    tag_212:\n        /* \"#utility.yul\":6634:6799   */\n      pop\n        /* \"#utility.yul\":6816:6820   */\n      dup1\n        /* \"#utility.yul\":6809:6820   */\n      swap2\n      pop\n        /* \"#utility.yul\":6336:6826   */\n      pop\n        /* \"#utility.yul\":6230:6826   */\n      swap3\n      swap2\n      pop\n      pop\n      jump\t// out\n        /* \"#utility.yul\":6832:7072   */\n    tag_117:\n        /* \"#utility.yul\":6943:6953   */\n      0x00\n        /* \"#utility.yul\":6978:7066   */\n      tag_214\n        /* \"#utility.yul\":7062:7065   */\n      dup4\n        /* \"#utility.yul\":7054:7060   */\n      dup4\n        /* \"#utility.yul\":6978:7066   */\n      tag_116\n      jump\t// in\n    tag_214:\n        /* \"#utility.yul\":6964:7066   */\n      swap1\n      pop\n        /* \"#utility.yul\":6832:7072   */\n      swap3\n      swap2\n      pop\n      pop\n      jump\t// out\n        /* \"#utility.yul\":7078:7212   */\n    tag_118:\n        /* \"#utility.yul\":7169:7173   */\n      0x00\n        /* \"#utility.yul\":7201:7205   */\n      0x20\n        /* \"#utility.yul\":7196:7199   */\n      dup3\n        /* \"#utility.yul\":7192:7206   */\n      add\n        /* \"#utility.yul\":7184:7206   */\n      swap1\n      pop\n        /* \"#utility.yul\":7078:7212   */\n      swap2\n      swap1\n      pop\n      jump\t// out\n        /* \"#utility.yul\":7286:8365   */\n    tag_119:\n        /* \"#utility.yul\":7447:7450   */\n      0x00\n        /* \"#utility.yul\":7476:7551   */\n      tag_217\n        /* \"#utility.yul\":7545:7550   */\n      dup3\n        /* \"#utility.yul\":7476:7551   */\n      tag_108\n      jump\t// in\n    tag_217:\n        /* \"#utility.yul\":7567:7674   */\n      tag_218\n        /* \"#utility.yul\":7667:7673   */\n      dup2\n        /* \"#utility.yul\":7662:7665   */\n      dup6\n        /* \"#utility.yul\":7567:7674   */\n      tag_109\n      jump\t// in\n    tag_218:\n        /* \"#utility.yul\":7560:7674   */\n      swap4\n      pop\n        /* \"#utility.yul\":7700:7703   */\n      dup4\n        /* \"#utility.yul\":7745:7749   */\n      0x20\n        /* \"#utility.yul\":7737:7743   */\n      dup3\n        /* \"#utility.yul\":7733:7750   */\n      mul\n        /* \"#utility.yul\":7728:7731   */\n      dup6\n        /* \"#utility.yul\":7724:7751   */\n      add\n        /* \"#utility.yul\":7775:7852   */\n      tag_219\n        /* \"#utility.yul\":7846:7851   */\n      dup6\n        /* \"#utility.yul\":7775:7852   */\n      tag_110\n      jump\t// in\n    tag_219:\n        /* \"#utility.yul\":7875:7882   */\n      dup1\n        /* \"#utility.yul\":7906:7907   */\n      0x00\n        /* \"#utility.yul\":7891:8320   */\n    tag_220:\n        /* \"#utility.yul\":7916:7922   */\n      dup6\n        /* \"#utility.yul\":7913:7914   */\n      dup2\n        /* \"#utility.yul\":7910:7923   */\n      lt\n        /* \"#utility.yul\":7891:8320   */\n      iszero\n      tag_222\n      jumpi\n        /* \"#utility.yul\":7987:7996   */\n      dup5\n        /* \"#utility.yul\":7981:7985   */\n      dup5\n        /* \"#utility.yul\":7977:7997   */\n      sub\n        /* \"#utility.yul\":7972:7975   */\n      dup10\n        /* \"#utility.yul\":7965:7998   */\n      mstore\n        /* \"#utility.yul\":8038:8044   */\n      dup2\n        /* \"#utility.yul\":8032:8045   */\n      mload\n        /* \"#utility.yul\":8066:8172   */\n      tag_223\n        /* \"#utility.yul\":8167:8171   */\n      dup6\n        /* \"#utility.yul\":8152:8165   */\n      dup3\n        /* \"#utility.yul\":8066:8172   */\n      tag_117\n      jump\t// in\n    tag_223:\n        /* \"#utility.yul\":8058:8172   */\n      swap5\n      pop\n        /* \"#utility.yul\":8195:8276   */\n      tag_224\n        /* \"#utility.yul\":8269:8275   */\n      dup4\n        /* \"#utility.yul\":8195:8276   */\n      tag_118\n      jump\t// in\n    tag_224:\n        /* \"#utility.yul\":8185:8276   */\n      swap3\n      pop\n        /* \"#utility.yul\":8305:8309   */\n      0x20\n        /* \"#utility.yul\":8300:8303   */\n      dup11\n        /* \"#utility.yul\":8296:8310   */\n      add\n        /* \"#utility.yul\":8289:8310   */\n      swap10\n      pop\n        /* \"#utility.yul\":7951:8320   */\n      pop\n        /* \"#utility.yul\":7938:7939   */\n      0x01\n        /* \"#utility.yul\":7935:7936   */\n      dup2\n        /* \"#utility.yul\":7931:7940   */\n      add\n        /* \"#utility.yul\":7926:7940   */\n      swap1\n      pop\n        /* \"#utility.yul\":7891:8320   */\n      jump(tag_220)\n    tag_222:\n        /* \"#utility.yul\":7895:7909   */\n      pop\n        /* \"#utility.yul\":8336:8340   */\n      dup3\n        /* \"#utility.yul\":8329:8340   */\n      swap8\n      pop\n        /* \"#utility.yul\":8356:8359   */\n      dup8\n        /* \"#utility.yul\":8349:8359   */\n      swap6\n      pop\n        /* \"#utility.yul\":7452:8365   */\n      pop\n      pop\n      pop\n      pop\n      pop\n        /* \"#utility.yul\":7286:8365   */\n      swap3\n      swap2\n      pop\n      pop\n      jump\t// out\n        /* \"#utility.yul\":8371:8828   */\n    tag_22:\n        /* \"#utility.yul\":8556:8560   */\n      0x00\n        /* \"#utility.yul\":8594:8596   */\n      0x20\n        /* \"#utility.yul\":8583:8592   */\n      dup3\n        /* \"#utility.yul\":8579:8597   */\n      add\n        /* \"#utility.yul\":8571:8597   */\n      swap1\n      pop\n        /* \"#utility.yul\":8643:8652   */\n      dup2\n        /* \"#utility.yul\":8637:8641   */\n      dup2\n        /* \"#utility.yul\":8633:8653   */\n      sub\n        /* \"#utility.yul\":8629:8630   */\n      0x00\n        /* \"#utility.yul\":8618:8627   */\n      dup4\n        /* \"#utility.yul\":8614:8631   */\n      add\n        /* \"#utility.yul\":8607:8654   */\n      mstore\n        /* \"#utility.yul\":8671:8821   */\n      tag_226\n        /* \"#utility.yul\":8816:8820   */\n      dup2\n        /* \"#utility.yul\":8807:8813   */\n      dup5\n        /* \"#utility.yul\":8671:8821   */\n      tag_119\n      jump\t// in\n    tag_226:\n        /* \"#utility.yul\":8663:8821   */\n      swap1\n      pop\n        /* \"#utility.yul\":8371:8828   */\n      swap3\n      swap2\n      pop\n      pop\n      jump\t// out\n        /* \"#utility.yul\":8834:9003   */\n    tag_120:\n        /* \"#utility.yul\":8918:8929   */\n      0x00\n        /* \"#utility.yul\":8952:8958   */\n      dup3\n        /* \"#utility.yul\":8947:8950   */\n      dup3\n        /* \"#utility.yul\":8940:8959   */\n      mstore\n        /* \"#utility.yul\":8992:8996   */\n      0x20\n        /* \"#utility.yul\":8987:8990   */\n      dup3\n        /* \"#utility.yul\":8983:8997   */\n      add\n        /* \"#utility.yul\":8968:8997   */\n      swap1\n      pop\n        /* \"#utility.yul\":8834:9003   */\n      swap3\n      swap2\n      pop\n      pop\n      jump\t// out\n        /* \"#utility.yul\":9009:9386   */\n    tag_121:\n        /* \"#utility.yul\":9097:9100   */\n      0x00\n        /* \"#utility.yul\":9125:9164   */\n      tag_229\n        /* \"#utility.yul\":9158:9163   */\n      dup3\n        /* \"#utility.yul\":9125:9164   */\n      tag_111\n      jump\t// in\n    tag_229:\n        /* \"#utility.yul\":9180:9251   */\n      tag_230\n        /* \"#utility.yul\":9244:9250   */\n      dup2\n        /* \"#utility.yul\":9239:9242   */\n      dup6\n        /* \"#utility.yul\":9180:9251   */\n      tag_120\n      jump\t// in\n    tag_230:\n        /* \"#utility.yul\":9173:9251   */\n      swap4\n      pop\n        /* \"#utility.yul\":9260:9325   */\n      tag_231\n        /* \"#utility.yul\":9318:9324   */\n      dup2\n        /* \"#utility.yul\":9313:9316   */\n      dup6\n        /* \"#utility.yul\":9306:9310   */\n      0x20\n        /* \"#utility.yul\":9299:9304   */\n      dup7\n        /* \"#utility.yul\":9295:9311   */\n      add\n        /* \"#utility.yul\":9260:9325   */\n      tag_113\n      jump\t// in\n    tag_231:\n        /* \"#utility.yul\":9350:9379   */\n      tag_232\n        /* \"#utility.yul\":9372:9378   */\n      dup2\n        /* \"#utility.yul\":9350:9379   */\n      tag_98\n      jump\t// in\n    tag_232:\n        /* \"#utility.yul\":9345:9348   */\n      dup5\n        /* \"#utility.yul\":9341:9380   */\n      add\n        /* \"#utility.yul\":9334:9380   */\n      swap2\n      pop\n        /* \"#utility.yul\":9101:9386   */\n      pop\n        /* \"#utility.yul\":9009:9386   */\n      swap3\n      swap2\n      pop\n      pop\n      jump\t// out\n        /* \"#utility.yul\":9392:10016   */\n    tag_27:\n        /* \"#utility.yul\":9581:9585   */\n      0x00\n        /* \"#utility.yul\":9619:9621   */\n      0x60\n        /* \"#utility.yul\":9608:9617   */\n      dup3\n        /* \"#utility.yul\":9604:9622   */\n      add\n        /* \"#utility.yul\":9596:9622   */\n      swap1\n      pop\n        /* \"#utility.yul\":9668:9677   */\n      dup2\n        /* \"#utility.yul\":9662:9666   */\n      dup2\n        /* \"#utility.yul\":9658:9678   */\n      sub\n        /* \"#utility.yul\":9654:9655   */\n      0x00\n        /* \"#utility.yul\":9643:9652   */\n      dup4\n        /* \"#utility.yul\":9639:9656   */\n      add\n        /* \"#utility.yul\":9632:9679   */\n      mstore\n        /* \"#utility.yul\":9696:9774   */\n      tag_234\n        /* \"#utility.yul\":9769:9773   */\n      dup2\n        /* \"#utility.yul\":9760:9766   */\n      dup7\n        /* \"#utility.yul\":9696:9774   */\n      tag_121\n      jump\t// in\n    tag_234:\n        /* \"#utility.yul\":9688:9774   */\n      swap1\n      pop\n        /* \"#utility.yul\":9784:9856   */\n      tag_235\n        /* \"#utility.yul\":9852:9854   */\n      0x20\n        /* \"#utility.yul\":9841:9850   */\n      dup4\n        /* \"#utility.yul\":9837:9855   */\n      add\n        /* \"#utility.yul\":9828:9834   */\n      dup6\n        /* \"#utility.yul\":9784:9856   */\n      tag_92\n      jump\t// in\n    tag_235:\n        /* \"#utility.yul\":9903:9912   */\n      dup2\n        /* \"#utility.yul\":9897:9901   */\n      dup2\n        /* \"#utility.yul\":9893:9913   */\n      sub\n        /* \"#utility.yul\":9888:9890   */\n      0x40\n        /* \"#utility.yul\":9877:9886   */\n      dup4\n        /* \"#utility.yul\":9873:9891   */\n      add\n        /* \"#utility.yul\":9866:9914   */\n      mstore\n        /* \"#utility.yul\":9931:10009   */\n      tag_236\n        /* \"#utility.yul\":10004:10008   */\n      dup2\n        /* \"#utility.yul\":9995:10001   */\n      dup5\n        /* \"#utility.yul\":9931:10009   */\n      tag_121\n      jump\t// in\n    tag_236:\n        /* \"#utility.yul\":9923:10009   */\n      swap1\n      pop\n        /* \"#utility.yul\":9392:10016   */\n      swap5\n      swap4\n      pop\n      pop\n      pop\n      pop\n      jump\t// out\n        /* \"#utility.yul\":10022:11001   */\n    tag_30:\n        /* \"#utility.yul\":10119:10125   */\n      0x00\n        /* \"#utility.yul\":10127:10133   */\n      dup1\n        /* \"#utility.yul\":10135:10141   */\n      0x00\n        /* \"#utility.yul\":10184:10186   */\n      0x60\n        /* \"#utility.yul\":10172:10181   */\n      dup5\n        /* \"#utility.yul\":10163:10170   */\n      dup7\n        /* \"#utility.yul\":10159:10182   */\n      sub\n        /* \"#utility.yul\":10155:10187   */\n      slt\n        /* \"#utility.yul\":10152:10271   */\n      iszero\n      tag_238\n      jumpi\n        /* \"#utility.yul\":10190:10269   */\n      tag_239\n      tag_94\n      jump\t// in\n    tag_239:\n        /* \"#utility.yul\":10152:10271   */\n    tag_238:\n        /* \"#utility.yul\":10338:10339   */\n      0x00\n        /* \"#utility.yul\":10327:10336   */\n      dup5\n        /* \"#utility.yul\":10323:10340   */\n      add\n        /* \"#utility.yul\":10310:10341   */\n      calldataload\n        /* \"#utility.yul\":10368:10386   */\n      0xffffffffffffffff\n        /* \"#utility.yul\":10360:10366   */\n      dup2\n        /* \"#utility.yul\":10357:10387   */\n      gt\n        /* \"#utility.yul\":10354:10471   */\n      iszero\n      tag_240\n      jumpi\n        /* \"#utility.yul\":10390:10469   */\n      tag_241\n      tag_95\n      jump\t// in\n    tag_241:\n        /* \"#utility.yul\":10354:10471   */\n    tag_240:\n        /* \"#utility.yul\":10495:10558   */\n      tag_242\n        /* \"#utility.yul\":10550:10557   */\n      dup7\n        /* \"#utility.yul\":10541:10547   */\n      dup3\n        /* \"#utility.yul\":10530:10539   */\n      dup8\n        /* \"#utility.yul\":10526:10548   */\n      add\n        /* \"#utility.yul\":10495:10558   */\n      tag_105\n      jump\t// in\n    tag_242:\n        /* \"#utility.yul\":10485:10558   */\n      swap4\n      pop\n        /* \"#utility.yul\":10281:10568   */\n      pop\n        /* \"#utility.yul\":10607:10609   */\n      0x20\n        /* \"#utility.yul\":10633:10686   */\n      tag_243\n        /* \"#utility.yul\":10678:10685   */\n      dup7\n        /* \"#utility.yul\":10669:10675   */\n      dup3\n        /* \"#utility.yul\":10658:10667   */\n      dup8\n        /* \"#utility.yul\":10654:10676   */\n      add\n        /* \"#utility.yul\":10633:10686   */\n      tag_107\n      jump\t// in\n    tag_243:\n        /* \"#utility.yul\":10623:10686   */\n      swap3\n      pop\n        /* \"#utility.yul\":10578:10696   */\n      pop\n        /* \"#utility.yul\":10763:10765   */\n      0x40\n        /* \"#utility.yul\":10752:10761   */\n      dup5\n        /* \"#utility.yul\":10748:10766   */\n      add\n        /* \"#utility.yul\":10735:10767   */\n      calldataload\n        /* \"#utility.yul\":10794:10812   */\n      0xffffffffffffffff\n        /* \"#utility.yul\":10786:10792   */\n      dup2\n        /* \"#utility.yul\":10783:10813   */\n      gt\n        /* \"#utility.yul\":10780:10897   */\n      iszero\n      tag_244\n      jumpi\n        /* \"#utility.yul\":10816:10895   */\n      tag_245\n      tag_95\n      jump\t// in\n    tag_245:\n        /* \"#utility.yul\":10780:10897   */\n    tag_244:\n        /* \"#utility.yul\":10921:10984   */\n      tag_246\n        /* \"#utility.yul\":10976:10983   */\n      dup7\n        /* \"#utility.yul\":10967:10973   */\n      dup3\n        /* \"#utility.yul\":10956:10965   */\n      dup8\n        /* \"#utility.yul\":10952:10974   */\n      add\n        /* \"#utility.yul\":10921:10984   */\n      tag_105\n      jump\t// in\n    tag_246:\n        /* \"#utility.yul\":10911:10984   */\n      swap2\n      pop\n        /* \"#utility.yul\":10706:10994   */\n      pop\n        /* \"#utility.yul\":10022:11001   */\n      swap3\n      pop\n      swap3\n      pop\n      swap3\n      jump\t// out\n        /* \"#utility.yul\":11007:11155   */\n    tag_122:\n        /* \"#utility.yul\":11109:11120   */\n      0x00\n        /* \"#utility.yul\":11146:11149   */\n      dup2\n        /* \"#utility.yul\":11131:11149   */\n      swap1\n      pop\n        /* \"#utility.yul\":11007:11155   */\n      swap3\n      swap2\n      pop\n      pop\n      jump\t// out\n        /* \"#utility.yul\":11161:11551   */\n    tag_123:\n        /* \"#utility.yul\":11267:11270   */\n      0x00\n        /* \"#utility.yul\":11295:11334   */\n      tag_249\n        /* \"#utility.yul\":11328:11333   */\n      dup3\n        /* \"#utility.yul\":11295:11334   */\n      tag_111\n      jump\t// in\n    tag_249:\n        /* \"#utility.yul\":11350:11439   */\n      tag_250\n        /* \"#utility.yul\":11432:11438   */\n      dup2\n        /* \"#utility.yul\":11427:11430   */\n      dup6\n        /* \"#utility.yul\":11350:11439   */\n      tag_122\n      jump\t// in\n    tag_250:\n        /* \"#utility.yul\":11343:11439   */\n      swap4\n      pop\n        /* \"#utility.yul\":11448:11513   */\n      tag_251\n        /* \"#utility.yul\":11506:11512   */\n      dup2\n        /* \"#utility.yul\":11501:11504   */\n      dup6\n        /* \"#utility.yul\":11494:11498   */\n      0x20\n        /* \"#utility.yul\":11487:11492   */\n      dup7\n        /* \"#utility.yul\":11483:11499   */\n      add\n        /* \"#utility.yul\":11448:11513   */\n      tag_113\n      jump\t// in\n    tag_251:\n        /* \"#utility.yul\":11538:11544   */\n      dup1\n        /* \"#utility.yul\":11533:11536   */\n      dup5\n        /* \"#utility.yul\":11529:11545   */\n      add\n        /* \"#utility.yul\":11522:11545   */\n      swap2\n      pop\n        /* \"#utility.yul\":11271:11551   */\n      pop\n        /* \"#utility.yul\":11161:11551   */\n      swap3\n      swap2\n      pop\n      pop\n      jump\t// out\n        /* \"#utility.yul\":11557:11832   */\n    tag_38:\n        /* \"#utility.yul\":11689:11692   */\n      0x00\n        /* \"#utility.yul\":11711:11806   */\n      tag_253\n        /* \"#utility.yul\":11802:11805   */\n      dup3\n        /* \"#utility.yul\":11793:11799   */\n      dup5\n        /* \"#utility.yul\":11711:11806   */\n      tag_123\n      jump\t// in\n    tag_253:\n        /* \"#utility.yul\":11704:11806   */\n      swap2\n      pop\n        /* \"#utility.yul\":11823:11826   */\n      dup2\n        /* \"#utility.yul\":11816:11826   */\n      swap1\n      pop\n        /* \"#utility.yul\":11557:11832   */\n      swap3\n      swap2\n      pop\n      pop\n      jump\t// out\n        /* \"#utility.yul\":11838:12018   */\n    tag_124:\n        /* \"#utility.yul\":11886:11963   */\n      0x4e487b7100000000000000000000000000000000000000000000000000000000\n        /* \"#utility.yul\":11883:11884   */\n      0x00\n        /* \"#utility.yul\":11876:11964   */\n      mstore\n        /* \"#utility.yul\":11983:11987   */\n      0x22\n        /* \"#utility.yul\":11980:11981   */\n      0x04\n        /* \"#utility.yul\":11973:11988   */\n      mstore\n        /* \"#utility.yul\":12007:12011   */\n      0x24\n        /* \"#utility.yul\":12004:12005   */\n      0x00\n        /* \"#utility.yul\":11997:12012   */\n      revert\n        /* \"#utility.yul\":12024:12344   */\n    tag_48:\n        /* \"#utility.yul\":12068:12074   */\n      0x00\n        /* \"#utility.yul\":12105:12106   */\n      0x02\n        /* \"#utility.yul\":12099:12103   */\n      dup3\n        /* \"#utility.yul\":12095:12107   */\n      div\n        /* \"#utility.yul\":12085:12107   */\n      swap1\n      pop\n        /* \"#utility.yul\":12152:12153   */\n      0x01\n        /* \"#utility.yul\":12146:12150   */\n      dup3\n        /* \"#utility.yul\":12142:12154   */\n      and\n        /* \"#utility.yul\":12173:12191   */\n      dup1\n        /* \"#utility.yul\":12163:12244   */\n      tag_256\n      jumpi\n        /* \"#utility.yul\":12229:12233   */\n      0x7f\n        /* \"#utility.yul\":12221:12227   */\n      dup3\n        /* \"#utility.yul\":12217:12234   */\n      and\n        /* \"#utility.yul\":12207:12234   */\n      swap2\n      pop\n        /* \"#utility.yul\":12163:12244   */\n    tag_256:\n        /* \"#utility.yul\":12291:12293   */\n      0x20\n        /* \"#utility.yul\":12283:12289   */\n      dup3\n        /* \"#utility.yul\":12280:12294   */\n      lt\n        /* \"#utility.yul\":12260:12278   */\n      dup2\n        /* \"#utility.yul\":12257:12295   */\n      sub\n        /* \"#utility.yul\":12254:12338   */\n      tag_257\n      jumpi\n        /* \"#utility.yul\":12310:12328   */\n      tag_258\n      tag_124\n      jump\t// in\n    tag_258:\n        /* \"#utility.yul\":12254:12338   */\n    tag_257:\n        /* \"#utility.yul\":12075:12344   */\n      pop\n        /* \"#utility.yul\":12024:12344   */\n      swap2\n      swap1\n      pop\n      jump\t// out\n        /* \"#utility.yul\":12350:12491   */\n    tag_125:\n        /* \"#utility.yul\":12399:12403   */\n      0x00\n        /* \"#utility.yul\":12422:12425   */\n      dup2\n        /* \"#utility.yul\":12414:12425   */\n      swap1\n      pop\n        /* \"#utility.yul\":12445:12448   */\n      dup2\n        /* \"#utility.yul\":12442:12443   */\n      0x00\n        /* \"#utility.yul\":12435:12449   */\n      mstore\n        /* \"#utility.yul\":12479:12483   */\n      0x20\n        /* \"#utility.yul\":12476:12477   */\n      0x00\n        /* \"#utility.yul\":12466:12484   */\n      keccak256\n        /* \"#utility.yul\":12458:12484   */\n      swap1\n      pop\n        /* \"#utility.yul\":12350:12491   */\n      swap2\n      swap1\n      pop\n      jump\t// out\n        /* \"#utility.yul\":12497:12590   */\n    tag_126:\n        /* \"#utility.yul\":12534:12540   */\n      0x00\n        /* \"#utility.yul\":12581:12583   */\n      0x20\n        /* \"#utility.yul\":12576:12578   */\n      0x1f\n        /* \"#utility.yul\":12569:12574   */\n      dup4\n        /* \"#utility.yul\":12565:12579   */\n      add\n        /* \"#utility.yul\":12561:12584   */\n      div\n        /* \"#utility.yul\":12551:12584   */\n      swap1\n      pop\n        /* \"#utility.yul\":12497:12590   */\n      swap2\n      swap1\n      pop\n      jump\t// out\n        /* \"#utility.yul\":12596:12703   */\n    tag_127:\n        /* \"#utility.yul\":12640:12648   */\n      0x00\n        /* \"#utility.yul\":12690:12695   */\n      dup3\n        /* \"#utility.yul\":12684:12688   */\n      dup3\n        /* \"#utility.yul\":12680:12696   */\n      shl\n        /* \"#utility.yul\":12659:12696   */\n      swap1\n      pop\n        /* \"#utility.yul\":12596:12703   */\n      swap3\n      swap2\n      pop\n      pop\n      jump\t// out\n        /* \"#utility.yul\":12709:13102   */\n    tag_128:\n        /* \"#utility.yul\":12778:12784   */\n      0x00\n        /* \"#utility.yul\":12828:12829   */\n      0x08\n        /* \"#utility.yul\":12816:12826   */\n      dup4\n        /* \"#utility.yul\":12812:12830   */\n      mul\n        /* \"#utility.yul\":12851:12948   */\n      tag_263\n        /* \"#utility.yul\":12881:12947   */\n      0xffffffffffffffffffffffffffffffffffffffffffffffffffffffffffffffff\n        /* \"#utility.yul\":12870:12879   */\n      dup3\n        /* \"#utility.yul\":12851:12948   */\n      tag_127\n      jump\t// in\n    tag_263:\n        /* \"#utility.yul\":12969:13008   */\n      tag_264\n        /* \"#utility.yul\":12999:13007   */\n      dup7\n        /* \"#utility.yul\":12988:12997   */\n      dup4\n        /* \"#utility.yul\":12969:13008   */\n      tag_127\n      jump\t// in\n    tag_264:\n        /* \"#utility.yul\":12957:13008   */\n      swap6\n      pop\n        /* \"#utility.yul\":13041:13045   */\n      dup1\n        /* \"#utility.yul\":13037:13046   */\n      not\n        /* \"#utility.yul\":13030:13035   */\n      dup5\n        /* \"#utility.yul\":13026:13047   */\n      and\n        /* \"#utility.yul\":13017:13047   */\n      swap4\n      pop\n        /* \"#utility.yul\":13090:13094   */\n      dup1\n        /* \"#utility.yul\":13080:13088   */\n      dup7\n        /* \"#utility.yul\":13076:13095   */\n      and\n        /* \"#utility.yul\":13069:13074   */\n      dup5\n        /* \"#utility.yul\":13066:13096   */\n      or\n        /* \"#utility.yul\":13056:13096   */\n      swap3\n      pop\n        /* \"#utility.yul\":12785:13102   */\n      pop\n      pop\n        /* \"#utility.yul\":12709:13102   */\n      swap4\n      swap3\n      pop\n      pop\n      pop\n      jump\t// out\n        /* \"#utility.yul\":13108:13168   */\n    tag_129:\n        /* \"#utility.yul\":13136:13139   */\n      0x00\n        /* \"#utility.yul\":13157:13162   */\n      dup2\n        /* \"#utility.yul\":13150:13162   */\n      swap1\n      pop\n        /* \"#utility.yul\":13108:13168   */\n      swap2\n      swap1\n      pop\n      jump\t// out\n        /* \"#utility.yul\":13174:13316   */\n    tag_130:\n        /* \"#utility.yul\":13224:13233   */\n      0x00\n        /* \"#utility.yul\":13257:13310   */\n      tag_267\n        /* \"#utility.yul\":13275:13309   */\n      tag_268\n        /* \"#utility.yul\":13284:13308   */\n      tag_269\n        /* \"#utility.yul\":13302:13307   */\n      dup5\n        /* \"#utility.yul\":13284:13308   */\n      tag_91\n      jump\t// in\n    tag_269:\n        /* \"#utility.yul\":13275:13309   */\n      tag_129\n      jump\t// in\n    tag_268:\n        /* \"#utility.yul\":13257:13310   */\n      tag_91\n      jump\t// in\n    tag_267:\n        /* \"#utility.yul\":13244:13310   */\n      swap1\n      pop\n        /* \"#utility.yul\":13174:13316   */\n      swap2\n      swap1\n      pop\n      jump\t// out\n        /* \"#utility.yul\":13322:13397   */\n    tag_131:\n        /* \"#utility.yul\":13365:13368   */\n      0x00\n        /* \"#utility.yul\":13386:13391   */\n      dup2\n        /* \"#utility.yul\":13379:13391   */\n      swap1\n      pop\n        /* \"#utility.yul\":13322:13397   */\n      swap2\n      swap1\n      pop\n      jump\t// out\n        /* \"#utility.yul\":13403:13672   */\n    tag_132:\n        /* \"#utility.yul\":13513:13552   */\n      tag_272\n        /* \"#utility.yul\":13544:13551   */\n      dup4\n        /* \"#utility.yul\":13513:13552   */\n      tag_130\n      jump\t// in\n    tag_272:\n        /* \"#utility.yul\":13574:13665   */\n      tag_273\n        /* \"#utility.yul\":13623:13664   */\n      tag_274\n        /* \"#utility.yul\":13647:13663   */\n      dup3\n        /* \"#utility.yul\":13623:13664   */\n      tag_131\n      jump\t// in\n    tag_274:\n        /* \"#utility.yul\":13615:13621   */\n      dup5\n        /* \"#utility.yul\":13608:13612   */\n      dup5\n        /* \"#utility.yul\":13602:13613   */\n      sload\n        /* \"#utility.yul\":13574:13665   */\n      tag_128\n      jump\t// in\n    tag_273:\n        /* \"#utility.yul\":13568:13572   */\n      dup3\n        /* \"#utility.yul\":13561:13666   */\n      sstore\n        /* \"#utility.yul\":13479:13672   */\n      pop\n        /* \"#utility.yul\":13403:13672   */\n      pop\n      pop\n      pop\n      jump\t// out\n        /* \"#utility.yul\":13678:13751   */\n    tag_133:\n        /* \"#utility.yul\":13723:13726   */\n      0x00\n        /* \"#utility.yul\":13678:13751   */\n      swap1\n      jump\t// out\n        /* \"#utility.yul\":13757:13946   */\n    tag_134:\n        /* \"#utility.yul\":13834:13866   */\n      tag_277\n      tag_133\n      jump\t// in\n    tag_277:\n        /* \"#utility.yul\":13875:13940   */\n      tag_278\n        /* \"#utility.yul\":13933:13939   */\n      dup2\n        /* \"#utility.yul\":13925:13931   */\n      dup5\n        /* \"#utility.yul\":13919:13923   */\n      dup5\n        /* \"#utility.yul\":13875:13940   */\n      tag_132\n      jump\t// in\n    tag_278:\n        /* \"#utility.yul\":13810:13946   */\n      pop\n        /* \"#utility.yul\":13757:13946   */\n      pop\n      pop\n      jump\t// out\n        /* \"#utility.yul\":13952:14138   */\n    tag_135:\n        /* \"#utility.yul\":14012:14132   */\n    tag_280:\n        /* \"#utility.yul\":14029:14032   */\n      dup2\n        /* \"#utility.yul\":14022:14027   */\n      dup2\n        /* \"#utility.yul\":14019:14033   */\n      lt\n        /* \"#utility.yul\":14012:14132   */\n      iszero\n      tag_282\n      jumpi\n        /* \"#utility.yul\":14083:14122   */\n      tag_283\n        /* \"#utility.yul\":14120:14121   */\n      0x00\n        /* \"#utility.yul\":14113:14118   */\n      dup3\n        /* \"#utility.yul\":14083:14122   */\n      tag_134\n      jump\t// in\n    tag_283:\n        /* \"#utility.yul\":14056:14057   */\n      0x01\n        /* \"#utility.yul\":14049:14054   */\n      dup2\n        /* \"#utility.yul\":14045:14058   */\n      add\n        /* \"#utility.yul\":14036:14058   */\n      swap1\n      pop\n        /* \"#utility.yul\":14012:14132   */\n      jump(tag_280)\n    tag_282:\n        /* \"#utility.yul\":13952:14138   */\n      pop\n      pop\n      jump\t// out\n        /* \"#utility.yul\":14144:14687   */\n    tag_136:\n        /* \"#utility.yul\":14245:14247   */\n      0x1f\n        /* \"#utility.yul\":14240:14243   */\n      dup3\n        /* \"#utility.yul\":14237:14248   */\n      gt\n        /* \"#utility.yul\":14234:14680   */\n      iszero\n      tag_285\n      jumpi\n        /* \"#utility.yul\":14279:14317   */\n      tag_286\n        /* \"#utility.yul\":14311:14316   */\n      dup2\n        /* \"#utility.yul\":14279:14317   */\n      tag_125\n      jump\t// in\n    tag_286:\n        /* \"#utility.yul\":14363:14392   */\n      tag_287\n        /* \"#utility.yul\":14381:14391   */\n      dup5\n        /* \"#utility.yul\":14363:14392   */\n      tag_126\n      jump\t// in\n    tag_287:\n        /* \"#utility.yul\":14353:14361   */\n      dup2\n        /* \"#utility.yul\":14349:14393   */\n      add\n        /* \"#utility.yul\":14546:14548   */\n      0x20\n        /* \"#utility.yul\":14534:14544   */\n      dup6\n        /* \"#utility.yul\":14531:14549   */\n      lt\n        /* \"#utility.yul\":14528:14577   */\n      iszero\n      tag_288\n      jumpi\n        /* \"#utility.yul\":14567:14575   */\n      dup2\n        /* \"#utility.yul\":14552:14575   */\n      swap1\n      pop\n        /* \"#utility.yul\":14528:14577   */\n    tag_288:\n        /* \"#utility.yul\":14590:14670   */\n      tag_289\n        /* \"#utility.yul\":14646:14668   */\n      tag_290\n        /* \"#utility.yul\":14664:14667   */\n      dup6\n        /* \"#utility.yul\":14646:14668   */\n      tag_126\n      jump\t// in\n    tag_290:\n        /* \"#utility.yul\":14636:14644   */\n      dup4\n        /* \"#utility.yul\":14632:14669   */\n      add\n        /* \"#utility.yul\":14619:14630   */\n      dup3\n        /* \"#utility.yul\":14590:14670   */\n      tag_135\n      jump\t// in\n    tag_289:\n        /* \"#utility.yul\":14249:14680   */\n      pop\n      pop\n        /* \"#utility.yul\":14234:14680   */\n    tag_285:\n        /* \"#utility.yul\":14144:14687   */\n      pop\n      pop\n      pop\n      jump\t// out\n        /* \"#utility.yul\":14693:14810   */\n    tag_137:\n        /* \"#utility.yul\":14747:14755   */\n      0x00\n        /* \"#utility.yul\":14797:14802   */\n      dup3\n        /* \"#utility.yul\":14791:14795   */\n      dup3\n        /* \"#utility.yul\":14787:14803   */\n      shr\n        /* \"#utility.yul\":14766:14803   */\n      swap1\n      pop\n        /* \"#utility.yul\":14693:14810   */\n      swap3\n      swap2\n      pop\n      pop\n      jump\t// out\n        /* \"#utility.yul\":14816:14985   */\n    tag_138:\n        /* \"#utility.yul\":14860:14866   */\n      0x00\n        /* \"#utility.yul\":14893:14944   */\n      tag_293\n        /* \"#utility.yul\":14941:14942   */\n      0x00\n        /* \"#utility.yul\":14937:14943   */\n      not\n        /* \"#utility.yul\":14929:14934   */\n      dup5\n        /* \"#utility.yul\":14926:14927   */\n      0x08\n        /* \"#utility.yul\":14922:14935   */\n      mul\n        /* \"#utility.yul\":14893:14944   */\n      tag_137\n      jump\t// in\n    tag_293:\n        /* \"#utility.yul\":14889:14945   */\n      not\n        /* \"#utility.yul\":14974:14978   */\n      dup1\n        /* \"#utility.yul\":14968:14972   */\n      dup4\n        /* \"#utility.yul\":14964:14979   */\n      and\n        /* \"#utility.yul\":14954:14979   */\n      swap2\n      pop\n        /* \"#utility.yul\":14867:14985   */\n      pop\n        /* \"#utility.yul\":14816:14985   */\n      swap3\n      swap2\n      pop\n      pop\n      jump\t// out\n        /* \"#utility.yul\":14990:15285   */\n    tag_139:\n        /* \"#utility.yul\":15066:15070   */\n      0x00\n        /* \"#utility.yul\":15212:15241   */\n      tag_295\n        /* \"#utility.yul\":15237:15240   */\n      dup4\n        /* \"#utility.yul\":15231:15235   */\n      dup4\n        /* \"#utility.yul\":15212:15241   */\n      tag_138\n      jump\t// in\n    tag_295:\n        /* \"#utility.yul\":15204:15241   */\n      swap2\n      pop\n        /* \"#utility.yul\":15274:15277   */\n      dup3\n        /* \"#utility.yul\":15271:15272   */\n      0x02\n        /* \"#utility.yul\":15267:15278   */\n      mul\n        /* \"#utility.yul\":15261:15265   */\n      dup3\n        /* \"#utility.yul\":15258:15279   */\n      or\n        /* \"#utility.yul\":15250:15279   */\n      swap1\n      pop\n        /* \"#utility.yul\":14990:15285   */\n      swap3\n      swap2\n      pop\n      pop\n      jump\t// out\n        /* \"#utility.yul\":15290:16685   */\n    tag_41:\n        /* \"#utility.yul\":15407:15444   */\n      tag_297\n        /* \"#utility.yul\":15440:15443   */\n      dup3\n        /* \"#utility.yul\":15407:15444   */\n      tag_111\n      jump\t// in\n    tag_297:\n        /* \"#utility.yul\":15509:15527   */\n      0xffffffffffffffff\n        /* \"#utility.yul\":15501:15507   */\n      dup2\n        /* \"#utility.yul\":15498:15528   */\n      gt\n        /* \"#utility.yul\":15495:15551   */\n      iszero\n      tag_298\n      jumpi\n        /* \"#utility.yul\":15531:15549   */\n      tag_299\n      tag_99\n      jump\t// in\n    tag_299:\n        /* \"#utility.yul\":15495:15551   */\n    tag_298:\n        /* \"#utility.yul\":15575:15613   */\n      tag_300\n        /* \"#utility.yul\":15607:15611   */\n      dup3\n        /* \"#utility.yul\":15601:15612   */\n      sload\n        /* \"#utility.yul\":15575:15613   */\n      tag_48\n      jump\t// in\n    tag_300:\n        /* \"#utility.yul\":15660:15727   */\n      tag_301\n        /* \"#utility.yul\":15720:15726   */\n      dup3\n        /* \"#utility.yul\":15712:15718   */\n      dup3\n        /* \"#utility.yul\":15706:15710   */\n      dup6\n        /* \"#utility.yul\":15660:15727   */\n      tag_136\n      jump\t// in\n    tag_301:\n        /* \"#utility.yul\":15754:15755   */\n      0x00\n        /* \"#utility.yul\":15778:15782   */\n      0x20\n        /* \"#utility.yul\":15765:15782   */\n      swap1\n      pop\n        /* \"#utility.yul\":15810:15812   */\n      0x1f\n        /* \"#utility.yul\":15802:15808   */\n      dup4\n        /* \"#utility.yul\":15799:15813   */\n      gt\n        /* \"#utility.yul\":15827:15828   */\n      0x01\n        /* \"#utility.yul\":15822:16440   */\n      dup2\n      eq\n      tag_303\n      jumpi\n        /* \"#utility.yul\":16484:16485   */\n      0x00\n        /* \"#utility.yul\":16501:16507   */\n      dup5\n        /* \"#utility.yul\":16498:16575   */\n      iszero\n      tag_304\n      jumpi\n        /* \"#utility.yul\":16550:16559   */\n      dup3\n        /* \"#utility.yul\":16545:16548   */\n      dup8\n        /* \"#utility.yul\":16541:16560   */\n      add\n        /* \"#utility.yul\":16535:16561   */\n      mload\n        /* \"#utility.yul\":16526:16561   */\n      swap1\n      pop\n        /* \"#utility.yul\":16498:16575   */\n    tag_304:\n        /* \"#utility.yul\":16601:16668   */\n      tag_305\n        /* \"#utility.yul\":16661:16667   */\n      dup6\n        /* \"#utility.yul\":16654:16659   */\n      dup3\n        /* \"#utility.yul\":16601:16668   */\n      tag_139\n      jump\t// in\n    tag_305:\n        /* \"#utility.yul\":16595:16599   */\n      dup7\n        /* \"#utility.yul\":16588:16669   */\n      sstore\n        /* \"#utility.yul\":16457:16679   */\n      pop\n        /* \"#utility.yul\":15792:16679   */\n      jump(tag_302)\n        /* \"#utility.yul\":15822:16440   */\n    tag_303:\n        /* \"#utility.yul\":15874:15878   */\n      0x1f\n        /* \"#utility.yul\":15870:15879   */\n      not\n        /* \"#utility.yul\":15862:15868   */\n      dup5\n        /* \"#utility.yul\":15858:15880   */\n      and\n        /* \"#utility.yul\":15908:15945   */\n      tag_306\n        /* \"#utility.yul\":15940:15944   */\n      dup7\n        /* \"#utility.yul\":15908:15945   */\n      tag_125\n      jump\t// in\n    tag_306:\n        /* \"#utility.yul\":15967:15968   */\n      0x00\n        /* \"#utility.yul\":15981:16189   */\n    tag_307:\n        /* \"#utility.yul\":15995:16002   */\n      dup3\n        /* \"#utility.yul\":15992:15993   */\n      dup2\n        /* \"#utility.yul\":15989:16003   */\n      lt\n        /* \"#utility.yul\":15981:16189   */\n      iszero\n      tag_309\n      jumpi\n        /* \"#utility.yul\":16074:16083   */\n      dup5\n        /* \"#utility.yul\":16069:16072   */\n      dup10\n        /* \"#utility.yul\":16065:16084   */\n      add\n        /* \"#utility.yul\":16059:16085   */\n      mload\n        /* \"#utility.yul\":16051:16057   */\n      dup3\n        /* \"#utility.yul\":16044:16086   */\n      sstore\n        /* \"#utility.yul\":16125:16126   */\n      0x01\n        /* \"#utility.yul\":16117:16123   */\n      dup3\n        /* \"#utility.yul\":16113:16127   */\n      add\n        /* \"#utility.yul\":16103:16127   */\n      swap2\n      pop\n        /* \"#utility.yul\":16172:16174   */\n      0x20\n        /* \"#utility.yul\":16161:16170   */\n      dup6\n        /* \"#utility.yul\":16157:16175   */\n      add\n        /* \"#utility.yul\":16144:16175   */\n      swap5\n      pop\n        /* \"#utility.yul\":16018:16022   */\n      0x20\n        /* \"#utility.yul\":16015:16016   */\n      dup2\n        /* \"#utility.yul\":16011:16023   */\n      add\n        /* \"#utility.yul\":16006:16023   */\n      swap1\n      pop\n        /* \"#utility.yul\":15981:16189   */\n      jump(tag_307)\n    tag_309:\n        /* \"#utility.yul\":16217:16223   */\n      dup7\n        /* \"#utility.yul\":16208:16215   */\n      dup4\n        /* \"#utility.yul\":16205:16224   */\n      lt\n        /* \"#utility.yul\":16202:16381   */\n      iszero\n      tag_310\n      jumpi\n        /* \"#utility.yul\":16275:16284   */\n      dup5\n        /* \"#utility.yul\":16270:16273   */\n      dup10\n        /* \"#utility.yul\":16266:16285   */\n      add\n        /* \"#utility.yul\":16260:16286   */\n      mload\n        /* \"#utility.yul\":16318:16366   */\n      tag_311\n        /* \"#utility.yul\":16360:16364   */\n      0x1f\n        /* \"#utility.yul\":16352:16358   */\n      dup10\n        /* \"#utility.yul\":16348:16365   */\n      and\n        /* \"#utility.yul\":16337:16346   */\n      dup3\n        /* \"#utility.yul\":16318:16366   */\n      tag_138\n      jump\t// in\n    tag_311:\n        /* \"#utility.yul\":16310:16316   */\n      dup4\n        /* \"#utility.yul\":16303:16367   */\n      sstore\n        /* \"#utility.yul\":16225:16381   */\n      pop\n        /* \"#utility.yul\":16202:16381   */\n    tag_310:\n        /* \"#utility.yul\":16427:16428   */\n      0x01\n        /* \"#utility.yul\":16423:16424   */\n      0x02\n        /* \"#utility.yul\":16415:16421   */\n      dup9\n        /* \"#utility.yul\":16411:16425   */\n      mul\n        /* \"#utility.yul\":16407:16429   */\n      add\n        /* \"#utility.yul\":16401:16405   */\n      dup9\n        /* \"#utility.yul\":16394:16430   */\n      sstore\n        /* \"#utility.yul\":15829:16440   */\n      pop\n      pop\n      pop\n        /* \"#utility.yul\":15792:16679   */\n    tag_302:\n      pop\n        /* \"#utility.yul\":15382:16685   */\n      pop\n      pop\n      pop\n        /* \"#utility.yul\":15290:16685   */\n      pop\n      pop\n      jump\t// out\n        /* \"#utility.yul\":16691:16871   */\n    tag_140:\n        /* \"#utility.yul\":16739:16816   */\n      0x4e487b7100000000000000000000000000000000000000000000000000000000\n        /* \"#utility.yul\":16736:16737   */\n      0x00\n        /* \"#utility.yul\":16729:16817   */\n      mstore\n        /* \"#utility.yul\":16836:16840   */\n      0x11\n        /* \"#utility.yul\":16833:16834   */\n      0x04\n        /* \"#utility.yul\":16826:16841   */\n      mstore\n        /* \"#utility.yul\":16860:16864   */\n      0x24\n        /* \"#utility.yul\":16857:16858   */\n      0x00\n        /* \"#utility.yul\":16850:16865   */\n      revert\n        /* \"#utility.yul\":16877:17068   */\n    tag_68:\n        /* \"#utility.yul\":16917:16920   */\n      0x00\n        /* \"#utility.yul\":16936:16956   */\n      tag_314\n        /* \"#utility.yul\":16954:16955   */\n      dup3\n        /* \"#utility.yul\":16936:16956   */\n      tag_91\n      jump\t// in\n    tag_314:\n        /* \"#utility.yul\":16931:16956   */\n      swap2\n      pop\n        /* \"#utility.yul\":16970:16990   */\n      tag_315\n        /* \"#utility.yul\":16988:16989   */\n      dup4\n        /* \"#utility.yul\":16970:16990   */\n      tag_91\n      jump\t// in\n    tag_315:\n        /* \"#utility.yul\":16965:16990   */\n      swap3\n      pop\n        /* \"#utility.yul\":17013:17014   */\n      dup3\n        /* \"#utility.yul\":17010:17011   */\n      dup3\n        /* \"#utility.yul\":17006:17015   */\n      add\n        /* \"#utility.yul\":16999:17015   */\n      swap1\n      pop\n        /* \"#utility.yul\":17034:17037   */\n      dup1\n        /* \"#utility.yul\":17031:17032   */\n      dup3\n        /* \"#utility.yul\":17028:17038   */\n      gt\n        /* \"#utility.yul\":17025:17061   */\n      iszero\n      tag_316\n      jumpi\n        /* \"#utility.yul\":17041:17059   */\n      tag_317\n      tag_140\n      jump\t// in\n    tag_317:\n        /* \"#utility.yul\":17025:17061   */\n    tag_316:\n        /* \"#utility.yul\":16877:17068   */\n      swap3\n      swap2\n      pop\n      pop\n      jump\t// out\n        /* \"#utility.yul\":17074:17268   */\n    tag_77:\n        /* \"#utility.yul\":17114:17118   */\n      0x00\n        /* \"#utility.yul\":17134:17154   */\n      tag_319\n        /* \"#utility.yul\":17152:17153   */\n      dup3\n        /* \"#utility.yul\":17134:17154   */\n      tag_91\n      jump\t// in\n    tag_319:\n        /* \"#utility.yul\":17129:17154   */\n      swap2\n      pop\n        /* \"#utility.yul\":17168:17188   */\n      tag_320\n        /* \"#utility.yul\":17186:17187   */\n      dup4\n        /* \"#utility.yul\":17168:17188   */\n      tag_91\n      jump\t// in\n    tag_320:\n        /* \"#utility.yul\":17163:17188   */\n      swap3\n      pop\n        /* \"#utility.yul\":17212:17213   */\n      dup3\n        /* \"#utility.yul\":17209:17210   */\n      dup3\n        /* \"#utility.yul\":17205:17214   */\n      sub\n        /* \"#utility.yul\":17197:17214   */\n      swap1\n      pop\n        /* \"#utility.yul\":17236:17237   */\n      dup2\n        /* \"#utility.yul\":17230:17234   */\n      dup2\n        /* \"#utility.yul\":17227:17238   */\n      gt\n        /* \"#utility.yul\":17224:17261   */\n      iszero\n      tag_321\n      jumpi\n        /* \"#utility.yul\":17241:17259   */\n      tag_322\n      tag_140\n      jump\t// in\n    tag_322:\n        /* \"#utility.yul\":17224:17261   */\n    tag_321:\n        /* \"#utility.yul\":17074:17268   */\n      swap3\n      swap2\n      pop\n      pop\n      jump\t// out\n\n    auxdata: 0xa26469706673582212206cf4b6d768712b1a26a45f09e9e0c7a85caa599adfc863c2130152fd779a1d3264736f6c634300081a0033\n}\n",
				"bytecode": {
					"linkReferences": {},
					"object": "6080604052348015600e575f80fd5b50610e9b8061001c5f395ff3fe608060405234801561000f575f80fd5b5060043610610060575f3560e01c80633984403a14610064578063413b09af1461008257806359966cc41461009e5780636c1f3ef6146100ce578063ed32a8a114610100578063edd6cfb11461011c575b5f80fd5b61006c610138565b60405161007991906105c3565b60405180910390f35b61009c60048036038101906100979190610753565b610141565b005b6100b860048036038101906100b391906107db565b6101cc565b6040516100c59190610986565b60405180910390f35b6100e860048036038101906100e391906107db565b6102e2565b6040516100f7939291906109ee565b60405180910390f35b61011a60048036038101906101159190610a31565b61042c565b005b610136600480360381019061013191906107db565b610497565b005b5f600154905090565b5f60405180604001604052808481526020018381525090505f60028560405161016a9190610af3565b908152602001604051809103902090508060030182908060018154018082558091505060019003905f5260205f2090600202015f909190919091505f820151815f0190816101b89190610d03565b506020820151816001015550505050505050565b60606002826040516101de9190610af3565b9081526020016040518091039020600301805480602002602001604051908101604052809291908181526020015f905b828210156102d7578382905f5260205f2090600202016040518060400160405290815f8201805461023e90610b36565b80601f016020809104026020016040519081016040528092919081815260200182805461026a90610b36565b80156102b55780601f1061028c576101008083540402835291602001916102b5565b820191905f5260205f20905b81548152906001019060200180831161029857829003601f168201915b505050505081526020016001820154815250508152602001906001019061020e565b505050509050919050565b6002818051602081018201805184825260208301602085012081835280955050505050505f91509050805f01805461031990610b36565b80601f016020809104026020016040519081016040528092919081815260200182805461034590610b36565b80156103905780601f1061036757610100808354040283529160200191610390565b820191905f5260205f20905b81548152906001019060200180831161037357829003601f168201915b5050505050908060010154908060020180546103ab90610b36565b80601f01602080910402602001604051908101604052809291908181526020018280546103d790610b36565b80156104225780601f106103f957610100808354040283529160200191610422565b820191905f5260205f20905b81548152906001019060200180831161040557829003601f168201915b5050505050905083565b5f60028260405161043d9190610af3565b9081526020016040518091039020905083815f01908161045d9190610d03565b50828160010181905550818160020190816104789190610d03565b506001805f82825461048a9190610dff565b9250508190555050505050565b6002816040516104a79190610af3565b90815260200160405180910390205f8082015f6104c49190610506565b600182015f9055600282015f6104da9190610506565b600382015f6104e99190610543565b50506001805f8282546104fc9190610e32565b9250508190555050565b50805461051290610b36565b5f825580601f106105235750610540565b601f0160209004905f5260205f209081019061053f9190610564565b5b50565b5080545f8255600202905f5260205f2090810190610561919061057f565b50565b5b8082111561057b575f815f905550600101610565565b5090565b5b808211156105a7575f8082015f6105979190610506565b600182015f905550600201610580565b5090565b5f819050919050565b6105bd816105ab565b82525050565b5f6020820190506105d65f8301846105b4565b92915050565b5f604051905090565b5f80fd5b5f80fd5b5f80fd5b5f80fd5b5f601f19601f8301169050919050565b7f4e487b71000000000000000000000000000000000000000000000000000000005f52604160045260245ffd5b61063b826105f5565b810181811067ffffffffffffffff8211171561065a57610659610605565b5b80604052505050565b5f61066c6105dc565b90506106788282610632565b919050565b5f67ffffffffffffffff82111561069757610696610605565b5b6106a0826105f5565b9050602081019050919050565b828183375f83830152505050565b5f6106cd6106c88461067d565b610663565b9050828152602081018484840111156106e9576106e86105f1565b5b6106f48482856106ad565b509392505050565b5f82601f8301126107105761070f6105ed565b5b81356107208482602086016106bb565b91505092915050565b610732816105ab565b811461073c575f80fd5b50565b5f8135905061074d81610729565b92915050565b5f805f6060848603121561076a576107696105e5565b5b5f84013567ffffffffffffffff811115610787576107866105e9565b5b610793868287016106fc565b935050602084013567ffffffffffffffff8111156107b4576107b36105e9565b5b6107c0868287016106fc565b92505060406107d18682870161073f565b9150509250925092565b5f602082840312156107f0576107ef6105e5565b5b5f82013567ffffffffffffffff81111561080d5761080c6105e9565b5b610819848285016106fc565b91505092915050565b5f81519050919050565b5f82825260208201905092915050565b5f819050602082019050919050565b5f81519050919050565b5f82825260208201905092915050565b8281835e5f83830152505050565b5f61087d8261084b565b6108878185610855565b9350610897818560208601610865565b6108a0816105f5565b840191505092915050565b6108b4816105ab565b82525050565b5f604083015f8301518482035f8601526108d48282610873565b91505060208301516108e960208601826108ab565b508091505092915050565b5f6108ff83836108ba565b905092915050565b5f602082019050919050565b5f61091d82610822565b610927818561082c565b9350836020820285016109398561083c565b805f5b85811015610974578484038952815161095585826108f4565b945061096083610907565b925060208a0199505060018101905061093c565b50829750879550505050505092915050565b5f6020820190508181035f83015261099e8184610913565b905092915050565b5f82825260208201905092915050565b5f6109c08261084b565b6109ca81856109a6565b93506109da818560208601610865565b6109e3816105f5565b840191505092915050565b5f6060820190508181035f830152610a0681866109b6565b9050610a1560208301856105b4565b8181036040830152610a2781846109b6565b9050949350505050565b5f805f60608486031215610a4857610a476105e5565b5b5f84013567ffffffffffffffff811115610a6557610a646105e9565b5b610a71868287016106fc565b9350506020610a828682870161073f565b925050604084013567ffffffffffffffff811115610aa357610aa26105e9565b5b610aaf868287016106fc565b9150509250925092565b5f81905092915050565b5f610acd8261084b565b610ad78185610ab9565b9350610ae7818560208601610865565b80840191505092915050565b5f610afe8284610ac3565b915081905092915050565b7f4e487b71000000000000000000000000000000000000000000000000000000005f52602260045260245ffd5b5f6002820490506001821680610b4d57607f821691505b602082108103610b6057610b5f610b09565b5b50919050565b5f819050815f5260205f209050919050565b5f6020601f8301049050919050565b5f82821b905092915050565b5f60088302610bc27fffffffffffffffffffffffffffffffffffffffffffffffffffffffffffffffff82610b87565b610bcc8683610b87565b95508019841693508086168417925050509392505050565b5f819050919050565b5f610c07610c02610bfd846105ab565b610be4565b6105ab565b9050919050565b5f819050919050565b610c2083610bed565b610c34610c2c82610c0e565b848454610b93565b825550505050565b5f90565b610c48610c3c565b610c53818484610c17565b505050565b5b81811015610c7657610c6b5f82610c40565b600181019050610c59565b5050565b601f821115610cbb57610c8c81610b66565b610c9584610b78565b81016020851015610ca4578190505b610cb8610cb085610b78565b830182610c58565b50505b505050565b5f82821c905092915050565b5f610cdb5f1984600802610cc0565b1980831691505092915050565b5f610cf38383610ccc565b9150826002028217905092915050565b610d0c8261084b565b67ffffffffffffffff811115610d2557610d24610605565b5b610d2f8254610b36565b610d3a828285610c7a565b5f60209050601f831160018114610d6b575f8415610d59578287015190505b610d638582610ce8565b865550610dca565b601f198416610d7986610b66565b5f5b82811015610da057848901518255600182019150602085019450602081019050610d7b565b86831015610dbd5784890151610db9601f891682610ccc565b8355505b6001600288020188555050505b505050505050565b7f4e487b71000000000000000000000000000000000000000000000000000000005f52601160045260245ffd5b5f610e09826105ab565b9150610e14836105ab565b9250828201905080821115610e2c57610e2b610dd2565b5b92915050565b5f610e3c826105ab565b9150610e47836105ab565b9250828203905081811115610e5f57610e5e610dd2565b5b9291505056fea26469706673582212206cf4b6d768712b1a26a45f09e9e0c7a85caa599adfc863c2130152fd779a1d3264736f6c634300081a0033",
					"opcodes": "PUSH1 0x80 PUSH1 0x40 MSTORE CALLVALUE DUP1 ISZERO PUSH1 0xE JUMPI PUSH0 DUP1 REVERT JUMPDEST POP PUSH2 0xE9B DUP1 PUSH2 0x1C PUSH0 CODECOPY PUSH0 RETURN INVALID PUSH1 0x80 PUSH1 0x40 MSTORE CALLVALUE DUP1 ISZERO PUSH2 0xF JUMPI PUSH0 DUP1 REVERT JUMPDEST POP PUSH1 0x4 CALLDATASIZE LT PUSH2 0x60 JUMPI PUSH0 CALLDATALOAD PUSH1 0xE0 SHR DUP1 PUSH4 0x3984403A EQ PUSH2 0x64 JUMPI DUP1 PUSH4 0x413B09AF EQ PUSH2 0x82 JUMPI DUP1 PUSH4 0x59966CC4 EQ PUSH2 0x9E JUMPI DUP1 PUSH4 0x6C1F3EF6 EQ PUSH2 0xCE JUMPI DUP1 PUSH4 0xED32A8A1 EQ PUSH2 0x100 JUMPI DUP1 PUSH4 0xEDD6CFB1 EQ PUSH2 0x11C JUMPI JUMPDEST PUSH0 DUP1 REVERT JUMPDEST PUSH2 0x6C PUSH2 0x138 JUMP JUMPDEST PUSH1 0x40 MLOAD PUSH2 0x79 SWAP2 SWAP1 PUSH2 0x5C3 JUMP JUMPDEST PUSH1 0x40 MLOAD DUP1 SWAP2 SUB SWAP1 RETURN JUMPDEST PUSH2 0x9C PUSH1 0x4 DUP1 CALLDATASIZE SUB DUP2 ADD SWAP1 PUSH2 0x97 SWAP2 SWAP1 PUSH2 0x753 JUMP JUMPDEST PUSH2 0x141 JUMP JUMPDEST STOP JUMPDEST PUSH2 0xB8 PUSH1 0x4 DUP1 CALLDATASIZE SUB DUP2 ADD SWAP1 PUSH2 0xB3 SWAP2 SWAP1 PUSH2 0x7DB JUMP JUMPDEST PUSH2 0x1CC JUMP JUMPDEST PUSH1 0x40 MLOAD PUSH2 0xC5 SWAP2 SWAP1 PUSH2 0x986 JUMP JUMPDEST PUSH1 0x40 MLOAD DUP1 SWAP2 SUB SWAP1 RETURN JUMPDEST PUSH2 0xE8 PUSH1 0x4 DUP1 CALLDATASIZE SUB DUP2 ADD SWAP1 PUSH2 0xE3 SWAP2 SWAP1 PUSH2 0x7DB JUMP JUMPDEST PUSH2 0x2E2 JUMP JUMPDEST PUSH1 0x40 MLOAD PUSH2 0xF7 SWAP4 SWAP3 SWAP2 SWAP1 PUSH2 0x9EE JUMP JUMPDEST PUSH1 0x40 MLOAD DUP1 SWAP2 SUB SWAP1 RETURN JUMPDEST PUSH2 0x11A PUSH1 0x4 DUP1 CALLDATASIZE SUB DUP2 ADD SWAP1 PUSH2 0x115 SWAP2 SWAP1 PUSH2 0xA31 JUMP JUMPDEST PUSH2 0x42C JUMP JUMPDEST STOP JUMPDEST PUSH2 0x136 PUSH1 0x4 DUP1 CALLDATASIZE SUB DUP2 ADD SWAP1 PUSH2 0x131 SWAP2 SWAP1 PUSH2 0x7DB JUMP JUMPDEST PUSH2 0x497 JUMP JUMPDEST STOP JUMPDEST PUSH0 PUSH1 0x1 SLOAD SWAP1 POP SWAP1 JUMP JUMPDEST PUSH0 PUSH1 0x40 MLOAD DUP1 PUSH1 0x40 ADD PUSH1 0x40 MSTORE DUP1 DUP5 DUP2 MSTORE PUSH1 0x20 ADD DUP4 DUP2 MSTORE POP SWAP1 POP PUSH0 PUSH1 0x2 DUP6 PUSH1 0x40 MLOAD PUSH2 0x16A SWAP2 SWAP1 PUSH2 0xAF3 JUMP JUMPDEST SWAP1 DUP2 MSTORE PUSH1 0x20 ADD PUSH1 0x40 MLOAD DUP1 SWAP2 SUB SWAP1 KECCAK256 SWAP1 POP DUP1 PUSH1 0x3 ADD DUP3 SWAP1 DUP1 PUSH1 0x1 DUP2 SLOAD ADD DUP1 DUP3 SSTORE DUP1 SWAP2 POP POP PUSH1 0x1 SWAP1 SUB SWAP1 PUSH0 MSTORE PUSH1 0x20 PUSH0 KECCAK256 SWAP1 PUSH1 0x2 MUL ADD PUSH0 SWAP1 SWAP2 SWAP1 SWAP2 SWAP1 SWAP2 POP PUSH0 DUP3 ADD MLOAD DUP2 PUSH0 ADD SWAP1 DUP2 PUSH2 0x1B8 SWAP2 SWAP1 PUSH2 0xD03 JUMP JUMPDEST POP PUSH1 0x20 DUP3 ADD MLOAD DUP2 PUSH1 0x1 ADD SSTORE POP POP POP POP POP POP POP JUMP JUMPDEST PUSH1 0x60 PUSH1 0x2 DUP3 PUSH1 0x40 MLOAD PUSH2 0x1DE SWAP2 SWAP1 PUSH2 0xAF3 JUMP JUMPDEST SWAP1 DUP2 MSTORE PUSH1 0x20 ADD PUSH1 0x40 MLOAD DUP1 SWAP2 SUB SWAP1 KECCAK256 PUSH1 0x3 ADD DUP1 SLOAD DUP1 PUSH1 0x20 MUL PUSH1 0x20 ADD PUSH1 0x40 MLOAD SWAP1 DUP2 ADD PUSH1 0x40 MSTORE DUP1 SWAP3 SWAP2 SWAP1 DUP2 DUP2 MSTORE PUSH1 0x20 ADD PUSH0 SWAP1 JUMPDEST DUP3 DUP3 LT ISZERO PUSH2 0x2D7 JUMPI DUP4 DUP3 SWAP1 PUSH0 MSTORE PUSH1 0x20 PUSH0 KECCAK256 SWAP1 PUSH1 0x2 MUL ADD PUSH1 0x40 MLOAD DUP1 PUSH1 0x40 ADD PUSH1 0x40 MSTORE SWAP1 DUP2 PUSH0 DUP3 ADD DUP1 SLOAD PUSH2 0x23E SWAP1 PUSH2 0xB36 JUMP JUMPDEST DUP1 PUSH1 0x1F ADD PUSH1 0x20 DUP1 SWAP2 DIV MUL PUSH1 0x20 ADD PUSH1 0x40 MLOAD SWAP1 DUP2 ADD PUSH1 0x40 MSTORE DUP1 SWAP3 SWAP2 SWAP1 DUP2 DUP2 MSTORE PUSH1 0x20 ADD DUP3 DUP1 SLOAD PUSH2 0x26A SWAP1 PUSH2 0xB36 JUMP JUMPDEST DUP1 ISZERO PUSH2 0x2B5 JUMPI DUP1 PUSH1 0x1F LT PUSH2 0x28C JUMPI PUSH2 0x100 DUP1 DUP4 SLOAD DIV MUL DUP4 MSTORE SWAP2 PUSH1 0x20 ADD SWAP2 PUSH2 0x2B5 JUMP JUMPDEST DUP3 ADD SWAP2 SWAP1 PUSH0 MSTORE PUSH1 0x20 PUSH0 KECCAK256 SWAP1 JUMPDEST DUP2 SLOAD DUP2 MSTORE SWAP1 PUSH1 0x1 ADD SWAP1 PUSH1 0x20 ADD DUP1 DUP4 GT PUSH2 0x298 JUMPI DUP3 SWAP1 SUB PUSH1 0x1F AND DUP3 ADD SWAP2 JUMPDEST POP POP POP POP POP DUP2 MSTORE PUSH1 0x20 ADD PUSH1 0x1 DUP3 ADD SLOAD DUP2 MSTORE POP POP DUP2 MSTORE PUSH1 0x20 ADD SWAP1 PUSH1 0x1 ADD SWAP1 PUSH2 0x20E JUMP JUMPDEST POP POP POP POP SWAP1 POP SWAP2 SWAP1 POP JUMP JUMPDEST PUSH1 0x2 DUP2 DUP1 MLOAD PUSH1 0x20 DUP2 ADD DUP3 ADD DUP1 MLOAD DUP5 DUP3 MSTORE PUSH1 0x20 DUP4 ADD PUSH1 0x20 DUP6 ADD KECCAK256 DUP2 DUP4 MSTORE DUP1 SWAP6 POP POP POP POP POP POP PUSH0 SWAP2 POP SWAP1 POP DUP1 PUSH0 ADD DUP1 SLOAD PUSH2 0x319 SWAP1 PUSH2 0xB36 JUMP JUMPDEST DUP1 PUSH1 0x1F ADD PUSH1 0x20 DUP1 SWAP2 DIV MUL PUSH1 0x20 ADD PUSH1 0x40 MLOAD SWAP1 DUP2 ADD PUSH1 0x40 MSTORE DUP1 SWAP3 SWAP2 SWAP1 DUP2 DUP2 MSTORE PUSH1 0x20 ADD DUP3 DUP1 SLOAD PUSH2 0x345 SWAP1 PUSH2 0xB36 JUMP JUMPDEST DUP1 ISZERO PUSH2 0x390 JUMPI DUP1 PUSH1 0x1F LT PUSH2 0x367 JUMPI PUSH2 0x100 DUP1 DUP4 SLOAD DIV MUL DUP4 MSTORE SWAP2 PUSH1 0x20 ADD SWAP2 PUSH2 0x390 JUMP JUMPDEST DUP3 ADD SWAP2 SWAP1 PUSH0 MSTORE PUSH1 0x20 PUSH0 KECCAK256 SWAP1 JUMPDEST DUP2 SLOAD DUP2 MSTORE SWAP1 PUSH1 0x1 ADD SWAP1 PUSH1 0x20 ADD DUP1 DUP4 GT PUSH2 0x373 JUMPI DUP3 SWAP1 SUB PUSH1 0x1F AND DUP3 ADD SWAP2 JUMPDEST POP POP POP POP POP SWAP1 DUP1 PUSH1 0x1 ADD SLOAD SWAP1 DUP1 PUSH1 0x2 ADD DUP1 SLOAD PUSH2 0x3AB SWAP1 PUSH2 0xB36 JUMP JUMPDEST DUP1 PUSH1 0x1F ADD PUSH1 0x20 DUP1 SWAP2 DIV MUL PUSH1 0x20 ADD PUSH1 0x40 MLOAD SWAP1 DUP2 ADD PUSH1 0x40 MSTORE DUP1 SWAP3 SWAP2 SWAP1 DUP2 DUP2 MSTORE PUSH1 0x20 ADD DUP3 DUP1 SLOAD PUSH2 0x3D7 SWAP1 PUSH2 0xB36 JUMP JUMPDEST DUP1 ISZERO PUSH2 0x422 JUMPI DUP1 PUSH1 0x1F LT PUSH2 0x3F9 JUMPI PUSH2 0x100 DUP1 DUP4 SLOAD DIV MUL DUP4 MSTORE SWAP2 PUSH1 0x20 ADD SWAP2 PUSH2 0x422 JUMP JUMPDEST DUP3 ADD SWAP2 SWAP1 PUSH0 MSTORE PUSH1 0x20 PUSH0 KECCAK256 SWAP1 JUMPDEST DUP2 SLOAD DUP2 MSTORE SWAP1 PUSH1 0x1 ADD SWAP1 PUSH1 0x20 ADD DUP1 DUP4 GT PUSH2 0x405 JUMPI DUP3 SWAP1 SUB PUSH1 0x1F AND DUP3 ADD SWAP2 JUMPDEST POP POP POP POP POP SWAP1 POP DUP4 JUMP JUMPDEST PUSH0 PUSH1 0x2 DUP3 PUSH1 0x40 MLOAD PUSH2 0x43D SWAP2 SWAP1 PUSH2 0xAF3 JUMP JUMPDEST SWAP1 DUP2 MSTORE PUSH1 0x20 ADD PUSH1 0x40 MLOAD DUP1 SWAP2 SUB SWAP1 KECCAK256 SWAP1 POP DUP4 DUP2 PUSH0 ADD SWAP1 DUP2 PUSH2 0x45D SWAP2 SWAP1 PUSH2 0xD03 JUMP JUMPDEST POP DUP3 DUP2 PUSH1 0x1 ADD DUP2 SWAP1 SSTORE POP DUP2 DUP2 PUSH1 0x2 ADD SWAP1 DUP2 PUSH2 0x478 SWAP2 SWAP1 PUSH2 0xD03 JUMP JUMPDEST POP PUSH1 0x1 DUP1 PUSH0 DUP3 DUP3 SLOAD PUSH2 0x48A SWAP2 SWAP1 PUSH2 0xDFF JUMP JUMPDEST SWAP3 POP POP DUP2 SWAP1 SSTORE POP POP POP POP POP JUMP JUMPDEST PUSH1 0x2 DUP2 PUSH1 0x40 MLOAD PUSH2 0x4A7 SWAP2 SWAP1 PUSH2 0xAF3 JUMP JUMPDEST SWAP1 DUP2 MSTORE PUSH1 0x20 ADD PUSH1 0x40 MLOAD DUP1 SWAP2 SUB SWAP1 KECCAK256 PUSH0 DUP1 DUP3 ADD PUSH0 PUSH2 0x4C4 SWAP2 SWAP1 PUSH2 0x506 JUMP JUMPDEST PUSH1 0x1 DUP3 ADD PUSH0 SWAP1 SSTORE PUSH1 0x2 DUP3 ADD PUSH0 PUSH2 0x4DA SWAP2 SWAP1 PUSH2 0x506 JUMP JUMPDEST PUSH1 0x3 DUP3 ADD PUSH0 PUSH2 0x4E9 SWAP2 SWAP1 PUSH2 0x543 JUMP JUMPDEST POP POP PUSH1 0x1 DUP1 PUSH0 DUP3 DUP3 SLOAD PUSH2 0x4FC SWAP2 SWAP1 PUSH2 0xE32 JUMP JUMPDEST SWAP3 POP POP DUP2 SWAP1 SSTORE POP POP JUMP JUMPDEST POP DUP1 SLOAD PUSH2 0x512 SWAP1 PUSH2 0xB36 JUMP JUMPDEST PUSH0 DUP3 SSTORE DUP1 PUSH1 0x1F LT PUSH2 0x523 JUMPI POP PUSH2 0x540 JUMP JUMPDEST PUSH1 0x1F ADD PUSH1 0x20 SWAP1 DIV SWAP1 PUSH0 MSTORE PUSH1 0x20 PUSH0 KECCAK256 SWAP1 DUP2 ADD SWAP1 PUSH2 0x53F SWAP2 SWAP1 PUSH2 0x564 JUMP JUMPDEST JUMPDEST POP JUMP JUMPDEST POP DUP1 SLOAD PUSH0 DUP3 SSTORE PUSH1 0x2 MUL SWAP1 PUSH0 MSTORE PUSH1 0x20 PUSH0 KECCAK256 SWAP1 DUP2 ADD SWAP1 PUSH2 0x561 SWAP2 SWAP1 PUSH2 0x57F JUMP JUMPDEST POP JUMP JUMPDEST JUMPDEST DUP1 DUP3 GT ISZERO PUSH2 0x57B JUMPI PUSH0 DUP2 PUSH0 SWAP1 SSTORE POP PUSH1 0x1 ADD PUSH2 0x565 JUMP JUMPDEST POP SWAP1 JUMP JUMPDEST JUMPDEST DUP1 DUP3 GT ISZERO PUSH2 0x5A7 JUMPI PUSH0 DUP1 DUP3 ADD PUSH0 PUSH2 0x597 SWAP2 SWAP1 PUSH2 0x506 JUMP JUMPDEST PUSH1 0x1 DUP3 ADD PUSH0 SWAP1 SSTORE POP PUSH1 0x2 ADD PUSH2 0x580 JUMP JUMPDEST POP SWAP1 JUMP JUMPDEST PUSH0 DUP2 SWAP1 POP SWAP2 SWAP1 POP JUMP JUMPDEST PUSH2 0x5BD DUP2 PUSH2 0x5AB JUMP JUMPDEST DUP3 MSTORE POP POP JUMP JUMPDEST PUSH0 PUSH1 0x20 DUP3 ADD SWAP1 POP PUSH2 0x5D6 PUSH0 DUP4 ADD DUP5 PUSH2 0x5B4 JUMP JUMPDEST SWAP3 SWAP2 POP POP JUMP JUMPDEST PUSH0 PUSH1 0x40 MLOAD SWAP1 POP SWAP1 JUMP JUMPDEST PUSH0 DUP1 REVERT JUMPDEST PUSH0 DUP1 REVERT JUMPDEST PUSH0 DUP1 REVERT JUMPDEST PUSH0 DUP1 REVERT JUMPDEST PUSH0 PUSH1 0x1F NOT PUSH1 0x1F DUP4 ADD AND SWAP1 POP SWAP2 SWAP1 POP JUMP JUMPDEST PUSH32 0x4E487B7100000000000000000000000000000000000000000000000000000000 PUSH0 MSTORE PUSH1 0x41 PUSH1 0x4 MSTORE PUSH1 0x24 PUSH0 REVERT JUMPDEST PUSH2 0x63B DUP3 PUSH2 0x5F5 JUMP JUMPDEST DUP2 ADD DUP2 DUP2 LT PUSH8 0xFFFFFFFFFFFFFFFF DUP3 GT OR ISZERO PUSH2 0x65A JUMPI PUSH2 0x659 PUSH2 0x605 JUMP JUMPDEST JUMPDEST DUP1 PUSH1 0x40 MSTORE POP POP POP JUMP JUMPDEST PUSH0 PUSH2 0x66C PUSH2 0x5DC JUMP JUMPDEST SWAP1 POP PUSH2 0x678 DUP3 DUP3 PUSH2 0x632 JUMP JUMPDEST SWAP2 SWAP1 POP JUMP JUMPDEST PUSH0 PUSH8 0xFFFFFFFFFFFFFFFF DUP3 GT ISZERO PUSH2 0x697 JUMPI PUSH2 0x696 PUSH2 0x605 JUMP JUMPDEST JUMPDEST PUSH2 0x6A0 DUP3 PUSH2 0x5F5 JUMP JUMPDEST SWAP1 POP PUSH1 0x20 DUP2 ADD SWAP1 POP SWAP2 SWAP1 POP JUMP JUMPDEST DUP3 DUP2 DUP4 CALLDATACOPY PUSH0 DUP4 DUP4 ADD MSTORE POP POP POP JUMP JUMPDEST PUSH0 PUSH2 0x6CD PUSH2 0x6C8 DUP5 PUSH2 0x67D JUMP JUMPDEST PUSH2 0x663 JUMP JUMPDEST SWAP1 POP DUP3 DUP2 MSTORE PUSH1 0x20 DUP2 ADD DUP5 DUP5 DUP5 ADD GT ISZERO PUSH2 0x6E9 JUMPI PUSH2 0x6E8 PUSH2 0x5F1 JUMP JUMPDEST JUMPDEST PUSH2 0x6F4 DUP5 DUP3 DUP6 PUSH2 0x6AD JUMP JUMPDEST POP SWAP4 SWAP3 POP POP POP JUMP JUMPDEST PUSH0 DUP3 PUSH1 0x1F DUP4 ADD SLT PUSH2 0x710 JUMPI PUSH2 0x70F PUSH2 0x5ED JUMP JUMPDEST JUMPDEST DUP2 CALLDATALOAD PUSH2 0x720 DUP5 DUP3 PUSH1 0x20 DUP7 ADD PUSH2 0x6BB JUMP JUMPDEST SWAP2 POP POP SWAP3 SWAP2 POP POP JUMP JUMPDEST PUSH2 0x732 DUP2 PUSH2 0x5AB JUMP JUMPDEST DUP2 EQ PUSH2 0x73C JUMPI PUSH0 DUP1 REVERT JUMPDEST POP JUMP JUMPDEST PUSH0 DUP2 CALLDATALOAD SWAP1 POP PUSH2 0x74D DUP2 PUSH2 0x729 JUMP JUMPDEST SWAP3 SWAP2 POP POP JUMP JUMPDEST PUSH0 DUP1 PUSH0 PUSH1 0x60 DUP5 DUP7 SUB SLT ISZERO PUSH2 0x76A JUMPI PUSH2 0x769 PUSH2 0x5E5 JUMP JUMPDEST JUMPDEST PUSH0 DUP5 ADD CALLDATALOAD PUSH8 0xFFFFFFFFFFFFFFFF DUP2 GT ISZERO PUSH2 0x787 JUMPI PUSH2 0x786 PUSH2 0x5E9 JUMP JUMPDEST JUMPDEST PUSH2 0x793 DUP7 DUP3 DUP8 ADD PUSH2 0x6FC JUMP JUMPDEST SWAP4 POP POP PUSH1 0x20 DUP5 ADD CALLDATALOAD PUSH8 0xFFFFFFFFFFFFFFFF DUP2 GT ISZERO PUSH2 0x7B4 JUMPI PUSH2 0x7B3 PUSH2 0x5E9 JUMP JUMPDEST JUMPDEST PUSH2 0x7C0 DUP7 DUP3 DUP8 ADD PUSH2 0x6FC JUMP JUMPDEST SWAP3 POP POP PUSH1 0x40 PUSH2 0x7D1 DUP7 DUP3 DUP8 ADD PUSH2 0x73F JUMP JUMPDEST SWAP2 POP POP SWAP3 POP SWAP3 POP SWAP3 JUMP JUMPDEST PUSH0 PUSH1 0x20 DUP3 DUP5 SUB SLT ISZERO PUSH2 0x7F0 JUMPI PUSH2 0x7EF PUSH2 0x5E5 JUMP JUMPDEST JUMPDEST PUSH0 DUP3 ADD CALLDATALOAD PUSH8 0xFFFFFFFFFFFFFFFF DUP2 GT ISZERO PUSH2 0x80D JUMPI PUSH2 0x80C PUSH2 0x5E9 JUMP JUMPDEST JUMPDEST PUSH2 0x819 DUP5 DUP3 DUP6 ADD PUSH2 0x6FC JUMP JUMPDEST SWAP2 POP POP SWAP3 SWAP2 POP POP JUMP JUMPDEST PUSH0 DUP2 MLOAD SWAP1 POP SWAP2 SWAP1 POP JUMP JUMPDEST PUSH0 DUP3 DUP3 MSTORE PUSH1 0x20 DUP3 ADD SWAP1 POP SWAP3 SWAP2 POP POP JUMP JUMPDEST PUSH0 DUP2 SWAP1 POP PUSH1 0x20 DUP3 ADD SWAP1 POP SWAP2 SWAP1 POP JUMP JUMPDEST PUSH0 DUP2 MLOAD SWAP1 POP SWAP2 SWAP1 POP JUMP JUMPDEST PUSH0 DUP3 DUP3 MSTORE PUSH1 0x20 DUP3 ADD SWAP1 POP SWAP3 SWAP2 POP POP JUMP JUMPDEST DUP3 DUP2 DUP4 MCOPY PUSH0 DUP4 DUP4 ADD MSTORE POP POP POP JUMP JUMPDEST PUSH0 PUSH2 0x87D DUP3 PUSH2 0x84B JUMP JUMPDEST PUSH2 0x887 DUP2 DUP6 PUSH2 0x855 JUMP JUMPDEST SWAP4 POP PUSH2 0x897 DUP2 DUP6 PUSH1 0x20 DUP7 ADD PUSH2 0x865 JUMP JUMPDEST PUSH2 0x8A0 DUP2 PUSH2 0x5F5 JUMP JUMPDEST DUP5 ADD SWAP2 POP POP SWAP3 SWAP2 POP POP JUMP JUMPDEST PUSH2 0x8B4 DUP2 PUSH2 0x5AB JUMP JUMPDEST DUP3 MSTORE POP POP JUMP JUMPDEST PUSH0 PUSH1 0x40 DUP4 ADD PUSH0 DUP4 ADD MLOAD DUP5 DUP3 SUB PUSH0 DUP7 ADD MSTORE PUSH2 0x8D4 DUP3 DUP3 PUSH2 0x873 JUMP JUMPDEST SWAP2 POP POP PUSH1 0x20 DUP4 ADD MLOAD PUSH2 0x8E9 PUSH1 0x20 DUP7 ADD DUP3 PUSH2 0x8AB JUMP JUMPDEST POP DUP1 SWAP2 POP POP SWAP3 SWAP2 POP POP JUMP JUMPDEST PUSH0 PUSH2 0x8FF DUP4 DUP4 PUSH2 0x8BA JUMP JUMPDEST SWAP1 POP SWAP3 SWAP2 POP POP JUMP JUMPDEST PUSH0 PUSH1 0x20 DUP3 ADD SWAP1 POP SWAP2 SWAP1 POP JUMP JUMPDEST PUSH0 PUSH2 0x91D DUP3 PUSH2 0x822 JUMP JUMPDEST PUSH2 0x927 DUP2 DUP6 PUSH2 0x82C JUMP JUMPDEST SWAP4 POP DUP4 PUSH1 0x20 DUP3 MUL DUP6 ADD PUSH2 0x939 DUP6 PUSH2 0x83C JUMP JUMPDEST DUP1 PUSH0 JUMPDEST DUP6 DUP2 LT ISZERO PUSH2 0x974 JUMPI DUP5 DUP5 SUB DUP10 MSTORE DUP2 MLOAD PUSH2 0x955 DUP6 DUP3 PUSH2 0x8F4 JUMP JUMPDEST SWAP5 POP PUSH2 0x960 DUP4 PUSH2 0x907 JUMP JUMPDEST SWAP3 POP PUSH1 0x20 DUP11 ADD SWAP10 POP POP PUSH1 0x1 DUP2 ADD SWAP1 POP PUSH2 0x93C JUMP JUMPDEST POP DUP3 SWAP8 POP DUP8 SWAP6 POP POP POP POP POP POP SWAP3 SWAP2 POP POP JUMP JUMPDEST PUSH0 PUSH1 0x20 DUP3 ADD SWAP1 POP DUP2 DUP2 SUB PUSH0 DUP4 ADD MSTORE PUSH2 0x99E DUP2 DUP5 PUSH2 0x913 JUMP JUMPDEST SWAP1 POP SWAP3 SWAP2 POP POP JUMP JUMPDEST PUSH0 DUP3 DUP3 MSTORE PUSH1 0x20 DUP3 ADD SWAP1 POP SWAP3 SWAP2 POP POP JUMP JUMPDEST PUSH0 PUSH2 0x9C0 DUP3 PUSH2 0x84B JUMP JUMPDEST PUSH2 0x9CA DUP2 DUP6 PUSH2 0x9A6 JUMP JUMPDEST SWAP4 POP PUSH2 0x9DA DUP2 DUP6 PUSH1 0x20 DUP7 ADD PUSH2 0x865 JUMP JUMPDEST PUSH2 0x9E3 DUP2 PUSH2 0x5F5 JUMP JUMPDEST DUP5 ADD SWAP2 POP POP SWAP3 SWAP2 POP POP JUMP JUMPDEST PUSH0 PUSH1 0x60 DUP3 ADD SWAP1 POP DUP2 DUP2 SUB PUSH0 DUP4 ADD MSTORE PUSH2 0xA06 DUP2 DUP7 PUSH2 0x9B6 JUMP JUMPDEST SWAP1 POP PUSH2 0xA15 PUSH1 0x20 DUP4 ADD DUP6 PUSH2 0x5B4 JUMP JUMPDEST DUP2 DUP2 SUB PUSH1 0x40 DUP4 ADD MSTORE PUSH2 0xA27 DUP2 DUP5 PUSH2 0x9B6 JUMP JUMPDEST SWAP1 POP SWAP5 SWAP4 POP POP POP POP JUMP JUMPDEST PUSH0 DUP1 PUSH0 PUSH1 0x60 DUP5 DUP7 SUB SLT ISZERO PUSH2 0xA48 JUMPI PUSH2 0xA47 PUSH2 0x5E5 JUMP JUMPDEST JUMPDEST PUSH0 DUP5 ADD CALLDATALOAD PUSH8 0xFFFFFFFFFFFFFFFF DUP2 GT ISZERO PUSH2 0xA65 JUMPI PUSH2 0xA64 PUSH2 0x5E9 JUMP JUMPDEST JUMPDEST PUSH2 0xA71 DUP7 DUP3 DUP8 ADD PUSH2 0x6FC JUMP JUMPDEST SWAP4 POP POP PUSH1 0x20 PUSH2 0xA82 DUP7 DUP3 DUP8 ADD PUSH2 0x73F JUMP JUMPDEST SWAP3 POP POP PUSH1 0x40 DUP5 ADD CALLDATALOAD PUSH8 0xFFFFFFFFFFFFFFFF DUP2 GT ISZERO PUSH2 0xAA3 JUMPI PUSH2 0xAA2 PUSH2 0x5E9 JUMP JUMPDEST JUMPDEST PUSH2 0xAAF DUP7 DUP3 DUP8 ADD PUSH2 0x6FC JUMP JUMPDEST SWAP2 POP POP SWAP3 POP SWAP3 POP SWAP3 JUMP JUMPDEST PUSH0 DUP2 SWAP1 POP SWAP3 SWAP2 POP POP JUMP JUMPDEST PUSH0 PUSH2 0xACD DUP3 PUSH2 0x84B JUMP JUMPDEST PUSH2 0xAD7 DUP2 DUP6 PUSH2 0xAB9 JUMP JUMPDEST SWAP4 POP PUSH2 0xAE7 DUP2 DUP6 PUSH1 0x20 DUP7 ADD PUSH2 0x865 JUMP JUMPDEST DUP1 DUP5 ADD SWAP2 POP POP SWAP3 SWAP2 POP POP JUMP JUMPDEST PUSH0 PUSH2 0xAFE DUP3 DUP5 PUSH2 0xAC3 JUMP JUMPDEST SWAP2 POP DUP2 SWAP1 POP SWAP3 SWAP2 POP POP JUMP JUMPDEST PUSH32 0x4E487B7100000000000000000000000000000000000000000000000000000000 PUSH0 MSTORE PUSH1 0x22 PUSH1 0x4 MSTORE PUSH1 0x24 PUSH0 REVERT JUMPDEST PUSH0 PUSH1 0x2 DUP3 DIV SWAP1 POP PUSH1 0x1 DUP3 AND DUP1 PUSH2 0xB4D JUMPI PUSH1 0x7F DUP3 AND SWAP2 POP JUMPDEST PUSH1 0x20 DUP3 LT DUP2 SUB PUSH2 0xB60 JUMPI PUSH2 0xB5F PUSH2 0xB09 JUMP JUMPDEST JUMPDEST POP SWAP2 SWAP1 POP JUMP JUMPDEST PUSH0 DUP2 SWAP1 POP DUP2 PUSH0 MSTORE PUSH1 0x20 PUSH0 KECCAK256 SWAP1 POP SWAP2 SWAP1 POP JUMP JUMPDEST PUSH0 PUSH1 0x20 PUSH1 0x1F DUP4 ADD DIV SWAP1 POP SWAP2 SWAP1 POP JUMP JUMPDEST PUSH0 DUP3 DUP3 SHL SWAP1 POP SWAP3 SWAP2 POP POP JUMP JUMPDEST PUSH0 PUSH1 0x8 DUP4 MUL PUSH2 0xBC2 PUSH32 0xFFFFFFFFFFFFFFFFFFFFFFFFFFFFFFFFFFFFFFFFFFFFFFFFFFFFFFFFFFFFFFFF DUP3 PUSH2 0xB87 JUMP JUMPDEST PUSH2 0xBCC DUP7 DUP4 PUSH2 0xB87 JUMP JUMPDEST SWAP6 POP DUP1 NOT DUP5 AND SWAP4 POP DUP1 DUP7 AND DUP5 OR SWAP3 POP POP POP SWAP4 SWAP3 POP POP POP JUMP JUMPDEST PUSH0 DUP2 SWAP1 POP SWAP2 SWAP1 POP JUMP JUMPDEST PUSH0 PUSH2 0xC07 PUSH2 0xC02 PUSH2 0xBFD DUP5 PUSH2 0x5AB JUMP JUMPDEST PUSH2 0xBE4 JUMP JUMPDEST PUSH2 0x5AB JUMP JUMPDEST SWAP1 POP SWAP2 SWAP1 POP JUMP JUMPDEST PUSH0 DUP2 SWAP1 POP SWAP2 SWAP1 POP JUMP JUMPDEST PUSH2 0xC20 DUP4 PUSH2 0xBED JUMP JUMPDEST PUSH2 0xC34 PUSH2 0xC2C DUP3 PUSH2 0xC0E JUMP JUMPDEST DUP5 DUP5 SLOAD PUSH2 0xB93 JUMP JUMPDEST DUP3 SSTORE POP POP POP POP JUMP JUMPDEST PUSH0 SWAP1 JUMP JUMPDEST PUSH2 0xC48 PUSH2 0xC3C JUMP JUMPDEST PUSH2 0xC53 DUP2 DUP5 DUP5 PUSH2 0xC17 JUMP JUMPDEST POP POP POP JUMP JUMPDEST JUMPDEST DUP2 DUP2 LT ISZERO PUSH2 0xC76 JUMPI PUSH2 0xC6B PUSH0 DUP3 PUSH2 0xC40 JUMP JUMPDEST PUSH1 0x1 DUP2 ADD SWAP1 POP PUSH2 0xC59 JUMP JUMPDEST POP POP JUMP JUMPDEST PUSH1 0x1F DUP3 GT ISZERO PUSH2 0xCBB JUMPI PUSH2 0xC8C DUP2 PUSH2 0xB66 JUMP JUMPDEST PUSH2 0xC95 DUP5 PUSH2 0xB78 JUMP JUMPDEST DUP2 ADD PUSH1 0x20 DUP6 LT ISZERO PUSH2 0xCA4 JUMPI DUP2 SWAP1 POP JUMPDEST PUSH2 0xCB8 PUSH2 0xCB0 DUP6 PUSH2 0xB78 JUMP JUMPDEST DUP4 ADD DUP3 PUSH2 0xC58 JUMP JUMPDEST POP POP JUMPDEST POP POP POP JUMP JUMPDEST PUSH0 DUP3 DUP3 SHR SWAP1 POP SWAP3 SWAP2 POP POP JUMP JUMPDEST PUSH0 PUSH2 0xCDB PUSH0 NOT DUP5 PUSH1 0x8 MUL PUSH2 0xCC0 JUMP JUMPDEST NOT DUP1 DUP4 AND SWAP2 POP POP SWAP3 SWAP2 POP POP JUMP JUMPDEST PUSH0 PUSH2 0xCF3 DUP4 DUP4 PUSH2 0xCCC JUMP JUMPDEST SWAP2 POP DUP3 PUSH1 0x2 MUL DUP3 OR SWAP1 POP SWAP3 SWAP2 POP POP JUMP JUMPDEST PUSH2 0xD0C DUP3 PUSH2 0x84B JUMP JUMPDEST PUSH8 0xFFFFFFFFFFFFFFFF DUP2 GT ISZERO PUSH2 0xD25 JUMPI PUSH2 0xD24 PUSH2 0x605 JUMP JUMPDEST JUMPDEST PUSH2 0xD2F DUP3 SLOAD PUSH2 0xB36 JUMP JUMPDEST PUSH2 0xD3A DUP3 DUP3 DUP6 PUSH2 0xC7A JUMP JUMPDEST PUSH0 PUSH1 0x20 SWAP1 POP PUSH1 0x1F DUP4 GT PUSH1 0x1 DUP2 EQ PUSH2 0xD6B JUMPI PUSH0 DUP5 ISZERO PUSH2 0xD59 JUMPI DUP3 DUP8 ADD MLOAD SWAP1 POP JUMPDEST PUSH2 0xD63 DUP6 DUP3 PUSH2 0xCE8 JUMP JUMPDEST DUP7 SSTORE POP PUSH2 0xDCA JUMP JUMPDEST PUSH1 0x1F NOT DUP5 AND PUSH2 0xD79 DUP7 PUSH2 0xB66 JUMP JUMPDEST PUSH0 JUMPDEST DUP3 DUP2 LT ISZERO PUSH2 0xDA0 JUMPI DUP5 DUP10 ADD MLOAD DUP3 SSTORE PUSH1 0x1 DUP3 ADD SWAP2 POP PUSH1 0x20 DUP6 ADD SWAP5 POP PUSH1 0x20 DUP2 ADD SWAP1 POP PUSH2 0xD7B JUMP JUMPDEST DUP7 DUP4 LT ISZERO PUSH2 0xDBD JUMPI DUP5 DUP10 ADD MLOAD PUSH2 0xDB9 PUSH1 0x1F DUP10 AND DUP3 PUSH2 0xCCC JUMP JUMPDEST DUP4 SSTORE POP JUMPDEST PUSH1 0x1 PUSH1 0x2 DUP9 MUL ADD DUP9 SSTORE POP POP POP JUMPDEST POP POP POP POP POP POP JUMP JUMPDEST PUSH32 0x4E487B7100000000000000000000000000000000000000000000000000000000 PUSH0 MSTORE PUSH1 0x11 PUSH1 0x4 MSTORE PUSH1 0x24 PUSH0 REVERT JUMPDEST PUSH0 PUSH2 0xE09 DUP3 PUSH2 0x5AB JUMP JUMPDEST SWAP2 POP PUSH2 0xE14 DUP4 PUSH2 0x5AB JUMP JUMPDEST SWAP3 POP DUP3 DUP3 ADD SWAP1 POP DUP1 DUP3 GT ISZERO PUSH2 0xE2C JUMPI PUSH2 0xE2B PUSH2 0xDD2 JUMP JUMPDEST JUMPDEST SWAP3 SWAP2 POP POP JUMP JUMPDEST PUSH0 PUSH2 0xE3C DUP3 PUSH2 0x5AB JUMP JUMPDEST SWAP2 POP PUSH2 0xE47 DUP4 PUSH2 0x5AB JUMP JUMPDEST SWAP3 POP DUP3 DUP3 SUB SWAP1 POP DUP2 DUP2 GT ISZERO PUSH2 0xE5F JUMPI PUSH2 0xE5E PUSH2 0xDD2 JUMP JUMPDEST JUMPDEST SWAP3 SWAP2 POP POP JUMP INVALID LOG2 PUSH5 0x6970667358 0x22 SLT KECCAK256 PUSH13 0xF4B6D768712B1A26A45F09E9E0 0xC7 0xA8 TLOAD 0xAA MSIZE SWAP11 0xDF 0xC8 PUSH4 0xC2130152 REVERT PUSH24 0x9A1D3264736F6C634300081A003300000000000000000000 "
				},
				"gasEstimates": {
					"creation": {
						"codeDepositCost": "747800",
						"executionCost": "777",
						"totalCost": "748577"
					},
					"external": {
						"addStudent(string,uint256,string)": "infinite",
						"getTotalNumberOfStudents()": "2410",
						"removeStudent(string)": "infinite",
						"student(string)": "infinite",
						"updateStudentGrade(string,string,uint256)": "infinite",
						"viewStudentsGrade(string)": "infinite"
					}
				},
				"methodIdentifiers": {
					"addStudent(string,uint256,string)": "ed32a8a1",
					"getTotalNumberOfStudents()": "3984403a",
					"removeStudent(string)": "edd6cfb1",
					"student(string)": "6c1f3ef6",
					"updateStudentGrade(string,string,uint256)": "413b09af",
					"viewStudentsGrade(string)": "59966cc4"
				}
			},
			"storageLayout": {
				"storage": [
					{
						"astId": 22,
						"contract": "Record.sol:StudentRecord",
						"label": "grades",
						"offset": 0,
						"slot": "0",
						"type": "t_array(t_struct(Grade)18_storage)dyn_storage"
					},
					{
						"astId": 24,
						"contract": "Record.sol:StudentRecord",
						"label": "totalNumberOfStudents",
						"offset": 0,
						"slot": "1",
						"type": "t_uint256"
					},
					{
						"astId": 29,
						"contract": "Record.sol:StudentRecord",
						"label": "student",
						"offset": 0,
						"slot": "2",
						"type": "t_mapping(t_string_memory_ptr,t_struct(StudentData)13_storage)"
					}
				],
				"types": {
					"t_array(t_struct(Grade)18_storage)dyn_storage": {
						"base": "t_struct(Grade)18_storage",
						"encoding": "dynamic_array",
						"label": "struct StudentRecord.Grade[]",
						"numberOfBytes": "32"
					},
					"t_mapping(t_string_memory_ptr,t_struct(StudentData)13_storage)": {
						"encoding": "mapping",
						"key": "t_string_memory_ptr",
						"label": "mapping(string => struct StudentRecord.StudentData)",
						"numberOfBytes": "32",
						"value": "t_struct(StudentData)13_storage"
					},
					"t_string_memory_ptr": {
						"encoding": "bytes",
						"label": "string",
						"numberOfBytes": "32"
					},
					"t_string_storage": {
						"encoding": "bytes",
						"label": "string",
						"numberOfBytes": "32"
					},
					"t_struct(Grade)18_storage": {
						"encoding": "inplace",
						"label": "struct StudentRecord.Grade",
						"members": [
							{
								"astId": 15,
								"contract": "Record.sol:StudentRecord",
								"label": "subjectName",
								"offset": 0,
								"slot": "0",
								"type": "t_string_storage"
							},
							{
								"astId": 17,
								"contract": "Record.sol:StudentRecord",
								"label": "marks",
								"offset": 0,
								"slot": "1",
								"type": "t_uint256"
							}
						],
						"numberOfBytes": "64"
					},
					"t_struct(StudentData)13_storage": {
						"encoding": "inplace",
						"label": "struct StudentRecord.StudentData",
						"members": [
							{
								"astId": 4,
								"contract": "Record.sol:StudentRecord",
								"label": "name",
								"offset": 0,
								"slot": "0",
								"type": "t_string_storage"
							},
							{
								"astId": 6,
								"contract": "Record.sol:StudentRecord",
								"label": "age",
								"offset": 0,
								"slot": "1",
								"type": "t_uint256"
							},
							{
								"astId": 8,
								"contract": "Record.sol:StudentRecord",
								"label": "iD",
								"offset": 0,
								"slot": "2",
								"type": "t_string_storage"
							},
							{
								"astId": 12,
								"contract": "Record.sol:StudentRecord",
								"label": "grades",
								"offset": 0,
								"slot": "3",
								"type": "t_array(t_struct(Grade)18_storage)dyn_storage"
							}
						],
						"numberOfBytes": "128"
					},
					"t_uint256": {
						"encoding": "inplace",
						"label": "uint256",
						"numberOfBytes": "32"
					}
				}
			},
			"userdoc": {
				"kind": "user",
				"methods": {
					"viewStudentsGrade(string)": {
						"notice": "function updateStudentGrade(string memory _iD, string memory subjectName ,uint marks)public{ Grade memory newGrade = Grade(subjectName , marks); StudentData storage newStudent = student[_iD]; newStudent.grades.push(newGrade); }*"
					}
				},
				"notice": "Features: 1. Add Student data : { Name, Age , ID , Grades } 2. Remove Student data by ID 3. Update Students data 4. Retrieve Students Details 5. Get Total number of students*",
				"version": 1
			}
		}
	}
}