{
	"correction.sol": {
		"Salarytracker": {
			"abi": [
				{
					"inputs": [
						{
							"internalType": "string",
							"name": "_department",
							"type": "string"
						},
						{
							"internalType": "string",
							"name": "_name",
							"type": "string"
						},
						{
							"internalType": "uint256",
							"name": "_salary",
							"type": "uint256"
						},
						{
							"internalType": "string",
							"name": "_gender",
							"type": "string"
						}
					],
					"name": "addEmployee",
					"outputs": [],
					"stateMutability": "nonpayable",
					"type": "function"
				},
				{
					"inputs": [
						{
							"internalType": "string",
							"name": "_department",
							"type": "string"
						},
						{
							"internalType": "string",
							"name": "_name",
							"type": "string"
						}
					],
					"name": "fetchSalary",
					"outputs": [
						{
							"internalType": "uint256",
							"name": "_salary",
							"type": "uint256"
						}
					],
					"stateMutability": "view",
					"type": "function"
				},
				{
					"inputs": [
						{
							"internalType": "string",
							"name": "_department",
							"type": "string"
						},
						{
							"internalType": "string",
							"name": "_name",
							"type": "string"
						},
						{
							"internalType": "uint256",
							"name": "_newSalary",
							"type": "uint256"
						}
					],
					"name": "updateSalary",
					"outputs": [],
					"stateMutability": "nonpayable",
					"type": "function"
				}
			],
			"devdoc": {
				"kind": "dev",
				"methods": {},
				"version": 1
			},
			"evm": {
				"assembly": "    /* \"correction.sol\":65:1065  contract Salarytracker{... */\n  mstore(0x40, 0x80)\n  callvalue\n  dup1\n  iszero\n  tag_1\n  jumpi\n  0x00\n  dup1\n  revert\ntag_1:\n  pop\n  dataSize(sub_0)\n  dup1\n  dataOffset(sub_0)\n  0x00\n  codecopy\n  0x00\n  return\nstop\n\nsub_0: assembly {\n        /* \"correction.sol\":65:1065  contract Salarytracker{... */\n      mstore(0x40, 0x80)\n      callvalue\n      dup1\n      iszero\n      tag_1\n      jumpi\n      0x00\n      dup1\n      revert\n    tag_1:\n      pop\n      jumpi(tag_2, lt(calldatasize, 0x04))\n      shr(0xe0, calldataload(0x00))\n      dup1\n      0x05b03787\n      eq\n      tag_3\n      jumpi\n      dup1\n      0x895716bc\n      eq\n      tag_4\n      jumpi\n      dup1\n      0xeeaa54d0\n      eq\n      tag_5\n      jumpi\n    tag_2:\n      0x00\n      dup1\n      revert\n        /* \"correction.sol\":871:1056  function fetchSalary( string memory _department,string memory _name ) public view returns(uint _salary){... */\n    tag_3:\n      tag_6\n      0x04\n      dup1\n      calldatasize\n      sub\n      dup2\n      add\n      swap1\n      tag_7\n      swap2\n      swap1\n      tag_8\n      jump\t// in\n    tag_7:\n      tag_9\n      jump\t// in\n    tag_6:\n      mload(0x40)\n      tag_10\n      swap2\n      swap1\n      tag_11\n      jump\t// in\n    tag_10:\n      mload(0x40)\n      dup1\n      swap2\n      sub\n      swap1\n      return\n        /* \"correction.sol\":373:606  function addEmployee(string memory _department, string memory _name ,uint  _salary, string memory _gender)  external{... */\n    tag_4:\n      tag_12\n      0x04\n      dup1\n      calldatasize\n      sub\n      dup2\n      add\n      swap1\n      tag_13\n      swap2\n      swap1\n      tag_14\n      jump\t// in\n    tag_13:\n      tag_15\n      jump\t// in\n    tag_12:\n      stop\n        /* \"correction.sol\":621:854  function updateSalary(string memory _department, string memory _name, uint256 _newSalary) public {... */\n    tag_5:\n      tag_16\n      0x04\n      dup1\n      calldatasize\n      sub\n      dup2\n      add\n      swap1\n      tag_17\n      swap2\n      swap1\n      tag_18\n      jump\t// in\n    tag_17:\n      tag_19\n      jump\t// in\n    tag_16:\n      stop\n        /* \"correction.sol\":871:1056  function fetchSalary( string memory _department,string memory _name ) public view returns(uint _salary){... */\n    tag_9:\n        /* \"correction.sol\":961:973  uint _salary */\n      0x00\n        /* \"correction.sol\":999:1014  EmployeeDetails */\n      dup1\n        /* \"correction.sol\":1015:1026  _department */\n      dup4\n        /* \"correction.sol\":999:1027  EmployeeDetails[_department] */\n      mload(0x40)\n      tag_21\n      swap2\n      swap1\n      tag_22\n      jump\t// in\n    tag_21:\n      swap1\n      dup2\n      mstore\n      0x20\n      add\n      mload(0x40)\n      dup1\n      swap2\n      sub\n      swap1\n      keccak256\n        /* \"correction.sol\":1028:1033  _name */\n      dup3\n        /* \"correction.sol\":999:1034  EmployeeDetails[_department][_name] */\n      mload(0x40)\n      tag_23\n      swap2\n      swap1\n      tag_22\n      jump\t// in\n    tag_23:\n      swap1\n      dup2\n      mstore\n      0x20\n      add\n      mload(0x40)\n      dup1\n      swap2\n      sub\n      swap1\n      keccak256\n        /* \"correction.sol\":999:1041  EmployeeDetails[_department][_name].salary */\n      0x01\n      add\n      sload\n        /* \"correction.sol\":992:1041  return EmployeeDetails[_department][_name].salary */\n      swap1\n      pop\n        /* \"correction.sol\":871:1056  function fetchSalary( string memory _department,string memory _name ) public view returns(uint _salary){... */\n      swap3\n      swap2\n      pop\n      pop\n      jump\t// out\n        /* \"correction.sol\":373:606  function addEmployee(string memory _department, string memory _name ,uint  _salary, string memory _gender)  external{... */\n    tag_15:\n        /* \"correction.sol\":545:590  Employee(_name, _salary , msg.sender,_gender) */\n      mload(0x40)\n      dup1\n      0x80\n      add\n      0x40\n      mstore\n      dup1\n        /* \"correction.sol\":554:559  _name */\n      dup5\n        /* \"correction.sol\":545:590  Employee(_name, _salary , msg.sender,_gender) */\n      dup2\n      mstore\n      0x20\n      add\n        /* \"correction.sol\":561:568  _salary */\n      dup4\n        /* \"correction.sol\":545:590  Employee(_name, _salary , msg.sender,_gender) */\n      dup2\n      mstore\n      0x20\n      add\n        /* \"correction.sol\":571:581  msg.sender */\n      caller\n        /* \"correction.sol\":545:590  Employee(_name, _salary , msg.sender,_gender) */\n      0xffffffffffffffffffffffffffffffffffffffff\n      and\n      dup2\n      mstore\n      0x20\n      add\n        /* \"correction.sol\":582:589  _gender */\n      dup3\n        /* \"correction.sol\":545:590  Employee(_name, _salary , msg.sender,_gender) */\n      dup2\n      mstore\n      pop\n        /* \"correction.sol\":507:522  EmployeeDetails */\n      0x00\n        /* \"correction.sol\":523:534  _department */\n      dup6\n        /* \"correction.sol\":507:535  EmployeeDetails[_department] */\n      mload(0x40)\n      tag_25\n      swap2\n      swap1\n      tag_22\n      jump\t// in\n    tag_25:\n      swap1\n      dup2\n      mstore\n      0x20\n      add\n      mload(0x40)\n      dup1\n      swap2\n      sub\n      swap1\n      keccak256\n        /* \"correction.sol\":536:541  _name */\n      dup5\n        /* \"correction.sol\":507:542  EmployeeDetails[_department][_name] */\n      mload(0x40)\n      tag_26\n      swap2\n      swap1\n      tag_22\n      jump\t// in\n    tag_26:\n      swap1\n      dup2\n      mstore\n      0x20\n      add\n      mload(0x40)\n      dup1\n      swap2\n      sub\n      swap1\n      keccak256\n        /* \"correction.sol\":507:590  EmployeeDetails[_department][_name] = Employee(_name, _salary , msg.sender,_gender) */\n      0x00\n      dup3\n      add\n      mload\n      dup2\n      0x00\n      add\n      swap1\n      dup2\n      tag_27\n      swap2\n      swap1\n      tag_28\n      jump\t// in\n    tag_27:\n      pop\n      0x20\n      dup3\n      add\n      mload\n      dup2\n      0x01\n      add\n      sstore\n      0x40\n      dup3\n      add\n      mload\n      dup2\n      0x02\n      add\n      exp(0x0100, 0x00)\n      dup2\n      sload\n      dup2\n      0xffffffffffffffffffffffffffffffffffffffff\n      mul\n      not\n      and\n      swap1\n      dup4\n      0xffffffffffffffffffffffffffffffffffffffff\n      and\n      mul\n      or\n      swap1\n      sstore\n      pop\n      0x60\n      dup3\n      add\n      mload\n      dup2\n      0x03\n      add\n      swap1\n      dup2\n      tag_29\n      swap2\n      swap1\n      tag_28\n      jump\t// in\n    tag_29:\n      pop\n      swap1\n      pop\n      pop\n        /* \"correction.sol\":373:606  function addEmployee(string memory _department, string memory _name ,uint  _salary, string memory _gender)  external{... */\n      pop\n      pop\n      pop\n      pop\n      jump\t// out\n        /* \"correction.sol\":621:854  function updateSalary(string memory _department, string memory _name, uint256 _newSalary) public {... */\n    tag_19:\n        /* \"correction.sol\":736:764  Employee storage newEmployee */\n      0x00\n        /* \"correction.sol\":767:782  EmployeeDetails */\n      dup1\n        /* \"correction.sol\":783:794  _department */\n      dup5\n        /* \"correction.sol\":767:795  EmployeeDetails[_department] */\n      mload(0x40)\n      tag_31\n      swap2\n      swap1\n      tag_22\n      jump\t// in\n    tag_31:\n      swap1\n      dup2\n      mstore\n      0x20\n      add\n      mload(0x40)\n      dup1\n      swap2\n      sub\n      swap1\n      keccak256\n        /* \"correction.sol\":796:801  _name */\n      dup4\n        /* \"correction.sol\":767:802  EmployeeDetails[_department][_name] */\n      mload(0x40)\n      tag_32\n      swap2\n      swap1\n      tag_22\n      jump\t// in\n    tag_32:\n      swap1\n      dup2\n      mstore\n      0x20\n      add\n      mload(0x40)\n      dup1\n      swap2\n      sub\n      swap1\n      keccak256\n        /* \"correction.sol\":736:802  Employee storage newEmployee = EmployeeDetails[_department][_name] */\n      swap1\n      pop\n        /* \"correction.sol\":842:852  _newSalary */\n      dup2\n        /* \"correction.sol\":821:832  newEmployee */\n      dup2\n        /* \"correction.sol\":821:839  newEmployee.salary */\n      0x01\n      add\n        /* \"correction.sol\":821:852  newEmployee.salary = _newSalary */\n      dup2\n      swap1\n      sstore\n      pop\n        /* \"correction.sol\":718:854  {... */\n      pop\n        /* \"correction.sol\":621:854  function updateSalary(string memory _department, string memory _name, uint256 _newSalary) public {... */\n      pop\n      pop\n      pop\n      jump\t// out\n        /* \"#utility.yul\":7:82   */\n    tag_33:\n        /* \"#utility.yul\":40:46   */\n      0x00\n        /* \"#utility.yul\":73:75   */\n      0x40\n        /* \"#utility.yul\":67:76   */\n      mload\n        /* \"#utility.yul\":57:76   */\n      swap1\n      pop\n        /* \"#utility.yul\":7:82   */\n      swap1\n      jump\t// out\n        /* \"#utility.yul\":88:205   */\n    tag_34:\n        /* \"#utility.yul\":197:198   */\n      0x00\n        /* \"#utility.yul\":194:195   */\n      dup1\n        /* \"#utility.yul\":187:199   */\n      revert\n        /* \"#utility.yul\":211:328   */\n    tag_35:\n        /* \"#utility.yul\":320:321   */\n      0x00\n        /* \"#utility.yul\":317:318   */\n      dup1\n        /* \"#utility.yul\":310:322   */\n      revert\n        /* \"#utility.yul\":334:451   */\n    tag_36:\n        /* \"#utility.yul\":443:444   */\n      0x00\n        /* \"#utility.yul\":440:441   */\n      dup1\n        /* \"#utility.yul\":433:445   */\n      revert\n        /* \"#utility.yul\":457:574   */\n    tag_37:\n        /* \"#utility.yul\":566:567   */\n      0x00\n        /* \"#utility.yul\":563:564   */\n      dup1\n        /* \"#utility.yul\":556:568   */\n      revert\n        /* \"#utility.yul\":580:682   */\n    tag_38:\n        /* \"#utility.yul\":621:627   */\n      0x00\n        /* \"#utility.yul\":672:674   */\n      0x1f\n        /* \"#utility.yul\":668:675   */\n      not\n        /* \"#utility.yul\":663:665   */\n      0x1f\n        /* \"#utility.yul\":656:661   */\n      dup4\n        /* \"#utility.yul\":652:666   */\n      add\n        /* \"#utility.yul\":648:676   */\n      and\n        /* \"#utility.yul\":638:676   */\n      swap1\n      pop\n        /* \"#utility.yul\":580:682   */\n      swap2\n      swap1\n      pop\n      jump\t// out\n        /* \"#utility.yul\":688:868   */\n    tag_39:\n        /* \"#utility.yul\":736:813   */\n      0x4e487b7100000000000000000000000000000000000000000000000000000000\n        /* \"#utility.yul\":733:734   */\n      0x00\n        /* \"#utility.yul\":726:814   */\n      mstore\n        /* \"#utility.yul\":833:837   */\n      0x41\n        /* \"#utility.yul\":830:831   */\n      0x04\n        /* \"#utility.yul\":823:838   */\n      mstore\n        /* \"#utility.yul\":857:861   */\n      0x24\n        /* \"#utility.yul\":854:855   */\n      0x00\n        /* \"#utility.yul\":847:862   */\n      revert\n        /* \"#utility.yul\":874:1155   */\n    tag_40:\n        /* \"#utility.yul\":957:984   */\n      tag_80\n        /* \"#utility.yul\":979:983   */\n      dup3\n        /* \"#utility.yul\":957:984   */\n      tag_38\n      jump\t// in\n    tag_80:\n        /* \"#utility.yul\":949:955   */\n      dup2\n        /* \"#utility.yul\":945:985   */\n      add\n        /* \"#utility.yul\":1087:1093   */\n      dup2\n        /* \"#utility.yul\":1075:1085   */\n      dup2\n        /* \"#utility.yul\":1072:1094   */\n      lt\n        /* \"#utility.yul\":1051:1069   */\n      0xffffffffffffffff\n        /* \"#utility.yul\":1039:1049   */\n      dup3\n        /* \"#utility.yul\":1036:1070   */\n      gt\n        /* \"#utility.yul\":1033:1095   */\n      or\n        /* \"#utility.yul\":1030:1118   */\n      iszero\n      tag_81\n      jumpi\n        /* \"#utility.yul\":1098:1116   */\n      tag_82\n      tag_39\n      jump\t// in\n    tag_82:\n        /* \"#utility.yul\":1030:1118   */\n    tag_81:\n        /* \"#utility.yul\":1138:1148   */\n      dup1\n        /* \"#utility.yul\":1134:1136   */\n      0x40\n        /* \"#utility.yul\":1127:1149   */\n      mstore\n        /* \"#utility.yul\":917:1155   */\n      pop\n        /* \"#utility.yul\":874:1155   */\n      pop\n      pop\n      jump\t// out\n        /* \"#utility.yul\":1161:1290   */\n    tag_41:\n        /* \"#utility.yul\":1195:1201   */\n      0x00\n        /* \"#utility.yul\":1222:1242   */\n      tag_84\n      tag_33\n      jump\t// in\n    tag_84:\n        /* \"#utility.yul\":1212:1242   */\n      swap1\n      pop\n        /* \"#utility.yul\":1251:1284   */\n      tag_85\n        /* \"#utility.yul\":1279:1283   */\n      dup3\n        /* \"#utility.yul\":1271:1277   */\n      dup3\n        /* \"#utility.yul\":1251:1284   */\n      tag_40\n      jump\t// in\n    tag_85:\n        /* \"#utility.yul\":1161:1290   */\n      swap2\n      swap1\n      pop\n      jump\t// out\n        /* \"#utility.yul\":1296:1604   */\n    tag_42:\n        /* \"#utility.yul\":1358:1362   */\n      0x00\n        /* \"#utility.yul\":1448:1466   */\n      0xffffffffffffffff\n        /* \"#utility.yul\":1440:1446   */\n      dup3\n        /* \"#utility.yul\":1437:1467   */\n      gt\n        /* \"#utility.yul\":1434:1490   */\n      iszero\n      tag_87\n      jumpi\n        /* \"#utility.yul\":1470:1488   */\n      tag_88\n      tag_39\n      jump\t// in\n    tag_88:\n        /* \"#utility.yul\":1434:1490   */\n    tag_87:\n        /* \"#utility.yul\":1508:1537   */\n      tag_89\n        /* \"#utility.yul\":1530:1536   */\n      dup3\n        /* \"#utility.yul\":1508:1537   */\n      tag_38\n      jump\t// in\n    tag_89:\n        /* \"#utility.yul\":1500:1537   */\n      swap1\n      pop\n        /* \"#utility.yul\":1592:1596   */\n      0x20\n        /* \"#utility.yul\":1586:1590   */\n      dup2\n        /* \"#utility.yul\":1582:1597   */\n      add\n        /* \"#utility.yul\":1574:1597   */\n      swap1\n      pop\n        /* \"#utility.yul\":1296:1604   */\n      swap2\n      swap1\n      pop\n      jump\t// out\n        /* \"#utility.yul\":1610:1758   */\n    tag_43:\n        /* \"#utility.yul\":1708:1714   */\n      dup3\n        /* \"#utility.yul\":1703:1706   */\n      dup2\n        /* \"#utility.yul\":1698:1701   */\n      dup4\n        /* \"#utility.yul\":1685:1715   */\n      calldatacopy\n        /* \"#utility.yul\":1749:1750   */\n      0x00\n        /* \"#utility.yul\":1740:1746   */\n      dup4\n        /* \"#utility.yul\":1735:1738   */\n      dup4\n        /* \"#utility.yul\":1731:1747   */\n      add\n        /* \"#utility.yul\":1724:1751   */\n      mstore\n        /* \"#utility.yul\":1610:1758   */\n      pop\n      pop\n      pop\n      jump\t// out\n        /* \"#utility.yul\":1764:2189   */\n    tag_44:\n        /* \"#utility.yul\":1842:1847   */\n      0x00\n        /* \"#utility.yul\":1867:1933   */\n      tag_92\n        /* \"#utility.yul\":1883:1932   */\n      tag_93\n        /* \"#utility.yul\":1925:1931   */\n      dup5\n        /* \"#utility.yul\":1883:1932   */\n      tag_42\n      jump\t// in\n    tag_93:\n        /* \"#utility.yul\":1867:1933   */\n      tag_41\n      jump\t// in\n    tag_92:\n        /* \"#utility.yul\":1858:1933   */\n      swap1\n      pop\n        /* \"#utility.yul\":1956:1962   */\n      dup3\n        /* \"#utility.yul\":1949:1954   */\n      dup2\n        /* \"#utility.yul\":1942:1963   */\n      mstore\n        /* \"#utility.yul\":1994:1998   */\n      0x20\n        /* \"#utility.yul\":1987:1992   */\n      dup2\n        /* \"#utility.yul\":1983:1999   */\n      add\n        /* \"#utility.yul\":2032:2035   */\n      dup5\n        /* \"#utility.yul\":2023:2029   */\n      dup5\n        /* \"#utility.yul\":2018:2021   */\n      dup5\n        /* \"#utility.yul\":2014:2030   */\n      add\n        /* \"#utility.yul\":2011:2036   */\n      gt\n        /* \"#utility.yul\":2008:2120   */\n      iszero\n      tag_94\n      jumpi\n        /* \"#utility.yul\":2039:2118   */\n      tag_95\n      tag_37\n      jump\t// in\n    tag_95:\n        /* \"#utility.yul\":2008:2120   */\n    tag_94:\n        /* \"#utility.yul\":2129:2183   */\n      tag_96\n        /* \"#utility.yul\":2176:2182   */\n      dup5\n        /* \"#utility.yul\":2171:2174   */\n      dup3\n        /* \"#utility.yul\":2166:2169   */\n      dup6\n        /* \"#utility.yul\":2129:2183   */\n      tag_43\n      jump\t// in\n    tag_96:\n        /* \"#utility.yul\":1848:2189   */\n      pop\n        /* \"#utility.yul\":1764:2189   */\n      swap4\n      swap3\n      pop\n      pop\n      pop\n      jump\t// out\n        /* \"#utility.yul\":2209:2549   */\n    tag_45:\n        /* \"#utility.yul\":2265:2270   */\n      0x00\n        /* \"#utility.yul\":2314:2317   */\n      dup3\n        /* \"#utility.yul\":2307:2311   */\n      0x1f\n        /* \"#utility.yul\":2299:2305   */\n      dup4\n        /* \"#utility.yul\":2295:2312   */\n      add\n        /* \"#utility.yul\":2291:2318   */\n      slt\n        /* \"#utility.yul\":2281:2403   */\n      tag_98\n      jumpi\n        /* \"#utility.yul\":2322:2401   */\n      tag_99\n      tag_36\n      jump\t// in\n    tag_99:\n        /* \"#utility.yul\":2281:2403   */\n    tag_98:\n        /* \"#utility.yul\":2439:2445   */\n      dup2\n        /* \"#utility.yul\":2426:2446   */\n      calldataload\n        /* \"#utility.yul\":2464:2543   */\n      tag_100\n        /* \"#utility.yul\":2539:2542   */\n      dup5\n        /* \"#utility.yul\":2531:2537   */\n      dup3\n        /* \"#utility.yul\":2524:2528   */\n      0x20\n        /* \"#utility.yul\":2516:2522   */\n      dup7\n        /* \"#utility.yul\":2512:2529   */\n      add\n        /* \"#utility.yul\":2464:2543   */\n      tag_44\n      jump\t// in\n    tag_100:\n        /* \"#utility.yul\":2455:2543   */\n      swap2\n      pop\n        /* \"#utility.yul\":2271:2549   */\n      pop\n        /* \"#utility.yul\":2209:2549   */\n      swap3\n      swap2\n      pop\n      pop\n      jump\t// out\n        /* \"#utility.yul\":2555:3389   */\n    tag_8:\n        /* \"#utility.yul\":2643:2649   */\n      0x00\n        /* \"#utility.yul\":2651:2657   */\n      dup1\n        /* \"#utility.yul\":2700:2702   */\n      0x40\n        /* \"#utility.yul\":2688:2697   */\n      dup4\n        /* \"#utility.yul\":2679:2686   */\n      dup6\n        /* \"#utility.yul\":2675:2698   */\n      sub\n        /* \"#utility.yul\":2671:2703   */\n      slt\n        /* \"#utility.yul\":2668:2787   */\n      iszero\n      tag_102\n      jumpi\n        /* \"#utility.yul\":2706:2785   */\n      tag_103\n      tag_34\n      jump\t// in\n    tag_103:\n        /* \"#utility.yul\":2668:2787   */\n    tag_102:\n        /* \"#utility.yul\":2854:2855   */\n      0x00\n        /* \"#utility.yul\":2843:2852   */\n      dup4\n        /* \"#utility.yul\":2839:2856   */\n      add\n        /* \"#utility.yul\":2826:2857   */\n      calldataload\n        /* \"#utility.yul\":2884:2902   */\n      0xffffffffffffffff\n        /* \"#utility.yul\":2876:2882   */\n      dup2\n        /* \"#utility.yul\":2873:2903   */\n      gt\n        /* \"#utility.yul\":2870:2987   */\n      iszero\n      tag_104\n      jumpi\n        /* \"#utility.yul\":2906:2985   */\n      tag_105\n      tag_35\n      jump\t// in\n    tag_105:\n        /* \"#utility.yul\":2870:2987   */\n    tag_104:\n        /* \"#utility.yul\":3011:3074   */\n      tag_106\n        /* \"#utility.yul\":3066:3073   */\n      dup6\n        /* \"#utility.yul\":3057:3063   */\n      dup3\n        /* \"#utility.yul\":3046:3055   */\n      dup7\n        /* \"#utility.yul\":3042:3064   */\n      add\n        /* \"#utility.yul\":3011:3074   */\n      tag_45\n      jump\t// in\n    tag_106:\n        /* \"#utility.yul\":3001:3074   */\n      swap3\n      pop\n        /* \"#utility.yul\":2797:3084   */\n      pop\n        /* \"#utility.yul\":3151:3153   */\n      0x20\n        /* \"#utility.yul\":3140:3149   */\n      dup4\n        /* \"#utility.yul\":3136:3154   */\n      add\n        /* \"#utility.yul\":3123:3155   */\n      calldataload\n        /* \"#utility.yul\":3182:3200   */\n      0xffffffffffffffff\n        /* \"#utility.yul\":3174:3180   */\n      dup2\n        /* \"#utility.yul\":3171:3201   */\n      gt\n        /* \"#utility.yul\":3168:3285   */\n      iszero\n      tag_107\n      jumpi\n        /* \"#utility.yul\":3204:3283   */\n      tag_108\n      tag_35\n      jump\t// in\n    tag_108:\n        /* \"#utility.yul\":3168:3285   */\n    tag_107:\n        /* \"#utility.yul\":3309:3372   */\n      tag_109\n        /* \"#utility.yul\":3364:3371   */\n      dup6\n        /* \"#utility.yul\":3355:3361   */\n      dup3\n        /* \"#utility.yul\":3344:3353   */\n      dup7\n        /* \"#utility.yul\":3340:3362   */\n      add\n        /* \"#utility.yul\":3309:3372   */\n      tag_45\n      jump\t// in\n    tag_109:\n        /* \"#utility.yul\":3299:3372   */\n      swap2\n      pop\n        /* \"#utility.yul\":3094:3382   */\n      pop\n        /* \"#utility.yul\":2555:3389   */\n      swap3\n      pop\n      swap3\n      swap1\n      pop\n      jump\t// out\n        /* \"#utility.yul\":3395:3472   */\n    tag_46:\n        /* \"#utility.yul\":3432:3439   */\n      0x00\n        /* \"#utility.yul\":3461:3466   */\n      dup2\n        /* \"#utility.yul\":3450:3466   */\n      swap1\n      pop\n        /* \"#utility.yul\":3395:3472   */\n      swap2\n      swap1\n      pop\n      jump\t// out\n        /* \"#utility.yul\":3478:3596   */\n    tag_47:\n        /* \"#utility.yul\":3565:3589   */\n      tag_112\n        /* \"#utility.yul\":3583:3588   */\n      dup2\n        /* \"#utility.yul\":3565:3589   */\n      tag_46\n      jump\t// in\n    tag_112:\n        /* \"#utility.yul\":3560:3563   */\n      dup3\n        /* \"#utility.yul\":3553:3590   */\n      mstore\n        /* \"#utility.yul\":3478:3596   */\n      pop\n      pop\n      jump\t// out\n        /* \"#utility.yul\":3602:3824   */\n    tag_11:\n        /* \"#utility.yul\":3695:3699   */\n      0x00\n        /* \"#utility.yul\":3733:3735   */\n      0x20\n        /* \"#utility.yul\":3722:3731   */\n      dup3\n        /* \"#utility.yul\":3718:3736   */\n      add\n        /* \"#utility.yul\":3710:3736   */\n      swap1\n      pop\n        /* \"#utility.yul\":3746:3817   */\n      tag_114\n        /* \"#utility.yul\":3814:3815   */\n      0x00\n        /* \"#utility.yul\":3803:3812   */\n      dup4\n        /* \"#utility.yul\":3799:3816   */\n      add\n        /* \"#utility.yul\":3790:3796   */\n      dup5\n        /* \"#utility.yul\":3746:3817   */\n      tag_47\n      jump\t// in\n    tag_114:\n        /* \"#utility.yul\":3602:3824   */\n      swap3\n      swap2\n      pop\n      pop\n      jump\t// out\n        /* \"#utility.yul\":3830:3952   */\n    tag_48:\n        /* \"#utility.yul\":3903:3927   */\n      tag_116\n        /* \"#utility.yul\":3921:3926   */\n      dup2\n        /* \"#utility.yul\":3903:3927   */\n      tag_46\n      jump\t// in\n    tag_116:\n        /* \"#utility.yul\":3896:3901   */\n      dup2\n        /* \"#utility.yul\":3893:3928   */\n      eq\n        /* \"#utility.yul\":3883:3946   */\n      tag_117\n      jumpi\n        /* \"#utility.yul\":3942:3943   */\n      0x00\n        /* \"#utility.yul\":3939:3940   */\n      dup1\n        /* \"#utility.yul\":3932:3944   */\n      revert\n        /* \"#utility.yul\":3883:3946   */\n    tag_117:\n        /* \"#utility.yul\":3830:3952   */\n      pop\n      jump\t// out\n        /* \"#utility.yul\":3958:4097   */\n    tag_49:\n        /* \"#utility.yul\":4004:4009   */\n      0x00\n        /* \"#utility.yul\":4042:4048   */\n      dup2\n        /* \"#utility.yul\":4029:4049   */\n      calldataload\n        /* \"#utility.yul\":4020:4049   */\n      swap1\n      pop\n        /* \"#utility.yul\":4058:4091   */\n      tag_119\n        /* \"#utility.yul\":4085:4090   */\n      dup2\n        /* \"#utility.yul\":4058:4091   */\n      tag_48\n      jump\t// in\n    tag_119:\n        /* \"#utility.yul\":3958:4097   */\n      swap3\n      swap2\n      pop\n      pop\n      jump\t// out\n        /* \"#utility.yul\":4103:5408   */\n    tag_14:\n        /* \"#utility.yul\":4219:4225   */\n      0x00\n        /* \"#utility.yul\":4227:4233   */\n      dup1\n        /* \"#utility.yul\":4235:4241   */\n      0x00\n        /* \"#utility.yul\":4243:4249   */\n      dup1\n        /* \"#utility.yul\":4292:4295   */\n      0x80\n        /* \"#utility.yul\":4280:4289   */\n      dup6\n        /* \"#utility.yul\":4271:4278   */\n      dup8\n        /* \"#utility.yul\":4267:4290   */\n      sub\n        /* \"#utility.yul\":4263:4296   */\n      slt\n        /* \"#utility.yul\":4260:4380   */\n      iszero\n      tag_121\n      jumpi\n        /* \"#utility.yul\":4299:4378   */\n      tag_122\n      tag_34\n      jump\t// in\n    tag_122:\n        /* \"#utility.yul\":4260:4380   */\n    tag_121:\n        /* \"#utility.yul\":4447:4448   */\n      0x00\n        /* \"#utility.yul\":4436:4445   */\n      dup6\n        /* \"#utility.yul\":4432:4449   */\n      add\n        /* \"#utility.yul\":4419:4450   */\n      calldataload\n        /* \"#utility.yul\":4477:4495   */\n      0xffffffffffffffff\n        /* \"#utility.yul\":4469:4475   */\n      dup2\n        /* \"#utility.yul\":4466:4496   */\n      gt\n        /* \"#utility.yul\":4463:4580   */\n      iszero\n      tag_123\n      jumpi\n        /* \"#utility.yul\":4499:4578   */\n      tag_124\n      tag_35\n      jump\t// in\n    tag_124:\n        /* \"#utility.yul\":4463:4580   */\n    tag_123:\n        /* \"#utility.yul\":4604:4667   */\n      tag_125\n        /* \"#utility.yul\":4659:4666   */\n      dup8\n        /* \"#utility.yul\":4650:4656   */\n      dup3\n        /* \"#utility.yul\":4639:4648   */\n      dup9\n        /* \"#utility.yul\":4635:4657   */\n      add\n        /* \"#utility.yul\":4604:4667   */\n      tag_45\n      jump\t// in\n    tag_125:\n        /* \"#utility.yul\":4594:4667   */\n      swap5\n      pop\n        /* \"#utility.yul\":4390:4677   */\n      pop\n        /* \"#utility.yul\":4744:4746   */\n      0x20\n        /* \"#utility.yul\":4733:4742   */\n      dup6\n        /* \"#utility.yul\":4729:4747   */\n      add\n        /* \"#utility.yul\":4716:4748   */\n      calldataload\n        /* \"#utility.yul\":4775:4793   */\n      0xffffffffffffffff\n        /* \"#utility.yul\":4767:4773   */\n      dup2\n        /* \"#utility.yul\":4764:4794   */\n      gt\n        /* \"#utility.yul\":4761:4878   */\n      iszero\n      tag_126\n      jumpi\n        /* \"#utility.yul\":4797:4876   */\n      tag_127\n      tag_35\n      jump\t// in\n    tag_127:\n        /* \"#utility.yul\":4761:4878   */\n    tag_126:\n        /* \"#utility.yul\":4902:4965   */\n      tag_128\n        /* \"#utility.yul\":4957:4964   */\n      dup8\n        /* \"#utility.yul\":4948:4954   */\n      dup3\n        /* \"#utility.yul\":4937:4946   */\n      dup9\n        /* \"#utility.yul\":4933:4955   */\n      add\n        /* \"#utility.yul\":4902:4965   */\n      tag_45\n      jump\t// in\n    tag_128:\n        /* \"#utility.yul\":4892:4965   */\n      swap4\n      pop\n        /* \"#utility.yul\":4687:4975   */\n      pop\n        /* \"#utility.yul\":5014:5016   */\n      0x40\n        /* \"#utility.yul\":5040:5093   */\n      tag_129\n        /* \"#utility.yul\":5085:5092   */\n      dup8\n        /* \"#utility.yul\":5076:5082   */\n      dup3\n        /* \"#utility.yul\":5065:5074   */\n      dup9\n        /* \"#utility.yul\":5061:5083   */\n      add\n        /* \"#utility.yul\":5040:5093   */\n      tag_49\n      jump\t// in\n    tag_129:\n        /* \"#utility.yul\":5030:5093   */\n      swap3\n      pop\n        /* \"#utility.yul\":4985:5103   */\n      pop\n        /* \"#utility.yul\":5170:5172   */\n      0x60\n        /* \"#utility.yul\":5159:5168   */\n      dup6\n        /* \"#utility.yul\":5155:5173   */\n      add\n        /* \"#utility.yul\":5142:5174   */\n      calldataload\n        /* \"#utility.yul\":5201:5219   */\n      0xffffffffffffffff\n        /* \"#utility.yul\":5193:5199   */\n      dup2\n        /* \"#utility.yul\":5190:5220   */\n      gt\n        /* \"#utility.yul\":5187:5304   */\n      iszero\n      tag_130\n      jumpi\n        /* \"#utility.yul\":5223:5302   */\n      tag_131\n      tag_35\n      jump\t// in\n    tag_131:\n        /* \"#utility.yul\":5187:5304   */\n    tag_130:\n        /* \"#utility.yul\":5328:5391   */\n      tag_132\n        /* \"#utility.yul\":5383:5390   */\n      dup8\n        /* \"#utility.yul\":5374:5380   */\n      dup3\n        /* \"#utility.yul\":5363:5372   */\n      dup9\n        /* \"#utility.yul\":5359:5381   */\n      add\n        /* \"#utility.yul\":5328:5391   */\n      tag_45\n      jump\t// in\n    tag_132:\n        /* \"#utility.yul\":5318:5391   */\n      swap2\n      pop\n        /* \"#utility.yul\":5113:5401   */\n      pop\n        /* \"#utility.yul\":4103:5408   */\n      swap3\n      swap6\n      swap2\n      swap5\n      pop\n      swap3\n      pop\n      jump\t// out\n        /* \"#utility.yul\":5414:6393   */\n    tag_18:\n        /* \"#utility.yul\":5511:5517   */\n      0x00\n        /* \"#utility.yul\":5519:5525   */\n      dup1\n        /* \"#utility.yul\":5527:5533   */\n      0x00\n        /* \"#utility.yul\":5576:5578   */\n      0x60\n        /* \"#utility.yul\":5564:5573   */\n      dup5\n        /* \"#utility.yul\":5555:5562   */\n      dup7\n        /* \"#utility.yul\":5551:5574   */\n      sub\n        /* \"#utility.yul\":5547:5579   */\n      slt\n        /* \"#utility.yul\":5544:5663   */\n      iszero\n      tag_134\n      jumpi\n        /* \"#utility.yul\":5582:5661   */\n      tag_135\n      tag_34\n      jump\t// in\n    tag_135:\n        /* \"#utility.yul\":5544:5663   */\n    tag_134:\n        /* \"#utility.yul\":5730:5731   */\n      0x00\n        /* \"#utility.yul\":5719:5728   */\n      dup5\n        /* \"#utility.yul\":5715:5732   */\n      add\n        /* \"#utility.yul\":5702:5733   */\n      calldataload\n        /* \"#utility.yul\":5760:5778   */\n      0xffffffffffffffff\n        /* \"#utility.yul\":5752:5758   */\n      dup2\n        /* \"#utility.yul\":5749:5779   */\n      gt\n        /* \"#utility.yul\":5746:5863   */\n      iszero\n      tag_136\n      jumpi\n        /* \"#utility.yul\":5782:5861   */\n      tag_137\n      tag_35\n      jump\t// in\n    tag_137:\n        /* \"#utility.yul\":5746:5863   */\n    tag_136:\n        /* \"#utility.yul\":5887:5950   */\n      tag_138\n        /* \"#utility.yul\":5942:5949   */\n      dup7\n        /* \"#utility.yul\":5933:5939   */\n      dup3\n        /* \"#utility.yul\":5922:5931   */\n      dup8\n        /* \"#utility.yul\":5918:5940   */\n      add\n        /* \"#utility.yul\":5887:5950   */\n      tag_45\n      jump\t// in\n    tag_138:\n        /* \"#utility.yul\":5877:5950   */\n      swap4\n      pop\n        /* \"#utility.yul\":5673:5960   */\n      pop\n        /* \"#utility.yul\":6027:6029   */\n      0x20\n        /* \"#utility.yul\":6016:6025   */\n      dup5\n        /* \"#utility.yul\":6012:6030   */\n      add\n        /* \"#utility.yul\":5999:6031   */\n      calldataload\n        /* \"#utility.yul\":6058:6076   */\n      0xffffffffffffffff\n        /* \"#utility.yul\":6050:6056   */\n      dup2\n        /* \"#utility.yul\":6047:6077   */\n      gt\n        /* \"#utility.yul\":6044:6161   */\n      iszero\n      tag_139\n      jumpi\n        /* \"#utility.yul\":6080:6159   */\n      tag_140\n      tag_35\n      jump\t// in\n    tag_140:\n        /* \"#utility.yul\":6044:6161   */\n    tag_139:\n        /* \"#utility.yul\":6185:6248   */\n      tag_141\n        /* \"#utility.yul\":6240:6247   */\n      dup7\n        /* \"#utility.yul\":6231:6237   */\n      dup3\n        /* \"#utility.yul\":6220:6229   */\n      dup8\n        /* \"#utility.yul\":6216:6238   */\n      add\n        /* \"#utility.yul\":6185:6248   */\n      tag_45\n      jump\t// in\n    tag_141:\n        /* \"#utility.yul\":6175:6248   */\n      swap3\n      pop\n        /* \"#utility.yul\":5970:6258   */\n      pop\n        /* \"#utility.yul\":6297:6299   */\n      0x40\n        /* \"#utility.yul\":6323:6376   */\n      tag_142\n        /* \"#utility.yul\":6368:6375   */\n      dup7\n        /* \"#utility.yul\":6359:6365   */\n      dup3\n        /* \"#utility.yul\":6348:6357   */\n      dup8\n        /* \"#utility.yul\":6344:6366   */\n      add\n        /* \"#utility.yul\":6323:6376   */\n      tag_49\n      jump\t// in\n    tag_142:\n        /* \"#utility.yul\":6313:6376   */\n      swap2\n      pop\n        /* \"#utility.yul\":6268:6386   */\n      pop\n        /* \"#utility.yul\":5414:6393   */\n      swap3\n      pop\n      swap3\n      pop\n      swap3\n      jump\t// out\n        /* \"#utility.yul\":6399:6498   */\n    tag_50:\n        /* \"#utility.yul\":6451:6457   */\n      0x00\n        /* \"#utility.yul\":6485:6490   */\n      dup2\n        /* \"#utility.yul\":6479:6491   */\n      mload\n        /* \"#utility.yul\":6469:6491   */\n      swap1\n      pop\n        /* \"#utility.yul\":6399:6498   */\n      swap2\n      swap1\n      pop\n      jump\t// out\n        /* \"#utility.yul\":6504:6652   */\n    tag_51:\n        /* \"#utility.yul\":6606:6617   */\n      0x00\n        /* \"#utility.yul\":6643:6646   */\n      dup2\n        /* \"#utility.yul\":6628:6646   */\n      swap1\n      pop\n        /* \"#utility.yul\":6504:6652   */\n      swap3\n      swap2\n      pop\n      pop\n      jump\t// out\n        /* \"#utility.yul\":6658:6797   */\n    tag_52:\n        /* \"#utility.yul\":6747:6753   */\n      dup3\n        /* \"#utility.yul\":6742:6745   */\n      dup2\n        /* \"#utility.yul\":6737:6740   */\n      dup4\n        /* \"#utility.yul\":6731:6754   */\n      mcopy\n        /* \"#utility.yul\":6788:6789   */\n      0x00\n        /* \"#utility.yul\":6779:6785   */\n      dup4\n        /* \"#utility.yul\":6774:6777   */\n      dup4\n        /* \"#utility.yul\":6770:6786   */\n      add\n        /* \"#utility.yul\":6763:6790   */\n      mstore\n        /* \"#utility.yul\":6658:6797   */\n      pop\n      pop\n      pop\n      jump\t// out\n        /* \"#utility.yul\":6803:7193   */\n    tag_53:\n        /* \"#utility.yul\":6909:6912   */\n      0x00\n        /* \"#utility.yul\":6937:6976   */\n      tag_147\n        /* \"#utility.yul\":6970:6975   */\n      dup3\n        /* \"#utility.yul\":6937:6976   */\n      tag_50\n      jump\t// in\n    tag_147:\n        /* \"#utility.yul\":6992:7081   */\n      tag_148\n        /* \"#utility.yul\":7074:7080   */\n      dup2\n        /* \"#utility.yul\":7069:7072   */\n      dup6\n        /* \"#utility.yul\":6992:7081   */\n      tag_51\n      jump\t// in\n    tag_148:\n        /* \"#utility.yul\":6985:7081   */\n      swap4\n      pop\n        /* \"#utility.yul\":7090:7155   */\n      tag_149\n        /* \"#utility.yul\":7148:7154   */\n      dup2\n        /* \"#utility.yul\":7143:7146   */\n      dup6\n        /* \"#utility.yul\":7136:7140   */\n      0x20\n        /* \"#utility.yul\":7129:7134   */\n      dup7\n        /* \"#utility.yul\":7125:7141   */\n      add\n        /* \"#utility.yul\":7090:7155   */\n      tag_52\n      jump\t// in\n    tag_149:\n        /* \"#utility.yul\":7180:7186   */\n      dup1\n        /* \"#utility.yul\":7175:7178   */\n      dup5\n        /* \"#utility.yul\":7171:7187   */\n      add\n        /* \"#utility.yul\":7164:7187   */\n      swap2\n      pop\n        /* \"#utility.yul\":6913:7193   */\n      pop\n        /* \"#utility.yul\":6803:7193   */\n      swap3\n      swap2\n      pop\n      pop\n      jump\t// out\n        /* \"#utility.yul\":7199:7474   */\n    tag_22:\n        /* \"#utility.yul\":7331:7334   */\n      0x00\n        /* \"#utility.yul\":7353:7448   */\n      tag_151\n        /* \"#utility.yul\":7444:7447   */\n      dup3\n        /* \"#utility.yul\":7435:7441   */\n      dup5\n        /* \"#utility.yul\":7353:7448   */\n      tag_53\n      jump\t// in\n    tag_151:\n        /* \"#utility.yul\":7346:7448   */\n      swap2\n      pop\n        /* \"#utility.yul\":7465:7468   */\n      dup2\n        /* \"#utility.yul\":7458:7468   */\n      swap1\n      pop\n        /* \"#utility.yul\":7199:7474   */\n      swap3\n      swap2\n      pop\n      pop\n      jump\t// out\n        /* \"#utility.yul\":7480:7660   */\n    tag_54:\n        /* \"#utility.yul\":7528:7605   */\n      0x4e487b7100000000000000000000000000000000000000000000000000000000\n        /* \"#utility.yul\":7525:7526   */\n      0x00\n        /* \"#utility.yul\":7518:7606   */\n      mstore\n        /* \"#utility.yul\":7625:7629   */\n      0x22\n        /* \"#utility.yul\":7622:7623   */\n      0x04\n        /* \"#utility.yul\":7615:7630   */\n      mstore\n        /* \"#utility.yul\":7649:7653   */\n      0x24\n        /* \"#utility.yul\":7646:7647   */\n      0x00\n        /* \"#utility.yul\":7639:7654   */\n      revert\n        /* \"#utility.yul\":7666:7986   */\n    tag_55:\n        /* \"#utility.yul\":7710:7716   */\n      0x00\n        /* \"#utility.yul\":7747:7748   */\n      0x02\n        /* \"#utility.yul\":7741:7745   */\n      dup3\n        /* \"#utility.yul\":7737:7749   */\n      div\n        /* \"#utility.yul\":7727:7749   */\n      swap1\n      pop\n        /* \"#utility.yul\":7794:7795   */\n      0x01\n        /* \"#utility.yul\":7788:7792   */\n      dup3\n        /* \"#utility.yul\":7784:7796   */\n      and\n        /* \"#utility.yul\":7815:7833   */\n      dup1\n        /* \"#utility.yul\":7805:7886   */\n      tag_154\n      jumpi\n        /* \"#utility.yul\":7871:7875   */\n      0x7f\n        /* \"#utility.yul\":7863:7869   */\n      dup3\n        /* \"#utility.yul\":7859:7876   */\n      and\n        /* \"#utility.yul\":7849:7876   */\n      swap2\n      pop\n        /* \"#utility.yul\":7805:7886   */\n    tag_154:\n        /* \"#utility.yul\":7933:7935   */\n      0x20\n        /* \"#utility.yul\":7925:7931   */\n      dup3\n        /* \"#utility.yul\":7922:7936   */\n      lt\n        /* \"#utility.yul\":7902:7920   */\n      dup2\n        /* \"#utility.yul\":7899:7937   */\n      sub\n        /* \"#utility.yul\":7896:7980   */\n      tag_155\n      jumpi\n        /* \"#utility.yul\":7952:7970   */\n      tag_156\n      tag_54\n      jump\t// in\n    tag_156:\n        /* \"#utility.yul\":7896:7980   */\n    tag_155:\n        /* \"#utility.yul\":7717:7986   */\n      pop\n        /* \"#utility.yul\":7666:7986   */\n      swap2\n      swap1\n      pop\n      jump\t// out\n        /* \"#utility.yul\":7992:8133   */\n    tag_56:\n        /* \"#utility.yul\":8041:8045   */\n      0x00\n        /* \"#utility.yul\":8064:8067   */\n      dup2\n        /* \"#utility.yul\":8056:8067   */\n      swap1\n      pop\n        /* \"#utility.yul\":8087:8090   */\n      dup2\n        /* \"#utility.yul\":8084:8085   */\n      0x00\n        /* \"#utility.yul\":8077:8091   */\n      mstore\n        /* \"#utility.yul\":8121:8125   */\n      0x20\n        /* \"#utility.yul\":8118:8119   */\n      0x00\n        /* \"#utility.yul\":8108:8126   */\n      keccak256\n        /* \"#utility.yul\":8100:8126   */\n      swap1\n      pop\n        /* \"#utility.yul\":7992:8133   */\n      swap2\n      swap1\n      pop\n      jump\t// out\n        /* \"#utility.yul\":8139:8232   */\n    tag_57:\n        /* \"#utility.yul\":8176:8182   */\n      0x00\n        /* \"#utility.yul\":8223:8225   */\n      0x20\n        /* \"#utility.yul\":8218:8220   */\n      0x1f\n        /* \"#utility.yul\":8211:8216   */\n      dup4\n        /* \"#utility.yul\":8207:8221   */\n      add\n        /* \"#utility.yul\":8203:8226   */\n      div\n        /* \"#utility.yul\":8193:8226   */\n      swap1\n      pop\n        /* \"#utility.yul\":8139:8232   */\n      swap2\n      swap1\n      pop\n      jump\t// out\n        /* \"#utility.yul\":8238:8345   */\n    tag_58:\n        /* \"#utility.yul\":8282:8290   */\n      0x00\n        /* \"#utility.yul\":8332:8337   */\n      dup3\n        /* \"#utility.yul\":8326:8330   */\n      dup3\n        /* \"#utility.yul\":8322:8338   */\n      shl\n        /* \"#utility.yul\":8301:8338   */\n      swap1\n      pop\n        /* \"#utility.yul\":8238:8345   */\n      swap3\n      swap2\n      pop\n      pop\n      jump\t// out\n        /* \"#utility.yul\":8351:8744   */\n    tag_59:\n        /* \"#utility.yul\":8420:8426   */\n      0x00\n        /* \"#utility.yul\":8470:8471   */\n      0x08\n        /* \"#utility.yul\":8458:8468   */\n      dup4\n        /* \"#utility.yul\":8454:8472   */\n      mul\n        /* \"#utility.yul\":8493:8590   */\n      tag_161\n        /* \"#utility.yul\":8523:8589   */\n      0xffffffffffffffffffffffffffffffffffffffffffffffffffffffffffffffff\n        /* \"#utility.yul\":8512:8521   */\n      dup3\n        /* \"#utility.yul\":8493:8590   */\n      tag_58\n      jump\t// in\n    tag_161:\n        /* \"#utility.yul\":8611:8650   */\n      tag_162\n        /* \"#utility.yul\":8641:8649   */\n      dup7\n        /* \"#utility.yul\":8630:8639   */\n      dup4\n        /* \"#utility.yul\":8611:8650   */\n      tag_58\n      jump\t// in\n    tag_162:\n        /* \"#utility.yul\":8599:8650   */\n      swap6\n      pop\n        /* \"#utility.yul\":8683:8687   */\n      dup1\n        /* \"#utility.yul\":8679:8688   */\n      not\n        /* \"#utility.yul\":8672:8677   */\n      dup5\n        /* \"#utility.yul\":8668:8689   */\n      and\n        /* \"#utility.yul\":8659:8689   */\n      swap4\n      pop\n        /* \"#utility.yul\":8732:8736   */\n      dup1\n        /* \"#utility.yul\":8722:8730   */\n      dup7\n        /* \"#utility.yul\":8718:8737   */\n      and\n        /* \"#utility.yul\":8711:8716   */\n      dup5\n        /* \"#utility.yul\":8708:8738   */\n      or\n        /* \"#utility.yul\":8698:8738   */\n      swap3\n      pop\n        /* \"#utility.yul\":8427:8744   */\n      pop\n      pop\n        /* \"#utility.yul\":8351:8744   */\n      swap4\n      swap3\n      pop\n      pop\n      pop\n      jump\t// out\n        /* \"#utility.yul\":8750:8810   */\n    tag_60:\n        /* \"#utility.yul\":8778:8781   */\n      0x00\n        /* \"#utility.yul\":8799:8804   */\n      dup2\n        /* \"#utility.yul\":8792:8804   */\n      swap1\n      pop\n        /* \"#utility.yul\":8750:8810   */\n      swap2\n      swap1\n      pop\n      jump\t// out\n        /* \"#utility.yul\":8816:8958   */\n    tag_61:\n        /* \"#utility.yul\":8866:8875   */\n      0x00\n        /* \"#utility.yul\":8899:8952   */\n      tag_165\n        /* \"#utility.yul\":8917:8951   */\n      tag_166\n        /* \"#utility.yul\":8926:8950   */\n      tag_167\n        /* \"#utility.yul\":8944:8949   */\n      dup5\n        /* \"#utility.yul\":8926:8950   */\n      tag_46\n      jump\t// in\n    tag_167:\n        /* \"#utility.yul\":8917:8951   */\n      tag_60\n      jump\t// in\n    tag_166:\n        /* \"#utility.yul\":8899:8952   */\n      tag_46\n      jump\t// in\n    tag_165:\n        /* \"#utility.yul\":8886:8952   */\n      swap1\n      pop\n        /* \"#utility.yul\":8816:8958   */\n      swap2\n      swap1\n      pop\n      jump\t// out\n        /* \"#utility.yul\":8964:9039   */\n    tag_62:\n        /* \"#utility.yul\":9007:9010   */\n      0x00\n        /* \"#utility.yul\":9028:9033   */\n      dup2\n        /* \"#utility.yul\":9021:9033   */\n      swap1\n      pop\n        /* \"#utility.yul\":8964:9039   */\n      swap2\n      swap1\n      pop\n      jump\t// out\n        /* \"#utility.yul\":9045:9314   */\n    tag_63:\n        /* \"#utility.yul\":9155:9194   */\n      tag_170\n        /* \"#utility.yul\":9186:9193   */\n      dup4\n        /* \"#utility.yul\":9155:9194   */\n      tag_61\n      jump\t// in\n    tag_170:\n        /* \"#utility.yul\":9216:9307   */\n      tag_171\n        /* \"#utility.yul\":9265:9306   */\n      tag_172\n        /* \"#utility.yul\":9289:9305   */\n      dup3\n        /* \"#utility.yul\":9265:9306   */\n      tag_62\n      jump\t// in\n    tag_172:\n        /* \"#utility.yul\":9257:9263   */\n      dup5\n        /* \"#utility.yul\":9250:9254   */\n      dup5\n        /* \"#utility.yul\":9244:9255   */\n      sload\n        /* \"#utility.yul\":9216:9307   */\n      tag_59\n      jump\t// in\n    tag_171:\n        /* \"#utility.yul\":9210:9214   */\n      dup3\n        /* \"#utility.yul\":9203:9308   */\n      sstore\n        /* \"#utility.yul\":9121:9314   */\n      pop\n        /* \"#utility.yul\":9045:9314   */\n      pop\n      pop\n      pop\n      jump\t// out\n        /* \"#utility.yul\":9320:9393   */\n    tag_64:\n        /* \"#utility.yul\":9365:9368   */\n      0x00\n        /* \"#utility.yul\":9320:9393   */\n      swap1\n      jump\t// out\n        /* \"#utility.yul\":9399:9588   */\n    tag_65:\n        /* \"#utility.yul\":9476:9508   */\n      tag_175\n      tag_64\n      jump\t// in\n    tag_175:\n        /* \"#utility.yul\":9517:9582   */\n      tag_176\n        /* \"#utility.yul\":9575:9581   */\n      dup2\n        /* \"#utility.yul\":9567:9573   */\n      dup5\n        /* \"#utility.yul\":9561:9565   */\n      dup5\n        /* \"#utility.yul\":9517:9582   */\n      tag_63\n      jump\t// in\n    tag_176:\n        /* \"#utility.yul\":9452:9588   */\n      pop\n        /* \"#utility.yul\":9399:9588   */\n      pop\n      pop\n      jump\t// out\n        /* \"#utility.yul\":9594:9780   */\n    tag_66:\n        /* \"#utility.yul\":9654:9774   */\n    tag_178:\n        /* \"#utility.yul\":9671:9674   */\n      dup2\n        /* \"#utility.yul\":9664:9669   */\n      dup2\n        /* \"#utility.yul\":9661:9675   */\n      lt\n        /* \"#utility.yul\":9654:9774   */\n      iszero\n      tag_180\n      jumpi\n        /* \"#utility.yul\":9725:9764   */\n      tag_181\n        /* \"#utility.yul\":9762:9763   */\n      0x00\n        /* \"#utility.yul\":9755:9760   */\n      dup3\n        /* \"#utility.yul\":9725:9764   */\n      tag_65\n      jump\t// in\n    tag_181:\n        /* \"#utility.yul\":9698:9699   */\n      0x01\n        /* \"#utility.yul\":9691:9696   */\n      dup2\n        /* \"#utility.yul\":9687:9700   */\n      add\n        /* \"#utility.yul\":9678:9700   */\n      swap1\n      pop\n        /* \"#utility.yul\":9654:9774   */\n      jump(tag_178)\n    tag_180:\n        /* \"#utility.yul\":9594:9780   */\n      pop\n      pop\n      jump\t// out\n        /* \"#utility.yul\":9786:10329   */\n    tag_67:\n        /* \"#utility.yul\":9887:9889   */\n      0x1f\n        /* \"#utility.yul\":9882:9885   */\n      dup3\n        /* \"#utility.yul\":9879:9890   */\n      gt\n        /* \"#utility.yul\":9876:10322   */\n      iszero\n      tag_183\n      jumpi\n        /* \"#utility.yul\":9921:9959   */\n      tag_184\n        /* \"#utility.yul\":9953:9958   */\n      dup2\n        /* \"#utility.yul\":9921:9959   */\n      tag_56\n      jump\t// in\n    tag_184:\n        /* \"#utility.yul\":10005:10034   */\n      tag_185\n        /* \"#utility.yul\":10023:10033   */\n      dup5\n        /* \"#utility.yul\":10005:10034   */\n      tag_57\n      jump\t// in\n    tag_185:\n        /* \"#utility.yul\":9995:10003   */\n      dup2\n        /* \"#utility.yul\":9991:10035   */\n      add\n        /* \"#utility.yul\":10188:10190   */\n      0x20\n        /* \"#utility.yul\":10176:10186   */\n      dup6\n        /* \"#utility.yul\":10173:10191   */\n      lt\n        /* \"#utility.yul\":10170:10219   */\n      iszero\n      tag_186\n      jumpi\n        /* \"#utility.yul\":10209:10217   */\n      dup2\n        /* \"#utility.yul\":10194:10217   */\n      swap1\n      pop\n        /* \"#utility.yul\":10170:10219   */\n    tag_186:\n        /* \"#utility.yul\":10232:10312   */\n      tag_187\n        /* \"#utility.yul\":10288:10310   */\n      tag_188\n        /* \"#utility.yul\":10306:10309   */\n      dup6\n        /* \"#utility.yul\":10288:10310   */\n      tag_57\n      jump\t// in\n    tag_188:\n        /* \"#utility.yul\":10278:10286   */\n      dup4\n        /* \"#utility.yul\":10274:10311   */\n      add\n        /* \"#utility.yul\":10261:10272   */\n      dup3\n        /* \"#utility.yul\":10232:10312   */\n      tag_66\n      jump\t// in\n    tag_187:\n        /* \"#utility.yul\":9891:10322   */\n      pop\n      pop\n        /* \"#utility.yul\":9876:10322   */\n    tag_183:\n        /* \"#utility.yul\":9786:10329   */\n      pop\n      pop\n      pop\n      jump\t// out\n        /* \"#utility.yul\":10335:10452   */\n    tag_68:\n        /* \"#utility.yul\":10389:10397   */\n      0x00\n        /* \"#utility.yul\":10439:10444   */\n      dup3\n        /* \"#utility.yul\":10433:10437   */\n      dup3\n        /* \"#utility.yul\":10429:10445   */\n      shr\n        /* \"#utility.yul\":10408:10445   */\n      swap1\n      pop\n        /* \"#utility.yul\":10335:10452   */\n      swap3\n      swap2\n      pop\n      pop\n      jump\t// out\n        /* \"#utility.yul\":10458:10627   */\n    tag_69:\n        /* \"#utility.yul\":10502:10508   */\n      0x00\n        /* \"#utility.yul\":10535:10586   */\n      tag_191\n        /* \"#utility.yul\":10583:10584   */\n      0x00\n        /* \"#utility.yul\":10579:10585   */\n      not\n        /* \"#utility.yul\":10571:10576   */\n      dup5\n        /* \"#utility.yul\":10568:10569   */\n      0x08\n        /* \"#utility.yul\":10564:10577   */\n      mul\n        /* \"#utility.yul\":10535:10586   */\n      tag_68\n      jump\t// in\n    tag_191:\n        /* \"#utility.yul\":10531:10587   */\n      not\n        /* \"#utility.yul\":10616:10620   */\n      dup1\n        /* \"#utility.yul\":10610:10614   */\n      dup4\n        /* \"#utility.yul\":10606:10621   */\n      and\n        /* \"#utility.yul\":10596:10621   */\n      swap2\n      pop\n        /* \"#utility.yul\":10509:10627   */\n      pop\n        /* \"#utility.yul\":10458:10627   */\n      swap3\n      swap2\n      pop\n      pop\n      jump\t// out\n        /* \"#utility.yul\":10632:10927   */\n    tag_70:\n        /* \"#utility.yul\":10708:10712   */\n      0x00\n        /* \"#utility.yul\":10854:10883   */\n      tag_193\n        /* \"#utility.yul\":10879:10882   */\n      dup4\n        /* \"#utility.yul\":10873:10877   */\n      dup4\n        /* \"#utility.yul\":10854:10883   */\n      tag_69\n      jump\t// in\n    tag_193:\n        /* \"#utility.yul\":10846:10883   */\n      swap2\n      pop\n        /* \"#utility.yul\":10916:10919   */\n      dup3\n        /* \"#utility.yul\":10913:10914   */\n      0x02\n        /* \"#utility.yul\":10909:10920   */\n      mul\n        /* \"#utility.yul\":10903:10907   */\n      dup3\n        /* \"#utility.yul\":10900:10921   */\n      or\n        /* \"#utility.yul\":10892:10921   */\n      swap1\n      pop\n        /* \"#utility.yul\":10632:10927   */\n      swap3\n      swap2\n      pop\n      pop\n      jump\t// out\n        /* \"#utility.yul\":10932:12327   */\n    tag_28:\n        /* \"#utility.yul\":11049:11086   */\n      tag_195\n        /* \"#utility.yul\":11082:11085   */\n      dup3\n        /* \"#utility.yul\":11049:11086   */\n      tag_50\n      jump\t// in\n    tag_195:\n        /* \"#utility.yul\":11151:11169   */\n      0xffffffffffffffff\n        /* \"#utility.yul\":11143:11149   */\n      dup2\n        /* \"#utility.yul\":11140:11170   */\n      gt\n        /* \"#utility.yul\":11137:11193   */\n      iszero\n      tag_196\n      jumpi\n        /* \"#utility.yul\":11173:11191   */\n      tag_197\n      tag_39\n      jump\t// in\n    tag_197:\n        /* \"#utility.yul\":11137:11193   */\n    tag_196:\n        /* \"#utility.yul\":11217:11255   */\n      tag_198\n        /* \"#utility.yul\":11249:11253   */\n      dup3\n        /* \"#utility.yul\":11243:11254   */\n      sload\n        /* \"#utility.yul\":11217:11255   */\n      tag_55\n      jump\t// in\n    tag_198:\n        /* \"#utility.yul\":11302:11369   */\n      tag_199\n        /* \"#utility.yul\":11362:11368   */\n      dup3\n        /* \"#utility.yul\":11354:11360   */\n      dup3\n        /* \"#utility.yul\":11348:11352   */\n      dup6\n        /* \"#utility.yul\":11302:11369   */\n      tag_67\n      jump\t// in\n    tag_199:\n        /* \"#utility.yul\":11396:11397   */\n      0x00\n        /* \"#utility.yul\":11420:11424   */\n      0x20\n        /* \"#utility.yul\":11407:11424   */\n      swap1\n      pop\n        /* \"#utility.yul\":11452:11454   */\n      0x1f\n        /* \"#utility.yul\":11444:11450   */\n      dup4\n        /* \"#utility.yul\":11441:11455   */\n      gt\n        /* \"#utility.yul\":11469:11470   */\n      0x01\n        /* \"#utility.yul\":11464:12082   */\n      dup2\n      eq\n      tag_201\n      jumpi\n        /* \"#utility.yul\":12126:12127   */\n      0x00\n        /* \"#utility.yul\":12143:12149   */\n      dup5\n        /* \"#utility.yul\":12140:12217   */\n      iszero\n      tag_202\n      jumpi\n        /* \"#utility.yul\":12192:12201   */\n      dup3\n        /* \"#utility.yul\":12187:12190   */\n      dup8\n        /* \"#utility.yul\":12183:12202   */\n      add\n        /* \"#utility.yul\":12177:12203   */\n      mload\n        /* \"#utility.yul\":12168:12203   */\n      swap1\n      pop\n        /* \"#utility.yul\":12140:12217   */\n    tag_202:\n        /* \"#utility.yul\":12243:12310   */\n      tag_203\n        /* \"#utility.yul\":12303:12309   */\n      dup6\n        /* \"#utility.yul\":12296:12301   */\n      dup3\n        /* \"#utility.yul\":12243:12310   */\n      tag_70\n      jump\t// in\n    tag_203:\n        /* \"#utility.yul\":12237:12241   */\n      dup7\n        /* \"#utility.yul\":12230:12311   */\n      sstore\n        /* \"#utility.yul\":12099:12321   */\n      pop\n        /* \"#utility.yul\":11434:12321   */\n      jump(tag_200)\n        /* \"#utility.yul\":11464:12082   */\n    tag_201:\n        /* \"#utility.yul\":11516:11520   */\n      0x1f\n        /* \"#utility.yul\":11512:11521   */\n      not\n        /* \"#utility.yul\":11504:11510   */\n      dup5\n        /* \"#utility.yul\":11500:11522   */\n      and\n        /* \"#utility.yul\":11550:11587   */\n      tag_204\n        /* \"#utility.yul\":11582:11586   */\n      dup7\n        /* \"#utility.yul\":11550:11587   */\n      tag_56\n      jump\t// in\n    tag_204:\n        /* \"#utility.yul\":11609:11610   */\n      0x00\n        /* \"#utility.yul\":11623:11831   */\n    tag_205:\n        /* \"#utility.yul\":11637:11644   */\n      dup3\n        /* \"#utility.yul\":11634:11635   */\n      dup2\n        /* \"#utility.yul\":11631:11645   */\n      lt\n        /* \"#utility.yul\":11623:11831   */\n      iszero\n      tag_207\n      jumpi\n        /* \"#utility.yul\":11716:11725   */\n      dup5\n        /* \"#utility.yul\":11711:11714   */\n      dup10\n        /* \"#utility.yul\":11707:11726   */\n      add\n        /* \"#utility.yul\":11701:11727   */\n      mload\n        /* \"#utility.yul\":11693:11699   */\n      dup3\n        /* \"#utility.yul\":11686:11728   */\n      sstore\n        /* \"#utility.yul\":11767:11768   */\n      0x01\n        /* \"#utility.yul\":11759:11765   */\n      dup3\n        /* \"#utility.yul\":11755:11769   */\n      add\n        /* \"#utility.yul\":11745:11769   */\n      swap2\n      pop\n        /* \"#utility.yul\":11814:11816   */\n      0x20\n        /* \"#utility.yul\":11803:11812   */\n      dup6\n        /* \"#utility.yul\":11799:11817   */\n      add\n        /* \"#utility.yul\":11786:11817   */\n      swap5\n      pop\n        /* \"#utility.yul\":11660:11664   */\n      0x20\n        /* \"#utility.yul\":11657:11658   */\n      dup2\n        /* \"#utility.yul\":11653:11665   */\n      add\n        /* \"#utility.yul\":11648:11665   */\n      swap1\n      pop\n        /* \"#utility.yul\":11623:11831   */\n      jump(tag_205)\n    tag_207:\n        /* \"#utility.yul\":11859:11865   */\n      dup7\n        /* \"#utility.yul\":11850:11857   */\n      dup4\n        /* \"#utility.yul\":11847:11866   */\n      lt\n        /* \"#utility.yul\":11844:12023   */\n      iszero\n      tag_208\n      jumpi\n        /* \"#utility.yul\":11917:11926   */\n      dup5\n        /* \"#utility.yul\":11912:11915   */\n      dup10\n        /* \"#utility.yul\":11908:11927   */\n      add\n        /* \"#utility.yul\":11902:11928   */\n      mload\n        /* \"#utility.yul\":11960:12008   */\n      tag_209\n        /* \"#utility.yul\":12002:12006   */\n      0x1f\n        /* \"#utility.yul\":11994:12000   */\n      dup10\n        /* \"#utility.yul\":11990:12007   */\n      and\n        /* \"#utility.yul\":11979:11988   */\n      dup3\n        /* \"#utility.yul\":11960:12008   */\n      tag_69\n      jump\t// in\n    tag_209:\n        /* \"#utility.yul\":11952:11958   */\n      dup4\n        /* \"#utility.yul\":11945:12009   */\n      sstore\n        /* \"#utility.yul\":11867:12023   */\n      pop\n        /* \"#utility.yul\":11844:12023   */\n    tag_208:\n        /* \"#utility.yul\":12069:12070   */\n      0x01\n        /* \"#utility.yul\":12065:12066   */\n      0x02\n        /* \"#utility.yul\":12057:12063   */\n      dup9\n        /* \"#utility.yul\":12053:12067   */\n      mul\n        /* \"#utility.yul\":12049:12071   */\n      add\n        /* \"#utility.yul\":12043:12047   */\n      dup9\n        /* \"#utility.yul\":12036:12072   */\n      sstore\n        /* \"#utility.yul\":11471:12082   */\n      pop\n      pop\n      pop\n        /* \"#utility.yul\":11434:12321   */\n    tag_200:\n      pop\n        /* \"#utility.yul\":11024:12327   */\n      pop\n      pop\n      pop\n        /* \"#utility.yul\":10932:12327   */\n      pop\n      pop\n      jump\t// out\n\n    auxdata: 0xa26469706673582212200619ba3923731efc41d236b9a43d654056336983b4f3858fdf29415f3cb3b6b764736f6c634300081a0033\n}\n",
				"bytecode": {
					"linkReferences": {},
					"object": "6080604052348015600e575f80fd5b506108f48061001c5f395ff3fe608060405234801561000f575f80fd5b506004361061003f575f3560e01c806305b0378714610043578063895716bc14610073578063eeaa54d01461008f575b5f80fd5b61005d6004803603810190610058919061037c565b6100ab565b60405161006a919061040a565b60405180910390f35b61008d6004803603810190610088919061044d565b6100f1565b005b6100a960048036038101906100a49190610505565b6101e4565b005b5f80836040516100bb91906105df565b9081526020016040518091039020826040516100d791906105df565b908152602001604051809103902060010154905092915050565b60405180608001604052808481526020018381526020013373ffffffffffffffffffffffffffffffffffffffff168152602001828152505f8560405161013791906105df565b90815260200160405180910390208460405161015391906105df565b90815260200160405180910390205f820151815f01908161017491906107ef565b50602082015181600101556040820151816002015f6101000a81548173ffffffffffffffffffffffffffffffffffffffff021916908373ffffffffffffffffffffffffffffffffffffffff16021790555060608201518160030190816101da91906107ef565b5090505050505050565b5f80846040516101f491906105df565b90815260200160405180910390208360405161021091906105df565b9081526020016040518091039020905081816001018190555050505050565b5f604051905090565b5f80fd5b5f80fd5b5f80fd5b5f80fd5b5f601f19601f8301169050919050565b7f4e487b71000000000000000000000000000000000000000000000000000000005f52604160045260245ffd5b61028e82610248565b810181811067ffffffffffffffff821117156102ad576102ac610258565b5b80604052505050565b5f6102bf61022f565b90506102cb8282610285565b919050565b5f67ffffffffffffffff8211156102ea576102e9610258565b5b6102f382610248565b9050602081019050919050565b828183375f83830152505050565b5f61032061031b846102d0565b6102b6565b90508281526020810184848401111561033c5761033b610244565b5b610347848285610300565b509392505050565b5f82601f83011261036357610362610240565b5b813561037384826020860161030e565b91505092915050565b5f806040838503121561039257610391610238565b5b5f83013567ffffffffffffffff8111156103af576103ae61023c565b5b6103bb8582860161034f565b925050602083013567ffffffffffffffff8111156103dc576103db61023c565b5b6103e88582860161034f565b9150509250929050565b5f819050919050565b610404816103f2565b82525050565b5f60208201905061041d5f8301846103fb565b92915050565b61042c816103f2565b8114610436575f80fd5b50565b5f8135905061044781610423565b92915050565b5f805f806080858703121561046557610464610238565b5b5f85013567ffffffffffffffff8111156104825761048161023c565b5b61048e8782880161034f565b945050602085013567ffffffffffffffff8111156104af576104ae61023c565b5b6104bb8782880161034f565b93505060406104cc87828801610439565b925050606085013567ffffffffffffffff8111156104ed576104ec61023c565b5b6104f98782880161034f565b91505092959194509250565b5f805f6060848603121561051c5761051b610238565b5b5f84013567ffffffffffffffff8111156105395761053861023c565b5b6105458682870161034f565b935050602084013567ffffffffffffffff8111156105665761056561023c565b5b6105728682870161034f565b925050604061058386828701610439565b9150509250925092565b5f81519050919050565b5f81905092915050565b8281835e5f83830152505050565b5f6105b98261058d565b6105c38185610597565b93506105d38185602086016105a1565b80840191505092915050565b5f6105ea82846105af565b915081905092915050565b7f4e487b71000000000000000000000000000000000000000000000000000000005f52602260045260245ffd5b5f600282049050600182168061063957607f821691505b60208210810361064c5761064b6105f5565b5b50919050565b5f819050815f5260205f209050919050565b5f6020601f8301049050919050565b5f82821b905092915050565b5f600883026106ae7fffffffffffffffffffffffffffffffffffffffffffffffffffffffffffffffff82610673565b6106b88683610673565b95508019841693508086168417925050509392505050565b5f819050919050565b5f6106f36106ee6106e9846103f2565b6106d0565b6103f2565b9050919050565b5f819050919050565b61070c836106d9565b610720610718826106fa565b84845461067f565b825550505050565b5f90565b610734610728565b61073f818484610703565b505050565b5b81811015610762576107575f8261072c565b600181019050610745565b5050565b601f8211156107a75761077881610652565b61078184610664565b81016020851015610790578190505b6107a461079c85610664565b830182610744565b50505b505050565b5f82821c905092915050565b5f6107c75f19846008026107ac565b1980831691505092915050565b5f6107df83836107b8565b9150826002028217905092915050565b6107f88261058d565b67ffffffffffffffff81111561081157610810610258565b5b61081b8254610622565b610826828285610766565b5f60209050601f831160018114610857575f8415610845578287015190505b61084f85826107d4565b8655506108b6565b601f19841661086586610652565b5f5b8281101561088c57848901518255600182019150602085019450602081019050610867565b868310156108a957848901516108a5601f8916826107b8565b8355505b6001600288020188555050505b50505050505056fea26469706673582212200619ba3923731efc41d236b9a43d654056336983b4f3858fdf29415f3cb3b6b764736f6c634300081a0033",
					"opcodes": "PUSH1 0x80 PUSH1 0x40 MSTORE CALLVALUE DUP1 ISZERO PUSH1 0xE JUMPI PUSH0 DUP1 REVERT JUMPDEST POP PUSH2 0x8F4 DUP1 PUSH2 0x1C PUSH0 CODECOPY PUSH0 RETURN INVALID PUSH1 0x80 PUSH1 0x40 MSTORE CALLVALUE DUP1 ISZERO PUSH2 0xF JUMPI PUSH0 DUP1 REVERT JUMPDEST POP PUSH1 0x4 CALLDATASIZE LT PUSH2 0x3F JUMPI PUSH0 CALLDATALOAD PUSH1 0xE0 SHR DUP1 PUSH4 0x5B03787 EQ PUSH2 0x43 JUMPI DUP1 PUSH4 0x895716BC EQ PUSH2 0x73 JUMPI DUP1 PUSH4 0xEEAA54D0 EQ PUSH2 0x8F JUMPI JUMPDEST PUSH0 DUP1 REVERT JUMPDEST PUSH2 0x5D PUSH1 0x4 DUP1 CALLDATASIZE SUB DUP2 ADD SWAP1 PUSH2 0x58 SWAP2 SWAP1 PUSH2 0x37C JUMP JUMPDEST PUSH2 0xAB JUMP JUMPDEST PUSH1 0x40 MLOAD PUSH2 0x6A SWAP2 SWAP1 PUSH2 0x40A JUMP JUMPDEST PUSH1 0x40 MLOAD DUP1 SWAP2 SUB SWAP1 RETURN JUMPDEST PUSH2 0x8D PUSH1 0x4 DUP1 CALLDATASIZE SUB DUP2 ADD SWAP1 PUSH2 0x88 SWAP2 SWAP1 PUSH2 0x44D JUMP JUMPDEST PUSH2 0xF1 JUMP JUMPDEST STOP JUMPDEST PUSH2 0xA9 PUSH1 0x4 DUP1 CALLDATASIZE SUB DUP2 ADD SWAP1 PUSH2 0xA4 SWAP2 SWAP1 PUSH2 0x505 JUMP JUMPDEST PUSH2 0x1E4 JUMP JUMPDEST STOP JUMPDEST PUSH0 DUP1 DUP4 PUSH1 0x40 MLOAD PUSH2 0xBB SWAP2 SWAP1 PUSH2 0x5DF JUMP JUMPDEST SWAP1 DUP2 MSTORE PUSH1 0x20 ADD PUSH1 0x40 MLOAD DUP1 SWAP2 SUB SWAP1 KECCAK256 DUP3 PUSH1 0x40 MLOAD PUSH2 0xD7 SWAP2 SWAP1 PUSH2 0x5DF JUMP JUMPDEST SWAP1 DUP2 MSTORE PUSH1 0x20 ADD PUSH1 0x40 MLOAD DUP1 SWAP2 SUB SWAP1 KECCAK256 PUSH1 0x1 ADD SLOAD SWAP1 POP SWAP3 SWAP2 POP POP JUMP JUMPDEST PUSH1 0x40 MLOAD DUP1 PUSH1 0x80 ADD PUSH1 0x40 MSTORE DUP1 DUP5 DUP2 MSTORE PUSH1 0x20 ADD DUP4 DUP2 MSTORE PUSH1 0x20 ADD CALLER PUSH20 0xFFFFFFFFFFFFFFFFFFFFFFFFFFFFFFFFFFFFFFFF AND DUP2 MSTORE PUSH1 0x20 ADD DUP3 DUP2 MSTORE POP PUSH0 DUP6 PUSH1 0x40 MLOAD PUSH2 0x137 SWAP2 SWAP1 PUSH2 0x5DF JUMP JUMPDEST SWAP1 DUP2 MSTORE PUSH1 0x20 ADD PUSH1 0x40 MLOAD DUP1 SWAP2 SUB SWAP1 KECCAK256 DUP5 PUSH1 0x40 MLOAD PUSH2 0x153 SWAP2 SWAP1 PUSH2 0x5DF JUMP JUMPDEST SWAP1 DUP2 MSTORE PUSH1 0x20 ADD PUSH1 0x40 MLOAD DUP1 SWAP2 SUB SWAP1 KECCAK256 PUSH0 DUP3 ADD MLOAD DUP2 PUSH0 ADD SWAP1 DUP2 PUSH2 0x174 SWAP2 SWAP1 PUSH2 0x7EF JUMP JUMPDEST POP PUSH1 0x20 DUP3 ADD MLOAD DUP2 PUSH1 0x1 ADD SSTORE PUSH1 0x40 DUP3 ADD MLOAD DUP2 PUSH1 0x2 ADD PUSH0 PUSH2 0x100 EXP DUP2 SLOAD DUP2 PUSH20 0xFFFFFFFFFFFFFFFFFFFFFFFFFFFFFFFFFFFFFFFF MUL NOT AND SWAP1 DUP4 PUSH20 0xFFFFFFFFFFFFFFFFFFFFFFFFFFFFFFFFFFFFFFFF AND MUL OR SWAP1 SSTORE POP PUSH1 0x60 DUP3 ADD MLOAD DUP2 PUSH1 0x3 ADD SWAP1 DUP2 PUSH2 0x1DA SWAP2 SWAP1 PUSH2 0x7EF JUMP JUMPDEST POP SWAP1 POP POP POP POP POP POP JUMP JUMPDEST PUSH0 DUP1 DUP5 PUSH1 0x40 MLOAD PUSH2 0x1F4 SWAP2 SWAP1 PUSH2 0x5DF JUMP JUMPDEST SWAP1 DUP2 MSTORE PUSH1 0x20 ADD PUSH1 0x40 MLOAD DUP1 SWAP2 SUB SWAP1 KECCAK256 DUP4 PUSH1 0x40 MLOAD PUSH2 0x210 SWAP2 SWAP1 PUSH2 0x5DF JUMP JUMPDEST SWAP1 DUP2 MSTORE PUSH1 0x20 ADD PUSH1 0x40 MLOAD DUP1 SWAP2 SUB SWAP1 KECCAK256 SWAP1 POP DUP2 DUP2 PUSH1 0x1 ADD DUP2 SWAP1 SSTORE POP POP POP POP POP JUMP JUMPDEST PUSH0 PUSH1 0x40 MLOAD SWAP1 POP SWAP1 JUMP JUMPDEST PUSH0 DUP1 REVERT JUMPDEST PUSH0 DUP1 REVERT JUMPDEST PUSH0 DUP1 REVERT JUMPDEST PUSH0 DUP1 REVERT JUMPDEST PUSH0 PUSH1 0x1F NOT PUSH1 0x1F DUP4 ADD AND SWAP1 POP SWAP2 SWAP1 POP JUMP JUMPDEST PUSH32 0x4E487B7100000000000000000000000000000000000000000000000000000000 PUSH0 MSTORE PUSH1 0x41 PUSH1 0x4 MSTORE PUSH1 0x24 PUSH0 REVERT JUMPDEST PUSH2 0x28E DUP3 PUSH2 0x248 JUMP JUMPDEST DUP2 ADD DUP2 DUP2 LT PUSH8 0xFFFFFFFFFFFFFFFF DUP3 GT OR ISZERO PUSH2 0x2AD JUMPI PUSH2 0x2AC PUSH2 0x258 JUMP JUMPDEST JUMPDEST DUP1 PUSH1 0x40 MSTORE POP POP POP JUMP JUMPDEST PUSH0 PUSH2 0x2BF PUSH2 0x22F JUMP JUMPDEST SWAP1 POP PUSH2 0x2CB DUP3 DUP3 PUSH2 0x285 JUMP JUMPDEST SWAP2 SWAP1 POP JUMP JUMPDEST PUSH0 PUSH8 0xFFFFFFFFFFFFFFFF DUP3 GT ISZERO PUSH2 0x2EA JUMPI PUSH2 0x2E9 PUSH2 0x258 JUMP JUMPDEST JUMPDEST PUSH2 0x2F3 DUP3 PUSH2 0x248 JUMP JUMPDEST SWAP1 POP PUSH1 0x20 DUP2 ADD SWAP1 POP SWAP2 SWAP1 POP JUMP JUMPDEST DUP3 DUP2 DUP4 CALLDATACOPY PUSH0 DUP4 DUP4 ADD MSTORE POP POP POP JUMP JUMPDEST PUSH0 PUSH2 0x320 PUSH2 0x31B DUP5 PUSH2 0x2D0 JUMP JUMPDEST PUSH2 0x2B6 JUMP JUMPDEST SWAP1 POP DUP3 DUP2 MSTORE PUSH1 0x20 DUP2 ADD DUP5 DUP5 DUP5 ADD GT ISZERO PUSH2 0x33C JUMPI PUSH2 0x33B PUSH2 0x244 JUMP JUMPDEST JUMPDEST PUSH2 0x347 DUP5 DUP3 DUP6 PUSH2 0x300 JUMP JUMPDEST POP SWAP4 SWAP3 POP POP POP JUMP JUMPDEST PUSH0 DUP3 PUSH1 0x1F DUP4 ADD SLT PUSH2 0x363 JUMPI PUSH2 0x362 PUSH2 0x240 JUMP JUMPDEST JUMPDEST DUP2 CALLDATALOAD PUSH2 0x373 DUP5 DUP3 PUSH1 0x20 DUP7 ADD PUSH2 0x30E JUMP JUMPDEST SWAP2 POP POP SWAP3 SWAP2 POP POP JUMP JUMPDEST PUSH0 DUP1 PUSH1 0x40 DUP4 DUP6 SUB SLT ISZERO PUSH2 0x392 JUMPI PUSH2 0x391 PUSH2 0x238 JUMP JUMPDEST JUMPDEST PUSH0 DUP4 ADD CALLDATALOAD PUSH8 0xFFFFFFFFFFFFFFFF DUP2 GT ISZERO PUSH2 0x3AF JUMPI PUSH2 0x3AE PUSH2 0x23C JUMP JUMPDEST JUMPDEST PUSH2 0x3BB DUP6 DUP3 DUP7 ADD PUSH2 0x34F JUMP JUMPDEST SWAP3 POP POP PUSH1 0x20 DUP4 ADD CALLDATALOAD PUSH8 0xFFFFFFFFFFFFFFFF DUP2 GT ISZERO PUSH2 0x3DC JUMPI PUSH2 0x3DB PUSH2 0x23C JUMP JUMPDEST JUMPDEST PUSH2 0x3E8 DUP6 DUP3 DUP7 ADD PUSH2 0x34F JUMP JUMPDEST SWAP2 POP POP SWAP3 POP SWAP3 SWAP1 POP JUMP JUMPDEST PUSH0 DUP2 SWAP1 POP SWAP2 SWAP1 POP JUMP JUMPDEST PUSH2 0x404 DUP2 PUSH2 0x3F2 JUMP JUMPDEST DUP3 MSTORE POP POP JUMP JUMPDEST PUSH0 PUSH1 0x20 DUP3 ADD SWAP1 POP PUSH2 0x41D PUSH0 DUP4 ADD DUP5 PUSH2 0x3FB JUMP JUMPDEST SWAP3 SWAP2 POP POP JUMP JUMPDEST PUSH2 0x42C DUP2 PUSH2 0x3F2 JUMP JUMPDEST DUP2 EQ PUSH2 0x436 JUMPI PUSH0 DUP1 REVERT JUMPDEST POP JUMP JUMPDEST PUSH0 DUP2 CALLDATALOAD SWAP1 POP PUSH2 0x447 DUP2 PUSH2 0x423 JUMP JUMPDEST SWAP3 SWAP2 POP POP JUMP JUMPDEST PUSH0 DUP1 PUSH0 DUP1 PUSH1 0x80 DUP6 DUP8 SUB SLT ISZERO PUSH2 0x465 JUMPI PUSH2 0x464 PUSH2 0x238 JUMP JUMPDEST JUMPDEST PUSH0 DUP6 ADD CALLDATALOAD PUSH8 0xFFFFFFFFFFFFFFFF DUP2 GT ISZERO PUSH2 0x482 JUMPI PUSH2 0x481 PUSH2 0x23C JUMP JUMPDEST JUMPDEST PUSH2 0x48E DUP8 DUP3 DUP9 ADD PUSH2 0x34F JUMP JUMPDEST SWAP5 POP POP PUSH1 0x20 DUP6 ADD CALLDATALOAD PUSH8 0xFFFFFFFFFFFFFFFF DUP2 GT ISZERO PUSH2 0x4AF JUMPI PUSH2 0x4AE PUSH2 0x23C JUMP JUMPDEST JUMPDEST PUSH2 0x4BB DUP8 DUP3 DUP9 ADD PUSH2 0x34F JUMP JUMPDEST SWAP4 POP POP PUSH1 0x40 PUSH2 0x4CC DUP8 DUP3 DUP9 ADD PUSH2 0x439 JUMP JUMPDEST SWAP3 POP POP PUSH1 0x60 DUP6 ADD CALLDATALOAD PUSH8 0xFFFFFFFFFFFFFFFF DUP2 GT ISZERO PUSH2 0x4ED JUMPI PUSH2 0x4EC PUSH2 0x23C JUMP JUMPDEST JUMPDEST PUSH2 0x4F9 DUP8 DUP3 DUP9 ADD PUSH2 0x34F JUMP JUMPDEST SWAP2 POP POP SWAP3 SWAP6 SWAP2 SWAP5 POP SWAP3 POP JUMP JUMPDEST PUSH0 DUP1 PUSH0 PUSH1 0x60 DUP5 DUP7 SUB SLT ISZERO PUSH2 0x51C JUMPI PUSH2 0x51B PUSH2 0x238 JUMP JUMPDEST JUMPDEST PUSH0 DUP5 ADD CALLDATALOAD PUSH8 0xFFFFFFFFFFFFFFFF DUP2 GT ISZERO PUSH2 0x539 JUMPI PUSH2 0x538 PUSH2 0x23C JUMP JUMPDEST JUMPDEST PUSH2 0x545 DUP7 DUP3 DUP8 ADD PUSH2 0x34F JUMP JUMPDEST SWAP4 POP POP PUSH1 0x20 DUP5 ADD CALLDATALOAD PUSH8 0xFFFFFFFFFFFFFFFF DUP2 GT ISZERO PUSH2 0x566 JUMPI PUSH2 0x565 PUSH2 0x23C JUMP JUMPDEST JUMPDEST PUSH2 0x572 DUP7 DUP3 DUP8 ADD PUSH2 0x34F JUMP JUMPDEST SWAP3 POP POP PUSH1 0x40 PUSH2 0x583 DUP7 DUP3 DUP8 ADD PUSH2 0x439 JUMP JUMPDEST SWAP2 POP POP SWAP3 POP SWAP3 POP SWAP3 JUMP JUMPDEST PUSH0 DUP2 MLOAD SWAP1 POP SWAP2 SWAP1 POP JUMP JUMPDEST PUSH0 DUP2 SWAP1 POP SWAP3 SWAP2 POP POP JUMP JUMPDEST DUP3 DUP2 DUP4 MCOPY PUSH0 DUP4 DUP4 ADD MSTORE POP POP POP JUMP JUMPDEST PUSH0 PUSH2 0x5B9 DUP3 PUSH2 0x58D JUMP JUMPDEST PUSH2 0x5C3 DUP2 DUP6 PUSH2 0x597 JUMP JUMPDEST SWAP4 POP PUSH2 0x5D3 DUP2 DUP6 PUSH1 0x20 DUP7 ADD PUSH2 0x5A1 JUMP JUMPDEST DUP1 DUP5 ADD SWAP2 POP POP SWAP3 SWAP2 POP POP JUMP JUMPDEST PUSH0 PUSH2 0x5EA DUP3 DUP5 PUSH2 0x5AF JUMP JUMPDEST SWAP2 POP DUP2 SWAP1 POP SWAP3 SWAP2 POP POP JUMP JUMPDEST PUSH32 0x4E487B7100000000000000000000000000000000000000000000000000000000 PUSH0 MSTORE PUSH1 0x22 PUSH1 0x4 MSTORE PUSH1 0x24 PUSH0 REVERT JUMPDEST PUSH0 PUSH1 0x2 DUP3 DIV SWAP1 POP PUSH1 0x1 DUP3 AND DUP1 PUSH2 0x639 JUMPI PUSH1 0x7F DUP3 AND SWAP2 POP JUMPDEST PUSH1 0x20 DUP3 LT DUP2 SUB PUSH2 0x64C JUMPI PUSH2 0x64B PUSH2 0x5F5 JUMP JUMPDEST JUMPDEST POP SWAP2 SWAP1 POP JUMP JUMPDEST PUSH0 DUP2 SWAP1 POP DUP2 PUSH0 MSTORE PUSH1 0x20 PUSH0 KECCAK256 SWAP1 POP SWAP2 SWAP1 POP JUMP JUMPDEST PUSH0 PUSH1 0x20 PUSH1 0x1F DUP4 ADD DIV SWAP1 POP SWAP2 SWAP1 POP JUMP JUMPDEST PUSH0 DUP3 DUP3 SHL SWAP1 POP SWAP3 SWAP2 POP POP JUMP JUMPDEST PUSH0 PUSH1 0x8 DUP4 MUL PUSH2 0x6AE PUSH32 0xFFFFFFFFFFFFFFFFFFFFFFFFFFFFFFFFFFFFFFFFFFFFFFFFFFFFFFFFFFFFFFFF DUP3 PUSH2 0x673 JUMP JUMPDEST PUSH2 0x6B8 DUP7 DUP4 PUSH2 0x673 JUMP JUMPDEST SWAP6 POP DUP1 NOT DUP5 AND SWAP4 POP DUP1 DUP7 AND DUP5 OR SWAP3 POP POP POP SWAP4 SWAP3 POP POP POP JUMP JUMPDEST PUSH0 DUP2 SWAP1 POP SWAP2 SWAP1 POP JUMP JUMPDEST PUSH0 PUSH2 0x6F3 PUSH2 0x6EE PUSH2 0x6E9 DUP5 PUSH2 0x3F2 JUMP JUMPDEST PUSH2 0x6D0 JUMP JUMPDEST PUSH2 0x3F2 JUMP JUMPDEST SWAP1 POP SWAP2 SWAP1 POP JUMP JUMPDEST PUSH0 DUP2 SWAP1 POP SWAP2 SWAP1 POP JUMP JUMPDEST PUSH2 0x70C DUP4 PUSH2 0x6D9 JUMP JUMPDEST PUSH2 0x720 PUSH2 0x718 DUP3 PUSH2 0x6FA JUMP JUMPDEST DUP5 DUP5 SLOAD PUSH2 0x67F JUMP JUMPDEST DUP3 SSTORE POP POP POP POP JUMP JUMPDEST PUSH0 SWAP1 JUMP JUMPDEST PUSH2 0x734 PUSH2 0x728 JUMP JUMPDEST PUSH2 0x73F DUP2 DUP5 DUP5 PUSH2 0x703 JUMP JUMPDEST POP POP POP JUMP JUMPDEST JUMPDEST DUP2 DUP2 LT ISZERO PUSH2 0x762 JUMPI PUSH2 0x757 PUSH0 DUP3 PUSH2 0x72C JUMP JUMPDEST PUSH1 0x1 DUP2 ADD SWAP1 POP PUSH2 0x745 JUMP JUMPDEST POP POP JUMP JUMPDEST PUSH1 0x1F DUP3 GT ISZERO PUSH2 0x7A7 JUMPI PUSH2 0x778 DUP2 PUSH2 0x652 JUMP JUMPDEST PUSH2 0x781 DUP5 PUSH2 0x664 JUMP JUMPDEST DUP2 ADD PUSH1 0x20 DUP6 LT ISZERO PUSH2 0x790 JUMPI DUP2 SWAP1 POP JUMPDEST PUSH2 0x7A4 PUSH2 0x79C DUP6 PUSH2 0x664 JUMP JUMPDEST DUP4 ADD DUP3 PUSH2 0x744 JUMP JUMPDEST POP POP JUMPDEST POP POP POP JUMP JUMPDEST PUSH0 DUP3 DUP3 SHR SWAP1 POP SWAP3 SWAP2 POP POP JUMP JUMPDEST PUSH0 PUSH2 0x7C7 PUSH0 NOT DUP5 PUSH1 0x8 MUL PUSH2 0x7AC JUMP JUMPDEST NOT DUP1 DUP4 AND SWAP2 POP POP SWAP3 SWAP2 POP POP JUMP JUMPDEST PUSH0 PUSH2 0x7DF DUP4 DUP4 PUSH2 0x7B8 JUMP JUMPDEST SWAP2 POP DUP3 PUSH1 0x2 MUL DUP3 OR SWAP1 POP SWAP3 SWAP2 POP POP JUMP JUMPDEST PUSH2 0x7F8 DUP3 PUSH2 0x58D JUMP JUMPDEST PUSH8 0xFFFFFFFFFFFFFFFF DUP2 GT ISZERO PUSH2 0x811 JUMPI PUSH2 0x810 PUSH2 0x258 JUMP JUMPDEST JUMPDEST PUSH2 0x81B DUP3 SLOAD PUSH2 0x622 JUMP JUMPDEST PUSH2 0x826 DUP3 DUP3 DUP6 PUSH2 0x766 JUMP JUMPDEST PUSH0 PUSH1 0x20 SWAP1 POP PUSH1 0x1F DUP4 GT PUSH1 0x1 DUP2 EQ PUSH2 0x857 JUMPI PUSH0 DUP5 ISZERO PUSH2 0x845 JUMPI DUP3 DUP8 ADD MLOAD SWAP1 POP JUMPDEST PUSH2 0x84F DUP6 DUP3 PUSH2 0x7D4 JUMP JUMPDEST DUP7 SSTORE POP PUSH2 0x8B6 JUMP JUMPDEST PUSH1 0x1F NOT DUP5 AND PUSH2 0x865 DUP7 PUSH2 0x652 JUMP JUMPDEST PUSH0 JUMPDEST DUP3 DUP2 LT ISZERO PUSH2 0x88C JUMPI DUP5 DUP10 ADD MLOAD DUP3 SSTORE PUSH1 0x1 DUP3 ADD SWAP2 POP PUSH1 0x20 DUP6 ADD SWAP5 POP PUSH1 0x20 DUP2 ADD SWAP1 POP PUSH2 0x867 JUMP JUMPDEST DUP7 DUP4 LT ISZERO PUSH2 0x8A9 JUMPI DUP5 DUP10 ADD MLOAD PUSH2 0x8A5 PUSH1 0x1F DUP10 AND DUP3 PUSH2 0x7B8 JUMP JUMPDEST DUP4 SSTORE POP JUMPDEST PUSH1 0x1 PUSH1 0x2 DUP9 MUL ADD DUP9 SSTORE POP POP POP JUMPDEST POP POP POP POP POP POP JUMP INVALID LOG2 PUSH5 0x6970667358 0x22 SLT KECCAK256 MOD NOT 0xBA CODECOPY 0x23 PUSH20 0x1EFC41D236B9A43D654056336983B4F3858FDF29 COINBASE PUSH0 EXTCODECOPY 0xB3 0xB6 0xB7 PUSH5 0x736F6C6343 STOP ADDMOD BYTE STOP CALLER "
				},
				"gasEstimates": {
					"creation": {
						"codeDepositCost": "458400",
						"executionCost": "491",
						"totalCost": "458891"
					},
					"external": {
						"addEmployee(string,string,uint256,string)": "infinite",
						"fetchSalary(string,string)": "infinite",
						"updateSalary(string,string,uint256)": "infinite"
					}
				},
				"methodIdentifiers": {
					"addEmployee(string,string,uint256,string)": "895716bc",
					"fetchSalary(string,string)": "05b03787",
					"updateSalary(string,string,uint256)": "eeaa54d0"
				}
			},
			"storageLayout": {
				"storage": [
					{
						"astId": 17,
						"contract": "correction.sol:Salarytracker",
						"label": "EmployeeDetails",
						"offset": 0,
						"slot": "0",
						"type": "t_mapping(t_string_memory_ptr,t_mapping(t_string_memory_ptr,t_struct(Employee)10_storage))"
					}
				],
				"types": {
					"t_address": {
						"encoding": "inplace",
						"label": "address",
						"numberOfBytes": "20"
					},
					"t_mapping(t_string_memory_ptr,t_mapping(t_string_memory_ptr,t_struct(Employee)10_storage))": {
						"encoding": "mapping",
						"key": "t_string_memory_ptr",
						"label": "mapping(string => mapping(string => struct Salarytracker.Employee))",
						"numberOfBytes": "32",
						"value": "t_mapping(t_string_memory_ptr,t_struct(Employee)10_storage)"
					},
					"t_mapping(t_string_memory_ptr,t_struct(Employee)10_storage)": {
						"encoding": "mapping",
						"key": "t_string_memory_ptr",
						"label": "mapping(string => struct Salarytracker.Employee)",
						"numberOfBytes": "32",
						"value": "t_struct(Employee)10_storage"
					},
					"t_string_memory_ptr": {
						"encoding": "bytes",
						"label": "string",
						"numberOfBytes": "32"
					},
					"t_string_storage": {
						"encoding": "bytes",
						"label": "string",
						"numberOfBytes": "32"
					},
					"t_struct(Employee)10_storage": {
						"encoding": "inplace",
						"label": "struct Salarytracker.Employee",
						"members": [
							{
								"astId": 3,
								"contract": "correction.sol:Salarytracker",
								"label": "name",
								"offset": 0,
								"slot": "0",
								"type": "t_string_storage"
							},
							{
								"astId": 5,
								"contract": "correction.sol:Salarytracker",
								"label": "salary",
								"offset": 0,
								"slot": "1",
								"type": "t_uint256"
							},
							{
								"astId": 7,
								"contract": "correction.sol:Salarytracker",
								"label": "employeeAddress",
								"offset": 0,
								"slot": "2",
								"type": "t_address"
							},
							{
								"astId": 9,
								"contract": "correction.sol:Salarytracker",
								"label": "Gender",
								"offset": 0,
								"slot": "3",
								"type": "t_string_storage"
							}
						],
						"numberOfBytes": "128"
					},
					"t_uint256": {
						"encoding": "inplace",
						"label": "uint256",
						"numberOfBytes": "32"
					}
				}
			},
			"userdoc": {
				"kind": "user",
				"methods": {},
				"version": 1
			}
		}
	}
}