{
	"CrowdFundingApp/Campaign.sol": {
		"Campaign": {
			"abi": [
				{
					"inputs": [
						{
							"internalType": "uint256",
							"name": "",
							"type": "uint256"
						}
					],
					"name": "allContributors",
					"outputs": [
						{
							"internalType": "string",
							"name": "campaignToVote",
							"type": "string"
						},
						{
							"internalType": "address",
							"name": "contributorAddress",
							"type": "address"
						},
						{
							"internalType": "uint256",
							"name": "contributions",
							"type": "uint256"
						}
					],
					"stateMutability": "view",
					"type": "function"
				},
				{
					"inputs": [
						{
							"internalType": "uint256",
							"name": "",
							"type": "uint256"
						}
					],
					"name": "campaignList",
					"outputs": [
						{
							"internalType": "address payable",
							"name": "campaignOwner",
							"type": "address"
						},
						{
							"internalType": "address payable",
							"name": "beneficiary",
							"type": "address"
						},
						{
							"internalType": "string",
							"name": "title",
							"type": "string"
						},
						{
							"internalType": "uint256",
							"name": "deadline",
							"type": "uint256"
						},
						{
							"internalType": "uint256",
							"name": "amountToRaise",
							"type": "uint256"
						},
						{
							"internalType": "uint256",
							"name": "raisedAmount",
							"type": "uint256"
						},
						{
							"internalType": "bool",
							"name": "closed",
							"type": "bool"
						}
					],
					"stateMutability": "view",
					"type": "function"
				},
				{
					"inputs": [
						{
							"internalType": "string",
							"name": "title",
							"type": "string"
						},
						{
							"internalType": "uint256",
							"name": "contribution",
							"type": "uint256"
						}
					],
					"name": "contribute",
					"outputs": [],
					"stateMutability": "payable",
					"type": "function"
				},
				{
					"inputs": [
						{
							"internalType": "uint256",
							"name": "",
							"type": "uint256"
						}
					],
					"name": "contributors",
					"outputs": [
						{
							"internalType": "address",
							"name": "",
							"type": "address"
						}
					],
					"stateMutability": "view",
					"type": "function"
				},
				{
					"inputs": [
						{
							"internalType": "address payable",
							"name": "beneficiary",
							"type": "address"
						},
						{
							"internalType": "string",
							"name": "title",
							"type": "string"
						},
						{
							"internalType": "uint256",
							"name": "deadline",
							"type": "uint256"
						},
						{
							"internalType": "uint256",
							"name": "amountToRaise",
							"type": "uint256"
						}
					],
					"name": "createCampaign",
					"outputs": [],
					"stateMutability": "nonpayable",
					"type": "function"
				},
				{
					"inputs": [],
					"name": "getActiveCampaigns",
					"outputs": [
						{
							"internalType": "uint256",
							"name": "",
							"type": "uint256"
						}
					],
					"stateMutability": "view",
					"type": "function"
				},
				{
					"inputs": [],
					"name": "getAllCampaigns",
					"outputs": [
						{
							"internalType": "string[]",
							"name": "",
							"type": "string[]"
						}
					],
					"stateMutability": "view",
					"type": "function"
				},
				{
					"inputs": [
						{
							"internalType": "string",
							"name": "title",
							"type": "string"
						}
					],
					"name": "getBalance",
					"outputs": [
						{
							"internalType": "uint256",
							"name": "",
							"type": "uint256"
						}
					],
					"stateMutability": "view",
					"type": "function"
				},
				{
					"inputs": [
						{
							"internalType": "string",
							"name": "title",
							"type": "string"
						}
					],
					"name": "getCampaigns",
					"outputs": [
						{
							"internalType": "address payable",
							"name": "beneficiary",
							"type": "address"
						},
						{
							"internalType": "uint256",
							"name": "raisedAmount",
							"type": "uint256"
						},
						{
							"internalType": "uint256",
							"name": "deadline",
							"type": "uint256"
						}
					],
					"stateMutability": "view",
					"type": "function"
				},
				{
					"inputs": [
						{
							"internalType": "string",
							"name": "title",
							"type": "string"
						}
					],
					"name": "getDeadline",
					"outputs": [
						{
							"internalType": "uint256",
							"name": "",
							"type": "uint256"
						}
					],
					"stateMutability": "view",
					"type": "function"
				},
				{
					"inputs": [
						{
							"internalType": "string",
							"name": "title",
							"type": "string"
						}
					],
					"name": "getGoal",
					"outputs": [
						{
							"internalType": "uint256",
							"name": "",
							"type": "uint256"
						}
					],
					"stateMutability": "view",
					"type": "function"
				},
				{
					"inputs": [
						{
							"internalType": "string",
							"name": "",
							"type": "string"
						}
					],
					"name": "titleToCampaign",
					"outputs": [
						{
							"internalType": "address payable",
							"name": "campaignOwner",
							"type": "address"
						},
						{
							"internalType": "address payable",
							"name": "beneficiary",
							"type": "address"
						},
						{
							"internalType": "string",
							"name": "title",
							"type": "string"
						},
						{
							"internalType": "uint256",
							"name": "deadline",
							"type": "uint256"
						},
						{
							"internalType": "uint256",
							"name": "amountToRaise",
							"type": "uint256"
						},
						{
							"internalType": "uint256",
							"name": "raisedAmount",
							"type": "uint256"
						},
						{
							"internalType": "bool",
							"name": "closed",
							"type": "bool"
						}
					],
					"stateMutability": "view",
					"type": "function"
				}
			],
			"devdoc": {
				"kind": "dev",
				"methods": {},
				"version": 1
			},
			"evm": {
				"assembly": "    /* \"CrowdFundingApp/Campaign.sol\":112:2127  contract Campaign is Factory {... */\n  mstore(0x40, 0x80)\n    /* \"CrowdFundingApp/Campaign.sol\":574:586  contributors */\n  0x02\n    /* \"CrowdFundingApp/Campaign.sol\":574:593  contributors.length */\n  dup1\n  sload\n  swap1\n  pop\n    /* \"CrowdFundingApp/Campaign.sol\":550:593  uint contributorCount = contributors.length */\n  0x07\n  sstore\n    /* \"CrowdFundingApp/Campaign.sol\":112:2127  contract Campaign is Factory {... */\n  callvalue\n  dup1\n  iszero\n  tag_1\n  jumpi\n  0x00\n  dup1\n  revert\ntag_1:\n  pop\n  dataSize(sub_0)\n  dup1\n  dataOffset(sub_0)\n  0x00\n  codecopy\n  0x00\n  return\nstop\n\nsub_0: assembly {\n        /* \"CrowdFundingApp/Campaign.sol\":112:2127  contract Campaign is Factory {... */\n      mstore(0x40, 0x80)\n      jumpi(tag_1, lt(calldatasize, 0x04))\n      shr(0xe0, calldataload(0x00))\n      dup1\n      0x9fb9f379\n      gt\n      tag_14\n      jumpi\n      dup1\n      0x9fb9f379\n      eq\n      tag_8\n      jumpi\n      dup1\n      0xae817f9a\n      eq\n      tag_9\n      jumpi\n      dup1\n      0xc362b156\n      eq\n      tag_10\n      jumpi\n      dup1\n      0xc50a40d0\n      eq\n      tag_11\n      jumpi\n      dup1\n      0xe07439f7\n      eq\n      tag_12\n      jumpi\n      dup1\n      0xf63aa8a5\n      eq\n      tag_13\n      jumpi\n      jump(tag_1)\n    tag_14:\n      dup1\n      0x0e3c96db\n      eq\n      tag_2\n      jumpi\n      dup1\n      0x3a51d246\n      eq\n      tag_3\n      jumpi\n      dup1\n      0x3cb5d100\n      eq\n      tag_4\n      jumpi\n      dup1\n      0x4912c658\n      eq\n      tag_5\n      jumpi\n      dup1\n      0x86cdf604\n      eq\n      tag_6\n      jumpi\n      dup1\n      0x90f9f50c\n      eq\n      tag_7\n      jumpi\n    tag_1:\n      0x00\n      dup1\n      revert\n        /* \"CrowdFundingApp/Campaign.sol\":1987:2113  function getDeadline(string memory title ) public view returns (uint){... */\n    tag_2:\n      callvalue\n      dup1\n      iszero\n      tag_15\n      jumpi\n      0x00\n      dup1\n      revert\n    tag_15:\n      pop\n      tag_16\n      0x04\n      dup1\n      calldatasize\n      sub\n      dup2\n      add\n      swap1\n      tag_17\n      swap2\n      swap1\n      tag_18\n      jump\t// in\n    tag_17:\n      tag_19\n      jump\t// in\n    tag_16:\n      mload(0x40)\n      tag_20\n      swap2\n      swap1\n      tag_21\n      jump\t// in\n    tag_20:\n      mload(0x40)\n      dup1\n      swap2\n      sub\n      swap1\n      return\n        /* \"CrowdFundingApp/Campaign.sol\":1715:1844  function getBalance(string memory title ) public view returns (uint){... */\n    tag_3:\n      callvalue\n      dup1\n      iszero\n      tag_22\n      jumpi\n      0x00\n      dup1\n      revert\n    tag_22:\n      pop\n      tag_23\n      0x04\n      dup1\n      calldatasize\n      sub\n      dup2\n      add\n      swap1\n      tag_24\n      swap2\n      swap1\n      tag_18\n      jump\t// in\n    tag_24:\n      tag_25\n      jump\t// in\n    tag_23:\n      mload(0x40)\n      tag_26\n      swap2\n      swap1\n      tag_21\n      jump\t// in\n    tag_26:\n      mload(0x40)\n      dup1\n      swap2\n      sub\n      swap1\n      return\n        /* \"CrowdFundingApp/Campaign.sol\":284:313  address[] public contributors */\n    tag_4:\n      callvalue\n      dup1\n      iszero\n      tag_27\n      jumpi\n      0x00\n      dup1\n      revert\n    tag_27:\n      pop\n      tag_28\n      0x04\n      dup1\n      calldatasize\n      sub\n      dup2\n      add\n      swap1\n      tag_29\n      swap2\n      swap1\n      tag_30\n      jump\t// in\n    tag_29:\n      tag_31\n      jump\t// in\n    tag_28:\n      mload(0x40)\n      tag_32\n      swap2\n      swap1\n      tag_33\n      jump\t// in\n    tag_32:\n      mload(0x40)\n      dup1\n      swap2\n      sub\n      swap1\n      return\n        /* \"CrowdFundingApp/Factory.sol\":299:329  Campaign[] public campaignList */\n    tag_5:\n      callvalue\n      dup1\n      iszero\n      tag_34\n      jumpi\n      0x00\n      dup1\n      revert\n    tag_34:\n      pop\n      tag_35\n      0x04\n      dup1\n      calldatasize\n      sub\n      dup2\n      add\n      swap1\n      tag_36\n      swap2\n      swap1\n      tag_30\n      jump\t// in\n    tag_36:\n      tag_37\n      jump\t// in\n    tag_35:\n      mload(0x40)\n      tag_38\n      swap8\n      swap7\n      swap6\n      swap5\n      swap4\n      swap3\n      swap2\n      swap1\n      tag_39\n      jump\t// in\n    tag_38:\n      mload(0x40)\n      dup1\n      swap2\n      sub\n      swap1\n      return\n        /* \"CrowdFundingApp/Factory.sol\":2239:2502  function getAllCampaigns() public view returns (string[] memory) {... */\n    tag_6:\n      callvalue\n      dup1\n      iszero\n      tag_40\n      jumpi\n      0x00\n      dup1\n      revert\n    tag_40:\n      pop\n      tag_41\n      tag_42\n      jump\t// in\n    tag_41:\n      mload(0x40)\n      tag_43\n      swap2\n      swap1\n      tag_44\n      jump\t// in\n    tag_43:\n      mload(0x40)\n      dup1\n      swap2\n      sub\n      swap1\n      return\n        /* \"CrowdFundingApp/Factory.sol\":423:1939  function createCampaign(... */\n    tag_7:\n      callvalue\n      dup1\n      iszero\n      tag_45\n      jumpi\n      0x00\n      dup1\n      revert\n    tag_45:\n      pop\n      tag_46\n      0x04\n      dup1\n      calldatasize\n      sub\n      dup2\n      add\n      swap1\n      tag_47\n      swap2\n      swap1\n      tag_48\n      jump\t// in\n    tag_47:\n      tag_49\n      jump\t// in\n    tag_46:\n      stop\n        /* \"CrowdFundingApp/Factory.sol\":1943:2236  function getCampaigns(string memory title) public view returns(... */\n    tag_8:\n      callvalue\n      dup1\n      iszero\n      tag_50\n      jumpi\n      0x00\n      dup1\n      revert\n    tag_50:\n      pop\n      tag_51\n      0x04\n      dup1\n      calldatasize\n      sub\n      dup2\n      add\n      swap1\n      tag_52\n      swap2\n      swap1\n      tag_18\n      jump\t// in\n    tag_52:\n      tag_53\n      jump\t// in\n    tag_51:\n      mload(0x40)\n      tag_54\n      swap4\n      swap3\n      swap2\n      swap1\n      tag_55\n      jump\t// in\n    tag_54:\n      mload(0x40)\n      dup1\n      swap2\n      sub\n      swap1\n      return\n        /* \"CrowdFundingApp/Campaign.sol\":874:1424  function contribute(string memory title,uint contribution)public payable {... */\n    tag_9:\n      tag_56\n      0x04\n      dup1\n      calldatasize\n      sub\n      dup2\n      add\n      swap1\n      tag_57\n      swap2\n      swap1\n      tag_58\n      jump\t// in\n    tag_57:\n      tag_59\n      jump\t// in\n    tag_56:\n      stop\n        /* \"CrowdFundingApp/Campaign.sol\":1429:1708  function getActiveCampaigns() public view returns (uint){... */\n    tag_10:\n      callvalue\n      dup1\n      iszero\n      tag_60\n      jumpi\n      0x00\n      dup1\n      revert\n    tag_60:\n      pop\n      tag_61\n      tag_62\n      jump\t// in\n    tag_61:\n      mload(0x40)\n      tag_63\n      swap2\n      swap1\n      tag_21\n      jump\t// in\n    tag_63:\n      mload(0x40)\n      dup1\n      swap2\n      sub\n      swap1\n      return\n        /* \"CrowdFundingApp/Factory.sol\":331:382  mapping (string => Campaign) public titleToCampaign */\n    tag_11:\n      callvalue\n      dup1\n      iszero\n      tag_64\n      jumpi\n      0x00\n      dup1\n      revert\n    tag_64:\n      pop\n      tag_65\n      0x04\n      dup1\n      calldatasize\n      sub\n      dup2\n      add\n      swap1\n      tag_66\n      swap2\n      swap1\n      tag_18\n      jump\t// in\n    tag_66:\n      tag_67\n      jump\t// in\n    tag_65:\n      mload(0x40)\n      tag_68\n      swap8\n      swap7\n      swap6\n      swap5\n      swap4\n      swap3\n      swap2\n      swap1\n      tag_39\n      jump\t// in\n    tag_68:\n      mload(0x40)\n      dup1\n      swap2\n      sub\n      swap1\n      return\n        /* \"CrowdFundingApp/Campaign.sol\":354:390  Contributor[] public allContributors */\n    tag_12:\n      callvalue\n      dup1\n      iszero\n      tag_69\n      jumpi\n      0x00\n      dup1\n      revert\n    tag_69:\n      pop\n      tag_70\n      0x04\n      dup1\n      calldatasize\n      sub\n      dup2\n      add\n      swap1\n      tag_71\n      swap2\n      swap1\n      tag_30\n      jump\t// in\n    tag_71:\n      tag_72\n      jump\t// in\n    tag_70:\n      mload(0x40)\n      tag_73\n      swap4\n      swap3\n      swap2\n      swap1\n      tag_74\n      jump\t// in\n    tag_73:\n      mload(0x40)\n      dup1\n      swap2\n      sub\n      swap1\n      return\n        /* \"CrowdFundingApp/Campaign.sol\":1853:1980  function getGoal(string memory title ) public view returns (uint){... */\n    tag_13:\n      callvalue\n      dup1\n      iszero\n      tag_75\n      jumpi\n      0x00\n      dup1\n      revert\n    tag_75:\n      pop\n      tag_76\n      0x04\n      dup1\n      calldatasize\n      sub\n      dup2\n      add\n      swap1\n      tag_77\n      swap2\n      swap1\n      tag_18\n      jump\t// in\n    tag_77:\n      tag_78\n      jump\t// in\n    tag_76:\n      mload(0x40)\n      tag_79\n      swap2\n      swap1\n      tag_21\n      jump\t// in\n    tag_79:\n      mload(0x40)\n      dup1\n      swap2\n      sub\n      swap1\n      return\n        /* \"CrowdFundingApp/Campaign.sol\":1987:2113  function getDeadline(string memory title ) public view returns (uint){... */\n    tag_19:\n        /* \"CrowdFundingApp/Campaign.sol\":2051:2055  uint */\n      0x00\n        /* \"CrowdFundingApp/Campaign.sol\":2073:2088  titleToCampaign */\n      0x01\n        /* \"CrowdFundingApp/Campaign.sol\":2089:2094  title */\n      dup3\n        /* \"CrowdFundingApp/Campaign.sol\":2073:2095  titleToCampaign[title] */\n      mload(0x40)\n      tag_81\n      swap2\n      swap1\n      tag_82\n      jump\t// in\n    tag_81:\n      swap1\n      dup2\n      mstore\n      0x20\n      add\n      mload(0x40)\n      dup1\n      swap2\n      sub\n      swap1\n      keccak256\n        /* \"CrowdFundingApp/Campaign.sol\":2073:2104  titleToCampaign[title].deadline */\n      0x03\n      add\n      sload\n        /* \"CrowdFundingApp/Campaign.sol\":2066:2104  return titleToCampaign[title].deadline */\n      swap1\n      pop\n        /* \"CrowdFundingApp/Campaign.sol\":1987:2113  function getDeadline(string memory title ) public view returns (uint){... */\n      swap2\n      swap1\n      pop\n      jump\t// out\n        /* \"CrowdFundingApp/Campaign.sol\":1715:1844  function getBalance(string memory title ) public view returns (uint){... */\n    tag_25:\n        /* \"CrowdFundingApp/Campaign.sol\":1778:1782  uint */\n      0x00\n        /* \"CrowdFundingApp/Campaign.sol\":1800:1815  titleToCampaign */\n      0x01\n        /* \"CrowdFundingApp/Campaign.sol\":1816:1821  title */\n      dup3\n        /* \"CrowdFundingApp/Campaign.sol\":1800:1822  titleToCampaign[title] */\n      mload(0x40)\n      tag_84\n      swap2\n      swap1\n      tag_82\n      jump\t// in\n    tag_84:\n      swap1\n      dup2\n      mstore\n      0x20\n      add\n      mload(0x40)\n      dup1\n      swap2\n      sub\n      swap1\n      keccak256\n        /* \"CrowdFundingApp/Campaign.sol\":1800:1835  titleToCampaign[title].raisedAmount */\n      0x05\n      add\n      sload\n        /* \"CrowdFundingApp/Campaign.sol\":1793:1835  return titleToCampaign[title].raisedAmount */\n      swap1\n      pop\n        /* \"CrowdFundingApp/Campaign.sol\":1715:1844  function getBalance(string memory title ) public view returns (uint){... */\n      swap2\n      swap1\n      pop\n      jump\t// out\n        /* \"CrowdFundingApp/Campaign.sol\":284:313  address[] public contributors */\n    tag_31:\n      0x02\n      dup2\n      dup2\n      sload\n      dup2\n      lt\n      tag_85\n      jumpi\n      0x00\n      dup1\n      revert\n    tag_85:\n      swap1\n      0x00\n      mstore\n      keccak256(0x00, 0x20)\n      add\n      0x00\n      swap2\n      pop\n      sload\n      swap1\n      0x0100\n      exp\n      swap1\n      div\n      0xffffffffffffffffffffffffffffffffffffffff\n      and\n      dup2\n      jump\t// out\n        /* \"CrowdFundingApp/Factory.sol\":299:329  Campaign[] public campaignList */\n    tag_37:\n      0x00\n      dup2\n      dup2\n      sload\n      dup2\n      lt\n      tag_87\n      jumpi\n      0x00\n      dup1\n      revert\n    tag_87:\n      swap1\n      0x00\n      mstore\n      keccak256(0x00, 0x20)\n      swap1\n      0x07\n      mul\n      add\n      0x00\n      swap2\n      pop\n      swap1\n      pop\n      dup1\n      0x00\n      add\n      0x00\n      swap1\n      sload\n      swap1\n      0x0100\n      exp\n      swap1\n      div\n      0xffffffffffffffffffffffffffffffffffffffff\n      and\n      swap1\n      dup1\n      0x01\n      add\n      0x00\n      swap1\n      sload\n      swap1\n      0x0100\n      exp\n      swap1\n      div\n      0xffffffffffffffffffffffffffffffffffffffff\n      and\n      swap1\n      dup1\n      0x02\n      add\n      dup1\n      sload\n      tag_89\n      swap1\n      tag_90\n      jump\t// in\n    tag_89:\n      dup1\n      0x1f\n      add\n      0x20\n      dup1\n      swap2\n      div\n      mul\n      0x20\n      add\n      mload(0x40)\n      swap1\n      dup2\n      add\n      0x40\n      mstore\n      dup1\n      swap3\n      swap2\n      swap1\n      dup2\n      dup2\n      mstore\n      0x20\n      add\n      dup3\n      dup1\n      sload\n      tag_91\n      swap1\n      tag_90\n      jump\t// in\n    tag_91:\n      dup1\n      iszero\n      tag_92\n      jumpi\n      dup1\n      0x1f\n      lt\n      tag_93\n      jumpi\n      0x0100\n      dup1\n      dup4\n      sload\n      div\n      mul\n      dup4\n      mstore\n      swap2\n      0x20\n      add\n      swap2\n      jump(tag_92)\n    tag_93:\n      dup3\n      add\n      swap2\n      swap1\n      0x00\n      mstore\n      keccak256(0x00, 0x20)\n      swap1\n    tag_94:\n      dup2\n      sload\n      dup2\n      mstore\n      swap1\n      0x01\n      add\n      swap1\n      0x20\n      add\n      dup1\n      dup4\n      gt\n      tag_94\n      jumpi\n      dup3\n      swap1\n      sub\n      0x1f\n      and\n      dup3\n      add\n      swap2\n    tag_92:\n      pop\n      pop\n      pop\n      pop\n      pop\n      swap1\n      dup1\n      0x03\n      add\n      sload\n      swap1\n      dup1\n      0x04\n      add\n      sload\n      swap1\n      dup1\n      0x05\n      add\n      sload\n      swap1\n      dup1\n      0x06\n      add\n      0x00\n      swap1\n      sload\n      swap1\n      0x0100\n      exp\n      swap1\n      div\n      0xff\n      and\n      swap1\n      pop\n      dup8\n      jump\t// out\n        /* \"CrowdFundingApp/Factory.sol\":2239:2502  function getAllCampaigns() public view returns (string[] memory) {... */\n    tag_42:\n        /* \"CrowdFundingApp/Factory.sol\":2287:2302  string[] memory */\n      0x60\n        /* \"CrowdFundingApp/Factory.sol\":2310:2332  string[] memory titles */\n      0x00\n        /* \"CrowdFundingApp/Factory.sol\":2348:2360  campaignList */\n      dup1\n        /* \"CrowdFundingApp/Factory.sol\":2348:2367  campaignList.length */\n      dup1\n      sload\n      swap1\n      pop\n        /* \"CrowdFundingApp/Factory.sol\":2335:2368  new string[](campaignList.length) */\n      0xffffffffffffffff\n      dup2\n      gt\n      iszero\n      tag_96\n      jumpi\n      tag_97\n      tag_98\n      jump\t// in\n    tag_97:\n    tag_96:\n      mload(0x40)\n      swap1\n      dup1\n      dup3\n      mstore\n      dup1\n      0x20\n      mul\n      0x20\n      add\n      dup3\n      add\n      0x40\n      mstore\n      dup1\n      iszero\n      tag_99\n      jumpi\n      dup2\n      0x20\n      add\n    tag_100:\n      0x60\n      dup2\n      mstore\n      0x20\n      add\n      swap1\n      0x01\n      swap1\n      sub\n      swap1\n      dup2\n      tag_100\n      jumpi\n      swap1\n      pop\n    tag_99:\n      pop\n        /* \"CrowdFundingApp/Factory.sol\":2310:2368  string[] memory titles = new string[](campaignList.length) */\n      swap1\n      pop\n        /* \"CrowdFundingApp/Factory.sol\":2384:2390  uint i */\n      0x00\n        /* \"CrowdFundingApp/Factory.sol\":2379:2476  for (uint i = 0; i < campaignList.length; i++) {... */\n    tag_101:\n        /* \"CrowdFundingApp/Factory.sol\":2400:2412  campaignList */\n      0x00\n        /* \"CrowdFundingApp/Factory.sol\":2400:2419  campaignList.length */\n      dup1\n      sload\n      swap1\n      pop\n        /* \"CrowdFundingApp/Factory.sol\":2396:2397  i */\n      dup2\n        /* \"CrowdFundingApp/Factory.sol\":2396:2419  i < campaignList.length */\n      lt\n        /* \"CrowdFundingApp/Factory.sol\":2379:2476  for (uint i = 0; i < campaignList.length; i++) {... */\n      iszero\n      tag_102\n      jumpi\n        /* \"CrowdFundingApp/Factory.sol\":2448:2460  campaignList */\n      0x00\n        /* \"CrowdFundingApp/Factory.sol\":2461:2462  i */\n      dup2\n        /* \"CrowdFundingApp/Factory.sol\":2448:2463  campaignList[i] */\n      dup2\n      sload\n      dup2\n      lt\n      tag_104\n      jumpi\n      tag_105\n      tag_106\n      jump\t// in\n    tag_105:\n    tag_104:\n      swap1\n      0x00\n      mstore\n      keccak256(0x00, 0x20)\n      swap1\n      0x07\n      mul\n      add\n        /* \"CrowdFundingApp/Factory.sol\":2448:2469  campaignList[i].title */\n      0x02\n      add\n        /* \"CrowdFundingApp/Factory.sol\":2436:2469  titles[i] = campaignList[i].title */\n      dup1\n      sload\n      tag_108\n      swap1\n      tag_90\n      jump\t// in\n    tag_108:\n      dup1\n      0x1f\n      add\n      0x20\n      dup1\n      swap2\n      div\n      mul\n      0x20\n      add\n      mload(0x40)\n      swap1\n      dup2\n      add\n      0x40\n      mstore\n      dup1\n      swap3\n      swap2\n      swap1\n      dup2\n      dup2\n      mstore\n      0x20\n      add\n      dup3\n      dup1\n      sload\n      tag_109\n      swap1\n      tag_90\n      jump\t// in\n    tag_109:\n      dup1\n      iszero\n      tag_110\n      jumpi\n      dup1\n      0x1f\n      lt\n      tag_111\n      jumpi\n      0x0100\n      dup1\n      dup4\n      sload\n      div\n      mul\n      dup4\n      mstore\n      swap2\n      0x20\n      add\n      swap2\n      jump(tag_110)\n    tag_111:\n      dup3\n      add\n      swap2\n      swap1\n      0x00\n      mstore\n      keccak256(0x00, 0x20)\n      swap1\n    tag_112:\n      dup2\n      sload\n      dup2\n      mstore\n      swap1\n      0x01\n      add\n      swap1\n      0x20\n      add\n      dup1\n      dup4\n      gt\n      tag_112\n      jumpi\n      dup3\n      swap1\n      sub\n      0x1f\n      and\n      dup3\n      add\n      swap2\n    tag_110:\n      pop\n      pop\n      pop\n      pop\n      pop\n        /* \"CrowdFundingApp/Factory.sol\":2436:2442  titles */\n      dup3\n        /* \"CrowdFundingApp/Factory.sol\":2443:2444  i */\n      dup3\n        /* \"CrowdFundingApp/Factory.sol\":2436:2445  titles[i] */\n      dup2\n      mload\n      dup2\n      lt\n      tag_113\n      jumpi\n      tag_114\n      tag_106\n      jump\t// in\n    tag_114:\n    tag_113:\n      0x20\n      mul\n      0x20\n      add\n      add\n        /* \"CrowdFundingApp/Factory.sol\":2436:2469  titles[i] = campaignList[i].title */\n      dup2\n      swap1\n      mstore\n      pop\n        /* \"CrowdFundingApp/Factory.sol\":2421:2424  i++ */\n      dup1\n      dup1\n      0x01\n      add\n      swap2\n      pop\n      pop\n        /* \"CrowdFundingApp/Factory.sol\":2379:2476  for (uint i = 0; i < campaignList.length; i++) {... */\n      jump(tag_101)\n    tag_102:\n      pop\n        /* \"CrowdFundingApp/Factory.sol\":2493:2499  titles */\n      dup1\n        /* \"CrowdFundingApp/Factory.sol\":2486:2499  return titles */\n      swap2\n      pop\n      pop\n        /* \"CrowdFundingApp/Factory.sol\":2239:2502  function getAllCampaigns() public view returns (string[] memory) {... */\n      swap1\n      jump\t// out\n        /* \"CrowdFundingApp/Factory.sol\":423:1939  function createCampaign(... */\n    tag_49:\n        /* \"CrowdFundingApp/Factory.sol\":682:683  0 */\n      0x00\n        /* \"CrowdFundingApp/Factory.sol\":642:657  titleToCampaign */\n      0x01\n        /* \"CrowdFundingApp/Factory.sol\":658:663  title */\n      dup5\n        /* \"CrowdFundingApp/Factory.sol\":642:664  titleToCampaign[title] */\n      mload(0x40)\n      tag_116\n      swap2\n      swap1\n      tag_82\n      jump\t// in\n    tag_116:\n      swap1\n      dup2\n      mstore\n      0x20\n      add\n      mload(0x40)\n      dup1\n      swap2\n      sub\n      swap1\n      keccak256\n        /* \"CrowdFundingApp/Factory.sol\":642:670  titleToCampaign[title].title */\n      0x02\n      add\n        /* \"CrowdFundingApp/Factory.sol\":636:678  bytes(titleToCampaign[title].title).length */\n      dup1\n      sload\n      tag_117\n      swap1\n      tag_90\n      jump\t// in\n    tag_117:\n      swap1\n      pop\n        /* \"CrowdFundingApp/Factory.sol\":636:683  bytes(titleToCampaign[title].title).length == 0 */\n      eq\n        /* \"CrowdFundingApp/Factory.sol\":628:718  require(bytes(titleToCampaign[title].title).length == 0, \"Guy you no fit create name nii\") */\n      tag_118\n      jumpi\n      mload(0x40)\n      0x08c379a000000000000000000000000000000000000000000000000000000000\n      dup2\n      mstore\n      0x04\n      add\n      tag_119\n      swap1\n      tag_120\n      jump\t// in\n    tag_119:\n      mload(0x40)\n      dup1\n      swap2\n      sub\n      swap1\n      revert\n    tag_118:\n        /* \"CrowdFundingApp/Factory.sol\":810:811  0 */\n      0x00\n        /* \"CrowdFundingApp/Factory.sol\":787:812  beneficiary != address(0) */\n      0xffffffffffffffffffffffffffffffffffffffff\n      and\n        /* \"CrowdFundingApp/Factory.sol\":787:798  beneficiary */\n      dup5\n        /* \"CrowdFundingApp/Factory.sol\":787:812  beneficiary != address(0) */\n      0xffffffffffffffffffffffffffffffffffffffff\n      and\n      sub\n        /* \"CrowdFundingApp/Factory.sol\":779:843  require(beneficiary != address(0), \"Which kind address be this\") */\n      tag_121\n      jumpi\n      mload(0x40)\n      0x08c379a000000000000000000000000000000000000000000000000000000000\n      dup2\n      mstore\n      0x04\n      add\n      tag_122\n      swap1\n      tag_123\n      jump\t// in\n    tag_122:\n      mload(0x40)\n      dup1\n      swap2\n      sub\n      swap1\n      revert\n    tag_121:\n        /* \"CrowdFundingApp/Factory.sol\":917:918  0 */\n      0x00\n        /* \"CrowdFundingApp/Factory.sol\":901:906  title */\n      dup4\n        /* \"CrowdFundingApp/Factory.sol\":895:914  bytes(title).length */\n      mload\n        /* \"CrowdFundingApp/Factory.sol\":895:918  bytes(title).length > 0 */\n      gt\n        /* \"CrowdFundingApp/Factory.sol\":887:948  require(bytes(title).length > 0, \"Your campaign no get name\") */\n      tag_124\n      jumpi\n      mload(0x40)\n      0x08c379a000000000000000000000000000000000000000000000000000000000\n      dup2\n      mstore\n      0x04\n      add\n      tag_125\n      swap1\n      tag_126\n      jump\t// in\n    tag_125:\n      mload(0x40)\n      dup1\n      swap2\n      sub\n      swap1\n      revert\n    tag_124:\n        /* \"CrowdFundingApp/Factory.sol\":1030:1031  0 */\n      0x00\n        /* \"CrowdFundingApp/Factory.sol\":1014:1027  amountToRaise */\n      dup2\n        /* \"CrowdFundingApp/Factory.sol\":1014:1031  amountToRaise > 0 */\n      gt\n        /* \"CrowdFundingApp/Factory.sol\":1006:1062  require(amountToRaise > 0, \"Bruhh can you not do that?\") */\n      tag_127\n      jumpi\n      mload(0x40)\n      0x08c379a000000000000000000000000000000000000000000000000000000000\n      dup2\n      mstore\n      0x04\n      add\n      tag_128\n      swap1\n      tag_129\n      jump\t// in\n    tag_128:\n      mload(0x40)\n      dup1\n      swap2\n      sub\n      swap1\n      revert\n    tag_127:\n        /* \"CrowdFundingApp/Factory.sol\":1575:1602  Campaign memory newCampaign */\n      0x00\n        /* \"CrowdFundingApp/Factory.sol\":1605:1864  Campaign({... */\n      mload(0x40)\n      dup1\n      0xe0\n      add\n      0x40\n      mstore\n      dup1\n        /* \"CrowdFundingApp/Factory.sol\":1647:1657  msg.sender */\n      caller\n        /* \"CrowdFundingApp/Factory.sol\":1605:1864  Campaign({... */\n      0xffffffffffffffffffffffffffffffffffffffff\n      and\n      dup2\n      mstore\n      0x20\n      add\n        /* \"CrowdFundingApp/Factory.sol\":1684:1695  beneficiary */\n      dup7\n        /* \"CrowdFundingApp/Factory.sol\":1605:1864  Campaign({... */\n      0xffffffffffffffffffffffffffffffffffffffff\n      and\n      dup2\n      mstore\n      0x20\n      add\n        /* \"CrowdFundingApp/Factory.sol\":1720:1725  title */\n      dup6\n        /* \"CrowdFundingApp/Factory.sol\":1605:1864  Campaign({... */\n      dup2\n      mstore\n      0x20\n      add\n        /* \"CrowdFundingApp/Factory.sol\":1749:1757  deadline */\n      dup5\n        /* \"CrowdFundingApp/Factory.sol\":1605:1864  Campaign({... */\n      dup2\n      mstore\n      0x20\n      add\n        /* \"CrowdFundingApp/Factory.sol\":1782:1795  amountToRaise */\n      dup4\n        /* \"CrowdFundingApp/Factory.sol\":1605:1864  Campaign({... */\n      dup2\n      mstore\n      0x20\n      add\n        /* \"CrowdFundingApp/Factory.sol\":1822:1823  0 */\n      0x00\n        /* \"CrowdFundingApp/Factory.sol\":1605:1864  Campaign({... */\n      dup2\n      mstore\n      0x20\n      add\n        /* \"CrowdFundingApp/Factory.sol\":1852:1857  false */\n      0x00\n        /* \"CrowdFundingApp/Factory.sol\":1605:1864  Campaign({... */\n      iszero\n      iszero\n      dup2\n      mstore\n      pop\n        /* \"CrowdFundingApp/Factory.sol\":1575:1864  Campaign memory newCampaign = Campaign({... */\n      swap1\n      pop\n        /* \"CrowdFundingApp/Factory.sol\":1892:1903  newCampaign */\n      dup1\n        /* \"CrowdFundingApp/Factory.sol\":1867:1882  titleToCampaign */\n      0x01\n        /* \"CrowdFundingApp/Factory.sol\":1883:1888  title */\n      dup6\n        /* \"CrowdFundingApp/Factory.sol\":1867:1889  titleToCampaign[title] */\n      mload(0x40)\n      tag_130\n      swap2\n      swap1\n      tag_82\n      jump\t// in\n    tag_130:\n      swap1\n      dup2\n      mstore\n      0x20\n      add\n      mload(0x40)\n      dup1\n      swap2\n      sub\n      swap1\n      keccak256\n        /* \"CrowdFundingApp/Factory.sol\":1867:1903  titleToCampaign[title] = newCampaign */\n      0x00\n      dup3\n      add\n      mload\n      dup2\n      0x00\n      add\n      exp(0x0100, 0x00)\n      dup2\n      sload\n      dup2\n      0xffffffffffffffffffffffffffffffffffffffff\n      mul\n      not\n      and\n      swap1\n      dup4\n      0xffffffffffffffffffffffffffffffffffffffff\n      and\n      mul\n      or\n      swap1\n      sstore\n      pop\n      0x20\n      dup3\n      add\n      mload\n      dup2\n      0x01\n      add\n      exp(0x0100, 0x00)\n      dup2\n      sload\n      dup2\n      0xffffffffffffffffffffffffffffffffffffffff\n      mul\n      not\n      and\n      swap1\n      dup4\n      0xffffffffffffffffffffffffffffffffffffffff\n      and\n      mul\n      or\n      swap1\n      sstore\n      pop\n      0x40\n      dup3\n      add\n      mload\n      dup2\n      0x02\n      add\n      swap1\n      dup2\n      tag_131\n      swap2\n      swap1\n      tag_132\n      jump\t// in\n    tag_131:\n      pop\n      0x60\n      dup3\n      add\n      mload\n      dup2\n      0x03\n      add\n      sstore\n      0x80\n      dup3\n      add\n      mload\n      dup2\n      0x04\n      add\n      sstore\n      0xa0\n      dup3\n      add\n      mload\n      dup2\n      0x05\n      add\n      sstore\n      0xc0\n      dup3\n      add\n      mload\n      dup2\n      0x06\n      add\n      exp(0x0100, 0x00)\n      dup2\n      sload\n      dup2\n      0xff\n      mul\n      not\n      and\n      swap1\n      dup4\n      iszero\n      iszero\n      mul\n      or\n      swap1\n      sstore\n      pop\n      swap1\n      pop\n      pop\n        /* \"CrowdFundingApp/Factory.sol\":1905:1917  campaignList */\n      0x00\n        /* \"CrowdFundingApp/Factory.sol\":1923:1934  newCampaign */\n      dup2\n        /* \"CrowdFundingApp/Factory.sol\":1905:1935  campaignList.push(newCampaign) */\n      swap1\n      dup1\n      0x01\n      dup2\n      sload\n      add\n      dup1\n      dup3\n      sstore\n      dup1\n      swap2\n      pop\n      pop\n      0x01\n      swap1\n      sub\n      swap1\n      0x00\n      mstore\n      keccak256(0x00, 0x20)\n      swap1\n      0x07\n      mul\n      add\n      0x00\n      swap1\n      swap2\n      swap1\n      swap2\n      swap1\n      swap2\n      pop\n      0x00\n      dup3\n      add\n      mload\n      dup2\n      0x00\n      add\n      exp(0x0100, 0x00)\n      dup2\n      sload\n      dup2\n      0xffffffffffffffffffffffffffffffffffffffff\n      mul\n      not\n      and\n      swap1\n      dup4\n      0xffffffffffffffffffffffffffffffffffffffff\n      and\n      mul\n      or\n      swap1\n      sstore\n      pop\n      0x20\n      dup3\n      add\n      mload\n      dup2\n      0x01\n      add\n      exp(0x0100, 0x00)\n      dup2\n      sload\n      dup2\n      0xffffffffffffffffffffffffffffffffffffffff\n      mul\n      not\n      and\n      swap1\n      dup4\n      0xffffffffffffffffffffffffffffffffffffffff\n      and\n      mul\n      or\n      swap1\n      sstore\n      pop\n      0x40\n      dup3\n      add\n      mload\n      dup2\n      0x02\n      add\n      swap1\n      dup2\n      tag_134\n      swap2\n      swap1\n      tag_132\n      jump\t// in\n    tag_134:\n      pop\n      0x60\n      dup3\n      add\n      mload\n      dup2\n      0x03\n      add\n      sstore\n      0x80\n      dup3\n      add\n      mload\n      dup2\n      0x04\n      add\n      sstore\n      0xa0\n      dup3\n      add\n      mload\n      dup2\n      0x05\n      add\n      sstore\n      0xc0\n      dup3\n      add\n      mload\n      dup2\n      0x06\n      add\n      exp(0x0100, 0x00)\n      dup2\n      sload\n      dup2\n      0xff\n      mul\n      not\n      and\n      swap1\n      dup4\n      iszero\n      iszero\n      mul\n      or\n      swap1\n      sstore\n      pop\n      pop\n      pop\n        /* \"CrowdFundingApp/Factory.sol\":559:1939  {... */\n      pop\n        /* \"CrowdFundingApp/Factory.sol\":423:1939  function createCampaign(... */\n      pop\n      pop\n      pop\n      pop\n      jump\t// out\n        /* \"CrowdFundingApp/Factory.sol\":1943:2236  function getCampaigns(string memory title) public view returns(... */\n    tag_53:\n        /* \"CrowdFundingApp/Factory.sol\":2011:2038  address payable beneficiary */\n      0x00\n        /* \"CrowdFundingApp/Factory.sol\":2044:2061  uint raisedAmount */\n      dup1\n        /* \"CrowdFundingApp/Factory.sol\":2067:2080  uint deadline */\n      0x00\n        /* \"CrowdFundingApp/Factory.sol\":2106:2121  titleToCampaign */\n      0x01\n        /* \"CrowdFundingApp/Factory.sol\":2122:2127  title */\n      dup5\n        /* \"CrowdFundingApp/Factory.sol\":2106:2128  titleToCampaign[title] */\n      mload(0x40)\n      tag_136\n      swap2\n      swap1\n      tag_82\n      jump\t// in\n    tag_136:\n      swap1\n      dup2\n      mstore\n      0x20\n      add\n      mload(0x40)\n      dup1\n      swap2\n      sub\n      swap1\n      keccak256\n        /* \"CrowdFundingApp/Factory.sol\":2106:2140  titleToCampaign[title].beneficiary */\n      0x01\n      add\n      0x00\n      swap1\n      sload\n      swap1\n      0x0100\n      exp\n      swap1\n      div\n      0xffffffffffffffffffffffffffffffffffffffff\n      and\n        /* \"CrowdFundingApp/Factory.sol\":2150:2165  titleToCampaign */\n      0x01\n        /* \"CrowdFundingApp/Factory.sol\":2166:2171  title */\n      dup6\n        /* \"CrowdFundingApp/Factory.sol\":2150:2172  titleToCampaign[title] */\n      mload(0x40)\n      tag_137\n      swap2\n      swap1\n      tag_82\n      jump\t// in\n    tag_137:\n      swap1\n      dup2\n      mstore\n      0x20\n      add\n      mload(0x40)\n      dup1\n      swap2\n      sub\n      swap1\n      keccak256\n        /* \"CrowdFundingApp/Factory.sol\":2150:2185  titleToCampaign[title].raisedAmount */\n      0x05\n      add\n      sload\n        /* \"CrowdFundingApp/Factory.sol\":2195:2210  titleToCampaign */\n      0x01\n        /* \"CrowdFundingApp/Factory.sol\":2211:2216  title */\n      dup7\n        /* \"CrowdFundingApp/Factory.sol\":2195:2217  titleToCampaign[title] */\n      mload(0x40)\n      tag_138\n      swap2\n      swap1\n      tag_82\n      jump\t// in\n    tag_138:\n      swap1\n      dup2\n      mstore\n      0x20\n      add\n      mload(0x40)\n      dup1\n      swap2\n      sub\n      swap1\n      keccak256\n        /* \"CrowdFundingApp/Factory.sol\":2195:2226  titleToCampaign[title].deadline */\n      0x03\n      add\n      sload\n        /* \"CrowdFundingApp/Factory.sol\":2089:2232  return (... */\n      swap3\n      pop\n      swap3\n      pop\n      swap3\n      pop\n        /* \"CrowdFundingApp/Factory.sol\":1943:2236  function getCampaigns(string memory title) public view returns(... */\n      swap2\n      swap4\n      swap1\n      swap3\n      pop\n      jump\t// out\n        /* \"CrowdFundingApp/Campaign.sol\":874:1424  function contribute(string memory title,uint contribution)public payable {... */\n    tag_59:\n        /* \"CrowdFundingApp/Campaign.sol\":981:991  10000 gwei */\n      0x09184e72a000\n        /* \"CrowdFundingApp/Campaign.sol\":965:977  contribution */\n      dup2\n        /* \"CrowdFundingApp/Campaign.sol\":965:991  contribution >= 10000 gwei */\n      lt\n      iszero\n        /* \"CrowdFundingApp/Campaign.sol\":957:1024  require(contribution >= 10000 gwei, \"No stingy contributions Here\") */\n      tag_140\n      jumpi\n      mload(0x40)\n      0x08c379a000000000000000000000000000000000000000000000000000000000\n      dup2\n      mstore\n      0x04\n      add\n      tag_141\n      swap1\n      tag_142\n      jump\t// in\n    tag_141:\n      mload(0x40)\n      dup1\n      swap2\n      sub\n      swap1\n      revert\n    tag_140:\n        /* \"CrowdFundingApp/Campaign.sol\":1034:1061  Campaign memory newCampaign */\n      0x00\n        /* \"CrowdFundingApp/Campaign.sol\":1064:1079  titleToCampaign */\n      0x01\n        /* \"CrowdFundingApp/Campaign.sol\":1080:1085  title */\n      dup4\n        /* \"CrowdFundingApp/Campaign.sol\":1064:1086  titleToCampaign[title] */\n      mload(0x40)\n      tag_143\n      swap2\n      swap1\n      tag_82\n      jump\t// in\n    tag_143:\n      swap1\n      dup2\n      mstore\n      0x20\n      add\n      mload(0x40)\n      dup1\n      swap2\n      sub\n      swap1\n      keccak256\n        /* \"CrowdFundingApp/Campaign.sol\":1034:1086  Campaign memory newCampaign = titleToCampaign[title] */\n      mload(0x40)\n      dup1\n      0xe0\n      add\n      0x40\n      mstore\n      swap1\n      dup2\n      0x00\n      dup3\n      add\n      0x00\n      swap1\n      sload\n      swap1\n      0x0100\n      exp\n      swap1\n      div\n      0xffffffffffffffffffffffffffffffffffffffff\n      and\n      0xffffffffffffffffffffffffffffffffffffffff\n      and\n      0xffffffffffffffffffffffffffffffffffffffff\n      and\n      dup2\n      mstore\n      0x20\n      add\n      0x01\n      dup3\n      add\n      0x00\n      swap1\n      sload\n      swap1\n      0x0100\n      exp\n      swap1\n      div\n      0xffffffffffffffffffffffffffffffffffffffff\n      and\n      0xffffffffffffffffffffffffffffffffffffffff\n      and\n      0xffffffffffffffffffffffffffffffffffffffff\n      and\n      dup2\n      mstore\n      0x20\n      add\n      0x02\n      dup3\n      add\n      dup1\n      sload\n      tag_144\n      swap1\n      tag_90\n      jump\t// in\n    tag_144:\n      dup1\n      0x1f\n      add\n      0x20\n      dup1\n      swap2\n      div\n      mul\n      0x20\n      add\n      mload(0x40)\n      swap1\n      dup2\n      add\n      0x40\n      mstore\n      dup1\n      swap3\n      swap2\n      swap1\n      dup2\n      dup2\n      mstore\n      0x20\n      add\n      dup3\n      dup1\n      sload\n      tag_145\n      swap1\n      tag_90\n      jump\t// in\n    tag_145:\n      dup1\n      iszero\n      tag_146\n      jumpi\n      dup1\n      0x1f\n      lt\n      tag_147\n      jumpi\n      0x0100\n      dup1\n      dup4\n      sload\n      div\n      mul\n      dup4\n      mstore\n      swap2\n      0x20\n      add\n      swap2\n      jump(tag_146)\n    tag_147:\n      dup3\n      add\n      swap2\n      swap1\n      0x00\n      mstore\n      keccak256(0x00, 0x20)\n      swap1\n    tag_148:\n      dup2\n      sload\n      dup2\n      mstore\n      swap1\n      0x01\n      add\n      swap1\n      0x20\n      add\n      dup1\n      dup4\n      gt\n      tag_148\n      jumpi\n      dup3\n      swap1\n      sub\n      0x1f\n      and\n      dup3\n      add\n      swap2\n    tag_146:\n      pop\n      pop\n      pop\n      pop\n      pop\n      dup2\n      mstore\n      0x20\n      add\n      0x03\n      dup3\n      add\n      sload\n      dup2\n      mstore\n      0x20\n      add\n      0x04\n      dup3\n      add\n      sload\n      dup2\n      mstore\n      0x20\n      add\n      0x05\n      dup3\n      add\n      sload\n      dup2\n      mstore\n      0x20\n      add\n      0x06\n      dup3\n      add\n      0x00\n      swap1\n      sload\n      swap1\n      0x0100\n      exp\n      swap1\n      div\n      0xff\n      and\n      iszero\n      iszero\n      iszero\n      iszero\n      dup2\n      mstore\n      pop\n      pop\n      swap1\n      pop\n        /* \"CrowdFundingApp/Campaign.sol\":1126:1138  contribution */\n      dup2\n        /* \"CrowdFundingApp/Campaign.sol\":1098:1109  newCampaign */\n      dup2\n        /* \"CrowdFundingApp/Campaign.sol\":1098:1122  newCampaign.raisedAmount */\n      0xa0\n      add\n        /* \"CrowdFundingApp/Campaign.sol\":1098:1138  newCampaign.raisedAmount += contribution */\n      dup2\n      dup2\n      mload\n      tag_149\n      swap2\n      swap1\n      tag_150\n      jump\t// in\n    tag_149:\n      swap2\n      pop\n      dup2\n      dup2\n      mstore\n      pop\n      pop\n        /* \"CrowdFundingApp/Campaign.sol\":1148:1160  campaignList */\n      0x00\n        /* \"CrowdFundingApp/Campaign.sol\":1167:1178  newCampaign */\n      dup2\n        /* \"CrowdFundingApp/Campaign.sol\":1148:1179  campaignList.push (newCampaign) */\n      swap1\n      dup1\n      0x01\n      dup2\n      sload\n      add\n      dup1\n      dup3\n      sstore\n      dup1\n      swap2\n      pop\n      pop\n      0x01\n      swap1\n      sub\n      swap1\n      0x00\n      mstore\n      keccak256(0x00, 0x20)\n      swap1\n      0x07\n      mul\n      add\n      0x00\n      swap1\n      swap2\n      swap1\n      swap2\n      swap1\n      swap2\n      pop\n      0x00\n      dup3\n      add\n      mload\n      dup2\n      0x00\n      add\n      exp(0x0100, 0x00)\n      dup2\n      sload\n      dup2\n      0xffffffffffffffffffffffffffffffffffffffff\n      mul\n      not\n      and\n      swap1\n      dup4\n      0xffffffffffffffffffffffffffffffffffffffff\n      and\n      mul\n      or\n      swap1\n      sstore\n      pop\n      0x20\n      dup3\n      add\n      mload\n      dup2\n      0x01\n      add\n      exp(0x0100, 0x00)\n      dup2\n      sload\n      dup2\n      0xffffffffffffffffffffffffffffffffffffffff\n      mul\n      not\n      and\n      swap1\n      dup4\n      0xffffffffffffffffffffffffffffffffffffffff\n      and\n      mul\n      or\n      swap1\n      sstore\n      pop\n      0x40\n      dup3\n      add\n      mload\n      dup2\n      0x02\n      add\n      swap1\n      dup2\n      tag_152\n      swap2\n      swap1\n      tag_132\n      jump\t// in\n    tag_152:\n      pop\n      0x60\n      dup3\n      add\n      mload\n      dup2\n      0x03\n      add\n      sstore\n      0x80\n      dup3\n      add\n      mload\n      dup2\n      0x04\n      add\n      sstore\n      0xa0\n      dup3\n      add\n      mload\n      dup2\n      0x05\n      add\n      sstore\n      0xc0\n      dup3\n      add\n      mload\n      dup2\n      0x06\n      add\n      exp(0x0100, 0x00)\n      dup2\n      sload\n      dup2\n      0xff\n      mul\n      not\n      and\n      swap1\n      dup4\n      iszero\n      iszero\n      mul\n      or\n      swap1\n      sstore\n      pop\n      pop\n      pop\n        /* \"CrowdFundingApp/Campaign.sol\":1220:1232  contribution */\n      dup2\n        /* \"CrowdFundingApp/Campaign.sol\":1190:1205  addressToAmount */\n      0x06\n        /* \"CrowdFundingApp/Campaign.sol\":1190:1217  addressToAmount[msg.sender] */\n      0x00\n        /* \"CrowdFundingApp/Campaign.sol\":1206:1216  msg.sender */\n      caller\n        /* \"CrowdFundingApp/Campaign.sol\":1190:1217  addressToAmount[msg.sender] */\n      0xffffffffffffffffffffffffffffffffffffffff\n      and\n      0xffffffffffffffffffffffffffffffffffffffff\n      and\n      dup2\n      mstore\n      0x20\n      add\n      swap1\n      dup2\n      mstore\n      0x20\n      add\n      0x00\n      keccak256\n        /* \"CrowdFundingApp/Campaign.sol\":1190:1232  addressToAmount[msg.sender] = contribution */\n      dup2\n      swap1\n      sstore\n      pop\n        /* \"CrowdFundingApp/Campaign.sol\":1288:1293  title */\n      dup3\n        /* \"CrowdFundingApp/Campaign.sol\":1242:1258  contributorsList */\n      0x05\n        /* \"CrowdFundingApp/Campaign.sol\":1242:1270  contributorsList[msg.sender] */\n      0x00\n        /* \"CrowdFundingApp/Campaign.sol\":1259:1269  msg.sender */\n      caller\n        /* \"CrowdFundingApp/Campaign.sol\":1242:1270  contributorsList[msg.sender] */\n      0xffffffffffffffffffffffffffffffffffffffff\n      and\n      0xffffffffffffffffffffffffffffffffffffffff\n      and\n      dup2\n      mstore\n      0x20\n      add\n      swap1\n      dup2\n      mstore\n      0x20\n      add\n      0x00\n      keccak256\n        /* \"CrowdFundingApp/Campaign.sol\":1242:1285  contributorsList[msg.sender].campaignToVote */\n      0x00\n      add\n        /* \"CrowdFundingApp/Campaign.sol\":1242:1293  contributorsList[msg.sender].campaignToVote = title */\n      swap1\n      dup2\n      tag_153\n      swap2\n      swap1\n      tag_132\n      jump\t// in\n    tag_153:\n      pop\n        /* \"CrowdFundingApp/Campaign.sol\":1303:1315  contributors */\n      0x02\n        /* \"CrowdFundingApp/Campaign.sol\":1321:1331  msg.sender */\n      caller\n        /* \"CrowdFundingApp/Campaign.sol\":1303:1332  contributors.push(msg.sender) */\n      swap1\n      dup1\n      0x01\n      dup2\n      sload\n      add\n      dup1\n      dup3\n      sstore\n      dup1\n      swap2\n      pop\n      pop\n      0x01\n      swap1\n      sub\n      swap1\n      0x00\n      mstore\n      keccak256(0x00, 0x20)\n      add\n      0x00\n      swap1\n      swap2\n      swap1\n      swap2\n      swap1\n      swap2\n      0x0100\n      exp\n      dup2\n      sload\n      dup2\n      0xffffffffffffffffffffffffffffffffffffffff\n      mul\n      not\n      and\n      swap1\n      dup4\n      0xffffffffffffffffffffffffffffffffffffffff\n      and\n      mul\n      or\n      swap1\n      sstore\n      pop\n        /* \"CrowdFundingApp/Campaign.sol\":1342:1357  allContributors */\n      0x03\n        /* \"CrowdFundingApp/Campaign.sol\":1363:1407  Contributor(title, msg.sender, contribution) */\n      mload(0x40)\n      dup1\n      0x60\n      add\n      0x40\n      mstore\n      dup1\n        /* \"CrowdFundingApp/Campaign.sol\":1375:1380  title */\n      dup6\n        /* \"CrowdFundingApp/Campaign.sol\":1363:1407  Contributor(title, msg.sender, contribution) */\n      dup2\n      mstore\n      0x20\n      add\n        /* \"CrowdFundingApp/Campaign.sol\":1382:1392  msg.sender */\n      caller\n        /* \"CrowdFundingApp/Campaign.sol\":1363:1407  Contributor(title, msg.sender, contribution) */\n      0xffffffffffffffffffffffffffffffffffffffff\n      and\n      dup2\n      mstore\n      0x20\n      add\n        /* \"CrowdFundingApp/Campaign.sol\":1394:1406  contribution */\n      dup5\n        /* \"CrowdFundingApp/Campaign.sol\":1363:1407  Contributor(title, msg.sender, contribution) */\n      dup2\n      mstore\n      pop\n        /* \"CrowdFundingApp/Campaign.sol\":1342:1408  allContributors.push(Contributor(title, msg.sender, contribution)) */\n      swap1\n      dup1\n      0x01\n      dup2\n      sload\n      add\n      dup1\n      dup3\n      sstore\n      dup1\n      swap2\n      pop\n      pop\n      0x01\n      swap1\n      sub\n      swap1\n      0x00\n      mstore\n      keccak256(0x00, 0x20)\n      swap1\n      0x03\n      mul\n      add\n      0x00\n      swap1\n      swap2\n      swap1\n      swap2\n      swap1\n      swap2\n      pop\n      0x00\n      dup3\n      add\n      mload\n      dup2\n      0x00\n      add\n      swap1\n      dup2\n      tag_156\n      swap2\n      swap1\n      tag_132\n      jump\t// in\n    tag_156:\n      pop\n      0x20\n      dup3\n      add\n      mload\n      dup2\n      0x01\n      add\n      exp(0x0100, 0x00)\n      dup2\n      sload\n      dup2\n      0xffffffffffffffffffffffffffffffffffffffff\n      mul\n      not\n      and\n      swap1\n      dup4\n      0xffffffffffffffffffffffffffffffffffffffff\n      and\n      mul\n      or\n      swap1\n      sstore\n      pop\n      0x40\n      dup3\n      add\n      mload\n      dup2\n      0x02\n      add\n      sstore\n      pop\n      pop\n        /* \"CrowdFundingApp/Campaign.sol\":947:1424  {... */\n      pop\n        /* \"CrowdFundingApp/Campaign.sol\":874:1424  function contribute(string memory title,uint contribution)public payable {... */\n      pop\n      pop\n      jump\t// out\n        /* \"CrowdFundingApp/Campaign.sol\":1429:1708  function getActiveCampaigns() public view returns (uint){... */\n    tag_62:\n        /* \"CrowdFundingApp/Campaign.sol\":1480:1484  uint */\n      0x00\n        /* \"CrowdFundingApp/Campaign.sol\":1495:1512  getAllCampaigns() */\n      tag_158\n        /* \"CrowdFundingApp/Campaign.sol\":1495:1510  getAllCampaigns */\n      tag_42\n        /* \"CrowdFundingApp/Campaign.sol\":1495:1512  getAllCampaigns() */\n      jump\t// in\n    tag_158:\n      pop\n        /* \"CrowdFundingApp/Campaign.sol\":1530:1542  campaignList */\n      0x00\n        /* \"CrowdFundingApp/Campaign.sol\":1530:1549  campaignList.length */\n      dup1\n      sload\n      swap1\n      pop\n        /* \"CrowdFundingApp/Campaign.sol\":1523:1549  return campaignList.length */\n      swap1\n      pop\n        /* \"CrowdFundingApp/Campaign.sol\":1429:1708  function getActiveCampaigns() public view returns (uint){... */\n      swap1\n      jump\t// out\n        /* \"CrowdFundingApp/Factory.sol\":331:382  mapping (string => Campaign) public titleToCampaign */\n    tag_67:\n      0x01\n      dup2\n      dup1\n      mload\n      0x20\n      dup2\n      add\n      dup3\n      add\n      dup1\n      mload\n      dup5\n      dup3\n      mstore\n      0x20\n      dup4\n      add\n      0x20\n      dup6\n      add\n      keccak256\n      dup2\n      dup4\n      mstore\n      dup1\n      swap6\n      pop\n      pop\n      pop\n      pop\n      pop\n      pop\n      0x00\n      swap2\n      pop\n      swap1\n      pop\n      dup1\n      0x00\n      add\n      0x00\n      swap1\n      sload\n      swap1\n      0x0100\n      exp\n      swap1\n      div\n      0xffffffffffffffffffffffffffffffffffffffff\n      and\n      swap1\n      dup1\n      0x01\n      add\n      0x00\n      swap1\n      sload\n      swap1\n      0x0100\n      exp\n      swap1\n      div\n      0xffffffffffffffffffffffffffffffffffffffff\n      and\n      swap1\n      dup1\n      0x02\n      add\n      dup1\n      sload\n      tag_159\n      swap1\n      tag_90\n      jump\t// in\n    tag_159:\n      dup1\n      0x1f\n      add\n      0x20\n      dup1\n      swap2\n      div\n      mul\n      0x20\n      add\n      mload(0x40)\n      swap1\n      dup2\n      add\n      0x40\n      mstore\n      dup1\n      swap3\n      swap2\n      swap1\n      dup2\n      dup2\n      mstore\n      0x20\n      add\n      dup3\n      dup1\n      sload\n      tag_160\n      swap1\n      tag_90\n      jump\t// in\n    tag_160:\n      dup1\n      iszero\n      tag_161\n      jumpi\n      dup1\n      0x1f\n      lt\n      tag_162\n      jumpi\n      0x0100\n      dup1\n      dup4\n      sload\n      div\n      mul\n      dup4\n      mstore\n      swap2\n      0x20\n      add\n      swap2\n      jump(tag_161)\n    tag_162:\n      dup3\n      add\n      swap2\n      swap1\n      0x00\n      mstore\n      keccak256(0x00, 0x20)\n      swap1\n    tag_163:\n      dup2\n      sload\n      dup2\n      mstore\n      swap1\n      0x01\n      add\n      swap1\n      0x20\n      add\n      dup1\n      dup4\n      gt\n      tag_163\n      jumpi\n      dup3\n      swap1\n      sub\n      0x1f\n      and\n      dup3\n      add\n      swap2\n    tag_161:\n      pop\n      pop\n      pop\n      pop\n      pop\n      swap1\n      dup1\n      0x03\n      add\n      sload\n      swap1\n      dup1\n      0x04\n      add\n      sload\n      swap1\n      dup1\n      0x05\n      add\n      sload\n      swap1\n      dup1\n      0x06\n      add\n      0x00\n      swap1\n      sload\n      swap1\n      0x0100\n      exp\n      swap1\n      div\n      0xff\n      and\n      swap1\n      pop\n      dup8\n      jump\t// out\n        /* \"CrowdFundingApp/Campaign.sol\":354:390  Contributor[] public allContributors */\n    tag_72:\n      0x03\n      dup2\n      dup2\n      sload\n      dup2\n      lt\n      tag_164\n      jumpi\n      0x00\n      dup1\n      revert\n    tag_164:\n      swap1\n      0x00\n      mstore\n      keccak256(0x00, 0x20)\n      swap1\n      0x03\n      mul\n      add\n      0x00\n      swap2\n      pop\n      swap1\n      pop\n      dup1\n      0x00\n      add\n      dup1\n      sload\n      tag_166\n      swap1\n      tag_90\n      jump\t// in\n    tag_166:\n      dup1\n      0x1f\n      add\n      0x20\n      dup1\n      swap2\n      div\n      mul\n      0x20\n      add\n      mload(0x40)\n      swap1\n      dup2\n      add\n      0x40\n      mstore\n      dup1\n      swap3\n      swap2\n      swap1\n      dup2\n      dup2\n      mstore\n      0x20\n      add\n      dup3\n      dup1\n      sload\n      tag_167\n      swap1\n      tag_90\n      jump\t// in\n    tag_167:\n      dup1\n      iszero\n      tag_168\n      jumpi\n      dup1\n      0x1f\n      lt\n      tag_169\n      jumpi\n      0x0100\n      dup1\n      dup4\n      sload\n      div\n      mul\n      dup4\n      mstore\n      swap2\n      0x20\n      add\n      swap2\n      jump(tag_168)\n    tag_169:\n      dup3\n      add\n      swap2\n      swap1\n      0x00\n      mstore\n      keccak256(0x00, 0x20)\n      swap1\n    tag_170:\n      dup2\n      sload\n      dup2\n      mstore\n      swap1\n      0x01\n      add\n      swap1\n      0x20\n      add\n      dup1\n      dup4\n      gt\n      tag_170\n      jumpi\n      dup3\n      swap1\n      sub\n      0x1f\n      and\n      dup3\n      add\n      swap2\n    tag_168:\n      pop\n      pop\n      pop\n      pop\n      pop\n      swap1\n      dup1\n      0x01\n      add\n      0x00\n      swap1\n      sload\n      swap1\n      0x0100\n      exp\n      swap1\n      div\n      0xffffffffffffffffffffffffffffffffffffffff\n      and\n      swap1\n      dup1\n      0x02\n      add\n      sload\n      swap1\n      pop\n      dup4\n      jump\t// out\n        /* \"CrowdFundingApp/Campaign.sol\":1853:1980  function getGoal(string memory title ) public view returns (uint){... */\n    tag_78:\n        /* \"CrowdFundingApp/Campaign.sol\":1913:1917  uint */\n      0x00\n        /* \"CrowdFundingApp/Campaign.sol\":1935:1950  titleToCampaign */\n      0x01\n        /* \"CrowdFundingApp/Campaign.sol\":1951:1956  title */\n      dup3\n        /* \"CrowdFundingApp/Campaign.sol\":1935:1957  titleToCampaign[title] */\n      mload(0x40)\n      tag_172\n      swap2\n      swap1\n      tag_82\n      jump\t// in\n    tag_172:\n      swap1\n      dup2\n      mstore\n      0x20\n      add\n      mload(0x40)\n      dup1\n      swap2\n      sub\n      swap1\n      keccak256\n        /* \"CrowdFundingApp/Campaign.sol\":1935:1971  titleToCampaign[title].amountToRaise */\n      0x04\n      add\n      sload\n        /* \"CrowdFundingApp/Campaign.sol\":1928:1971  return titleToCampaign[title].amountToRaise */\n      swap1\n      pop\n        /* \"CrowdFundingApp/Campaign.sol\":1853:1980  function getGoal(string memory title ) public view returns (uint){... */\n      swap2\n      swap1\n      pop\n      jump\t// out\n        /* \"#utility.yul\":7:82   */\n    tag_173:\n        /* \"#utility.yul\":40:46   */\n      0x00\n        /* \"#utility.yul\":73:75   */\n      0x40\n        /* \"#utility.yul\":67:76   */\n      mload\n        /* \"#utility.yul\":57:76   */\n      swap1\n      pop\n        /* \"#utility.yul\":7:82   */\n      swap1\n      jump\t// out\n        /* \"#utility.yul\":88:205   */\n    tag_174:\n        /* \"#utility.yul\":197:198   */\n      0x00\n        /* \"#utility.yul\":194:195   */\n      dup1\n        /* \"#utility.yul\":187:199   */\n      revert\n        /* \"#utility.yul\":211:328   */\n    tag_175:\n        /* \"#utility.yul\":320:321   */\n      0x00\n        /* \"#utility.yul\":317:318   */\n      dup1\n        /* \"#utility.yul\":310:322   */\n      revert\n        /* \"#utility.yul\":334:451   */\n    tag_176:\n        /* \"#utility.yul\":443:444   */\n      0x00\n        /* \"#utility.yul\":440:441   */\n      dup1\n        /* \"#utility.yul\":433:445   */\n      revert\n        /* \"#utility.yul\":457:574   */\n    tag_177:\n        /* \"#utility.yul\":566:567   */\n      0x00\n        /* \"#utility.yul\":563:564   */\n      dup1\n        /* \"#utility.yul\":556:568   */\n      revert\n        /* \"#utility.yul\":580:682   */\n    tag_178:\n        /* \"#utility.yul\":621:627   */\n      0x00\n        /* \"#utility.yul\":672:674   */\n      0x1f\n        /* \"#utility.yul\":668:675   */\n      not\n        /* \"#utility.yul\":663:665   */\n      0x1f\n        /* \"#utility.yul\":656:661   */\n      dup4\n        /* \"#utility.yul\":652:666   */\n      add\n        /* \"#utility.yul\":648:676   */\n      and\n        /* \"#utility.yul\":638:676   */\n      swap1\n      pop\n        /* \"#utility.yul\":580:682   */\n      swap2\n      swap1\n      pop\n      jump\t// out\n        /* \"#utility.yul\":688:868   */\n    tag_98:\n        /* \"#utility.yul\":736:813   */\n      0x4e487b7100000000000000000000000000000000000000000000000000000000\n        /* \"#utility.yul\":733:734   */\n      0x00\n        /* \"#utility.yul\":726:814   */\n      mstore\n        /* \"#utility.yul\":833:837   */\n      0x41\n        /* \"#utility.yul\":830:831   */\n      0x04\n        /* \"#utility.yul\":823:838   */\n      mstore\n        /* \"#utility.yul\":857:861   */\n      0x24\n        /* \"#utility.yul\":854:855   */\n      0x00\n        /* \"#utility.yul\":847:862   */\n      revert\n        /* \"#utility.yul\":874:1155   */\n    tag_179:\n        /* \"#utility.yul\":957:984   */\n      tag_248\n        /* \"#utility.yul\":979:983   */\n      dup3\n        /* \"#utility.yul\":957:984   */\n      tag_178\n      jump\t// in\n    tag_248:\n        /* \"#utility.yul\":949:955   */\n      dup2\n        /* \"#utility.yul\":945:985   */\n      add\n        /* \"#utility.yul\":1087:1093   */\n      dup2\n        /* \"#utility.yul\":1075:1085   */\n      dup2\n        /* \"#utility.yul\":1072:1094   */\n      lt\n        /* \"#utility.yul\":1051:1069   */\n      0xffffffffffffffff\n        /* \"#utility.yul\":1039:1049   */\n      dup3\n        /* \"#utility.yul\":1036:1070   */\n      gt\n        /* \"#utility.yul\":1033:1095   */\n      or\n        /* \"#utility.yul\":1030:1118   */\n      iszero\n      tag_249\n      jumpi\n        /* \"#utility.yul\":1098:1116   */\n      tag_250\n      tag_98\n      jump\t// in\n    tag_250:\n        /* \"#utility.yul\":1030:1118   */\n    tag_249:\n        /* \"#utility.yul\":1138:1148   */\n      dup1\n        /* \"#utility.yul\":1134:1136   */\n      0x40\n        /* \"#utility.yul\":1127:1149   */\n      mstore\n        /* \"#utility.yul\":917:1155   */\n      pop\n        /* \"#utility.yul\":874:1155   */\n      pop\n      pop\n      jump\t// out\n        /* \"#utility.yul\":1161:1290   */\n    tag_180:\n        /* \"#utility.yul\":1195:1201   */\n      0x00\n        /* \"#utility.yul\":1222:1242   */\n      tag_252\n      tag_173\n      jump\t// in\n    tag_252:\n        /* \"#utility.yul\":1212:1242   */\n      swap1\n      pop\n        /* \"#utility.yul\":1251:1284   */\n      tag_253\n        /* \"#utility.yul\":1279:1283   */\n      dup3\n        /* \"#utility.yul\":1271:1277   */\n      dup3\n        /* \"#utility.yul\":1251:1284   */\n      tag_179\n      jump\t// in\n    tag_253:\n        /* \"#utility.yul\":1161:1290   */\n      swap2\n      swap1\n      pop\n      jump\t// out\n        /* \"#utility.yul\":1296:1604   */\n    tag_181:\n        /* \"#utility.yul\":1358:1362   */\n      0x00\n        /* \"#utility.yul\":1448:1466   */\n      0xffffffffffffffff\n        /* \"#utility.yul\":1440:1446   */\n      dup3\n        /* \"#utility.yul\":1437:1467   */\n      gt\n        /* \"#utility.yul\":1434:1490   */\n      iszero\n      tag_255\n      jumpi\n        /* \"#utility.yul\":1470:1488   */\n      tag_256\n      tag_98\n      jump\t// in\n    tag_256:\n        /* \"#utility.yul\":1434:1490   */\n    tag_255:\n        /* \"#utility.yul\":1508:1537   */\n      tag_257\n        /* \"#utility.yul\":1530:1536   */\n      dup3\n        /* \"#utility.yul\":1508:1537   */\n      tag_178\n      jump\t// in\n    tag_257:\n        /* \"#utility.yul\":1500:1537   */\n      swap1\n      pop\n        /* \"#utility.yul\":1592:1596   */\n      0x20\n        /* \"#utility.yul\":1586:1590   */\n      dup2\n        /* \"#utility.yul\":1582:1597   */\n      add\n        /* \"#utility.yul\":1574:1597   */\n      swap1\n      pop\n        /* \"#utility.yul\":1296:1604   */\n      swap2\n      swap1\n      pop\n      jump\t// out\n        /* \"#utility.yul\":1610:1758   */\n    tag_182:\n        /* \"#utility.yul\":1708:1714   */\n      dup3\n        /* \"#utility.yul\":1703:1706   */\n      dup2\n        /* \"#utility.yul\":1698:1701   */\n      dup4\n        /* \"#utility.yul\":1685:1715   */\n      calldatacopy\n        /* \"#utility.yul\":1749:1750   */\n      0x00\n        /* \"#utility.yul\":1740:1746   */\n      dup4\n        /* \"#utility.yul\":1735:1738   */\n      dup4\n        /* \"#utility.yul\":1731:1747   */\n      add\n        /* \"#utility.yul\":1724:1751   */\n      mstore\n        /* \"#utility.yul\":1610:1758   */\n      pop\n      pop\n      pop\n      jump\t// out\n        /* \"#utility.yul\":1764:2189   */\n    tag_183:\n        /* \"#utility.yul\":1842:1847   */\n      0x00\n        /* \"#utility.yul\":1867:1933   */\n      tag_260\n        /* \"#utility.yul\":1883:1932   */\n      tag_261\n        /* \"#utility.yul\":1925:1931   */\n      dup5\n        /* \"#utility.yul\":1883:1932   */\n      tag_181\n      jump\t// in\n    tag_261:\n        /* \"#utility.yul\":1867:1933   */\n      tag_180\n      jump\t// in\n    tag_260:\n        /* \"#utility.yul\":1858:1933   */\n      swap1\n      pop\n        /* \"#utility.yul\":1956:1962   */\n      dup3\n        /* \"#utility.yul\":1949:1954   */\n      dup2\n        /* \"#utility.yul\":1942:1963   */\n      mstore\n        /* \"#utility.yul\":1994:1998   */\n      0x20\n        /* \"#utility.yul\":1987:1992   */\n      dup2\n        /* \"#utility.yul\":1983:1999   */\n      add\n        /* \"#utility.yul\":2032:2035   */\n      dup5\n        /* \"#utility.yul\":2023:2029   */\n      dup5\n        /* \"#utility.yul\":2018:2021   */\n      dup5\n        /* \"#utility.yul\":2014:2030   */\n      add\n        /* \"#utility.yul\":2011:2036   */\n      gt\n        /* \"#utility.yul\":2008:2120   */\n      iszero\n      tag_262\n      jumpi\n        /* \"#utility.yul\":2039:2118   */\n      tag_263\n      tag_177\n      jump\t// in\n    tag_263:\n        /* \"#utility.yul\":2008:2120   */\n    tag_262:\n        /* \"#utility.yul\":2129:2183   */\n      tag_264\n        /* \"#utility.yul\":2176:2182   */\n      dup5\n        /* \"#utility.yul\":2171:2174   */\n      dup3\n        /* \"#utility.yul\":2166:2169   */\n      dup6\n        /* \"#utility.yul\":2129:2183   */\n      tag_182\n      jump\t// in\n    tag_264:\n        /* \"#utility.yul\":1848:2189   */\n      pop\n        /* \"#utility.yul\":1764:2189   */\n      swap4\n      swap3\n      pop\n      pop\n      pop\n      jump\t// out\n        /* \"#utility.yul\":2209:2549   */\n    tag_184:\n        /* \"#utility.yul\":2265:2270   */\n      0x00\n        /* \"#utility.yul\":2314:2317   */\n      dup3\n        /* \"#utility.yul\":2307:2311   */\n      0x1f\n        /* \"#utility.yul\":2299:2305   */\n      dup4\n        /* \"#utility.yul\":2295:2312   */\n      add\n        /* \"#utility.yul\":2291:2318   */\n      slt\n        /* \"#utility.yul\":2281:2403   */\n      tag_266\n      jumpi\n        /* \"#utility.yul\":2322:2401   */\n      tag_267\n      tag_176\n      jump\t// in\n    tag_267:\n        /* \"#utility.yul\":2281:2403   */\n    tag_266:\n        /* \"#utility.yul\":2439:2445   */\n      dup2\n        /* \"#utility.yul\":2426:2446   */\n      calldataload\n        /* \"#utility.yul\":2464:2543   */\n      tag_268\n        /* \"#utility.yul\":2539:2542   */\n      dup5\n        /* \"#utility.yul\":2531:2537   */\n      dup3\n        /* \"#utility.yul\":2524:2528   */\n      0x20\n        /* \"#utility.yul\":2516:2522   */\n      dup7\n        /* \"#utility.yul\":2512:2529   */\n      add\n        /* \"#utility.yul\":2464:2543   */\n      tag_183\n      jump\t// in\n    tag_268:\n        /* \"#utility.yul\":2455:2543   */\n      swap2\n      pop\n        /* \"#utility.yul\":2271:2549   */\n      pop\n        /* \"#utility.yul\":2209:2549   */\n      swap3\n      swap2\n      pop\n      pop\n      jump\t// out\n        /* \"#utility.yul\":2555:3064   */\n    tag_18:\n        /* \"#utility.yul\":2624:2630   */\n      0x00\n        /* \"#utility.yul\":2673:2675   */\n      0x20\n        /* \"#utility.yul\":2661:2670   */\n      dup3\n        /* \"#utility.yul\":2652:2659   */\n      dup5\n        /* \"#utility.yul\":2648:2671   */\n      sub\n        /* \"#utility.yul\":2644:2676   */\n      slt\n        /* \"#utility.yul\":2641:2760   */\n      iszero\n      tag_270\n      jumpi\n        /* \"#utility.yul\":2679:2758   */\n      tag_271\n      tag_174\n      jump\t// in\n    tag_271:\n        /* \"#utility.yul\":2641:2760   */\n    tag_270:\n        /* \"#utility.yul\":2827:2828   */\n      0x00\n        /* \"#utility.yul\":2816:2825   */\n      dup3\n        /* \"#utility.yul\":2812:2829   */\n      add\n        /* \"#utility.yul\":2799:2830   */\n      calldataload\n        /* \"#utility.yul\":2857:2875   */\n      0xffffffffffffffff\n        /* \"#utility.yul\":2849:2855   */\n      dup2\n        /* \"#utility.yul\":2846:2876   */\n      gt\n        /* \"#utility.yul\":2843:2960   */\n      iszero\n      tag_272\n      jumpi\n        /* \"#utility.yul\":2879:2958   */\n      tag_273\n      tag_175\n      jump\t// in\n    tag_273:\n        /* \"#utility.yul\":2843:2960   */\n    tag_272:\n        /* \"#utility.yul\":2984:3047   */\n      tag_274\n        /* \"#utility.yul\":3039:3046   */\n      dup5\n        /* \"#utility.yul\":3030:3036   */\n      dup3\n        /* \"#utility.yul\":3019:3028   */\n      dup6\n        /* \"#utility.yul\":3015:3037   */\n      add\n        /* \"#utility.yul\":2984:3047   */\n      tag_184\n      jump\t// in\n    tag_274:\n        /* \"#utility.yul\":2974:3047   */\n      swap2\n      pop\n        /* \"#utility.yul\":2770:3057   */\n      pop\n        /* \"#utility.yul\":2555:3064   */\n      swap3\n      swap2\n      pop\n      pop\n      jump\t// out\n        /* \"#utility.yul\":3070:3147   */\n    tag_185:\n        /* \"#utility.yul\":3107:3114   */\n      0x00\n        /* \"#utility.yul\":3136:3141   */\n      dup2\n        /* \"#utility.yul\":3125:3141   */\n      swap1\n      pop\n        /* \"#utility.yul\":3070:3147   */\n      swap2\n      swap1\n      pop\n      jump\t// out\n        /* \"#utility.yul\":3153:3271   */\n    tag_186:\n        /* \"#utility.yul\":3240:3264   */\n      tag_277\n        /* \"#utility.yul\":3258:3263   */\n      dup2\n        /* \"#utility.yul\":3240:3264   */\n      tag_185\n      jump\t// in\n    tag_277:\n        /* \"#utility.yul\":3235:3238   */\n      dup3\n        /* \"#utility.yul\":3228:3265   */\n      mstore\n        /* \"#utility.yul\":3153:3271   */\n      pop\n      pop\n      jump\t// out\n        /* \"#utility.yul\":3277:3499   */\n    tag_21:\n        /* \"#utility.yul\":3370:3374   */\n      0x00\n        /* \"#utility.yul\":3408:3410   */\n      0x20\n        /* \"#utility.yul\":3397:3406   */\n      dup3\n        /* \"#utility.yul\":3393:3411   */\n      add\n        /* \"#utility.yul\":3385:3411   */\n      swap1\n      pop\n        /* \"#utility.yul\":3421:3492   */\n      tag_279\n        /* \"#utility.yul\":3489:3490   */\n      0x00\n        /* \"#utility.yul\":3478:3487   */\n      dup4\n        /* \"#utility.yul\":3474:3491   */\n      add\n        /* \"#utility.yul\":3465:3471   */\n      dup5\n        /* \"#utility.yul\":3421:3492   */\n      tag_186\n      jump\t// in\n    tag_279:\n        /* \"#utility.yul\":3277:3499   */\n      swap3\n      swap2\n      pop\n      pop\n      jump\t// out\n        /* \"#utility.yul\":3505:3627   */\n    tag_187:\n        /* \"#utility.yul\":3578:3602   */\n      tag_281\n        /* \"#utility.yul\":3596:3601   */\n      dup2\n        /* \"#utility.yul\":3578:3602   */\n      tag_185\n      jump\t// in\n    tag_281:\n        /* \"#utility.yul\":3571:3576   */\n      dup2\n        /* \"#utility.yul\":3568:3603   */\n      eq\n        /* \"#utility.yul\":3558:3621   */\n      tag_282\n      jumpi\n        /* \"#utility.yul\":3617:3618   */\n      0x00\n        /* \"#utility.yul\":3614:3615   */\n      dup1\n        /* \"#utility.yul\":3607:3619   */\n      revert\n        /* \"#utility.yul\":3558:3621   */\n    tag_282:\n        /* \"#utility.yul\":3505:3627   */\n      pop\n      jump\t// out\n        /* \"#utility.yul\":3633:3772   */\n    tag_188:\n        /* \"#utility.yul\":3679:3684   */\n      0x00\n        /* \"#utility.yul\":3717:3723   */\n      dup2\n        /* \"#utility.yul\":3704:3724   */\n      calldataload\n        /* \"#utility.yul\":3695:3724   */\n      swap1\n      pop\n        /* \"#utility.yul\":3733:3766   */\n      tag_284\n        /* \"#utility.yul\":3760:3765   */\n      dup2\n        /* \"#utility.yul\":3733:3766   */\n      tag_187\n      jump\t// in\n    tag_284:\n        /* \"#utility.yul\":3633:3772   */\n      swap3\n      swap2\n      pop\n      pop\n      jump\t// out\n        /* \"#utility.yul\":3778:4107   */\n    tag_30:\n        /* \"#utility.yul\":3837:3843   */\n      0x00\n        /* \"#utility.yul\":3886:3888   */\n      0x20\n        /* \"#utility.yul\":3874:3883   */\n      dup3\n        /* \"#utility.yul\":3865:3872   */\n      dup5\n        /* \"#utility.yul\":3861:3884   */\n      sub\n        /* \"#utility.yul\":3857:3889   */\n      slt\n        /* \"#utility.yul\":3854:3973   */\n      iszero\n      tag_286\n      jumpi\n        /* \"#utility.yul\":3892:3971   */\n      tag_287\n      tag_174\n      jump\t// in\n    tag_287:\n        /* \"#utility.yul\":3854:3973   */\n    tag_286:\n        /* \"#utility.yul\":4012:4013   */\n      0x00\n        /* \"#utility.yul\":4037:4090   */\n      tag_288\n        /* \"#utility.yul\":4082:4089   */\n      dup5\n        /* \"#utility.yul\":4073:4079   */\n      dup3\n        /* \"#utility.yul\":4062:4071   */\n      dup6\n        /* \"#utility.yul\":4058:4080   */\n      add\n        /* \"#utility.yul\":4037:4090   */\n      tag_188\n      jump\t// in\n    tag_288:\n        /* \"#utility.yul\":4027:4090   */\n      swap2\n      pop\n        /* \"#utility.yul\":3983:4100   */\n      pop\n        /* \"#utility.yul\":3778:4107   */\n      swap3\n      swap2\n      pop\n      pop\n      jump\t// out\n        /* \"#utility.yul\":4113:4239   */\n    tag_189:\n        /* \"#utility.yul\":4150:4157   */\n      0x00\n        /* \"#utility.yul\":4190:4232   */\n      0xffffffffffffffffffffffffffffffffffffffff\n        /* \"#utility.yul\":4183:4188   */\n      dup3\n        /* \"#utility.yul\":4179:4233   */\n      and\n        /* \"#utility.yul\":4168:4233   */\n      swap1\n      pop\n        /* \"#utility.yul\":4113:4239   */\n      swap2\n      swap1\n      pop\n      jump\t// out\n        /* \"#utility.yul\":4245:4341   */\n    tag_190:\n        /* \"#utility.yul\":4282:4289   */\n      0x00\n        /* \"#utility.yul\":4311:4335   */\n      tag_291\n        /* \"#utility.yul\":4329:4334   */\n      dup3\n        /* \"#utility.yul\":4311:4335   */\n      tag_189\n      jump\t// in\n    tag_291:\n        /* \"#utility.yul\":4300:4335   */\n      swap1\n      pop\n        /* \"#utility.yul\":4245:4341   */\n      swap2\n      swap1\n      pop\n      jump\t// out\n        /* \"#utility.yul\":4347:4465   */\n    tag_191:\n        /* \"#utility.yul\":4434:4458   */\n      tag_293\n        /* \"#utility.yul\":4452:4457   */\n      dup2\n        /* \"#utility.yul\":4434:4458   */\n      tag_190\n      jump\t// in\n    tag_293:\n        /* \"#utility.yul\":4429:4432   */\n      dup3\n        /* \"#utility.yul\":4422:4459   */\n      mstore\n        /* \"#utility.yul\":4347:4465   */\n      pop\n      pop\n      jump\t// out\n        /* \"#utility.yul\":4471:4693   */\n    tag_33:\n        /* \"#utility.yul\":4564:4568   */\n      0x00\n        /* \"#utility.yul\":4602:4604   */\n      0x20\n        /* \"#utility.yul\":4591:4600   */\n      dup3\n        /* \"#utility.yul\":4587:4605   */\n      add\n        /* \"#utility.yul\":4579:4605   */\n      swap1\n      pop\n        /* \"#utility.yul\":4615:4686   */\n      tag_295\n        /* \"#utility.yul\":4683:4684   */\n      0x00\n        /* \"#utility.yul\":4672:4681   */\n      dup4\n        /* \"#utility.yul\":4668:4685   */\n      add\n        /* \"#utility.yul\":4659:4665   */\n      dup5\n        /* \"#utility.yul\":4615:4686   */\n      tag_191\n      jump\t// in\n    tag_295:\n        /* \"#utility.yul\":4471:4693   */\n      swap3\n      swap2\n      pop\n      pop\n      jump\t// out\n        /* \"#utility.yul\":4699:4803   */\n    tag_192:\n        /* \"#utility.yul\":4744:4751   */\n      0x00\n        /* \"#utility.yul\":4773:4797   */\n      tag_297\n        /* \"#utility.yul\":4791:4796   */\n      dup3\n        /* \"#utility.yul\":4773:4797   */\n      tag_189\n      jump\t// in\n    tag_297:\n        /* \"#utility.yul\":4762:4797   */\n      swap1\n      pop\n        /* \"#utility.yul\":4699:4803   */\n      swap2\n      swap1\n      pop\n      jump\t// out\n        /* \"#utility.yul\":4809:4951   */\n    tag_193:\n        /* \"#utility.yul\":4912:4944   */\n      tag_299\n        /* \"#utility.yul\":4938:4943   */\n      dup2\n        /* \"#utility.yul\":4912:4944   */\n      tag_192\n      jump\t// in\n    tag_299:\n        /* \"#utility.yul\":4907:4910   */\n      dup3\n        /* \"#utility.yul\":4900:4945   */\n      mstore\n        /* \"#utility.yul\":4809:4951   */\n      pop\n      pop\n      jump\t// out\n        /* \"#utility.yul\":4957:5056   */\n    tag_194:\n        /* \"#utility.yul\":5009:5015   */\n      0x00\n        /* \"#utility.yul\":5043:5048   */\n      dup2\n        /* \"#utility.yul\":5037:5049   */\n      mload\n        /* \"#utility.yul\":5027:5049   */\n      swap1\n      pop\n        /* \"#utility.yul\":4957:5056   */\n      swap2\n      swap1\n      pop\n      jump\t// out\n        /* \"#utility.yul\":5062:5231   */\n    tag_195:\n        /* \"#utility.yul\":5146:5157   */\n      0x00\n        /* \"#utility.yul\":5180:5186   */\n      dup3\n        /* \"#utility.yul\":5175:5178   */\n      dup3\n        /* \"#utility.yul\":5168:5187   */\n      mstore\n        /* \"#utility.yul\":5220:5224   */\n      0x20\n        /* \"#utility.yul\":5215:5218   */\n      dup3\n        /* \"#utility.yul\":5211:5225   */\n      add\n        /* \"#utility.yul\":5196:5225   */\n      swap1\n      pop\n        /* \"#utility.yul\":5062:5231   */\n      swap3\n      swap2\n      pop\n      pop\n      jump\t// out\n        /* \"#utility.yul\":5237:5376   */\n    tag_196:\n        /* \"#utility.yul\":5326:5332   */\n      dup3\n        /* \"#utility.yul\":5321:5324   */\n      dup2\n        /* \"#utility.yul\":5316:5319   */\n      dup4\n        /* \"#utility.yul\":5310:5333   */\n      mcopy\n        /* \"#utility.yul\":5367:5368   */\n      0x00\n        /* \"#utility.yul\":5358:5364   */\n      dup4\n        /* \"#utility.yul\":5353:5356   */\n      dup4\n        /* \"#utility.yul\":5349:5365   */\n      add\n        /* \"#utility.yul\":5342:5369   */\n      mstore\n        /* \"#utility.yul\":5237:5376   */\n      pop\n      pop\n      pop\n      jump\t// out\n        /* \"#utility.yul\":5382:5759   */\n    tag_197:\n        /* \"#utility.yul\":5470:5473   */\n      0x00\n        /* \"#utility.yul\":5498:5537   */\n      tag_304\n        /* \"#utility.yul\":5531:5536   */\n      dup3\n        /* \"#utility.yul\":5498:5537   */\n      tag_194\n      jump\t// in\n    tag_304:\n        /* \"#utility.yul\":5553:5624   */\n      tag_305\n        /* \"#utility.yul\":5617:5623   */\n      dup2\n        /* \"#utility.yul\":5612:5615   */\n      dup6\n        /* \"#utility.yul\":5553:5624   */\n      tag_195\n      jump\t// in\n    tag_305:\n        /* \"#utility.yul\":5546:5624   */\n      swap4\n      pop\n        /* \"#utility.yul\":5633:5698   */\n      tag_306\n        /* \"#utility.yul\":5691:5697   */\n      dup2\n        /* \"#utility.yul\":5686:5689   */\n      dup6\n        /* \"#utility.yul\":5679:5683   */\n      0x20\n        /* \"#utility.yul\":5672:5677   */\n      dup7\n        /* \"#utility.yul\":5668:5684   */\n      add\n        /* \"#utility.yul\":5633:5698   */\n      tag_196\n      jump\t// in\n    tag_306:\n        /* \"#utility.yul\":5723:5752   */\n      tag_307\n        /* \"#utility.yul\":5745:5751   */\n      dup2\n        /* \"#utility.yul\":5723:5752   */\n      tag_178\n      jump\t// in\n    tag_307:\n        /* \"#utility.yul\":5718:5721   */\n      dup5\n        /* \"#utility.yul\":5714:5753   */\n      add\n        /* \"#utility.yul\":5707:5753   */\n      swap2\n      pop\n        /* \"#utility.yul\":5474:5759   */\n      pop\n        /* \"#utility.yul\":5382:5759   */\n      swap3\n      swap2\n      pop\n      pop\n      jump\t// out\n        /* \"#utility.yul\":5765:5855   */\n    tag_198:\n        /* \"#utility.yul\":5799:5806   */\n      0x00\n        /* \"#utility.yul\":5842:5847   */\n      dup2\n        /* \"#utility.yul\":5835:5848   */\n      iszero\n        /* \"#utility.yul\":5828:5849   */\n      iszero\n        /* \"#utility.yul\":5817:5849   */\n      swap1\n      pop\n        /* \"#utility.yul\":5765:5855   */\n      swap2\n      swap1\n      pop\n      jump\t// out\n        /* \"#utility.yul\":5861:5970   */\n    tag_199:\n        /* \"#utility.yul\":5942:5963   */\n      tag_310\n        /* \"#utility.yul\":5957:5962   */\n      dup2\n        /* \"#utility.yul\":5942:5963   */\n      tag_198\n      jump\t// in\n    tag_310:\n        /* \"#utility.yul\":5937:5940   */\n      dup3\n        /* \"#utility.yul\":5930:5964   */\n      mstore\n        /* \"#utility.yul\":5861:5970   */\n      pop\n      pop\n      jump\t// out\n        /* \"#utility.yul\":5976:7005   */\n    tag_39:\n        /* \"#utility.yul\":6283:6287   */\n      0x00\n        /* \"#utility.yul\":6321:6324   */\n      0xe0\n        /* \"#utility.yul\":6310:6319   */\n      dup3\n        /* \"#utility.yul\":6306:6325   */\n      add\n        /* \"#utility.yul\":6298:6325   */\n      swap1\n      pop\n        /* \"#utility.yul\":6335:6422   */\n      tag_312\n        /* \"#utility.yul\":6419:6420   */\n      0x00\n        /* \"#utility.yul\":6408:6417   */\n      dup4\n        /* \"#utility.yul\":6404:6421   */\n      add\n        /* \"#utility.yul\":6395:6401   */\n      dup11\n        /* \"#utility.yul\":6335:6422   */\n      tag_193\n      jump\t// in\n    tag_312:\n        /* \"#utility.yul\":6432:6520   */\n      tag_313\n        /* \"#utility.yul\":6516:6518   */\n      0x20\n        /* \"#utility.yul\":6505:6514   */\n      dup4\n        /* \"#utility.yul\":6501:6519   */\n      add\n        /* \"#utility.yul\":6492:6498   */\n      dup10\n        /* \"#utility.yul\":6432:6520   */\n      tag_193\n      jump\t// in\n    tag_313:\n        /* \"#utility.yul\":6567:6576   */\n      dup2\n        /* \"#utility.yul\":6561:6565   */\n      dup2\n        /* \"#utility.yul\":6557:6577   */\n      sub\n        /* \"#utility.yul\":6552:6554   */\n      0x40\n        /* \"#utility.yul\":6541:6550   */\n      dup4\n        /* \"#utility.yul\":6537:6555   */\n      add\n        /* \"#utility.yul\":6530:6578   */\n      mstore\n        /* \"#utility.yul\":6595:6673   */\n      tag_314\n        /* \"#utility.yul\":6668:6672   */\n      dup2\n        /* \"#utility.yul\":6659:6665   */\n      dup9\n        /* \"#utility.yul\":6595:6673   */\n      tag_197\n      jump\t// in\n    tag_314:\n        /* \"#utility.yul\":6587:6673   */\n      swap1\n      pop\n        /* \"#utility.yul\":6683:6755   */\n      tag_315\n        /* \"#utility.yul\":6751:6753   */\n      0x60\n        /* \"#utility.yul\":6740:6749   */\n      dup4\n        /* \"#utility.yul\":6736:6754   */\n      add\n        /* \"#utility.yul\":6727:6733   */\n      dup8\n        /* \"#utility.yul\":6683:6755   */\n      tag_186\n      jump\t// in\n    tag_315:\n        /* \"#utility.yul\":6765:6838   */\n      tag_316\n        /* \"#utility.yul\":6833:6836   */\n      0x80\n        /* \"#utility.yul\":6822:6831   */\n      dup4\n        /* \"#utility.yul\":6818:6837   */\n      add\n        /* \"#utility.yul\":6809:6815   */\n      dup7\n        /* \"#utility.yul\":6765:6838   */\n      tag_186\n      jump\t// in\n    tag_316:\n        /* \"#utility.yul\":6848:6921   */\n      tag_317\n        /* \"#utility.yul\":6916:6919   */\n      0xa0\n        /* \"#utility.yul\":6905:6914   */\n      dup4\n        /* \"#utility.yul\":6901:6920   */\n      add\n        /* \"#utility.yul\":6892:6898   */\n      dup6\n        /* \"#utility.yul\":6848:6921   */\n      tag_186\n      jump\t// in\n    tag_317:\n        /* \"#utility.yul\":6931:6998   */\n      tag_318\n        /* \"#utility.yul\":6993:6996   */\n      0xc0\n        /* \"#utility.yul\":6982:6991   */\n      dup4\n        /* \"#utility.yul\":6978:6997   */\n      add\n        /* \"#utility.yul\":6969:6975   */\n      dup5\n        /* \"#utility.yul\":6931:6998   */\n      tag_199\n      jump\t// in\n    tag_318:\n        /* \"#utility.yul\":5976:7005   */\n      swap9\n      swap8\n      pop\n      pop\n      pop\n      pop\n      pop\n      pop\n      pop\n      pop\n      jump\t// out\n        /* \"#utility.yul\":7011:7135   */\n    tag_200:\n        /* \"#utility.yul\":7088:7094   */\n      0x00\n        /* \"#utility.yul\":7122:7127   */\n      dup2\n        /* \"#utility.yul\":7116:7128   */\n      mload\n        /* \"#utility.yul\":7106:7128   */\n      swap1\n      pop\n        /* \"#utility.yul\":7011:7135   */\n      swap2\n      swap1\n      pop\n      jump\t// out\n        /* \"#utility.yul\":7141:7335   */\n    tag_201:\n        /* \"#utility.yul\":7250:7261   */\n      0x00\n        /* \"#utility.yul\":7284:7290   */\n      dup3\n        /* \"#utility.yul\":7279:7282   */\n      dup3\n        /* \"#utility.yul\":7272:7291   */\n      mstore\n        /* \"#utility.yul\":7324:7328   */\n      0x20\n        /* \"#utility.yul\":7319:7322   */\n      dup3\n        /* \"#utility.yul\":7315:7329   */\n      add\n        /* \"#utility.yul\":7300:7329   */\n      swap1\n      pop\n        /* \"#utility.yul\":7141:7335   */\n      swap3\n      swap2\n      pop\n      pop\n      jump\t// out\n        /* \"#utility.yul\":7341:7483   */\n    tag_202:\n        /* \"#utility.yul\":7418:7422   */\n      0x00\n        /* \"#utility.yul\":7441:7444   */\n      dup2\n        /* \"#utility.yul\":7433:7444   */\n      swap1\n      pop\n        /* \"#utility.yul\":7471:7475   */\n      0x20\n        /* \"#utility.yul\":7466:7469   */\n      dup3\n        /* \"#utility.yul\":7462:7476   */\n      add\n        /* \"#utility.yul\":7454:7476   */\n      swap1\n      pop\n        /* \"#utility.yul\":7341:7483   */\n      swap2\n      swap1\n      pop\n      jump\t// out\n        /* \"#utility.yul\":7489:7648   */\n    tag_203:\n        /* \"#utility.yul\":7563:7574   */\n      0x00\n        /* \"#utility.yul\":7597:7603   */\n      dup3\n        /* \"#utility.yul\":7592:7595   */\n      dup3\n        /* \"#utility.yul\":7585:7604   */\n      mstore\n        /* \"#utility.yul\":7637:7641   */\n      0x20\n        /* \"#utility.yul\":7632:7635   */\n      dup3\n        /* \"#utility.yul\":7628:7642   */\n      add\n        /* \"#utility.yul\":7613:7642   */\n      swap1\n      pop\n        /* \"#utility.yul\":7489:7648   */\n      swap3\n      swap2\n      pop\n      pop\n      jump\t// out\n        /* \"#utility.yul\":7654:8011   */\n    tag_204:\n        /* \"#utility.yul\":7732:7735   */\n      0x00\n        /* \"#utility.yul\":7760:7799   */\n      tag_324\n        /* \"#utility.yul\":7793:7798   */\n      dup3\n        /* \"#utility.yul\":7760:7799   */\n      tag_194\n      jump\t// in\n    tag_324:\n        /* \"#utility.yul\":7815:7876   */\n      tag_325\n        /* \"#utility.yul\":7869:7875   */\n      dup2\n        /* \"#utility.yul\":7864:7867   */\n      dup6\n        /* \"#utility.yul\":7815:7876   */\n      tag_203\n      jump\t// in\n    tag_325:\n        /* \"#utility.yul\":7808:7876   */\n      swap4\n      pop\n        /* \"#utility.yul\":7885:7950   */\n      tag_326\n        /* \"#utility.yul\":7943:7949   */\n      dup2\n        /* \"#utility.yul\":7938:7941   */\n      dup6\n        /* \"#utility.yul\":7931:7935   */\n      0x20\n        /* \"#utility.yul\":7924:7929   */\n      dup7\n        /* \"#utility.yul\":7920:7936   */\n      add\n        /* \"#utility.yul\":7885:7950   */\n      tag_196\n      jump\t// in\n    tag_326:\n        /* \"#utility.yul\":7975:8004   */\n      tag_327\n        /* \"#utility.yul\":7997:8003   */\n      dup2\n        /* \"#utility.yul\":7975:8004   */\n      tag_178\n      jump\t// in\n    tag_327:\n        /* \"#utility.yul\":7970:7973   */\n      dup5\n        /* \"#utility.yul\":7966:8005   */\n      add\n        /* \"#utility.yul\":7959:8005   */\n      swap2\n      pop\n        /* \"#utility.yul\":7736:8011   */\n      pop\n        /* \"#utility.yul\":7654:8011   */\n      swap3\n      swap2\n      pop\n      pop\n      jump\t// out\n        /* \"#utility.yul\":8017:8213   */\n    tag_205:\n        /* \"#utility.yul\":8106:8116   */\n      0x00\n        /* \"#utility.yul\":8141:8207   */\n      tag_329\n        /* \"#utility.yul\":8203:8206   */\n      dup4\n        /* \"#utility.yul\":8195:8201   */\n      dup4\n        /* \"#utility.yul\":8141:8207   */\n      tag_204\n      jump\t// in\n    tag_329:\n        /* \"#utility.yul\":8127:8207   */\n      swap1\n      pop\n        /* \"#utility.yul\":8017:8213   */\n      swap3\n      swap2\n      pop\n      pop\n      jump\t// out\n        /* \"#utility.yul\":8219:8342   */\n    tag_206:\n        /* \"#utility.yul\":8299:8303   */\n      0x00\n        /* \"#utility.yul\":8331:8335   */\n      0x20\n        /* \"#utility.yul\":8326:8329   */\n      dup3\n        /* \"#utility.yul\":8322:8336   */\n      add\n        /* \"#utility.yul\":8314:8336   */\n      swap1\n      pop\n        /* \"#utility.yul\":8219:8342   */\n      swap2\n      swap1\n      pop\n      jump\t// out\n        /* \"#utility.yul\":8376:9367   */\n    tag_207:\n        /* \"#utility.yul\":8515:8518   */\n      0x00\n        /* \"#utility.yul\":8544:8608   */\n      tag_332\n        /* \"#utility.yul\":8602:8607   */\n      dup3\n        /* \"#utility.yul\":8544:8608   */\n      tag_200\n      jump\t// in\n    tag_332:\n        /* \"#utility.yul\":8624:8720   */\n      tag_333\n        /* \"#utility.yul\":8713:8719   */\n      dup2\n        /* \"#utility.yul\":8708:8711   */\n      dup6\n        /* \"#utility.yul\":8624:8720   */\n      tag_201\n      jump\t// in\n    tag_333:\n        /* \"#utility.yul\":8617:8720   */\n      swap4\n      pop\n        /* \"#utility.yul\":8746:8749   */\n      dup4\n        /* \"#utility.yul\":8791:8795   */\n      0x20\n        /* \"#utility.yul\":8783:8789   */\n      dup3\n        /* \"#utility.yul\":8779:8796   */\n      mul\n        /* \"#utility.yul\":8774:8777   */\n      dup6\n        /* \"#utility.yul\":8770:8797   */\n      add\n        /* \"#utility.yul\":8821:8887   */\n      tag_334\n        /* \"#utility.yul\":8881:8886   */\n      dup6\n        /* \"#utility.yul\":8821:8887   */\n      tag_202\n      jump\t// in\n    tag_334:\n        /* \"#utility.yul\":8910:8917   */\n      dup1\n        /* \"#utility.yul\":8941:8942   */\n      0x00\n        /* \"#utility.yul\":8926:9322   */\n    tag_335:\n        /* \"#utility.yul\":8951:8957   */\n      dup6\n        /* \"#utility.yul\":8948:8949   */\n      dup2\n        /* \"#utility.yul\":8945:8958   */\n      lt\n        /* \"#utility.yul\":8926:9322   */\n      iszero\n      tag_337\n      jumpi\n        /* \"#utility.yul\":9022:9031   */\n      dup5\n        /* \"#utility.yul\":9016:9020   */\n      dup5\n        /* \"#utility.yul\":9012:9032   */\n      sub\n        /* \"#utility.yul\":9007:9010   */\n      dup10\n        /* \"#utility.yul\":9000:9033   */\n      mstore\n        /* \"#utility.yul\":9073:9079   */\n      dup2\n        /* \"#utility.yul\":9067:9080   */\n      mload\n        /* \"#utility.yul\":9101:9185   */\n      tag_338\n        /* \"#utility.yul\":9180:9184   */\n      dup6\n        /* \"#utility.yul\":9165:9178   */\n      dup3\n        /* \"#utility.yul\":9101:9185   */\n      tag_205\n      jump\t// in\n    tag_338:\n        /* \"#utility.yul\":9093:9185   */\n      swap5\n      pop\n        /* \"#utility.yul\":9208:9278   */\n      tag_339\n        /* \"#utility.yul\":9271:9277   */\n      dup4\n        /* \"#utility.yul\":9208:9278   */\n      tag_206\n      jump\t// in\n    tag_339:\n        /* \"#utility.yul\":9198:9278   */\n      swap3\n      pop\n        /* \"#utility.yul\":9307:9311   */\n      0x20\n        /* \"#utility.yul\":9302:9305   */\n      dup11\n        /* \"#utility.yul\":9298:9312   */\n      add\n        /* \"#utility.yul\":9291:9312   */\n      swap10\n      pop\n        /* \"#utility.yul\":8986:9322   */\n      pop\n        /* \"#utility.yul\":8973:8974   */\n      0x01\n        /* \"#utility.yul\":8970:8971   */\n      dup2\n        /* \"#utility.yul\":8966:8975   */\n      add\n        /* \"#utility.yul\":8961:8975   */\n      swap1\n      pop\n        /* \"#utility.yul\":8926:9322   */\n      jump(tag_335)\n    tag_337:\n        /* \"#utility.yul\":8930:8944   */\n      pop\n        /* \"#utility.yul\":9338:9342   */\n      dup3\n        /* \"#utility.yul\":9331:9342   */\n      swap8\n      pop\n        /* \"#utility.yul\":9358:9361   */\n      dup8\n        /* \"#utility.yul\":9351:9361   */\n      swap6\n      pop\n        /* \"#utility.yul\":8520:9367   */\n      pop\n      pop\n      pop\n      pop\n      pop\n        /* \"#utility.yul\":8376:9367   */\n      swap3\n      swap2\n      pop\n      pop\n      jump\t// out\n        /* \"#utility.yul\":9373:9786   */\n    tag_44:\n        /* \"#utility.yul\":9536:9540   */\n      0x00\n        /* \"#utility.yul\":9574:9576   */\n      0x20\n        /* \"#utility.yul\":9563:9572   */\n      dup3\n        /* \"#utility.yul\":9559:9577   */\n      add\n        /* \"#utility.yul\":9551:9577   */\n      swap1\n      pop\n        /* \"#utility.yul\":9623:9632   */\n      dup2\n        /* \"#utility.yul\":9617:9621   */\n      dup2\n        /* \"#utility.yul\":9613:9633   */\n      sub\n        /* \"#utility.yul\":9609:9610   */\n      0x00\n        /* \"#utility.yul\":9598:9607   */\n      dup4\n        /* \"#utility.yul\":9594:9611   */\n      add\n        /* \"#utility.yul\":9587:9634   */\n      mstore\n        /* \"#utility.yul\":9651:9779   */\n      tag_341\n        /* \"#utility.yul\":9774:9778   */\n      dup2\n        /* \"#utility.yul\":9765:9771   */\n      dup5\n        /* \"#utility.yul\":9651:9779   */\n      tag_207\n      jump\t// in\n    tag_341:\n        /* \"#utility.yul\":9643:9779   */\n      swap1\n      pop\n        /* \"#utility.yul\":9373:9786   */\n      swap3\n      swap2\n      pop\n      pop\n      jump\t// out\n        /* \"#utility.yul\":9792:9930   */\n    tag_208:\n        /* \"#utility.yul\":9873:9905   */\n      tag_343\n        /* \"#utility.yul\":9899:9904   */\n      dup2\n        /* \"#utility.yul\":9873:9905   */\n      tag_192\n      jump\t// in\n    tag_343:\n        /* \"#utility.yul\":9866:9871   */\n      dup2\n        /* \"#utility.yul\":9863:9906   */\n      eq\n        /* \"#utility.yul\":9853:9924   */\n      tag_344\n      jumpi\n        /* \"#utility.yul\":9920:9921   */\n      0x00\n        /* \"#utility.yul\":9917:9918   */\n      dup1\n        /* \"#utility.yul\":9910:9922   */\n      revert\n        /* \"#utility.yul\":9853:9924   */\n    tag_344:\n        /* \"#utility.yul\":9792:9930   */\n      pop\n      jump\t// out\n        /* \"#utility.yul\":9936:10091   */\n    tag_209:\n        /* \"#utility.yul\":9990:9995   */\n      0x00\n        /* \"#utility.yul\":10028:10034   */\n      dup2\n        /* \"#utility.yul\":10015:10035   */\n      calldataload\n        /* \"#utility.yul\":10006:10035   */\n      swap1\n      pop\n        /* \"#utility.yul\":10044:10085   */\n      tag_346\n        /* \"#utility.yul\":10079:10084   */\n      dup2\n        /* \"#utility.yul\":10044:10085   */\n      tag_208\n      jump\t// in\n    tag_346:\n        /* \"#utility.yul\":9936:10091   */\n      swap3\n      swap2\n      pop\n      pop\n      jump\t// out\n        /* \"#utility.yul\":10097:11058   */\n    tag_48:\n        /* \"#utility.yul\":10201:10207   */\n      0x00\n        /* \"#utility.yul\":10209:10215   */\n      dup1\n        /* \"#utility.yul\":10217:10223   */\n      0x00\n        /* \"#utility.yul\":10225:10231   */\n      dup1\n        /* \"#utility.yul\":10274:10277   */\n      0x80\n        /* \"#utility.yul\":10262:10271   */\n      dup6\n        /* \"#utility.yul\":10253:10260   */\n      dup8\n        /* \"#utility.yul\":10249:10272   */\n      sub\n        /* \"#utility.yul\":10245:10278   */\n      slt\n        /* \"#utility.yul\":10242:10362   */\n      iszero\n      tag_348\n      jumpi\n        /* \"#utility.yul\":10281:10360   */\n      tag_349\n      tag_174\n      jump\t// in\n    tag_349:\n        /* \"#utility.yul\":10242:10362   */\n    tag_348:\n        /* \"#utility.yul\":10401:10402   */\n      0x00\n        /* \"#utility.yul\":10426:10487   */\n      tag_350\n        /* \"#utility.yul\":10479:10486   */\n      dup8\n        /* \"#utility.yul\":10470:10476   */\n      dup3\n        /* \"#utility.yul\":10459:10468   */\n      dup9\n        /* \"#utility.yul\":10455:10477   */\n      add\n        /* \"#utility.yul\":10426:10487   */\n      tag_209\n      jump\t// in\n    tag_350:\n        /* \"#utility.yul\":10416:10487   */\n      swap5\n      pop\n        /* \"#utility.yul\":10372:10497   */\n      pop\n        /* \"#utility.yul\":10564:10566   */\n      0x20\n        /* \"#utility.yul\":10553:10562   */\n      dup6\n        /* \"#utility.yul\":10549:10567   */\n      add\n        /* \"#utility.yul\":10536:10568   */\n      calldataload\n        /* \"#utility.yul\":10595:10613   */\n      0xffffffffffffffff\n        /* \"#utility.yul\":10587:10593   */\n      dup2\n        /* \"#utility.yul\":10584:10614   */\n      gt\n        /* \"#utility.yul\":10581:10698   */\n      iszero\n      tag_351\n      jumpi\n        /* \"#utility.yul\":10617:10696   */\n      tag_352\n      tag_175\n      jump\t// in\n    tag_352:\n        /* \"#utility.yul\":10581:10698   */\n    tag_351:\n        /* \"#utility.yul\":10722:10785   */\n      tag_353\n        /* \"#utility.yul\":10777:10784   */\n      dup8\n        /* \"#utility.yul\":10768:10774   */\n      dup3\n        /* \"#utility.yul\":10757:10766   */\n      dup9\n        /* \"#utility.yul\":10753:10775   */\n      add\n        /* \"#utility.yul\":10722:10785   */\n      tag_184\n      jump\t// in\n    tag_353:\n        /* \"#utility.yul\":10712:10785   */\n      swap4\n      pop\n        /* \"#utility.yul\":10507:10795   */\n      pop\n        /* \"#utility.yul\":10834:10836   */\n      0x40\n        /* \"#utility.yul\":10860:10913   */\n      tag_354\n        /* \"#utility.yul\":10905:10912   */\n      dup8\n        /* \"#utility.yul\":10896:10902   */\n      dup3\n        /* \"#utility.yul\":10885:10894   */\n      dup9\n        /* \"#utility.yul\":10881:10903   */\n      add\n        /* \"#utility.yul\":10860:10913   */\n      tag_188\n      jump\t// in\n    tag_354:\n        /* \"#utility.yul\":10850:10913   */\n      swap3\n      pop\n        /* \"#utility.yul\":10805:10923   */\n      pop\n        /* \"#utility.yul\":10962:10964   */\n      0x60\n        /* \"#utility.yul\":10988:11041   */\n      tag_355\n        /* \"#utility.yul\":11033:11040   */\n      dup8\n        /* \"#utility.yul\":11024:11030   */\n      dup3\n        /* \"#utility.yul\":11013:11022   */\n      dup9\n        /* \"#utility.yul\":11009:11031   */\n      add\n        /* \"#utility.yul\":10988:11041   */\n      tag_188\n      jump\t// in\n    tag_355:\n        /* \"#utility.yul\":10978:11041   */\n      swap2\n      pop\n        /* \"#utility.yul\":10933:11051   */\n      pop\n        /* \"#utility.yul\":10097:11058   */\n      swap3\n      swap6\n      swap2\n      swap5\n      pop\n      swap3\n      pop\n      jump\t// out\n        /* \"#utility.yul\":11064:11538   */\n    tag_55:\n        /* \"#utility.yul\":11229:11233   */\n      0x00\n        /* \"#utility.yul\":11267:11269   */\n      0x60\n        /* \"#utility.yul\":11256:11265   */\n      dup3\n        /* \"#utility.yul\":11252:11270   */\n      add\n        /* \"#utility.yul\":11244:11270   */\n      swap1\n      pop\n        /* \"#utility.yul\":11280:11367   */\n      tag_357\n        /* \"#utility.yul\":11364:11365   */\n      0x00\n        /* \"#utility.yul\":11353:11362   */\n      dup4\n        /* \"#utility.yul\":11349:11366   */\n      add\n        /* \"#utility.yul\":11340:11346   */\n      dup7\n        /* \"#utility.yul\":11280:11367   */\n      tag_193\n      jump\t// in\n    tag_357:\n        /* \"#utility.yul\":11377:11449   */\n      tag_358\n        /* \"#utility.yul\":11445:11447   */\n      0x20\n        /* \"#utility.yul\":11434:11443   */\n      dup4\n        /* \"#utility.yul\":11430:11448   */\n      add\n        /* \"#utility.yul\":11421:11427   */\n      dup6\n        /* \"#utility.yul\":11377:11449   */\n      tag_186\n      jump\t// in\n    tag_358:\n        /* \"#utility.yul\":11459:11531   */\n      tag_359\n        /* \"#utility.yul\":11527:11529   */\n      0x40\n        /* \"#utility.yul\":11516:11525   */\n      dup4\n        /* \"#utility.yul\":11512:11530   */\n      add\n        /* \"#utility.yul\":11503:11509   */\n      dup5\n        /* \"#utility.yul\":11459:11531   */\n      tag_186\n      jump\t// in\n    tag_359:\n        /* \"#utility.yul\":11064:11538   */\n      swap5\n      swap4\n      pop\n      pop\n      pop\n      pop\n      jump\t// out\n        /* \"#utility.yul\":11544:12198   */\n    tag_58:\n        /* \"#utility.yul\":11622:11628   */\n      0x00\n        /* \"#utility.yul\":11630:11636   */\n      dup1\n        /* \"#utility.yul\":11679:11681   */\n      0x40\n        /* \"#utility.yul\":11667:11676   */\n      dup4\n        /* \"#utility.yul\":11658:11665   */\n      dup6\n        /* \"#utility.yul\":11654:11677   */\n      sub\n        /* \"#utility.yul\":11650:11682   */\n      slt\n        /* \"#utility.yul\":11647:11766   */\n      iszero\n      tag_361\n      jumpi\n        /* \"#utility.yul\":11685:11764   */\n      tag_362\n      tag_174\n      jump\t// in\n    tag_362:\n        /* \"#utility.yul\":11647:11766   */\n    tag_361:\n        /* \"#utility.yul\":11833:11834   */\n      0x00\n        /* \"#utility.yul\":11822:11831   */\n      dup4\n        /* \"#utility.yul\":11818:11835   */\n      add\n        /* \"#utility.yul\":11805:11836   */\n      calldataload\n        /* \"#utility.yul\":11863:11881   */\n      0xffffffffffffffff\n        /* \"#utility.yul\":11855:11861   */\n      dup2\n        /* \"#utility.yul\":11852:11882   */\n      gt\n        /* \"#utility.yul\":11849:11966   */\n      iszero\n      tag_363\n      jumpi\n        /* \"#utility.yul\":11885:11964   */\n      tag_364\n      tag_175\n      jump\t// in\n    tag_364:\n        /* \"#utility.yul\":11849:11966   */\n    tag_363:\n        /* \"#utility.yul\":11990:12053   */\n      tag_365\n        /* \"#utility.yul\":12045:12052   */\n      dup6\n        /* \"#utility.yul\":12036:12042   */\n      dup3\n        /* \"#utility.yul\":12025:12034   */\n      dup7\n        /* \"#utility.yul\":12021:12043   */\n      add\n        /* \"#utility.yul\":11990:12053   */\n      tag_184\n      jump\t// in\n    tag_365:\n        /* \"#utility.yul\":11980:12053   */\n      swap3\n      pop\n        /* \"#utility.yul\":11776:12063   */\n      pop\n        /* \"#utility.yul\":12102:12104   */\n      0x20\n        /* \"#utility.yul\":12128:12181   */\n      tag_366\n        /* \"#utility.yul\":12173:12180   */\n      dup6\n        /* \"#utility.yul\":12164:12170   */\n      dup3\n        /* \"#utility.yul\":12153:12162   */\n      dup7\n        /* \"#utility.yul\":12149:12171   */\n      add\n        /* \"#utility.yul\":12128:12181   */\n      tag_188\n      jump\t// in\n    tag_366:\n        /* \"#utility.yul\":12118:12181   */\n      swap2\n      pop\n        /* \"#utility.yul\":12073:12191   */\n      pop\n        /* \"#utility.yul\":11544:12198   */\n      swap3\n      pop\n      swap3\n      swap1\n      pop\n      jump\t// out\n        /* \"#utility.yul\":12204:12737   */\n    tag_74:\n        /* \"#utility.yul\":12373:12377   */\n      0x00\n        /* \"#utility.yul\":12411:12413   */\n      0x60\n        /* \"#utility.yul\":12400:12409   */\n      dup3\n        /* \"#utility.yul\":12396:12414   */\n      add\n        /* \"#utility.yul\":12388:12414   */\n      swap1\n      pop\n        /* \"#utility.yul\":12460:12469   */\n      dup2\n        /* \"#utility.yul\":12454:12458   */\n      dup2\n        /* \"#utility.yul\":12450:12470   */\n      sub\n        /* \"#utility.yul\":12446:12447   */\n      0x00\n        /* \"#utility.yul\":12435:12444   */\n      dup4\n        /* \"#utility.yul\":12431:12448   */\n      add\n        /* \"#utility.yul\":12424:12471   */\n      mstore\n        /* \"#utility.yul\":12488:12566   */\n      tag_368\n        /* \"#utility.yul\":12561:12565   */\n      dup2\n        /* \"#utility.yul\":12552:12558   */\n      dup7\n        /* \"#utility.yul\":12488:12566   */\n      tag_197\n      jump\t// in\n    tag_368:\n        /* \"#utility.yul\":12480:12566   */\n      swap1\n      pop\n        /* \"#utility.yul\":12576:12648   */\n      tag_369\n        /* \"#utility.yul\":12644:12646   */\n      0x20\n        /* \"#utility.yul\":12633:12642   */\n      dup4\n        /* \"#utility.yul\":12629:12647   */\n      add\n        /* \"#utility.yul\":12620:12626   */\n      dup6\n        /* \"#utility.yul\":12576:12648   */\n      tag_191\n      jump\t// in\n    tag_369:\n        /* \"#utility.yul\":12658:12730   */\n      tag_370\n        /* \"#utility.yul\":12726:12728   */\n      0x40\n        /* \"#utility.yul\":12715:12724   */\n      dup4\n        /* \"#utility.yul\":12711:12729   */\n      add\n        /* \"#utility.yul\":12702:12708   */\n      dup5\n        /* \"#utility.yul\":12658:12730   */\n      tag_186\n      jump\t// in\n    tag_370:\n        /* \"#utility.yul\":12204:12737   */\n      swap5\n      swap4\n      pop\n      pop\n      pop\n      pop\n      jump\t// out\n        /* \"#utility.yul\":12743:12891   */\n    tag_210:\n        /* \"#utility.yul\":12845:12856   */\n      0x00\n        /* \"#utility.yul\":12882:12885   */\n      dup2\n        /* \"#utility.yul\":12867:12885   */\n      swap1\n      pop\n        /* \"#utility.yul\":12743:12891   */\n      swap3\n      swap2\n      pop\n      pop\n      jump\t// out\n        /* \"#utility.yul\":12897:13287   */\n    tag_211:\n        /* \"#utility.yul\":13003:13006   */\n      0x00\n        /* \"#utility.yul\":13031:13070   */\n      tag_373\n        /* \"#utility.yul\":13064:13069   */\n      dup3\n        /* \"#utility.yul\":13031:13070   */\n      tag_194\n      jump\t// in\n    tag_373:\n        /* \"#utility.yul\":13086:13175   */\n      tag_374\n        /* \"#utility.yul\":13168:13174   */\n      dup2\n        /* \"#utility.yul\":13163:13166   */\n      dup6\n        /* \"#utility.yul\":13086:13175   */\n      tag_210\n      jump\t// in\n    tag_374:\n        /* \"#utility.yul\":13079:13175   */\n      swap4\n      pop\n        /* \"#utility.yul\":13184:13249   */\n      tag_375\n        /* \"#utility.yul\":13242:13248   */\n      dup2\n        /* \"#utility.yul\":13237:13240   */\n      dup6\n        /* \"#utility.yul\":13230:13234   */\n      0x20\n        /* \"#utility.yul\":13223:13228   */\n      dup7\n        /* \"#utility.yul\":13219:13235   */\n      add\n        /* \"#utility.yul\":13184:13249   */\n      tag_196\n      jump\t// in\n    tag_375:\n        /* \"#utility.yul\":13274:13280   */\n      dup1\n        /* \"#utility.yul\":13269:13272   */\n      dup5\n        /* \"#utility.yul\":13265:13281   */\n      add\n        /* \"#utility.yul\":13258:13281   */\n      swap2\n      pop\n        /* \"#utility.yul\":13007:13287   */\n      pop\n        /* \"#utility.yul\":12897:13287   */\n      swap3\n      swap2\n      pop\n      pop\n      jump\t// out\n        /* \"#utility.yul\":13293:13568   */\n    tag_82:\n        /* \"#utility.yul\":13425:13428   */\n      0x00\n        /* \"#utility.yul\":13447:13542   */\n      tag_377\n        /* \"#utility.yul\":13538:13541   */\n      dup3\n        /* \"#utility.yul\":13529:13535   */\n      dup5\n        /* \"#utility.yul\":13447:13542   */\n      tag_211\n      jump\t// in\n    tag_377:\n        /* \"#utility.yul\":13440:13542   */\n      swap2\n      pop\n        /* \"#utility.yul\":13559:13562   */\n      dup2\n        /* \"#utility.yul\":13552:13562   */\n      swap1\n      pop\n        /* \"#utility.yul\":13293:13568   */\n      swap3\n      swap2\n      pop\n      pop\n      jump\t// out\n        /* \"#utility.yul\":13574:13754   */\n    tag_212:\n        /* \"#utility.yul\":13622:13699   */\n      0x4e487b7100000000000000000000000000000000000000000000000000000000\n        /* \"#utility.yul\":13619:13620   */\n      0x00\n        /* \"#utility.yul\":13612:13700   */\n      mstore\n        /* \"#utility.yul\":13719:13723   */\n      0x22\n        /* \"#utility.yul\":13716:13717   */\n      0x04\n        /* \"#utility.yul\":13709:13724   */\n      mstore\n        /* \"#utility.yul\":13743:13747   */\n      0x24\n        /* \"#utility.yul\":13740:13741   */\n      0x00\n        /* \"#utility.yul\":13733:13748   */\n      revert\n        /* \"#utility.yul\":13760:14080   */\n    tag_90:\n        /* \"#utility.yul\":13804:13810   */\n      0x00\n        /* \"#utility.yul\":13841:13842   */\n      0x02\n        /* \"#utility.yul\":13835:13839   */\n      dup3\n        /* \"#utility.yul\":13831:13843   */\n      div\n        /* \"#utility.yul\":13821:13843   */\n      swap1\n      pop\n        /* \"#utility.yul\":13888:13889   */\n      0x01\n        /* \"#utility.yul\":13882:13886   */\n      dup3\n        /* \"#utility.yul\":13878:13890   */\n      and\n        /* \"#utility.yul\":13909:13927   */\n      dup1\n        /* \"#utility.yul\":13899:13980   */\n      tag_380\n      jumpi\n        /* \"#utility.yul\":13965:13969   */\n      0x7f\n        /* \"#utility.yul\":13957:13963   */\n      dup3\n        /* \"#utility.yul\":13953:13970   */\n      and\n        /* \"#utility.yul\":13943:13970   */\n      swap2\n      pop\n        /* \"#utility.yul\":13899:13980   */\n    tag_380:\n        /* \"#utility.yul\":14027:14029   */\n      0x20\n        /* \"#utility.yul\":14019:14025   */\n      dup3\n        /* \"#utility.yul\":14016:14030   */\n      lt\n        /* \"#utility.yul\":13996:14014   */\n      dup2\n        /* \"#utility.yul\":13993:14031   */\n      sub\n        /* \"#utility.yul\":13990:14074   */\n      tag_381\n      jumpi\n        /* \"#utility.yul\":14046:14064   */\n      tag_382\n      tag_212\n      jump\t// in\n    tag_382:\n        /* \"#utility.yul\":13990:14074   */\n    tag_381:\n        /* \"#utility.yul\":13811:14080   */\n      pop\n        /* \"#utility.yul\":13760:14080   */\n      swap2\n      swap1\n      pop\n      jump\t// out\n        /* \"#utility.yul\":14086:14266   */\n    tag_106:\n        /* \"#utility.yul\":14134:14211   */\n      0x4e487b7100000000000000000000000000000000000000000000000000000000\n        /* \"#utility.yul\":14131:14132   */\n      0x00\n        /* \"#utility.yul\":14124:14212   */\n      mstore\n        /* \"#utility.yul\":14231:14235   */\n      0x32\n        /* \"#utility.yul\":14228:14229   */\n      0x04\n        /* \"#utility.yul\":14221:14236   */\n      mstore\n        /* \"#utility.yul\":14255:14259   */\n      0x24\n        /* \"#utility.yul\":14252:14253   */\n      0x00\n        /* \"#utility.yul\":14245:14260   */\n      revert\n        /* \"#utility.yul\":14272:14452   */\n    tag_213:\n        /* \"#utility.yul\":14412:14444   */\n      0x47757920796f75206e6f2066697420637265617465206e616d65206e69690000\n        /* \"#utility.yul\":14408:14409   */\n      0x00\n        /* \"#utility.yul\":14400:14406   */\n      dup3\n        /* \"#utility.yul\":14396:14410   */\n      add\n        /* \"#utility.yul\":14389:14445   */\n      mstore\n        /* \"#utility.yul\":14272:14452   */\n      pop\n      jump\t// out\n        /* \"#utility.yul\":14458:14824   */\n    tag_214:\n        /* \"#utility.yul\":14600:14603   */\n      0x00\n        /* \"#utility.yul\":14621:14688   */\n      tag_386\n        /* \"#utility.yul\":14685:14687   */\n      0x1e\n        /* \"#utility.yul\":14680:14683   */\n      dup4\n        /* \"#utility.yul\":14621:14688   */\n      tag_195\n      jump\t// in\n    tag_386:\n        /* \"#utility.yul\":14614:14688   */\n      swap2\n      pop\n        /* \"#utility.yul\":14697:14790   */\n      tag_387\n        /* \"#utility.yul\":14786:14789   */\n      dup3\n        /* \"#utility.yul\":14697:14790   */\n      tag_213\n      jump\t// in\n    tag_387:\n        /* \"#utility.yul\":14815:14817   */\n      0x20\n        /* \"#utility.yul\":14810:14813   */\n      dup3\n        /* \"#utility.yul\":14806:14818   */\n      add\n        /* \"#utility.yul\":14799:14818   */\n      swap1\n      pop\n        /* \"#utility.yul\":14458:14824   */\n      swap2\n      swap1\n      pop\n      jump\t// out\n        /* \"#utility.yul\":14830:15249   */\n    tag_120:\n        /* \"#utility.yul\":14996:15000   */\n      0x00\n        /* \"#utility.yul\":15034:15036   */\n      0x20\n        /* \"#utility.yul\":15023:15032   */\n      dup3\n        /* \"#utility.yul\":15019:15037   */\n      add\n        /* \"#utility.yul\":15011:15037   */\n      swap1\n      pop\n        /* \"#utility.yul\":15083:15092   */\n      dup2\n        /* \"#utility.yul\":15077:15081   */\n      dup2\n        /* \"#utility.yul\":15073:15093   */\n      sub\n        /* \"#utility.yul\":15069:15070   */\n      0x00\n        /* \"#utility.yul\":15058:15067   */\n      dup4\n        /* \"#utility.yul\":15054:15071   */\n      add\n        /* \"#utility.yul\":15047:15094   */\n      mstore\n        /* \"#utility.yul\":15111:15242   */\n      tag_389\n        /* \"#utility.yul\":15237:15241   */\n      dup2\n        /* \"#utility.yul\":15111:15242   */\n      tag_214\n      jump\t// in\n    tag_389:\n        /* \"#utility.yul\":15103:15242   */\n      swap1\n      pop\n        /* \"#utility.yul\":14830:15249   */\n      swap2\n      swap1\n      pop\n      jump\t// out\n        /* \"#utility.yul\":15255:15431   */\n    tag_215:\n        /* \"#utility.yul\":15395:15423   */\n      0x5768696368206b696e6420616464726573732062652074686973000000000000\n        /* \"#utility.yul\":15391:15392   */\n      0x00\n        /* \"#utility.yul\":15383:15389   */\n      dup3\n        /* \"#utility.yul\":15379:15393   */\n      add\n        /* \"#utility.yul\":15372:15424   */\n      mstore\n        /* \"#utility.yul\":15255:15431   */\n      pop\n      jump\t// out\n        /* \"#utility.yul\":15437:15803   */\n    tag_216:\n        /* \"#utility.yul\":15579:15582   */\n      0x00\n        /* \"#utility.yul\":15600:15667   */\n      tag_392\n        /* \"#utility.yul\":15664:15666   */\n      0x1a\n        /* \"#utility.yul\":15659:15662   */\n      dup4\n        /* \"#utility.yul\":15600:15667   */\n      tag_195\n      jump\t// in\n    tag_392:\n        /* \"#utility.yul\":15593:15667   */\n      swap2\n      pop\n        /* \"#utility.yul\":15676:15769   */\n      tag_393\n        /* \"#utility.yul\":15765:15768   */\n      dup3\n        /* \"#utility.yul\":15676:15769   */\n      tag_215\n      jump\t// in\n    tag_393:\n        /* \"#utility.yul\":15794:15796   */\n      0x20\n        /* \"#utility.yul\":15789:15792   */\n      dup3\n        /* \"#utility.yul\":15785:15797   */\n      add\n        /* \"#utility.yul\":15778:15797   */\n      swap1\n      pop\n        /* \"#utility.yul\":15437:15803   */\n      swap2\n      swap1\n      pop\n      jump\t// out\n        /* \"#utility.yul\":15809:16228   */\n    tag_123:\n        /* \"#utility.yul\":15975:15979   */\n      0x00\n        /* \"#utility.yul\":16013:16015   */\n      0x20\n        /* \"#utility.yul\":16002:16011   */\n      dup3\n        /* \"#utility.yul\":15998:16016   */\n      add\n        /* \"#utility.yul\":15990:16016   */\n      swap1\n      pop\n        /* \"#utility.yul\":16062:16071   */\n      dup2\n        /* \"#utility.yul\":16056:16060   */\n      dup2\n        /* \"#utility.yul\":16052:16072   */\n      sub\n        /* \"#utility.yul\":16048:16049   */\n      0x00\n        /* \"#utility.yul\":16037:16046   */\n      dup4\n        /* \"#utility.yul\":16033:16050   */\n      add\n        /* \"#utility.yul\":16026:16073   */\n      mstore\n        /* \"#utility.yul\":16090:16221   */\n      tag_395\n        /* \"#utility.yul\":16216:16220   */\n      dup2\n        /* \"#utility.yul\":16090:16221   */\n      tag_216\n      jump\t// in\n    tag_395:\n        /* \"#utility.yul\":16082:16221   */\n      swap1\n      pop\n        /* \"#utility.yul\":15809:16228   */\n      swap2\n      swap1\n      pop\n      jump\t// out\n        /* \"#utility.yul\":16234:16409   */\n    tag_217:\n        /* \"#utility.yul\":16374:16401   */\n      0x596f75722063616d706169676e206e6f20676574206e616d6500000000000000\n        /* \"#utility.yul\":16370:16371   */\n      0x00\n        /* \"#utility.yul\":16362:16368   */\n      dup3\n        /* \"#utility.yul\":16358:16372   */\n      add\n        /* \"#utility.yul\":16351:16402   */\n      mstore\n        /* \"#utility.yul\":16234:16409   */\n      pop\n      jump\t// out\n        /* \"#utility.yul\":16415:16781   */\n    tag_218:\n        /* \"#utility.yul\":16557:16560   */\n      0x00\n        /* \"#utility.yul\":16578:16645   */\n      tag_398\n        /* \"#utility.yul\":16642:16644   */\n      0x19\n        /* \"#utility.yul\":16637:16640   */\n      dup4\n        /* \"#utility.yul\":16578:16645   */\n      tag_195\n      jump\t// in\n    tag_398:\n        /* \"#utility.yul\":16571:16645   */\n      swap2\n      pop\n        /* \"#utility.yul\":16654:16747   */\n      tag_399\n        /* \"#utility.yul\":16743:16746   */\n      dup3\n        /* \"#utility.yul\":16654:16747   */\n      tag_217\n      jump\t// in\n    tag_399:\n        /* \"#utility.yul\":16772:16774   */\n      0x20\n        /* \"#utility.yul\":16767:16770   */\n      dup3\n        /* \"#utility.yul\":16763:16775   */\n      add\n        /* \"#utility.yul\":16756:16775   */\n      swap1\n      pop\n        /* \"#utility.yul\":16415:16781   */\n      swap2\n      swap1\n      pop\n      jump\t// out\n        /* \"#utility.yul\":16787:17206   */\n    tag_126:\n        /* \"#utility.yul\":16953:16957   */\n      0x00\n        /* \"#utility.yul\":16991:16993   */\n      0x20\n        /* \"#utility.yul\":16980:16989   */\n      dup3\n        /* \"#utility.yul\":16976:16994   */\n      add\n        /* \"#utility.yul\":16968:16994   */\n      swap1\n      pop\n        /* \"#utility.yul\":17040:17049   */\n      dup2\n        /* \"#utility.yul\":17034:17038   */\n      dup2\n        /* \"#utility.yul\":17030:17050   */\n      sub\n        /* \"#utility.yul\":17026:17027   */\n      0x00\n        /* \"#utility.yul\":17015:17024   */\n      dup4\n        /* \"#utility.yul\":17011:17028   */\n      add\n        /* \"#utility.yul\":17004:17051   */\n      mstore\n        /* \"#utility.yul\":17068:17199   */\n      tag_401\n        /* \"#utility.yul\":17194:17198   */\n      dup2\n        /* \"#utility.yul\":17068:17199   */\n      tag_218\n      jump\t// in\n    tag_401:\n        /* \"#utility.yul\":17060:17199   */\n      swap1\n      pop\n        /* \"#utility.yul\":16787:17206   */\n      swap2\n      swap1\n      pop\n      jump\t// out\n        /* \"#utility.yul\":17212:17388   */\n    tag_219:\n        /* \"#utility.yul\":17352:17380   */\n      0x42727568682063616e20796f75206e6f7420646f20746861743f000000000000\n        /* \"#utility.yul\":17348:17349   */\n      0x00\n        /* \"#utility.yul\":17340:17346   */\n      dup3\n        /* \"#utility.yul\":17336:17350   */\n      add\n        /* \"#utility.yul\":17329:17381   */\n      mstore\n        /* \"#utility.yul\":17212:17388   */\n      pop\n      jump\t// out\n        /* \"#utility.yul\":17394:17760   */\n    tag_220:\n        /* \"#utility.yul\":17536:17539   */\n      0x00\n        /* \"#utility.yul\":17557:17624   */\n      tag_404\n        /* \"#utility.yul\":17621:17623   */\n      0x1a\n        /* \"#utility.yul\":17616:17619   */\n      dup4\n        /* \"#utility.yul\":17557:17624   */\n      tag_195\n      jump\t// in\n    tag_404:\n        /* \"#utility.yul\":17550:17624   */\n      swap2\n      pop\n        /* \"#utility.yul\":17633:17726   */\n      tag_405\n        /* \"#utility.yul\":17722:17725   */\n      dup3\n        /* \"#utility.yul\":17633:17726   */\n      tag_219\n      jump\t// in\n    tag_405:\n        /* \"#utility.yul\":17751:17753   */\n      0x20\n        /* \"#utility.yul\":17746:17749   */\n      dup3\n        /* \"#utility.yul\":17742:17754   */\n      add\n        /* \"#utility.yul\":17735:17754   */\n      swap1\n      pop\n        /* \"#utility.yul\":17394:17760   */\n      swap2\n      swap1\n      pop\n      jump\t// out\n        /* \"#utility.yul\":17766:18185   */\n    tag_129:\n        /* \"#utility.yul\":17932:17936   */\n      0x00\n        /* \"#utility.yul\":17970:17972   */\n      0x20\n        /* \"#utility.yul\":17959:17968   */\n      dup3\n        /* \"#utility.yul\":17955:17973   */\n      add\n        /* \"#utility.yul\":17947:17973   */\n      swap1\n      pop\n        /* \"#utility.yul\":18019:18028   */\n      dup2\n        /* \"#utility.yul\":18013:18017   */\n      dup2\n        /* \"#utility.yul\":18009:18029   */\n      sub\n        /* \"#utility.yul\":18005:18006   */\n      0x00\n        /* \"#utility.yul\":17994:18003   */\n      dup4\n        /* \"#utility.yul\":17990:18007   */\n      add\n        /* \"#utility.yul\":17983:18030   */\n      mstore\n        /* \"#utility.yul\":18047:18178   */\n      tag_407\n        /* \"#utility.yul\":18173:18177   */\n      dup2\n        /* \"#utility.yul\":18047:18178   */\n      tag_220\n      jump\t// in\n    tag_407:\n        /* \"#utility.yul\":18039:18178   */\n      swap1\n      pop\n        /* \"#utility.yul\":17766:18185   */\n      swap2\n      swap1\n      pop\n      jump\t// out\n        /* \"#utility.yul\":18191:18332   */\n    tag_221:\n        /* \"#utility.yul\":18240:18244   */\n      0x00\n        /* \"#utility.yul\":18263:18266   */\n      dup2\n        /* \"#utility.yul\":18255:18266   */\n      swap1\n      pop\n        /* \"#utility.yul\":18286:18289   */\n      dup2\n        /* \"#utility.yul\":18283:18284   */\n      0x00\n        /* \"#utility.yul\":18276:18290   */\n      mstore\n        /* \"#utility.yul\":18320:18324   */\n      0x20\n        /* \"#utility.yul\":18317:18318   */\n      0x00\n        /* \"#utility.yul\":18307:18325   */\n      keccak256\n        /* \"#utility.yul\":18299:18325   */\n      swap1\n      pop\n        /* \"#utility.yul\":18191:18332   */\n      swap2\n      swap1\n      pop\n      jump\t// out\n        /* \"#utility.yul\":18338:18431   */\n    tag_222:\n        /* \"#utility.yul\":18375:18381   */\n      0x00\n        /* \"#utility.yul\":18422:18424   */\n      0x20\n        /* \"#utility.yul\":18417:18419   */\n      0x1f\n        /* \"#utility.yul\":18410:18415   */\n      dup4\n        /* \"#utility.yul\":18406:18420   */\n      add\n        /* \"#utility.yul\":18402:18425   */\n      div\n        /* \"#utility.yul\":18392:18425   */\n      swap1\n      pop\n        /* \"#utility.yul\":18338:18431   */\n      swap2\n      swap1\n      pop\n      jump\t// out\n        /* \"#utility.yul\":18437:18544   */\n    tag_223:\n        /* \"#utility.yul\":18481:18489   */\n      0x00\n        /* \"#utility.yul\":18531:18536   */\n      dup3\n        /* \"#utility.yul\":18525:18529   */\n      dup3\n        /* \"#utility.yul\":18521:18537   */\n      shl\n        /* \"#utility.yul\":18500:18537   */\n      swap1\n      pop\n        /* \"#utility.yul\":18437:18544   */\n      swap3\n      swap2\n      pop\n      pop\n      jump\t// out\n        /* \"#utility.yul\":18550:18943   */\n    tag_224:\n        /* \"#utility.yul\":18619:18625   */\n      0x00\n        /* \"#utility.yul\":18669:18670   */\n      0x08\n        /* \"#utility.yul\":18657:18667   */\n      dup4\n        /* \"#utility.yul\":18653:18671   */\n      mul\n        /* \"#utility.yul\":18692:18789   */\n      tag_412\n        /* \"#utility.yul\":18722:18788   */\n      0xffffffffffffffffffffffffffffffffffffffffffffffffffffffffffffffff\n        /* \"#utility.yul\":18711:18720   */\n      dup3\n        /* \"#utility.yul\":18692:18789   */\n      tag_223\n      jump\t// in\n    tag_412:\n        /* \"#utility.yul\":18810:18849   */\n      tag_413\n        /* \"#utility.yul\":18840:18848   */\n      dup7\n        /* \"#utility.yul\":18829:18838   */\n      dup4\n        /* \"#utility.yul\":18810:18849   */\n      tag_223\n      jump\t// in\n    tag_413:\n        /* \"#utility.yul\":18798:18849   */\n      swap6\n      pop\n        /* \"#utility.yul\":18882:18886   */\n      dup1\n        /* \"#utility.yul\":18878:18887   */\n      not\n        /* \"#utility.yul\":18871:18876   */\n      dup5\n        /* \"#utility.yul\":18867:18888   */\n      and\n        /* \"#utility.yul\":18858:18888   */\n      swap4\n      pop\n        /* \"#utility.yul\":18931:18935   */\n      dup1\n        /* \"#utility.yul\":18921:18929   */\n      dup7\n        /* \"#utility.yul\":18917:18936   */\n      and\n        /* \"#utility.yul\":18910:18915   */\n      dup5\n        /* \"#utility.yul\":18907:18937   */\n      or\n        /* \"#utility.yul\":18897:18937   */\n      swap3\n      pop\n        /* \"#utility.yul\":18626:18943   */\n      pop\n      pop\n        /* \"#utility.yul\":18550:18943   */\n      swap4\n      swap3\n      pop\n      pop\n      pop\n      jump\t// out\n        /* \"#utility.yul\":18949:19009   */\n    tag_225:\n        /* \"#utility.yul\":18977:18980   */\n      0x00\n        /* \"#utility.yul\":18998:19003   */\n      dup2\n        /* \"#utility.yul\":18991:19003   */\n      swap1\n      pop\n        /* \"#utility.yul\":18949:19009   */\n      swap2\n      swap1\n      pop\n      jump\t// out\n        /* \"#utility.yul\":19015:19157   */\n    tag_226:\n        /* \"#utility.yul\":19065:19074   */\n      0x00\n        /* \"#utility.yul\":19098:19151   */\n      tag_416\n        /* \"#utility.yul\":19116:19150   */\n      tag_417\n        /* \"#utility.yul\":19125:19149   */\n      tag_418\n        /* \"#utility.yul\":19143:19148   */\n      dup5\n        /* \"#utility.yul\":19125:19149   */\n      tag_185\n      jump\t// in\n    tag_418:\n        /* \"#utility.yul\":19116:19150   */\n      tag_225\n      jump\t// in\n    tag_417:\n        /* \"#utility.yul\":19098:19151   */\n      tag_185\n      jump\t// in\n    tag_416:\n        /* \"#utility.yul\":19085:19151   */\n      swap1\n      pop\n        /* \"#utility.yul\":19015:19157   */\n      swap2\n      swap1\n      pop\n      jump\t// out\n        /* \"#utility.yul\":19163:19238   */\n    tag_227:\n        /* \"#utility.yul\":19206:19209   */\n      0x00\n        /* \"#utility.yul\":19227:19232   */\n      dup2\n        /* \"#utility.yul\":19220:19232   */\n      swap1\n      pop\n        /* \"#utility.yul\":19163:19238   */\n      swap2\n      swap1\n      pop\n      jump\t// out\n        /* \"#utility.yul\":19244:19513   */\n    tag_228:\n        /* \"#utility.yul\":19354:19393   */\n      tag_421\n        /* \"#utility.yul\":19385:19392   */\n      dup4\n        /* \"#utility.yul\":19354:19393   */\n      tag_226\n      jump\t// in\n    tag_421:\n        /* \"#utility.yul\":19415:19506   */\n      tag_422\n        /* \"#utility.yul\":19464:19505   */\n      tag_423\n        /* \"#utility.yul\":19488:19504   */\n      dup3\n        /* \"#utility.yul\":19464:19505   */\n      tag_227\n      jump\t// in\n    tag_423:\n        /* \"#utility.yul\":19456:19462   */\n      dup5\n        /* \"#utility.yul\":19449:19453   */\n      dup5\n        /* \"#utility.yul\":19443:19454   */\n      sload\n        /* \"#utility.yul\":19415:19506   */\n      tag_224\n      jump\t// in\n    tag_422:\n        /* \"#utility.yul\":19409:19413   */\n      dup3\n        /* \"#utility.yul\":19402:19507   */\n      sstore\n        /* \"#utility.yul\":19320:19513   */\n      pop\n        /* \"#utility.yul\":19244:19513   */\n      pop\n      pop\n      pop\n      jump\t// out\n        /* \"#utility.yul\":19519:19592   */\n    tag_229:\n        /* \"#utility.yul\":19564:19567   */\n      0x00\n        /* \"#utility.yul\":19519:19592   */\n      swap1\n      jump\t// out\n        /* \"#utility.yul\":19598:19787   */\n    tag_230:\n        /* \"#utility.yul\":19675:19707   */\n      tag_426\n      tag_229\n      jump\t// in\n    tag_426:\n        /* \"#utility.yul\":19716:19781   */\n      tag_427\n        /* \"#utility.yul\":19774:19780   */\n      dup2\n        /* \"#utility.yul\":19766:19772   */\n      dup5\n        /* \"#utility.yul\":19760:19764   */\n      dup5\n        /* \"#utility.yul\":19716:19781   */\n      tag_228\n      jump\t// in\n    tag_427:\n        /* \"#utility.yul\":19651:19787   */\n      pop\n        /* \"#utility.yul\":19598:19787   */\n      pop\n      pop\n      jump\t// out\n        /* \"#utility.yul\":19793:19979   */\n    tag_231:\n        /* \"#utility.yul\":19853:19973   */\n    tag_429:\n        /* \"#utility.yul\":19870:19873   */\n      dup2\n        /* \"#utility.yul\":19863:19868   */\n      dup2\n        /* \"#utility.yul\":19860:19874   */\n      lt\n        /* \"#utility.yul\":19853:19973   */\n      iszero\n      tag_431\n      jumpi\n        /* \"#utility.yul\":19924:19963   */\n      tag_432\n        /* \"#utility.yul\":19961:19962   */\n      0x00\n        /* \"#utility.yul\":19954:19959   */\n      dup3\n        /* \"#utility.yul\":19924:19963   */\n      tag_230\n      jump\t// in\n    tag_432:\n        /* \"#utility.yul\":19897:19898   */\n      0x01\n        /* \"#utility.yul\":19890:19895   */\n      dup2\n        /* \"#utility.yul\":19886:19899   */\n      add\n        /* \"#utility.yul\":19877:19899   */\n      swap1\n      pop\n        /* \"#utility.yul\":19853:19973   */\n      jump(tag_429)\n    tag_431:\n        /* \"#utility.yul\":19793:19979   */\n      pop\n      pop\n      jump\t// out\n        /* \"#utility.yul\":19985:20528   */\n    tag_232:\n        /* \"#utility.yul\":20086:20088   */\n      0x1f\n        /* \"#utility.yul\":20081:20084   */\n      dup3\n        /* \"#utility.yul\":20078:20089   */\n      gt\n        /* \"#utility.yul\":20075:20521   */\n      iszero\n      tag_434\n      jumpi\n        /* \"#utility.yul\":20120:20158   */\n      tag_435\n        /* \"#utility.yul\":20152:20157   */\n      dup2\n        /* \"#utility.yul\":20120:20158   */\n      tag_221\n      jump\t// in\n    tag_435:\n        /* \"#utility.yul\":20204:20233   */\n      tag_436\n        /* \"#utility.yul\":20222:20232   */\n      dup5\n        /* \"#utility.yul\":20204:20233   */\n      tag_222\n      jump\t// in\n    tag_436:\n        /* \"#utility.yul\":20194:20202   */\n      dup2\n        /* \"#utility.yul\":20190:20234   */\n      add\n        /* \"#utility.yul\":20387:20389   */\n      0x20\n        /* \"#utility.yul\":20375:20385   */\n      dup6\n        /* \"#utility.yul\":20372:20390   */\n      lt\n        /* \"#utility.yul\":20369:20418   */\n      iszero\n      tag_437\n      jumpi\n        /* \"#utility.yul\":20408:20416   */\n      dup2\n        /* \"#utility.yul\":20393:20416   */\n      swap1\n      pop\n        /* \"#utility.yul\":20369:20418   */\n    tag_437:\n        /* \"#utility.yul\":20431:20511   */\n      tag_438\n        /* \"#utility.yul\":20487:20509   */\n      tag_439\n        /* \"#utility.yul\":20505:20508   */\n      dup6\n        /* \"#utility.yul\":20487:20509   */\n      tag_222\n      jump\t// in\n    tag_439:\n        /* \"#utility.yul\":20477:20485   */\n      dup4\n        /* \"#utility.yul\":20473:20510   */\n      add\n        /* \"#utility.yul\":20460:20471   */\n      dup3\n        /* \"#utility.yul\":20431:20511   */\n      tag_231\n      jump\t// in\n    tag_438:\n        /* \"#utility.yul\":20090:20521   */\n      pop\n      pop\n        /* \"#utility.yul\":20075:20521   */\n    tag_434:\n        /* \"#utility.yul\":19985:20528   */\n      pop\n      pop\n      pop\n      jump\t// out\n        /* \"#utility.yul\":20534:20651   */\n    tag_233:\n        /* \"#utility.yul\":20588:20596   */\n      0x00\n        /* \"#utility.yul\":20638:20643   */\n      dup3\n        /* \"#utility.yul\":20632:20636   */\n      dup3\n        /* \"#utility.yul\":20628:20644   */\n      shr\n        /* \"#utility.yul\":20607:20644   */\n      swap1\n      pop\n        /* \"#utility.yul\":20534:20651   */\n      swap3\n      swap2\n      pop\n      pop\n      jump\t// out\n        /* \"#utility.yul\":20657:20826   */\n    tag_234:\n        /* \"#utility.yul\":20701:20707   */\n      0x00\n        /* \"#utility.yul\":20734:20785   */\n      tag_442\n        /* \"#utility.yul\":20782:20783   */\n      0x00\n        /* \"#utility.yul\":20778:20784   */\n      not\n        /* \"#utility.yul\":20770:20775   */\n      dup5\n        /* \"#utility.yul\":20767:20768   */\n      0x08\n        /* \"#utility.yul\":20763:20776   */\n      mul\n        /* \"#utility.yul\":20734:20785   */\n      tag_233\n      jump\t// in\n    tag_442:\n        /* \"#utility.yul\":20730:20786   */\n      not\n        /* \"#utility.yul\":20815:20819   */\n      dup1\n        /* \"#utility.yul\":20809:20813   */\n      dup4\n        /* \"#utility.yul\":20805:20820   */\n      and\n        /* \"#utility.yul\":20795:20820   */\n      swap2\n      pop\n        /* \"#utility.yul\":20708:20826   */\n      pop\n        /* \"#utility.yul\":20657:20826   */\n      swap3\n      swap2\n      pop\n      pop\n      jump\t// out\n        /* \"#utility.yul\":20831:21126   */\n    tag_235:\n        /* \"#utility.yul\":20907:20911   */\n      0x00\n        /* \"#utility.yul\":21053:21082   */\n      tag_444\n        /* \"#utility.yul\":21078:21081   */\n      dup4\n        /* \"#utility.yul\":21072:21076   */\n      dup4\n        /* \"#utility.yul\":21053:21082   */\n      tag_234\n      jump\t// in\n    tag_444:\n        /* \"#utility.yul\":21045:21082   */\n      swap2\n      pop\n        /* \"#utility.yul\":21115:21118   */\n      dup3\n        /* \"#utility.yul\":21112:21113   */\n      0x02\n        /* \"#utility.yul\":21108:21119   */\n      mul\n        /* \"#utility.yul\":21102:21106   */\n      dup3\n        /* \"#utility.yul\":21099:21120   */\n      or\n        /* \"#utility.yul\":21091:21120   */\n      swap1\n      pop\n        /* \"#utility.yul\":20831:21126   */\n      swap3\n      swap2\n      pop\n      pop\n      jump\t// out\n        /* \"#utility.yul\":21131:22526   */\n    tag_132:\n        /* \"#utility.yul\":21248:21285   */\n      tag_446\n        /* \"#utility.yul\":21281:21284   */\n      dup3\n        /* \"#utility.yul\":21248:21285   */\n      tag_194\n      jump\t// in\n    tag_446:\n        /* \"#utility.yul\":21350:21368   */\n      0xffffffffffffffff\n        /* \"#utility.yul\":21342:21348   */\n      dup2\n        /* \"#utility.yul\":21339:21369   */\n      gt\n        /* \"#utility.yul\":21336:21392   */\n      iszero\n      tag_447\n      jumpi\n        /* \"#utility.yul\":21372:21390   */\n      tag_448\n      tag_98\n      jump\t// in\n    tag_448:\n        /* \"#utility.yul\":21336:21392   */\n    tag_447:\n        /* \"#utility.yul\":21416:21454   */\n      tag_449\n        /* \"#utility.yul\":21448:21452   */\n      dup3\n        /* \"#utility.yul\":21442:21453   */\n      sload\n        /* \"#utility.yul\":21416:21454   */\n      tag_90\n      jump\t// in\n    tag_449:\n        /* \"#utility.yul\":21501:21568   */\n      tag_450\n        /* \"#utility.yul\":21561:21567   */\n      dup3\n        /* \"#utility.yul\":21553:21559   */\n      dup3\n        /* \"#utility.yul\":21547:21551   */\n      dup6\n        /* \"#utility.yul\":21501:21568   */\n      tag_232\n      jump\t// in\n    tag_450:\n        /* \"#utility.yul\":21595:21596   */\n      0x00\n        /* \"#utility.yul\":21619:21623   */\n      0x20\n        /* \"#utility.yul\":21606:21623   */\n      swap1\n      pop\n        /* \"#utility.yul\":21651:21653   */\n      0x1f\n        /* \"#utility.yul\":21643:21649   */\n      dup4\n        /* \"#utility.yul\":21640:21654   */\n      gt\n        /* \"#utility.yul\":21668:21669   */\n      0x01\n        /* \"#utility.yul\":21663:22281   */\n      dup2\n      eq\n      tag_452\n      jumpi\n        /* \"#utility.yul\":22325:22326   */\n      0x00\n        /* \"#utility.yul\":22342:22348   */\n      dup5\n        /* \"#utility.yul\":22339:22416   */\n      iszero\n      tag_453\n      jumpi\n        /* \"#utility.yul\":22391:22400   */\n      dup3\n        /* \"#utility.yul\":22386:22389   */\n      dup8\n        /* \"#utility.yul\":22382:22401   */\n      add\n        /* \"#utility.yul\":22376:22402   */\n      mload\n        /* \"#utility.yul\":22367:22402   */\n      swap1\n      pop\n        /* \"#utility.yul\":22339:22416   */\n    tag_453:\n        /* \"#utility.yul\":22442:22509   */\n      tag_454\n        /* \"#utility.yul\":22502:22508   */\n      dup6\n        /* \"#utility.yul\":22495:22500   */\n      dup3\n        /* \"#utility.yul\":22442:22509   */\n      tag_235\n      jump\t// in\n    tag_454:\n        /* \"#utility.yul\":22436:22440   */\n      dup7\n        /* \"#utility.yul\":22429:22510   */\n      sstore\n        /* \"#utility.yul\":22298:22520   */\n      pop\n        /* \"#utility.yul\":21633:22520   */\n      jump(tag_451)\n        /* \"#utility.yul\":21663:22281   */\n    tag_452:\n        /* \"#utility.yul\":21715:21719   */\n      0x1f\n        /* \"#utility.yul\":21711:21720   */\n      not\n        /* \"#utility.yul\":21703:21709   */\n      dup5\n        /* \"#utility.yul\":21699:21721   */\n      and\n        /* \"#utility.yul\":21749:21786   */\n      tag_455\n        /* \"#utility.yul\":21781:21785   */\n      dup7\n        /* \"#utility.yul\":21749:21786   */\n      tag_221\n      jump\t// in\n    tag_455:\n        /* \"#utility.yul\":21808:21809   */\n      0x00\n        /* \"#utility.yul\":21822:22030   */\n    tag_456:\n        /* \"#utility.yul\":21836:21843   */\n      dup3\n        /* \"#utility.yul\":21833:21834   */\n      dup2\n        /* \"#utility.yul\":21830:21844   */\n      lt\n        /* \"#utility.yul\":21822:22030   */\n      iszero\n      tag_458\n      jumpi\n        /* \"#utility.yul\":21915:21924   */\n      dup5\n        /* \"#utility.yul\":21910:21913   */\n      dup10\n        /* \"#utility.yul\":21906:21925   */\n      add\n        /* \"#utility.yul\":21900:21926   */\n      mload\n        /* \"#utility.yul\":21892:21898   */\n      dup3\n        /* \"#utility.yul\":21885:21927   */\n      sstore\n        /* \"#utility.yul\":21966:21967   */\n      0x01\n        /* \"#utility.yul\":21958:21964   */\n      dup3\n        /* \"#utility.yul\":21954:21968   */\n      add\n        /* \"#utility.yul\":21944:21968   */\n      swap2\n      pop\n        /* \"#utility.yul\":22013:22015   */\n      0x20\n        /* \"#utility.yul\":22002:22011   */\n      dup6\n        /* \"#utility.yul\":21998:22016   */\n      add\n        /* \"#utility.yul\":21985:22016   */\n      swap5\n      pop\n        /* \"#utility.yul\":21859:21863   */\n      0x20\n        /* \"#utility.yul\":21856:21857   */\n      dup2\n        /* \"#utility.yul\":21852:21864   */\n      add\n        /* \"#utility.yul\":21847:21864   */\n      swap1\n      pop\n        /* \"#utility.yul\":21822:22030   */\n      jump(tag_456)\n    tag_458:\n        /* \"#utility.yul\":22058:22064   */\n      dup7\n        /* \"#utility.yul\":22049:22056   */\n      dup4\n        /* \"#utility.yul\":22046:22065   */\n      lt\n        /* \"#utility.yul\":22043:22222   */\n      iszero\n      tag_459\n      jumpi\n        /* \"#utility.yul\":22116:22125   */\n      dup5\n        /* \"#utility.yul\":22111:22114   */\n      dup10\n        /* \"#utility.yul\":22107:22126   */\n      add\n        /* \"#utility.yul\":22101:22127   */\n      mload\n        /* \"#utility.yul\":22159:22207   */\n      tag_460\n        /* \"#utility.yul\":22201:22205   */\n      0x1f\n        /* \"#utility.yul\":22193:22199   */\n      dup10\n        /* \"#utility.yul\":22189:22206   */\n      and\n        /* \"#utility.yul\":22178:22187   */\n      dup3\n        /* \"#utility.yul\":22159:22207   */\n      tag_234\n      jump\t// in\n    tag_460:\n        /* \"#utility.yul\":22151:22157   */\n      dup4\n        /* \"#utility.yul\":22144:22208   */\n      sstore\n        /* \"#utility.yul\":22066:22222   */\n      pop\n        /* \"#utility.yul\":22043:22222   */\n    tag_459:\n        /* \"#utility.yul\":22268:22269   */\n      0x01\n        /* \"#utility.yul\":22264:22265   */\n      0x02\n        /* \"#utility.yul\":22256:22262   */\n      dup9\n        /* \"#utility.yul\":22252:22266   */\n      mul\n        /* \"#utility.yul\":22248:22270   */\n      add\n        /* \"#utility.yul\":22242:22246   */\n      dup9\n        /* \"#utility.yul\":22235:22271   */\n      sstore\n        /* \"#utility.yul\":21670:22281   */\n      pop\n      pop\n      pop\n        /* \"#utility.yul\":21633:22520   */\n    tag_451:\n      pop\n        /* \"#utility.yul\":21223:22526   */\n      pop\n      pop\n      pop\n        /* \"#utility.yul\":21131:22526   */\n      pop\n      pop\n      jump\t// out\n        /* \"#utility.yul\":22532:22710   */\n    tag_236:\n        /* \"#utility.yul\":22672:22702   */\n      0x4e6f207374696e677920636f6e747269627574696f6e73204865726500000000\n        /* \"#utility.yul\":22668:22669   */\n      0x00\n        /* \"#utility.yul\":22660:22666   */\n      dup3\n        /* \"#utility.yul\":22656:22670   */\n      add\n        /* \"#utility.yul\":22649:22703   */\n      mstore\n        /* \"#utility.yul\":22532:22710   */\n      pop\n      jump\t// out\n        /* \"#utility.yul\":22716:23082   */\n    tag_237:\n        /* \"#utility.yul\":22858:22861   */\n      0x00\n        /* \"#utility.yul\":22879:22946   */\n      tag_463\n        /* \"#utility.yul\":22943:22945   */\n      0x1c\n        /* \"#utility.yul\":22938:22941   */\n      dup4\n        /* \"#utility.yul\":22879:22946   */\n      tag_195\n      jump\t// in\n    tag_463:\n        /* \"#utility.yul\":22872:22946   */\n      swap2\n      pop\n        /* \"#utility.yul\":22955:23048   */\n      tag_464\n        /* \"#utility.yul\":23044:23047   */\n      dup3\n        /* \"#utility.yul\":22955:23048   */\n      tag_236\n      jump\t// in\n    tag_464:\n        /* \"#utility.yul\":23073:23075   */\n      0x20\n        /* \"#utility.yul\":23068:23071   */\n      dup3\n        /* \"#utility.yul\":23064:23076   */\n      add\n        /* \"#utility.yul\":23057:23076   */\n      swap1\n      pop\n        /* \"#utility.yul\":22716:23082   */\n      swap2\n      swap1\n      pop\n      jump\t// out\n        /* \"#utility.yul\":23088:23507   */\n    tag_142:\n        /* \"#utility.yul\":23254:23258   */\n      0x00\n        /* \"#utility.yul\":23292:23294   */\n      0x20\n        /* \"#utility.yul\":23281:23290   */\n      dup3\n        /* \"#utility.yul\":23277:23295   */\n      add\n        /* \"#utility.yul\":23269:23295   */\n      swap1\n      pop\n        /* \"#utility.yul\":23341:23350   */\n      dup2\n        /* \"#utility.yul\":23335:23339   */\n      dup2\n        /* \"#utility.yul\":23331:23351   */\n      sub\n        /* \"#utility.yul\":23327:23328   */\n      0x00\n        /* \"#utility.yul\":23316:23325   */\n      dup4\n        /* \"#utility.yul\":23312:23329   */\n      add\n        /* \"#utility.yul\":23305:23352   */\n      mstore\n        /* \"#utility.yul\":23369:23500   */\n      tag_466\n        /* \"#utility.yul\":23495:23499   */\n      dup2\n        /* \"#utility.yul\":23369:23500   */\n      tag_237\n      jump\t// in\n    tag_466:\n        /* \"#utility.yul\":23361:23500   */\n      swap1\n      pop\n        /* \"#utility.yul\":23088:23507   */\n      swap2\n      swap1\n      pop\n      jump\t// out\n        /* \"#utility.yul\":23513:23693   */\n    tag_238:\n        /* \"#utility.yul\":23561:23638   */\n      0x4e487b7100000000000000000000000000000000000000000000000000000000\n        /* \"#utility.yul\":23558:23559   */\n      0x00\n        /* \"#utility.yul\":23551:23639   */\n      mstore\n        /* \"#utility.yul\":23658:23662   */\n      0x11\n        /* \"#utility.yul\":23655:23656   */\n      0x04\n        /* \"#utility.yul\":23648:23663   */\n      mstore\n        /* \"#utility.yul\":23682:23686   */\n      0x24\n        /* \"#utility.yul\":23679:23680   */\n      0x00\n        /* \"#utility.yul\":23672:23687   */\n      revert\n        /* \"#utility.yul\":23699:23890   */\n    tag_150:\n        /* \"#utility.yul\":23739:23742   */\n      0x00\n        /* \"#utility.yul\":23758:23778   */\n      tag_469\n        /* \"#utility.yul\":23776:23777   */\n      dup3\n        /* \"#utility.yul\":23758:23778   */\n      tag_185\n      jump\t// in\n    tag_469:\n        /* \"#utility.yul\":23753:23778   */\n      swap2\n      pop\n        /* \"#utility.yul\":23792:23812   */\n      tag_470\n        /* \"#utility.yul\":23810:23811   */\n      dup4\n        /* \"#utility.yul\":23792:23812   */\n      tag_185\n      jump\t// in\n    tag_470:\n        /* \"#utility.yul\":23787:23812   */\n      swap3\n      pop\n        /* \"#utility.yul\":23835:23836   */\n      dup3\n        /* \"#utility.yul\":23832:23833   */\n      dup3\n        /* \"#utility.yul\":23828:23837   */\n      add\n        /* \"#utility.yul\":23821:23837   */\n      swap1\n      pop\n        /* \"#utility.yul\":23856:23859   */\n      dup1\n        /* \"#utility.yul\":23853:23854   */\n      dup3\n        /* \"#utility.yul\":23850:23860   */\n      gt\n        /* \"#utility.yul\":23847:23883   */\n      iszero\n      tag_471\n      jumpi\n        /* \"#utility.yul\":23863:23881   */\n      tag_472\n      tag_238\n      jump\t// in\n    tag_472:\n        /* \"#utility.yul\":23847:23883   */\n    tag_471:\n        /* \"#utility.yul\":23699:23890   */\n      swap3\n      swap2\n      pop\n      pop\n      jump\t// out\n\n    auxdata: 0xa26469706673582212202efa29b2c5b29a89ab6a23ee4d636b8d0b6af9a0aa788ce24b03c869978a8ae464736f6c634300081a0033\n}\n",
				"bytecode": {
					"linkReferences": {},
					"object": "60806040526002805490506007553480156017575f80fd5b50611d79806100255f395ff3fe6080604052600436106100a6575f3560e01c80639fb9f379116100635780639fb9f379146101f2578063ae817f9a14610230578063c362b1561461024c578063c50a40d014610276578063e07439f7146102b8578063f63aa8a5146102f6576100a6565b80630e3c96db146100aa5780633a51d246146100e65780633cb5d100146101225780634912c6581461015e57806386cdf604146101a057806390f9f50c146101ca575b5f80fd5b3480156100b5575f80fd5b506100d060048036038101906100cb91906112ca565b610332565b6040516100dd9190611329565b60405180910390f35b3480156100f1575f80fd5b5061010c600480360381019061010791906112ca565b61035c565b6040516101199190611329565b60405180910390f35b34801561012d575f80fd5b506101486004803603810190610143919061136c565b610386565b60405161015591906113d6565b60405180910390f35b348015610169575f80fd5b50610184600480360381019061017f919061136c565b6103c1565b6040516101979796959493929190611489565b60405180910390f35b3480156101ab575f80fd5b506101b46104dd565b6040516101c19190611600565b60405180910390f35b3480156101d5575f80fd5b506101f060048036038101906101eb919061164a565b61061e565b005b3480156101fd575f80fd5b50610218600480360381019061021391906112ca565b6109f1565b604051610227939291906116ca565b60405180910390f35b61024a600480360381019061024591906116ff565b610a86565b005b348015610257575f80fd5b50610260610f3f565b60405161026d9190611329565b60405180910390f35b348015610281575f80fd5b5061029c600480360381019061029791906112ca565b610f53565b6040516102af9796959493929190611489565b60405180910390f35b3480156102c3575f80fd5b506102de60048036038101906102d9919061136c565b611079565b6040516102ed93929190611759565b60405180910390f35b348015610301575f80fd5b5061031c600480360381019061031791906112ca565b611153565b6040516103299190611329565b60405180910390f35b5f60018260405161034391906117cf565b9081526020016040518091039020600301549050919050565b5f60018260405161036d91906117cf565b9081526020016040518091039020600501549050919050565b60028181548110610395575f80fd5b905f5260205f20015f915054906101000a900473ffffffffffffffffffffffffffffffffffffffff1681565b5f81815481106103cf575f80fd5b905f5260205f2090600702015f91509050805f015f9054906101000a900473ffffffffffffffffffffffffffffffffffffffff1690806001015f9054906101000a900473ffffffffffffffffffffffffffffffffffffffff169080600201805461043890611812565b80601f016020809104026020016040519081016040528092919081815260200182805461046490611812565b80156104af5780601f10610486576101008083540402835291602001916104af565b820191905f5260205f20905b81548152906001019060200180831161049257829003601f168201915b505050505090806003015490806004015490806005015490806006015f9054906101000a900460ff16905087565b60605f808054905067ffffffffffffffff8111156104fe576104fd6111a6565b5b60405190808252806020026020018201604052801561053157816020015b606081526020019060019003908161051c5790505b5090505f5b5f80549050811015610616575f818154811061055557610554611842565b5b905f5260205f209060070201600201805461056f90611812565b80601f016020809104026020016040519081016040528092919081815260200182805461059b90611812565b80156105e65780601f106105bd576101008083540402835291602001916105e6565b820191905f5260205f20905b8154815290600101906020018083116105c957829003601f168201915b50505050508282815181106105fe576105fd611842565b5b60200260200101819052508080600101915050610536565b508091505090565b5f60018460405161062f91906117cf565b9081526020016040518091039020600201805461064b90611812565b90501461068d576040517f08c379a0000000000000000000000000000000000000000000000000000000008152600401610684906118b9565b60405180910390fd5b5f73ffffffffffffffffffffffffffffffffffffffff168473ffffffffffffffffffffffffffffffffffffffff16036106fb576040517f08c379a00000000000000000000000000000000000000000000000000000000081526004016106f290611921565b60405180910390fd5b5f83511161073e576040517f08c379a000000000000000000000000000000000000000000000000000000000815260040161073590611989565b60405180910390fd5b5f8111610780576040517f08c379a0000000000000000000000000000000000000000000000000000000008152600401610777906119f1565b60405180910390fd5b5f6040518060e001604052803373ffffffffffffffffffffffffffffffffffffffff1681526020018673ffffffffffffffffffffffffffffffffffffffff1681526020018581526020018481526020018381526020015f81526020015f15158152509050806001856040516107f591906117cf565b90815260200160405180910390205f820151815f015f6101000a81548173ffffffffffffffffffffffffffffffffffffffff021916908373ffffffffffffffffffffffffffffffffffffffff1602179055506020820151816001015f6101000a81548173ffffffffffffffffffffffffffffffffffffffff021916908373ffffffffffffffffffffffffffffffffffffffff16021790555060408201518160020190816108a29190611bac565b50606082015181600301556080820151816004015560a0820151816005015560c0820151816006015f6101000a81548160ff0219169083151502179055509050505f81908060018154018082558091505060019003905f5260205f2090600702015f909190919091505f820151815f015f6101000a81548173ffffffffffffffffffffffffffffffffffffffff021916908373ffffffffffffffffffffffffffffffffffffffff1602179055506020820151816001015f6101000a81548173ffffffffffffffffffffffffffffffffffffffff021916908373ffffffffffffffffffffffffffffffffffffffff16021790555060408201518160020190816109aa9190611bac565b50606082015181600301556080820151816004015560a0820151816005015560c0820151816006015f6101000a81548160ff02191690831515021790555050505050505050565b5f805f600184604051610a0491906117cf565b90815260200160405180910390206001015f9054906101000a900473ffffffffffffffffffffffffffffffffffffffff16600185604051610a4591906117cf565b908152602001604051809103902060050154600186604051610a6791906117cf565b9081526020016040518091039020600301549250925092509193909250565b6509184e72a000811015610acf576040517f08c379a0000000000000000000000000000000000000000000000000000000008152600401610ac690611cc5565b60405180910390fd5b5f600183604051610ae091906117cf565b90815260200160405180910390206040518060e00160405290815f82015f9054906101000a900473ffffffffffffffffffffffffffffffffffffffff1673ffffffffffffffffffffffffffffffffffffffff1673ffffffffffffffffffffffffffffffffffffffff168152602001600182015f9054906101000a900473ffffffffffffffffffffffffffffffffffffffff1673ffffffffffffffffffffffffffffffffffffffff1673ffffffffffffffffffffffffffffffffffffffff168152602001600282018054610bb290611812565b80601f0160208091040260200160405190810160405280929190818152602001828054610bde90611812565b8015610c295780601f10610c0057610100808354040283529160200191610c29565b820191905f5260205f20905b815481529060010190602001808311610c0c57829003601f168201915b50505050508152602001600382015481526020016004820154815260200160058201548152602001600682015f9054906101000a900460ff1615151515815250509050818160a001818151610c7e9190611d10565b915081815250505f81908060018154018082558091505060019003905f5260205f2090600702015f909190919091505f820151815f015f6101000a81548173ffffffffffffffffffffffffffffffffffffffff021916908373ffffffffffffffffffffffffffffffffffffffff1602179055506020820151816001015f6101000a81548173ffffffffffffffffffffffffffffffffffffffff021916908373ffffffffffffffffffffffffffffffffffffffff1602179055506040820151816002019081610d4c9190611bac565b50606082015181600301556080820151816004015560a0820151816005015560c0820151816006015f6101000a81548160ff02191690831515021790555050508160065f3373ffffffffffffffffffffffffffffffffffffffff1673ffffffffffffffffffffffffffffffffffffffff1681526020019081526020015f20819055508260055f3373ffffffffffffffffffffffffffffffffffffffff1673ffffffffffffffffffffffffffffffffffffffff1681526020019081526020015f205f019081610e1a9190611bac565b50600233908060018154018082558091505060019003905f5260205f20015f9091909190916101000a81548173ffffffffffffffffffffffffffffffffffffffff021916908373ffffffffffffffffffffffffffffffffffffffff160217905550600360405180606001604052808581526020013373ffffffffffffffffffffffffffffffffffffffff16815260200184815250908060018154018082558091505060019003905f5260205f2090600302015f909190919091505f820151815f019081610ee79190611bac565b506020820151816001015f6101000a81548173ffffffffffffffffffffffffffffffffffffffff021916908373ffffffffffffffffffffffffffffffffffffffff160217905550604082015181600201555050505050565b5f610f486104dd565b505f80549050905090565b6001818051602081018201805184825260208301602085012081835280955050505050505f91509050805f015f9054906101000a900473ffffffffffffffffffffffffffffffffffffffff1690806001015f9054906101000a900473ffffffffffffffffffffffffffffffffffffffff1690806002018054610fd490611812565b80601f016020809104026020016040519081016040528092919081815260200182805461100090611812565b801561104b5780601f106110225761010080835404028352916020019161104b565b820191905f5260205f20905b81548152906001019060200180831161102e57829003601f168201915b505050505090806003015490806004015490806005015490806006015f9054906101000a900460ff16905087565b60038181548110611088575f80fd5b905f5260205f2090600302015f91509050805f0180546110a790611812565b80601f01602080910402602001604051908101604052809291908181526020018280546110d390611812565b801561111e5780601f106110f55761010080835404028352916020019161111e565b820191905f5260205f20905b81548152906001019060200180831161110157829003601f168201915b505050505090806001015f9054906101000a900473ffffffffffffffffffffffffffffffffffffffff16908060020154905083565b5f60018260405161116491906117cf565b9081526020016040518091039020600401549050919050565b5f604051905090565b5f80fd5b5f80fd5b5f80fd5b5f80fd5b5f601f19601f8301169050919050565b7f4e487b71000000000000000000000000000000000000000000000000000000005f52604160045260245ffd5b6111dc82611196565b810181811067ffffffffffffffff821117156111fb576111fa6111a6565b5b80604052505050565b5f61120d61117d565b905061121982826111d3565b919050565b5f67ffffffffffffffff821115611238576112376111a6565b5b61124182611196565b9050602081019050919050565b828183375f83830152505050565b5f61126e6112698461121e565b611204565b90508281526020810184848401111561128a57611289611192565b5b61129584828561124e565b509392505050565b5f82601f8301126112b1576112b061118e565b5b81356112c184826020860161125c565b91505092915050565b5f602082840312156112df576112de611186565b5b5f82013567ffffffffffffffff8111156112fc576112fb61118a565b5b6113088482850161129d565b91505092915050565b5f819050919050565b61132381611311565b82525050565b5f60208201905061133c5f83018461131a565b92915050565b61134b81611311565b8114611355575f80fd5b50565b5f8135905061136681611342565b92915050565b5f6020828403121561138157611380611186565b5b5f61138e84828501611358565b91505092915050565b5f73ffffffffffffffffffffffffffffffffffffffff82169050919050565b5f6113c082611397565b9050919050565b6113d0816113b6565b82525050565b5f6020820190506113e95f8301846113c7565b92915050565b5f6113f982611397565b9050919050565b611409816113ef565b82525050565b5f81519050919050565b5f82825260208201905092915050565b8281835e5f83830152505050565b5f6114418261140f565b61144b8185611419565b935061145b818560208601611429565b61146481611196565b840191505092915050565b5f8115159050919050565b6114838161146f565b82525050565b5f60e08201905061149c5f83018a611400565b6114a96020830189611400565b81810360408301526114bb8188611437565b90506114ca606083018761131a565b6114d7608083018661131a565b6114e460a083018561131a565b6114f160c083018461147a565b98975050505050505050565b5f81519050919050565b5f82825260208201905092915050565b5f819050602082019050919050565b5f82825260208201905092915050565b5f6115408261140f565b61154a8185611526565b935061155a818560208601611429565b61156381611196565b840191505092915050565b5f6115798383611536565b905092915050565b5f602082019050919050565b5f611597826114fd565b6115a18185611507565b9350836020820285016115b385611517565b805f5b858110156115ee57848403895281516115cf858261156e565b94506115da83611581565b925060208a019950506001810190506115b6565b50829750879550505050505092915050565b5f6020820190508181035f830152611618818461158d565b905092915050565b611629816113ef565b8114611633575f80fd5b50565b5f8135905061164481611620565b92915050565b5f805f806080858703121561166257611661611186565b5b5f61166f87828801611636565b945050602085013567ffffffffffffffff8111156116905761168f61118a565b5b61169c8782880161129d565b93505060406116ad87828801611358565b92505060606116be87828801611358565b91505092959194509250565b5f6060820190506116dd5f830186611400565b6116ea602083018561131a565b6116f7604083018461131a565b949350505050565b5f806040838503121561171557611714611186565b5b5f83013567ffffffffffffffff8111156117325761173161118a565b5b61173e8582860161129d565b925050602061174f85828601611358565b9150509250929050565b5f6060820190508181035f8301526117718186611437565b905061178060208301856113c7565b61178d604083018461131a565b949350505050565b5f81905092915050565b5f6117a98261140f565b6117b38185611795565b93506117c3818560208601611429565b80840191505092915050565b5f6117da828461179f565b915081905092915050565b7f4e487b71000000000000000000000000000000000000000000000000000000005f52602260045260245ffd5b5f600282049050600182168061182957607f821691505b60208210810361183c5761183b6117e5565b5b50919050565b7f4e487b71000000000000000000000000000000000000000000000000000000005f52603260045260245ffd5b7f47757920796f75206e6f2066697420637265617465206e616d65206e696900005f82015250565b5f6118a3601e83611419565b91506118ae8261186f565b602082019050919050565b5f6020820190508181035f8301526118d081611897565b9050919050565b7f5768696368206b696e64206164647265737320626520746869730000000000005f82015250565b5f61190b601a83611419565b9150611916826118d7565b602082019050919050565b5f6020820190508181035f830152611938816118ff565b9050919050565b7f596f75722063616d706169676e206e6f20676574206e616d65000000000000005f82015250565b5f611973601983611419565b915061197e8261193f565b602082019050919050565b5f6020820190508181035f8301526119a081611967565b9050919050565b7f42727568682063616e20796f75206e6f7420646f20746861743f0000000000005f82015250565b5f6119db601a83611419565b91506119e6826119a7565b602082019050919050565b5f6020820190508181035f830152611a08816119cf565b9050919050565b5f819050815f5260205f209050919050565b5f6020601f8301049050919050565b5f82821b905092915050565b5f60088302611a6b7fffffffffffffffffffffffffffffffffffffffffffffffffffffffffffffffff82611a30565b611a758683611a30565b95508019841693508086168417925050509392505050565b5f819050919050565b5f611ab0611aab611aa684611311565b611a8d565b611311565b9050919050565b5f819050919050565b611ac983611a96565b611add611ad582611ab7565b848454611a3c565b825550505050565b5f90565b611af1611ae5565b611afc818484611ac0565b505050565b5b81811015611b1f57611b145f82611ae9565b600181019050611b02565b5050565b601f821115611b6457611b3581611a0f565b611b3e84611a21565b81016020851015611b4d578190505b611b61611b5985611a21565b830182611b01565b50505b505050565b5f82821c905092915050565b5f611b845f1984600802611b69565b1980831691505092915050565b5f611b9c8383611b75565b9150826002028217905092915050565b611bb58261140f565b67ffffffffffffffff811115611bce57611bcd6111a6565b5b611bd88254611812565b611be3828285611b23565b5f60209050601f831160018114611c14575f8415611c02578287015190505b611c0c8582611b91565b865550611c73565b601f198416611c2286611a0f565b5f5b82811015611c4957848901518255600182019150602085019450602081019050611c24565b86831015611c665784890151611c62601f891682611b75565b8355505b6001600288020188555050505b505050505050565b7f4e6f207374696e677920636f6e747269627574696f6e732048657265000000005f82015250565b5f611caf601c83611419565b9150611cba82611c7b565b602082019050919050565b5f6020820190508181035f830152611cdc81611ca3565b9050919050565b7f4e487b71000000000000000000000000000000000000000000000000000000005f52601160045260245ffd5b5f611d1a82611311565b9150611d2583611311565b9250828201905080821115611d3d57611d3c611ce3565b5b9291505056fea26469706673582212202efa29b2c5b29a89ab6a23ee4d636b8d0b6af9a0aa788ce24b03c869978a8ae464736f6c634300081a0033",
					"opcodes": "PUSH1 0x80 PUSH1 0x40 MSTORE PUSH1 0x2 DUP1 SLOAD SWAP1 POP PUSH1 0x7 SSTORE CALLVALUE DUP1 ISZERO PUSH1 0x17 JUMPI PUSH0 DUP1 REVERT JUMPDEST POP PUSH2 0x1D79 DUP1 PUSH2 0x25 PUSH0 CODECOPY PUSH0 RETURN INVALID PUSH1 0x80 PUSH1 0x40 MSTORE PUSH1 0x4 CALLDATASIZE LT PUSH2 0xA6 JUMPI PUSH0 CALLDATALOAD PUSH1 0xE0 SHR DUP1 PUSH4 0x9FB9F379 GT PUSH2 0x63 JUMPI DUP1 PUSH4 0x9FB9F379 EQ PUSH2 0x1F2 JUMPI DUP1 PUSH4 0xAE817F9A EQ PUSH2 0x230 JUMPI DUP1 PUSH4 0xC362B156 EQ PUSH2 0x24C JUMPI DUP1 PUSH4 0xC50A40D0 EQ PUSH2 0x276 JUMPI DUP1 PUSH4 0xE07439F7 EQ PUSH2 0x2B8 JUMPI DUP1 PUSH4 0xF63AA8A5 EQ PUSH2 0x2F6 JUMPI PUSH2 0xA6 JUMP JUMPDEST DUP1 PUSH4 0xE3C96DB EQ PUSH2 0xAA JUMPI DUP1 PUSH4 0x3A51D246 EQ PUSH2 0xE6 JUMPI DUP1 PUSH4 0x3CB5D100 EQ PUSH2 0x122 JUMPI DUP1 PUSH4 0x4912C658 EQ PUSH2 0x15E JUMPI DUP1 PUSH4 0x86CDF604 EQ PUSH2 0x1A0 JUMPI DUP1 PUSH4 0x90F9F50C EQ PUSH2 0x1CA JUMPI JUMPDEST PUSH0 DUP1 REVERT JUMPDEST CALLVALUE DUP1 ISZERO PUSH2 0xB5 JUMPI PUSH0 DUP1 REVERT JUMPDEST POP PUSH2 0xD0 PUSH1 0x4 DUP1 CALLDATASIZE SUB DUP2 ADD SWAP1 PUSH2 0xCB SWAP2 SWAP1 PUSH2 0x12CA JUMP JUMPDEST PUSH2 0x332 JUMP JUMPDEST PUSH1 0x40 MLOAD PUSH2 0xDD SWAP2 SWAP1 PUSH2 0x1329 JUMP JUMPDEST PUSH1 0x40 MLOAD DUP1 SWAP2 SUB SWAP1 RETURN JUMPDEST CALLVALUE DUP1 ISZERO PUSH2 0xF1 JUMPI PUSH0 DUP1 REVERT JUMPDEST POP PUSH2 0x10C PUSH1 0x4 DUP1 CALLDATASIZE SUB DUP2 ADD SWAP1 PUSH2 0x107 SWAP2 SWAP1 PUSH2 0x12CA JUMP JUMPDEST PUSH2 0x35C JUMP JUMPDEST PUSH1 0x40 MLOAD PUSH2 0x119 SWAP2 SWAP1 PUSH2 0x1329 JUMP JUMPDEST PUSH1 0x40 MLOAD DUP1 SWAP2 SUB SWAP1 RETURN JUMPDEST CALLVALUE DUP1 ISZERO PUSH2 0x12D JUMPI PUSH0 DUP1 REVERT JUMPDEST POP PUSH2 0x148 PUSH1 0x4 DUP1 CALLDATASIZE SUB DUP2 ADD SWAP1 PUSH2 0x143 SWAP2 SWAP1 PUSH2 0x136C JUMP JUMPDEST PUSH2 0x386 JUMP JUMPDEST PUSH1 0x40 MLOAD PUSH2 0x155 SWAP2 SWAP1 PUSH2 0x13D6 JUMP JUMPDEST PUSH1 0x40 MLOAD DUP1 SWAP2 SUB SWAP1 RETURN JUMPDEST CALLVALUE DUP1 ISZERO PUSH2 0x169 JUMPI PUSH0 DUP1 REVERT JUMPDEST POP PUSH2 0x184 PUSH1 0x4 DUP1 CALLDATASIZE SUB DUP2 ADD SWAP1 PUSH2 0x17F SWAP2 SWAP1 PUSH2 0x136C JUMP JUMPDEST PUSH2 0x3C1 JUMP JUMPDEST PUSH1 0x40 MLOAD PUSH2 0x197 SWAP8 SWAP7 SWAP6 SWAP5 SWAP4 SWAP3 SWAP2 SWAP1 PUSH2 0x1489 JUMP JUMPDEST PUSH1 0x40 MLOAD DUP1 SWAP2 SUB SWAP1 RETURN JUMPDEST CALLVALUE DUP1 ISZERO PUSH2 0x1AB JUMPI PUSH0 DUP1 REVERT JUMPDEST POP PUSH2 0x1B4 PUSH2 0x4DD JUMP JUMPDEST PUSH1 0x40 MLOAD PUSH2 0x1C1 SWAP2 SWAP1 PUSH2 0x1600 JUMP JUMPDEST PUSH1 0x40 MLOAD DUP1 SWAP2 SUB SWAP1 RETURN JUMPDEST CALLVALUE DUP1 ISZERO PUSH2 0x1D5 JUMPI PUSH0 DUP1 REVERT JUMPDEST POP PUSH2 0x1F0 PUSH1 0x4 DUP1 CALLDATASIZE SUB DUP2 ADD SWAP1 PUSH2 0x1EB SWAP2 SWAP1 PUSH2 0x164A JUMP JUMPDEST PUSH2 0x61E JUMP JUMPDEST STOP JUMPDEST CALLVALUE DUP1 ISZERO PUSH2 0x1FD JUMPI PUSH0 DUP1 REVERT JUMPDEST POP PUSH2 0x218 PUSH1 0x4 DUP1 CALLDATASIZE SUB DUP2 ADD SWAP1 PUSH2 0x213 SWAP2 SWAP1 PUSH2 0x12CA JUMP JUMPDEST PUSH2 0x9F1 JUMP JUMPDEST PUSH1 0x40 MLOAD PUSH2 0x227 SWAP4 SWAP3 SWAP2 SWAP1 PUSH2 0x16CA JUMP JUMPDEST PUSH1 0x40 MLOAD DUP1 SWAP2 SUB SWAP1 RETURN JUMPDEST PUSH2 0x24A PUSH1 0x4 DUP1 CALLDATASIZE SUB DUP2 ADD SWAP1 PUSH2 0x245 SWAP2 SWAP1 PUSH2 0x16FF JUMP JUMPDEST PUSH2 0xA86 JUMP JUMPDEST STOP JUMPDEST CALLVALUE DUP1 ISZERO PUSH2 0x257 JUMPI PUSH0 DUP1 REVERT JUMPDEST POP PUSH2 0x260 PUSH2 0xF3F JUMP JUMPDEST PUSH1 0x40 MLOAD PUSH2 0x26D SWAP2 SWAP1 PUSH2 0x1329 JUMP JUMPDEST PUSH1 0x40 MLOAD DUP1 SWAP2 SUB SWAP1 RETURN JUMPDEST CALLVALUE DUP1 ISZERO PUSH2 0x281 JUMPI PUSH0 DUP1 REVERT JUMPDEST POP PUSH2 0x29C PUSH1 0x4 DUP1 CALLDATASIZE SUB DUP2 ADD SWAP1 PUSH2 0x297 SWAP2 SWAP1 PUSH2 0x12CA JUMP JUMPDEST PUSH2 0xF53 JUMP JUMPDEST PUSH1 0x40 MLOAD PUSH2 0x2AF SWAP8 SWAP7 SWAP6 SWAP5 SWAP4 SWAP3 SWAP2 SWAP1 PUSH2 0x1489 JUMP JUMPDEST PUSH1 0x40 MLOAD DUP1 SWAP2 SUB SWAP1 RETURN JUMPDEST CALLVALUE DUP1 ISZERO PUSH2 0x2C3 JUMPI PUSH0 DUP1 REVERT JUMPDEST POP PUSH2 0x2DE PUSH1 0x4 DUP1 CALLDATASIZE SUB DUP2 ADD SWAP1 PUSH2 0x2D9 SWAP2 SWAP1 PUSH2 0x136C JUMP JUMPDEST PUSH2 0x1079 JUMP JUMPDEST PUSH1 0x40 MLOAD PUSH2 0x2ED SWAP4 SWAP3 SWAP2 SWAP1 PUSH2 0x1759 JUMP JUMPDEST PUSH1 0x40 MLOAD DUP1 SWAP2 SUB SWAP1 RETURN JUMPDEST CALLVALUE DUP1 ISZERO PUSH2 0x301 JUMPI PUSH0 DUP1 REVERT JUMPDEST POP PUSH2 0x31C PUSH1 0x4 DUP1 CALLDATASIZE SUB DUP2 ADD SWAP1 PUSH2 0x317 SWAP2 SWAP1 PUSH2 0x12CA JUMP JUMPDEST PUSH2 0x1153 JUMP JUMPDEST PUSH1 0x40 MLOAD PUSH2 0x329 SWAP2 SWAP1 PUSH2 0x1329 JUMP JUMPDEST PUSH1 0x40 MLOAD DUP1 SWAP2 SUB SWAP1 RETURN JUMPDEST PUSH0 PUSH1 0x1 DUP3 PUSH1 0x40 MLOAD PUSH2 0x343 SWAP2 SWAP1 PUSH2 0x17CF JUMP JUMPDEST SWAP1 DUP2 MSTORE PUSH1 0x20 ADD PUSH1 0x40 MLOAD DUP1 SWAP2 SUB SWAP1 KECCAK256 PUSH1 0x3 ADD SLOAD SWAP1 POP SWAP2 SWAP1 POP JUMP JUMPDEST PUSH0 PUSH1 0x1 DUP3 PUSH1 0x40 MLOAD PUSH2 0x36D SWAP2 SWAP1 PUSH2 0x17CF JUMP JUMPDEST SWAP1 DUP2 MSTORE PUSH1 0x20 ADD PUSH1 0x40 MLOAD DUP1 SWAP2 SUB SWAP1 KECCAK256 PUSH1 0x5 ADD SLOAD SWAP1 POP SWAP2 SWAP1 POP JUMP JUMPDEST PUSH1 0x2 DUP2 DUP2 SLOAD DUP2 LT PUSH2 0x395 JUMPI PUSH0 DUP1 REVERT JUMPDEST SWAP1 PUSH0 MSTORE PUSH1 0x20 PUSH0 KECCAK256 ADD PUSH0 SWAP2 POP SLOAD SWAP1 PUSH2 0x100 EXP SWAP1 DIV PUSH20 0xFFFFFFFFFFFFFFFFFFFFFFFFFFFFFFFFFFFFFFFF AND DUP2 JUMP JUMPDEST PUSH0 DUP2 DUP2 SLOAD DUP2 LT PUSH2 0x3CF JUMPI PUSH0 DUP1 REVERT JUMPDEST SWAP1 PUSH0 MSTORE PUSH1 0x20 PUSH0 KECCAK256 SWAP1 PUSH1 0x7 MUL ADD PUSH0 SWAP2 POP SWAP1 POP DUP1 PUSH0 ADD PUSH0 SWAP1 SLOAD SWAP1 PUSH2 0x100 EXP SWAP1 DIV PUSH20 0xFFFFFFFFFFFFFFFFFFFFFFFFFFFFFFFFFFFFFFFF AND SWAP1 DUP1 PUSH1 0x1 ADD PUSH0 SWAP1 SLOAD SWAP1 PUSH2 0x100 EXP SWAP1 DIV PUSH20 0xFFFFFFFFFFFFFFFFFFFFFFFFFFFFFFFFFFFFFFFF AND SWAP1 DUP1 PUSH1 0x2 ADD DUP1 SLOAD PUSH2 0x438 SWAP1 PUSH2 0x1812 JUMP JUMPDEST DUP1 PUSH1 0x1F ADD PUSH1 0x20 DUP1 SWAP2 DIV MUL PUSH1 0x20 ADD PUSH1 0x40 MLOAD SWAP1 DUP2 ADD PUSH1 0x40 MSTORE DUP1 SWAP3 SWAP2 SWAP1 DUP2 DUP2 MSTORE PUSH1 0x20 ADD DUP3 DUP1 SLOAD PUSH2 0x464 SWAP1 PUSH2 0x1812 JUMP JUMPDEST DUP1 ISZERO PUSH2 0x4AF JUMPI DUP1 PUSH1 0x1F LT PUSH2 0x486 JUMPI PUSH2 0x100 DUP1 DUP4 SLOAD DIV MUL DUP4 MSTORE SWAP2 PUSH1 0x20 ADD SWAP2 PUSH2 0x4AF JUMP JUMPDEST DUP3 ADD SWAP2 SWAP1 PUSH0 MSTORE PUSH1 0x20 PUSH0 KECCAK256 SWAP1 JUMPDEST DUP2 SLOAD DUP2 MSTORE SWAP1 PUSH1 0x1 ADD SWAP1 PUSH1 0x20 ADD DUP1 DUP4 GT PUSH2 0x492 JUMPI DUP3 SWAP1 SUB PUSH1 0x1F AND DUP3 ADD SWAP2 JUMPDEST POP POP POP POP POP SWAP1 DUP1 PUSH1 0x3 ADD SLOAD SWAP1 DUP1 PUSH1 0x4 ADD SLOAD SWAP1 DUP1 PUSH1 0x5 ADD SLOAD SWAP1 DUP1 PUSH1 0x6 ADD PUSH0 SWAP1 SLOAD SWAP1 PUSH2 0x100 EXP SWAP1 DIV PUSH1 0xFF AND SWAP1 POP DUP8 JUMP JUMPDEST PUSH1 0x60 PUSH0 DUP1 DUP1 SLOAD SWAP1 POP PUSH8 0xFFFFFFFFFFFFFFFF DUP2 GT ISZERO PUSH2 0x4FE JUMPI PUSH2 0x4FD PUSH2 0x11A6 JUMP JUMPDEST JUMPDEST PUSH1 0x40 MLOAD SWAP1 DUP1 DUP3 MSTORE DUP1 PUSH1 0x20 MUL PUSH1 0x20 ADD DUP3 ADD PUSH1 0x40 MSTORE DUP1 ISZERO PUSH2 0x531 JUMPI DUP2 PUSH1 0x20 ADD JUMPDEST PUSH1 0x60 DUP2 MSTORE PUSH1 0x20 ADD SWAP1 PUSH1 0x1 SWAP1 SUB SWAP1 DUP2 PUSH2 0x51C JUMPI SWAP1 POP JUMPDEST POP SWAP1 POP PUSH0 JUMPDEST PUSH0 DUP1 SLOAD SWAP1 POP DUP2 LT ISZERO PUSH2 0x616 JUMPI PUSH0 DUP2 DUP2 SLOAD DUP2 LT PUSH2 0x555 JUMPI PUSH2 0x554 PUSH2 0x1842 JUMP JUMPDEST JUMPDEST SWAP1 PUSH0 MSTORE PUSH1 0x20 PUSH0 KECCAK256 SWAP1 PUSH1 0x7 MUL ADD PUSH1 0x2 ADD DUP1 SLOAD PUSH2 0x56F SWAP1 PUSH2 0x1812 JUMP JUMPDEST DUP1 PUSH1 0x1F ADD PUSH1 0x20 DUP1 SWAP2 DIV MUL PUSH1 0x20 ADD PUSH1 0x40 MLOAD SWAP1 DUP2 ADD PUSH1 0x40 MSTORE DUP1 SWAP3 SWAP2 SWAP1 DUP2 DUP2 MSTORE PUSH1 0x20 ADD DUP3 DUP1 SLOAD PUSH2 0x59B SWAP1 PUSH2 0x1812 JUMP JUMPDEST DUP1 ISZERO PUSH2 0x5E6 JUMPI DUP1 PUSH1 0x1F LT PUSH2 0x5BD JUMPI PUSH2 0x100 DUP1 DUP4 SLOAD DIV MUL DUP4 MSTORE SWAP2 PUSH1 0x20 ADD SWAP2 PUSH2 0x5E6 JUMP JUMPDEST DUP3 ADD SWAP2 SWAP1 PUSH0 MSTORE PUSH1 0x20 PUSH0 KECCAK256 SWAP1 JUMPDEST DUP2 SLOAD DUP2 MSTORE SWAP1 PUSH1 0x1 ADD SWAP1 PUSH1 0x20 ADD DUP1 DUP4 GT PUSH2 0x5C9 JUMPI DUP3 SWAP1 SUB PUSH1 0x1F AND DUP3 ADD SWAP2 JUMPDEST POP POP POP POP POP DUP3 DUP3 DUP2 MLOAD DUP2 LT PUSH2 0x5FE JUMPI PUSH2 0x5FD PUSH2 0x1842 JUMP JUMPDEST JUMPDEST PUSH1 0x20 MUL PUSH1 0x20 ADD ADD DUP2 SWAP1 MSTORE POP DUP1 DUP1 PUSH1 0x1 ADD SWAP2 POP POP PUSH2 0x536 JUMP JUMPDEST POP DUP1 SWAP2 POP POP SWAP1 JUMP JUMPDEST PUSH0 PUSH1 0x1 DUP5 PUSH1 0x40 MLOAD PUSH2 0x62F SWAP2 SWAP1 PUSH2 0x17CF JUMP JUMPDEST SWAP1 DUP2 MSTORE PUSH1 0x20 ADD PUSH1 0x40 MLOAD DUP1 SWAP2 SUB SWAP1 KECCAK256 PUSH1 0x2 ADD DUP1 SLOAD PUSH2 0x64B SWAP1 PUSH2 0x1812 JUMP JUMPDEST SWAP1 POP EQ PUSH2 0x68D JUMPI PUSH1 0x40 MLOAD PUSH32 0x8C379A000000000000000000000000000000000000000000000000000000000 DUP2 MSTORE PUSH1 0x4 ADD PUSH2 0x684 SWAP1 PUSH2 0x18B9 JUMP JUMPDEST PUSH1 0x40 MLOAD DUP1 SWAP2 SUB SWAP1 REVERT JUMPDEST PUSH0 PUSH20 0xFFFFFFFFFFFFFFFFFFFFFFFFFFFFFFFFFFFFFFFF AND DUP5 PUSH20 0xFFFFFFFFFFFFFFFFFFFFFFFFFFFFFFFFFFFFFFFF AND SUB PUSH2 0x6FB JUMPI PUSH1 0x40 MLOAD PUSH32 0x8C379A000000000000000000000000000000000000000000000000000000000 DUP2 MSTORE PUSH1 0x4 ADD PUSH2 0x6F2 SWAP1 PUSH2 0x1921 JUMP JUMPDEST PUSH1 0x40 MLOAD DUP1 SWAP2 SUB SWAP1 REVERT JUMPDEST PUSH0 DUP4 MLOAD GT PUSH2 0x73E JUMPI PUSH1 0x40 MLOAD PUSH32 0x8C379A000000000000000000000000000000000000000000000000000000000 DUP2 MSTORE PUSH1 0x4 ADD PUSH2 0x735 SWAP1 PUSH2 0x1989 JUMP JUMPDEST PUSH1 0x40 MLOAD DUP1 SWAP2 SUB SWAP1 REVERT JUMPDEST PUSH0 DUP2 GT PUSH2 0x780 JUMPI PUSH1 0x40 MLOAD PUSH32 0x8C379A000000000000000000000000000000000000000000000000000000000 DUP2 MSTORE PUSH1 0x4 ADD PUSH2 0x777 SWAP1 PUSH2 0x19F1 JUMP JUMPDEST PUSH1 0x40 MLOAD DUP1 SWAP2 SUB SWAP1 REVERT JUMPDEST PUSH0 PUSH1 0x40 MLOAD DUP1 PUSH1 0xE0 ADD PUSH1 0x40 MSTORE DUP1 CALLER PUSH20 0xFFFFFFFFFFFFFFFFFFFFFFFFFFFFFFFFFFFFFFFF AND DUP2 MSTORE PUSH1 0x20 ADD DUP7 PUSH20 0xFFFFFFFFFFFFFFFFFFFFFFFFFFFFFFFFFFFFFFFF AND DUP2 MSTORE PUSH1 0x20 ADD DUP6 DUP2 MSTORE PUSH1 0x20 ADD DUP5 DUP2 MSTORE PUSH1 0x20 ADD DUP4 DUP2 MSTORE PUSH1 0x20 ADD PUSH0 DUP2 MSTORE PUSH1 0x20 ADD PUSH0 ISZERO ISZERO DUP2 MSTORE POP SWAP1 POP DUP1 PUSH1 0x1 DUP6 PUSH1 0x40 MLOAD PUSH2 0x7F5 SWAP2 SWAP1 PUSH2 0x17CF JUMP JUMPDEST SWAP1 DUP2 MSTORE PUSH1 0x20 ADD PUSH1 0x40 MLOAD DUP1 SWAP2 SUB SWAP1 KECCAK256 PUSH0 DUP3 ADD MLOAD DUP2 PUSH0 ADD PUSH0 PUSH2 0x100 EXP DUP2 SLOAD DUP2 PUSH20 0xFFFFFFFFFFFFFFFFFFFFFFFFFFFFFFFFFFFFFFFF MUL NOT AND SWAP1 DUP4 PUSH20 0xFFFFFFFFFFFFFFFFFFFFFFFFFFFFFFFFFFFFFFFF AND MUL OR SWAP1 SSTORE POP PUSH1 0x20 DUP3 ADD MLOAD DUP2 PUSH1 0x1 ADD PUSH0 PUSH2 0x100 EXP DUP2 SLOAD DUP2 PUSH20 0xFFFFFFFFFFFFFFFFFFFFFFFFFFFFFFFFFFFFFFFF MUL NOT AND SWAP1 DUP4 PUSH20 0xFFFFFFFFFFFFFFFFFFFFFFFFFFFFFFFFFFFFFFFF AND MUL OR SWAP1 SSTORE POP PUSH1 0x40 DUP3 ADD MLOAD DUP2 PUSH1 0x2 ADD SWAP1 DUP2 PUSH2 0x8A2 SWAP2 SWAP1 PUSH2 0x1BAC JUMP JUMPDEST POP PUSH1 0x60 DUP3 ADD MLOAD DUP2 PUSH1 0x3 ADD SSTORE PUSH1 0x80 DUP3 ADD MLOAD DUP2 PUSH1 0x4 ADD SSTORE PUSH1 0xA0 DUP3 ADD MLOAD DUP2 PUSH1 0x5 ADD SSTORE PUSH1 0xC0 DUP3 ADD MLOAD DUP2 PUSH1 0x6 ADD PUSH0 PUSH2 0x100 EXP DUP2 SLOAD DUP2 PUSH1 0xFF MUL NOT AND SWAP1 DUP4 ISZERO ISZERO MUL OR SWAP1 SSTORE POP SWAP1 POP POP PUSH0 DUP2 SWAP1 DUP1 PUSH1 0x1 DUP2 SLOAD ADD DUP1 DUP3 SSTORE DUP1 SWAP2 POP POP PUSH1 0x1 SWAP1 SUB SWAP1 PUSH0 MSTORE PUSH1 0x20 PUSH0 KECCAK256 SWAP1 PUSH1 0x7 MUL ADD PUSH0 SWAP1 SWAP2 SWAP1 SWAP2 SWAP1 SWAP2 POP PUSH0 DUP3 ADD MLOAD DUP2 PUSH0 ADD PUSH0 PUSH2 0x100 EXP DUP2 SLOAD DUP2 PUSH20 0xFFFFFFFFFFFFFFFFFFFFFFFFFFFFFFFFFFFFFFFF MUL NOT AND SWAP1 DUP4 PUSH20 0xFFFFFFFFFFFFFFFFFFFFFFFFFFFFFFFFFFFFFFFF AND MUL OR SWAP1 SSTORE POP PUSH1 0x20 DUP3 ADD MLOAD DUP2 PUSH1 0x1 ADD PUSH0 PUSH2 0x100 EXP DUP2 SLOAD DUP2 PUSH20 0xFFFFFFFFFFFFFFFFFFFFFFFFFFFFFFFFFFFFFFFF MUL NOT AND SWAP1 DUP4 PUSH20 0xFFFFFFFFFFFFFFFFFFFFFFFFFFFFFFFFFFFFFFFF AND MUL OR SWAP1 SSTORE POP PUSH1 0x40 DUP3 ADD MLOAD DUP2 PUSH1 0x2 ADD SWAP1 DUP2 PUSH2 0x9AA SWAP2 SWAP1 PUSH2 0x1BAC JUMP JUMPDEST POP PUSH1 0x60 DUP3 ADD MLOAD DUP2 PUSH1 0x3 ADD SSTORE PUSH1 0x80 DUP3 ADD MLOAD DUP2 PUSH1 0x4 ADD SSTORE PUSH1 0xA0 DUP3 ADD MLOAD DUP2 PUSH1 0x5 ADD SSTORE PUSH1 0xC0 DUP3 ADD MLOAD DUP2 PUSH1 0x6 ADD PUSH0 PUSH2 0x100 EXP DUP2 SLOAD DUP2 PUSH1 0xFF MUL NOT AND SWAP1 DUP4 ISZERO ISZERO MUL OR SWAP1 SSTORE POP POP POP POP POP POP POP POP JUMP JUMPDEST PUSH0 DUP1 PUSH0 PUSH1 0x1 DUP5 PUSH1 0x40 MLOAD PUSH2 0xA04 SWAP2 SWAP1 PUSH2 0x17CF JUMP JUMPDEST SWAP1 DUP2 MSTORE PUSH1 0x20 ADD PUSH1 0x40 MLOAD DUP1 SWAP2 SUB SWAP1 KECCAK256 PUSH1 0x1 ADD PUSH0 SWAP1 SLOAD SWAP1 PUSH2 0x100 EXP SWAP1 DIV PUSH20 0xFFFFFFFFFFFFFFFFFFFFFFFFFFFFFFFFFFFFFFFF AND PUSH1 0x1 DUP6 PUSH1 0x40 MLOAD PUSH2 0xA45 SWAP2 SWAP1 PUSH2 0x17CF JUMP JUMPDEST SWAP1 DUP2 MSTORE PUSH1 0x20 ADD PUSH1 0x40 MLOAD DUP1 SWAP2 SUB SWAP1 KECCAK256 PUSH1 0x5 ADD SLOAD PUSH1 0x1 DUP7 PUSH1 0x40 MLOAD PUSH2 0xA67 SWAP2 SWAP1 PUSH2 0x17CF JUMP JUMPDEST SWAP1 DUP2 MSTORE PUSH1 0x20 ADD PUSH1 0x40 MLOAD DUP1 SWAP2 SUB SWAP1 KECCAK256 PUSH1 0x3 ADD SLOAD SWAP3 POP SWAP3 POP SWAP3 POP SWAP2 SWAP4 SWAP1 SWAP3 POP JUMP JUMPDEST PUSH6 0x9184E72A000 DUP2 LT ISZERO PUSH2 0xACF JUMPI PUSH1 0x40 MLOAD PUSH32 0x8C379A000000000000000000000000000000000000000000000000000000000 DUP2 MSTORE PUSH1 0x4 ADD PUSH2 0xAC6 SWAP1 PUSH2 0x1CC5 JUMP JUMPDEST PUSH1 0x40 MLOAD DUP1 SWAP2 SUB SWAP1 REVERT JUMPDEST PUSH0 PUSH1 0x1 DUP4 PUSH1 0x40 MLOAD PUSH2 0xAE0 SWAP2 SWAP1 PUSH2 0x17CF JUMP JUMPDEST SWAP1 DUP2 MSTORE PUSH1 0x20 ADD PUSH1 0x40 MLOAD DUP1 SWAP2 SUB SWAP1 KECCAK256 PUSH1 0x40 MLOAD DUP1 PUSH1 0xE0 ADD PUSH1 0x40 MSTORE SWAP1 DUP2 PUSH0 DUP3 ADD PUSH0 SWAP1 SLOAD SWAP1 PUSH2 0x100 EXP SWAP1 DIV PUSH20 0xFFFFFFFFFFFFFFFFFFFFFFFFFFFFFFFFFFFFFFFF AND PUSH20 0xFFFFFFFFFFFFFFFFFFFFFFFFFFFFFFFFFFFFFFFF AND PUSH20 0xFFFFFFFFFFFFFFFFFFFFFFFFFFFFFFFFFFFFFFFF AND DUP2 MSTORE PUSH1 0x20 ADD PUSH1 0x1 DUP3 ADD PUSH0 SWAP1 SLOAD SWAP1 PUSH2 0x100 EXP SWAP1 DIV PUSH20 0xFFFFFFFFFFFFFFFFFFFFFFFFFFFFFFFFFFFFFFFF AND PUSH20 0xFFFFFFFFFFFFFFFFFFFFFFFFFFFFFFFFFFFFFFFF AND PUSH20 0xFFFFFFFFFFFFFFFFFFFFFFFFFFFFFFFFFFFFFFFF AND DUP2 MSTORE PUSH1 0x20 ADD PUSH1 0x2 DUP3 ADD DUP1 SLOAD PUSH2 0xBB2 SWAP1 PUSH2 0x1812 JUMP JUMPDEST DUP1 PUSH1 0x1F ADD PUSH1 0x20 DUP1 SWAP2 DIV MUL PUSH1 0x20 ADD PUSH1 0x40 MLOAD SWAP1 DUP2 ADD PUSH1 0x40 MSTORE DUP1 SWAP3 SWAP2 SWAP1 DUP2 DUP2 MSTORE PUSH1 0x20 ADD DUP3 DUP1 SLOAD PUSH2 0xBDE SWAP1 PUSH2 0x1812 JUMP JUMPDEST DUP1 ISZERO PUSH2 0xC29 JUMPI DUP1 PUSH1 0x1F LT PUSH2 0xC00 JUMPI PUSH2 0x100 DUP1 DUP4 SLOAD DIV MUL DUP4 MSTORE SWAP2 PUSH1 0x20 ADD SWAP2 PUSH2 0xC29 JUMP JUMPDEST DUP3 ADD SWAP2 SWAP1 PUSH0 MSTORE PUSH1 0x20 PUSH0 KECCAK256 SWAP1 JUMPDEST DUP2 SLOAD DUP2 MSTORE SWAP1 PUSH1 0x1 ADD SWAP1 PUSH1 0x20 ADD DUP1 DUP4 GT PUSH2 0xC0C JUMPI DUP3 SWAP1 SUB PUSH1 0x1F AND DUP3 ADD SWAP2 JUMPDEST POP POP POP POP POP DUP2 MSTORE PUSH1 0x20 ADD PUSH1 0x3 DUP3 ADD SLOAD DUP2 MSTORE PUSH1 0x20 ADD PUSH1 0x4 DUP3 ADD SLOAD DUP2 MSTORE PUSH1 0x20 ADD PUSH1 0x5 DUP3 ADD SLOAD DUP2 MSTORE PUSH1 0x20 ADD PUSH1 0x6 DUP3 ADD PUSH0 SWAP1 SLOAD SWAP1 PUSH2 0x100 EXP SWAP1 DIV PUSH1 0xFF AND ISZERO ISZERO ISZERO ISZERO DUP2 MSTORE POP POP SWAP1 POP DUP2 DUP2 PUSH1 0xA0 ADD DUP2 DUP2 MLOAD PUSH2 0xC7E SWAP2 SWAP1 PUSH2 0x1D10 JUMP JUMPDEST SWAP2 POP DUP2 DUP2 MSTORE POP POP PUSH0 DUP2 SWAP1 DUP1 PUSH1 0x1 DUP2 SLOAD ADD DUP1 DUP3 SSTORE DUP1 SWAP2 POP POP PUSH1 0x1 SWAP1 SUB SWAP1 PUSH0 MSTORE PUSH1 0x20 PUSH0 KECCAK256 SWAP1 PUSH1 0x7 MUL ADD PUSH0 SWAP1 SWAP2 SWAP1 SWAP2 SWAP1 SWAP2 POP PUSH0 DUP3 ADD MLOAD DUP2 PUSH0 ADD PUSH0 PUSH2 0x100 EXP DUP2 SLOAD DUP2 PUSH20 0xFFFFFFFFFFFFFFFFFFFFFFFFFFFFFFFFFFFFFFFF MUL NOT AND SWAP1 DUP4 PUSH20 0xFFFFFFFFFFFFFFFFFFFFFFFFFFFFFFFFFFFFFFFF AND MUL OR SWAP1 SSTORE POP PUSH1 0x20 DUP3 ADD MLOAD DUP2 PUSH1 0x1 ADD PUSH0 PUSH2 0x100 EXP DUP2 SLOAD DUP2 PUSH20 0xFFFFFFFFFFFFFFFFFFFFFFFFFFFFFFFFFFFFFFFF MUL NOT AND SWAP1 DUP4 PUSH20 0xFFFFFFFFFFFFFFFFFFFFFFFFFFFFFFFFFFFFFFFF AND MUL OR SWAP1 SSTORE POP PUSH1 0x40 DUP3 ADD MLOAD DUP2 PUSH1 0x2 ADD SWAP1 DUP2 PUSH2 0xD4C SWAP2 SWAP1 PUSH2 0x1BAC JUMP JUMPDEST POP PUSH1 0x60 DUP3 ADD MLOAD DUP2 PUSH1 0x3 ADD SSTORE PUSH1 0x80 DUP3 ADD MLOAD DUP2 PUSH1 0x4 ADD SSTORE PUSH1 0xA0 DUP3 ADD MLOAD DUP2 PUSH1 0x5 ADD SSTORE PUSH1 0xC0 DUP3 ADD MLOAD DUP2 PUSH1 0x6 ADD PUSH0 PUSH2 0x100 EXP DUP2 SLOAD DUP2 PUSH1 0xFF MUL NOT AND SWAP1 DUP4 ISZERO ISZERO MUL OR SWAP1 SSTORE POP POP POP DUP2 PUSH1 0x6 PUSH0 CALLER PUSH20 0xFFFFFFFFFFFFFFFFFFFFFFFFFFFFFFFFFFFFFFFF AND PUSH20 0xFFFFFFFFFFFFFFFFFFFFFFFFFFFFFFFFFFFFFFFF AND DUP2 MSTORE PUSH1 0x20 ADD SWAP1 DUP2 MSTORE PUSH1 0x20 ADD PUSH0 KECCAK256 DUP2 SWAP1 SSTORE POP DUP3 PUSH1 0x5 PUSH0 CALLER PUSH20 0xFFFFFFFFFFFFFFFFFFFFFFFFFFFFFFFFFFFFFFFF AND PUSH20 0xFFFFFFFFFFFFFFFFFFFFFFFFFFFFFFFFFFFFFFFF AND DUP2 MSTORE PUSH1 0x20 ADD SWAP1 DUP2 MSTORE PUSH1 0x20 ADD PUSH0 KECCAK256 PUSH0 ADD SWAP1 DUP2 PUSH2 0xE1A SWAP2 SWAP1 PUSH2 0x1BAC JUMP JUMPDEST POP PUSH1 0x2 CALLER SWAP1 DUP1 PUSH1 0x1 DUP2 SLOAD ADD DUP1 DUP3 SSTORE DUP1 SWAP2 POP POP PUSH1 0x1 SWAP1 SUB SWAP1 PUSH0 MSTORE PUSH1 0x20 PUSH0 KECCAK256 ADD PUSH0 SWAP1 SWAP2 SWAP1 SWAP2 SWAP1 SWAP2 PUSH2 0x100 EXP DUP2 SLOAD DUP2 PUSH20 0xFFFFFFFFFFFFFFFFFFFFFFFFFFFFFFFFFFFFFFFF MUL NOT AND SWAP1 DUP4 PUSH20 0xFFFFFFFFFFFFFFFFFFFFFFFFFFFFFFFFFFFFFFFF AND MUL OR SWAP1 SSTORE POP PUSH1 0x3 PUSH1 0x40 MLOAD DUP1 PUSH1 0x60 ADD PUSH1 0x40 MSTORE DUP1 DUP6 DUP2 MSTORE PUSH1 0x20 ADD CALLER PUSH20 0xFFFFFFFFFFFFFFFFFFFFFFFFFFFFFFFFFFFFFFFF AND DUP2 MSTORE PUSH1 0x20 ADD DUP5 DUP2 MSTORE POP SWAP1 DUP1 PUSH1 0x1 DUP2 SLOAD ADD DUP1 DUP3 SSTORE DUP1 SWAP2 POP POP PUSH1 0x1 SWAP1 SUB SWAP1 PUSH0 MSTORE PUSH1 0x20 PUSH0 KECCAK256 SWAP1 PUSH1 0x3 MUL ADD PUSH0 SWAP1 SWAP2 SWAP1 SWAP2 SWAP1 SWAP2 POP PUSH0 DUP3 ADD MLOAD DUP2 PUSH0 ADD SWAP1 DUP2 PUSH2 0xEE7 SWAP2 SWAP1 PUSH2 0x1BAC JUMP JUMPDEST POP PUSH1 0x20 DUP3 ADD MLOAD DUP2 PUSH1 0x1 ADD PUSH0 PUSH2 0x100 EXP DUP2 SLOAD DUP2 PUSH20 0xFFFFFFFFFFFFFFFFFFFFFFFFFFFFFFFFFFFFFFFF MUL NOT AND SWAP1 DUP4 PUSH20 0xFFFFFFFFFFFFFFFFFFFFFFFFFFFFFFFFFFFFFFFF AND MUL OR SWAP1 SSTORE POP PUSH1 0x40 DUP3 ADD MLOAD DUP2 PUSH1 0x2 ADD SSTORE POP POP POP POP POP JUMP JUMPDEST PUSH0 PUSH2 0xF48 PUSH2 0x4DD JUMP JUMPDEST POP PUSH0 DUP1 SLOAD SWAP1 POP SWAP1 POP SWAP1 JUMP JUMPDEST PUSH1 0x1 DUP2 DUP1 MLOAD PUSH1 0x20 DUP2 ADD DUP3 ADD DUP1 MLOAD DUP5 DUP3 MSTORE PUSH1 0x20 DUP4 ADD PUSH1 0x20 DUP6 ADD KECCAK256 DUP2 DUP4 MSTORE DUP1 SWAP6 POP POP POP POP POP POP PUSH0 SWAP2 POP SWAP1 POP DUP1 PUSH0 ADD PUSH0 SWAP1 SLOAD SWAP1 PUSH2 0x100 EXP SWAP1 DIV PUSH20 0xFFFFFFFFFFFFFFFFFFFFFFFFFFFFFFFFFFFFFFFF AND SWAP1 DUP1 PUSH1 0x1 ADD PUSH0 SWAP1 SLOAD SWAP1 PUSH2 0x100 EXP SWAP1 DIV PUSH20 0xFFFFFFFFFFFFFFFFFFFFFFFFFFFFFFFFFFFFFFFF AND SWAP1 DUP1 PUSH1 0x2 ADD DUP1 SLOAD PUSH2 0xFD4 SWAP1 PUSH2 0x1812 JUMP JUMPDEST DUP1 PUSH1 0x1F ADD PUSH1 0x20 DUP1 SWAP2 DIV MUL PUSH1 0x20 ADD PUSH1 0x40 MLOAD SWAP1 DUP2 ADD PUSH1 0x40 MSTORE DUP1 SWAP3 SWAP2 SWAP1 DUP2 DUP2 MSTORE PUSH1 0x20 ADD DUP3 DUP1 SLOAD PUSH2 0x1000 SWAP1 PUSH2 0x1812 JUMP JUMPDEST DUP1 ISZERO PUSH2 0x104B JUMPI DUP1 PUSH1 0x1F LT PUSH2 0x1022 JUMPI PUSH2 0x100 DUP1 DUP4 SLOAD DIV MUL DUP4 MSTORE SWAP2 PUSH1 0x20 ADD SWAP2 PUSH2 0x104B JUMP JUMPDEST DUP3 ADD SWAP2 SWAP1 PUSH0 MSTORE PUSH1 0x20 PUSH0 KECCAK256 SWAP1 JUMPDEST DUP2 SLOAD DUP2 MSTORE SWAP1 PUSH1 0x1 ADD SWAP1 PUSH1 0x20 ADD DUP1 DUP4 GT PUSH2 0x102E JUMPI DUP3 SWAP1 SUB PUSH1 0x1F AND DUP3 ADD SWAP2 JUMPDEST POP POP POP POP POP SWAP1 DUP1 PUSH1 0x3 ADD SLOAD SWAP1 DUP1 PUSH1 0x4 ADD SLOAD SWAP1 DUP1 PUSH1 0x5 ADD SLOAD SWAP1 DUP1 PUSH1 0x6 ADD PUSH0 SWAP1 SLOAD SWAP1 PUSH2 0x100 EXP SWAP1 DIV PUSH1 0xFF AND SWAP1 POP DUP8 JUMP JUMPDEST PUSH1 0x3 DUP2 DUP2 SLOAD DUP2 LT PUSH2 0x1088 JUMPI PUSH0 DUP1 REVERT JUMPDEST SWAP1 PUSH0 MSTORE PUSH1 0x20 PUSH0 KECCAK256 SWAP1 PUSH1 0x3 MUL ADD PUSH0 SWAP2 POP SWAP1 POP DUP1 PUSH0 ADD DUP1 SLOAD PUSH2 0x10A7 SWAP1 PUSH2 0x1812 JUMP JUMPDEST DUP1 PUSH1 0x1F ADD PUSH1 0x20 DUP1 SWAP2 DIV MUL PUSH1 0x20 ADD PUSH1 0x40 MLOAD SWAP1 DUP2 ADD PUSH1 0x40 MSTORE DUP1 SWAP3 SWAP2 SWAP1 DUP2 DUP2 MSTORE PUSH1 0x20 ADD DUP3 DUP1 SLOAD PUSH2 0x10D3 SWAP1 PUSH2 0x1812 JUMP JUMPDEST DUP1 ISZERO PUSH2 0x111E JUMPI DUP1 PUSH1 0x1F LT PUSH2 0x10F5 JUMPI PUSH2 0x100 DUP1 DUP4 SLOAD DIV MUL DUP4 MSTORE SWAP2 PUSH1 0x20 ADD SWAP2 PUSH2 0x111E JUMP JUMPDEST DUP3 ADD SWAP2 SWAP1 PUSH0 MSTORE PUSH1 0x20 PUSH0 KECCAK256 SWAP1 JUMPDEST DUP2 SLOAD DUP2 MSTORE SWAP1 PUSH1 0x1 ADD SWAP1 PUSH1 0x20 ADD DUP1 DUP4 GT PUSH2 0x1101 JUMPI DUP3 SWAP1 SUB PUSH1 0x1F AND DUP3 ADD SWAP2 JUMPDEST POP POP POP POP POP SWAP1 DUP1 PUSH1 0x1 ADD PUSH0 SWAP1 SLOAD SWAP1 PUSH2 0x100 EXP SWAP1 DIV PUSH20 0xFFFFFFFFFFFFFFFFFFFFFFFFFFFFFFFFFFFFFFFF AND SWAP1 DUP1 PUSH1 0x2 ADD SLOAD SWAP1 POP DUP4 JUMP JUMPDEST PUSH0 PUSH1 0x1 DUP3 PUSH1 0x40 MLOAD PUSH2 0x1164 SWAP2 SWAP1 PUSH2 0x17CF JUMP JUMPDEST SWAP1 DUP2 MSTORE PUSH1 0x20 ADD PUSH1 0x40 MLOAD DUP1 SWAP2 SUB SWAP1 KECCAK256 PUSH1 0x4 ADD SLOAD SWAP1 POP SWAP2 SWAP1 POP JUMP JUMPDEST PUSH0 PUSH1 0x40 MLOAD SWAP1 POP SWAP1 JUMP JUMPDEST PUSH0 DUP1 REVERT JUMPDEST PUSH0 DUP1 REVERT JUMPDEST PUSH0 DUP1 REVERT JUMPDEST PUSH0 DUP1 REVERT JUMPDEST PUSH0 PUSH1 0x1F NOT PUSH1 0x1F DUP4 ADD AND SWAP1 POP SWAP2 SWAP1 POP JUMP JUMPDEST PUSH32 0x4E487B7100000000000000000000000000000000000000000000000000000000 PUSH0 MSTORE PUSH1 0x41 PUSH1 0x4 MSTORE PUSH1 0x24 PUSH0 REVERT JUMPDEST PUSH2 0x11DC DUP3 PUSH2 0x1196 JUMP JUMPDEST DUP2 ADD DUP2 DUP2 LT PUSH8 0xFFFFFFFFFFFFFFFF DUP3 GT OR ISZERO PUSH2 0x11FB JUMPI PUSH2 0x11FA PUSH2 0x11A6 JUMP JUMPDEST JUMPDEST DUP1 PUSH1 0x40 MSTORE POP POP POP JUMP JUMPDEST PUSH0 PUSH2 0x120D PUSH2 0x117D JUMP JUMPDEST SWAP1 POP PUSH2 0x1219 DUP3 DUP3 PUSH2 0x11D3 JUMP JUMPDEST SWAP2 SWAP1 POP JUMP JUMPDEST PUSH0 PUSH8 0xFFFFFFFFFFFFFFFF DUP3 GT ISZERO PUSH2 0x1238 JUMPI PUSH2 0x1237 PUSH2 0x11A6 JUMP JUMPDEST JUMPDEST PUSH2 0x1241 DUP3 PUSH2 0x1196 JUMP JUMPDEST SWAP1 POP PUSH1 0x20 DUP2 ADD SWAP1 POP SWAP2 SWAP1 POP JUMP JUMPDEST DUP3 DUP2 DUP4 CALLDATACOPY PUSH0 DUP4 DUP4 ADD MSTORE POP POP POP JUMP JUMPDEST PUSH0 PUSH2 0x126E PUSH2 0x1269 DUP5 PUSH2 0x121E JUMP JUMPDEST PUSH2 0x1204 JUMP JUMPDEST SWAP1 POP DUP3 DUP2 MSTORE PUSH1 0x20 DUP2 ADD DUP5 DUP5 DUP5 ADD GT ISZERO PUSH2 0x128A JUMPI PUSH2 0x1289 PUSH2 0x1192 JUMP JUMPDEST JUMPDEST PUSH2 0x1295 DUP5 DUP3 DUP6 PUSH2 0x124E JUMP JUMPDEST POP SWAP4 SWAP3 POP POP POP JUMP JUMPDEST PUSH0 DUP3 PUSH1 0x1F DUP4 ADD SLT PUSH2 0x12B1 JUMPI PUSH2 0x12B0 PUSH2 0x118E JUMP JUMPDEST JUMPDEST DUP2 CALLDATALOAD PUSH2 0x12C1 DUP5 DUP3 PUSH1 0x20 DUP7 ADD PUSH2 0x125C JUMP JUMPDEST SWAP2 POP POP SWAP3 SWAP2 POP POP JUMP JUMPDEST PUSH0 PUSH1 0x20 DUP3 DUP5 SUB SLT ISZERO PUSH2 0x12DF JUMPI PUSH2 0x12DE PUSH2 0x1186 JUMP JUMPDEST JUMPDEST PUSH0 DUP3 ADD CALLDATALOAD PUSH8 0xFFFFFFFFFFFFFFFF DUP2 GT ISZERO PUSH2 0x12FC JUMPI PUSH2 0x12FB PUSH2 0x118A JUMP JUMPDEST JUMPDEST PUSH2 0x1308 DUP5 DUP3 DUP6 ADD PUSH2 0x129D JUMP JUMPDEST SWAP2 POP POP SWAP3 SWAP2 POP POP JUMP JUMPDEST PUSH0 DUP2 SWAP1 POP SWAP2 SWAP1 POP JUMP JUMPDEST PUSH2 0x1323 DUP2 PUSH2 0x1311 JUMP JUMPDEST DUP3 MSTORE POP POP JUMP JUMPDEST PUSH0 PUSH1 0x20 DUP3 ADD SWAP1 POP PUSH2 0x133C PUSH0 DUP4 ADD DUP5 PUSH2 0x131A JUMP JUMPDEST SWAP3 SWAP2 POP POP JUMP JUMPDEST PUSH2 0x134B DUP2 PUSH2 0x1311 JUMP JUMPDEST DUP2 EQ PUSH2 0x1355 JUMPI PUSH0 DUP1 REVERT JUMPDEST POP JUMP JUMPDEST PUSH0 DUP2 CALLDATALOAD SWAP1 POP PUSH2 0x1366 DUP2 PUSH2 0x1342 JUMP JUMPDEST SWAP3 SWAP2 POP POP JUMP JUMPDEST PUSH0 PUSH1 0x20 DUP3 DUP5 SUB SLT ISZERO PUSH2 0x1381 JUMPI PUSH2 0x1380 PUSH2 0x1186 JUMP JUMPDEST JUMPDEST PUSH0 PUSH2 0x138E DUP5 DUP3 DUP6 ADD PUSH2 0x1358 JUMP JUMPDEST SWAP2 POP POP SWAP3 SWAP2 POP POP JUMP JUMPDEST PUSH0 PUSH20 0xFFFFFFFFFFFFFFFFFFFFFFFFFFFFFFFFFFFFFFFF DUP3 AND SWAP1 POP SWAP2 SWAP1 POP JUMP JUMPDEST PUSH0 PUSH2 0x13C0 DUP3 PUSH2 0x1397 JUMP JUMPDEST SWAP1 POP SWAP2 SWAP1 POP JUMP JUMPDEST PUSH2 0x13D0 DUP2 PUSH2 0x13B6 JUMP JUMPDEST DUP3 MSTORE POP POP JUMP JUMPDEST PUSH0 PUSH1 0x20 DUP3 ADD SWAP1 POP PUSH2 0x13E9 PUSH0 DUP4 ADD DUP5 PUSH2 0x13C7 JUMP JUMPDEST SWAP3 SWAP2 POP POP JUMP JUMPDEST PUSH0 PUSH2 0x13F9 DUP3 PUSH2 0x1397 JUMP JUMPDEST SWAP1 POP SWAP2 SWAP1 POP JUMP JUMPDEST PUSH2 0x1409 DUP2 PUSH2 0x13EF JUMP JUMPDEST DUP3 MSTORE POP POP JUMP JUMPDEST PUSH0 DUP2 MLOAD SWAP1 POP SWAP2 SWAP1 POP JUMP JUMPDEST PUSH0 DUP3 DUP3 MSTORE PUSH1 0x20 DUP3 ADD SWAP1 POP SWAP3 SWAP2 POP POP JUMP JUMPDEST DUP3 DUP2 DUP4 MCOPY PUSH0 DUP4 DUP4 ADD MSTORE POP POP POP JUMP JUMPDEST PUSH0 PUSH2 0x1441 DUP3 PUSH2 0x140F JUMP JUMPDEST PUSH2 0x144B DUP2 DUP6 PUSH2 0x1419 JUMP JUMPDEST SWAP4 POP PUSH2 0x145B DUP2 DUP6 PUSH1 0x20 DUP7 ADD PUSH2 0x1429 JUMP JUMPDEST PUSH2 0x1464 DUP2 PUSH2 0x1196 JUMP JUMPDEST DUP5 ADD SWAP2 POP POP SWAP3 SWAP2 POP POP JUMP JUMPDEST PUSH0 DUP2 ISZERO ISZERO SWAP1 POP SWAP2 SWAP1 POP JUMP JUMPDEST PUSH2 0x1483 DUP2 PUSH2 0x146F JUMP JUMPDEST DUP3 MSTORE POP POP JUMP JUMPDEST PUSH0 PUSH1 0xE0 DUP3 ADD SWAP1 POP PUSH2 0x149C PUSH0 DUP4 ADD DUP11 PUSH2 0x1400 JUMP JUMPDEST PUSH2 0x14A9 PUSH1 0x20 DUP4 ADD DUP10 PUSH2 0x1400 JUMP JUMPDEST DUP2 DUP2 SUB PUSH1 0x40 DUP4 ADD MSTORE PUSH2 0x14BB DUP2 DUP9 PUSH2 0x1437 JUMP JUMPDEST SWAP1 POP PUSH2 0x14CA PUSH1 0x60 DUP4 ADD DUP8 PUSH2 0x131A JUMP JUMPDEST PUSH2 0x14D7 PUSH1 0x80 DUP4 ADD DUP7 PUSH2 0x131A JUMP JUMPDEST PUSH2 0x14E4 PUSH1 0xA0 DUP4 ADD DUP6 PUSH2 0x131A JUMP JUMPDEST PUSH2 0x14F1 PUSH1 0xC0 DUP4 ADD DUP5 PUSH2 0x147A JUMP JUMPDEST SWAP9 SWAP8 POP POP POP POP POP POP POP POP JUMP JUMPDEST PUSH0 DUP2 MLOAD SWAP1 POP SWAP2 SWAP1 POP JUMP JUMPDEST PUSH0 DUP3 DUP3 MSTORE PUSH1 0x20 DUP3 ADD SWAP1 POP SWAP3 SWAP2 POP POP JUMP JUMPDEST PUSH0 DUP2 SWAP1 POP PUSH1 0x20 DUP3 ADD SWAP1 POP SWAP2 SWAP1 POP JUMP JUMPDEST PUSH0 DUP3 DUP3 MSTORE PUSH1 0x20 DUP3 ADD SWAP1 POP SWAP3 SWAP2 POP POP JUMP JUMPDEST PUSH0 PUSH2 0x1540 DUP3 PUSH2 0x140F JUMP JUMPDEST PUSH2 0x154A DUP2 DUP6 PUSH2 0x1526 JUMP JUMPDEST SWAP4 POP PUSH2 0x155A DUP2 DUP6 PUSH1 0x20 DUP7 ADD PUSH2 0x1429 JUMP JUMPDEST PUSH2 0x1563 DUP2 PUSH2 0x1196 JUMP JUMPDEST DUP5 ADD SWAP2 POP POP SWAP3 SWAP2 POP POP JUMP JUMPDEST PUSH0 PUSH2 0x1579 DUP4 DUP4 PUSH2 0x1536 JUMP JUMPDEST SWAP1 POP SWAP3 SWAP2 POP POP JUMP JUMPDEST PUSH0 PUSH1 0x20 DUP3 ADD SWAP1 POP SWAP2 SWAP1 POP JUMP JUMPDEST PUSH0 PUSH2 0x1597 DUP3 PUSH2 0x14FD JUMP JUMPDEST PUSH2 0x15A1 DUP2 DUP6 PUSH2 0x1507 JUMP JUMPDEST SWAP4 POP DUP4 PUSH1 0x20 DUP3 MUL DUP6 ADD PUSH2 0x15B3 DUP6 PUSH2 0x1517 JUMP JUMPDEST DUP1 PUSH0 JUMPDEST DUP6 DUP2 LT ISZERO PUSH2 0x15EE JUMPI DUP5 DUP5 SUB DUP10 MSTORE DUP2 MLOAD PUSH2 0x15CF DUP6 DUP3 PUSH2 0x156E JUMP JUMPDEST SWAP5 POP PUSH2 0x15DA DUP4 PUSH2 0x1581 JUMP JUMPDEST SWAP3 POP PUSH1 0x20 DUP11 ADD SWAP10 POP POP PUSH1 0x1 DUP2 ADD SWAP1 POP PUSH2 0x15B6 JUMP JUMPDEST POP DUP3 SWAP8 POP DUP8 SWAP6 POP POP POP POP POP POP SWAP3 SWAP2 POP POP JUMP JUMPDEST PUSH0 PUSH1 0x20 DUP3 ADD SWAP1 POP DUP2 DUP2 SUB PUSH0 DUP4 ADD MSTORE PUSH2 0x1618 DUP2 DUP5 PUSH2 0x158D JUMP JUMPDEST SWAP1 POP SWAP3 SWAP2 POP POP JUMP JUMPDEST PUSH2 0x1629 DUP2 PUSH2 0x13EF JUMP JUMPDEST DUP2 EQ PUSH2 0x1633 JUMPI PUSH0 DUP1 REVERT JUMPDEST POP JUMP JUMPDEST PUSH0 DUP2 CALLDATALOAD SWAP1 POP PUSH2 0x1644 DUP2 PUSH2 0x1620 JUMP JUMPDEST SWAP3 SWAP2 POP POP JUMP JUMPDEST PUSH0 DUP1 PUSH0 DUP1 PUSH1 0x80 DUP6 DUP8 SUB SLT ISZERO PUSH2 0x1662 JUMPI PUSH2 0x1661 PUSH2 0x1186 JUMP JUMPDEST JUMPDEST PUSH0 PUSH2 0x166F DUP8 DUP3 DUP9 ADD PUSH2 0x1636 JUMP JUMPDEST SWAP5 POP POP PUSH1 0x20 DUP6 ADD CALLDATALOAD PUSH8 0xFFFFFFFFFFFFFFFF DUP2 GT ISZERO PUSH2 0x1690 JUMPI PUSH2 0x168F PUSH2 0x118A JUMP JUMPDEST JUMPDEST PUSH2 0x169C DUP8 DUP3 DUP9 ADD PUSH2 0x129D JUMP JUMPDEST SWAP4 POP POP PUSH1 0x40 PUSH2 0x16AD DUP8 DUP3 DUP9 ADD PUSH2 0x1358 JUMP JUMPDEST SWAP3 POP POP PUSH1 0x60 PUSH2 0x16BE DUP8 DUP3 DUP9 ADD PUSH2 0x1358 JUMP JUMPDEST SWAP2 POP POP SWAP3 SWAP6 SWAP2 SWAP5 POP SWAP3 POP JUMP JUMPDEST PUSH0 PUSH1 0x60 DUP3 ADD SWAP1 POP PUSH2 0x16DD PUSH0 DUP4 ADD DUP7 PUSH2 0x1400 JUMP JUMPDEST PUSH2 0x16EA PUSH1 0x20 DUP4 ADD DUP6 PUSH2 0x131A JUMP JUMPDEST PUSH2 0x16F7 PUSH1 0x40 DUP4 ADD DUP5 PUSH2 0x131A JUMP JUMPDEST SWAP5 SWAP4 POP POP POP POP JUMP JUMPDEST PUSH0 DUP1 PUSH1 0x40 DUP4 DUP6 SUB SLT ISZERO PUSH2 0x1715 JUMPI PUSH2 0x1714 PUSH2 0x1186 JUMP JUMPDEST JUMPDEST PUSH0 DUP4 ADD CALLDATALOAD PUSH8 0xFFFFFFFFFFFFFFFF DUP2 GT ISZERO PUSH2 0x1732 JUMPI PUSH2 0x1731 PUSH2 0x118A JUMP JUMPDEST JUMPDEST PUSH2 0x173E DUP6 DUP3 DUP7 ADD PUSH2 0x129D JUMP JUMPDEST SWAP3 POP POP PUSH1 0x20 PUSH2 0x174F DUP6 DUP3 DUP7 ADD PUSH2 0x1358 JUMP JUMPDEST SWAP2 POP POP SWAP3 POP SWAP3 SWAP1 POP JUMP JUMPDEST PUSH0 PUSH1 0x60 DUP3 ADD SWAP1 POP DUP2 DUP2 SUB PUSH0 DUP4 ADD MSTORE PUSH2 0x1771 DUP2 DUP7 PUSH2 0x1437 JUMP JUMPDEST SWAP1 POP PUSH2 0x1780 PUSH1 0x20 DUP4 ADD DUP6 PUSH2 0x13C7 JUMP JUMPDEST PUSH2 0x178D PUSH1 0x40 DUP4 ADD DUP5 PUSH2 0x131A JUMP JUMPDEST SWAP5 SWAP4 POP POP POP POP JUMP JUMPDEST PUSH0 DUP2 SWAP1 POP SWAP3 SWAP2 POP POP JUMP JUMPDEST PUSH0 PUSH2 0x17A9 DUP3 PUSH2 0x140F JUMP JUMPDEST PUSH2 0x17B3 DUP2 DUP6 PUSH2 0x1795 JUMP JUMPDEST SWAP4 POP PUSH2 0x17C3 DUP2 DUP6 PUSH1 0x20 DUP7 ADD PUSH2 0x1429 JUMP JUMPDEST DUP1 DUP5 ADD SWAP2 POP POP SWAP3 SWAP2 POP POP JUMP JUMPDEST PUSH0 PUSH2 0x17DA DUP3 DUP5 PUSH2 0x179F JUMP JUMPDEST SWAP2 POP DUP2 SWAP1 POP SWAP3 SWAP2 POP POP JUMP JUMPDEST PUSH32 0x4E487B7100000000000000000000000000000000000000000000000000000000 PUSH0 MSTORE PUSH1 0x22 PUSH1 0x4 MSTORE PUSH1 0x24 PUSH0 REVERT JUMPDEST PUSH0 PUSH1 0x2 DUP3 DIV SWAP1 POP PUSH1 0x1 DUP3 AND DUP1 PUSH2 0x1829 JUMPI PUSH1 0x7F DUP3 AND SWAP2 POP JUMPDEST PUSH1 0x20 DUP3 LT DUP2 SUB PUSH2 0x183C JUMPI PUSH2 0x183B PUSH2 0x17E5 JUMP JUMPDEST JUMPDEST POP SWAP2 SWAP1 POP JUMP JUMPDEST PUSH32 0x4E487B7100000000000000000000000000000000000000000000000000000000 PUSH0 MSTORE PUSH1 0x32 PUSH1 0x4 MSTORE PUSH1 0x24 PUSH0 REVERT JUMPDEST PUSH32 0x47757920796F75206E6F2066697420637265617465206E616D65206E69690000 PUSH0 DUP3 ADD MSTORE POP JUMP JUMPDEST PUSH0 PUSH2 0x18A3 PUSH1 0x1E DUP4 PUSH2 0x1419 JUMP JUMPDEST SWAP2 POP PUSH2 0x18AE DUP3 PUSH2 0x186F JUMP JUMPDEST PUSH1 0x20 DUP3 ADD SWAP1 POP SWAP2 SWAP1 POP JUMP JUMPDEST PUSH0 PUSH1 0x20 DUP3 ADD SWAP1 POP DUP2 DUP2 SUB PUSH0 DUP4 ADD MSTORE PUSH2 0x18D0 DUP2 PUSH2 0x1897 JUMP JUMPDEST SWAP1 POP SWAP2 SWAP1 POP JUMP JUMPDEST PUSH32 0x5768696368206B696E6420616464726573732062652074686973000000000000 PUSH0 DUP3 ADD MSTORE POP JUMP JUMPDEST PUSH0 PUSH2 0x190B PUSH1 0x1A DUP4 PUSH2 0x1419 JUMP JUMPDEST SWAP2 POP PUSH2 0x1916 DUP3 PUSH2 0x18D7 JUMP JUMPDEST PUSH1 0x20 DUP3 ADD SWAP1 POP SWAP2 SWAP1 POP JUMP JUMPDEST PUSH0 PUSH1 0x20 DUP3 ADD SWAP1 POP DUP2 DUP2 SUB PUSH0 DUP4 ADD MSTORE PUSH2 0x1938 DUP2 PUSH2 0x18FF JUMP JUMPDEST SWAP1 POP SWAP2 SWAP1 POP JUMP JUMPDEST PUSH32 0x596F75722063616D706169676E206E6F20676574206E616D6500000000000000 PUSH0 DUP3 ADD MSTORE POP JUMP JUMPDEST PUSH0 PUSH2 0x1973 PUSH1 0x19 DUP4 PUSH2 0x1419 JUMP JUMPDEST SWAP2 POP PUSH2 0x197E DUP3 PUSH2 0x193F JUMP JUMPDEST PUSH1 0x20 DUP3 ADD SWAP1 POP SWAP2 SWAP1 POP JUMP JUMPDEST PUSH0 PUSH1 0x20 DUP3 ADD SWAP1 POP DUP2 DUP2 SUB PUSH0 DUP4 ADD MSTORE PUSH2 0x19A0 DUP2 PUSH2 0x1967 JUMP JUMPDEST SWAP1 POP SWAP2 SWAP1 POP JUMP JUMPDEST PUSH32 0x42727568682063616E20796F75206E6F7420646F20746861743F000000000000 PUSH0 DUP3 ADD MSTORE POP JUMP JUMPDEST PUSH0 PUSH2 0x19DB PUSH1 0x1A DUP4 PUSH2 0x1419 JUMP JUMPDEST SWAP2 POP PUSH2 0x19E6 DUP3 PUSH2 0x19A7 JUMP JUMPDEST PUSH1 0x20 DUP3 ADD SWAP1 POP SWAP2 SWAP1 POP JUMP JUMPDEST PUSH0 PUSH1 0x20 DUP3 ADD SWAP1 POP DUP2 DUP2 SUB PUSH0 DUP4 ADD MSTORE PUSH2 0x1A08 DUP2 PUSH2 0x19CF JUMP JUMPDEST SWAP1 POP SWAP2 SWAP1 POP JUMP JUMPDEST PUSH0 DUP2 SWAP1 POP DUP2 PUSH0 MSTORE PUSH1 0x20 PUSH0 KECCAK256 SWAP1 POP SWAP2 SWAP1 POP JUMP JUMPDEST PUSH0 PUSH1 0x20 PUSH1 0x1F DUP4 ADD DIV SWAP1 POP SWAP2 SWAP1 POP JUMP JUMPDEST PUSH0 DUP3 DUP3 SHL SWAP1 POP SWAP3 SWAP2 POP POP JUMP JUMPDEST PUSH0 PUSH1 0x8 DUP4 MUL PUSH2 0x1A6B PUSH32 0xFFFFFFFFFFFFFFFFFFFFFFFFFFFFFFFFFFFFFFFFFFFFFFFFFFFFFFFFFFFFFFFF DUP3 PUSH2 0x1A30 JUMP JUMPDEST PUSH2 0x1A75 DUP7 DUP4 PUSH2 0x1A30 JUMP JUMPDEST SWAP6 POP DUP1 NOT DUP5 AND SWAP4 POP DUP1 DUP7 AND DUP5 OR SWAP3 POP POP POP SWAP4 SWAP3 POP POP POP JUMP JUMPDEST PUSH0 DUP2 SWAP1 POP SWAP2 SWAP1 POP JUMP JUMPDEST PUSH0 PUSH2 0x1AB0 PUSH2 0x1AAB PUSH2 0x1AA6 DUP5 PUSH2 0x1311 JUMP JUMPDEST PUSH2 0x1A8D JUMP JUMPDEST PUSH2 0x1311 JUMP JUMPDEST SWAP1 POP SWAP2 SWAP1 POP JUMP JUMPDEST PUSH0 DUP2 SWAP1 POP SWAP2 SWAP1 POP JUMP JUMPDEST PUSH2 0x1AC9 DUP4 PUSH2 0x1A96 JUMP JUMPDEST PUSH2 0x1ADD PUSH2 0x1AD5 DUP3 PUSH2 0x1AB7 JUMP JUMPDEST DUP5 DUP5 SLOAD PUSH2 0x1A3C JUMP JUMPDEST DUP3 SSTORE POP POP POP POP JUMP JUMPDEST PUSH0 SWAP1 JUMP JUMPDEST PUSH2 0x1AF1 PUSH2 0x1AE5 JUMP JUMPDEST PUSH2 0x1AFC DUP2 DUP5 DUP5 PUSH2 0x1AC0 JUMP JUMPDEST POP POP POP JUMP JUMPDEST JUMPDEST DUP2 DUP2 LT ISZERO PUSH2 0x1B1F JUMPI PUSH2 0x1B14 PUSH0 DUP3 PUSH2 0x1AE9 JUMP JUMPDEST PUSH1 0x1 DUP2 ADD SWAP1 POP PUSH2 0x1B02 JUMP JUMPDEST POP POP JUMP JUMPDEST PUSH1 0x1F DUP3 GT ISZERO PUSH2 0x1B64 JUMPI PUSH2 0x1B35 DUP2 PUSH2 0x1A0F JUMP JUMPDEST PUSH2 0x1B3E DUP5 PUSH2 0x1A21 JUMP JUMPDEST DUP2 ADD PUSH1 0x20 DUP6 LT ISZERO PUSH2 0x1B4D JUMPI DUP2 SWAP1 POP JUMPDEST PUSH2 0x1B61 PUSH2 0x1B59 DUP6 PUSH2 0x1A21 JUMP JUMPDEST DUP4 ADD DUP3 PUSH2 0x1B01 JUMP JUMPDEST POP POP JUMPDEST POP POP POP JUMP JUMPDEST PUSH0 DUP3 DUP3 SHR SWAP1 POP SWAP3 SWAP2 POP POP JUMP JUMPDEST PUSH0 PUSH2 0x1B84 PUSH0 NOT DUP5 PUSH1 0x8 MUL PUSH2 0x1B69 JUMP JUMPDEST NOT DUP1 DUP4 AND SWAP2 POP POP SWAP3 SWAP2 POP POP JUMP JUMPDEST PUSH0 PUSH2 0x1B9C DUP4 DUP4 PUSH2 0x1B75 JUMP JUMPDEST SWAP2 POP DUP3 PUSH1 0x2 MUL DUP3 OR SWAP1 POP SWAP3 SWAP2 POP POP JUMP JUMPDEST PUSH2 0x1BB5 DUP3 PUSH2 0x140F JUMP JUMPDEST PUSH8 0xFFFFFFFFFFFFFFFF DUP2 GT ISZERO PUSH2 0x1BCE JUMPI PUSH2 0x1BCD PUSH2 0x11A6 JUMP JUMPDEST JUMPDEST PUSH2 0x1BD8 DUP3 SLOAD PUSH2 0x1812 JUMP JUMPDEST PUSH2 0x1BE3 DUP3 DUP3 DUP6 PUSH2 0x1B23 JUMP JUMPDEST PUSH0 PUSH1 0x20 SWAP1 POP PUSH1 0x1F DUP4 GT PUSH1 0x1 DUP2 EQ PUSH2 0x1C14 JUMPI PUSH0 DUP5 ISZERO PUSH2 0x1C02 JUMPI DUP3 DUP8 ADD MLOAD SWAP1 POP JUMPDEST PUSH2 0x1C0C DUP6 DUP3 PUSH2 0x1B91 JUMP JUMPDEST DUP7 SSTORE POP PUSH2 0x1C73 JUMP JUMPDEST PUSH1 0x1F NOT DUP5 AND PUSH2 0x1C22 DUP7 PUSH2 0x1A0F JUMP JUMPDEST PUSH0 JUMPDEST DUP3 DUP2 LT ISZERO PUSH2 0x1C49 JUMPI DUP5 DUP10 ADD MLOAD DUP3 SSTORE PUSH1 0x1 DUP3 ADD SWAP2 POP PUSH1 0x20 DUP6 ADD SWAP5 POP PUSH1 0x20 DUP2 ADD SWAP1 POP PUSH2 0x1C24 JUMP JUMPDEST DUP7 DUP4 LT ISZERO PUSH2 0x1C66 JUMPI DUP5 DUP10 ADD MLOAD PUSH2 0x1C62 PUSH1 0x1F DUP10 AND DUP3 PUSH2 0x1B75 JUMP JUMPDEST DUP4 SSTORE POP JUMPDEST PUSH1 0x1 PUSH1 0x2 DUP9 MUL ADD DUP9 SSTORE POP POP POP JUMPDEST POP POP POP POP POP POP JUMP JUMPDEST PUSH32 0x4E6F207374696E677920636F6E747269627574696F6E73204865726500000000 PUSH0 DUP3 ADD MSTORE POP JUMP JUMPDEST PUSH0 PUSH2 0x1CAF PUSH1 0x1C DUP4 PUSH2 0x1419 JUMP JUMPDEST SWAP2 POP PUSH2 0x1CBA DUP3 PUSH2 0x1C7B JUMP JUMPDEST PUSH1 0x20 DUP3 ADD SWAP1 POP SWAP2 SWAP1 POP JUMP JUMPDEST PUSH0 PUSH1 0x20 DUP3 ADD SWAP1 POP DUP2 DUP2 SUB PUSH0 DUP4 ADD MSTORE PUSH2 0x1CDC DUP2 PUSH2 0x1CA3 JUMP JUMPDEST SWAP1 POP SWAP2 SWAP1 POP JUMP JUMPDEST PUSH32 0x4E487B7100000000000000000000000000000000000000000000000000000000 PUSH0 MSTORE PUSH1 0x11 PUSH1 0x4 MSTORE PUSH1 0x24 PUSH0 REVERT JUMPDEST PUSH0 PUSH2 0x1D1A DUP3 PUSH2 0x1311 JUMP JUMPDEST SWAP2 POP PUSH2 0x1D25 DUP4 PUSH2 0x1311 JUMP JUMPDEST SWAP3 POP DUP3 DUP3 ADD SWAP1 POP DUP1 DUP3 GT ISZERO PUSH2 0x1D3D JUMPI PUSH2 0x1D3C PUSH2 0x1CE3 JUMP JUMPDEST JUMPDEST SWAP3 SWAP2 POP POP JUMP INVALID LOG2 PUSH5 0x6970667358 0x22 SLT KECCAK256 0x2E STATICCALL 0x29 0xB2 0xC5 0xB2 SWAP11 DUP10 0xAB PUSH11 0x23EE4D636B8D0B6AF9A0AA PUSH25 0x8CE24B03C869978A8AE464736F6C634300081A003300000000 "
				},
				"gasEstimates": {
					"creation": {
						"codeDepositCost": "1509000",
						"executionCost": "25787",
						"totalCost": "1534787"
					},
					"external": {
						"allContributors(uint256)": "infinite",
						"campaignList(uint256)": "infinite",
						"contribute(string,uint256)": "infinite",
						"contributors(uint256)": "4989",
						"createCampaign(address,string,uint256,uint256)": "infinite",
						"getActiveCampaigns()": "infinite",
						"getAllCampaigns()": "infinite",
						"getBalance(string)": "infinite",
						"getCampaigns(string)": "infinite",
						"getDeadline(string)": "infinite",
						"getGoal(string)": "infinite",
						"titleToCampaign(string)": "infinite"
					}
				},
				"methodIdentifiers": {
					"allContributors(uint256)": "e07439f7",
					"campaignList(uint256)": "4912c658",
					"contribute(string,uint256)": "ae817f9a",
					"contributors(uint256)": "3cb5d100",
					"createCampaign(address,string,uint256,uint256)": "90f9f50c",
					"getActiveCampaigns()": "c362b156",
					"getAllCampaigns()": "86cdf604",
					"getBalance(string)": "3a51d246",
					"getCampaigns(string)": "9fb9f379",
					"getDeadline(string)": "0e3c96db",
					"getGoal(string)": "f63aa8a5",
					"titleToCampaign(string)": "c50a40d0"
				}
			},
			"storageLayout": {
				"storage": [
					{
						"astId": 176,
						"contract": "CrowdFundingApp/Campaign.sol:Campaign",
						"label": "campaignList",
						"offset": 0,
						"slot": "0",
						"type": "t_array(t_struct(Campaign)172_storage)dyn_storage"
					},
					{
						"astId": 181,
						"contract": "CrowdFundingApp/Campaign.sol:Campaign",
						"label": "titleToCampaign",
						"offset": 0,
						"slot": "1",
						"type": "t_mapping(t_string_memory_ptr,t_struct(Campaign)172_storage)"
					},
					{
						"astId": 15,
						"contract": "CrowdFundingApp/Campaign.sol:Campaign",
						"label": "contributors",
						"offset": 0,
						"slot": "2",
						"type": "t_array(t_address)dyn_storage"
					},
					{
						"astId": 19,
						"contract": "CrowdFundingApp/Campaign.sol:Campaign",
						"label": "allContributors",
						"offset": 0,
						"slot": "3",
						"type": "t_array(t_struct(Contributor)12_storage)dyn_storage"
					},
					{
						"astId": 23,
						"contract": "CrowdFundingApp/Campaign.sol:Campaign",
						"label": "contributorId",
						"offset": 0,
						"slot": "4",
						"type": "t_mapping(t_uint256,t_address)"
					},
					{
						"astId": 28,
						"contract": "CrowdFundingApp/Campaign.sol:Campaign",
						"label": "contributorsList",
						"offset": 0,
						"slot": "5",
						"type": "t_mapping(t_address,t_struct(Contributor)12_storage)"
					},
					{
						"astId": 32,
						"contract": "CrowdFundingApp/Campaign.sol:Campaign",
						"label": "addressToAmount",
						"offset": 0,
						"slot": "6",
						"type": "t_mapping(t_address,t_uint256)"
					},
					{
						"astId": 36,
						"contract": "CrowdFundingApp/Campaign.sol:Campaign",
						"label": "contributorCount",
						"offset": 0,
						"slot": "7",
						"type": "t_uint256"
					}
				],
				"types": {
					"t_address": {
						"encoding": "inplace",
						"label": "address",
						"numberOfBytes": "20"
					},
					"t_address_payable": {
						"encoding": "inplace",
						"label": "address payable",
						"numberOfBytes": "20"
					},
					"t_array(t_address)dyn_storage": {
						"base": "t_address",
						"encoding": "dynamic_array",
						"label": "address[]",
						"numberOfBytes": "32"
					},
					"t_array(t_struct(Campaign)172_storage)dyn_storage": {
						"base": "t_struct(Campaign)172_storage",
						"encoding": "dynamic_array",
						"label": "struct Factory.Campaign[]",
						"numberOfBytes": "32"
					},
					"t_array(t_struct(Contributor)12_storage)dyn_storage": {
						"base": "t_struct(Contributor)12_storage",
						"encoding": "dynamic_array",
						"label": "struct Campaign.Contributor[]",
						"numberOfBytes": "32"
					},
					"t_bool": {
						"encoding": "inplace",
						"label": "bool",
						"numberOfBytes": "1"
					},
					"t_mapping(t_address,t_struct(Contributor)12_storage)": {
						"encoding": "mapping",
						"key": "t_address",
						"label": "mapping(address => struct Campaign.Contributor)",
						"numberOfBytes": "32",
						"value": "t_struct(Contributor)12_storage"
					},
					"t_mapping(t_address,t_uint256)": {
						"encoding": "mapping",
						"key": "t_address",
						"label": "mapping(address => uint256)",
						"numberOfBytes": "32",
						"value": "t_uint256"
					},
					"t_mapping(t_string_memory_ptr,t_struct(Campaign)172_storage)": {
						"encoding": "mapping",
						"key": "t_string_memory_ptr",
						"label": "mapping(string => struct Factory.Campaign)",
						"numberOfBytes": "32",
						"value": "t_struct(Campaign)172_storage"
					},
					"t_mapping(t_uint256,t_address)": {
						"encoding": "mapping",
						"key": "t_uint256",
						"label": "mapping(uint256 => address)",
						"numberOfBytes": "32",
						"value": "t_address"
					},
					"t_string_memory_ptr": {
						"encoding": "bytes",
						"label": "string",
						"numberOfBytes": "32"
					},
					"t_string_storage": {
						"encoding": "bytes",
						"label": "string",
						"numberOfBytes": "32"
					},
					"t_struct(Campaign)172_storage": {
						"encoding": "inplace",
						"label": "struct Factory.Campaign",
						"members": [
							{
								"astId": 159,
								"contract": "CrowdFundingApp/Campaign.sol:Campaign",
								"label": "campaignOwner",
								"offset": 0,
								"slot": "0",
								"type": "t_address_payable"
							},
							{
								"astId": 161,
								"contract": "CrowdFundingApp/Campaign.sol:Campaign",
								"label": "beneficiary",
								"offset": 0,
								"slot": "1",
								"type": "t_address_payable"
							},
							{
								"astId": 163,
								"contract": "CrowdFundingApp/Campaign.sol:Campaign",
								"label": "title",
								"offset": 0,
								"slot": "2",
								"type": "t_string_storage"
							},
							{
								"astId": 165,
								"contract": "CrowdFundingApp/Campaign.sol:Campaign",
								"label": "deadline",
								"offset": 0,
								"slot": "3",
								"type": "t_uint256"
							},
							{
								"astId": 167,
								"contract": "CrowdFundingApp/Campaign.sol:Campaign",
								"label": "amountToRaise",
								"offset": 0,
								"slot": "4",
								"type": "t_uint256"
							},
							{
								"astId": 169,
								"contract": "CrowdFundingApp/Campaign.sol:Campaign",
								"label": "raisedAmount",
								"offset": 0,
								"slot": "5",
								"type": "t_uint256"
							},
							{
								"astId": 171,
								"contract": "CrowdFundingApp/Campaign.sol:Campaign",
								"label": "closed",
								"offset": 0,
								"slot": "6",
								"type": "t_bool"
							}
						],
						"numberOfBytes": "224"
					},
					"t_struct(Contributor)12_storage": {
						"encoding": "inplace",
						"label": "struct Campaign.Contributor",
						"members": [
							{
								"astId": 7,
								"contract": "CrowdFundingApp/Campaign.sol:Campaign",
								"label": "campaignToVote",
								"offset": 0,
								"slot": "0",
								"type": "t_string_storage"
							},
							{
								"astId": 9,
								"contract": "CrowdFundingApp/Campaign.sol:Campaign",
								"label": "contributorAddress",
								"offset": 0,
								"slot": "1",
								"type": "t_address"
							},
							{
								"astId": 11,
								"contract": "CrowdFundingApp/Campaign.sol:Campaign",
								"label": "contributions",
								"offset": 0,
								"slot": "2",
								"type": "t_uint256"
							}
						],
						"numberOfBytes": "96"
					},
					"t_uint256": {
						"encoding": "inplace",
						"label": "uint256",
						"numberOfBytes": "32"
					}
				}
			},
			"userdoc": {
				"kind": "user",
				"methods": {},
				"version": 1
			}
		}
	}
}