{
	"CrowdFundingApp/Factory.sol": {
		"Factory": {
			"abi": [
				{
					"inputs": [
						{
							"internalType": "uint256",
							"name": "",
							"type": "uint256"
						}
					],
					"name": "campaignList",
					"outputs": [
						{
							"internalType": "address payable",
							"name": "campaignOwner",
							"type": "address"
						},
						{
							"internalType": "address payable",
							"name": "beneficiary",
							"type": "address"
						},
						{
							"internalType": "string",
							"name": "title",
							"type": "string"
						},
						{
							"internalType": "uint256",
							"name": "deadline",
							"type": "uint256"
						},
						{
							"internalType": "uint256",
							"name": "amountToRaise",
							"type": "uint256"
						},
						{
							"internalType": "uint256",
							"name": "raisedAmount",
							"type": "uint256"
						},
						{
							"internalType": "bool",
							"name": "closed",
							"type": "bool"
						}
					],
					"stateMutability": "view",
					"type": "function"
				},
				{
					"inputs": [
						{
							"internalType": "string",
							"name": "title",
							"type": "string"
						}
					],
					"name": "closeCampaign",
					"outputs": [],
					"stateMutability": "nonpayable",
					"type": "function"
				},
				{
					"inputs": [
						{
							"internalType": "address payable",
							"name": "beneficiary",
							"type": "address"
						},
						{
							"internalType": "string",
							"name": "title",
							"type": "string"
						},
						{
							"internalType": "uint256",
							"name": "deadline",
							"type": "uint256"
						},
						{
							"internalType": "uint256",
							"name": "amountToRaise",
							"type": "uint256"
						}
					],
					"name": "createCampaign",
					"outputs": [],
					"stateMutability": "nonpayable",
					"type": "function"
				},
				{
					"inputs": [],
					"name": "getAllCampaigns",
					"outputs": [
						{
							"components": [
								{
									"internalType": "address payable",
									"name": "campaignOwner",
									"type": "address"
								},
								{
									"internalType": "address payable",
									"name": "beneficiary",
									"type": "address"
								},
								{
									"internalType": "string",
									"name": "title",
									"type": "string"
								},
								{
									"internalType": "uint256",
									"name": "deadline",
									"type": "uint256"
								},
								{
									"internalType": "uint256",
									"name": "amountToRaise",
									"type": "uint256"
								},
								{
									"internalType": "uint256",
									"name": "raisedAmount",
									"type": "uint256"
								},
								{
									"internalType": "bool",
									"name": "closed",
									"type": "bool"
								}
							],
							"internalType": "struct Factory.Campaign[]",
							"name": "",
							"type": "tuple[]"
						}
					],
					"stateMutability": "view",
					"type": "function"
				},
				{
					"inputs": [
						{
							"internalType": "string",
							"name": "title",
							"type": "string"
						}
					],
					"name": "getCampaigns",
					"outputs": [
						{
							"internalType": "address payable",
							"name": "beneficiary",
							"type": "address"
						},
						{
							"internalType": "uint256",
							"name": "raisedAmount",
							"type": "uint256"
						},
						{
							"internalType": "uint256",
							"name": "deadline",
							"type": "uint256"
						}
					],
					"stateMutability": "view",
					"type": "function"
				},
				{
					"inputs": [
						{
							"internalType": "string",
							"name": "",
							"type": "string"
						}
					],
					"name": "titleToCampaign",
					"outputs": [
						{
							"internalType": "address payable",
							"name": "campaignOwner",
							"type": "address"
						},
						{
							"internalType": "address payable",
							"name": "beneficiary",
							"type": "address"
						},
						{
							"internalType": "string",
							"name": "title",
							"type": "string"
						},
						{
							"internalType": "uint256",
							"name": "deadline",
							"type": "uint256"
						},
						{
							"internalType": "uint256",
							"name": "amountToRaise",
							"type": "uint256"
						},
						{
							"internalType": "uint256",
							"name": "raisedAmount",
							"type": "uint256"
						},
						{
							"internalType": "bool",
							"name": "closed",
							"type": "bool"
						}
					],
					"stateMutability": "view",
					"type": "function"
				}
			],
			"devdoc": {
				"kind": "dev",
				"methods": {},
				"version": 1
			},
			"evm": {
				"assembly": "    /* \"CrowdFundingApp/Factory.sol\":57:2742  contract Factory{... */\n  mstore(0x40, 0x80)\n  callvalue\n  dup1\n  iszero\n  tag_1\n  jumpi\n  0x00\n  dup1\n  revert\ntag_1:\n  pop\n  dataSize(sub_0)\n  dup1\n  dataOffset(sub_0)\n  0x00\n  codecopy\n  0x00\n  return\nstop\n\nsub_0: assembly {\n        /* \"CrowdFundingApp/Factory.sol\":57:2742  contract Factory{... */\n      mstore(0x40, 0x80)\n      callvalue\n      dup1\n      iszero\n      tag_1\n      jumpi\n      0x00\n      dup1\n      revert\n    tag_1:\n      pop\n      jumpi(tag_2, lt(calldatasize, 0x04))\n      shr(0xe0, calldataload(0x00))\n      dup1\n      0x4912c658\n      eq\n      tag_3\n      jumpi\n      dup1\n      0x86cdf604\n      eq\n      tag_4\n      jumpi\n      dup1\n      0x90f9f50c\n      eq\n      tag_5\n      jumpi\n      dup1\n      0x9fb9f379\n      eq\n      tag_6\n      jumpi\n      dup1\n      0xc50a40d0\n      eq\n      tag_7\n      jumpi\n      dup1\n      0xd02ed851\n      eq\n      tag_8\n      jumpi\n    tag_2:\n      0x00\n      dup1\n      revert\n        /* \"CrowdFundingApp/Factory.sol\":299:329  Campaign[] public campaignList */\n    tag_3:\n      tag_9\n      0x04\n      dup1\n      calldatasize\n      sub\n      dup2\n      add\n      swap1\n      tag_10\n      swap2\n      swap1\n      tag_11\n      jump\t// in\n    tag_10:\n      tag_12\n      jump\t// in\n    tag_9:\n      mload(0x40)\n      tag_13\n      swap8\n      swap7\n      swap6\n      swap5\n      swap4\n      swap3\n      swap2\n      swap1\n      tag_14\n      jump\t// in\n    tag_13:\n      mload(0x40)\n      dup1\n      swap2\n      sub\n      swap1\n      return\n        /* \"CrowdFundingApp/Factory.sol\":2645:2739  function getAllCampaigns() public view returns(Campaign[] memory) {... */\n    tag_4:\n      tag_15\n      tag_16\n      jump\t// in\n    tag_15:\n      mload(0x40)\n      tag_17\n      swap2\n      swap1\n      tag_18\n      jump\t// in\n    tag_17:\n      mload(0x40)\n      dup1\n      swap2\n      sub\n      swap1\n      return\n        /* \"CrowdFundingApp/Factory.sol\":423:1939  function createCampaign(... */\n    tag_5:\n      tag_19\n      0x04\n      dup1\n      calldatasize\n      sub\n      dup2\n      add\n      swap1\n      tag_20\n      swap2\n      swap1\n      tag_21\n      jump\t// in\n    tag_20:\n      tag_22\n      jump\t// in\n    tag_19:\n      stop\n        /* \"CrowdFundingApp/Factory.sol\":2325:2643  function getCampaigns(string memory title) public view returns(... */\n    tag_6:\n      tag_23\n      0x04\n      dup1\n      calldatasize\n      sub\n      dup2\n      add\n      swap1\n      tag_24\n      swap2\n      swap1\n      tag_25\n      jump\t// in\n    tag_24:\n      tag_26\n      jump\t// in\n    tag_23:\n      mload(0x40)\n      tag_27\n      swap4\n      swap3\n      swap2\n      swap1\n      tag_28\n      jump\t// in\n    tag_27:\n      mload(0x40)\n      dup1\n      swap2\n      sub\n      swap1\n      return\n        /* \"CrowdFundingApp/Factory.sol\":331:382  mapping (string => Campaign) public titleToCampaign */\n    tag_7:\n      tag_29\n      0x04\n      dup1\n      calldatasize\n      sub\n      dup2\n      add\n      swap1\n      tag_30\n      swap2\n      swap1\n      tag_25\n      jump\t// in\n    tag_30:\n      tag_31\n      jump\t// in\n    tag_29:\n      mload(0x40)\n      tag_32\n      swap8\n      swap7\n      swap6\n      swap5\n      swap4\n      swap3\n      swap2\n      swap1\n      tag_14\n      jump\t// in\n    tag_32:\n      mload(0x40)\n      dup1\n      swap2\n      sub\n      swap1\n      return\n        /* \"CrowdFundingApp/Factory.sol\":1941:2323  function closeCampaign(string memory title) public {... */\n    tag_8:\n      tag_33\n      0x04\n      dup1\n      calldatasize\n      sub\n      dup2\n      add\n      swap1\n      tag_34\n      swap2\n      swap1\n      tag_25\n      jump\t// in\n    tag_34:\n      tag_35\n      jump\t// in\n    tag_33:\n      stop\n        /* \"CrowdFundingApp/Factory.sol\":299:329  Campaign[] public campaignList */\n    tag_12:\n      0x00\n      dup2\n      dup2\n      sload\n      dup2\n      lt\n      tag_36\n      jumpi\n      0x00\n      dup1\n      revert\n    tag_36:\n      swap1\n      0x00\n      mstore\n      keccak256(0x00, 0x20)\n      swap1\n      0x07\n      mul\n      add\n      0x00\n      swap2\n      pop\n      swap1\n      pop\n      dup1\n      0x00\n      add\n      0x00\n      swap1\n      sload\n      swap1\n      0x0100\n      exp\n      swap1\n      div\n      0xffffffffffffffffffffffffffffffffffffffff\n      and\n      swap1\n      dup1\n      0x01\n      add\n      0x00\n      swap1\n      sload\n      swap1\n      0x0100\n      exp\n      swap1\n      div\n      0xffffffffffffffffffffffffffffffffffffffff\n      and\n      swap1\n      dup1\n      0x02\n      add\n      dup1\n      sload\n      tag_38\n      swap1\n      tag_39\n      jump\t// in\n    tag_38:\n      dup1\n      0x1f\n      add\n      0x20\n      dup1\n      swap2\n      div\n      mul\n      0x20\n      add\n      mload(0x40)\n      swap1\n      dup2\n      add\n      0x40\n      mstore\n      dup1\n      swap3\n      swap2\n      swap1\n      dup2\n      dup2\n      mstore\n      0x20\n      add\n      dup3\n      dup1\n      sload\n      tag_40\n      swap1\n      tag_39\n      jump\t// in\n    tag_40:\n      dup1\n      iszero\n      tag_41\n      jumpi\n      dup1\n      0x1f\n      lt\n      tag_42\n      jumpi\n      0x0100\n      dup1\n      dup4\n      sload\n      div\n      mul\n      dup4\n      mstore\n      swap2\n      0x20\n      add\n      swap2\n      jump(tag_41)\n    tag_42:\n      dup3\n      add\n      swap2\n      swap1\n      0x00\n      mstore\n      keccak256(0x00, 0x20)\n      swap1\n    tag_43:\n      dup2\n      sload\n      dup2\n      mstore\n      swap1\n      0x01\n      add\n      swap1\n      0x20\n      add\n      dup1\n      dup4\n      gt\n      tag_43\n      jumpi\n      dup3\n      swap1\n      sub\n      0x1f\n      and\n      dup3\n      add\n      swap2\n    tag_41:\n      pop\n      pop\n      pop\n      pop\n      pop\n      swap1\n      dup1\n      0x03\n      add\n      sload\n      swap1\n      dup1\n      0x04\n      add\n      sload\n      swap1\n      dup1\n      0x05\n      add\n      sload\n      swap1\n      dup1\n      0x06\n      add\n      0x00\n      swap1\n      sload\n      swap1\n      0x0100\n      exp\n      swap1\n      div\n      0xff\n      and\n      swap1\n      pop\n      dup8\n      jump\t// out\n        /* \"CrowdFundingApp/Factory.sol\":2645:2739  function getAllCampaigns() public view returns(Campaign[] memory) {... */\n    tag_16:\n        /* \"CrowdFundingApp/Factory.sol\":2692:2709  Campaign[] memory */\n      0x60\n        /* \"CrowdFundingApp/Factory.sol\":2724:2736  campaignList */\n      0x00\n        /* \"CrowdFundingApp/Factory.sol\":2717:2736  return campaignList */\n      dup1\n      sload\n      dup1\n      0x20\n      mul\n      0x20\n      add\n      mload(0x40)\n      swap1\n      dup2\n      add\n      0x40\n      mstore\n      dup1\n      swap3\n      swap2\n      swap1\n      dup2\n      dup2\n      mstore\n      0x20\n      add\n      0x00\n      swap1\n    tag_45:\n      dup3\n      dup3\n      lt\n      iszero\n      tag_46\n      jumpi\n      dup4\n      dup3\n      swap1\n      0x00\n      mstore\n      keccak256(0x00, 0x20)\n      swap1\n      0x07\n      mul\n      add\n      mload(0x40)\n      dup1\n      0xe0\n      add\n      0x40\n      mstore\n      swap1\n      dup2\n      0x00\n      dup3\n      add\n      0x00\n      swap1\n      sload\n      swap1\n      0x0100\n      exp\n      swap1\n      div\n      0xffffffffffffffffffffffffffffffffffffffff\n      and\n      0xffffffffffffffffffffffffffffffffffffffff\n      and\n      0xffffffffffffffffffffffffffffffffffffffff\n      and\n      dup2\n      mstore\n      0x20\n      add\n      0x01\n      dup3\n      add\n      0x00\n      swap1\n      sload\n      swap1\n      0x0100\n      exp\n      swap1\n      div\n      0xffffffffffffffffffffffffffffffffffffffff\n      and\n      0xffffffffffffffffffffffffffffffffffffffff\n      and\n      0xffffffffffffffffffffffffffffffffffffffff\n      and\n      dup2\n      mstore\n      0x20\n      add\n      0x02\n      dup3\n      add\n      dup1\n      sload\n      tag_48\n      swap1\n      tag_39\n      jump\t// in\n    tag_48:\n      dup1\n      0x1f\n      add\n      0x20\n      dup1\n      swap2\n      div\n      mul\n      0x20\n      add\n      mload(0x40)\n      swap1\n      dup2\n      add\n      0x40\n      mstore\n      dup1\n      swap3\n      swap2\n      swap1\n      dup2\n      dup2\n      mstore\n      0x20\n      add\n      dup3\n      dup1\n      sload\n      tag_49\n      swap1\n      tag_39\n      jump\t// in\n    tag_49:\n      dup1\n      iszero\n      tag_50\n      jumpi\n      dup1\n      0x1f\n      lt\n      tag_51\n      jumpi\n      0x0100\n      dup1\n      dup4\n      sload\n      div\n      mul\n      dup4\n      mstore\n      swap2\n      0x20\n      add\n      swap2\n      jump(tag_50)\n    tag_51:\n      dup3\n      add\n      swap2\n      swap1\n      0x00\n      mstore\n      keccak256(0x00, 0x20)\n      swap1\n    tag_52:\n      dup2\n      sload\n      dup2\n      mstore\n      swap1\n      0x01\n      add\n      swap1\n      0x20\n      add\n      dup1\n      dup4\n      gt\n      tag_52\n      jumpi\n      dup3\n      swap1\n      sub\n      0x1f\n      and\n      dup3\n      add\n      swap2\n    tag_50:\n      pop\n      pop\n      pop\n      pop\n      pop\n      dup2\n      mstore\n      0x20\n      add\n      0x03\n      dup3\n      add\n      sload\n      dup2\n      mstore\n      0x20\n      add\n      0x04\n      dup3\n      add\n      sload\n      dup2\n      mstore\n      0x20\n      add\n      0x05\n      dup3\n      add\n      sload\n      dup2\n      mstore\n      0x20\n      add\n      0x06\n      dup3\n      add\n      0x00\n      swap1\n      sload\n      swap1\n      0x0100\n      exp\n      swap1\n      div\n      0xff\n      and\n      iszero\n      iszero\n      iszero\n      iszero\n      dup2\n      mstore\n      pop\n      pop\n      dup2\n      mstore\n      0x20\n      add\n      swap1\n      0x01\n      add\n      swap1\n      jump(tag_45)\n    tag_46:\n      pop\n      pop\n      pop\n      pop\n      swap1\n      pop\n        /* \"CrowdFundingApp/Factory.sol\":2645:2739  function getAllCampaigns() public view returns(Campaign[] memory) {... */\n      swap1\n      jump\t// out\n        /* \"CrowdFundingApp/Factory.sol\":423:1939  function createCampaign(... */\n    tag_22:\n        /* \"CrowdFundingApp/Factory.sol\":682:683  0 */\n      0x00\n        /* \"CrowdFundingApp/Factory.sol\":642:657  titleToCampaign */\n      0x01\n        /* \"CrowdFundingApp/Factory.sol\":658:663  title */\n      dup5\n        /* \"CrowdFundingApp/Factory.sol\":642:664  titleToCampaign[title] */\n      mload(0x40)\n      tag_54\n      swap2\n      swap1\n      tag_55\n      jump\t// in\n    tag_54:\n      swap1\n      dup2\n      mstore\n      0x20\n      add\n      mload(0x40)\n      dup1\n      swap2\n      sub\n      swap1\n      keccak256\n        /* \"CrowdFundingApp/Factory.sol\":642:670  titleToCampaign[title].title */\n      0x02\n      add\n        /* \"CrowdFundingApp/Factory.sol\":636:678  bytes(titleToCampaign[title].title).length */\n      dup1\n      sload\n      tag_56\n      swap1\n      tag_39\n      jump\t// in\n    tag_56:\n      swap1\n      pop\n        /* \"CrowdFundingApp/Factory.sol\":636:683  bytes(titleToCampaign[title].title).length == 0 */\n      eq\n        /* \"CrowdFundingApp/Factory.sol\":628:718  require(bytes(titleToCampaign[title].title).length == 0, \"Guy you no fit create name nii\") */\n      tag_57\n      jumpi\n      mload(0x40)\n      0x08c379a000000000000000000000000000000000000000000000000000000000\n      dup2\n      mstore\n      0x04\n      add\n      tag_58\n      swap1\n      tag_59\n      jump\t// in\n    tag_58:\n      mload(0x40)\n      dup1\n      swap2\n      sub\n      swap1\n      revert\n    tag_57:\n        /* \"CrowdFundingApp/Factory.sol\":810:811  0 */\n      0x00\n        /* \"CrowdFundingApp/Factory.sol\":787:812  beneficiary != address(0) */\n      0xffffffffffffffffffffffffffffffffffffffff\n      and\n        /* \"CrowdFundingApp/Factory.sol\":787:798  beneficiary */\n      dup5\n        /* \"CrowdFundingApp/Factory.sol\":787:812  beneficiary != address(0) */\n      0xffffffffffffffffffffffffffffffffffffffff\n      and\n      sub\n        /* \"CrowdFundingApp/Factory.sol\":779:843  require(beneficiary != address(0), \"Which kind address be this\") */\n      tag_60\n      jumpi\n      mload(0x40)\n      0x08c379a000000000000000000000000000000000000000000000000000000000\n      dup2\n      mstore\n      0x04\n      add\n      tag_61\n      swap1\n      tag_62\n      jump\t// in\n    tag_61:\n      mload(0x40)\n      dup1\n      swap2\n      sub\n      swap1\n      revert\n    tag_60:\n        /* \"CrowdFundingApp/Factory.sol\":917:918  0 */\n      0x00\n        /* \"CrowdFundingApp/Factory.sol\":901:906  title */\n      dup4\n        /* \"CrowdFundingApp/Factory.sol\":895:914  bytes(title).length */\n      mload\n        /* \"CrowdFundingApp/Factory.sol\":895:918  bytes(title).length > 0 */\n      gt\n        /* \"CrowdFundingApp/Factory.sol\":887:948  require(bytes(title).length > 0, \"Your campaign no get name\") */\n      tag_63\n      jumpi\n      mload(0x40)\n      0x08c379a000000000000000000000000000000000000000000000000000000000\n      dup2\n      mstore\n      0x04\n      add\n      tag_64\n      swap1\n      tag_65\n      jump\t// in\n    tag_64:\n      mload(0x40)\n      dup1\n      swap2\n      sub\n      swap1\n      revert\n    tag_63:\n        /* \"CrowdFundingApp/Factory.sol\":1030:1031  0 */\n      0x00\n        /* \"CrowdFundingApp/Factory.sol\":1014:1027  amountToRaise */\n      dup2\n        /* \"CrowdFundingApp/Factory.sol\":1014:1031  amountToRaise > 0 */\n      gt\n        /* \"CrowdFundingApp/Factory.sol\":1006:1062  require(amountToRaise > 0, \"Bruhh can you not do that?\") */\n      tag_66\n      jumpi\n      mload(0x40)\n      0x08c379a000000000000000000000000000000000000000000000000000000000\n      dup2\n      mstore\n      0x04\n      add\n      tag_67\n      swap1\n      tag_68\n      jump\t// in\n    tag_67:\n      mload(0x40)\n      dup1\n      swap2\n      sub\n      swap1\n      revert\n    tag_66:\n        /* \"CrowdFundingApp/Factory.sol\":1575:1602  Campaign memory newCampaign */\n      0x00\n        /* \"CrowdFundingApp/Factory.sol\":1605:1864  Campaign({... */\n      mload(0x40)\n      dup1\n      0xe0\n      add\n      0x40\n      mstore\n      dup1\n        /* \"CrowdFundingApp/Factory.sol\":1647:1657  msg.sender */\n      caller\n        /* \"CrowdFundingApp/Factory.sol\":1605:1864  Campaign({... */\n      0xffffffffffffffffffffffffffffffffffffffff\n      and\n      dup2\n      mstore\n      0x20\n      add\n        /* \"CrowdFundingApp/Factory.sol\":1684:1695  beneficiary */\n      dup7\n        /* \"CrowdFundingApp/Factory.sol\":1605:1864  Campaign({... */\n      0xffffffffffffffffffffffffffffffffffffffff\n      and\n      dup2\n      mstore\n      0x20\n      add\n        /* \"CrowdFundingApp/Factory.sol\":1720:1725  title */\n      dup6\n        /* \"CrowdFundingApp/Factory.sol\":1605:1864  Campaign({... */\n      dup2\n      mstore\n      0x20\n      add\n        /* \"CrowdFundingApp/Factory.sol\":1749:1757  deadline */\n      dup5\n        /* \"CrowdFundingApp/Factory.sol\":1605:1864  Campaign({... */\n      dup2\n      mstore\n      0x20\n      add\n        /* \"CrowdFundingApp/Factory.sol\":1782:1795  amountToRaise */\n      dup4\n        /* \"CrowdFundingApp/Factory.sol\":1605:1864  Campaign({... */\n      dup2\n      mstore\n      0x20\n      add\n        /* \"CrowdFundingApp/Factory.sol\":1822:1823  0 */\n      0x00\n        /* \"CrowdFundingApp/Factory.sol\":1605:1864  Campaign({... */\n      dup2\n      mstore\n      0x20\n      add\n        /* \"CrowdFundingApp/Factory.sol\":1852:1857  false */\n      0x00\n        /* \"CrowdFundingApp/Factory.sol\":1605:1864  Campaign({... */\n      iszero\n      iszero\n      dup2\n      mstore\n      pop\n        /* \"CrowdFundingApp/Factory.sol\":1575:1864  Campaign memory newCampaign = Campaign({... */\n      swap1\n      pop\n        /* \"CrowdFundingApp/Factory.sol\":1892:1903  newCampaign */\n      dup1\n        /* \"CrowdFundingApp/Factory.sol\":1867:1882  titleToCampaign */\n      0x01\n        /* \"CrowdFundingApp/Factory.sol\":1883:1888  title */\n      dup6\n        /* \"CrowdFundingApp/Factory.sol\":1867:1889  titleToCampaign[title] */\n      mload(0x40)\n      tag_69\n      swap2\n      swap1\n      tag_55\n      jump\t// in\n    tag_69:\n      swap1\n      dup2\n      mstore\n      0x20\n      add\n      mload(0x40)\n      dup1\n      swap2\n      sub\n      swap1\n      keccak256\n        /* \"CrowdFundingApp/Factory.sol\":1867:1903  titleToCampaign[title] = newCampaign */\n      0x00\n      dup3\n      add\n      mload\n      dup2\n      0x00\n      add\n      exp(0x0100, 0x00)\n      dup2\n      sload\n      dup2\n      0xffffffffffffffffffffffffffffffffffffffff\n      mul\n      not\n      and\n      swap1\n      dup4\n      0xffffffffffffffffffffffffffffffffffffffff\n      and\n      mul\n      or\n      swap1\n      sstore\n      pop\n      0x20\n      dup3\n      add\n      mload\n      dup2\n      0x01\n      add\n      exp(0x0100, 0x00)\n      dup2\n      sload\n      dup2\n      0xffffffffffffffffffffffffffffffffffffffff\n      mul\n      not\n      and\n      swap1\n      dup4\n      0xffffffffffffffffffffffffffffffffffffffff\n      and\n      mul\n      or\n      swap1\n      sstore\n      pop\n      0x40\n      dup3\n      add\n      mload\n      dup2\n      0x02\n      add\n      swap1\n      dup2\n      tag_70\n      swap2\n      swap1\n      tag_71\n      jump\t// in\n    tag_70:\n      pop\n      0x60\n      dup3\n      add\n      mload\n      dup2\n      0x03\n      add\n      sstore\n      0x80\n      dup3\n      add\n      mload\n      dup2\n      0x04\n      add\n      sstore\n      0xa0\n      dup3\n      add\n      mload\n      dup2\n      0x05\n      add\n      sstore\n      0xc0\n      dup3\n      add\n      mload\n      dup2\n      0x06\n      add\n      exp(0x0100, 0x00)\n      dup2\n      sload\n      dup2\n      0xff\n      mul\n      not\n      and\n      swap1\n      dup4\n      iszero\n      iszero\n      mul\n      or\n      swap1\n      sstore\n      pop\n      swap1\n      pop\n      pop\n        /* \"CrowdFundingApp/Factory.sol\":1905:1917  campaignList */\n      0x00\n        /* \"CrowdFundingApp/Factory.sol\":1923:1934  newCampaign */\n      dup2\n        /* \"CrowdFundingApp/Factory.sol\":1905:1935  campaignList.push(newCampaign) */\n      swap1\n      dup1\n      0x01\n      dup2\n      sload\n      add\n      dup1\n      dup3\n      sstore\n      dup1\n      swap2\n      pop\n      pop\n      0x01\n      swap1\n      sub\n      swap1\n      0x00\n      mstore\n      keccak256(0x00, 0x20)\n      swap1\n      0x07\n      mul\n      add\n      0x00\n      swap1\n      swap2\n      swap1\n      swap2\n      swap1\n      swap2\n      pop\n      0x00\n      dup3\n      add\n      mload\n      dup2\n      0x00\n      add\n      exp(0x0100, 0x00)\n      dup2\n      sload\n      dup2\n      0xffffffffffffffffffffffffffffffffffffffff\n      mul\n      not\n      and\n      swap1\n      dup4\n      0xffffffffffffffffffffffffffffffffffffffff\n      and\n      mul\n      or\n      swap1\n      sstore\n      pop\n      0x20\n      dup3\n      add\n      mload\n      dup2\n      0x01\n      add\n      exp(0x0100, 0x00)\n      dup2\n      sload\n      dup2\n      0xffffffffffffffffffffffffffffffffffffffff\n      mul\n      not\n      and\n      swap1\n      dup4\n      0xffffffffffffffffffffffffffffffffffffffff\n      and\n      mul\n      or\n      swap1\n      sstore\n      pop\n      0x40\n      dup3\n      add\n      mload\n      dup2\n      0x02\n      add\n      swap1\n      dup2\n      tag_73\n      swap2\n      swap1\n      tag_71\n      jump\t// in\n    tag_73:\n      pop\n      0x60\n      dup3\n      add\n      mload\n      dup2\n      0x03\n      add\n      sstore\n      0x80\n      dup3\n      add\n      mload\n      dup2\n      0x04\n      add\n      sstore\n      0xa0\n      dup3\n      add\n      mload\n      dup2\n      0x05\n      add\n      sstore\n      0xc0\n      dup3\n      add\n      mload\n      dup2\n      0x06\n      add\n      exp(0x0100, 0x00)\n      dup2\n      sload\n      dup2\n      0xff\n      mul\n      not\n      and\n      swap1\n      dup4\n      iszero\n      iszero\n      mul\n      or\n      swap1\n      sstore\n      pop\n      pop\n      pop\n        /* \"CrowdFundingApp/Factory.sol\":559:1939  {... */\n      pop\n        /* \"CrowdFundingApp/Factory.sol\":423:1939  function createCampaign(... */\n      pop\n      pop\n      pop\n      pop\n      jump\t// out\n        /* \"CrowdFundingApp/Factory.sol\":2325:2643  function getCampaigns(string memory title) public view returns(... */\n    tag_26:\n        /* \"CrowdFundingApp/Factory.sol\":2393:2420  address payable beneficiary */\n      0x00\n        /* \"CrowdFundingApp/Factory.sol\":2426:2443  uint raisedAmount */\n      dup1\n        /* \"CrowdFundingApp/Factory.sol\":2449:2462  uint deadline */\n      0x00\n        /* \"CrowdFundingApp/Factory.sol\":2488:2503  titleToCampaign */\n      0x01\n        /* \"CrowdFundingApp/Factory.sol\":2504:2509  title */\n      dup5\n        /* \"CrowdFundingApp/Factory.sol\":2488:2510  titleToCampaign[title] */\n      mload(0x40)\n      tag_75\n      swap2\n      swap1\n      tag_55\n      jump\t// in\n    tag_75:\n      swap1\n      dup2\n      mstore\n      0x20\n      add\n      mload(0x40)\n      dup1\n      swap2\n      sub\n      swap1\n      keccak256\n        /* \"CrowdFundingApp/Factory.sol\":2488:2522  titleToCampaign[title].beneficiary */\n      0x01\n      add\n      0x00\n      swap1\n      sload\n      swap1\n      0x0100\n      exp\n      swap1\n      div\n      0xffffffffffffffffffffffffffffffffffffffff\n      and\n        /* \"CrowdFundingApp/Factory.sol\":2532:2547  titleToCampaign */\n      0x01\n        /* \"CrowdFundingApp/Factory.sol\":2548:2553  title */\n      dup6\n        /* \"CrowdFundingApp/Factory.sol\":2532:2554  titleToCampaign[title] */\n      mload(0x40)\n      tag_76\n      swap2\n      swap1\n      tag_55\n      jump\t// in\n    tag_76:\n      swap1\n      dup2\n      mstore\n      0x20\n      add\n      mload(0x40)\n      dup1\n      swap2\n      sub\n      swap1\n      keccak256\n        /* \"CrowdFundingApp/Factory.sol\":2532:2567  titleToCampaign[title].raisedAmount */\n      0x05\n      add\n      sload\n        /* \"CrowdFundingApp/Factory.sol\":2577:2592  titleToCampaign */\n      0x01\n        /* \"CrowdFundingApp/Factory.sol\":2593:2598  title */\n      dup7\n        /* \"CrowdFundingApp/Factory.sol\":2577:2599  titleToCampaign[title] */\n      mload(0x40)\n      tag_77\n      swap2\n      swap1\n      tag_55\n      jump\t// in\n    tag_77:\n      swap1\n      dup2\n      mstore\n      0x20\n      add\n      mload(0x40)\n      dup1\n      swap2\n      sub\n      swap1\n      keccak256\n        /* \"CrowdFundingApp/Factory.sol\":2577:2608  titleToCampaign[title].deadline */\n      0x03\n      add\n      sload\n        /* \"CrowdFundingApp/Factory.sol\":2471:2614  return (... */\n      swap3\n      pop\n      swap3\n      pop\n      swap3\n      pop\n        /* \"CrowdFundingApp/Factory.sol\":2325:2643  function getCampaigns(string memory title) public view returns(... */\n      swap2\n      swap4\n      swap1\n      swap3\n      pop\n      jump\t// out\n        /* \"CrowdFundingApp/Factory.sol\":331:382  mapping (string => Campaign) public titleToCampaign */\n    tag_31:\n      0x01\n      dup2\n      dup1\n      mload\n      0x20\n      dup2\n      add\n      dup3\n      add\n      dup1\n      mload\n      dup5\n      dup3\n      mstore\n      0x20\n      dup4\n      add\n      0x20\n      dup6\n      add\n      keccak256\n      dup2\n      dup4\n      mstore\n      dup1\n      swap6\n      pop\n      pop\n      pop\n      pop\n      pop\n      pop\n      0x00\n      swap2\n      pop\n      swap1\n      pop\n      dup1\n      0x00\n      add\n      0x00\n      swap1\n      sload\n      swap1\n      0x0100\n      exp\n      swap1\n      div\n      0xffffffffffffffffffffffffffffffffffffffff\n      and\n      swap1\n      dup1\n      0x01\n      add\n      0x00\n      swap1\n      sload\n      swap1\n      0x0100\n      exp\n      swap1\n      div\n      0xffffffffffffffffffffffffffffffffffffffff\n      and\n      swap1\n      dup1\n      0x02\n      add\n      dup1\n      sload\n      tag_78\n      swap1\n      tag_39\n      jump\t// in\n    tag_78:\n      dup1\n      0x1f\n      add\n      0x20\n      dup1\n      swap2\n      div\n      mul\n      0x20\n      add\n      mload(0x40)\n      swap1\n      dup2\n      add\n      0x40\n      mstore\n      dup1\n      swap3\n      swap2\n      swap1\n      dup2\n      dup2\n      mstore\n      0x20\n      add\n      dup3\n      dup1\n      sload\n      tag_79\n      swap1\n      tag_39\n      jump\t// in\n    tag_79:\n      dup1\n      iszero\n      tag_80\n      jumpi\n      dup1\n      0x1f\n      lt\n      tag_81\n      jumpi\n      0x0100\n      dup1\n      dup4\n      sload\n      div\n      mul\n      dup4\n      mstore\n      swap2\n      0x20\n      add\n      swap2\n      jump(tag_80)\n    tag_81:\n      dup3\n      add\n      swap2\n      swap1\n      0x00\n      mstore\n      keccak256(0x00, 0x20)\n      swap1\n    tag_82:\n      dup2\n      sload\n      dup2\n      mstore\n      swap1\n      0x01\n      add\n      swap1\n      0x20\n      add\n      dup1\n      dup4\n      gt\n      tag_82\n      jumpi\n      dup3\n      swap1\n      sub\n      0x1f\n      and\n      dup3\n      add\n      swap2\n    tag_80:\n      pop\n      pop\n      pop\n      pop\n      pop\n      swap1\n      dup1\n      0x03\n      add\n      sload\n      swap1\n      dup1\n      0x04\n      add\n      sload\n      swap1\n      dup1\n      0x05\n      add\n      sload\n      swap1\n      dup1\n      0x06\n      add\n      0x00\n      swap1\n      sload\n      swap1\n      0x0100\n      exp\n      swap1\n      div\n      0xff\n      and\n      swap1\n      pop\n      dup8\n      jump\t// out\n        /* \"CrowdFundingApp/Factory.sol\":1941:2323  function closeCampaign(string memory title) public {... */\n    tag_35:\n        /* \"CrowdFundingApp/Factory.sol\":2054:2069  titleToCampaign */\n      0x01\n        /* \"CrowdFundingApp/Factory.sol\":2070:2075  title */\n      dup2\n        /* \"CrowdFundingApp/Factory.sol\":2054:2076  titleToCampaign[title] */\n      mload(0x40)\n      tag_84\n      swap2\n      swap1\n      tag_55\n      jump\t// in\n    tag_84:\n      swap1\n      dup2\n      mstore\n      0x20\n      add\n      mload(0x40)\n      dup1\n      swap2\n      sub\n      swap1\n      keccak256\n        /* \"CrowdFundingApp/Factory.sol\":2054:2083  titleToCampaign[title].closed */\n      0x06\n      add\n      0x00\n      swap1\n      sload\n      swap1\n      0x0100\n      exp\n      swap1\n      div\n      0xff\n      and\n        /* \"CrowdFundingApp/Factory.sol\":2053:2083  !titleToCampaign[title].closed */\n      iszero\n        /* \"CrowdFundingApp/Factory.sol\":2045:2125  require(!titleToCampaign[title].closed, \"This campaign has been already closed\") */\n      tag_85\n      jumpi\n      mload(0x40)\n      0x08c379a000000000000000000000000000000000000000000000000000000000\n      dup2\n      mstore\n      0x04\n      add\n      tag_86\n      swap1\n      tag_87\n      jump\t// in\n    tag_86:\n      mload(0x40)\n      dup1\n      swap2\n      sub\n      swap1\n      revert\n    tag_85:\n        /* \"CrowdFundingApp/Factory.sol\":2136:2163  Campaign memory newCampaign */\n      0x00\n        /* \"CrowdFundingApp/Factory.sol\":2166:2181  titleToCampaign */\n      0x01\n        /* \"CrowdFundingApp/Factory.sol\":2182:2187  title */\n      dup3\n        /* \"CrowdFundingApp/Factory.sol\":2166:2188  titleToCampaign[title] */\n      mload(0x40)\n      tag_88\n      swap2\n      swap1\n      tag_55\n      jump\t// in\n    tag_88:\n      swap1\n      dup2\n      mstore\n      0x20\n      add\n      mload(0x40)\n      dup1\n      swap2\n      sub\n      swap1\n      keccak256\n        /* \"CrowdFundingApp/Factory.sol\":2136:2188  Campaign memory newCampaign = titleToCampaign[title] */\n      mload(0x40)\n      dup1\n      0xe0\n      add\n      0x40\n      mstore\n      swap1\n      dup2\n      0x00\n      dup3\n      add\n      0x00\n      swap1\n      sload\n      swap1\n      0x0100\n      exp\n      swap1\n      div\n      0xffffffffffffffffffffffffffffffffffffffff\n      and\n      0xffffffffffffffffffffffffffffffffffffffff\n      and\n      0xffffffffffffffffffffffffffffffffffffffff\n      and\n      dup2\n      mstore\n      0x20\n      add\n      0x01\n      dup3\n      add\n      0x00\n      swap1\n      sload\n      swap1\n      0x0100\n      exp\n      swap1\n      div\n      0xffffffffffffffffffffffffffffffffffffffff\n      and\n      0xffffffffffffffffffffffffffffffffffffffff\n      and\n      0xffffffffffffffffffffffffffffffffffffffff\n      and\n      dup2\n      mstore\n      0x20\n      add\n      0x02\n      dup3\n      add\n      dup1\n      sload\n      tag_89\n      swap1\n      tag_39\n      jump\t// in\n    tag_89:\n      dup1\n      0x1f\n      add\n      0x20\n      dup1\n      swap2\n      div\n      mul\n      0x20\n      add\n      mload(0x40)\n      swap1\n      dup2\n      add\n      0x40\n      mstore\n      dup1\n      swap3\n      swap2\n      swap1\n      dup2\n      dup2\n      mstore\n      0x20\n      add\n      dup3\n      dup1\n      sload\n      tag_90\n      swap1\n      tag_39\n      jump\t// in\n    tag_90:\n      dup1\n      iszero\n      tag_91\n      jumpi\n      dup1\n      0x1f\n      lt\n      tag_92\n      jumpi\n      0x0100\n      dup1\n      dup4\n      sload\n      div\n      mul\n      dup4\n      mstore\n      swap2\n      0x20\n      add\n      swap2\n      jump(tag_91)\n    tag_92:\n      dup3\n      add\n      swap2\n      swap1\n      0x00\n      mstore\n      keccak256(0x00, 0x20)\n      swap1\n    tag_93:\n      dup2\n      sload\n      dup2\n      mstore\n      swap1\n      0x01\n      add\n      swap1\n      0x20\n      add\n      dup1\n      dup4\n      gt\n      tag_93\n      jumpi\n      dup3\n      swap1\n      sub\n      0x1f\n      and\n      dup3\n      add\n      swap2\n    tag_91:\n      pop\n      pop\n      pop\n      pop\n      pop\n      dup2\n      mstore\n      0x20\n      add\n      0x03\n      dup3\n      add\n      sload\n      dup2\n      mstore\n      0x20\n      add\n      0x04\n      dup3\n      add\n      sload\n      dup2\n      mstore\n      0x20\n      add\n      0x05\n      dup3\n      add\n      sload\n      dup2\n      mstore\n      0x20\n      add\n      0x06\n      dup3\n      add\n      0x00\n      swap1\n      sload\n      swap1\n      0x0100\n      exp\n      swap1\n      div\n      0xff\n      and\n      iszero\n      iszero\n      iszero\n      iszero\n      dup2\n      mstore\n      pop\n      pop\n      swap1\n      pop\n        /* \"CrowdFundingApp/Factory.sol\":2222:2227  false */\n      0x00\n        /* \"CrowdFundingApp/Factory.sol\":2198:2209  newCampaign */\n      dup2\n        /* \"CrowdFundingApp/Factory.sol\":2198:2216  newCampaign.closed */\n      0xc0\n      add\n        /* \"CrowdFundingApp/Factory.sol\":2198:2227  newCampaign.closed    = false */\n      swap1\n      iszero\n      iszero\n      swap1\n      dup2\n      iszero\n      iszero\n      dup2\n      mstore\n      pop\n      pop\n        /* \"CrowdFundingApp/Factory.sol\":2262:2273  newCampaign */\n      dup1\n        /* \"CrowdFundingApp/Factory.sol\":2237:2252  titleToCampaign */\n      0x01\n        /* \"CrowdFundingApp/Factory.sol\":2253:2258  title */\n      dup4\n        /* \"CrowdFundingApp/Factory.sol\":2237:2259  titleToCampaign[title] */\n      mload(0x40)\n      tag_94\n      swap2\n      swap1\n      tag_55\n      jump\t// in\n    tag_94:\n      swap1\n      dup2\n      mstore\n      0x20\n      add\n      mload(0x40)\n      dup1\n      swap2\n      sub\n      swap1\n      keccak256\n        /* \"CrowdFundingApp/Factory.sol\":2237:2273  titleToCampaign[title] = newCampaign */\n      0x00\n      dup3\n      add\n      mload\n      dup2\n      0x00\n      add\n      exp(0x0100, 0x00)\n      dup2\n      sload\n      dup2\n      0xffffffffffffffffffffffffffffffffffffffff\n      mul\n      not\n      and\n      swap1\n      dup4\n      0xffffffffffffffffffffffffffffffffffffffff\n      and\n      mul\n      or\n      swap1\n      sstore\n      pop\n      0x20\n      dup3\n      add\n      mload\n      dup2\n      0x01\n      add\n      exp(0x0100, 0x00)\n      dup2\n      sload\n      dup2\n      0xffffffffffffffffffffffffffffffffffffffff\n      mul\n      not\n      and\n      swap1\n      dup4\n      0xffffffffffffffffffffffffffffffffffffffff\n      and\n      mul\n      or\n      swap1\n      sstore\n      pop\n      0x40\n      dup3\n      add\n      mload\n      dup2\n      0x02\n      add\n      swap1\n      dup2\n      tag_95\n      swap2\n      swap1\n      tag_71\n      jump\t// in\n    tag_95:\n      pop\n      0x60\n      dup3\n      add\n      mload\n      dup2\n      0x03\n      add\n      sstore\n      0x80\n      dup3\n      add\n      mload\n      dup2\n      0x04\n      add\n      sstore\n      0xa0\n      dup3\n      add\n      mload\n      dup2\n      0x05\n      add\n      sstore\n      0xc0\n      dup3\n      add\n      mload\n      dup2\n      0x06\n      add\n      exp(0x0100, 0x00)\n      dup2\n      sload\n      dup2\n      0xff\n      mul\n      not\n      and\n      swap1\n      dup4\n      iszero\n      iszero\n      mul\n      or\n      swap1\n      sstore\n      pop\n      swap1\n      pop\n      pop\n        /* \"CrowdFundingApp/Factory.sol\":2283:2295  campaignList */\n      0x00\n        /* \"CrowdFundingApp/Factory.sol\":2301:2312  newCampaign */\n      dup2\n        /* \"CrowdFundingApp/Factory.sol\":2283:2313  campaignList.push(newCampaign) */\n      swap1\n      dup1\n      0x01\n      dup2\n      sload\n      add\n      dup1\n      dup3\n      sstore\n      dup1\n      swap2\n      pop\n      pop\n      0x01\n      swap1\n      sub\n      swap1\n      0x00\n      mstore\n      keccak256(0x00, 0x20)\n      swap1\n      0x07\n      mul\n      add\n      0x00\n      swap1\n      swap2\n      swap1\n      swap2\n      swap1\n      swap2\n      pop\n      0x00\n      dup3\n      add\n      mload\n      dup2\n      0x00\n      add\n      exp(0x0100, 0x00)\n      dup2\n      sload\n      dup2\n      0xffffffffffffffffffffffffffffffffffffffff\n      mul\n      not\n      and\n      swap1\n      dup4\n      0xffffffffffffffffffffffffffffffffffffffff\n      and\n      mul\n      or\n      swap1\n      sstore\n      pop\n      0x20\n      dup3\n      add\n      mload\n      dup2\n      0x01\n      add\n      exp(0x0100, 0x00)\n      dup2\n      sload\n      dup2\n      0xffffffffffffffffffffffffffffffffffffffff\n      mul\n      not\n      and\n      swap1\n      dup4\n      0xffffffffffffffffffffffffffffffffffffffff\n      and\n      mul\n      or\n      swap1\n      sstore\n      pop\n      0x40\n      dup3\n      add\n      mload\n      dup2\n      0x02\n      add\n      swap1\n      dup2\n      tag_97\n      swap2\n      swap1\n      tag_71\n      jump\t// in\n    tag_97:\n      pop\n      0x60\n      dup3\n      add\n      mload\n      dup2\n      0x03\n      add\n      sstore\n      0x80\n      dup3\n      add\n      mload\n      dup2\n      0x04\n      add\n      sstore\n      0xa0\n      dup3\n      add\n      mload\n      dup2\n      0x05\n      add\n      sstore\n      0xc0\n      dup3\n      add\n      mload\n      dup2\n      0x06\n      add\n      exp(0x0100, 0x00)\n      dup2\n      sload\n      dup2\n      0xff\n      mul\n      not\n      and\n      swap1\n      dup4\n      iszero\n      iszero\n      mul\n      or\n      swap1\n      sstore\n      pop\n      pop\n      pop\n        /* \"CrowdFundingApp/Factory.sol\":1992:2323  {... */\n      pop\n        /* \"CrowdFundingApp/Factory.sol\":1941:2323  function closeCampaign(string memory title) public {... */\n      pop\n      jump\t// out\n        /* \"#utility.yul\":7:82   */\n    tag_98:\n        /* \"#utility.yul\":40:46   */\n      0x00\n        /* \"#utility.yul\":73:75   */\n      0x40\n        /* \"#utility.yul\":67:76   */\n      mload\n        /* \"#utility.yul\":57:76   */\n      swap1\n      pop\n        /* \"#utility.yul\":7:82   */\n      swap1\n      jump\t// out\n        /* \"#utility.yul\":88:205   */\n    tag_99:\n        /* \"#utility.yul\":197:198   */\n      0x00\n        /* \"#utility.yul\":194:195   */\n      dup1\n        /* \"#utility.yul\":187:199   */\n      revert\n        /* \"#utility.yul\":211:328   */\n    tag_100:\n        /* \"#utility.yul\":320:321   */\n      0x00\n        /* \"#utility.yul\":317:318   */\n      dup1\n        /* \"#utility.yul\":310:322   */\n      revert\n        /* \"#utility.yul\":334:411   */\n    tag_101:\n        /* \"#utility.yul\":371:378   */\n      0x00\n        /* \"#utility.yul\":400:405   */\n      dup2\n        /* \"#utility.yul\":389:405   */\n      swap1\n      pop\n        /* \"#utility.yul\":334:411   */\n      swap2\n      swap1\n      pop\n      jump\t// out\n        /* \"#utility.yul\":417:539   */\n    tag_102:\n        /* \"#utility.yul\":490:514   */\n      tag_172\n        /* \"#utility.yul\":508:513   */\n      dup2\n        /* \"#utility.yul\":490:514   */\n      tag_101\n      jump\t// in\n    tag_172:\n        /* \"#utility.yul\":483:488   */\n      dup2\n        /* \"#utility.yul\":480:515   */\n      eq\n        /* \"#utility.yul\":470:533   */\n      tag_173\n      jumpi\n        /* \"#utility.yul\":529:530   */\n      0x00\n        /* \"#utility.yul\":526:527   */\n      dup1\n        /* \"#utility.yul\":519:531   */\n      revert\n        /* \"#utility.yul\":470:533   */\n    tag_173:\n        /* \"#utility.yul\":417:539   */\n      pop\n      jump\t// out\n        /* \"#utility.yul\":545:684   */\n    tag_103:\n        /* \"#utility.yul\":591:596   */\n      0x00\n        /* \"#utility.yul\":629:635   */\n      dup2\n        /* \"#utility.yul\":616:636   */\n      calldataload\n        /* \"#utility.yul\":607:636   */\n      swap1\n      pop\n        /* \"#utility.yul\":645:678   */\n      tag_175\n        /* \"#utility.yul\":672:677   */\n      dup2\n        /* \"#utility.yul\":645:678   */\n      tag_102\n      jump\t// in\n    tag_175:\n        /* \"#utility.yul\":545:684   */\n      swap3\n      swap2\n      pop\n      pop\n      jump\t// out\n        /* \"#utility.yul\":690:1019   */\n    tag_11:\n        /* \"#utility.yul\":749:755   */\n      0x00\n        /* \"#utility.yul\":798:800   */\n      0x20\n        /* \"#utility.yul\":786:795   */\n      dup3\n        /* \"#utility.yul\":777:784   */\n      dup5\n        /* \"#utility.yul\":773:796   */\n      sub\n        /* \"#utility.yul\":769:801   */\n      slt\n        /* \"#utility.yul\":766:885   */\n      iszero\n      tag_177\n      jumpi\n        /* \"#utility.yul\":804:883   */\n      tag_178\n      tag_99\n      jump\t// in\n    tag_178:\n        /* \"#utility.yul\":766:885   */\n    tag_177:\n        /* \"#utility.yul\":924:925   */\n      0x00\n        /* \"#utility.yul\":949:1002   */\n      tag_179\n        /* \"#utility.yul\":994:1001   */\n      dup5\n        /* \"#utility.yul\":985:991   */\n      dup3\n        /* \"#utility.yul\":974:983   */\n      dup6\n        /* \"#utility.yul\":970:992   */\n      add\n        /* \"#utility.yul\":949:1002   */\n      tag_103\n      jump\t// in\n    tag_179:\n        /* \"#utility.yul\":939:1002   */\n      swap2\n      pop\n        /* \"#utility.yul\":895:1012   */\n      pop\n        /* \"#utility.yul\":690:1019   */\n      swap3\n      swap2\n      pop\n      pop\n      jump\t// out\n        /* \"#utility.yul\":1025:1151   */\n    tag_104:\n        /* \"#utility.yul\":1062:1069   */\n      0x00\n        /* \"#utility.yul\":1102:1144   */\n      0xffffffffffffffffffffffffffffffffffffffff\n        /* \"#utility.yul\":1095:1100   */\n      dup3\n        /* \"#utility.yul\":1091:1145   */\n      and\n        /* \"#utility.yul\":1080:1145   */\n      swap1\n      pop\n        /* \"#utility.yul\":1025:1151   */\n      swap2\n      swap1\n      pop\n      jump\t// out\n        /* \"#utility.yul\":1157:1261   */\n    tag_105:\n        /* \"#utility.yul\":1202:1209   */\n      0x00\n        /* \"#utility.yul\":1231:1255   */\n      tag_182\n        /* \"#utility.yul\":1249:1254   */\n      dup3\n        /* \"#utility.yul\":1231:1255   */\n      tag_104\n      jump\t// in\n    tag_182:\n        /* \"#utility.yul\":1220:1255   */\n      swap1\n      pop\n        /* \"#utility.yul\":1157:1261   */\n      swap2\n      swap1\n      pop\n      jump\t// out\n        /* \"#utility.yul\":1267:1409   */\n    tag_106:\n        /* \"#utility.yul\":1370:1402   */\n      tag_184\n        /* \"#utility.yul\":1396:1401   */\n      dup2\n        /* \"#utility.yul\":1370:1402   */\n      tag_105\n      jump\t// in\n    tag_184:\n        /* \"#utility.yul\":1365:1368   */\n      dup3\n        /* \"#utility.yul\":1358:1403   */\n      mstore\n        /* \"#utility.yul\":1267:1409   */\n      pop\n      pop\n      jump\t// out\n        /* \"#utility.yul\":1415:1514   */\n    tag_107:\n        /* \"#utility.yul\":1467:1473   */\n      0x00\n        /* \"#utility.yul\":1501:1506   */\n      dup2\n        /* \"#utility.yul\":1495:1507   */\n      mload\n        /* \"#utility.yul\":1485:1507   */\n      swap1\n      pop\n        /* \"#utility.yul\":1415:1514   */\n      swap2\n      swap1\n      pop\n      jump\t// out\n        /* \"#utility.yul\":1520:1689   */\n    tag_108:\n        /* \"#utility.yul\":1604:1615   */\n      0x00\n        /* \"#utility.yul\":1638:1644   */\n      dup3\n        /* \"#utility.yul\":1633:1636   */\n      dup3\n        /* \"#utility.yul\":1626:1645   */\n      mstore\n        /* \"#utility.yul\":1678:1682   */\n      0x20\n        /* \"#utility.yul\":1673:1676   */\n      dup3\n        /* \"#utility.yul\":1669:1683   */\n      add\n        /* \"#utility.yul\":1654:1683   */\n      swap1\n      pop\n        /* \"#utility.yul\":1520:1689   */\n      swap3\n      swap2\n      pop\n      pop\n      jump\t// out\n        /* \"#utility.yul\":1695:1834   */\n    tag_109:\n        /* \"#utility.yul\":1784:1790   */\n      dup3\n        /* \"#utility.yul\":1779:1782   */\n      dup2\n        /* \"#utility.yul\":1774:1777   */\n      dup4\n        /* \"#utility.yul\":1768:1791   */\n      mcopy\n        /* \"#utility.yul\":1825:1826   */\n      0x00\n        /* \"#utility.yul\":1816:1822   */\n      dup4\n        /* \"#utility.yul\":1811:1814   */\n      dup4\n        /* \"#utility.yul\":1807:1823   */\n      add\n        /* \"#utility.yul\":1800:1827   */\n      mstore\n        /* \"#utility.yul\":1695:1834   */\n      pop\n      pop\n      pop\n      jump\t// out\n        /* \"#utility.yul\":1840:1942   */\n    tag_110:\n        /* \"#utility.yul\":1881:1887   */\n      0x00\n        /* \"#utility.yul\":1932:1934   */\n      0x1f\n        /* \"#utility.yul\":1928:1935   */\n      not\n        /* \"#utility.yul\":1923:1925   */\n      0x1f\n        /* \"#utility.yul\":1916:1921   */\n      dup4\n        /* \"#utility.yul\":1912:1926   */\n      add\n        /* \"#utility.yul\":1908:1936   */\n      and\n        /* \"#utility.yul\":1898:1936   */\n      swap1\n      pop\n        /* \"#utility.yul\":1840:1942   */\n      swap2\n      swap1\n      pop\n      jump\t// out\n        /* \"#utility.yul\":1948:2325   */\n    tag_111:\n        /* \"#utility.yul\":2036:2039   */\n      0x00\n        /* \"#utility.yul\":2064:2103   */\n      tag_190\n        /* \"#utility.yul\":2097:2102   */\n      dup3\n        /* \"#utility.yul\":2064:2103   */\n      tag_107\n      jump\t// in\n    tag_190:\n        /* \"#utility.yul\":2119:2190   */\n      tag_191\n        /* \"#utility.yul\":2183:2189   */\n      dup2\n        /* \"#utility.yul\":2178:2181   */\n      dup6\n        /* \"#utility.yul\":2119:2190   */\n      tag_108\n      jump\t// in\n    tag_191:\n        /* \"#utility.yul\":2112:2190   */\n      swap4\n      pop\n        /* \"#utility.yul\":2199:2264   */\n      tag_192\n        /* \"#utility.yul\":2257:2263   */\n      dup2\n        /* \"#utility.yul\":2252:2255   */\n      dup6\n        /* \"#utility.yul\":2245:2249   */\n      0x20\n        /* \"#utility.yul\":2238:2243   */\n      dup7\n        /* \"#utility.yul\":2234:2250   */\n      add\n        /* \"#utility.yul\":2199:2264   */\n      tag_109\n      jump\t// in\n    tag_192:\n        /* \"#utility.yul\":2289:2318   */\n      tag_193\n        /* \"#utility.yul\":2311:2317   */\n      dup2\n        /* \"#utility.yul\":2289:2318   */\n      tag_110\n      jump\t// in\n    tag_193:\n        /* \"#utility.yul\":2284:2287   */\n      dup5\n        /* \"#utility.yul\":2280:2319   */\n      add\n        /* \"#utility.yul\":2273:2319   */\n      swap2\n      pop\n        /* \"#utility.yul\":2040:2325   */\n      pop\n        /* \"#utility.yul\":1948:2325   */\n      swap3\n      swap2\n      pop\n      pop\n      jump\t// out\n        /* \"#utility.yul\":2331:2449   */\n    tag_112:\n        /* \"#utility.yul\":2418:2442   */\n      tag_195\n        /* \"#utility.yul\":2436:2441   */\n      dup2\n        /* \"#utility.yul\":2418:2442   */\n      tag_101\n      jump\t// in\n    tag_195:\n        /* \"#utility.yul\":2413:2416   */\n      dup3\n        /* \"#utility.yul\":2406:2443   */\n      mstore\n        /* \"#utility.yul\":2331:2449   */\n      pop\n      pop\n      jump\t// out\n        /* \"#utility.yul\":2455:2545   */\n    tag_113:\n        /* \"#utility.yul\":2489:2496   */\n      0x00\n        /* \"#utility.yul\":2532:2537   */\n      dup2\n        /* \"#utility.yul\":2525:2538   */\n      iszero\n        /* \"#utility.yul\":2518:2539   */\n      iszero\n        /* \"#utility.yul\":2507:2539   */\n      swap1\n      pop\n        /* \"#utility.yul\":2455:2545   */\n      swap2\n      swap1\n      pop\n      jump\t// out\n        /* \"#utility.yul\":2551:2660   */\n    tag_114:\n        /* \"#utility.yul\":2632:2653   */\n      tag_198\n        /* \"#utility.yul\":2647:2652   */\n      dup2\n        /* \"#utility.yul\":2632:2653   */\n      tag_113\n      jump\t// in\n    tag_198:\n        /* \"#utility.yul\":2627:2630   */\n      dup3\n        /* \"#utility.yul\":2620:2654   */\n      mstore\n        /* \"#utility.yul\":2551:2660   */\n      pop\n      pop\n      jump\t// out\n        /* \"#utility.yul\":2666:3695   */\n    tag_14:\n        /* \"#utility.yul\":2973:2977   */\n      0x00\n        /* \"#utility.yul\":3011:3014   */\n      0xe0\n        /* \"#utility.yul\":3000:3009   */\n      dup3\n        /* \"#utility.yul\":2996:3015   */\n      add\n        /* \"#utility.yul\":2988:3015   */\n      swap1\n      pop\n        /* \"#utility.yul\":3025:3112   */\n      tag_200\n        /* \"#utility.yul\":3109:3110   */\n      0x00\n        /* \"#utility.yul\":3098:3107   */\n      dup4\n        /* \"#utility.yul\":3094:3111   */\n      add\n        /* \"#utility.yul\":3085:3091   */\n      dup11\n        /* \"#utility.yul\":3025:3112   */\n      tag_106\n      jump\t// in\n    tag_200:\n        /* \"#utility.yul\":3122:3210   */\n      tag_201\n        /* \"#utility.yul\":3206:3208   */\n      0x20\n        /* \"#utility.yul\":3195:3204   */\n      dup4\n        /* \"#utility.yul\":3191:3209   */\n      add\n        /* \"#utility.yul\":3182:3188   */\n      dup10\n        /* \"#utility.yul\":3122:3210   */\n      tag_106\n      jump\t// in\n    tag_201:\n        /* \"#utility.yul\":3257:3266   */\n      dup2\n        /* \"#utility.yul\":3251:3255   */\n      dup2\n        /* \"#utility.yul\":3247:3267   */\n      sub\n        /* \"#utility.yul\":3242:3244   */\n      0x40\n        /* \"#utility.yul\":3231:3240   */\n      dup4\n        /* \"#utility.yul\":3227:3245   */\n      add\n        /* \"#utility.yul\":3220:3268   */\n      mstore\n        /* \"#utility.yul\":3285:3363   */\n      tag_202\n        /* \"#utility.yul\":3358:3362   */\n      dup2\n        /* \"#utility.yul\":3349:3355   */\n      dup9\n        /* \"#utility.yul\":3285:3363   */\n      tag_111\n      jump\t// in\n    tag_202:\n        /* \"#utility.yul\":3277:3363   */\n      swap1\n      pop\n        /* \"#utility.yul\":3373:3445   */\n      tag_203\n        /* \"#utility.yul\":3441:3443   */\n      0x60\n        /* \"#utility.yul\":3430:3439   */\n      dup4\n        /* \"#utility.yul\":3426:3444   */\n      add\n        /* \"#utility.yul\":3417:3423   */\n      dup8\n        /* \"#utility.yul\":3373:3445   */\n      tag_112\n      jump\t// in\n    tag_203:\n        /* \"#utility.yul\":3455:3528   */\n      tag_204\n        /* \"#utility.yul\":3523:3526   */\n      0x80\n        /* \"#utility.yul\":3512:3521   */\n      dup4\n        /* \"#utility.yul\":3508:3527   */\n      add\n        /* \"#utility.yul\":3499:3505   */\n      dup7\n        /* \"#utility.yul\":3455:3528   */\n      tag_112\n      jump\t// in\n    tag_204:\n        /* \"#utility.yul\":3538:3611   */\n      tag_205\n        /* \"#utility.yul\":3606:3609   */\n      0xa0\n        /* \"#utility.yul\":3595:3604   */\n      dup4\n        /* \"#utility.yul\":3591:3610   */\n      add\n        /* \"#utility.yul\":3582:3588   */\n      dup6\n        /* \"#utility.yul\":3538:3611   */\n      tag_112\n      jump\t// in\n    tag_205:\n        /* \"#utility.yul\":3621:3688   */\n      tag_206\n        /* \"#utility.yul\":3683:3686   */\n      0xc0\n        /* \"#utility.yul\":3672:3681   */\n      dup4\n        /* \"#utility.yul\":3668:3687   */\n      add\n        /* \"#utility.yul\":3659:3665   */\n      dup5\n        /* \"#utility.yul\":3621:3688   */\n      tag_114\n      jump\t// in\n    tag_206:\n        /* \"#utility.yul\":2666:3695   */\n      swap9\n      swap8\n      pop\n      pop\n      pop\n      pop\n      pop\n      pop\n      pop\n      pop\n      jump\t// out\n        /* \"#utility.yul\":3701:3839   */\n    tag_115:\n        /* \"#utility.yul\":3792:3798   */\n      0x00\n        /* \"#utility.yul\":3826:3831   */\n      dup2\n        /* \"#utility.yul\":3820:3832   */\n      mload\n        /* \"#utility.yul\":3810:3832   */\n      swap1\n      pop\n        /* \"#utility.yul\":3701:3839   */\n      swap2\n      swap1\n      pop\n      jump\t// out\n        /* \"#utility.yul\":3845:4053   */\n    tag_116:\n        /* \"#utility.yul\":3968:3979   */\n      0x00\n        /* \"#utility.yul\":4002:4008   */\n      dup3\n        /* \"#utility.yul\":3997:4000   */\n      dup3\n        /* \"#utility.yul\":3990:4009   */\n      mstore\n        /* \"#utility.yul\":4042:4046   */\n      0x20\n        /* \"#utility.yul\":4037:4040   */\n      dup3\n        /* \"#utility.yul\":4033:4047   */\n      add\n        /* \"#utility.yul\":4018:4047   */\n      swap1\n      pop\n        /* \"#utility.yul\":3845:4053   */\n      swap3\n      swap2\n      pop\n      pop\n      jump\t// out\n        /* \"#utility.yul\":4059:4215   */\n    tag_117:\n        /* \"#utility.yul\":4150:4154   */\n      0x00\n        /* \"#utility.yul\":4173:4176   */\n      dup2\n        /* \"#utility.yul\":4165:4176   */\n      swap1\n      pop\n        /* \"#utility.yul\":4203:4207   */\n      0x20\n        /* \"#utility.yul\":4198:4201   */\n      dup3\n        /* \"#utility.yul\":4194:4208   */\n      add\n        /* \"#utility.yul\":4186:4208   */\n      swap1\n      pop\n        /* \"#utility.yul\":4059:4215   */\n      swap2\n      swap1\n      pop\n      jump\t// out\n        /* \"#utility.yul\":4221:4353   */\n    tag_118:\n        /* \"#utility.yul\":4314:4346   */\n      tag_211\n        /* \"#utility.yul\":4340:4345   */\n      dup2\n        /* \"#utility.yul\":4314:4346   */\n      tag_105\n      jump\t// in\n    tag_211:\n        /* \"#utility.yul\":4309:4312   */\n      dup3\n        /* \"#utility.yul\":4302:4347   */\n      mstore\n        /* \"#utility.yul\":4221:4353   */\n      pop\n      pop\n      jump\t// out\n        /* \"#utility.yul\":4359:4518   */\n    tag_119:\n        /* \"#utility.yul\":4433:4444   */\n      0x00\n        /* \"#utility.yul\":4467:4473   */\n      dup3\n        /* \"#utility.yul\":4462:4465   */\n      dup3\n        /* \"#utility.yul\":4455:4474   */\n      mstore\n        /* \"#utility.yul\":4507:4511   */\n      0x20\n        /* \"#utility.yul\":4502:4505   */\n      dup3\n        /* \"#utility.yul\":4498:4512   */\n      add\n        /* \"#utility.yul\":4483:4512   */\n      swap1\n      pop\n        /* \"#utility.yul\":4359:4518   */\n      swap3\n      swap2\n      pop\n      pop\n      jump\t// out\n        /* \"#utility.yul\":4524:4881   */\n    tag_120:\n        /* \"#utility.yul\":4602:4605   */\n      0x00\n        /* \"#utility.yul\":4630:4669   */\n      tag_214\n        /* \"#utility.yul\":4663:4668   */\n      dup3\n        /* \"#utility.yul\":4630:4669   */\n      tag_107\n      jump\t// in\n    tag_214:\n        /* \"#utility.yul\":4685:4746   */\n      tag_215\n        /* \"#utility.yul\":4739:4745   */\n      dup2\n        /* \"#utility.yul\":4734:4737   */\n      dup6\n        /* \"#utility.yul\":4685:4746   */\n      tag_119\n      jump\t// in\n    tag_215:\n        /* \"#utility.yul\":4678:4746   */\n      swap4\n      pop\n        /* \"#utility.yul\":4755:4820   */\n      tag_216\n        /* \"#utility.yul\":4813:4819   */\n      dup2\n        /* \"#utility.yul\":4808:4811   */\n      dup6\n        /* \"#utility.yul\":4801:4805   */\n      0x20\n        /* \"#utility.yul\":4794:4799   */\n      dup7\n        /* \"#utility.yul\":4790:4806   */\n      add\n        /* \"#utility.yul\":4755:4820   */\n      tag_109\n      jump\t// in\n    tag_216:\n        /* \"#utility.yul\":4845:4874   */\n      tag_217\n        /* \"#utility.yul\":4867:4873   */\n      dup2\n        /* \"#utility.yul\":4845:4874   */\n      tag_110\n      jump\t// in\n    tag_217:\n        /* \"#utility.yul\":4840:4843   */\n      dup5\n        /* \"#utility.yul\":4836:4875   */\n      add\n        /* \"#utility.yul\":4829:4875   */\n      swap2\n      pop\n        /* \"#utility.yul\":4606:4881   */\n      pop\n        /* \"#utility.yul\":4524:4881   */\n      swap3\n      swap2\n      pop\n      pop\n      jump\t// out\n        /* \"#utility.yul\":4887:4995   */\n    tag_121:\n        /* \"#utility.yul\":4964:4988   */\n      tag_219\n        /* \"#utility.yul\":4982:4987   */\n      dup2\n        /* \"#utility.yul\":4964:4988   */\n      tag_101\n      jump\t// in\n    tag_219:\n        /* \"#utility.yul\":4959:4962   */\n      dup3\n        /* \"#utility.yul\":4952:4989   */\n      mstore\n        /* \"#utility.yul\":4887:4995   */\n      pop\n      pop\n      jump\t// out\n        /* \"#utility.yul\":5001:5100   */\n    tag_122:\n        /* \"#utility.yul\":5072:5093   */\n      tag_221\n        /* \"#utility.yul\":5087:5092   */\n      dup2\n        /* \"#utility.yul\":5072:5093   */\n      tag_113\n      jump\t// in\n    tag_221:\n        /* \"#utility.yul\":5067:5070   */\n      dup3\n        /* \"#utility.yul\":5060:5094   */\n      mstore\n        /* \"#utility.yul\":5001:5100   */\n      pop\n      pop\n      jump\t// out\n        /* \"#utility.yul\":5164:6694   */\n    tag_123:\n        /* \"#utility.yul\":5271:5274   */\n      0x00\n        /* \"#utility.yul\":5307:5311   */\n      0xe0\n        /* \"#utility.yul\":5302:5305   */\n      dup4\n        /* \"#utility.yul\":5298:5312   */\n      add\n        /* \"#utility.yul\":5403:5407   */\n      0x00\n        /* \"#utility.yul\":5396:5401   */\n      dup4\n        /* \"#utility.yul\":5392:5408   */\n      add\n        /* \"#utility.yul\":5386:5409   */\n      mload\n        /* \"#utility.yul\":5422:5501   */\n      tag_223\n        /* \"#utility.yul\":5495:5499   */\n      0x00\n        /* \"#utility.yul\":5490:5493   */\n      dup7\n        /* \"#utility.yul\":5486:5500   */\n      add\n        /* \"#utility.yul\":5472:5484   */\n      dup3\n        /* \"#utility.yul\":5422:5501   */\n      tag_118\n      jump\t// in\n    tag_223:\n        /* \"#utility.yul\":5322:5511   */\n      pop\n        /* \"#utility.yul\":5600:5604   */\n      0x20\n        /* \"#utility.yul\":5593:5598   */\n      dup4\n        /* \"#utility.yul\":5589:5605   */\n      add\n        /* \"#utility.yul\":5583:5606   */\n      mload\n        /* \"#utility.yul\":5619:5698   */\n      tag_224\n        /* \"#utility.yul\":5692:5696   */\n      0x20\n        /* \"#utility.yul\":5687:5690   */\n      dup7\n        /* \"#utility.yul\":5683:5697   */\n      add\n        /* \"#utility.yul\":5669:5681   */\n      dup3\n        /* \"#utility.yul\":5619:5698   */\n      tag_118\n      jump\t// in\n    tag_224:\n        /* \"#utility.yul\":5521:5708   */\n      pop\n        /* \"#utility.yul\":5791:5795   */\n      0x40\n        /* \"#utility.yul\":5784:5789   */\n      dup4\n        /* \"#utility.yul\":5780:5796   */\n      add\n        /* \"#utility.yul\":5774:5797   */\n      mload\n        /* \"#utility.yul\":5844:5847   */\n      dup5\n        /* \"#utility.yul\":5838:5842   */\n      dup3\n        /* \"#utility.yul\":5834:5848   */\n      sub\n        /* \"#utility.yul\":5827:5831   */\n      0x40\n        /* \"#utility.yul\":5822:5825   */\n      dup7\n        /* \"#utility.yul\":5818:5832   */\n      add\n        /* \"#utility.yul\":5811:5849   */\n      mstore\n        /* \"#utility.yul\":5870:5943   */\n      tag_225\n        /* \"#utility.yul\":5938:5942   */\n      dup3\n        /* \"#utility.yul\":5924:5936   */\n      dup3\n        /* \"#utility.yul\":5870:5943   */\n      tag_120\n      jump\t// in\n    tag_225:\n        /* \"#utility.yul\":5862:5943   */\n      swap2\n      pop\n        /* \"#utility.yul\":5718:5954   */\n      pop\n        /* \"#utility.yul\":6040:6044   */\n      0x60\n        /* \"#utility.yul\":6033:6038   */\n      dup4\n        /* \"#utility.yul\":6029:6045   */\n      add\n        /* \"#utility.yul\":6023:6046   */\n      mload\n        /* \"#utility.yul\":6059:6122   */\n      tag_226\n        /* \"#utility.yul\":6116:6120   */\n      0x60\n        /* \"#utility.yul\":6111:6114   */\n      dup7\n        /* \"#utility.yul\":6107:6121   */\n      add\n        /* \"#utility.yul\":6093:6105   */\n      dup3\n        /* \"#utility.yul\":6059:6122   */\n      tag_121\n      jump\t// in\n    tag_226:\n        /* \"#utility.yul\":5964:6132   */\n      pop\n        /* \"#utility.yul\":6223:6227   */\n      0x80\n        /* \"#utility.yul\":6216:6221   */\n      dup4\n        /* \"#utility.yul\":6212:6228   */\n      add\n        /* \"#utility.yul\":6206:6229   */\n      mload\n        /* \"#utility.yul\":6242:6305   */\n      tag_227\n        /* \"#utility.yul\":6299:6303   */\n      0x80\n        /* \"#utility.yul\":6294:6297   */\n      dup7\n        /* \"#utility.yul\":6290:6304   */\n      add\n        /* \"#utility.yul\":6276:6288   */\n      dup3\n        /* \"#utility.yul\":6242:6305   */\n      tag_121\n      jump\t// in\n    tag_227:\n        /* \"#utility.yul\":6142:6315   */\n      pop\n        /* \"#utility.yul\":6405:6409   */\n      0xa0\n        /* \"#utility.yul\":6398:6403   */\n      dup4\n        /* \"#utility.yul\":6394:6410   */\n      add\n        /* \"#utility.yul\":6388:6411   */\n      mload\n        /* \"#utility.yul\":6424:6487   */\n      tag_228\n        /* \"#utility.yul\":6481:6485   */\n      0xa0\n        /* \"#utility.yul\":6476:6479   */\n      dup7\n        /* \"#utility.yul\":6472:6486   */\n      add\n        /* \"#utility.yul\":6458:6470   */\n      dup3\n        /* \"#utility.yul\":6424:6487   */\n      tag_121\n      jump\t// in\n    tag_228:\n        /* \"#utility.yul\":6325:6497   */\n      pop\n        /* \"#utility.yul\":6581:6585   */\n      0xc0\n        /* \"#utility.yul\":6574:6579   */\n      dup4\n        /* \"#utility.yul\":6570:6586   */\n      add\n        /* \"#utility.yul\":6564:6587   */\n      mload\n        /* \"#utility.yul\":6600:6657   */\n      tag_229\n        /* \"#utility.yul\":6651:6655   */\n      0xc0\n        /* \"#utility.yul\":6646:6649   */\n      dup7\n        /* \"#utility.yul\":6642:6656   */\n      add\n        /* \"#utility.yul\":6628:6640   */\n      dup3\n        /* \"#utility.yul\":6600:6657   */\n      tag_122\n      jump\t// in\n    tag_229:\n        /* \"#utility.yul\":6507:6667   */\n      pop\n        /* \"#utility.yul\":6684:6688   */\n      dup1\n        /* \"#utility.yul\":6677:6688   */\n      swap2\n      pop\n        /* \"#utility.yul\":5276:6694   */\n      pop\n        /* \"#utility.yul\":5164:6694   */\n      swap3\n      swap2\n      pop\n      pop\n      jump\t// out\n        /* \"#utility.yul\":6700:6952   */\n    tag_124:\n        /* \"#utility.yul\":6817:6827   */\n      0x00\n        /* \"#utility.yul\":6852:6946   */\n      tag_231\n        /* \"#utility.yul\":6942:6945   */\n      dup4\n        /* \"#utility.yul\":6934:6940   */\n      dup4\n        /* \"#utility.yul\":6852:6946   */\n      tag_123\n      jump\t// in\n    tag_231:\n        /* \"#utility.yul\":6838:6946   */\n      swap1\n      pop\n        /* \"#utility.yul\":6700:6952   */\n      swap3\n      swap2\n      pop\n      pop\n      jump\t// out\n        /* \"#utility.yul\":6958:7095   */\n    tag_125:\n        /* \"#utility.yul\":7052:7056   */\n      0x00\n        /* \"#utility.yul\":7084:7088   */\n      0x20\n        /* \"#utility.yul\":7079:7082   */\n      dup3\n        /* \"#utility.yul\":7075:7089   */\n      add\n        /* \"#utility.yul\":7067:7089   */\n      swap1\n      pop\n        /* \"#utility.yul\":6958:7095   */\n      swap2\n      swap1\n      pop\n      jump\t// out\n        /* \"#utility.yul\":7163:8266   */\n    tag_126:\n        /* \"#utility.yul\":7330:7333   */\n      0x00\n        /* \"#utility.yul\":7359:7437   */\n      tag_234\n        /* \"#utility.yul\":7431:7436   */\n      dup3\n        /* \"#utility.yul\":7359:7437   */\n      tag_115\n      jump\t// in\n    tag_234:\n        /* \"#utility.yul\":7453:7563   */\n      tag_235\n        /* \"#utility.yul\":7556:7562   */\n      dup2\n        /* \"#utility.yul\":7551:7554   */\n      dup6\n        /* \"#utility.yul\":7453:7563   */\n      tag_116\n      jump\t// in\n    tag_235:\n        /* \"#utility.yul\":7446:7563   */\n      swap4\n      pop\n        /* \"#utility.yul\":7589:7592   */\n      dup4\n        /* \"#utility.yul\":7634:7638   */\n      0x20\n        /* \"#utility.yul\":7626:7632   */\n      dup3\n        /* \"#utility.yul\":7622:7639   */\n      mul\n        /* \"#utility.yul\":7617:7620   */\n      dup6\n        /* \"#utility.yul\":7613:7640   */\n      add\n        /* \"#utility.yul\":7664:7744   */\n      tag_236\n        /* \"#utility.yul\":7738:7743   */\n      dup6\n        /* \"#utility.yul\":7664:7744   */\n      tag_117\n      jump\t// in\n    tag_236:\n        /* \"#utility.yul\":7767:7774   */\n      dup1\n        /* \"#utility.yul\":7798:7799   */\n      0x00\n        /* \"#utility.yul\":7783:8221   */\n    tag_237:\n        /* \"#utility.yul\":7808:7814   */\n      dup6\n        /* \"#utility.yul\":7805:7806   */\n      dup2\n        /* \"#utility.yul\":7802:7815   */\n      lt\n        /* \"#utility.yul\":7783:8221   */\n      iszero\n      tag_239\n      jumpi\n        /* \"#utility.yul\":7879:7888   */\n      dup5\n        /* \"#utility.yul\":7873:7877   */\n      dup5\n        /* \"#utility.yul\":7869:7889   */\n      sub\n        /* \"#utility.yul\":7864:7867   */\n      dup10\n        /* \"#utility.yul\":7857:7890   */\n      mstore\n        /* \"#utility.yul\":7930:7936   */\n      dup2\n        /* \"#utility.yul\":7924:7937   */\n      mload\n        /* \"#utility.yul\":7958:8070   */\n      tag_240\n        /* \"#utility.yul\":8065:8069   */\n      dup6\n        /* \"#utility.yul\":8050:8063   */\n      dup3\n        /* \"#utility.yul\":7958:8070   */\n      tag_124\n      jump\t// in\n    tag_240:\n        /* \"#utility.yul\":7950:8070   */\n      swap5\n      pop\n        /* \"#utility.yul\":8093:8177   */\n      tag_241\n        /* \"#utility.yul\":8170:8176   */\n      dup4\n        /* \"#utility.yul\":8093:8177   */\n      tag_125\n      jump\t// in\n    tag_241:\n        /* \"#utility.yul\":8083:8177   */\n      swap3\n      pop\n        /* \"#utility.yul\":8206:8210   */\n      0x20\n        /* \"#utility.yul\":8201:8204   */\n      dup11\n        /* \"#utility.yul\":8197:8211   */\n      add\n        /* \"#utility.yul\":8190:8211   */\n      swap10\n      pop\n        /* \"#utility.yul\":7843:8221   */\n      pop\n        /* \"#utility.yul\":7830:7831   */\n      0x01\n        /* \"#utility.yul\":7827:7828   */\n      dup2\n        /* \"#utility.yul\":7823:7832   */\n      add\n        /* \"#utility.yul\":7818:7832   */\n      swap1\n      pop\n        /* \"#utility.yul\":7783:8221   */\n      jump(tag_237)\n    tag_239:\n        /* \"#utility.yul\":7787:7801   */\n      pop\n        /* \"#utility.yul\":8237:8241   */\n      dup3\n        /* \"#utility.yul\":8230:8241   */\n      swap8\n      pop\n        /* \"#utility.yul\":8257:8260   */\n      dup8\n        /* \"#utility.yul\":8250:8260   */\n      swap6\n      pop\n        /* \"#utility.yul\":7335:8266   */\n      pop\n      pop\n      pop\n      pop\n      pop\n        /* \"#utility.yul\":7163:8266   */\n      swap3\n      swap2\n      pop\n      pop\n      jump\t// out\n        /* \"#utility.yul\":8272:8741   */\n    tag_18:\n        /* \"#utility.yul\":8463:8467   */\n      0x00\n        /* \"#utility.yul\":8501:8503   */\n      0x20\n        /* \"#utility.yul\":8490:8499   */\n      dup3\n        /* \"#utility.yul\":8486:8504   */\n      add\n        /* \"#utility.yul\":8478:8504   */\n      swap1\n      pop\n        /* \"#utility.yul\":8550:8559   */\n      dup2\n        /* \"#utility.yul\":8544:8548   */\n      dup2\n        /* \"#utility.yul\":8540:8560   */\n      sub\n        /* \"#utility.yul\":8536:8537   */\n      0x00\n        /* \"#utility.yul\":8525:8534   */\n      dup4\n        /* \"#utility.yul\":8521:8538   */\n      add\n        /* \"#utility.yul\":8514:8561   */\n      mstore\n        /* \"#utility.yul\":8578:8734   */\n      tag_243\n        /* \"#utility.yul\":8729:8733   */\n      dup2\n        /* \"#utility.yul\":8720:8726   */\n      dup5\n        /* \"#utility.yul\":8578:8734   */\n      tag_126\n      jump\t// in\n    tag_243:\n        /* \"#utility.yul\":8570:8734   */\n      swap1\n      pop\n        /* \"#utility.yul\":8272:8741   */\n      swap3\n      swap2\n      pop\n      pop\n      jump\t// out\n        /* \"#utility.yul\":8747:8885   */\n    tag_127:\n        /* \"#utility.yul\":8828:8860   */\n      tag_245\n        /* \"#utility.yul\":8854:8859   */\n      dup2\n        /* \"#utility.yul\":8828:8860   */\n      tag_105\n      jump\t// in\n    tag_245:\n        /* \"#utility.yul\":8821:8826   */\n      dup2\n        /* \"#utility.yul\":8818:8861   */\n      eq\n        /* \"#utility.yul\":8808:8879   */\n      tag_246\n      jumpi\n        /* \"#utility.yul\":8875:8876   */\n      0x00\n        /* \"#utility.yul\":8872:8873   */\n      dup1\n        /* \"#utility.yul\":8865:8877   */\n      revert\n        /* \"#utility.yul\":8808:8879   */\n    tag_246:\n        /* \"#utility.yul\":8747:8885   */\n      pop\n      jump\t// out\n        /* \"#utility.yul\":8891:9046   */\n    tag_128:\n        /* \"#utility.yul\":8945:8950   */\n      0x00\n        /* \"#utility.yul\":8983:8989   */\n      dup2\n        /* \"#utility.yul\":8970:8990   */\n      calldataload\n        /* \"#utility.yul\":8961:8990   */\n      swap1\n      pop\n        /* \"#utility.yul\":8999:9040   */\n      tag_248\n        /* \"#utility.yul\":9034:9039   */\n      dup2\n        /* \"#utility.yul\":8999:9040   */\n      tag_127\n      jump\t// in\n    tag_248:\n        /* \"#utility.yul\":8891:9046   */\n      swap3\n      swap2\n      pop\n      pop\n      jump\t// out\n        /* \"#utility.yul\":9052:9169   */\n    tag_129:\n        /* \"#utility.yul\":9161:9162   */\n      0x00\n        /* \"#utility.yul\":9158:9159   */\n      dup1\n        /* \"#utility.yul\":9151:9163   */\n      revert\n        /* \"#utility.yul\":9175:9292   */\n    tag_130:\n        /* \"#utility.yul\":9284:9285   */\n      0x00\n        /* \"#utility.yul\":9281:9282   */\n      dup1\n        /* \"#utility.yul\":9274:9286   */\n      revert\n        /* \"#utility.yul\":9298:9478   */\n    tag_131:\n        /* \"#utility.yul\":9346:9423   */\n      0x4e487b7100000000000000000000000000000000000000000000000000000000\n        /* \"#utility.yul\":9343:9344   */\n      0x00\n        /* \"#utility.yul\":9336:9424   */\n      mstore\n        /* \"#utility.yul\":9443:9447   */\n      0x41\n        /* \"#utility.yul\":9440:9441   */\n      0x04\n        /* \"#utility.yul\":9433:9448   */\n      mstore\n        /* \"#utility.yul\":9467:9471   */\n      0x24\n        /* \"#utility.yul\":9464:9465   */\n      0x00\n        /* \"#utility.yul\":9457:9472   */\n      revert\n        /* \"#utility.yul\":9484:9765   */\n    tag_132:\n        /* \"#utility.yul\":9567:9594   */\n      tag_253\n        /* \"#utility.yul\":9589:9593   */\n      dup3\n        /* \"#utility.yul\":9567:9594   */\n      tag_110\n      jump\t// in\n    tag_253:\n        /* \"#utility.yul\":9559:9565   */\n      dup2\n        /* \"#utility.yul\":9555:9595   */\n      add\n        /* \"#utility.yul\":9697:9703   */\n      dup2\n        /* \"#utility.yul\":9685:9695   */\n      dup2\n        /* \"#utility.yul\":9682:9704   */\n      lt\n        /* \"#utility.yul\":9661:9679   */\n      0xffffffffffffffff\n        /* \"#utility.yul\":9649:9659   */\n      dup3\n        /* \"#utility.yul\":9646:9680   */\n      gt\n        /* \"#utility.yul\":9643:9705   */\n      or\n        /* \"#utility.yul\":9640:9728   */\n      iszero\n      tag_254\n      jumpi\n        /* \"#utility.yul\":9708:9726   */\n      tag_255\n      tag_131\n      jump\t// in\n    tag_255:\n        /* \"#utility.yul\":9640:9728   */\n    tag_254:\n        /* \"#utility.yul\":9748:9758   */\n      dup1\n        /* \"#utility.yul\":9744:9746   */\n      0x40\n        /* \"#utility.yul\":9737:9759   */\n      mstore\n        /* \"#utility.yul\":9527:9765   */\n      pop\n        /* \"#utility.yul\":9484:9765   */\n      pop\n      pop\n      jump\t// out\n        /* \"#utility.yul\":9771:9900   */\n    tag_133:\n        /* \"#utility.yul\":9805:9811   */\n      0x00\n        /* \"#utility.yul\":9832:9852   */\n      tag_257\n      tag_98\n      jump\t// in\n    tag_257:\n        /* \"#utility.yul\":9822:9852   */\n      swap1\n      pop\n        /* \"#utility.yul\":9861:9894   */\n      tag_258\n        /* \"#utility.yul\":9889:9893   */\n      dup3\n        /* \"#utility.yul\":9881:9887   */\n      dup3\n        /* \"#utility.yul\":9861:9894   */\n      tag_132\n      jump\t// in\n    tag_258:\n        /* \"#utility.yul\":9771:9900   */\n      swap2\n      swap1\n      pop\n      jump\t// out\n        /* \"#utility.yul\":9906:10214   */\n    tag_134:\n        /* \"#utility.yul\":9968:9972   */\n      0x00\n        /* \"#utility.yul\":10058:10076   */\n      0xffffffffffffffff\n        /* \"#utility.yul\":10050:10056   */\n      dup3\n        /* \"#utility.yul\":10047:10077   */\n      gt\n        /* \"#utility.yul\":10044:10100   */\n      iszero\n      tag_260\n      jumpi\n        /* \"#utility.yul\":10080:10098   */\n      tag_261\n      tag_131\n      jump\t// in\n    tag_261:\n        /* \"#utility.yul\":10044:10100   */\n    tag_260:\n        /* \"#utility.yul\":10118:10147   */\n      tag_262\n        /* \"#utility.yul\":10140:10146   */\n      dup3\n        /* \"#utility.yul\":10118:10147   */\n      tag_110\n      jump\t// in\n    tag_262:\n        /* \"#utility.yul\":10110:10147   */\n      swap1\n      pop\n        /* \"#utility.yul\":10202:10206   */\n      0x20\n        /* \"#utility.yul\":10196:10200   */\n      dup2\n        /* \"#utility.yul\":10192:10207   */\n      add\n        /* \"#utility.yul\":10184:10207   */\n      swap1\n      pop\n        /* \"#utility.yul\":9906:10214   */\n      swap2\n      swap1\n      pop\n      jump\t// out\n        /* \"#utility.yul\":10220:10368   */\n    tag_135:\n        /* \"#utility.yul\":10318:10324   */\n      dup3\n        /* \"#utility.yul\":10313:10316   */\n      dup2\n        /* \"#utility.yul\":10308:10311   */\n      dup4\n        /* \"#utility.yul\":10295:10325   */\n      calldatacopy\n        /* \"#utility.yul\":10359:10360   */\n      0x00\n        /* \"#utility.yul\":10350:10356   */\n      dup4\n        /* \"#utility.yul\":10345:10348   */\n      dup4\n        /* \"#utility.yul\":10341:10357   */\n      add\n        /* \"#utility.yul\":10334:10361   */\n      mstore\n        /* \"#utility.yul\":10220:10368   */\n      pop\n      pop\n      pop\n      jump\t// out\n        /* \"#utility.yul\":10374:10799   */\n    tag_136:\n        /* \"#utility.yul\":10452:10457   */\n      0x00\n        /* \"#utility.yul\":10477:10543   */\n      tag_265\n        /* \"#utility.yul\":10493:10542   */\n      tag_266\n        /* \"#utility.yul\":10535:10541   */\n      dup5\n        /* \"#utility.yul\":10493:10542   */\n      tag_134\n      jump\t// in\n    tag_266:\n        /* \"#utility.yul\":10477:10543   */\n      tag_133\n      jump\t// in\n    tag_265:\n        /* \"#utility.yul\":10468:10543   */\n      swap1\n      pop\n        /* \"#utility.yul\":10566:10572   */\n      dup3\n        /* \"#utility.yul\":10559:10564   */\n      dup2\n        /* \"#utility.yul\":10552:10573   */\n      mstore\n        /* \"#utility.yul\":10604:10608   */\n      0x20\n        /* \"#utility.yul\":10597:10602   */\n      dup2\n        /* \"#utility.yul\":10593:10609   */\n      add\n        /* \"#utility.yul\":10642:10645   */\n      dup5\n        /* \"#utility.yul\":10633:10639   */\n      dup5\n        /* \"#utility.yul\":10628:10631   */\n      dup5\n        /* \"#utility.yul\":10624:10640   */\n      add\n        /* \"#utility.yul\":10621:10646   */\n      gt\n        /* \"#utility.yul\":10618:10730   */\n      iszero\n      tag_267\n      jumpi\n        /* \"#utility.yul\":10649:10728   */\n      tag_268\n      tag_130\n      jump\t// in\n    tag_268:\n        /* \"#utility.yul\":10618:10730   */\n    tag_267:\n        /* \"#utility.yul\":10739:10793   */\n      tag_269\n        /* \"#utility.yul\":10786:10792   */\n      dup5\n        /* \"#utility.yul\":10781:10784   */\n      dup3\n        /* \"#utility.yul\":10776:10779   */\n      dup6\n        /* \"#utility.yul\":10739:10793   */\n      tag_135\n      jump\t// in\n    tag_269:\n        /* \"#utility.yul\":10458:10799   */\n      pop\n        /* \"#utility.yul\":10374:10799   */\n      swap4\n      swap3\n      pop\n      pop\n      pop\n      jump\t// out\n        /* \"#utility.yul\":10819:11159   */\n    tag_137:\n        /* \"#utility.yul\":10875:10880   */\n      0x00\n        /* \"#utility.yul\":10924:10927   */\n      dup3\n        /* \"#utility.yul\":10917:10921   */\n      0x1f\n        /* \"#utility.yul\":10909:10915   */\n      dup4\n        /* \"#utility.yul\":10905:10922   */\n      add\n        /* \"#utility.yul\":10901:10928   */\n      slt\n        /* \"#utility.yul\":10891:11013   */\n      tag_271\n      jumpi\n        /* \"#utility.yul\":10932:11011   */\n      tag_272\n      tag_129\n      jump\t// in\n    tag_272:\n        /* \"#utility.yul\":10891:11013   */\n    tag_271:\n        /* \"#utility.yul\":11049:11055   */\n      dup2\n        /* \"#utility.yul\":11036:11056   */\n      calldataload\n        /* \"#utility.yul\":11074:11153   */\n      tag_273\n        /* \"#utility.yul\":11149:11152   */\n      dup5\n        /* \"#utility.yul\":11141:11147   */\n      dup3\n        /* \"#utility.yul\":11134:11138   */\n      0x20\n        /* \"#utility.yul\":11126:11132   */\n      dup7\n        /* \"#utility.yul\":11122:11139   */\n      add\n        /* \"#utility.yul\":11074:11153   */\n      tag_136\n      jump\t// in\n    tag_273:\n        /* \"#utility.yul\":11065:11153   */\n      swap2\n      pop\n        /* \"#utility.yul\":10881:11159   */\n      pop\n        /* \"#utility.yul\":10819:11159   */\n      swap3\n      swap2\n      pop\n      pop\n      jump\t// out\n        /* \"#utility.yul\":11165:12126   */\n    tag_21:\n        /* \"#utility.yul\":11269:11275   */\n      0x00\n        /* \"#utility.yul\":11277:11283   */\n      dup1\n        /* \"#utility.yul\":11285:11291   */\n      0x00\n        /* \"#utility.yul\":11293:11299   */\n      dup1\n        /* \"#utility.yul\":11342:11345   */\n      0x80\n        /* \"#utility.yul\":11330:11339   */\n      dup6\n        /* \"#utility.yul\":11321:11328   */\n      dup8\n        /* \"#utility.yul\":11317:11340   */\n      sub\n        /* \"#utility.yul\":11313:11346   */\n      slt\n        /* \"#utility.yul\":11310:11430   */\n      iszero\n      tag_275\n      jumpi\n        /* \"#utility.yul\":11349:11428   */\n      tag_276\n      tag_99\n      jump\t// in\n    tag_276:\n        /* \"#utility.yul\":11310:11430   */\n    tag_275:\n        /* \"#utility.yul\":11469:11470   */\n      0x00\n        /* \"#utility.yul\":11494:11555   */\n      tag_277\n        /* \"#utility.yul\":11547:11554   */\n      dup8\n        /* \"#utility.yul\":11538:11544   */\n      dup3\n        /* \"#utility.yul\":11527:11536   */\n      dup9\n        /* \"#utility.yul\":11523:11545   */\n      add\n        /* \"#utility.yul\":11494:11555   */\n      tag_128\n      jump\t// in\n    tag_277:\n        /* \"#utility.yul\":11484:11555   */\n      swap5\n      pop\n        /* \"#utility.yul\":11440:11565   */\n      pop\n        /* \"#utility.yul\":11632:11634   */\n      0x20\n        /* \"#utility.yul\":11621:11630   */\n      dup6\n        /* \"#utility.yul\":11617:11635   */\n      add\n        /* \"#utility.yul\":11604:11636   */\n      calldataload\n        /* \"#utility.yul\":11663:11681   */\n      0xffffffffffffffff\n        /* \"#utility.yul\":11655:11661   */\n      dup2\n        /* \"#utility.yul\":11652:11682   */\n      gt\n        /* \"#utility.yul\":11649:11766   */\n      iszero\n      tag_278\n      jumpi\n        /* \"#utility.yul\":11685:11764   */\n      tag_279\n      tag_100\n      jump\t// in\n    tag_279:\n        /* \"#utility.yul\":11649:11766   */\n    tag_278:\n        /* \"#utility.yul\":11790:11853   */\n      tag_280\n        /* \"#utility.yul\":11845:11852   */\n      dup8\n        /* \"#utility.yul\":11836:11842   */\n      dup3\n        /* \"#utility.yul\":11825:11834   */\n      dup9\n        /* \"#utility.yul\":11821:11843   */\n      add\n        /* \"#utility.yul\":11790:11853   */\n      tag_137\n      jump\t// in\n    tag_280:\n        /* \"#utility.yul\":11780:11853   */\n      swap4\n      pop\n        /* \"#utility.yul\":11575:11863   */\n      pop\n        /* \"#utility.yul\":11902:11904   */\n      0x40\n        /* \"#utility.yul\":11928:11981   */\n      tag_281\n        /* \"#utility.yul\":11973:11980   */\n      dup8\n        /* \"#utility.yul\":11964:11970   */\n      dup3\n        /* \"#utility.yul\":11953:11962   */\n      dup9\n        /* \"#utility.yul\":11949:11971   */\n      add\n        /* \"#utility.yul\":11928:11981   */\n      tag_103\n      jump\t// in\n    tag_281:\n        /* \"#utility.yul\":11918:11981   */\n      swap3\n      pop\n        /* \"#utility.yul\":11873:11991   */\n      pop\n        /* \"#utility.yul\":12030:12032   */\n      0x60\n        /* \"#utility.yul\":12056:12109   */\n      tag_282\n        /* \"#utility.yul\":12101:12108   */\n      dup8\n        /* \"#utility.yul\":12092:12098   */\n      dup3\n        /* \"#utility.yul\":12081:12090   */\n      dup9\n        /* \"#utility.yul\":12077:12099   */\n      add\n        /* \"#utility.yul\":12056:12109   */\n      tag_103\n      jump\t// in\n    tag_282:\n        /* \"#utility.yul\":12046:12109   */\n      swap2\n      pop\n        /* \"#utility.yul\":12001:12119   */\n      pop\n        /* \"#utility.yul\":11165:12126   */\n      swap3\n      swap6\n      swap2\n      swap5\n      pop\n      swap3\n      pop\n      jump\t// out\n        /* \"#utility.yul\":12132:12641   */\n    tag_25:\n        /* \"#utility.yul\":12201:12207   */\n      0x00\n        /* \"#utility.yul\":12250:12252   */\n      0x20\n        /* \"#utility.yul\":12238:12247   */\n      dup3\n        /* \"#utility.yul\":12229:12236   */\n      dup5\n        /* \"#utility.yul\":12225:12248   */\n      sub\n        /* \"#utility.yul\":12221:12253   */\n      slt\n        /* \"#utility.yul\":12218:12337   */\n      iszero\n      tag_284\n      jumpi\n        /* \"#utility.yul\":12256:12335   */\n      tag_285\n      tag_99\n      jump\t// in\n    tag_285:\n        /* \"#utility.yul\":12218:12337   */\n    tag_284:\n        /* \"#utility.yul\":12404:12405   */\n      0x00\n        /* \"#utility.yul\":12393:12402   */\n      dup3\n        /* \"#utility.yul\":12389:12406   */\n      add\n        /* \"#utility.yul\":12376:12407   */\n      calldataload\n        /* \"#utility.yul\":12434:12452   */\n      0xffffffffffffffff\n        /* \"#utility.yul\":12426:12432   */\n      dup2\n        /* \"#utility.yul\":12423:12453   */\n      gt\n        /* \"#utility.yul\":12420:12537   */\n      iszero\n      tag_286\n      jumpi\n        /* \"#utility.yul\":12456:12535   */\n      tag_287\n      tag_100\n      jump\t// in\n    tag_287:\n        /* \"#utility.yul\":12420:12537   */\n    tag_286:\n        /* \"#utility.yul\":12561:12624   */\n      tag_288\n        /* \"#utility.yul\":12616:12623   */\n      dup5\n        /* \"#utility.yul\":12607:12613   */\n      dup3\n        /* \"#utility.yul\":12596:12605   */\n      dup6\n        /* \"#utility.yul\":12592:12614   */\n      add\n        /* \"#utility.yul\":12561:12624   */\n      tag_137\n      jump\t// in\n    tag_288:\n        /* \"#utility.yul\":12551:12624   */\n      swap2\n      pop\n        /* \"#utility.yul\":12347:12634   */\n      pop\n        /* \"#utility.yul\":12132:12641   */\n      swap3\n      swap2\n      pop\n      pop\n      jump\t// out\n        /* \"#utility.yul\":12647:13121   */\n    tag_28:\n        /* \"#utility.yul\":12812:12816   */\n      0x00\n        /* \"#utility.yul\":12850:12852   */\n      0x60\n        /* \"#utility.yul\":12839:12848   */\n      dup3\n        /* \"#utility.yul\":12835:12853   */\n      add\n        /* \"#utility.yul\":12827:12853   */\n      swap1\n      pop\n        /* \"#utility.yul\":12863:12950   */\n      tag_290\n        /* \"#utility.yul\":12947:12948   */\n      0x00\n        /* \"#utility.yul\":12936:12945   */\n      dup4\n        /* \"#utility.yul\":12932:12949   */\n      add\n        /* \"#utility.yul\":12923:12929   */\n      dup7\n        /* \"#utility.yul\":12863:12950   */\n      tag_106\n      jump\t// in\n    tag_290:\n        /* \"#utility.yul\":12960:13032   */\n      tag_291\n        /* \"#utility.yul\":13028:13030   */\n      0x20\n        /* \"#utility.yul\":13017:13026   */\n      dup4\n        /* \"#utility.yul\":13013:13031   */\n      add\n        /* \"#utility.yul\":13004:13010   */\n      dup6\n        /* \"#utility.yul\":12960:13032   */\n      tag_112\n      jump\t// in\n    tag_291:\n        /* \"#utility.yul\":13042:13114   */\n      tag_292\n        /* \"#utility.yul\":13110:13112   */\n      0x40\n        /* \"#utility.yul\":13099:13108   */\n      dup4\n        /* \"#utility.yul\":13095:13113   */\n      add\n        /* \"#utility.yul\":13086:13092   */\n      dup5\n        /* \"#utility.yul\":13042:13114   */\n      tag_112\n      jump\t// in\n    tag_292:\n        /* \"#utility.yul\":12647:13121   */\n      swap5\n      swap4\n      pop\n      pop\n      pop\n      pop\n      jump\t// out\n        /* \"#utility.yul\":13127:13307   */\n    tag_138:\n        /* \"#utility.yul\":13175:13252   */\n      0x4e487b7100000000000000000000000000000000000000000000000000000000\n        /* \"#utility.yul\":13172:13173   */\n      0x00\n        /* \"#utility.yul\":13165:13253   */\n      mstore\n        /* \"#utility.yul\":13272:13276   */\n      0x22\n        /* \"#utility.yul\":13269:13270   */\n      0x04\n        /* \"#utility.yul\":13262:13277   */\n      mstore\n        /* \"#utility.yul\":13296:13300   */\n      0x24\n        /* \"#utility.yul\":13293:13294   */\n      0x00\n        /* \"#utility.yul\":13286:13301   */\n      revert\n        /* \"#utility.yul\":13313:13633   */\n    tag_39:\n        /* \"#utility.yul\":13357:13363   */\n      0x00\n        /* \"#utility.yul\":13394:13395   */\n      0x02\n        /* \"#utility.yul\":13388:13392   */\n      dup3\n        /* \"#utility.yul\":13384:13396   */\n      div\n        /* \"#utility.yul\":13374:13396   */\n      swap1\n      pop\n        /* \"#utility.yul\":13441:13442   */\n      0x01\n        /* \"#utility.yul\":13435:13439   */\n      dup3\n        /* \"#utility.yul\":13431:13443   */\n      and\n        /* \"#utility.yul\":13462:13480   */\n      dup1\n        /* \"#utility.yul\":13452:13533   */\n      tag_295\n      jumpi\n        /* \"#utility.yul\":13518:13522   */\n      0x7f\n        /* \"#utility.yul\":13510:13516   */\n      dup3\n        /* \"#utility.yul\":13506:13523   */\n      and\n        /* \"#utility.yul\":13496:13523   */\n      swap2\n      pop\n        /* \"#utility.yul\":13452:13533   */\n    tag_295:\n        /* \"#utility.yul\":13580:13582   */\n      0x20\n        /* \"#utility.yul\":13572:13578   */\n      dup3\n        /* \"#utility.yul\":13569:13583   */\n      lt\n        /* \"#utility.yul\":13549:13567   */\n      dup2\n        /* \"#utility.yul\":13546:13584   */\n      sub\n        /* \"#utility.yul\":13543:13627   */\n      tag_296\n      jumpi\n        /* \"#utility.yul\":13599:13617   */\n      tag_297\n      tag_138\n      jump\t// in\n    tag_297:\n        /* \"#utility.yul\":13543:13627   */\n    tag_296:\n        /* \"#utility.yul\":13364:13633   */\n      pop\n        /* \"#utility.yul\":13313:13633   */\n      swap2\n      swap1\n      pop\n      jump\t// out\n        /* \"#utility.yul\":13639:13787   */\n    tag_139:\n        /* \"#utility.yul\":13741:13752   */\n      0x00\n        /* \"#utility.yul\":13778:13781   */\n      dup2\n        /* \"#utility.yul\":13763:13781   */\n      swap1\n      pop\n        /* \"#utility.yul\":13639:13787   */\n      swap3\n      swap2\n      pop\n      pop\n      jump\t// out\n        /* \"#utility.yul\":13793:14183   */\n    tag_140:\n        /* \"#utility.yul\":13899:13902   */\n      0x00\n        /* \"#utility.yul\":13927:13966   */\n      tag_300\n        /* \"#utility.yul\":13960:13965   */\n      dup3\n        /* \"#utility.yul\":13927:13966   */\n      tag_107\n      jump\t// in\n    tag_300:\n        /* \"#utility.yul\":13982:14071   */\n      tag_301\n        /* \"#utility.yul\":14064:14070   */\n      dup2\n        /* \"#utility.yul\":14059:14062   */\n      dup6\n        /* \"#utility.yul\":13982:14071   */\n      tag_139\n      jump\t// in\n    tag_301:\n        /* \"#utility.yul\":13975:14071   */\n      swap4\n      pop\n        /* \"#utility.yul\":14080:14145   */\n      tag_302\n        /* \"#utility.yul\":14138:14144   */\n      dup2\n        /* \"#utility.yul\":14133:14136   */\n      dup6\n        /* \"#utility.yul\":14126:14130   */\n      0x20\n        /* \"#utility.yul\":14119:14124   */\n      dup7\n        /* \"#utility.yul\":14115:14131   */\n      add\n        /* \"#utility.yul\":14080:14145   */\n      tag_109\n      jump\t// in\n    tag_302:\n        /* \"#utility.yul\":14170:14176   */\n      dup1\n        /* \"#utility.yul\":14165:14168   */\n      dup5\n        /* \"#utility.yul\":14161:14177   */\n      add\n        /* \"#utility.yul\":14154:14177   */\n      swap2\n      pop\n        /* \"#utility.yul\":13903:14183   */\n      pop\n        /* \"#utility.yul\":13793:14183   */\n      swap3\n      swap2\n      pop\n      pop\n      jump\t// out\n        /* \"#utility.yul\":14189:14464   */\n    tag_55:\n        /* \"#utility.yul\":14321:14324   */\n      0x00\n        /* \"#utility.yul\":14343:14438   */\n      tag_304\n        /* \"#utility.yul\":14434:14437   */\n      dup3\n        /* \"#utility.yul\":14425:14431   */\n      dup5\n        /* \"#utility.yul\":14343:14438   */\n      tag_140\n      jump\t// in\n    tag_304:\n        /* \"#utility.yul\":14336:14438   */\n      swap2\n      pop\n        /* \"#utility.yul\":14455:14458   */\n      dup2\n        /* \"#utility.yul\":14448:14458   */\n      swap1\n      pop\n        /* \"#utility.yul\":14189:14464   */\n      swap3\n      swap2\n      pop\n      pop\n      jump\t// out\n        /* \"#utility.yul\":14470:14650   */\n    tag_141:\n        /* \"#utility.yul\":14610:14642   */\n      0x47757920796f75206e6f2066697420637265617465206e616d65206e69690000\n        /* \"#utility.yul\":14606:14607   */\n      0x00\n        /* \"#utility.yul\":14598:14604   */\n      dup3\n        /* \"#utility.yul\":14594:14608   */\n      add\n        /* \"#utility.yul\":14587:14643   */\n      mstore\n        /* \"#utility.yul\":14470:14650   */\n      pop\n      jump\t// out\n        /* \"#utility.yul\":14656:15022   */\n    tag_142:\n        /* \"#utility.yul\":14798:14801   */\n      0x00\n        /* \"#utility.yul\":14819:14886   */\n      tag_307\n        /* \"#utility.yul\":14883:14885   */\n      0x1e\n        /* \"#utility.yul\":14878:14881   */\n      dup4\n        /* \"#utility.yul\":14819:14886   */\n      tag_108\n      jump\t// in\n    tag_307:\n        /* \"#utility.yul\":14812:14886   */\n      swap2\n      pop\n        /* \"#utility.yul\":14895:14988   */\n      tag_308\n        /* \"#utility.yul\":14984:14987   */\n      dup3\n        /* \"#utility.yul\":14895:14988   */\n      tag_141\n      jump\t// in\n    tag_308:\n        /* \"#utility.yul\":15013:15015   */\n      0x20\n        /* \"#utility.yul\":15008:15011   */\n      dup3\n        /* \"#utility.yul\":15004:15016   */\n      add\n        /* \"#utility.yul\":14997:15016   */\n      swap1\n      pop\n        /* \"#utility.yul\":14656:15022   */\n      swap2\n      swap1\n      pop\n      jump\t// out\n        /* \"#utility.yul\":15028:15447   */\n    tag_59:\n        /* \"#utility.yul\":15194:15198   */\n      0x00\n        /* \"#utility.yul\":15232:15234   */\n      0x20\n        /* \"#utility.yul\":15221:15230   */\n      dup3\n        /* \"#utility.yul\":15217:15235   */\n      add\n        /* \"#utility.yul\":15209:15235   */\n      swap1\n      pop\n        /* \"#utility.yul\":15281:15290   */\n      dup2\n        /* \"#utility.yul\":15275:15279   */\n      dup2\n        /* \"#utility.yul\":15271:15291   */\n      sub\n        /* \"#utility.yul\":15267:15268   */\n      0x00\n        /* \"#utility.yul\":15256:15265   */\n      dup4\n        /* \"#utility.yul\":15252:15269   */\n      add\n        /* \"#utility.yul\":15245:15292   */\n      mstore\n        /* \"#utility.yul\":15309:15440   */\n      tag_310\n        /* \"#utility.yul\":15435:15439   */\n      dup2\n        /* \"#utility.yul\":15309:15440   */\n      tag_142\n      jump\t// in\n    tag_310:\n        /* \"#utility.yul\":15301:15440   */\n      swap1\n      pop\n        /* \"#utility.yul\":15028:15447   */\n      swap2\n      swap1\n      pop\n      jump\t// out\n        /* \"#utility.yul\":15453:15629   */\n    tag_143:\n        /* \"#utility.yul\":15593:15621   */\n      0x5768696368206b696e6420616464726573732062652074686973000000000000\n        /* \"#utility.yul\":15589:15590   */\n      0x00\n        /* \"#utility.yul\":15581:15587   */\n      dup3\n        /* \"#utility.yul\":15577:15591   */\n      add\n        /* \"#utility.yul\":15570:15622   */\n      mstore\n        /* \"#utility.yul\":15453:15629   */\n      pop\n      jump\t// out\n        /* \"#utility.yul\":15635:16001   */\n    tag_144:\n        /* \"#utility.yul\":15777:15780   */\n      0x00\n        /* \"#utility.yul\":15798:15865   */\n      tag_313\n        /* \"#utility.yul\":15862:15864   */\n      0x1a\n        /* \"#utility.yul\":15857:15860   */\n      dup4\n        /* \"#utility.yul\":15798:15865   */\n      tag_108\n      jump\t// in\n    tag_313:\n        /* \"#utility.yul\":15791:15865   */\n      swap2\n      pop\n        /* \"#utility.yul\":15874:15967   */\n      tag_314\n        /* \"#utility.yul\":15963:15966   */\n      dup3\n        /* \"#utility.yul\":15874:15967   */\n      tag_143\n      jump\t// in\n    tag_314:\n        /* \"#utility.yul\":15992:15994   */\n      0x20\n        /* \"#utility.yul\":15987:15990   */\n      dup3\n        /* \"#utility.yul\":15983:15995   */\n      add\n        /* \"#utility.yul\":15976:15995   */\n      swap1\n      pop\n        /* \"#utility.yul\":15635:16001   */\n      swap2\n      swap1\n      pop\n      jump\t// out\n        /* \"#utility.yul\":16007:16426   */\n    tag_62:\n        /* \"#utility.yul\":16173:16177   */\n      0x00\n        /* \"#utility.yul\":16211:16213   */\n      0x20\n        /* \"#utility.yul\":16200:16209   */\n      dup3\n        /* \"#utility.yul\":16196:16214   */\n      add\n        /* \"#utility.yul\":16188:16214   */\n      swap1\n      pop\n        /* \"#utility.yul\":16260:16269   */\n      dup2\n        /* \"#utility.yul\":16254:16258   */\n      dup2\n        /* \"#utility.yul\":16250:16270   */\n      sub\n        /* \"#utility.yul\":16246:16247   */\n      0x00\n        /* \"#utility.yul\":16235:16244   */\n      dup4\n        /* \"#utility.yul\":16231:16248   */\n      add\n        /* \"#utility.yul\":16224:16271   */\n      mstore\n        /* \"#utility.yul\":16288:16419   */\n      tag_316\n        /* \"#utility.yul\":16414:16418   */\n      dup2\n        /* \"#utility.yul\":16288:16419   */\n      tag_144\n      jump\t// in\n    tag_316:\n        /* \"#utility.yul\":16280:16419   */\n      swap1\n      pop\n        /* \"#utility.yul\":16007:16426   */\n      swap2\n      swap1\n      pop\n      jump\t// out\n        /* \"#utility.yul\":16432:16607   */\n    tag_145:\n        /* \"#utility.yul\":16572:16599   */\n      0x596f75722063616d706169676e206e6f20676574206e616d6500000000000000\n        /* \"#utility.yul\":16568:16569   */\n      0x00\n        /* \"#utility.yul\":16560:16566   */\n      dup3\n        /* \"#utility.yul\":16556:16570   */\n      add\n        /* \"#utility.yul\":16549:16600   */\n      mstore\n        /* \"#utility.yul\":16432:16607   */\n      pop\n      jump\t// out\n        /* \"#utility.yul\":16613:16979   */\n    tag_146:\n        /* \"#utility.yul\":16755:16758   */\n      0x00\n        /* \"#utility.yul\":16776:16843   */\n      tag_319\n        /* \"#utility.yul\":16840:16842   */\n      0x19\n        /* \"#utility.yul\":16835:16838   */\n      dup4\n        /* \"#utility.yul\":16776:16843   */\n      tag_108\n      jump\t// in\n    tag_319:\n        /* \"#utility.yul\":16769:16843   */\n      swap2\n      pop\n        /* \"#utility.yul\":16852:16945   */\n      tag_320\n        /* \"#utility.yul\":16941:16944   */\n      dup3\n        /* \"#utility.yul\":16852:16945   */\n      tag_145\n      jump\t// in\n    tag_320:\n        /* \"#utility.yul\":16970:16972   */\n      0x20\n        /* \"#utility.yul\":16965:16968   */\n      dup3\n        /* \"#utility.yul\":16961:16973   */\n      add\n        /* \"#utility.yul\":16954:16973   */\n      swap1\n      pop\n        /* \"#utility.yul\":16613:16979   */\n      swap2\n      swap1\n      pop\n      jump\t// out\n        /* \"#utility.yul\":16985:17404   */\n    tag_65:\n        /* \"#utility.yul\":17151:17155   */\n      0x00\n        /* \"#utility.yul\":17189:17191   */\n      0x20\n        /* \"#utility.yul\":17178:17187   */\n      dup3\n        /* \"#utility.yul\":17174:17192   */\n      add\n        /* \"#utility.yul\":17166:17192   */\n      swap1\n      pop\n        /* \"#utility.yul\":17238:17247   */\n      dup2\n        /* \"#utility.yul\":17232:17236   */\n      dup2\n        /* \"#utility.yul\":17228:17248   */\n      sub\n        /* \"#utility.yul\":17224:17225   */\n      0x00\n        /* \"#utility.yul\":17213:17222   */\n      dup4\n        /* \"#utility.yul\":17209:17226   */\n      add\n        /* \"#utility.yul\":17202:17249   */\n      mstore\n        /* \"#utility.yul\":17266:17397   */\n      tag_322\n        /* \"#utility.yul\":17392:17396   */\n      dup2\n        /* \"#utility.yul\":17266:17397   */\n      tag_146\n      jump\t// in\n    tag_322:\n        /* \"#utility.yul\":17258:17397   */\n      swap1\n      pop\n        /* \"#utility.yul\":16985:17404   */\n      swap2\n      swap1\n      pop\n      jump\t// out\n        /* \"#utility.yul\":17410:17586   */\n    tag_147:\n        /* \"#utility.yul\":17550:17578   */\n      0x42727568682063616e20796f75206e6f7420646f20746861743f000000000000\n        /* \"#utility.yul\":17546:17547   */\n      0x00\n        /* \"#utility.yul\":17538:17544   */\n      dup3\n        /* \"#utility.yul\":17534:17548   */\n      add\n        /* \"#utility.yul\":17527:17579   */\n      mstore\n        /* \"#utility.yul\":17410:17586   */\n      pop\n      jump\t// out\n        /* \"#utility.yul\":17592:17958   */\n    tag_148:\n        /* \"#utility.yul\":17734:17737   */\n      0x00\n        /* \"#utility.yul\":17755:17822   */\n      tag_325\n        /* \"#utility.yul\":17819:17821   */\n      0x1a\n        /* \"#utility.yul\":17814:17817   */\n      dup4\n        /* \"#utility.yul\":17755:17822   */\n      tag_108\n      jump\t// in\n    tag_325:\n        /* \"#utility.yul\":17748:17822   */\n      swap2\n      pop\n        /* \"#utility.yul\":17831:17924   */\n      tag_326\n        /* \"#utility.yul\":17920:17923   */\n      dup3\n        /* \"#utility.yul\":17831:17924   */\n      tag_147\n      jump\t// in\n    tag_326:\n        /* \"#utility.yul\":17949:17951   */\n      0x20\n        /* \"#utility.yul\":17944:17947   */\n      dup3\n        /* \"#utility.yul\":17940:17952   */\n      add\n        /* \"#utility.yul\":17933:17952   */\n      swap1\n      pop\n        /* \"#utility.yul\":17592:17958   */\n      swap2\n      swap1\n      pop\n      jump\t// out\n        /* \"#utility.yul\":17964:18383   */\n    tag_68:\n        /* \"#utility.yul\":18130:18134   */\n      0x00\n        /* \"#utility.yul\":18168:18170   */\n      0x20\n        /* \"#utility.yul\":18157:18166   */\n      dup3\n        /* \"#utility.yul\":18153:18171   */\n      add\n        /* \"#utility.yul\":18145:18171   */\n      swap1\n      pop\n        /* \"#utility.yul\":18217:18226   */\n      dup2\n        /* \"#utility.yul\":18211:18215   */\n      dup2\n        /* \"#utility.yul\":18207:18227   */\n      sub\n        /* \"#utility.yul\":18203:18204   */\n      0x00\n        /* \"#utility.yul\":18192:18201   */\n      dup4\n        /* \"#utility.yul\":18188:18205   */\n      add\n        /* \"#utility.yul\":18181:18228   */\n      mstore\n        /* \"#utility.yul\":18245:18376   */\n      tag_328\n        /* \"#utility.yul\":18371:18375   */\n      dup2\n        /* \"#utility.yul\":18245:18376   */\n      tag_148\n      jump\t// in\n    tag_328:\n        /* \"#utility.yul\":18237:18376   */\n      swap1\n      pop\n        /* \"#utility.yul\":17964:18383   */\n      swap2\n      swap1\n      pop\n      jump\t// out\n        /* \"#utility.yul\":18389:18530   */\n    tag_149:\n        /* \"#utility.yul\":18438:18442   */\n      0x00\n        /* \"#utility.yul\":18461:18464   */\n      dup2\n        /* \"#utility.yul\":18453:18464   */\n      swap1\n      pop\n        /* \"#utility.yul\":18484:18487   */\n      dup2\n        /* \"#utility.yul\":18481:18482   */\n      0x00\n        /* \"#utility.yul\":18474:18488   */\n      mstore\n        /* \"#utility.yul\":18518:18522   */\n      0x20\n        /* \"#utility.yul\":18515:18516   */\n      0x00\n        /* \"#utility.yul\":18505:18523   */\n      keccak256\n        /* \"#utility.yul\":18497:18523   */\n      swap1\n      pop\n        /* \"#utility.yul\":18389:18530   */\n      swap2\n      swap1\n      pop\n      jump\t// out\n        /* \"#utility.yul\":18536:18629   */\n    tag_150:\n        /* \"#utility.yul\":18573:18579   */\n      0x00\n        /* \"#utility.yul\":18620:18622   */\n      0x20\n        /* \"#utility.yul\":18615:18617   */\n      0x1f\n        /* \"#utility.yul\":18608:18613   */\n      dup4\n        /* \"#utility.yul\":18604:18618   */\n      add\n        /* \"#utility.yul\":18600:18623   */\n      div\n        /* \"#utility.yul\":18590:18623   */\n      swap1\n      pop\n        /* \"#utility.yul\":18536:18629   */\n      swap2\n      swap1\n      pop\n      jump\t// out\n        /* \"#utility.yul\":18635:18742   */\n    tag_151:\n        /* \"#utility.yul\":18679:18687   */\n      0x00\n        /* \"#utility.yul\":18729:18734   */\n      dup3\n        /* \"#utility.yul\":18723:18727   */\n      dup3\n        /* \"#utility.yul\":18719:18735   */\n      shl\n        /* \"#utility.yul\":18698:18735   */\n      swap1\n      pop\n        /* \"#utility.yul\":18635:18742   */\n      swap3\n      swap2\n      pop\n      pop\n      jump\t// out\n        /* \"#utility.yul\":18748:19141   */\n    tag_152:\n        /* \"#utility.yul\":18817:18823   */\n      0x00\n        /* \"#utility.yul\":18867:18868   */\n      0x08\n        /* \"#utility.yul\":18855:18865   */\n      dup4\n        /* \"#utility.yul\":18851:18869   */\n      mul\n        /* \"#utility.yul\":18890:18987   */\n      tag_333\n        /* \"#utility.yul\":18920:18986   */\n      0xffffffffffffffffffffffffffffffffffffffffffffffffffffffffffffffff\n        /* \"#utility.yul\":18909:18918   */\n      dup3\n        /* \"#utility.yul\":18890:18987   */\n      tag_151\n      jump\t// in\n    tag_333:\n        /* \"#utility.yul\":19008:19047   */\n      tag_334\n        /* \"#utility.yul\":19038:19046   */\n      dup7\n        /* \"#utility.yul\":19027:19036   */\n      dup4\n        /* \"#utility.yul\":19008:19047   */\n      tag_151\n      jump\t// in\n    tag_334:\n        /* \"#utility.yul\":18996:19047   */\n      swap6\n      pop\n        /* \"#utility.yul\":19080:19084   */\n      dup1\n        /* \"#utility.yul\":19076:19085   */\n      not\n        /* \"#utility.yul\":19069:19074   */\n      dup5\n        /* \"#utility.yul\":19065:19086   */\n      and\n        /* \"#utility.yul\":19056:19086   */\n      swap4\n      pop\n        /* \"#utility.yul\":19129:19133   */\n      dup1\n        /* \"#utility.yul\":19119:19127   */\n      dup7\n        /* \"#utility.yul\":19115:19134   */\n      and\n        /* \"#utility.yul\":19108:19113   */\n      dup5\n        /* \"#utility.yul\":19105:19135   */\n      or\n        /* \"#utility.yul\":19095:19135   */\n      swap3\n      pop\n        /* \"#utility.yul\":18824:19141   */\n      pop\n      pop\n        /* \"#utility.yul\":18748:19141   */\n      swap4\n      swap3\n      pop\n      pop\n      pop\n      jump\t// out\n        /* \"#utility.yul\":19147:19207   */\n    tag_153:\n        /* \"#utility.yul\":19175:19178   */\n      0x00\n        /* \"#utility.yul\":19196:19201   */\n      dup2\n        /* \"#utility.yul\":19189:19201   */\n      swap1\n      pop\n        /* \"#utility.yul\":19147:19207   */\n      swap2\n      swap1\n      pop\n      jump\t// out\n        /* \"#utility.yul\":19213:19355   */\n    tag_154:\n        /* \"#utility.yul\":19263:19272   */\n      0x00\n        /* \"#utility.yul\":19296:19349   */\n      tag_337\n        /* \"#utility.yul\":19314:19348   */\n      tag_338\n        /* \"#utility.yul\":19323:19347   */\n      tag_339\n        /* \"#utility.yul\":19341:19346   */\n      dup5\n        /* \"#utility.yul\":19323:19347   */\n      tag_101\n      jump\t// in\n    tag_339:\n        /* \"#utility.yul\":19314:19348   */\n      tag_153\n      jump\t// in\n    tag_338:\n        /* \"#utility.yul\":19296:19349   */\n      tag_101\n      jump\t// in\n    tag_337:\n        /* \"#utility.yul\":19283:19349   */\n      swap1\n      pop\n        /* \"#utility.yul\":19213:19355   */\n      swap2\n      swap1\n      pop\n      jump\t// out\n        /* \"#utility.yul\":19361:19436   */\n    tag_155:\n        /* \"#utility.yul\":19404:19407   */\n      0x00\n        /* \"#utility.yul\":19425:19430   */\n      dup2\n        /* \"#utility.yul\":19418:19430   */\n      swap1\n      pop\n        /* \"#utility.yul\":19361:19436   */\n      swap2\n      swap1\n      pop\n      jump\t// out\n        /* \"#utility.yul\":19442:19711   */\n    tag_156:\n        /* \"#utility.yul\":19552:19591   */\n      tag_342\n        /* \"#utility.yul\":19583:19590   */\n      dup4\n        /* \"#utility.yul\":19552:19591   */\n      tag_154\n      jump\t// in\n    tag_342:\n        /* \"#utility.yul\":19613:19704   */\n      tag_343\n        /* \"#utility.yul\":19662:19703   */\n      tag_344\n        /* \"#utility.yul\":19686:19702   */\n      dup3\n        /* \"#utility.yul\":19662:19703   */\n      tag_155\n      jump\t// in\n    tag_344:\n        /* \"#utility.yul\":19654:19660   */\n      dup5\n        /* \"#utility.yul\":19647:19651   */\n      dup5\n        /* \"#utility.yul\":19641:19652   */\n      sload\n        /* \"#utility.yul\":19613:19704   */\n      tag_152\n      jump\t// in\n    tag_343:\n        /* \"#utility.yul\":19607:19611   */\n      dup3\n        /* \"#utility.yul\":19600:19705   */\n      sstore\n        /* \"#utility.yul\":19518:19711   */\n      pop\n        /* \"#utility.yul\":19442:19711   */\n      pop\n      pop\n      pop\n      jump\t// out\n        /* \"#utility.yul\":19717:19790   */\n    tag_157:\n        /* \"#utility.yul\":19762:19765   */\n      0x00\n        /* \"#utility.yul\":19717:19790   */\n      swap1\n      jump\t// out\n        /* \"#utility.yul\":19796:19985   */\n    tag_158:\n        /* \"#utility.yul\":19873:19905   */\n      tag_347\n      tag_157\n      jump\t// in\n    tag_347:\n        /* \"#utility.yul\":19914:19979   */\n      tag_348\n        /* \"#utility.yul\":19972:19978   */\n      dup2\n        /* \"#utility.yul\":19964:19970   */\n      dup5\n        /* \"#utility.yul\":19958:19962   */\n      dup5\n        /* \"#utility.yul\":19914:19979   */\n      tag_156\n      jump\t// in\n    tag_348:\n        /* \"#utility.yul\":19849:19985   */\n      pop\n        /* \"#utility.yul\":19796:19985   */\n      pop\n      pop\n      jump\t// out\n        /* \"#utility.yul\":19991:20177   */\n    tag_159:\n        /* \"#utility.yul\":20051:20171   */\n    tag_350:\n        /* \"#utility.yul\":20068:20071   */\n      dup2\n        /* \"#utility.yul\":20061:20066   */\n      dup2\n        /* \"#utility.yul\":20058:20072   */\n      lt\n        /* \"#utility.yul\":20051:20171   */\n      iszero\n      tag_352\n      jumpi\n        /* \"#utility.yul\":20122:20161   */\n      tag_353\n        /* \"#utility.yul\":20159:20160   */\n      0x00\n        /* \"#utility.yul\":20152:20157   */\n      dup3\n        /* \"#utility.yul\":20122:20161   */\n      tag_158\n      jump\t// in\n    tag_353:\n        /* \"#utility.yul\":20095:20096   */\n      0x01\n        /* \"#utility.yul\":20088:20093   */\n      dup2\n        /* \"#utility.yul\":20084:20097   */\n      add\n        /* \"#utility.yul\":20075:20097   */\n      swap1\n      pop\n        /* \"#utility.yul\":20051:20171   */\n      jump(tag_350)\n    tag_352:\n        /* \"#utility.yul\":19991:20177   */\n      pop\n      pop\n      jump\t// out\n        /* \"#utility.yul\":20183:20726   */\n    tag_160:\n        /* \"#utility.yul\":20284:20286   */\n      0x1f\n        /* \"#utility.yul\":20279:20282   */\n      dup3\n        /* \"#utility.yul\":20276:20287   */\n      gt\n        /* \"#utility.yul\":20273:20719   */\n      iszero\n      tag_355\n      jumpi\n        /* \"#utility.yul\":20318:20356   */\n      tag_356\n        /* \"#utility.yul\":20350:20355   */\n      dup2\n        /* \"#utility.yul\":20318:20356   */\n      tag_149\n      jump\t// in\n    tag_356:\n        /* \"#utility.yul\":20402:20431   */\n      tag_357\n        /* \"#utility.yul\":20420:20430   */\n      dup5\n        /* \"#utility.yul\":20402:20431   */\n      tag_150\n      jump\t// in\n    tag_357:\n        /* \"#utility.yul\":20392:20400   */\n      dup2\n        /* \"#utility.yul\":20388:20432   */\n      add\n        /* \"#utility.yul\":20585:20587   */\n      0x20\n        /* \"#utility.yul\":20573:20583   */\n      dup6\n        /* \"#utility.yul\":20570:20588   */\n      lt\n        /* \"#utility.yul\":20567:20616   */\n      iszero\n      tag_358\n      jumpi\n        /* \"#utility.yul\":20606:20614   */\n      dup2\n        /* \"#utility.yul\":20591:20614   */\n      swap1\n      pop\n        /* \"#utility.yul\":20567:20616   */\n    tag_358:\n        /* \"#utility.yul\":20629:20709   */\n      tag_359\n        /* \"#utility.yul\":20685:20707   */\n      tag_360\n        /* \"#utility.yul\":20703:20706   */\n      dup6\n        /* \"#utility.yul\":20685:20707   */\n      tag_150\n      jump\t// in\n    tag_360:\n        /* \"#utility.yul\":20675:20683   */\n      dup4\n        /* \"#utility.yul\":20671:20708   */\n      add\n        /* \"#utility.yul\":20658:20669   */\n      dup3\n        /* \"#utility.yul\":20629:20709   */\n      tag_159\n      jump\t// in\n    tag_359:\n        /* \"#utility.yul\":20288:20719   */\n      pop\n      pop\n        /* \"#utility.yul\":20273:20719   */\n    tag_355:\n        /* \"#utility.yul\":20183:20726   */\n      pop\n      pop\n      pop\n      jump\t// out\n        /* \"#utility.yul\":20732:20849   */\n    tag_161:\n        /* \"#utility.yul\":20786:20794   */\n      0x00\n        /* \"#utility.yul\":20836:20841   */\n      dup3\n        /* \"#utility.yul\":20830:20834   */\n      dup3\n        /* \"#utility.yul\":20826:20842   */\n      shr\n        /* \"#utility.yul\":20805:20842   */\n      swap1\n      pop\n        /* \"#utility.yul\":20732:20849   */\n      swap3\n      swap2\n      pop\n      pop\n      jump\t// out\n        /* \"#utility.yul\":20855:21024   */\n    tag_162:\n        /* \"#utility.yul\":20899:20905   */\n      0x00\n        /* \"#utility.yul\":20932:20983   */\n      tag_363\n        /* \"#utility.yul\":20980:20981   */\n      0x00\n        /* \"#utility.yul\":20976:20982   */\n      not\n        /* \"#utility.yul\":20968:20973   */\n      dup5\n        /* \"#utility.yul\":20965:20966   */\n      0x08\n        /* \"#utility.yul\":20961:20974   */\n      mul\n        /* \"#utility.yul\":20932:20983   */\n      tag_161\n      jump\t// in\n    tag_363:\n        /* \"#utility.yul\":20928:20984   */\n      not\n        /* \"#utility.yul\":21013:21017   */\n      dup1\n        /* \"#utility.yul\":21007:21011   */\n      dup4\n        /* \"#utility.yul\":21003:21018   */\n      and\n        /* \"#utility.yul\":20993:21018   */\n      swap2\n      pop\n        /* \"#utility.yul\":20906:21024   */\n      pop\n        /* \"#utility.yul\":20855:21024   */\n      swap3\n      swap2\n      pop\n      pop\n      jump\t// out\n        /* \"#utility.yul\":21029:21324   */\n    tag_163:\n        /* \"#utility.yul\":21105:21109   */\n      0x00\n        /* \"#utility.yul\":21251:21280   */\n      tag_365\n        /* \"#utility.yul\":21276:21279   */\n      dup4\n        /* \"#utility.yul\":21270:21274   */\n      dup4\n        /* \"#utility.yul\":21251:21280   */\n      tag_162\n      jump\t// in\n    tag_365:\n        /* \"#utility.yul\":21243:21280   */\n      swap2\n      pop\n        /* \"#utility.yul\":21313:21316   */\n      dup3\n        /* \"#utility.yul\":21310:21311   */\n      0x02\n        /* \"#utility.yul\":21306:21317   */\n      mul\n        /* \"#utility.yul\":21300:21304   */\n      dup3\n        /* \"#utility.yul\":21297:21318   */\n      or\n        /* \"#utility.yul\":21289:21318   */\n      swap1\n      pop\n        /* \"#utility.yul\":21029:21324   */\n      swap3\n      swap2\n      pop\n      pop\n      jump\t// out\n        /* \"#utility.yul\":21329:22724   */\n    tag_71:\n        /* \"#utility.yul\":21446:21483   */\n      tag_367\n        /* \"#utility.yul\":21479:21482   */\n      dup3\n        /* \"#utility.yul\":21446:21483   */\n      tag_107\n      jump\t// in\n    tag_367:\n        /* \"#utility.yul\":21548:21566   */\n      0xffffffffffffffff\n        /* \"#utility.yul\":21540:21546   */\n      dup2\n        /* \"#utility.yul\":21537:21567   */\n      gt\n        /* \"#utility.yul\":21534:21590   */\n      iszero\n      tag_368\n      jumpi\n        /* \"#utility.yul\":21570:21588   */\n      tag_369\n      tag_131\n      jump\t// in\n    tag_369:\n        /* \"#utility.yul\":21534:21590   */\n    tag_368:\n        /* \"#utility.yul\":21614:21652   */\n      tag_370\n        /* \"#utility.yul\":21646:21650   */\n      dup3\n        /* \"#utility.yul\":21640:21651   */\n      sload\n        /* \"#utility.yul\":21614:21652   */\n      tag_39\n      jump\t// in\n    tag_370:\n        /* \"#utility.yul\":21699:21766   */\n      tag_371\n        /* \"#utility.yul\":21759:21765   */\n      dup3\n        /* \"#utility.yul\":21751:21757   */\n      dup3\n        /* \"#utility.yul\":21745:21749   */\n      dup6\n        /* \"#utility.yul\":21699:21766   */\n      tag_160\n      jump\t// in\n    tag_371:\n        /* \"#utility.yul\":21793:21794   */\n      0x00\n        /* \"#utility.yul\":21817:21821   */\n      0x20\n        /* \"#utility.yul\":21804:21821   */\n      swap1\n      pop\n        /* \"#utility.yul\":21849:21851   */\n      0x1f\n        /* \"#utility.yul\":21841:21847   */\n      dup4\n        /* \"#utility.yul\":21838:21852   */\n      gt\n        /* \"#utility.yul\":21866:21867   */\n      0x01\n        /* \"#utility.yul\":21861:22479   */\n      dup2\n      eq\n      tag_373\n      jumpi\n        /* \"#utility.yul\":22523:22524   */\n      0x00\n        /* \"#utility.yul\":22540:22546   */\n      dup5\n        /* \"#utility.yul\":22537:22614   */\n      iszero\n      tag_374\n      jumpi\n        /* \"#utility.yul\":22589:22598   */\n      dup3\n        /* \"#utility.yul\":22584:22587   */\n      dup8\n        /* \"#utility.yul\":22580:22599   */\n      add\n        /* \"#utility.yul\":22574:22600   */\n      mload\n        /* \"#utility.yul\":22565:22600   */\n      swap1\n      pop\n        /* \"#utility.yul\":22537:22614   */\n    tag_374:\n        /* \"#utility.yul\":22640:22707   */\n      tag_375\n        /* \"#utility.yul\":22700:22706   */\n      dup6\n        /* \"#utility.yul\":22693:22698   */\n      dup3\n        /* \"#utility.yul\":22640:22707   */\n      tag_163\n      jump\t// in\n    tag_375:\n        /* \"#utility.yul\":22634:22638   */\n      dup7\n        /* \"#utility.yul\":22627:22708   */\n      sstore\n        /* \"#utility.yul\":22496:22718   */\n      pop\n        /* \"#utility.yul\":21831:22718   */\n      jump(tag_372)\n        /* \"#utility.yul\":21861:22479   */\n    tag_373:\n        /* \"#utility.yul\":21913:21917   */\n      0x1f\n        /* \"#utility.yul\":21909:21918   */\n      not\n        /* \"#utility.yul\":21901:21907   */\n      dup5\n        /* \"#utility.yul\":21897:21919   */\n      and\n        /* \"#utility.yul\":21947:21984   */\n      tag_376\n        /* \"#utility.yul\":21979:21983   */\n      dup7\n        /* \"#utility.yul\":21947:21984   */\n      tag_149\n      jump\t// in\n    tag_376:\n        /* \"#utility.yul\":22006:22007   */\n      0x00\n        /* \"#utility.yul\":22020:22228   */\n    tag_377:\n        /* \"#utility.yul\":22034:22041   */\n      dup3\n        /* \"#utility.yul\":22031:22032   */\n      dup2\n        /* \"#utility.yul\":22028:22042   */\n      lt\n        /* \"#utility.yul\":22020:22228   */\n      iszero\n      tag_379\n      jumpi\n        /* \"#utility.yul\":22113:22122   */\n      dup5\n        /* \"#utility.yul\":22108:22111   */\n      dup10\n        /* \"#utility.yul\":22104:22123   */\n      add\n        /* \"#utility.yul\":22098:22124   */\n      mload\n        /* \"#utility.yul\":22090:22096   */\n      dup3\n        /* \"#utility.yul\":22083:22125   */\n      sstore\n        /* \"#utility.yul\":22164:22165   */\n      0x01\n        /* \"#utility.yul\":22156:22162   */\n      dup3\n        /* \"#utility.yul\":22152:22166   */\n      add\n        /* \"#utility.yul\":22142:22166   */\n      swap2\n      pop\n        /* \"#utility.yul\":22211:22213   */\n      0x20\n        /* \"#utility.yul\":22200:22209   */\n      dup6\n        /* \"#utility.yul\":22196:22214   */\n      add\n        /* \"#utility.yul\":22183:22214   */\n      swap5\n      pop\n        /* \"#utility.yul\":22057:22061   */\n      0x20\n        /* \"#utility.yul\":22054:22055   */\n      dup2\n        /* \"#utility.yul\":22050:22062   */\n      add\n        /* \"#utility.yul\":22045:22062   */\n      swap1\n      pop\n        /* \"#utility.yul\":22020:22228   */\n      jump(tag_377)\n    tag_379:\n        /* \"#utility.yul\":22256:22262   */\n      dup7\n        /* \"#utility.yul\":22247:22254   */\n      dup4\n        /* \"#utility.yul\":22244:22263   */\n      lt\n        /* \"#utility.yul\":22241:22420   */\n      iszero\n      tag_380\n      jumpi\n        /* \"#utility.yul\":22314:22323   */\n      dup5\n        /* \"#utility.yul\":22309:22312   */\n      dup10\n        /* \"#utility.yul\":22305:22324   */\n      add\n        /* \"#utility.yul\":22299:22325   */\n      mload\n        /* \"#utility.yul\":22357:22405   */\n      tag_381\n        /* \"#utility.yul\":22399:22403   */\n      0x1f\n        /* \"#utility.yul\":22391:22397   */\n      dup10\n        /* \"#utility.yul\":22387:22404   */\n      and\n        /* \"#utility.yul\":22376:22385   */\n      dup3\n        /* \"#utility.yul\":22357:22405   */\n      tag_162\n      jump\t// in\n    tag_381:\n        /* \"#utility.yul\":22349:22355   */\n      dup4\n        /* \"#utility.yul\":22342:22406   */\n      sstore\n        /* \"#utility.yul\":22264:22420   */\n      pop\n        /* \"#utility.yul\":22241:22420   */\n    tag_380:\n        /* \"#utility.yul\":22466:22467   */\n      0x01\n        /* \"#utility.yul\":22462:22463   */\n      0x02\n        /* \"#utility.yul\":22454:22460   */\n      dup9\n        /* \"#utility.yul\":22450:22464   */\n      mul\n        /* \"#utility.yul\":22446:22468   */\n      add\n        /* \"#utility.yul\":22440:22444   */\n      dup9\n        /* \"#utility.yul\":22433:22469   */\n      sstore\n        /* \"#utility.yul\":21868:22479   */\n      pop\n      pop\n      pop\n        /* \"#utility.yul\":21831:22718   */\n    tag_372:\n      pop\n        /* \"#utility.yul\":21421:22724   */\n      pop\n      pop\n      pop\n        /* \"#utility.yul\":21329:22724   */\n      pop\n      pop\n      jump\t// out\n        /* \"#utility.yul\":22730:22954   */\n    tag_164:\n        /* \"#utility.yul\":22870:22904   */\n      0x546869732063616d706169676e20686173206265656e20616c72656164792063\n        /* \"#utility.yul\":22866:22867   */\n      0x00\n        /* \"#utility.yul\":22858:22864   */\n      dup3\n        /* \"#utility.yul\":22854:22868   */\n      add\n        /* \"#utility.yul\":22847:22905   */\n      mstore\n        /* \"#utility.yul\":22939:22946   */\n      0x6c6f736564000000000000000000000000000000000000000000000000000000\n        /* \"#utility.yul\":22934:22936   */\n      0x20\n        /* \"#utility.yul\":22926:22932   */\n      dup3\n        /* \"#utility.yul\":22922:22937   */\n      add\n        /* \"#utility.yul\":22915:22947   */\n      mstore\n        /* \"#utility.yul\":22730:22954   */\n      pop\n      jump\t// out\n        /* \"#utility.yul\":22960:23326   */\n    tag_165:\n        /* \"#utility.yul\":23102:23105   */\n      0x00\n        /* \"#utility.yul\":23123:23190   */\n      tag_384\n        /* \"#utility.yul\":23187:23189   */\n      0x25\n        /* \"#utility.yul\":23182:23185   */\n      dup4\n        /* \"#utility.yul\":23123:23190   */\n      tag_108\n      jump\t// in\n    tag_384:\n        /* \"#utility.yul\":23116:23190   */\n      swap2\n      pop\n        /* \"#utility.yul\":23199:23292   */\n      tag_385\n        /* \"#utility.yul\":23288:23291   */\n      dup3\n        /* \"#utility.yul\":23199:23292   */\n      tag_164\n      jump\t// in\n    tag_385:\n        /* \"#utility.yul\":23317:23319   */\n      0x40\n        /* \"#utility.yul\":23312:23315   */\n      dup3\n        /* \"#utility.yul\":23308:23320   */\n      add\n        /* \"#utility.yul\":23301:23320   */\n      swap1\n      pop\n        /* \"#utility.yul\":22960:23326   */\n      swap2\n      swap1\n      pop\n      jump\t// out\n        /* \"#utility.yul\":23332:23751   */\n    tag_87:\n        /* \"#utility.yul\":23498:23502   */\n      0x00\n        /* \"#utility.yul\":23536:23538   */\n      0x20\n        /* \"#utility.yul\":23525:23534   */\n      dup3\n        /* \"#utility.yul\":23521:23539   */\n      add\n        /* \"#utility.yul\":23513:23539   */\n      swap1\n      pop\n        /* \"#utility.yul\":23585:23594   */\n      dup2\n        /* \"#utility.yul\":23579:23583   */\n      dup2\n        /* \"#utility.yul\":23575:23595   */\n      sub\n        /* \"#utility.yul\":23571:23572   */\n      0x00\n        /* \"#utility.yul\":23560:23569   */\n      dup4\n        /* \"#utility.yul\":23556:23573   */\n      add\n        /* \"#utility.yul\":23549:23596   */\n      mstore\n        /* \"#utility.yul\":23613:23744   */\n      tag_387\n        /* \"#utility.yul\":23739:23743   */\n      dup2\n        /* \"#utility.yul\":23613:23744   */\n      tag_165\n      jump\t// in\n    tag_387:\n        /* \"#utility.yul\":23605:23744   */\n      swap1\n      pop\n        /* \"#utility.yul\":23332:23751   */\n      swap2\n      swap1\n      pop\n      jump\t// out\n\n    auxdata: 0xa264697066735822122068b7042d4bdb9de3734ee7f23e74ef918d33bcbf7a19ae290028c72a90dd423d64736f6c634300081a0033\n}\n",
				"bytecode": {
					"linkReferences": {},
					"object": "6080604052348015600e575f80fd5b506119668061001c5f395ff3fe608060405234801561000f575f80fd5b5060043610610060575f3560e01c80634912c6581461006457806386cdf6041461009a57806390f9f50c146100b85780639fb9f379146100d4578063c50a40d014610106578063d02ed8511461013c575b5f80fd5b61007e60048036038101906100799190610e37565b610158565b6040516100919796959493929190610f3a565b60405180910390f35b6100a2610274565b6040516100af9190611177565b60405180910390f35b6100d260048036038101906100cd91906112ed565b610440565b005b6100ee60048036038101906100e9919061136d565b610813565b6040516100fd939291906113b4565b60405180910390f35b610120600480360381019061011b919061136d565b6108a8565b6040516101339796959493929190610f3a565b60405180910390f35b6101566004803603810190610151919061136d565b6109ce565b005b5f8181548110610166575f80fd5b905f5260205f2090600702015f91509050805f015f9054906101000a900473ffffffffffffffffffffffffffffffffffffffff1690806001015f9054906101000a900473ffffffffffffffffffffffffffffffffffffffff16908060020180546101cf90611416565b80601f01602080910402602001604051908101604052809291908181526020018280546101fb90611416565b80156102465780601f1061021d57610100808354040283529160200191610246565b820191905f5260205f20905b81548152906001019060200180831161022957829003601f168201915b505050505090806003015490806004015490806005015490806006015f9054906101000a900460ff16905087565b60605f805480602002602001604051908101604052809291908181526020015f905b82821015610437578382905f5260205f2090600702016040518060e00160405290815f82015f9054906101000a900473ffffffffffffffffffffffffffffffffffffffff1673ffffffffffffffffffffffffffffffffffffffff1673ffffffffffffffffffffffffffffffffffffffff168152602001600182015f9054906101000a900473ffffffffffffffffffffffffffffffffffffffff1673ffffffffffffffffffffffffffffffffffffffff1673ffffffffffffffffffffffffffffffffffffffff16815260200160028201805461037090611416565b80601f016020809104026020016040519081016040528092919081815260200182805461039c90611416565b80156103e75780601f106103be576101008083540402835291602001916103e7565b820191905f5260205f20905b8154815290600101906020018083116103ca57829003601f168201915b50505050508152602001600382015481526020016004820154815260200160058201548152602001600682015f9054906101000a900460ff16151515158152505081526020019060010190610296565b50505050905090565b5f6001846040516104519190611480565b9081526020016040518091039020600201805461046d90611416565b9050146104af576040517f08c379a00000000000000000000000000000000000000000000000000000000081526004016104a6906114e0565b60405180910390fd5b5f73ffffffffffffffffffffffffffffffffffffffff168473ffffffffffffffffffffffffffffffffffffffff160361051d576040517f08c379a000000000000000000000000000000000000000000000000000000000815260040161051490611548565b60405180910390fd5b5f835111610560576040517f08c379a0000000000000000000000000000000000000000000000000000000008152600401610557906115b0565b60405180910390fd5b5f81116105a2576040517f08c379a000000000000000000000000000000000000000000000000000000000815260040161059990611618565b60405180910390fd5b5f6040518060e001604052803373ffffffffffffffffffffffffffffffffffffffff1681526020018673ffffffffffffffffffffffffffffffffffffffff1681526020018581526020018481526020018381526020015f81526020015f15158152509050806001856040516106179190611480565b90815260200160405180910390205f820151815f015f6101000a81548173ffffffffffffffffffffffffffffffffffffffff021916908373ffffffffffffffffffffffffffffffffffffffff1602179055506020820151816001015f6101000a81548173ffffffffffffffffffffffffffffffffffffffff021916908373ffffffffffffffffffffffffffffffffffffffff16021790555060408201518160020190816106c491906117d3565b50606082015181600301556080820151816004015560a0820151816005015560c0820151816006015f6101000a81548160ff0219169083151502179055509050505f81908060018154018082558091505060019003905f5260205f2090600702015f909190919091505f820151815f015f6101000a81548173ffffffffffffffffffffffffffffffffffffffff021916908373ffffffffffffffffffffffffffffffffffffffff1602179055506020820151816001015f6101000a81548173ffffffffffffffffffffffffffffffffffffffff021916908373ffffffffffffffffffffffffffffffffffffffff16021790555060408201518160020190816107cc91906117d3565b50606082015181600301556080820151816004015560a0820151816005015560c0820151816006015f6101000a81548160ff02191690831515021790555050505050505050565b5f805f6001846040516108269190611480565b90815260200160405180910390206001015f9054906101000a900473ffffffffffffffffffffffffffffffffffffffff166001856040516108679190611480565b9081526020016040518091039020600501546001866040516108899190611480565b9081526020016040518091039020600301549250925092509193909250565b6001818051602081018201805184825260208301602085012081835280955050505050505f91509050805f015f9054906101000a900473ffffffffffffffffffffffffffffffffffffffff1690806001015f9054906101000a900473ffffffffffffffffffffffffffffffffffffffff169080600201805461092990611416565b80601f016020809104026020016040519081016040528092919081815260200182805461095590611416565b80156109a05780601f10610977576101008083540402835291602001916109a0565b820191905f5260205f20905b81548152906001019060200180831161098357829003601f168201915b505050505090806003015490806004015490806005015490806006015f9054906101000a900460ff16905087565b6001816040516109de9190611480565b90815260200160405180910390206006015f9054906101000a900460ff1615610a3c576040517f08c379a0000000000000000000000000000000000000000000000000000000008152600401610a3390611912565b60405180910390fd5b5f600182604051610a4d9190611480565b90815260200160405180910390206040518060e00160405290815f82015f9054906101000a900473ffffffffffffffffffffffffffffffffffffffff1673ffffffffffffffffffffffffffffffffffffffff1673ffffffffffffffffffffffffffffffffffffffff168152602001600182015f9054906101000a900473ffffffffffffffffffffffffffffffffffffffff1673ffffffffffffffffffffffffffffffffffffffff1673ffffffffffffffffffffffffffffffffffffffff168152602001600282018054610b1f90611416565b80601f0160208091040260200160405190810160405280929190818152602001828054610b4b90611416565b8015610b965780601f10610b6d57610100808354040283529160200191610b96565b820191905f5260205f20905b815481529060010190602001808311610b7957829003601f168201915b50505050508152602001600382015481526020016004820154815260200160058201548152602001600682015f9054906101000a900460ff16151515158152505090505f8160c001901515908115158152505080600183604051610bfa9190611480565b90815260200160405180910390205f820151815f015f6101000a81548173ffffffffffffffffffffffffffffffffffffffff021916908373ffffffffffffffffffffffffffffffffffffffff1602179055506020820151816001015f6101000a81548173ffffffffffffffffffffffffffffffffffffffff021916908373ffffffffffffffffffffffffffffffffffffffff1602179055506040820151816002019081610ca791906117d3565b50606082015181600301556080820151816004015560a0820151816005015560c0820151816006015f6101000a81548160ff0219169083151502179055509050505f81908060018154018082558091505060019003905f5260205f2090600702015f909190919091505f820151815f015f6101000a81548173ffffffffffffffffffffffffffffffffffffffff021916908373ffffffffffffffffffffffffffffffffffffffff1602179055506020820151816001015f6101000a81548173ffffffffffffffffffffffffffffffffffffffff021916908373ffffffffffffffffffffffffffffffffffffffff1602179055506040820151816002019081610daf91906117d3565b50606082015181600301556080820151816004015560a0820151816005015560c0820151816006015f6101000a81548160ff02191690831515021790555050505050565b5f604051905090565b5f80fd5b5f80fd5b5f819050919050565b610e1681610e04565b8114610e20575f80fd5b50565b5f81359050610e3181610e0d565b92915050565b5f60208284031215610e4c57610e4b610dfc565b5b5f610e5984828501610e23565b91505092915050565b5f73ffffffffffffffffffffffffffffffffffffffff82169050919050565b5f610e8b82610e62565b9050919050565b610e9b81610e81565b82525050565b5f81519050919050565b5f82825260208201905092915050565b8281835e5f83830152505050565b5f601f19601f8301169050919050565b5f610ee382610ea1565b610eed8185610eab565b9350610efd818560208601610ebb565b610f0681610ec9565b840191505092915050565b610f1a81610e04565b82525050565b5f8115159050919050565b610f3481610f20565b82525050565b5f60e082019050610f4d5f83018a610e92565b610f5a6020830189610e92565b8181036040830152610f6c8188610ed9565b9050610f7b6060830187610f11565b610f886080830186610f11565b610f9560a0830185610f11565b610fa260c0830184610f2b565b98975050505050505050565b5f81519050919050565b5f82825260208201905092915050565b5f819050602082019050919050565b610fe081610e81565b82525050565b5f82825260208201905092915050565b5f61100082610ea1565b61100a8185610fe6565b935061101a818560208601610ebb565b61102381610ec9565b840191505092915050565b61103781610e04565b82525050565b61104681610f20565b82525050565b5f60e083015f8301516110615f860182610fd7565b5060208301516110746020860182610fd7565b506040830151848203604086015261108c8282610ff6565b91505060608301516110a1606086018261102e565b5060808301516110b4608086018261102e565b5060a08301516110c760a086018261102e565b5060c08301516110da60c086018261103d565b508091505092915050565b5f6110f0838361104c565b905092915050565b5f602082019050919050565b5f61110e82610fae565b6111188185610fb8565b93508360208202850161112a85610fc8565b805f5b85811015611165578484038952815161114685826110e5565b9450611151836110f8565b925060208a0199505060018101905061112d565b50829750879550505050505092915050565b5f6020820190508181035f83015261118f8184611104565b905092915050565b6111a081610e81565b81146111aa575f80fd5b50565b5f813590506111bb81611197565b92915050565b5f80fd5b5f80fd5b7f4e487b71000000000000000000000000000000000000000000000000000000005f52604160045260245ffd5b6111ff82610ec9565b810181811067ffffffffffffffff8211171561121e5761121d6111c9565b5b80604052505050565b5f611230610df3565b905061123c82826111f6565b919050565b5f67ffffffffffffffff82111561125b5761125a6111c9565b5b61126482610ec9565b9050602081019050919050565b828183375f83830152505050565b5f61129161128c84611241565b611227565b9050828152602081018484840111156112ad576112ac6111c5565b5b6112b8848285611271565b509392505050565b5f82601f8301126112d4576112d36111c1565b5b81356112e484826020860161127f565b91505092915050565b5f805f806080858703121561130557611304610dfc565b5b5f611312878288016111ad565b945050602085013567ffffffffffffffff81111561133357611332610e00565b5b61133f878288016112c0565b935050604061135087828801610e23565b925050606061136187828801610e23565b91505092959194509250565b5f6020828403121561138257611381610dfc565b5b5f82013567ffffffffffffffff81111561139f5761139e610e00565b5b6113ab848285016112c0565b91505092915050565b5f6060820190506113c75f830186610e92565b6113d46020830185610f11565b6113e16040830184610f11565b949350505050565b7f4e487b71000000000000000000000000000000000000000000000000000000005f52602260045260245ffd5b5f600282049050600182168061142d57607f821691505b6020821081036114405761143f6113e9565b5b50919050565b5f81905092915050565b5f61145a82610ea1565b6114648185611446565b9350611474818560208601610ebb565b80840191505092915050565b5f61148b8284611450565b915081905092915050565b7f47757920796f75206e6f2066697420637265617465206e616d65206e696900005f82015250565b5f6114ca601e83610eab565b91506114d582611496565b602082019050919050565b5f6020820190508181035f8301526114f7816114be565b9050919050565b7f5768696368206b696e64206164647265737320626520746869730000000000005f82015250565b5f611532601a83610eab565b915061153d826114fe565b602082019050919050565b5f6020820190508181035f83015261155f81611526565b9050919050565b7f596f75722063616d706169676e206e6f20676574206e616d65000000000000005f82015250565b5f61159a601983610eab565b91506115a582611566565b602082019050919050565b5f6020820190508181035f8301526115c78161158e565b9050919050565b7f42727568682063616e20796f75206e6f7420646f20746861743f0000000000005f82015250565b5f611602601a83610eab565b915061160d826115ce565b602082019050919050565b5f6020820190508181035f83015261162f816115f6565b9050919050565b5f819050815f5260205f209050919050565b5f6020601f8301049050919050565b5f82821b905092915050565b5f600883026116927fffffffffffffffffffffffffffffffffffffffffffffffffffffffffffffffff82611657565b61169c8683611657565b95508019841693508086168417925050509392505050565b5f819050919050565b5f6116d76116d26116cd84610e04565b6116b4565b610e04565b9050919050565b5f819050919050565b6116f0836116bd565b6117046116fc826116de565b848454611663565b825550505050565b5f90565b61171861170c565b6117238184846116e7565b505050565b5b818110156117465761173b5f82611710565b600181019050611729565b5050565b601f82111561178b5761175c81611636565b61176584611648565b81016020851015611774578190505b61178861178085611648565b830182611728565b50505b505050565b5f82821c905092915050565b5f6117ab5f1984600802611790565b1980831691505092915050565b5f6117c3838361179c565b9150826002028217905092915050565b6117dc82610ea1565b67ffffffffffffffff8111156117f5576117f46111c9565b5b6117ff8254611416565b61180a82828561174a565b5f60209050601f83116001811461183b575f8415611829578287015190505b61183385826117b8565b86555061189a565b601f19841661184986611636565b5f5b828110156118705784890151825560018201915060208501945060208101905061184b565b8683101561188d5784890151611889601f89168261179c565b8355505b6001600288020188555050505b505050505050565b7f546869732063616d706169676e20686173206265656e20616c726561647920635f8201527f6c6f736564000000000000000000000000000000000000000000000000000000602082015250565b5f6118fc602583610eab565b9150611907826118a2565b604082019050919050565b5f6020820190508181035f830152611929816118f0565b905091905056fea264697066735822122068b7042d4bdb9de3734ee7f23e74ef918d33bcbf7a19ae290028c72a90dd423d64736f6c634300081a0033",
					"opcodes": "PUSH1 0x80 PUSH1 0x40 MSTORE CALLVALUE DUP1 ISZERO PUSH1 0xE JUMPI PUSH0 DUP1 REVERT JUMPDEST POP PUSH2 0x1966 DUP1 PUSH2 0x1C PUSH0 CODECOPY PUSH0 RETURN INVALID PUSH1 0x80 PUSH1 0x40 MSTORE CALLVALUE DUP1 ISZERO PUSH2 0xF JUMPI PUSH0 DUP1 REVERT JUMPDEST POP PUSH1 0x4 CALLDATASIZE LT PUSH2 0x60 JUMPI PUSH0 CALLDATALOAD PUSH1 0xE0 SHR DUP1 PUSH4 0x4912C658 EQ PUSH2 0x64 JUMPI DUP1 PUSH4 0x86CDF604 EQ PUSH2 0x9A JUMPI DUP1 PUSH4 0x90F9F50C EQ PUSH2 0xB8 JUMPI DUP1 PUSH4 0x9FB9F379 EQ PUSH2 0xD4 JUMPI DUP1 PUSH4 0xC50A40D0 EQ PUSH2 0x106 JUMPI DUP1 PUSH4 0xD02ED851 EQ PUSH2 0x13C JUMPI JUMPDEST PUSH0 DUP1 REVERT JUMPDEST PUSH2 0x7E PUSH1 0x4 DUP1 CALLDATASIZE SUB DUP2 ADD SWAP1 PUSH2 0x79 SWAP2 SWAP1 PUSH2 0xE37 JUMP JUMPDEST PUSH2 0x158 JUMP JUMPDEST PUSH1 0x40 MLOAD PUSH2 0x91 SWAP8 SWAP7 SWAP6 SWAP5 SWAP4 SWAP3 SWAP2 SWAP1 PUSH2 0xF3A JUMP JUMPDEST PUSH1 0x40 MLOAD DUP1 SWAP2 SUB SWAP1 RETURN JUMPDEST PUSH2 0xA2 PUSH2 0x274 JUMP JUMPDEST PUSH1 0x40 MLOAD PUSH2 0xAF SWAP2 SWAP1 PUSH2 0x1177 JUMP JUMPDEST PUSH1 0x40 MLOAD DUP1 SWAP2 SUB SWAP1 RETURN JUMPDEST PUSH2 0xD2 PUSH1 0x4 DUP1 CALLDATASIZE SUB DUP2 ADD SWAP1 PUSH2 0xCD SWAP2 SWAP1 PUSH2 0x12ED JUMP JUMPDEST PUSH2 0x440 JUMP JUMPDEST STOP JUMPDEST PUSH2 0xEE PUSH1 0x4 DUP1 CALLDATASIZE SUB DUP2 ADD SWAP1 PUSH2 0xE9 SWAP2 SWAP1 PUSH2 0x136D JUMP JUMPDEST PUSH2 0x813 JUMP JUMPDEST PUSH1 0x40 MLOAD PUSH2 0xFD SWAP4 SWAP3 SWAP2 SWAP1 PUSH2 0x13B4 JUMP JUMPDEST PUSH1 0x40 MLOAD DUP1 SWAP2 SUB SWAP1 RETURN JUMPDEST PUSH2 0x120 PUSH1 0x4 DUP1 CALLDATASIZE SUB DUP2 ADD SWAP1 PUSH2 0x11B SWAP2 SWAP1 PUSH2 0x136D JUMP JUMPDEST PUSH2 0x8A8 JUMP JUMPDEST PUSH1 0x40 MLOAD PUSH2 0x133 SWAP8 SWAP7 SWAP6 SWAP5 SWAP4 SWAP3 SWAP2 SWAP1 PUSH2 0xF3A JUMP JUMPDEST PUSH1 0x40 MLOAD DUP1 SWAP2 SUB SWAP1 RETURN JUMPDEST PUSH2 0x156 PUSH1 0x4 DUP1 CALLDATASIZE SUB DUP2 ADD SWAP1 PUSH2 0x151 SWAP2 SWAP1 PUSH2 0x136D JUMP JUMPDEST PUSH2 0x9CE JUMP JUMPDEST STOP JUMPDEST PUSH0 DUP2 DUP2 SLOAD DUP2 LT PUSH2 0x166 JUMPI PUSH0 DUP1 REVERT JUMPDEST SWAP1 PUSH0 MSTORE PUSH1 0x20 PUSH0 KECCAK256 SWAP1 PUSH1 0x7 MUL ADD PUSH0 SWAP2 POP SWAP1 POP DUP1 PUSH0 ADD PUSH0 SWAP1 SLOAD SWAP1 PUSH2 0x100 EXP SWAP1 DIV PUSH20 0xFFFFFFFFFFFFFFFFFFFFFFFFFFFFFFFFFFFFFFFF AND SWAP1 DUP1 PUSH1 0x1 ADD PUSH0 SWAP1 SLOAD SWAP1 PUSH2 0x100 EXP SWAP1 DIV PUSH20 0xFFFFFFFFFFFFFFFFFFFFFFFFFFFFFFFFFFFFFFFF AND SWAP1 DUP1 PUSH1 0x2 ADD DUP1 SLOAD PUSH2 0x1CF SWAP1 PUSH2 0x1416 JUMP JUMPDEST DUP1 PUSH1 0x1F ADD PUSH1 0x20 DUP1 SWAP2 DIV MUL PUSH1 0x20 ADD PUSH1 0x40 MLOAD SWAP1 DUP2 ADD PUSH1 0x40 MSTORE DUP1 SWAP3 SWAP2 SWAP1 DUP2 DUP2 MSTORE PUSH1 0x20 ADD DUP3 DUP1 SLOAD PUSH2 0x1FB SWAP1 PUSH2 0x1416 JUMP JUMPDEST DUP1 ISZERO PUSH2 0x246 JUMPI DUP1 PUSH1 0x1F LT PUSH2 0x21D JUMPI PUSH2 0x100 DUP1 DUP4 SLOAD DIV MUL DUP4 MSTORE SWAP2 PUSH1 0x20 ADD SWAP2 PUSH2 0x246 JUMP JUMPDEST DUP3 ADD SWAP2 SWAP1 PUSH0 MSTORE PUSH1 0x20 PUSH0 KECCAK256 SWAP1 JUMPDEST DUP2 SLOAD DUP2 MSTORE SWAP1 PUSH1 0x1 ADD SWAP1 PUSH1 0x20 ADD DUP1 DUP4 GT PUSH2 0x229 JUMPI DUP3 SWAP1 SUB PUSH1 0x1F AND DUP3 ADD SWAP2 JUMPDEST POP POP POP POP POP SWAP1 DUP1 PUSH1 0x3 ADD SLOAD SWAP1 DUP1 PUSH1 0x4 ADD SLOAD SWAP1 DUP1 PUSH1 0x5 ADD SLOAD SWAP1 DUP1 PUSH1 0x6 ADD PUSH0 SWAP1 SLOAD SWAP1 PUSH2 0x100 EXP SWAP1 DIV PUSH1 0xFF AND SWAP1 POP DUP8 JUMP JUMPDEST PUSH1 0x60 PUSH0 DUP1 SLOAD DUP1 PUSH1 0x20 MUL PUSH1 0x20 ADD PUSH1 0x40 MLOAD SWAP1 DUP2 ADD PUSH1 0x40 MSTORE DUP1 SWAP3 SWAP2 SWAP1 DUP2 DUP2 MSTORE PUSH1 0x20 ADD PUSH0 SWAP1 JUMPDEST DUP3 DUP3 LT ISZERO PUSH2 0x437 JUMPI DUP4 DUP3 SWAP1 PUSH0 MSTORE PUSH1 0x20 PUSH0 KECCAK256 SWAP1 PUSH1 0x7 MUL ADD PUSH1 0x40 MLOAD DUP1 PUSH1 0xE0 ADD PUSH1 0x40 MSTORE SWAP1 DUP2 PUSH0 DUP3 ADD PUSH0 SWAP1 SLOAD SWAP1 PUSH2 0x100 EXP SWAP1 DIV PUSH20 0xFFFFFFFFFFFFFFFFFFFFFFFFFFFFFFFFFFFFFFFF AND PUSH20 0xFFFFFFFFFFFFFFFFFFFFFFFFFFFFFFFFFFFFFFFF AND PUSH20 0xFFFFFFFFFFFFFFFFFFFFFFFFFFFFFFFFFFFFFFFF AND DUP2 MSTORE PUSH1 0x20 ADD PUSH1 0x1 DUP3 ADD PUSH0 SWAP1 SLOAD SWAP1 PUSH2 0x100 EXP SWAP1 DIV PUSH20 0xFFFFFFFFFFFFFFFFFFFFFFFFFFFFFFFFFFFFFFFF AND PUSH20 0xFFFFFFFFFFFFFFFFFFFFFFFFFFFFFFFFFFFFFFFF AND PUSH20 0xFFFFFFFFFFFFFFFFFFFFFFFFFFFFFFFFFFFFFFFF AND DUP2 MSTORE PUSH1 0x20 ADD PUSH1 0x2 DUP3 ADD DUP1 SLOAD PUSH2 0x370 SWAP1 PUSH2 0x1416 JUMP JUMPDEST DUP1 PUSH1 0x1F ADD PUSH1 0x20 DUP1 SWAP2 DIV MUL PUSH1 0x20 ADD PUSH1 0x40 MLOAD SWAP1 DUP2 ADD PUSH1 0x40 MSTORE DUP1 SWAP3 SWAP2 SWAP1 DUP2 DUP2 MSTORE PUSH1 0x20 ADD DUP3 DUP1 SLOAD PUSH2 0x39C SWAP1 PUSH2 0x1416 JUMP JUMPDEST DUP1 ISZERO PUSH2 0x3E7 JUMPI DUP1 PUSH1 0x1F LT PUSH2 0x3BE JUMPI PUSH2 0x100 DUP1 DUP4 SLOAD DIV MUL DUP4 MSTORE SWAP2 PUSH1 0x20 ADD SWAP2 PUSH2 0x3E7 JUMP JUMPDEST DUP3 ADD SWAP2 SWAP1 PUSH0 MSTORE PUSH1 0x20 PUSH0 KECCAK256 SWAP1 JUMPDEST DUP2 SLOAD DUP2 MSTORE SWAP1 PUSH1 0x1 ADD SWAP1 PUSH1 0x20 ADD DUP1 DUP4 GT PUSH2 0x3CA JUMPI DUP3 SWAP1 SUB PUSH1 0x1F AND DUP3 ADD SWAP2 JUMPDEST POP POP POP POP POP DUP2 MSTORE PUSH1 0x20 ADD PUSH1 0x3 DUP3 ADD SLOAD DUP2 MSTORE PUSH1 0x20 ADD PUSH1 0x4 DUP3 ADD SLOAD DUP2 MSTORE PUSH1 0x20 ADD PUSH1 0x5 DUP3 ADD SLOAD DUP2 MSTORE PUSH1 0x20 ADD PUSH1 0x6 DUP3 ADD PUSH0 SWAP1 SLOAD SWAP1 PUSH2 0x100 EXP SWAP1 DIV PUSH1 0xFF AND ISZERO ISZERO ISZERO ISZERO DUP2 MSTORE POP POP DUP2 MSTORE PUSH1 0x20 ADD SWAP1 PUSH1 0x1 ADD SWAP1 PUSH2 0x296 JUMP JUMPDEST POP POP POP POP SWAP1 POP SWAP1 JUMP JUMPDEST PUSH0 PUSH1 0x1 DUP5 PUSH1 0x40 MLOAD PUSH2 0x451 SWAP2 SWAP1 PUSH2 0x1480 JUMP JUMPDEST SWAP1 DUP2 MSTORE PUSH1 0x20 ADD PUSH1 0x40 MLOAD DUP1 SWAP2 SUB SWAP1 KECCAK256 PUSH1 0x2 ADD DUP1 SLOAD PUSH2 0x46D SWAP1 PUSH2 0x1416 JUMP JUMPDEST SWAP1 POP EQ PUSH2 0x4AF JUMPI PUSH1 0x40 MLOAD PUSH32 0x8C379A000000000000000000000000000000000000000000000000000000000 DUP2 MSTORE PUSH1 0x4 ADD PUSH2 0x4A6 SWAP1 PUSH2 0x14E0 JUMP JUMPDEST PUSH1 0x40 MLOAD DUP1 SWAP2 SUB SWAP1 REVERT JUMPDEST PUSH0 PUSH20 0xFFFFFFFFFFFFFFFFFFFFFFFFFFFFFFFFFFFFFFFF AND DUP5 PUSH20 0xFFFFFFFFFFFFFFFFFFFFFFFFFFFFFFFFFFFFFFFF AND SUB PUSH2 0x51D JUMPI PUSH1 0x40 MLOAD PUSH32 0x8C379A000000000000000000000000000000000000000000000000000000000 DUP2 MSTORE PUSH1 0x4 ADD PUSH2 0x514 SWAP1 PUSH2 0x1548 JUMP JUMPDEST PUSH1 0x40 MLOAD DUP1 SWAP2 SUB SWAP1 REVERT JUMPDEST PUSH0 DUP4 MLOAD GT PUSH2 0x560 JUMPI PUSH1 0x40 MLOAD PUSH32 0x8C379A000000000000000000000000000000000000000000000000000000000 DUP2 MSTORE PUSH1 0x4 ADD PUSH2 0x557 SWAP1 PUSH2 0x15B0 JUMP JUMPDEST PUSH1 0x40 MLOAD DUP1 SWAP2 SUB SWAP1 REVERT JUMPDEST PUSH0 DUP2 GT PUSH2 0x5A2 JUMPI PUSH1 0x40 MLOAD PUSH32 0x8C379A000000000000000000000000000000000000000000000000000000000 DUP2 MSTORE PUSH1 0x4 ADD PUSH2 0x599 SWAP1 PUSH2 0x1618 JUMP JUMPDEST PUSH1 0x40 MLOAD DUP1 SWAP2 SUB SWAP1 REVERT JUMPDEST PUSH0 PUSH1 0x40 MLOAD DUP1 PUSH1 0xE0 ADD PUSH1 0x40 MSTORE DUP1 CALLER PUSH20 0xFFFFFFFFFFFFFFFFFFFFFFFFFFFFFFFFFFFFFFFF AND DUP2 MSTORE PUSH1 0x20 ADD DUP7 PUSH20 0xFFFFFFFFFFFFFFFFFFFFFFFFFFFFFFFFFFFFFFFF AND DUP2 MSTORE PUSH1 0x20 ADD DUP6 DUP2 MSTORE PUSH1 0x20 ADD DUP5 DUP2 MSTORE PUSH1 0x20 ADD DUP4 DUP2 MSTORE PUSH1 0x20 ADD PUSH0 DUP2 MSTORE PUSH1 0x20 ADD PUSH0 ISZERO ISZERO DUP2 MSTORE POP SWAP1 POP DUP1 PUSH1 0x1 DUP6 PUSH1 0x40 MLOAD PUSH2 0x617 SWAP2 SWAP1 PUSH2 0x1480 JUMP JUMPDEST SWAP1 DUP2 MSTORE PUSH1 0x20 ADD PUSH1 0x40 MLOAD DUP1 SWAP2 SUB SWAP1 KECCAK256 PUSH0 DUP3 ADD MLOAD DUP2 PUSH0 ADD PUSH0 PUSH2 0x100 EXP DUP2 SLOAD DUP2 PUSH20 0xFFFFFFFFFFFFFFFFFFFFFFFFFFFFFFFFFFFFFFFF MUL NOT AND SWAP1 DUP4 PUSH20 0xFFFFFFFFFFFFFFFFFFFFFFFFFFFFFFFFFFFFFFFF AND MUL OR SWAP1 SSTORE POP PUSH1 0x20 DUP3 ADD MLOAD DUP2 PUSH1 0x1 ADD PUSH0 PUSH2 0x100 EXP DUP2 SLOAD DUP2 PUSH20 0xFFFFFFFFFFFFFFFFFFFFFFFFFFFFFFFFFFFFFFFF MUL NOT AND SWAP1 DUP4 PUSH20 0xFFFFFFFFFFFFFFFFFFFFFFFFFFFFFFFFFFFFFFFF AND MUL OR SWAP1 SSTORE POP PUSH1 0x40 DUP3 ADD MLOAD DUP2 PUSH1 0x2 ADD SWAP1 DUP2 PUSH2 0x6C4 SWAP2 SWAP1 PUSH2 0x17D3 JUMP JUMPDEST POP PUSH1 0x60 DUP3 ADD MLOAD DUP2 PUSH1 0x3 ADD SSTORE PUSH1 0x80 DUP3 ADD MLOAD DUP2 PUSH1 0x4 ADD SSTORE PUSH1 0xA0 DUP3 ADD MLOAD DUP2 PUSH1 0x5 ADD SSTORE PUSH1 0xC0 DUP3 ADD MLOAD DUP2 PUSH1 0x6 ADD PUSH0 PUSH2 0x100 EXP DUP2 SLOAD DUP2 PUSH1 0xFF MUL NOT AND SWAP1 DUP4 ISZERO ISZERO MUL OR SWAP1 SSTORE POP SWAP1 POP POP PUSH0 DUP2 SWAP1 DUP1 PUSH1 0x1 DUP2 SLOAD ADD DUP1 DUP3 SSTORE DUP1 SWAP2 POP POP PUSH1 0x1 SWAP1 SUB SWAP1 PUSH0 MSTORE PUSH1 0x20 PUSH0 KECCAK256 SWAP1 PUSH1 0x7 MUL ADD PUSH0 SWAP1 SWAP2 SWAP1 SWAP2 SWAP1 SWAP2 POP PUSH0 DUP3 ADD MLOAD DUP2 PUSH0 ADD PUSH0 PUSH2 0x100 EXP DUP2 SLOAD DUP2 PUSH20 0xFFFFFFFFFFFFFFFFFFFFFFFFFFFFFFFFFFFFFFFF MUL NOT AND SWAP1 DUP4 PUSH20 0xFFFFFFFFFFFFFFFFFFFFFFFFFFFFFFFFFFFFFFFF AND MUL OR SWAP1 SSTORE POP PUSH1 0x20 DUP3 ADD MLOAD DUP2 PUSH1 0x1 ADD PUSH0 PUSH2 0x100 EXP DUP2 SLOAD DUP2 PUSH20 0xFFFFFFFFFFFFFFFFFFFFFFFFFFFFFFFFFFFFFFFF MUL NOT AND SWAP1 DUP4 PUSH20 0xFFFFFFFFFFFFFFFFFFFFFFFFFFFFFFFFFFFFFFFF AND MUL OR SWAP1 SSTORE POP PUSH1 0x40 DUP3 ADD MLOAD DUP2 PUSH1 0x2 ADD SWAP1 DUP2 PUSH2 0x7CC SWAP2 SWAP1 PUSH2 0x17D3 JUMP JUMPDEST POP PUSH1 0x60 DUP3 ADD MLOAD DUP2 PUSH1 0x3 ADD SSTORE PUSH1 0x80 DUP3 ADD MLOAD DUP2 PUSH1 0x4 ADD SSTORE PUSH1 0xA0 DUP3 ADD MLOAD DUP2 PUSH1 0x5 ADD SSTORE PUSH1 0xC0 DUP3 ADD MLOAD DUP2 PUSH1 0x6 ADD PUSH0 PUSH2 0x100 EXP DUP2 SLOAD DUP2 PUSH1 0xFF MUL NOT AND SWAP1 DUP4 ISZERO ISZERO MUL OR SWAP1 SSTORE POP POP POP POP POP POP POP POP JUMP JUMPDEST PUSH0 DUP1 PUSH0 PUSH1 0x1 DUP5 PUSH1 0x40 MLOAD PUSH2 0x826 SWAP2 SWAP1 PUSH2 0x1480 JUMP JUMPDEST SWAP1 DUP2 MSTORE PUSH1 0x20 ADD PUSH1 0x40 MLOAD DUP1 SWAP2 SUB SWAP1 KECCAK256 PUSH1 0x1 ADD PUSH0 SWAP1 SLOAD SWAP1 PUSH2 0x100 EXP SWAP1 DIV PUSH20 0xFFFFFFFFFFFFFFFFFFFFFFFFFFFFFFFFFFFFFFFF AND PUSH1 0x1 DUP6 PUSH1 0x40 MLOAD PUSH2 0x867 SWAP2 SWAP1 PUSH2 0x1480 JUMP JUMPDEST SWAP1 DUP2 MSTORE PUSH1 0x20 ADD PUSH1 0x40 MLOAD DUP1 SWAP2 SUB SWAP1 KECCAK256 PUSH1 0x5 ADD SLOAD PUSH1 0x1 DUP7 PUSH1 0x40 MLOAD PUSH2 0x889 SWAP2 SWAP1 PUSH2 0x1480 JUMP JUMPDEST SWAP1 DUP2 MSTORE PUSH1 0x20 ADD PUSH1 0x40 MLOAD DUP1 SWAP2 SUB SWAP1 KECCAK256 PUSH1 0x3 ADD SLOAD SWAP3 POP SWAP3 POP SWAP3 POP SWAP2 SWAP4 SWAP1 SWAP3 POP JUMP JUMPDEST PUSH1 0x1 DUP2 DUP1 MLOAD PUSH1 0x20 DUP2 ADD DUP3 ADD DUP1 MLOAD DUP5 DUP3 MSTORE PUSH1 0x20 DUP4 ADD PUSH1 0x20 DUP6 ADD KECCAK256 DUP2 DUP4 MSTORE DUP1 SWAP6 POP POP POP POP POP POP PUSH0 SWAP2 POP SWAP1 POP DUP1 PUSH0 ADD PUSH0 SWAP1 SLOAD SWAP1 PUSH2 0x100 EXP SWAP1 DIV PUSH20 0xFFFFFFFFFFFFFFFFFFFFFFFFFFFFFFFFFFFFFFFF AND SWAP1 DUP1 PUSH1 0x1 ADD PUSH0 SWAP1 SLOAD SWAP1 PUSH2 0x100 EXP SWAP1 DIV PUSH20 0xFFFFFFFFFFFFFFFFFFFFFFFFFFFFFFFFFFFFFFFF AND SWAP1 DUP1 PUSH1 0x2 ADD DUP1 SLOAD PUSH2 0x929 SWAP1 PUSH2 0x1416 JUMP JUMPDEST DUP1 PUSH1 0x1F ADD PUSH1 0x20 DUP1 SWAP2 DIV MUL PUSH1 0x20 ADD PUSH1 0x40 MLOAD SWAP1 DUP2 ADD PUSH1 0x40 MSTORE DUP1 SWAP3 SWAP2 SWAP1 DUP2 DUP2 MSTORE PUSH1 0x20 ADD DUP3 DUP1 SLOAD PUSH2 0x955 SWAP1 PUSH2 0x1416 JUMP JUMPDEST DUP1 ISZERO PUSH2 0x9A0 JUMPI DUP1 PUSH1 0x1F LT PUSH2 0x977 JUMPI PUSH2 0x100 DUP1 DUP4 SLOAD DIV MUL DUP4 MSTORE SWAP2 PUSH1 0x20 ADD SWAP2 PUSH2 0x9A0 JUMP JUMPDEST DUP3 ADD SWAP2 SWAP1 PUSH0 MSTORE PUSH1 0x20 PUSH0 KECCAK256 SWAP1 JUMPDEST DUP2 SLOAD DUP2 MSTORE SWAP1 PUSH1 0x1 ADD SWAP1 PUSH1 0x20 ADD DUP1 DUP4 GT PUSH2 0x983 JUMPI DUP3 SWAP1 SUB PUSH1 0x1F AND DUP3 ADD SWAP2 JUMPDEST POP POP POP POP POP SWAP1 DUP1 PUSH1 0x3 ADD SLOAD SWAP1 DUP1 PUSH1 0x4 ADD SLOAD SWAP1 DUP1 PUSH1 0x5 ADD SLOAD SWAP1 DUP1 PUSH1 0x6 ADD PUSH0 SWAP1 SLOAD SWAP1 PUSH2 0x100 EXP SWAP1 DIV PUSH1 0xFF AND SWAP1 POP DUP8 JUMP JUMPDEST PUSH1 0x1 DUP2 PUSH1 0x40 MLOAD PUSH2 0x9DE SWAP2 SWAP1 PUSH2 0x1480 JUMP JUMPDEST SWAP1 DUP2 MSTORE PUSH1 0x20 ADD PUSH1 0x40 MLOAD DUP1 SWAP2 SUB SWAP1 KECCAK256 PUSH1 0x6 ADD PUSH0 SWAP1 SLOAD SWAP1 PUSH2 0x100 EXP SWAP1 DIV PUSH1 0xFF AND ISZERO PUSH2 0xA3C JUMPI PUSH1 0x40 MLOAD PUSH32 0x8C379A000000000000000000000000000000000000000000000000000000000 DUP2 MSTORE PUSH1 0x4 ADD PUSH2 0xA33 SWAP1 PUSH2 0x1912 JUMP JUMPDEST PUSH1 0x40 MLOAD DUP1 SWAP2 SUB SWAP1 REVERT JUMPDEST PUSH0 PUSH1 0x1 DUP3 PUSH1 0x40 MLOAD PUSH2 0xA4D SWAP2 SWAP1 PUSH2 0x1480 JUMP JUMPDEST SWAP1 DUP2 MSTORE PUSH1 0x20 ADD PUSH1 0x40 MLOAD DUP1 SWAP2 SUB SWAP1 KECCAK256 PUSH1 0x40 MLOAD DUP1 PUSH1 0xE0 ADD PUSH1 0x40 MSTORE SWAP1 DUP2 PUSH0 DUP3 ADD PUSH0 SWAP1 SLOAD SWAP1 PUSH2 0x100 EXP SWAP1 DIV PUSH20 0xFFFFFFFFFFFFFFFFFFFFFFFFFFFFFFFFFFFFFFFF AND PUSH20 0xFFFFFFFFFFFFFFFFFFFFFFFFFFFFFFFFFFFFFFFF AND PUSH20 0xFFFFFFFFFFFFFFFFFFFFFFFFFFFFFFFFFFFFFFFF AND DUP2 MSTORE PUSH1 0x20 ADD PUSH1 0x1 DUP3 ADD PUSH0 SWAP1 SLOAD SWAP1 PUSH2 0x100 EXP SWAP1 DIV PUSH20 0xFFFFFFFFFFFFFFFFFFFFFFFFFFFFFFFFFFFFFFFF AND PUSH20 0xFFFFFFFFFFFFFFFFFFFFFFFFFFFFFFFFFFFFFFFF AND PUSH20 0xFFFFFFFFFFFFFFFFFFFFFFFFFFFFFFFFFFFFFFFF AND DUP2 MSTORE PUSH1 0x20 ADD PUSH1 0x2 DUP3 ADD DUP1 SLOAD PUSH2 0xB1F SWAP1 PUSH2 0x1416 JUMP JUMPDEST DUP1 PUSH1 0x1F ADD PUSH1 0x20 DUP1 SWAP2 DIV MUL PUSH1 0x20 ADD PUSH1 0x40 MLOAD SWAP1 DUP2 ADD PUSH1 0x40 MSTORE DUP1 SWAP3 SWAP2 SWAP1 DUP2 DUP2 MSTORE PUSH1 0x20 ADD DUP3 DUP1 SLOAD PUSH2 0xB4B SWAP1 PUSH2 0x1416 JUMP JUMPDEST DUP1 ISZERO PUSH2 0xB96 JUMPI DUP1 PUSH1 0x1F LT PUSH2 0xB6D JUMPI PUSH2 0x100 DUP1 DUP4 SLOAD DIV MUL DUP4 MSTORE SWAP2 PUSH1 0x20 ADD SWAP2 PUSH2 0xB96 JUMP JUMPDEST DUP3 ADD SWAP2 SWAP1 PUSH0 MSTORE PUSH1 0x20 PUSH0 KECCAK256 SWAP1 JUMPDEST DUP2 SLOAD DUP2 MSTORE SWAP1 PUSH1 0x1 ADD SWAP1 PUSH1 0x20 ADD DUP1 DUP4 GT PUSH2 0xB79 JUMPI DUP3 SWAP1 SUB PUSH1 0x1F AND DUP3 ADD SWAP2 JUMPDEST POP POP POP POP POP DUP2 MSTORE PUSH1 0x20 ADD PUSH1 0x3 DUP3 ADD SLOAD DUP2 MSTORE PUSH1 0x20 ADD PUSH1 0x4 DUP3 ADD SLOAD DUP2 MSTORE PUSH1 0x20 ADD PUSH1 0x5 DUP3 ADD SLOAD DUP2 MSTORE PUSH1 0x20 ADD PUSH1 0x6 DUP3 ADD PUSH0 SWAP1 SLOAD SWAP1 PUSH2 0x100 EXP SWAP1 DIV PUSH1 0xFF AND ISZERO ISZERO ISZERO ISZERO DUP2 MSTORE POP POP SWAP1 POP PUSH0 DUP2 PUSH1 0xC0 ADD SWAP1 ISZERO ISZERO SWAP1 DUP2 ISZERO ISZERO DUP2 MSTORE POP POP DUP1 PUSH1 0x1 DUP4 PUSH1 0x40 MLOAD PUSH2 0xBFA SWAP2 SWAP1 PUSH2 0x1480 JUMP JUMPDEST SWAP1 DUP2 MSTORE PUSH1 0x20 ADD PUSH1 0x40 MLOAD DUP1 SWAP2 SUB SWAP1 KECCAK256 PUSH0 DUP3 ADD MLOAD DUP2 PUSH0 ADD PUSH0 PUSH2 0x100 EXP DUP2 SLOAD DUP2 PUSH20 0xFFFFFFFFFFFFFFFFFFFFFFFFFFFFFFFFFFFFFFFF MUL NOT AND SWAP1 DUP4 PUSH20 0xFFFFFFFFFFFFFFFFFFFFFFFFFFFFFFFFFFFFFFFF AND MUL OR SWAP1 SSTORE POP PUSH1 0x20 DUP3 ADD MLOAD DUP2 PUSH1 0x1 ADD PUSH0 PUSH2 0x100 EXP DUP2 SLOAD DUP2 PUSH20 0xFFFFFFFFFFFFFFFFFFFFFFFFFFFFFFFFFFFFFFFF MUL NOT AND SWAP1 DUP4 PUSH20 0xFFFFFFFFFFFFFFFFFFFFFFFFFFFFFFFFFFFFFFFF AND MUL OR SWAP1 SSTORE POP PUSH1 0x40 DUP3 ADD MLOAD DUP2 PUSH1 0x2 ADD SWAP1 DUP2 PUSH2 0xCA7 SWAP2 SWAP1 PUSH2 0x17D3 JUMP JUMPDEST POP PUSH1 0x60 DUP3 ADD MLOAD DUP2 PUSH1 0x3 ADD SSTORE PUSH1 0x80 DUP3 ADD MLOAD DUP2 PUSH1 0x4 ADD SSTORE PUSH1 0xA0 DUP3 ADD MLOAD DUP2 PUSH1 0x5 ADD SSTORE PUSH1 0xC0 DUP3 ADD MLOAD DUP2 PUSH1 0x6 ADD PUSH0 PUSH2 0x100 EXP DUP2 SLOAD DUP2 PUSH1 0xFF MUL NOT AND SWAP1 DUP4 ISZERO ISZERO MUL OR SWAP1 SSTORE POP SWAP1 POP POP PUSH0 DUP2 SWAP1 DUP1 PUSH1 0x1 DUP2 SLOAD ADD DUP1 DUP3 SSTORE DUP1 SWAP2 POP POP PUSH1 0x1 SWAP1 SUB SWAP1 PUSH0 MSTORE PUSH1 0x20 PUSH0 KECCAK256 SWAP1 PUSH1 0x7 MUL ADD PUSH0 SWAP1 SWAP2 SWAP1 SWAP2 SWAP1 SWAP2 POP PUSH0 DUP3 ADD MLOAD DUP2 PUSH0 ADD PUSH0 PUSH2 0x100 EXP DUP2 SLOAD DUP2 PUSH20 0xFFFFFFFFFFFFFFFFFFFFFFFFFFFFFFFFFFFFFFFF MUL NOT AND SWAP1 DUP4 PUSH20 0xFFFFFFFFFFFFFFFFFFFFFFFFFFFFFFFFFFFFFFFF AND MUL OR SWAP1 SSTORE POP PUSH1 0x20 DUP3 ADD MLOAD DUP2 PUSH1 0x1 ADD PUSH0 PUSH2 0x100 EXP DUP2 SLOAD DUP2 PUSH20 0xFFFFFFFFFFFFFFFFFFFFFFFFFFFFFFFFFFFFFFFF MUL NOT AND SWAP1 DUP4 PUSH20 0xFFFFFFFFFFFFFFFFFFFFFFFFFFFFFFFFFFFFFFFF AND MUL OR SWAP1 SSTORE POP PUSH1 0x40 DUP3 ADD MLOAD DUP2 PUSH1 0x2 ADD SWAP1 DUP2 PUSH2 0xDAF SWAP2 SWAP1 PUSH2 0x17D3 JUMP JUMPDEST POP PUSH1 0x60 DUP3 ADD MLOAD DUP2 PUSH1 0x3 ADD SSTORE PUSH1 0x80 DUP3 ADD MLOAD DUP2 PUSH1 0x4 ADD SSTORE PUSH1 0xA0 DUP3 ADD MLOAD DUP2 PUSH1 0x5 ADD SSTORE PUSH1 0xC0 DUP3 ADD MLOAD DUP2 PUSH1 0x6 ADD PUSH0 PUSH2 0x100 EXP DUP2 SLOAD DUP2 PUSH1 0xFF MUL NOT AND SWAP1 DUP4 ISZERO ISZERO MUL OR SWAP1 SSTORE POP POP POP POP POP JUMP JUMPDEST PUSH0 PUSH1 0x40 MLOAD SWAP1 POP SWAP1 JUMP JUMPDEST PUSH0 DUP1 REVERT JUMPDEST PUSH0 DUP1 REVERT JUMPDEST PUSH0 DUP2 SWAP1 POP SWAP2 SWAP1 POP JUMP JUMPDEST PUSH2 0xE16 DUP2 PUSH2 0xE04 JUMP JUMPDEST DUP2 EQ PUSH2 0xE20 JUMPI PUSH0 DUP1 REVERT JUMPDEST POP JUMP JUMPDEST PUSH0 DUP2 CALLDATALOAD SWAP1 POP PUSH2 0xE31 DUP2 PUSH2 0xE0D JUMP JUMPDEST SWAP3 SWAP2 POP POP JUMP JUMPDEST PUSH0 PUSH1 0x20 DUP3 DUP5 SUB SLT ISZERO PUSH2 0xE4C JUMPI PUSH2 0xE4B PUSH2 0xDFC JUMP JUMPDEST JUMPDEST PUSH0 PUSH2 0xE59 DUP5 DUP3 DUP6 ADD PUSH2 0xE23 JUMP JUMPDEST SWAP2 POP POP SWAP3 SWAP2 POP POP JUMP JUMPDEST PUSH0 PUSH20 0xFFFFFFFFFFFFFFFFFFFFFFFFFFFFFFFFFFFFFFFF DUP3 AND SWAP1 POP SWAP2 SWAP1 POP JUMP JUMPDEST PUSH0 PUSH2 0xE8B DUP3 PUSH2 0xE62 JUMP JUMPDEST SWAP1 POP SWAP2 SWAP1 POP JUMP JUMPDEST PUSH2 0xE9B DUP2 PUSH2 0xE81 JUMP JUMPDEST DUP3 MSTORE POP POP JUMP JUMPDEST PUSH0 DUP2 MLOAD SWAP1 POP SWAP2 SWAP1 POP JUMP JUMPDEST PUSH0 DUP3 DUP3 MSTORE PUSH1 0x20 DUP3 ADD SWAP1 POP SWAP3 SWAP2 POP POP JUMP JUMPDEST DUP3 DUP2 DUP4 MCOPY PUSH0 DUP4 DUP4 ADD MSTORE POP POP POP JUMP JUMPDEST PUSH0 PUSH1 0x1F NOT PUSH1 0x1F DUP4 ADD AND SWAP1 POP SWAP2 SWAP1 POP JUMP JUMPDEST PUSH0 PUSH2 0xEE3 DUP3 PUSH2 0xEA1 JUMP JUMPDEST PUSH2 0xEED DUP2 DUP6 PUSH2 0xEAB JUMP JUMPDEST SWAP4 POP PUSH2 0xEFD DUP2 DUP6 PUSH1 0x20 DUP7 ADD PUSH2 0xEBB JUMP JUMPDEST PUSH2 0xF06 DUP2 PUSH2 0xEC9 JUMP JUMPDEST DUP5 ADD SWAP2 POP POP SWAP3 SWAP2 POP POP JUMP JUMPDEST PUSH2 0xF1A DUP2 PUSH2 0xE04 JUMP JUMPDEST DUP3 MSTORE POP POP JUMP JUMPDEST PUSH0 DUP2 ISZERO ISZERO SWAP1 POP SWAP2 SWAP1 POP JUMP JUMPDEST PUSH2 0xF34 DUP2 PUSH2 0xF20 JUMP JUMPDEST DUP3 MSTORE POP POP JUMP JUMPDEST PUSH0 PUSH1 0xE0 DUP3 ADD SWAP1 POP PUSH2 0xF4D PUSH0 DUP4 ADD DUP11 PUSH2 0xE92 JUMP JUMPDEST PUSH2 0xF5A PUSH1 0x20 DUP4 ADD DUP10 PUSH2 0xE92 JUMP JUMPDEST DUP2 DUP2 SUB PUSH1 0x40 DUP4 ADD MSTORE PUSH2 0xF6C DUP2 DUP9 PUSH2 0xED9 JUMP JUMPDEST SWAP1 POP PUSH2 0xF7B PUSH1 0x60 DUP4 ADD DUP8 PUSH2 0xF11 JUMP JUMPDEST PUSH2 0xF88 PUSH1 0x80 DUP4 ADD DUP7 PUSH2 0xF11 JUMP JUMPDEST PUSH2 0xF95 PUSH1 0xA0 DUP4 ADD DUP6 PUSH2 0xF11 JUMP JUMPDEST PUSH2 0xFA2 PUSH1 0xC0 DUP4 ADD DUP5 PUSH2 0xF2B JUMP JUMPDEST SWAP9 SWAP8 POP POP POP POP POP POP POP POP JUMP JUMPDEST PUSH0 DUP2 MLOAD SWAP1 POP SWAP2 SWAP1 POP JUMP JUMPDEST PUSH0 DUP3 DUP3 MSTORE PUSH1 0x20 DUP3 ADD SWAP1 POP SWAP3 SWAP2 POP POP JUMP JUMPDEST PUSH0 DUP2 SWAP1 POP PUSH1 0x20 DUP3 ADD SWAP1 POP SWAP2 SWAP1 POP JUMP JUMPDEST PUSH2 0xFE0 DUP2 PUSH2 0xE81 JUMP JUMPDEST DUP3 MSTORE POP POP JUMP JUMPDEST PUSH0 DUP3 DUP3 MSTORE PUSH1 0x20 DUP3 ADD SWAP1 POP SWAP3 SWAP2 POP POP JUMP JUMPDEST PUSH0 PUSH2 0x1000 DUP3 PUSH2 0xEA1 JUMP JUMPDEST PUSH2 0x100A DUP2 DUP6 PUSH2 0xFE6 JUMP JUMPDEST SWAP4 POP PUSH2 0x101A DUP2 DUP6 PUSH1 0x20 DUP7 ADD PUSH2 0xEBB JUMP JUMPDEST PUSH2 0x1023 DUP2 PUSH2 0xEC9 JUMP JUMPDEST DUP5 ADD SWAP2 POP POP SWAP3 SWAP2 POP POP JUMP JUMPDEST PUSH2 0x1037 DUP2 PUSH2 0xE04 JUMP JUMPDEST DUP3 MSTORE POP POP JUMP JUMPDEST PUSH2 0x1046 DUP2 PUSH2 0xF20 JUMP JUMPDEST DUP3 MSTORE POP POP JUMP JUMPDEST PUSH0 PUSH1 0xE0 DUP4 ADD PUSH0 DUP4 ADD MLOAD PUSH2 0x1061 PUSH0 DUP7 ADD DUP3 PUSH2 0xFD7 JUMP JUMPDEST POP PUSH1 0x20 DUP4 ADD MLOAD PUSH2 0x1074 PUSH1 0x20 DUP7 ADD DUP3 PUSH2 0xFD7 JUMP JUMPDEST POP PUSH1 0x40 DUP4 ADD MLOAD DUP5 DUP3 SUB PUSH1 0x40 DUP7 ADD MSTORE PUSH2 0x108C DUP3 DUP3 PUSH2 0xFF6 JUMP JUMPDEST SWAP2 POP POP PUSH1 0x60 DUP4 ADD MLOAD PUSH2 0x10A1 PUSH1 0x60 DUP7 ADD DUP3 PUSH2 0x102E JUMP JUMPDEST POP PUSH1 0x80 DUP4 ADD MLOAD PUSH2 0x10B4 PUSH1 0x80 DUP7 ADD DUP3 PUSH2 0x102E JUMP JUMPDEST POP PUSH1 0xA0 DUP4 ADD MLOAD PUSH2 0x10C7 PUSH1 0xA0 DUP7 ADD DUP3 PUSH2 0x102E JUMP JUMPDEST POP PUSH1 0xC0 DUP4 ADD MLOAD PUSH2 0x10DA PUSH1 0xC0 DUP7 ADD DUP3 PUSH2 0x103D JUMP JUMPDEST POP DUP1 SWAP2 POP POP SWAP3 SWAP2 POP POP JUMP JUMPDEST PUSH0 PUSH2 0x10F0 DUP4 DUP4 PUSH2 0x104C JUMP JUMPDEST SWAP1 POP SWAP3 SWAP2 POP POP JUMP JUMPDEST PUSH0 PUSH1 0x20 DUP3 ADD SWAP1 POP SWAP2 SWAP1 POP JUMP JUMPDEST PUSH0 PUSH2 0x110E DUP3 PUSH2 0xFAE JUMP JUMPDEST PUSH2 0x1118 DUP2 DUP6 PUSH2 0xFB8 JUMP JUMPDEST SWAP4 POP DUP4 PUSH1 0x20 DUP3 MUL DUP6 ADD PUSH2 0x112A DUP6 PUSH2 0xFC8 JUMP JUMPDEST DUP1 PUSH0 JUMPDEST DUP6 DUP2 LT ISZERO PUSH2 0x1165 JUMPI DUP5 DUP5 SUB DUP10 MSTORE DUP2 MLOAD PUSH2 0x1146 DUP6 DUP3 PUSH2 0x10E5 JUMP JUMPDEST SWAP5 POP PUSH2 0x1151 DUP4 PUSH2 0x10F8 JUMP JUMPDEST SWAP3 POP PUSH1 0x20 DUP11 ADD SWAP10 POP POP PUSH1 0x1 DUP2 ADD SWAP1 POP PUSH2 0x112D JUMP JUMPDEST POP DUP3 SWAP8 POP DUP8 SWAP6 POP POP POP POP POP POP SWAP3 SWAP2 POP POP JUMP JUMPDEST PUSH0 PUSH1 0x20 DUP3 ADD SWAP1 POP DUP2 DUP2 SUB PUSH0 DUP4 ADD MSTORE PUSH2 0x118F DUP2 DUP5 PUSH2 0x1104 JUMP JUMPDEST SWAP1 POP SWAP3 SWAP2 POP POP JUMP JUMPDEST PUSH2 0x11A0 DUP2 PUSH2 0xE81 JUMP JUMPDEST DUP2 EQ PUSH2 0x11AA JUMPI PUSH0 DUP1 REVERT JUMPDEST POP JUMP JUMPDEST PUSH0 DUP2 CALLDATALOAD SWAP1 POP PUSH2 0x11BB DUP2 PUSH2 0x1197 JUMP JUMPDEST SWAP3 SWAP2 POP POP JUMP JUMPDEST PUSH0 DUP1 REVERT JUMPDEST PUSH0 DUP1 REVERT JUMPDEST PUSH32 0x4E487B7100000000000000000000000000000000000000000000000000000000 PUSH0 MSTORE PUSH1 0x41 PUSH1 0x4 MSTORE PUSH1 0x24 PUSH0 REVERT JUMPDEST PUSH2 0x11FF DUP3 PUSH2 0xEC9 JUMP JUMPDEST DUP2 ADD DUP2 DUP2 LT PUSH8 0xFFFFFFFFFFFFFFFF DUP3 GT OR ISZERO PUSH2 0x121E JUMPI PUSH2 0x121D PUSH2 0x11C9 JUMP JUMPDEST JUMPDEST DUP1 PUSH1 0x40 MSTORE POP POP POP JUMP JUMPDEST PUSH0 PUSH2 0x1230 PUSH2 0xDF3 JUMP JUMPDEST SWAP1 POP PUSH2 0x123C DUP3 DUP3 PUSH2 0x11F6 JUMP JUMPDEST SWAP2 SWAP1 POP JUMP JUMPDEST PUSH0 PUSH8 0xFFFFFFFFFFFFFFFF DUP3 GT ISZERO PUSH2 0x125B JUMPI PUSH2 0x125A PUSH2 0x11C9 JUMP JUMPDEST JUMPDEST PUSH2 0x1264 DUP3 PUSH2 0xEC9 JUMP JUMPDEST SWAP1 POP PUSH1 0x20 DUP2 ADD SWAP1 POP SWAP2 SWAP1 POP JUMP JUMPDEST DUP3 DUP2 DUP4 CALLDATACOPY PUSH0 DUP4 DUP4 ADD MSTORE POP POP POP JUMP JUMPDEST PUSH0 PUSH2 0x1291 PUSH2 0x128C DUP5 PUSH2 0x1241 JUMP JUMPDEST PUSH2 0x1227 JUMP JUMPDEST SWAP1 POP DUP3 DUP2 MSTORE PUSH1 0x20 DUP2 ADD DUP5 DUP5 DUP5 ADD GT ISZERO PUSH2 0x12AD JUMPI PUSH2 0x12AC PUSH2 0x11C5 JUMP JUMPDEST JUMPDEST PUSH2 0x12B8 DUP5 DUP3 DUP6 PUSH2 0x1271 JUMP JUMPDEST POP SWAP4 SWAP3 POP POP POP JUMP JUMPDEST PUSH0 DUP3 PUSH1 0x1F DUP4 ADD SLT PUSH2 0x12D4 JUMPI PUSH2 0x12D3 PUSH2 0x11C1 JUMP JUMPDEST JUMPDEST DUP2 CALLDATALOAD PUSH2 0x12E4 DUP5 DUP3 PUSH1 0x20 DUP7 ADD PUSH2 0x127F JUMP JUMPDEST SWAP2 POP POP SWAP3 SWAP2 POP POP JUMP JUMPDEST PUSH0 DUP1 PUSH0 DUP1 PUSH1 0x80 DUP6 DUP8 SUB SLT ISZERO PUSH2 0x1305 JUMPI PUSH2 0x1304 PUSH2 0xDFC JUMP JUMPDEST JUMPDEST PUSH0 PUSH2 0x1312 DUP8 DUP3 DUP9 ADD PUSH2 0x11AD JUMP JUMPDEST SWAP5 POP POP PUSH1 0x20 DUP6 ADD CALLDATALOAD PUSH8 0xFFFFFFFFFFFFFFFF DUP2 GT ISZERO PUSH2 0x1333 JUMPI PUSH2 0x1332 PUSH2 0xE00 JUMP JUMPDEST JUMPDEST PUSH2 0x133F DUP8 DUP3 DUP9 ADD PUSH2 0x12C0 JUMP JUMPDEST SWAP4 POP POP PUSH1 0x40 PUSH2 0x1350 DUP8 DUP3 DUP9 ADD PUSH2 0xE23 JUMP JUMPDEST SWAP3 POP POP PUSH1 0x60 PUSH2 0x1361 DUP8 DUP3 DUP9 ADD PUSH2 0xE23 JUMP JUMPDEST SWAP2 POP POP SWAP3 SWAP6 SWAP2 SWAP5 POP SWAP3 POP JUMP JUMPDEST PUSH0 PUSH1 0x20 DUP3 DUP5 SUB SLT ISZERO PUSH2 0x1382 JUMPI PUSH2 0x1381 PUSH2 0xDFC JUMP JUMPDEST JUMPDEST PUSH0 DUP3 ADD CALLDATALOAD PUSH8 0xFFFFFFFFFFFFFFFF DUP2 GT ISZERO PUSH2 0x139F JUMPI PUSH2 0x139E PUSH2 0xE00 JUMP JUMPDEST JUMPDEST PUSH2 0x13AB DUP5 DUP3 DUP6 ADD PUSH2 0x12C0 JUMP JUMPDEST SWAP2 POP POP SWAP3 SWAP2 POP POP JUMP JUMPDEST PUSH0 PUSH1 0x60 DUP3 ADD SWAP1 POP PUSH2 0x13C7 PUSH0 DUP4 ADD DUP7 PUSH2 0xE92 JUMP JUMPDEST PUSH2 0x13D4 PUSH1 0x20 DUP4 ADD DUP6 PUSH2 0xF11 JUMP JUMPDEST PUSH2 0x13E1 PUSH1 0x40 DUP4 ADD DUP5 PUSH2 0xF11 JUMP JUMPDEST SWAP5 SWAP4 POP POP POP POP JUMP JUMPDEST PUSH32 0x4E487B7100000000000000000000000000000000000000000000000000000000 PUSH0 MSTORE PUSH1 0x22 PUSH1 0x4 MSTORE PUSH1 0x24 PUSH0 REVERT JUMPDEST PUSH0 PUSH1 0x2 DUP3 DIV SWAP1 POP PUSH1 0x1 DUP3 AND DUP1 PUSH2 0x142D JUMPI PUSH1 0x7F DUP3 AND SWAP2 POP JUMPDEST PUSH1 0x20 DUP3 LT DUP2 SUB PUSH2 0x1440 JUMPI PUSH2 0x143F PUSH2 0x13E9 JUMP JUMPDEST JUMPDEST POP SWAP2 SWAP1 POP JUMP JUMPDEST PUSH0 DUP2 SWAP1 POP SWAP3 SWAP2 POP POP JUMP JUMPDEST PUSH0 PUSH2 0x145A DUP3 PUSH2 0xEA1 JUMP JUMPDEST PUSH2 0x1464 DUP2 DUP6 PUSH2 0x1446 JUMP JUMPDEST SWAP4 POP PUSH2 0x1474 DUP2 DUP6 PUSH1 0x20 DUP7 ADD PUSH2 0xEBB JUMP JUMPDEST DUP1 DUP5 ADD SWAP2 POP POP SWAP3 SWAP2 POP POP JUMP JUMPDEST PUSH0 PUSH2 0x148B DUP3 DUP5 PUSH2 0x1450 JUMP JUMPDEST SWAP2 POP DUP2 SWAP1 POP SWAP3 SWAP2 POP POP JUMP JUMPDEST PUSH32 0x47757920796F75206E6F2066697420637265617465206E616D65206E69690000 PUSH0 DUP3 ADD MSTORE POP JUMP JUMPDEST PUSH0 PUSH2 0x14CA PUSH1 0x1E DUP4 PUSH2 0xEAB JUMP JUMPDEST SWAP2 POP PUSH2 0x14D5 DUP3 PUSH2 0x1496 JUMP JUMPDEST PUSH1 0x20 DUP3 ADD SWAP1 POP SWAP2 SWAP1 POP JUMP JUMPDEST PUSH0 PUSH1 0x20 DUP3 ADD SWAP1 POP DUP2 DUP2 SUB PUSH0 DUP4 ADD MSTORE PUSH2 0x14F7 DUP2 PUSH2 0x14BE JUMP JUMPDEST SWAP1 POP SWAP2 SWAP1 POP JUMP JUMPDEST PUSH32 0x5768696368206B696E6420616464726573732062652074686973000000000000 PUSH0 DUP3 ADD MSTORE POP JUMP JUMPDEST PUSH0 PUSH2 0x1532 PUSH1 0x1A DUP4 PUSH2 0xEAB JUMP JUMPDEST SWAP2 POP PUSH2 0x153D DUP3 PUSH2 0x14FE JUMP JUMPDEST PUSH1 0x20 DUP3 ADD SWAP1 POP SWAP2 SWAP1 POP JUMP JUMPDEST PUSH0 PUSH1 0x20 DUP3 ADD SWAP1 POP DUP2 DUP2 SUB PUSH0 DUP4 ADD MSTORE PUSH2 0x155F DUP2 PUSH2 0x1526 JUMP JUMPDEST SWAP1 POP SWAP2 SWAP1 POP JUMP JUMPDEST PUSH32 0x596F75722063616D706169676E206E6F20676574206E616D6500000000000000 PUSH0 DUP3 ADD MSTORE POP JUMP JUMPDEST PUSH0 PUSH2 0x159A PUSH1 0x19 DUP4 PUSH2 0xEAB JUMP JUMPDEST SWAP2 POP PUSH2 0x15A5 DUP3 PUSH2 0x1566 JUMP JUMPDEST PUSH1 0x20 DUP3 ADD SWAP1 POP SWAP2 SWAP1 POP JUMP JUMPDEST PUSH0 PUSH1 0x20 DUP3 ADD SWAP1 POP DUP2 DUP2 SUB PUSH0 DUP4 ADD MSTORE PUSH2 0x15C7 DUP2 PUSH2 0x158E JUMP JUMPDEST SWAP1 POP SWAP2 SWAP1 POP JUMP JUMPDEST PUSH32 0x42727568682063616E20796F75206E6F7420646F20746861743F000000000000 PUSH0 DUP3 ADD MSTORE POP JUMP JUMPDEST PUSH0 PUSH2 0x1602 PUSH1 0x1A DUP4 PUSH2 0xEAB JUMP JUMPDEST SWAP2 POP PUSH2 0x160D DUP3 PUSH2 0x15CE JUMP JUMPDEST PUSH1 0x20 DUP3 ADD SWAP1 POP SWAP2 SWAP1 POP JUMP JUMPDEST PUSH0 PUSH1 0x20 DUP3 ADD SWAP1 POP DUP2 DUP2 SUB PUSH0 DUP4 ADD MSTORE PUSH2 0x162F DUP2 PUSH2 0x15F6 JUMP JUMPDEST SWAP1 POP SWAP2 SWAP1 POP JUMP JUMPDEST PUSH0 DUP2 SWAP1 POP DUP2 PUSH0 MSTORE PUSH1 0x20 PUSH0 KECCAK256 SWAP1 POP SWAP2 SWAP1 POP JUMP JUMPDEST PUSH0 PUSH1 0x20 PUSH1 0x1F DUP4 ADD DIV SWAP1 POP SWAP2 SWAP1 POP JUMP JUMPDEST PUSH0 DUP3 DUP3 SHL SWAP1 POP SWAP3 SWAP2 POP POP JUMP JUMPDEST PUSH0 PUSH1 0x8 DUP4 MUL PUSH2 0x1692 PUSH32 0xFFFFFFFFFFFFFFFFFFFFFFFFFFFFFFFFFFFFFFFFFFFFFFFFFFFFFFFFFFFFFFFF DUP3 PUSH2 0x1657 JUMP JUMPDEST PUSH2 0x169C DUP7 DUP4 PUSH2 0x1657 JUMP JUMPDEST SWAP6 POP DUP1 NOT DUP5 AND SWAP4 POP DUP1 DUP7 AND DUP5 OR SWAP3 POP POP POP SWAP4 SWAP3 POP POP POP JUMP JUMPDEST PUSH0 DUP2 SWAP1 POP SWAP2 SWAP1 POP JUMP JUMPDEST PUSH0 PUSH2 0x16D7 PUSH2 0x16D2 PUSH2 0x16CD DUP5 PUSH2 0xE04 JUMP JUMPDEST PUSH2 0x16B4 JUMP JUMPDEST PUSH2 0xE04 JUMP JUMPDEST SWAP1 POP SWAP2 SWAP1 POP JUMP JUMPDEST PUSH0 DUP2 SWAP1 POP SWAP2 SWAP1 POP JUMP JUMPDEST PUSH2 0x16F0 DUP4 PUSH2 0x16BD JUMP JUMPDEST PUSH2 0x1704 PUSH2 0x16FC DUP3 PUSH2 0x16DE JUMP JUMPDEST DUP5 DUP5 SLOAD PUSH2 0x1663 JUMP JUMPDEST DUP3 SSTORE POP POP POP POP JUMP JUMPDEST PUSH0 SWAP1 JUMP JUMPDEST PUSH2 0x1718 PUSH2 0x170C JUMP JUMPDEST PUSH2 0x1723 DUP2 DUP5 DUP5 PUSH2 0x16E7 JUMP JUMPDEST POP POP POP JUMP JUMPDEST JUMPDEST DUP2 DUP2 LT ISZERO PUSH2 0x1746 JUMPI PUSH2 0x173B PUSH0 DUP3 PUSH2 0x1710 JUMP JUMPDEST PUSH1 0x1 DUP2 ADD SWAP1 POP PUSH2 0x1729 JUMP JUMPDEST POP POP JUMP JUMPDEST PUSH1 0x1F DUP3 GT ISZERO PUSH2 0x178B JUMPI PUSH2 0x175C DUP2 PUSH2 0x1636 JUMP JUMPDEST PUSH2 0x1765 DUP5 PUSH2 0x1648 JUMP JUMPDEST DUP2 ADD PUSH1 0x20 DUP6 LT ISZERO PUSH2 0x1774 JUMPI DUP2 SWAP1 POP JUMPDEST PUSH2 0x1788 PUSH2 0x1780 DUP6 PUSH2 0x1648 JUMP JUMPDEST DUP4 ADD DUP3 PUSH2 0x1728 JUMP JUMPDEST POP POP JUMPDEST POP POP POP JUMP JUMPDEST PUSH0 DUP3 DUP3 SHR SWAP1 POP SWAP3 SWAP2 POP POP JUMP JUMPDEST PUSH0 PUSH2 0x17AB PUSH0 NOT DUP5 PUSH1 0x8 MUL PUSH2 0x1790 JUMP JUMPDEST NOT DUP1 DUP4 AND SWAP2 POP POP SWAP3 SWAP2 POP POP JUMP JUMPDEST PUSH0 PUSH2 0x17C3 DUP4 DUP4 PUSH2 0x179C JUMP JUMPDEST SWAP2 POP DUP3 PUSH1 0x2 MUL DUP3 OR SWAP1 POP SWAP3 SWAP2 POP POP JUMP JUMPDEST PUSH2 0x17DC DUP3 PUSH2 0xEA1 JUMP JUMPDEST PUSH8 0xFFFFFFFFFFFFFFFF DUP2 GT ISZERO PUSH2 0x17F5 JUMPI PUSH2 0x17F4 PUSH2 0x11C9 JUMP JUMPDEST JUMPDEST PUSH2 0x17FF DUP3 SLOAD PUSH2 0x1416 JUMP JUMPDEST PUSH2 0x180A DUP3 DUP3 DUP6 PUSH2 0x174A JUMP JUMPDEST PUSH0 PUSH1 0x20 SWAP1 POP PUSH1 0x1F DUP4 GT PUSH1 0x1 DUP2 EQ PUSH2 0x183B JUMPI PUSH0 DUP5 ISZERO PUSH2 0x1829 JUMPI DUP3 DUP8 ADD MLOAD SWAP1 POP JUMPDEST PUSH2 0x1833 DUP6 DUP3 PUSH2 0x17B8 JUMP JUMPDEST DUP7 SSTORE POP PUSH2 0x189A JUMP JUMPDEST PUSH1 0x1F NOT DUP5 AND PUSH2 0x1849 DUP7 PUSH2 0x1636 JUMP JUMPDEST PUSH0 JUMPDEST DUP3 DUP2 LT ISZERO PUSH2 0x1870 JUMPI DUP5 DUP10 ADD MLOAD DUP3 SSTORE PUSH1 0x1 DUP3 ADD SWAP2 POP PUSH1 0x20 DUP6 ADD SWAP5 POP PUSH1 0x20 DUP2 ADD SWAP1 POP PUSH2 0x184B JUMP JUMPDEST DUP7 DUP4 LT ISZERO PUSH2 0x188D JUMPI DUP5 DUP10 ADD MLOAD PUSH2 0x1889 PUSH1 0x1F DUP10 AND DUP3 PUSH2 0x179C JUMP JUMPDEST DUP4 SSTORE POP JUMPDEST PUSH1 0x1 PUSH1 0x2 DUP9 MUL ADD DUP9 SSTORE POP POP POP JUMPDEST POP POP POP POP POP POP JUMP JUMPDEST PUSH32 0x546869732063616D706169676E20686173206265656E20616C72656164792063 PUSH0 DUP3 ADD MSTORE PUSH32 0x6C6F736564000000000000000000000000000000000000000000000000000000 PUSH1 0x20 DUP3 ADD MSTORE POP JUMP JUMPDEST PUSH0 PUSH2 0x18FC PUSH1 0x25 DUP4 PUSH2 0xEAB JUMP JUMPDEST SWAP2 POP PUSH2 0x1907 DUP3 PUSH2 0x18A2 JUMP JUMPDEST PUSH1 0x40 DUP3 ADD SWAP1 POP SWAP2 SWAP1 POP JUMP JUMPDEST PUSH0 PUSH1 0x20 DUP3 ADD SWAP1 POP DUP2 DUP2 SUB PUSH0 DUP4 ADD MSTORE PUSH2 0x1929 DUP2 PUSH2 0x18F0 JUMP JUMPDEST SWAP1 POP SWAP2 SWAP1 POP JUMP INVALID LOG2 PUSH5 0x6970667358 0x22 SLT KECCAK256 PUSH9 0xB7042D4BDB9DE3734E 0xE7 CALLCODE RETURNDATACOPY PUSH21 0xEF918D33BCBF7A19AE290028C72A90DD423D64736F PUSH13 0x634300081A0033000000000000 "
				},
				"gasEstimates": {
					"creation": {
						"codeDepositCost": "1300400",
						"executionCost": "1354",
						"totalCost": "1301754"
					},
					"external": {
						"campaignList(uint256)": "infinite",
						"closeCampaign(string)": "infinite",
						"createCampaign(address,string,uint256,uint256)": "infinite",
						"getAllCampaigns()": "infinite",
						"getCampaigns(string)": "infinite",
						"titleToCampaign(string)": "infinite"
					}
				},
				"methodIdentifiers": {
					"campaignList(uint256)": "4912c658",
					"closeCampaign(string)": "d02ed851",
					"createCampaign(address,string,uint256,uint256)": "90f9f50c",
					"getAllCampaigns()": "86cdf604",
					"getCampaigns(string)": "9fb9f379",
					"titleToCampaign(string)": "c50a40d0"
				}
			},
			"storageLayout": {
				"storage": [
					{
						"astId": 20,
						"contract": "CrowdFundingApp/Factory.sol:Factory",
						"label": "campaignList",
						"offset": 0,
						"slot": "0",
						"type": "t_array(t_struct(Campaign)16_storage)dyn_storage"
					},
					{
						"astId": 25,
						"contract": "CrowdFundingApp/Factory.sol:Factory",
						"label": "titleToCampaign",
						"offset": 0,
						"slot": "1",
						"type": "t_mapping(t_string_memory_ptr,t_struct(Campaign)16_storage)"
					}
				],
				"types": {
					"t_address_payable": {
						"encoding": "inplace",
						"label": "address payable",
						"numberOfBytes": "20"
					},
					"t_array(t_struct(Campaign)16_storage)dyn_storage": {
						"base": "t_struct(Campaign)16_storage",
						"encoding": "dynamic_array",
						"label": "struct Factory.Campaign[]",
						"numberOfBytes": "32"
					},
					"t_bool": {
						"encoding": "inplace",
						"label": "bool",
						"numberOfBytes": "1"
					},
					"t_mapping(t_string_memory_ptr,t_struct(Campaign)16_storage)": {
						"encoding": "mapping",
						"key": "t_string_memory_ptr",
						"label": "mapping(string => struct Factory.Campaign)",
						"numberOfBytes": "32",
						"value": "t_struct(Campaign)16_storage"
					},
					"t_string_memory_ptr": {
						"encoding": "bytes",
						"label": "string",
						"numberOfBytes": "32"
					},
					"t_string_storage": {
						"encoding": "bytes",
						"label": "string",
						"numberOfBytes": "32"
					},
					"t_struct(Campaign)16_storage": {
						"encoding": "inplace",
						"label": "struct Factory.Campaign",
						"members": [
							{
								"astId": 3,
								"contract": "CrowdFundingApp/Factory.sol:Factory",
								"label": "campaignOwner",
								"offset": 0,
								"slot": "0",
								"type": "t_address_payable"
							},
							{
								"astId": 5,
								"contract": "CrowdFundingApp/Factory.sol:Factory",
								"label": "beneficiary",
								"offset": 0,
								"slot": "1",
								"type": "t_address_payable"
							},
							{
								"astId": 7,
								"contract": "CrowdFundingApp/Factory.sol:Factory",
								"label": "title",
								"offset": 0,
								"slot": "2",
								"type": "t_string_storage"
							},
							{
								"astId": 9,
								"contract": "CrowdFundingApp/Factory.sol:Factory",
								"label": "deadline",
								"offset": 0,
								"slot": "3",
								"type": "t_uint256"
							},
							{
								"astId": 11,
								"contract": "CrowdFundingApp/Factory.sol:Factory",
								"label": "amountToRaise",
								"offset": 0,
								"slot": "4",
								"type": "t_uint256"
							},
							{
								"astId": 13,
								"contract": "CrowdFundingApp/Factory.sol:Factory",
								"label": "raisedAmount",
								"offset": 0,
								"slot": "5",
								"type": "t_uint256"
							},
							{
								"astId": 15,
								"contract": "CrowdFundingApp/Factory.sol:Factory",
								"label": "closed",
								"offset": 0,
								"slot": "6",
								"type": "t_bool"
							}
						],
						"numberOfBytes": "224"
					},
					"t_uint256": {
						"encoding": "inplace",
						"label": "uint256",
						"numberOfBytes": "32"
					}
				}
			},
			"userdoc": {
				"kind": "user",
				"methods": {},
				"version": 1
			}
		}
	}
}