{
	"CrowdFundingApp/Factory.sol": {
		"Factory": {
			"abi": [
				{
					"inputs": [
						{
							"internalType": "uint256",
							"name": "",
							"type": "uint256"
						}
					],
					"name": "campaignList",
					"outputs": [
						{
							"internalType": "address payable",
							"name": "campaignOwner",
							"type": "address"
						},
						{
							"internalType": "address payable",
							"name": "beneficiary",
							"type": "address"
						},
						{
							"internalType": "string",
							"name": "title",
							"type": "string"
						},
						{
							"internalType": "uint256",
							"name": "deadline",
							"type": "uint256"
						},
						{
							"internalType": "uint256",
							"name": "amountToRaise",
							"type": "uint256"
						},
						{
							"internalType": "uint256",
							"name": "raisedAmount",
							"type": "uint256"
						},
						{
							"internalType": "bool",
							"name": "closed",
							"type": "bool"
						}
					],
					"stateMutability": "view",
					"type": "function"
				},
				{
					"inputs": [
						{
							"internalType": "address payable",
							"name": "beneficiary",
							"type": "address"
						},
						{
							"internalType": "string",
							"name": "title",
							"type": "string"
						},
						{
							"internalType": "uint256",
							"name": "deadline",
							"type": "uint256"
						},
						{
							"internalType": "uint256",
							"name": "amountToRaise",
							"type": "uint256"
						}
					],
					"name": "createCampaign",
					"outputs": [],
					"stateMutability": "nonpayable",
					"type": "function"
				},
				{
					"inputs": [],
					"name": "getAllCampaigns",
					"outputs": [
						{
							"internalType": "string[]",
							"name": "",
							"type": "string[]"
						}
					],
					"stateMutability": "view",
					"type": "function"
				},
				{
					"inputs": [
						{
							"internalType": "string",
							"name": "title",
							"type": "string"
						}
					],
					"name": "getCampaigns",
					"outputs": [
						{
							"internalType": "address payable",
							"name": "beneficiary",
							"type": "address"
						},
						{
							"internalType": "uint256",
							"name": "raisedAmount",
							"type": "uint256"
						},
						{
							"internalType": "uint256",
							"name": "deadline",
							"type": "uint256"
						}
					],
					"stateMutability": "view",
					"type": "function"
				},
				{
					"inputs": [
						{
							"internalType": "string",
							"name": "",
							"type": "string"
						}
					],
					"name": "titleToCampaign",
					"outputs": [
						{
							"internalType": "address payable",
							"name": "campaignOwner",
							"type": "address"
						},
						{
							"internalType": "address payable",
							"name": "beneficiary",
							"type": "address"
						},
						{
							"internalType": "string",
							"name": "title",
							"type": "string"
						},
						{
							"internalType": "uint256",
							"name": "deadline",
							"type": "uint256"
						},
						{
							"internalType": "uint256",
							"name": "amountToRaise",
							"type": "uint256"
						},
						{
							"internalType": "uint256",
							"name": "raisedAmount",
							"type": "uint256"
						},
						{
							"internalType": "bool",
							"name": "closed",
							"type": "bool"
						}
					],
					"stateMutability": "view",
					"type": "function"
				}
			],
			"devdoc": {
				"kind": "dev",
				"methods": {},
				"version": 1
			},
			"evm": {
				"assembly": "    /* \"CrowdFundingApp/Factory.sol\":57:2506  contract Factory{... */\n  mstore(0x40, 0x80)\n  callvalue\n  dup1\n  iszero\n  tag_1\n  jumpi\n  0x00\n  dup1\n  revert\ntag_1:\n  pop\n  dataSize(sub_0)\n  dup1\n  dataOffset(sub_0)\n  0x00\n  codecopy\n  0x00\n  return\nstop\n\nsub_0: assembly {\n        /* \"CrowdFundingApp/Factory.sol\":57:2506  contract Factory{... */\n      mstore(0x40, 0x80)\n      callvalue\n      dup1\n      iszero\n      tag_1\n      jumpi\n      0x00\n      dup1\n      revert\n    tag_1:\n      pop\n      jumpi(tag_2, lt(calldatasize, 0x04))\n      shr(0xe0, calldataload(0x00))\n      dup1\n      0x4912c658\n      eq\n      tag_3\n      jumpi\n      dup1\n      0x86cdf604\n      eq\n      tag_4\n      jumpi\n      dup1\n      0x90f9f50c\n      eq\n      tag_5\n      jumpi\n      dup1\n      0x9fb9f379\n      eq\n      tag_6\n      jumpi\n      dup1\n      0xc50a40d0\n      eq\n      tag_7\n      jumpi\n    tag_2:\n      0x00\n      dup1\n      revert\n        /* \"CrowdFundingApp/Factory.sol\":299:329  Campaign[] public campaignList */\n    tag_3:\n      tag_8\n      0x04\n      dup1\n      calldatasize\n      sub\n      dup2\n      add\n      swap1\n      tag_9\n      swap2\n      swap1\n      tag_10\n      jump\t// in\n    tag_9:\n      tag_11\n      jump\t// in\n    tag_8:\n      mload(0x40)\n      tag_12\n      swap8\n      swap7\n      swap6\n      swap5\n      swap4\n      swap3\n      swap2\n      swap1\n      tag_13\n      jump\t// in\n    tag_12:\n      mload(0x40)\n      dup1\n      swap2\n      sub\n      swap1\n      return\n        /* \"CrowdFundingApp/Factory.sol\":2239:2502  function getAllCampaigns() public view returns (string[] memory) {... */\n    tag_4:\n      tag_14\n      tag_15\n      jump\t// in\n    tag_14:\n      mload(0x40)\n      tag_16\n      swap2\n      swap1\n      tag_17\n      jump\t// in\n    tag_16:\n      mload(0x40)\n      dup1\n      swap2\n      sub\n      swap1\n      return\n        /* \"CrowdFundingApp/Factory.sol\":423:1939  function createCampaign(... */\n    tag_5:\n      tag_18\n      0x04\n      dup1\n      calldatasize\n      sub\n      dup2\n      add\n      swap1\n      tag_19\n      swap2\n      swap1\n      tag_20\n      jump\t// in\n    tag_19:\n      tag_21\n      jump\t// in\n    tag_18:\n      stop\n        /* \"CrowdFundingApp/Factory.sol\":1943:2236  function getCampaigns(string memory title) public view returns(... */\n    tag_6:\n      tag_22\n      0x04\n      dup1\n      calldatasize\n      sub\n      dup2\n      add\n      swap1\n      tag_23\n      swap2\n      swap1\n      tag_24\n      jump\t// in\n    tag_23:\n      tag_25\n      jump\t// in\n    tag_22:\n      mload(0x40)\n      tag_26\n      swap4\n      swap3\n      swap2\n      swap1\n      tag_27\n      jump\t// in\n    tag_26:\n      mload(0x40)\n      dup1\n      swap2\n      sub\n      swap1\n      return\n        /* \"CrowdFundingApp/Factory.sol\":331:382  mapping (string => Campaign) public titleToCampaign */\n    tag_7:\n      tag_28\n      0x04\n      dup1\n      calldatasize\n      sub\n      dup2\n      add\n      swap1\n      tag_29\n      swap2\n      swap1\n      tag_24\n      jump\t// in\n    tag_29:\n      tag_30\n      jump\t// in\n    tag_28:\n      mload(0x40)\n      tag_31\n      swap8\n      swap7\n      swap6\n      swap5\n      swap4\n      swap3\n      swap2\n      swap1\n      tag_13\n      jump\t// in\n    tag_31:\n      mload(0x40)\n      dup1\n      swap2\n      sub\n      swap1\n      return\n        /* \"CrowdFundingApp/Factory.sol\":299:329  Campaign[] public campaignList */\n    tag_11:\n      0x00\n      dup2\n      dup2\n      sload\n      dup2\n      lt\n      tag_32\n      jumpi\n      0x00\n      dup1\n      revert\n    tag_32:\n      swap1\n      0x00\n      mstore\n      keccak256(0x00, 0x20)\n      swap1\n      0x07\n      mul\n      add\n      0x00\n      swap2\n      pop\n      swap1\n      pop\n      dup1\n      0x00\n      add\n      0x00\n      swap1\n      sload\n      swap1\n      0x0100\n      exp\n      swap1\n      div\n      0xffffffffffffffffffffffffffffffffffffffff\n      and\n      swap1\n      dup1\n      0x01\n      add\n      0x00\n      swap1\n      sload\n      swap1\n      0x0100\n      exp\n      swap1\n      div\n      0xffffffffffffffffffffffffffffffffffffffff\n      and\n      swap1\n      dup1\n      0x02\n      add\n      dup1\n      sload\n      tag_34\n      swap1\n      tag_35\n      jump\t// in\n    tag_34:\n      dup1\n      0x1f\n      add\n      0x20\n      dup1\n      swap2\n      div\n      mul\n      0x20\n      add\n      mload(0x40)\n      swap1\n      dup2\n      add\n      0x40\n      mstore\n      dup1\n      swap3\n      swap2\n      swap1\n      dup2\n      dup2\n      mstore\n      0x20\n      add\n      dup3\n      dup1\n      sload\n      tag_36\n      swap1\n      tag_35\n      jump\t// in\n    tag_36:\n      dup1\n      iszero\n      tag_37\n      jumpi\n      dup1\n      0x1f\n      lt\n      tag_38\n      jumpi\n      0x0100\n      dup1\n      dup4\n      sload\n      div\n      mul\n      dup4\n      mstore\n      swap2\n      0x20\n      add\n      swap2\n      jump(tag_37)\n    tag_38:\n      dup3\n      add\n      swap2\n      swap1\n      0x00\n      mstore\n      keccak256(0x00, 0x20)\n      swap1\n    tag_39:\n      dup2\n      sload\n      dup2\n      mstore\n      swap1\n      0x01\n      add\n      swap1\n      0x20\n      add\n      dup1\n      dup4\n      gt\n      tag_39\n      jumpi\n      dup3\n      swap1\n      sub\n      0x1f\n      and\n      dup3\n      add\n      swap2\n    tag_37:\n      pop\n      pop\n      pop\n      pop\n      pop\n      swap1\n      dup1\n      0x03\n      add\n      sload\n      swap1\n      dup1\n      0x04\n      add\n      sload\n      swap1\n      dup1\n      0x05\n      add\n      sload\n      swap1\n      dup1\n      0x06\n      add\n      0x00\n      swap1\n      sload\n      swap1\n      0x0100\n      exp\n      swap1\n      div\n      0xff\n      and\n      swap1\n      pop\n      dup8\n      jump\t// out\n        /* \"CrowdFundingApp/Factory.sol\":2239:2502  function getAllCampaigns() public view returns (string[] memory) {... */\n    tag_15:\n        /* \"CrowdFundingApp/Factory.sol\":2287:2302  string[] memory */\n      0x60\n        /* \"CrowdFundingApp/Factory.sol\":2310:2332  string[] memory titles */\n      0x00\n        /* \"CrowdFundingApp/Factory.sol\":2348:2360  campaignList */\n      dup1\n        /* \"CrowdFundingApp/Factory.sol\":2348:2367  campaignList.length */\n      dup1\n      sload\n      swap1\n      pop\n        /* \"CrowdFundingApp/Factory.sol\":2335:2368  new string[](campaignList.length) */\n      0xffffffffffffffff\n      dup2\n      gt\n      iszero\n      tag_41\n      jumpi\n      tag_42\n      tag_43\n      jump\t// in\n    tag_42:\n    tag_41:\n      mload(0x40)\n      swap1\n      dup1\n      dup3\n      mstore\n      dup1\n      0x20\n      mul\n      0x20\n      add\n      dup3\n      add\n      0x40\n      mstore\n      dup1\n      iszero\n      tag_44\n      jumpi\n      dup2\n      0x20\n      add\n    tag_45:\n      0x60\n      dup2\n      mstore\n      0x20\n      add\n      swap1\n      0x01\n      swap1\n      sub\n      swap1\n      dup2\n      tag_45\n      jumpi\n      swap1\n      pop\n    tag_44:\n      pop\n        /* \"CrowdFundingApp/Factory.sol\":2310:2368  string[] memory titles = new string[](campaignList.length) */\n      swap1\n      pop\n        /* \"CrowdFundingApp/Factory.sol\":2384:2390  uint i */\n      0x00\n        /* \"CrowdFundingApp/Factory.sol\":2379:2476  for (uint i = 0; i < campaignList.length; i++) {... */\n    tag_46:\n        /* \"CrowdFundingApp/Factory.sol\":2400:2412  campaignList */\n      0x00\n        /* \"CrowdFundingApp/Factory.sol\":2400:2419  campaignList.length */\n      dup1\n      sload\n      swap1\n      pop\n        /* \"CrowdFundingApp/Factory.sol\":2396:2397  i */\n      dup2\n        /* \"CrowdFundingApp/Factory.sol\":2396:2419  i < campaignList.length */\n      lt\n        /* \"CrowdFundingApp/Factory.sol\":2379:2476  for (uint i = 0; i < campaignList.length; i++) {... */\n      iszero\n      tag_47\n      jumpi\n        /* \"CrowdFundingApp/Factory.sol\":2448:2460  campaignList */\n      0x00\n        /* \"CrowdFundingApp/Factory.sol\":2461:2462  i */\n      dup2\n        /* \"CrowdFundingApp/Factory.sol\":2448:2463  campaignList[i] */\n      dup2\n      sload\n      dup2\n      lt\n      tag_49\n      jumpi\n      tag_50\n      tag_51\n      jump\t// in\n    tag_50:\n    tag_49:\n      swap1\n      0x00\n      mstore\n      keccak256(0x00, 0x20)\n      swap1\n      0x07\n      mul\n      add\n        /* \"CrowdFundingApp/Factory.sol\":2448:2469  campaignList[i].title */\n      0x02\n      add\n        /* \"CrowdFundingApp/Factory.sol\":2436:2469  titles[i] = campaignList[i].title */\n      dup1\n      sload\n      tag_53\n      swap1\n      tag_35\n      jump\t// in\n    tag_53:\n      dup1\n      0x1f\n      add\n      0x20\n      dup1\n      swap2\n      div\n      mul\n      0x20\n      add\n      mload(0x40)\n      swap1\n      dup2\n      add\n      0x40\n      mstore\n      dup1\n      swap3\n      swap2\n      swap1\n      dup2\n      dup2\n      mstore\n      0x20\n      add\n      dup3\n      dup1\n      sload\n      tag_54\n      swap1\n      tag_35\n      jump\t// in\n    tag_54:\n      dup1\n      iszero\n      tag_55\n      jumpi\n      dup1\n      0x1f\n      lt\n      tag_56\n      jumpi\n      0x0100\n      dup1\n      dup4\n      sload\n      div\n      mul\n      dup4\n      mstore\n      swap2\n      0x20\n      add\n      swap2\n      jump(tag_55)\n    tag_56:\n      dup3\n      add\n      swap2\n      swap1\n      0x00\n      mstore\n      keccak256(0x00, 0x20)\n      swap1\n    tag_57:\n      dup2\n      sload\n      dup2\n      mstore\n      swap1\n      0x01\n      add\n      swap1\n      0x20\n      add\n      dup1\n      dup4\n      gt\n      tag_57\n      jumpi\n      dup3\n      swap1\n      sub\n      0x1f\n      and\n      dup3\n      add\n      swap2\n    tag_55:\n      pop\n      pop\n      pop\n      pop\n      pop\n        /* \"CrowdFundingApp/Factory.sol\":2436:2442  titles */\n      dup3\n        /* \"CrowdFundingApp/Factory.sol\":2443:2444  i */\n      dup3\n        /* \"CrowdFundingApp/Factory.sol\":2436:2445  titles[i] */\n      dup2\n      mload\n      dup2\n      lt\n      tag_58\n      jumpi\n      tag_59\n      tag_51\n      jump\t// in\n    tag_59:\n    tag_58:\n      0x20\n      mul\n      0x20\n      add\n      add\n        /* \"CrowdFundingApp/Factory.sol\":2436:2469  titles[i] = campaignList[i].title */\n      dup2\n      swap1\n      mstore\n      pop\n        /* \"CrowdFundingApp/Factory.sol\":2421:2424  i++ */\n      dup1\n      dup1\n      0x01\n      add\n      swap2\n      pop\n      pop\n        /* \"CrowdFundingApp/Factory.sol\":2379:2476  for (uint i = 0; i < campaignList.length; i++) {... */\n      jump(tag_46)\n    tag_47:\n      pop\n        /* \"CrowdFundingApp/Factory.sol\":2493:2499  titles */\n      dup1\n        /* \"CrowdFundingApp/Factory.sol\":2486:2499  return titles */\n      swap2\n      pop\n      pop\n        /* \"CrowdFundingApp/Factory.sol\":2239:2502  function getAllCampaigns() public view returns (string[] memory) {... */\n      swap1\n      jump\t// out\n        /* \"CrowdFundingApp/Factory.sol\":423:1939  function createCampaign(... */\n    tag_21:\n        /* \"CrowdFundingApp/Factory.sol\":682:683  0 */\n      0x00\n        /* \"CrowdFundingApp/Factory.sol\":642:657  titleToCampaign */\n      0x01\n        /* \"CrowdFundingApp/Factory.sol\":658:663  title */\n      dup5\n        /* \"CrowdFundingApp/Factory.sol\":642:664  titleToCampaign[title] */\n      mload(0x40)\n      tag_61\n      swap2\n      swap1\n      tag_62\n      jump\t// in\n    tag_61:\n      swap1\n      dup2\n      mstore\n      0x20\n      add\n      mload(0x40)\n      dup1\n      swap2\n      sub\n      swap1\n      keccak256\n        /* \"CrowdFundingApp/Factory.sol\":642:670  titleToCampaign[title].title */\n      0x02\n      add\n        /* \"CrowdFundingApp/Factory.sol\":636:678  bytes(titleToCampaign[title].title).length */\n      dup1\n      sload\n      tag_63\n      swap1\n      tag_35\n      jump\t// in\n    tag_63:\n      swap1\n      pop\n        /* \"CrowdFundingApp/Factory.sol\":636:683  bytes(titleToCampaign[title].title).length == 0 */\n      eq\n        /* \"CrowdFundingApp/Factory.sol\":628:718  require(bytes(titleToCampaign[title].title).length == 0, \"Guy you no fit create name nii\") */\n      tag_64\n      jumpi\n      mload(0x40)\n      0x08c379a000000000000000000000000000000000000000000000000000000000\n      dup2\n      mstore\n      0x04\n      add\n      tag_65\n      swap1\n      tag_66\n      jump\t// in\n    tag_65:\n      mload(0x40)\n      dup1\n      swap2\n      sub\n      swap1\n      revert\n    tag_64:\n        /* \"CrowdFundingApp/Factory.sol\":810:811  0 */\n      0x00\n        /* \"CrowdFundingApp/Factory.sol\":787:812  beneficiary != address(0) */\n      0xffffffffffffffffffffffffffffffffffffffff\n      and\n        /* \"CrowdFundingApp/Factory.sol\":787:798  beneficiary */\n      dup5\n        /* \"CrowdFundingApp/Factory.sol\":787:812  beneficiary != address(0) */\n      0xffffffffffffffffffffffffffffffffffffffff\n      and\n      sub\n        /* \"CrowdFundingApp/Factory.sol\":779:843  require(beneficiary != address(0), \"Which kind address be this\") */\n      tag_67\n      jumpi\n      mload(0x40)\n      0x08c379a000000000000000000000000000000000000000000000000000000000\n      dup2\n      mstore\n      0x04\n      add\n      tag_68\n      swap1\n      tag_69\n      jump\t// in\n    tag_68:\n      mload(0x40)\n      dup1\n      swap2\n      sub\n      swap1\n      revert\n    tag_67:\n        /* \"CrowdFundingApp/Factory.sol\":917:918  0 */\n      0x00\n        /* \"CrowdFundingApp/Factory.sol\":901:906  title */\n      dup4\n        /* \"CrowdFundingApp/Factory.sol\":895:914  bytes(title).length */\n      mload\n        /* \"CrowdFundingApp/Factory.sol\":895:918  bytes(title).length > 0 */\n      gt\n        /* \"CrowdFundingApp/Factory.sol\":887:948  require(bytes(title).length > 0, \"Your campaign no get name\") */\n      tag_70\n      jumpi\n      mload(0x40)\n      0x08c379a000000000000000000000000000000000000000000000000000000000\n      dup2\n      mstore\n      0x04\n      add\n      tag_71\n      swap1\n      tag_72\n      jump\t// in\n    tag_71:\n      mload(0x40)\n      dup1\n      swap2\n      sub\n      swap1\n      revert\n    tag_70:\n        /* \"CrowdFundingApp/Factory.sol\":1030:1031  0 */\n      0x00\n        /* \"CrowdFundingApp/Factory.sol\":1014:1027  amountToRaise */\n      dup2\n        /* \"CrowdFundingApp/Factory.sol\":1014:1031  amountToRaise > 0 */\n      gt\n        /* \"CrowdFundingApp/Factory.sol\":1006:1062  require(amountToRaise > 0, \"Bruhh can you not do that?\") */\n      tag_73\n      jumpi\n      mload(0x40)\n      0x08c379a000000000000000000000000000000000000000000000000000000000\n      dup2\n      mstore\n      0x04\n      add\n      tag_74\n      swap1\n      tag_75\n      jump\t// in\n    tag_74:\n      mload(0x40)\n      dup1\n      swap2\n      sub\n      swap1\n      revert\n    tag_73:\n        /* \"CrowdFundingApp/Factory.sol\":1575:1602  Campaign memory newCampaign */\n      0x00\n        /* \"CrowdFundingApp/Factory.sol\":1605:1864  Campaign({... */\n      mload(0x40)\n      dup1\n      0xe0\n      add\n      0x40\n      mstore\n      dup1\n        /* \"CrowdFundingApp/Factory.sol\":1647:1657  msg.sender */\n      caller\n        /* \"CrowdFundingApp/Factory.sol\":1605:1864  Campaign({... */\n      0xffffffffffffffffffffffffffffffffffffffff\n      and\n      dup2\n      mstore\n      0x20\n      add\n        /* \"CrowdFundingApp/Factory.sol\":1684:1695  beneficiary */\n      dup7\n        /* \"CrowdFundingApp/Factory.sol\":1605:1864  Campaign({... */\n      0xffffffffffffffffffffffffffffffffffffffff\n      and\n      dup2\n      mstore\n      0x20\n      add\n        /* \"CrowdFundingApp/Factory.sol\":1720:1725  title */\n      dup6\n        /* \"CrowdFundingApp/Factory.sol\":1605:1864  Campaign({... */\n      dup2\n      mstore\n      0x20\n      add\n        /* \"CrowdFundingApp/Factory.sol\":1749:1757  deadline */\n      dup5\n        /* \"CrowdFundingApp/Factory.sol\":1605:1864  Campaign({... */\n      dup2\n      mstore\n      0x20\n      add\n        /* \"CrowdFundingApp/Factory.sol\":1782:1795  amountToRaise */\n      dup4\n        /* \"CrowdFundingApp/Factory.sol\":1605:1864  Campaign({... */\n      dup2\n      mstore\n      0x20\n      add\n        /* \"CrowdFundingApp/Factory.sol\":1822:1823  0 */\n      0x00\n        /* \"CrowdFundingApp/Factory.sol\":1605:1864  Campaign({... */\n      dup2\n      mstore\n      0x20\n      add\n        /* \"CrowdFundingApp/Factory.sol\":1852:1857  false */\n      0x00\n        /* \"CrowdFundingApp/Factory.sol\":1605:1864  Campaign({... */\n      iszero\n      iszero\n      dup2\n      mstore\n      pop\n        /* \"CrowdFundingApp/Factory.sol\":1575:1864  Campaign memory newCampaign = Campaign({... */\n      swap1\n      pop\n        /* \"CrowdFundingApp/Factory.sol\":1892:1903  newCampaign */\n      dup1\n        /* \"CrowdFundingApp/Factory.sol\":1867:1882  titleToCampaign */\n      0x01\n        /* \"CrowdFundingApp/Factory.sol\":1883:1888  title */\n      dup6\n        /* \"CrowdFundingApp/Factory.sol\":1867:1889  titleToCampaign[title] */\n      mload(0x40)\n      tag_76\n      swap2\n      swap1\n      tag_62\n      jump\t// in\n    tag_76:\n      swap1\n      dup2\n      mstore\n      0x20\n      add\n      mload(0x40)\n      dup1\n      swap2\n      sub\n      swap1\n      keccak256\n        /* \"CrowdFundingApp/Factory.sol\":1867:1903  titleToCampaign[title] = newCampaign */\n      0x00\n      dup3\n      add\n      mload\n      dup2\n      0x00\n      add\n      exp(0x0100, 0x00)\n      dup2\n      sload\n      dup2\n      0xffffffffffffffffffffffffffffffffffffffff\n      mul\n      not\n      and\n      swap1\n      dup4\n      0xffffffffffffffffffffffffffffffffffffffff\n      and\n      mul\n      or\n      swap1\n      sstore\n      pop\n      0x20\n      dup3\n      add\n      mload\n      dup2\n      0x01\n      add\n      exp(0x0100, 0x00)\n      dup2\n      sload\n      dup2\n      0xffffffffffffffffffffffffffffffffffffffff\n      mul\n      not\n      and\n      swap1\n      dup4\n      0xffffffffffffffffffffffffffffffffffffffff\n      and\n      mul\n      or\n      swap1\n      sstore\n      pop\n      0x40\n      dup3\n      add\n      mload\n      dup2\n      0x02\n      add\n      swap1\n      dup2\n      tag_77\n      swap2\n      swap1\n      tag_78\n      jump\t// in\n    tag_77:\n      pop\n      0x60\n      dup3\n      add\n      mload\n      dup2\n      0x03\n      add\n      sstore\n      0x80\n      dup3\n      add\n      mload\n      dup2\n      0x04\n      add\n      sstore\n      0xa0\n      dup3\n      add\n      mload\n      dup2\n      0x05\n      add\n      sstore\n      0xc0\n      dup3\n      add\n      mload\n      dup2\n      0x06\n      add\n      exp(0x0100, 0x00)\n      dup2\n      sload\n      dup2\n      0xff\n      mul\n      not\n      and\n      swap1\n      dup4\n      iszero\n      iszero\n      mul\n      or\n      swap1\n      sstore\n      pop\n      swap1\n      pop\n      pop\n        /* \"CrowdFundingApp/Factory.sol\":1905:1917  campaignList */\n      0x00\n        /* \"CrowdFundingApp/Factory.sol\":1923:1934  newCampaign */\n      dup2\n        /* \"CrowdFundingApp/Factory.sol\":1905:1935  campaignList.push(newCampaign) */\n      swap1\n      dup1\n      0x01\n      dup2\n      sload\n      add\n      dup1\n      dup3\n      sstore\n      dup1\n      swap2\n      pop\n      pop\n      0x01\n      swap1\n      sub\n      swap1\n      0x00\n      mstore\n      keccak256(0x00, 0x20)\n      swap1\n      0x07\n      mul\n      add\n      0x00\n      swap1\n      swap2\n      swap1\n      swap2\n      swap1\n      swap2\n      pop\n      0x00\n      dup3\n      add\n      mload\n      dup2\n      0x00\n      add\n      exp(0x0100, 0x00)\n      dup2\n      sload\n      dup2\n      0xffffffffffffffffffffffffffffffffffffffff\n      mul\n      not\n      and\n      swap1\n      dup4\n      0xffffffffffffffffffffffffffffffffffffffff\n      and\n      mul\n      or\n      swap1\n      sstore\n      pop\n      0x20\n      dup3\n      add\n      mload\n      dup2\n      0x01\n      add\n      exp(0x0100, 0x00)\n      dup2\n      sload\n      dup2\n      0xffffffffffffffffffffffffffffffffffffffff\n      mul\n      not\n      and\n      swap1\n      dup4\n      0xffffffffffffffffffffffffffffffffffffffff\n      and\n      mul\n      or\n      swap1\n      sstore\n      pop\n      0x40\n      dup3\n      add\n      mload\n      dup2\n      0x02\n      add\n      swap1\n      dup2\n      tag_80\n      swap2\n      swap1\n      tag_78\n      jump\t// in\n    tag_80:\n      pop\n      0x60\n      dup3\n      add\n      mload\n      dup2\n      0x03\n      add\n      sstore\n      0x80\n      dup3\n      add\n      mload\n      dup2\n      0x04\n      add\n      sstore\n      0xa0\n      dup3\n      add\n      mload\n      dup2\n      0x05\n      add\n      sstore\n      0xc0\n      dup3\n      add\n      mload\n      dup2\n      0x06\n      add\n      exp(0x0100, 0x00)\n      dup2\n      sload\n      dup2\n      0xff\n      mul\n      not\n      and\n      swap1\n      dup4\n      iszero\n      iszero\n      mul\n      or\n      swap1\n      sstore\n      pop\n      pop\n      pop\n        /* \"CrowdFundingApp/Factory.sol\":559:1939  {... */\n      pop\n        /* \"CrowdFundingApp/Factory.sol\":423:1939  function createCampaign(... */\n      pop\n      pop\n      pop\n      pop\n      jump\t// out\n        /* \"CrowdFundingApp/Factory.sol\":1943:2236  function getCampaigns(string memory title) public view returns(... */\n    tag_25:\n        /* \"CrowdFundingApp/Factory.sol\":2011:2038  address payable beneficiary */\n      0x00\n        /* \"CrowdFundingApp/Factory.sol\":2044:2061  uint raisedAmount */\n      dup1\n        /* \"CrowdFundingApp/Factory.sol\":2067:2080  uint deadline */\n      0x00\n        /* \"CrowdFundingApp/Factory.sol\":2106:2121  titleToCampaign */\n      0x01\n        /* \"CrowdFundingApp/Factory.sol\":2122:2127  title */\n      dup5\n        /* \"CrowdFundingApp/Factory.sol\":2106:2128  titleToCampaign[title] */\n      mload(0x40)\n      tag_82\n      swap2\n      swap1\n      tag_62\n      jump\t// in\n    tag_82:\n      swap1\n      dup2\n      mstore\n      0x20\n      add\n      mload(0x40)\n      dup1\n      swap2\n      sub\n      swap1\n      keccak256\n        /* \"CrowdFundingApp/Factory.sol\":2106:2140  titleToCampaign[title].beneficiary */\n      0x01\n      add\n      0x00\n      swap1\n      sload\n      swap1\n      0x0100\n      exp\n      swap1\n      div\n      0xffffffffffffffffffffffffffffffffffffffff\n      and\n        /* \"CrowdFundingApp/Factory.sol\":2150:2165  titleToCampaign */\n      0x01\n        /* \"CrowdFundingApp/Factory.sol\":2166:2171  title */\n      dup6\n        /* \"CrowdFundingApp/Factory.sol\":2150:2172  titleToCampaign[title] */\n      mload(0x40)\n      tag_83\n      swap2\n      swap1\n      tag_62\n      jump\t// in\n    tag_83:\n      swap1\n      dup2\n      mstore\n      0x20\n      add\n      mload(0x40)\n      dup1\n      swap2\n      sub\n      swap1\n      keccak256\n        /* \"CrowdFundingApp/Factory.sol\":2150:2185  titleToCampaign[title].raisedAmount */\n      0x05\n      add\n      sload\n        /* \"CrowdFundingApp/Factory.sol\":2195:2210  titleToCampaign */\n      0x01\n        /* \"CrowdFundingApp/Factory.sol\":2211:2216  title */\n      dup7\n        /* \"CrowdFundingApp/Factory.sol\":2195:2217  titleToCampaign[title] */\n      mload(0x40)\n      tag_84\n      swap2\n      swap1\n      tag_62\n      jump\t// in\n    tag_84:\n      swap1\n      dup2\n      mstore\n      0x20\n      add\n      mload(0x40)\n      dup1\n      swap2\n      sub\n      swap1\n      keccak256\n        /* \"CrowdFundingApp/Factory.sol\":2195:2226  titleToCampaign[title].deadline */\n      0x03\n      add\n      sload\n        /* \"CrowdFundingApp/Factory.sol\":2089:2232  return (... */\n      swap3\n      pop\n      swap3\n      pop\n      swap3\n      pop\n        /* \"CrowdFundingApp/Factory.sol\":1943:2236  function getCampaigns(string memory title) public view returns(... */\n      swap2\n      swap4\n      swap1\n      swap3\n      pop\n      jump\t// out\n        /* \"CrowdFundingApp/Factory.sol\":331:382  mapping (string => Campaign) public titleToCampaign */\n    tag_30:\n      0x01\n      dup2\n      dup1\n      mload\n      0x20\n      dup2\n      add\n      dup3\n      add\n      dup1\n      mload\n      dup5\n      dup3\n      mstore\n      0x20\n      dup4\n      add\n      0x20\n      dup6\n      add\n      keccak256\n      dup2\n      dup4\n      mstore\n      dup1\n      swap6\n      pop\n      pop\n      pop\n      pop\n      pop\n      pop\n      0x00\n      swap2\n      pop\n      swap1\n      pop\n      dup1\n      0x00\n      add\n      0x00\n      swap1\n      sload\n      swap1\n      0x0100\n      exp\n      swap1\n      div\n      0xffffffffffffffffffffffffffffffffffffffff\n      and\n      swap1\n      dup1\n      0x01\n      add\n      0x00\n      swap1\n      sload\n      swap1\n      0x0100\n      exp\n      swap1\n      div\n      0xffffffffffffffffffffffffffffffffffffffff\n      and\n      swap1\n      dup1\n      0x02\n      add\n      dup1\n      sload\n      tag_85\n      swap1\n      tag_35\n      jump\t// in\n    tag_85:\n      dup1\n      0x1f\n      add\n      0x20\n      dup1\n      swap2\n      div\n      mul\n      0x20\n      add\n      mload(0x40)\n      swap1\n      dup2\n      add\n      0x40\n      mstore\n      dup1\n      swap3\n      swap2\n      swap1\n      dup2\n      dup2\n      mstore\n      0x20\n      add\n      dup3\n      dup1\n      sload\n      tag_86\n      swap1\n      tag_35\n      jump\t// in\n    tag_86:\n      dup1\n      iszero\n      tag_87\n      jumpi\n      dup1\n      0x1f\n      lt\n      tag_88\n      jumpi\n      0x0100\n      dup1\n      dup4\n      sload\n      div\n      mul\n      dup4\n      mstore\n      swap2\n      0x20\n      add\n      swap2\n      jump(tag_87)\n    tag_88:\n      dup3\n      add\n      swap2\n      swap1\n      0x00\n      mstore\n      keccak256(0x00, 0x20)\n      swap1\n    tag_89:\n      dup2\n      sload\n      dup2\n      mstore\n      swap1\n      0x01\n      add\n      swap1\n      0x20\n      add\n      dup1\n      dup4\n      gt\n      tag_89\n      jumpi\n      dup3\n      swap1\n      sub\n      0x1f\n      and\n      dup3\n      add\n      swap2\n    tag_87:\n      pop\n      pop\n      pop\n      pop\n      pop\n      swap1\n      dup1\n      0x03\n      add\n      sload\n      swap1\n      dup1\n      0x04\n      add\n      sload\n      swap1\n      dup1\n      0x05\n      add\n      sload\n      swap1\n      dup1\n      0x06\n      add\n      0x00\n      swap1\n      sload\n      swap1\n      0x0100\n      exp\n      swap1\n      div\n      0xff\n      and\n      swap1\n      pop\n      dup8\n      jump\t// out\n        /* \"#utility.yul\":7:82   */\n    tag_90:\n        /* \"#utility.yul\":40:46   */\n      0x00\n        /* \"#utility.yul\":73:75   */\n      0x40\n        /* \"#utility.yul\":67:76   */\n      mload\n        /* \"#utility.yul\":57:76   */\n      swap1\n      pop\n        /* \"#utility.yul\":7:82   */\n      swap1\n      jump\t// out\n        /* \"#utility.yul\":88:205   */\n    tag_91:\n        /* \"#utility.yul\":197:198   */\n      0x00\n        /* \"#utility.yul\":194:195   */\n      dup1\n        /* \"#utility.yul\":187:199   */\n      revert\n        /* \"#utility.yul\":211:328   */\n    tag_92:\n        /* \"#utility.yul\":320:321   */\n      0x00\n        /* \"#utility.yul\":317:318   */\n      dup1\n        /* \"#utility.yul\":310:322   */\n      revert\n        /* \"#utility.yul\":334:411   */\n    tag_93:\n        /* \"#utility.yul\":371:378   */\n      0x00\n        /* \"#utility.yul\":400:405   */\n      dup2\n        /* \"#utility.yul\":389:405   */\n      swap1\n      pop\n        /* \"#utility.yul\":334:411   */\n      swap2\n      swap1\n      pop\n      jump\t// out\n        /* \"#utility.yul\":417:539   */\n    tag_94:\n        /* \"#utility.yul\":490:514   */\n      tag_157\n        /* \"#utility.yul\":508:513   */\n      dup2\n        /* \"#utility.yul\":490:514   */\n      tag_93\n      jump\t// in\n    tag_157:\n        /* \"#utility.yul\":483:488   */\n      dup2\n        /* \"#utility.yul\":480:515   */\n      eq\n        /* \"#utility.yul\":470:533   */\n      tag_158\n      jumpi\n        /* \"#utility.yul\":529:530   */\n      0x00\n        /* \"#utility.yul\":526:527   */\n      dup1\n        /* \"#utility.yul\":519:531   */\n      revert\n        /* \"#utility.yul\":470:533   */\n    tag_158:\n        /* \"#utility.yul\":417:539   */\n      pop\n      jump\t// out\n        /* \"#utility.yul\":545:684   */\n    tag_95:\n        /* \"#utility.yul\":591:596   */\n      0x00\n        /* \"#utility.yul\":629:635   */\n      dup2\n        /* \"#utility.yul\":616:636   */\n      calldataload\n        /* \"#utility.yul\":607:636   */\n      swap1\n      pop\n        /* \"#utility.yul\":645:678   */\n      tag_160\n        /* \"#utility.yul\":672:677   */\n      dup2\n        /* \"#utility.yul\":645:678   */\n      tag_94\n      jump\t// in\n    tag_160:\n        /* \"#utility.yul\":545:684   */\n      swap3\n      swap2\n      pop\n      pop\n      jump\t// out\n        /* \"#utility.yul\":690:1019   */\n    tag_10:\n        /* \"#utility.yul\":749:755   */\n      0x00\n        /* \"#utility.yul\":798:800   */\n      0x20\n        /* \"#utility.yul\":786:795   */\n      dup3\n        /* \"#utility.yul\":777:784   */\n      dup5\n        /* \"#utility.yul\":773:796   */\n      sub\n        /* \"#utility.yul\":769:801   */\n      slt\n        /* \"#utility.yul\":766:885   */\n      iszero\n      tag_162\n      jumpi\n        /* \"#utility.yul\":804:883   */\n      tag_163\n      tag_91\n      jump\t// in\n    tag_163:\n        /* \"#utility.yul\":766:885   */\n    tag_162:\n        /* \"#utility.yul\":924:925   */\n      0x00\n        /* \"#utility.yul\":949:1002   */\n      tag_164\n        /* \"#utility.yul\":994:1001   */\n      dup5\n        /* \"#utility.yul\":985:991   */\n      dup3\n        /* \"#utility.yul\":974:983   */\n      dup6\n        /* \"#utility.yul\":970:992   */\n      add\n        /* \"#utility.yul\":949:1002   */\n      tag_95\n      jump\t// in\n    tag_164:\n        /* \"#utility.yul\":939:1002   */\n      swap2\n      pop\n        /* \"#utility.yul\":895:1012   */\n      pop\n        /* \"#utility.yul\":690:1019   */\n      swap3\n      swap2\n      pop\n      pop\n      jump\t// out\n        /* \"#utility.yul\":1025:1151   */\n    tag_96:\n        /* \"#utility.yul\":1062:1069   */\n      0x00\n        /* \"#utility.yul\":1102:1144   */\n      0xffffffffffffffffffffffffffffffffffffffff\n        /* \"#utility.yul\":1095:1100   */\n      dup3\n        /* \"#utility.yul\":1091:1145   */\n      and\n        /* \"#utility.yul\":1080:1145   */\n      swap1\n      pop\n        /* \"#utility.yul\":1025:1151   */\n      swap2\n      swap1\n      pop\n      jump\t// out\n        /* \"#utility.yul\":1157:1261   */\n    tag_97:\n        /* \"#utility.yul\":1202:1209   */\n      0x00\n        /* \"#utility.yul\":1231:1255   */\n      tag_167\n        /* \"#utility.yul\":1249:1254   */\n      dup3\n        /* \"#utility.yul\":1231:1255   */\n      tag_96\n      jump\t// in\n    tag_167:\n        /* \"#utility.yul\":1220:1255   */\n      swap1\n      pop\n        /* \"#utility.yul\":1157:1261   */\n      swap2\n      swap1\n      pop\n      jump\t// out\n        /* \"#utility.yul\":1267:1409   */\n    tag_98:\n        /* \"#utility.yul\":1370:1402   */\n      tag_169\n        /* \"#utility.yul\":1396:1401   */\n      dup2\n        /* \"#utility.yul\":1370:1402   */\n      tag_97\n      jump\t// in\n    tag_169:\n        /* \"#utility.yul\":1365:1368   */\n      dup3\n        /* \"#utility.yul\":1358:1403   */\n      mstore\n        /* \"#utility.yul\":1267:1409   */\n      pop\n      pop\n      jump\t// out\n        /* \"#utility.yul\":1415:1514   */\n    tag_99:\n        /* \"#utility.yul\":1467:1473   */\n      0x00\n        /* \"#utility.yul\":1501:1506   */\n      dup2\n        /* \"#utility.yul\":1495:1507   */\n      mload\n        /* \"#utility.yul\":1485:1507   */\n      swap1\n      pop\n        /* \"#utility.yul\":1415:1514   */\n      swap2\n      swap1\n      pop\n      jump\t// out\n        /* \"#utility.yul\":1520:1689   */\n    tag_100:\n        /* \"#utility.yul\":1604:1615   */\n      0x00\n        /* \"#utility.yul\":1638:1644   */\n      dup3\n        /* \"#utility.yul\":1633:1636   */\n      dup3\n        /* \"#utility.yul\":1626:1645   */\n      mstore\n        /* \"#utility.yul\":1678:1682   */\n      0x20\n        /* \"#utility.yul\":1673:1676   */\n      dup3\n        /* \"#utility.yul\":1669:1683   */\n      add\n        /* \"#utility.yul\":1654:1683   */\n      swap1\n      pop\n        /* \"#utility.yul\":1520:1689   */\n      swap3\n      swap2\n      pop\n      pop\n      jump\t// out\n        /* \"#utility.yul\":1695:1834   */\n    tag_101:\n        /* \"#utility.yul\":1784:1790   */\n      dup3\n        /* \"#utility.yul\":1779:1782   */\n      dup2\n        /* \"#utility.yul\":1774:1777   */\n      dup4\n        /* \"#utility.yul\":1768:1791   */\n      mcopy\n        /* \"#utility.yul\":1825:1826   */\n      0x00\n        /* \"#utility.yul\":1816:1822   */\n      dup4\n        /* \"#utility.yul\":1811:1814   */\n      dup4\n        /* \"#utility.yul\":1807:1823   */\n      add\n        /* \"#utility.yul\":1800:1827   */\n      mstore\n        /* \"#utility.yul\":1695:1834   */\n      pop\n      pop\n      pop\n      jump\t// out\n        /* \"#utility.yul\":1840:1942   */\n    tag_102:\n        /* \"#utility.yul\":1881:1887   */\n      0x00\n        /* \"#utility.yul\":1932:1934   */\n      0x1f\n        /* \"#utility.yul\":1928:1935   */\n      not\n        /* \"#utility.yul\":1923:1925   */\n      0x1f\n        /* \"#utility.yul\":1916:1921   */\n      dup4\n        /* \"#utility.yul\":1912:1926   */\n      add\n        /* \"#utility.yul\":1908:1936   */\n      and\n        /* \"#utility.yul\":1898:1936   */\n      swap1\n      pop\n        /* \"#utility.yul\":1840:1942   */\n      swap2\n      swap1\n      pop\n      jump\t// out\n        /* \"#utility.yul\":1948:2325   */\n    tag_103:\n        /* \"#utility.yul\":2036:2039   */\n      0x00\n        /* \"#utility.yul\":2064:2103   */\n      tag_175\n        /* \"#utility.yul\":2097:2102   */\n      dup3\n        /* \"#utility.yul\":2064:2103   */\n      tag_99\n      jump\t// in\n    tag_175:\n        /* \"#utility.yul\":2119:2190   */\n      tag_176\n        /* \"#utility.yul\":2183:2189   */\n      dup2\n        /* \"#utility.yul\":2178:2181   */\n      dup6\n        /* \"#utility.yul\":2119:2190   */\n      tag_100\n      jump\t// in\n    tag_176:\n        /* \"#utility.yul\":2112:2190   */\n      swap4\n      pop\n        /* \"#utility.yul\":2199:2264   */\n      tag_177\n        /* \"#utility.yul\":2257:2263   */\n      dup2\n        /* \"#utility.yul\":2252:2255   */\n      dup6\n        /* \"#utility.yul\":2245:2249   */\n      0x20\n        /* \"#utility.yul\":2238:2243   */\n      dup7\n        /* \"#utility.yul\":2234:2250   */\n      add\n        /* \"#utility.yul\":2199:2264   */\n      tag_101\n      jump\t// in\n    tag_177:\n        /* \"#utility.yul\":2289:2318   */\n      tag_178\n        /* \"#utility.yul\":2311:2317   */\n      dup2\n        /* \"#utility.yul\":2289:2318   */\n      tag_102\n      jump\t// in\n    tag_178:\n        /* \"#utility.yul\":2284:2287   */\n      dup5\n        /* \"#utility.yul\":2280:2319   */\n      add\n        /* \"#utility.yul\":2273:2319   */\n      swap2\n      pop\n        /* \"#utility.yul\":2040:2325   */\n      pop\n        /* \"#utility.yul\":1948:2325   */\n      swap3\n      swap2\n      pop\n      pop\n      jump\t// out\n        /* \"#utility.yul\":2331:2449   */\n    tag_104:\n        /* \"#utility.yul\":2418:2442   */\n      tag_180\n        /* \"#utility.yul\":2436:2441   */\n      dup2\n        /* \"#utility.yul\":2418:2442   */\n      tag_93\n      jump\t// in\n    tag_180:\n        /* \"#utility.yul\":2413:2416   */\n      dup3\n        /* \"#utility.yul\":2406:2443   */\n      mstore\n        /* \"#utility.yul\":2331:2449   */\n      pop\n      pop\n      jump\t// out\n        /* \"#utility.yul\":2455:2545   */\n    tag_105:\n        /* \"#utility.yul\":2489:2496   */\n      0x00\n        /* \"#utility.yul\":2532:2537   */\n      dup2\n        /* \"#utility.yul\":2525:2538   */\n      iszero\n        /* \"#utility.yul\":2518:2539   */\n      iszero\n        /* \"#utility.yul\":2507:2539   */\n      swap1\n      pop\n        /* \"#utility.yul\":2455:2545   */\n      swap2\n      swap1\n      pop\n      jump\t// out\n        /* \"#utility.yul\":2551:2660   */\n    tag_106:\n        /* \"#utility.yul\":2632:2653   */\n      tag_183\n        /* \"#utility.yul\":2647:2652   */\n      dup2\n        /* \"#utility.yul\":2632:2653   */\n      tag_105\n      jump\t// in\n    tag_183:\n        /* \"#utility.yul\":2627:2630   */\n      dup3\n        /* \"#utility.yul\":2620:2654   */\n      mstore\n        /* \"#utility.yul\":2551:2660   */\n      pop\n      pop\n      jump\t// out\n        /* \"#utility.yul\":2666:3695   */\n    tag_13:\n        /* \"#utility.yul\":2973:2977   */\n      0x00\n        /* \"#utility.yul\":3011:3014   */\n      0xe0\n        /* \"#utility.yul\":3000:3009   */\n      dup3\n        /* \"#utility.yul\":2996:3015   */\n      add\n        /* \"#utility.yul\":2988:3015   */\n      swap1\n      pop\n        /* \"#utility.yul\":3025:3112   */\n      tag_185\n        /* \"#utility.yul\":3109:3110   */\n      0x00\n        /* \"#utility.yul\":3098:3107   */\n      dup4\n        /* \"#utility.yul\":3094:3111   */\n      add\n        /* \"#utility.yul\":3085:3091   */\n      dup11\n        /* \"#utility.yul\":3025:3112   */\n      tag_98\n      jump\t// in\n    tag_185:\n        /* \"#utility.yul\":3122:3210   */\n      tag_186\n        /* \"#utility.yul\":3206:3208   */\n      0x20\n        /* \"#utility.yul\":3195:3204   */\n      dup4\n        /* \"#utility.yul\":3191:3209   */\n      add\n        /* \"#utility.yul\":3182:3188   */\n      dup10\n        /* \"#utility.yul\":3122:3210   */\n      tag_98\n      jump\t// in\n    tag_186:\n        /* \"#utility.yul\":3257:3266   */\n      dup2\n        /* \"#utility.yul\":3251:3255   */\n      dup2\n        /* \"#utility.yul\":3247:3267   */\n      sub\n        /* \"#utility.yul\":3242:3244   */\n      0x40\n        /* \"#utility.yul\":3231:3240   */\n      dup4\n        /* \"#utility.yul\":3227:3245   */\n      add\n        /* \"#utility.yul\":3220:3268   */\n      mstore\n        /* \"#utility.yul\":3285:3363   */\n      tag_187\n        /* \"#utility.yul\":3358:3362   */\n      dup2\n        /* \"#utility.yul\":3349:3355   */\n      dup9\n        /* \"#utility.yul\":3285:3363   */\n      tag_103\n      jump\t// in\n    tag_187:\n        /* \"#utility.yul\":3277:3363   */\n      swap1\n      pop\n        /* \"#utility.yul\":3373:3445   */\n      tag_188\n        /* \"#utility.yul\":3441:3443   */\n      0x60\n        /* \"#utility.yul\":3430:3439   */\n      dup4\n        /* \"#utility.yul\":3426:3444   */\n      add\n        /* \"#utility.yul\":3417:3423   */\n      dup8\n        /* \"#utility.yul\":3373:3445   */\n      tag_104\n      jump\t// in\n    tag_188:\n        /* \"#utility.yul\":3455:3528   */\n      tag_189\n        /* \"#utility.yul\":3523:3526   */\n      0x80\n        /* \"#utility.yul\":3512:3521   */\n      dup4\n        /* \"#utility.yul\":3508:3527   */\n      add\n        /* \"#utility.yul\":3499:3505   */\n      dup7\n        /* \"#utility.yul\":3455:3528   */\n      tag_104\n      jump\t// in\n    tag_189:\n        /* \"#utility.yul\":3538:3611   */\n      tag_190\n        /* \"#utility.yul\":3606:3609   */\n      0xa0\n        /* \"#utility.yul\":3595:3604   */\n      dup4\n        /* \"#utility.yul\":3591:3610   */\n      add\n        /* \"#utility.yul\":3582:3588   */\n      dup6\n        /* \"#utility.yul\":3538:3611   */\n      tag_104\n      jump\t// in\n    tag_190:\n        /* \"#utility.yul\":3621:3688   */\n      tag_191\n        /* \"#utility.yul\":3683:3686   */\n      0xc0\n        /* \"#utility.yul\":3672:3681   */\n      dup4\n        /* \"#utility.yul\":3668:3687   */\n      add\n        /* \"#utility.yul\":3659:3665   */\n      dup5\n        /* \"#utility.yul\":3621:3688   */\n      tag_106\n      jump\t// in\n    tag_191:\n        /* \"#utility.yul\":2666:3695   */\n      swap9\n      swap8\n      pop\n      pop\n      pop\n      pop\n      pop\n      pop\n      pop\n      pop\n      jump\t// out\n        /* \"#utility.yul\":3701:3825   */\n    tag_107:\n        /* \"#utility.yul\":3778:3784   */\n      0x00\n        /* \"#utility.yul\":3812:3817   */\n      dup2\n        /* \"#utility.yul\":3806:3818   */\n      mload\n        /* \"#utility.yul\":3796:3818   */\n      swap1\n      pop\n        /* \"#utility.yul\":3701:3825   */\n      swap2\n      swap1\n      pop\n      jump\t// out\n        /* \"#utility.yul\":3831:4025   */\n    tag_108:\n        /* \"#utility.yul\":3940:3951   */\n      0x00\n        /* \"#utility.yul\":3974:3980   */\n      dup3\n        /* \"#utility.yul\":3969:3972   */\n      dup3\n        /* \"#utility.yul\":3962:3981   */\n      mstore\n        /* \"#utility.yul\":4014:4018   */\n      0x20\n        /* \"#utility.yul\":4009:4012   */\n      dup3\n        /* \"#utility.yul\":4005:4019   */\n      add\n        /* \"#utility.yul\":3990:4019   */\n      swap1\n      pop\n        /* \"#utility.yul\":3831:4025   */\n      swap3\n      swap2\n      pop\n      pop\n      jump\t// out\n        /* \"#utility.yul\":4031:4173   */\n    tag_109:\n        /* \"#utility.yul\":4108:4112   */\n      0x00\n        /* \"#utility.yul\":4131:4134   */\n      dup2\n        /* \"#utility.yul\":4123:4134   */\n      swap1\n      pop\n        /* \"#utility.yul\":4161:4165   */\n      0x20\n        /* \"#utility.yul\":4156:4159   */\n      dup3\n        /* \"#utility.yul\":4152:4166   */\n      add\n        /* \"#utility.yul\":4144:4166   */\n      swap1\n      pop\n        /* \"#utility.yul\":4031:4173   */\n      swap2\n      swap1\n      pop\n      jump\t// out\n        /* \"#utility.yul\":4179:4338   */\n    tag_110:\n        /* \"#utility.yul\":4253:4264   */\n      0x00\n        /* \"#utility.yul\":4287:4293   */\n      dup3\n        /* \"#utility.yul\":4282:4285   */\n      dup3\n        /* \"#utility.yul\":4275:4294   */\n      mstore\n        /* \"#utility.yul\":4327:4331   */\n      0x20\n        /* \"#utility.yul\":4322:4325   */\n      dup3\n        /* \"#utility.yul\":4318:4332   */\n      add\n        /* \"#utility.yul\":4303:4332   */\n      swap1\n      pop\n        /* \"#utility.yul\":4179:4338   */\n      swap3\n      swap2\n      pop\n      pop\n      jump\t// out\n        /* \"#utility.yul\":4344:4701   */\n    tag_111:\n        /* \"#utility.yul\":4422:4425   */\n      0x00\n        /* \"#utility.yul\":4450:4489   */\n      tag_197\n        /* \"#utility.yul\":4483:4488   */\n      dup3\n        /* \"#utility.yul\":4450:4489   */\n      tag_99\n      jump\t// in\n    tag_197:\n        /* \"#utility.yul\":4505:4566   */\n      tag_198\n        /* \"#utility.yul\":4559:4565   */\n      dup2\n        /* \"#utility.yul\":4554:4557   */\n      dup6\n        /* \"#utility.yul\":4505:4566   */\n      tag_110\n      jump\t// in\n    tag_198:\n        /* \"#utility.yul\":4498:4566   */\n      swap4\n      pop\n        /* \"#utility.yul\":4575:4640   */\n      tag_199\n        /* \"#utility.yul\":4633:4639   */\n      dup2\n        /* \"#utility.yul\":4628:4631   */\n      dup6\n        /* \"#utility.yul\":4621:4625   */\n      0x20\n        /* \"#utility.yul\":4614:4619   */\n      dup7\n        /* \"#utility.yul\":4610:4626   */\n      add\n        /* \"#utility.yul\":4575:4640   */\n      tag_101\n      jump\t// in\n    tag_199:\n        /* \"#utility.yul\":4665:4694   */\n      tag_200\n        /* \"#utility.yul\":4687:4693   */\n      dup2\n        /* \"#utility.yul\":4665:4694   */\n      tag_102\n      jump\t// in\n    tag_200:\n        /* \"#utility.yul\":4660:4663   */\n      dup5\n        /* \"#utility.yul\":4656:4695   */\n      add\n        /* \"#utility.yul\":4649:4695   */\n      swap2\n      pop\n        /* \"#utility.yul\":4426:4701   */\n      pop\n        /* \"#utility.yul\":4344:4701   */\n      swap3\n      swap2\n      pop\n      pop\n      jump\t// out\n        /* \"#utility.yul\":4707:4903   */\n    tag_112:\n        /* \"#utility.yul\":4796:4806   */\n      0x00\n        /* \"#utility.yul\":4831:4897   */\n      tag_202\n        /* \"#utility.yul\":4893:4896   */\n      dup4\n        /* \"#utility.yul\":4885:4891   */\n      dup4\n        /* \"#utility.yul\":4831:4897   */\n      tag_111\n      jump\t// in\n    tag_202:\n        /* \"#utility.yul\":4817:4897   */\n      swap1\n      pop\n        /* \"#utility.yul\":4707:4903   */\n      swap3\n      swap2\n      pop\n      pop\n      jump\t// out\n        /* \"#utility.yul\":4909:5032   */\n    tag_113:\n        /* \"#utility.yul\":4989:4993   */\n      0x00\n        /* \"#utility.yul\":5021:5025   */\n      0x20\n        /* \"#utility.yul\":5016:5019   */\n      dup3\n        /* \"#utility.yul\":5012:5026   */\n      add\n        /* \"#utility.yul\":5004:5026   */\n      swap1\n      pop\n        /* \"#utility.yul\":4909:5032   */\n      swap2\n      swap1\n      pop\n      jump\t// out\n        /* \"#utility.yul\":5066:6057   */\n    tag_114:\n        /* \"#utility.yul\":5205:5208   */\n      0x00\n        /* \"#utility.yul\":5234:5298   */\n      tag_205\n        /* \"#utility.yul\":5292:5297   */\n      dup3\n        /* \"#utility.yul\":5234:5298   */\n      tag_107\n      jump\t// in\n    tag_205:\n        /* \"#utility.yul\":5314:5410   */\n      tag_206\n        /* \"#utility.yul\":5403:5409   */\n      dup2\n        /* \"#utility.yul\":5398:5401   */\n      dup6\n        /* \"#utility.yul\":5314:5410   */\n      tag_108\n      jump\t// in\n    tag_206:\n        /* \"#utility.yul\":5307:5410   */\n      swap4\n      pop\n        /* \"#utility.yul\":5436:5439   */\n      dup4\n        /* \"#utility.yul\":5481:5485   */\n      0x20\n        /* \"#utility.yul\":5473:5479   */\n      dup3\n        /* \"#utility.yul\":5469:5486   */\n      mul\n        /* \"#utility.yul\":5464:5467   */\n      dup6\n        /* \"#utility.yul\":5460:5487   */\n      add\n        /* \"#utility.yul\":5511:5577   */\n      tag_207\n        /* \"#utility.yul\":5571:5576   */\n      dup6\n        /* \"#utility.yul\":5511:5577   */\n      tag_109\n      jump\t// in\n    tag_207:\n        /* \"#utility.yul\":5600:5607   */\n      dup1\n        /* \"#utility.yul\":5631:5632   */\n      0x00\n        /* \"#utility.yul\":5616:6012   */\n    tag_208:\n        /* \"#utility.yul\":5641:5647   */\n      dup6\n        /* \"#utility.yul\":5638:5639   */\n      dup2\n        /* \"#utility.yul\":5635:5648   */\n      lt\n        /* \"#utility.yul\":5616:6012   */\n      iszero\n      tag_210\n      jumpi\n        /* \"#utility.yul\":5712:5721   */\n      dup5\n        /* \"#utility.yul\":5706:5710   */\n      dup5\n        /* \"#utility.yul\":5702:5722   */\n      sub\n        /* \"#utility.yul\":5697:5700   */\n      dup10\n        /* \"#utility.yul\":5690:5723   */\n      mstore\n        /* \"#utility.yul\":5763:5769   */\n      dup2\n        /* \"#utility.yul\":5757:5770   */\n      mload\n        /* \"#utility.yul\":5791:5875   */\n      tag_211\n        /* \"#utility.yul\":5870:5874   */\n      dup6\n        /* \"#utility.yul\":5855:5868   */\n      dup3\n        /* \"#utility.yul\":5791:5875   */\n      tag_112\n      jump\t// in\n    tag_211:\n        /* \"#utility.yul\":5783:5875   */\n      swap5\n      pop\n        /* \"#utility.yul\":5898:5968   */\n      tag_212\n        /* \"#utility.yul\":5961:5967   */\n      dup4\n        /* \"#utility.yul\":5898:5968   */\n      tag_113\n      jump\t// in\n    tag_212:\n        /* \"#utility.yul\":5888:5968   */\n      swap3\n      pop\n        /* \"#utility.yul\":5997:6001   */\n      0x20\n        /* \"#utility.yul\":5992:5995   */\n      dup11\n        /* \"#utility.yul\":5988:6002   */\n      add\n        /* \"#utility.yul\":5981:6002   */\n      swap10\n      pop\n        /* \"#utility.yul\":5676:6012   */\n      pop\n        /* \"#utility.yul\":5663:5664   */\n      0x01\n        /* \"#utility.yul\":5660:5661   */\n      dup2\n        /* \"#utility.yul\":5656:5665   */\n      add\n        /* \"#utility.yul\":5651:5665   */\n      swap1\n      pop\n        /* \"#utility.yul\":5616:6012   */\n      jump(tag_208)\n    tag_210:\n        /* \"#utility.yul\":5620:5634   */\n      pop\n        /* \"#utility.yul\":6028:6032   */\n      dup3\n        /* \"#utility.yul\":6021:6032   */\n      swap8\n      pop\n        /* \"#utility.yul\":6048:6051   */\n      dup8\n        /* \"#utility.yul\":6041:6051   */\n      swap6\n      pop\n        /* \"#utility.yul\":5210:6057   */\n      pop\n      pop\n      pop\n      pop\n      pop\n        /* \"#utility.yul\":5066:6057   */\n      swap3\n      swap2\n      pop\n      pop\n      jump\t// out\n        /* \"#utility.yul\":6063:6476   */\n    tag_17:\n        /* \"#utility.yul\":6226:6230   */\n      0x00\n        /* \"#utility.yul\":6264:6266   */\n      0x20\n        /* \"#utility.yul\":6253:6262   */\n      dup3\n        /* \"#utility.yul\":6249:6267   */\n      add\n        /* \"#utility.yul\":6241:6267   */\n      swap1\n      pop\n        /* \"#utility.yul\":6313:6322   */\n      dup2\n        /* \"#utility.yul\":6307:6311   */\n      dup2\n        /* \"#utility.yul\":6303:6323   */\n      sub\n        /* \"#utility.yul\":6299:6300   */\n      0x00\n        /* \"#utility.yul\":6288:6297   */\n      dup4\n        /* \"#utility.yul\":6284:6301   */\n      add\n        /* \"#utility.yul\":6277:6324   */\n      mstore\n        /* \"#utility.yul\":6341:6469   */\n      tag_214\n        /* \"#utility.yul\":6464:6468   */\n      dup2\n        /* \"#utility.yul\":6455:6461   */\n      dup5\n        /* \"#utility.yul\":6341:6469   */\n      tag_114\n      jump\t// in\n    tag_214:\n        /* \"#utility.yul\":6333:6469   */\n      swap1\n      pop\n        /* \"#utility.yul\":6063:6476   */\n      swap3\n      swap2\n      pop\n      pop\n      jump\t// out\n        /* \"#utility.yul\":6482:6620   */\n    tag_115:\n        /* \"#utility.yul\":6563:6595   */\n      tag_216\n        /* \"#utility.yul\":6589:6594   */\n      dup2\n        /* \"#utility.yul\":6563:6595   */\n      tag_97\n      jump\t// in\n    tag_216:\n        /* \"#utility.yul\":6556:6561   */\n      dup2\n        /* \"#utility.yul\":6553:6596   */\n      eq\n        /* \"#utility.yul\":6543:6614   */\n      tag_217\n      jumpi\n        /* \"#utility.yul\":6610:6611   */\n      0x00\n        /* \"#utility.yul\":6607:6608   */\n      dup1\n        /* \"#utility.yul\":6600:6612   */\n      revert\n        /* \"#utility.yul\":6543:6614   */\n    tag_217:\n        /* \"#utility.yul\":6482:6620   */\n      pop\n      jump\t// out\n        /* \"#utility.yul\":6626:6781   */\n    tag_116:\n        /* \"#utility.yul\":6680:6685   */\n      0x00\n        /* \"#utility.yul\":6718:6724   */\n      dup2\n        /* \"#utility.yul\":6705:6725   */\n      calldataload\n        /* \"#utility.yul\":6696:6725   */\n      swap1\n      pop\n        /* \"#utility.yul\":6734:6775   */\n      tag_219\n        /* \"#utility.yul\":6769:6774   */\n      dup2\n        /* \"#utility.yul\":6734:6775   */\n      tag_115\n      jump\t// in\n    tag_219:\n        /* \"#utility.yul\":6626:6781   */\n      swap3\n      swap2\n      pop\n      pop\n      jump\t// out\n        /* \"#utility.yul\":6787:6904   */\n    tag_117:\n        /* \"#utility.yul\":6896:6897   */\n      0x00\n        /* \"#utility.yul\":6893:6894   */\n      dup1\n        /* \"#utility.yul\":6886:6898   */\n      revert\n        /* \"#utility.yul\":6910:7027   */\n    tag_118:\n        /* \"#utility.yul\":7019:7020   */\n      0x00\n        /* \"#utility.yul\":7016:7017   */\n      dup1\n        /* \"#utility.yul\":7009:7021   */\n      revert\n        /* \"#utility.yul\":7033:7213   */\n    tag_43:\n        /* \"#utility.yul\":7081:7158   */\n      0x4e487b7100000000000000000000000000000000000000000000000000000000\n        /* \"#utility.yul\":7078:7079   */\n      0x00\n        /* \"#utility.yul\":7071:7159   */\n      mstore\n        /* \"#utility.yul\":7178:7182   */\n      0x41\n        /* \"#utility.yul\":7175:7176   */\n      0x04\n        /* \"#utility.yul\":7168:7183   */\n      mstore\n        /* \"#utility.yul\":7202:7206   */\n      0x24\n        /* \"#utility.yul\":7199:7200   */\n      0x00\n        /* \"#utility.yul\":7192:7207   */\n      revert\n        /* \"#utility.yul\":7219:7500   */\n    tag_119:\n        /* \"#utility.yul\":7302:7329   */\n      tag_224\n        /* \"#utility.yul\":7324:7328   */\n      dup3\n        /* \"#utility.yul\":7302:7329   */\n      tag_102\n      jump\t// in\n    tag_224:\n        /* \"#utility.yul\":7294:7300   */\n      dup2\n        /* \"#utility.yul\":7290:7330   */\n      add\n        /* \"#utility.yul\":7432:7438   */\n      dup2\n        /* \"#utility.yul\":7420:7430   */\n      dup2\n        /* \"#utility.yul\":7417:7439   */\n      lt\n        /* \"#utility.yul\":7396:7414   */\n      0xffffffffffffffff\n        /* \"#utility.yul\":7384:7394   */\n      dup3\n        /* \"#utility.yul\":7381:7415   */\n      gt\n        /* \"#utility.yul\":7378:7440   */\n      or\n        /* \"#utility.yul\":7375:7463   */\n      iszero\n      tag_225\n      jumpi\n        /* \"#utility.yul\":7443:7461   */\n      tag_226\n      tag_43\n      jump\t// in\n    tag_226:\n        /* \"#utility.yul\":7375:7463   */\n    tag_225:\n        /* \"#utility.yul\":7483:7493   */\n      dup1\n        /* \"#utility.yul\":7479:7481   */\n      0x40\n        /* \"#utility.yul\":7472:7494   */\n      mstore\n        /* \"#utility.yul\":7262:7500   */\n      pop\n        /* \"#utility.yul\":7219:7500   */\n      pop\n      pop\n      jump\t// out\n        /* \"#utility.yul\":7506:7635   */\n    tag_120:\n        /* \"#utility.yul\":7540:7546   */\n      0x00\n        /* \"#utility.yul\":7567:7587   */\n      tag_228\n      tag_90\n      jump\t// in\n    tag_228:\n        /* \"#utility.yul\":7557:7587   */\n      swap1\n      pop\n        /* \"#utility.yul\":7596:7629   */\n      tag_229\n        /* \"#utility.yul\":7624:7628   */\n      dup3\n        /* \"#utility.yul\":7616:7622   */\n      dup3\n        /* \"#utility.yul\":7596:7629   */\n      tag_119\n      jump\t// in\n    tag_229:\n        /* \"#utility.yul\":7506:7635   */\n      swap2\n      swap1\n      pop\n      jump\t// out\n        /* \"#utility.yul\":7641:7949   */\n    tag_121:\n        /* \"#utility.yul\":7703:7707   */\n      0x00\n        /* \"#utility.yul\":7793:7811   */\n      0xffffffffffffffff\n        /* \"#utility.yul\":7785:7791   */\n      dup3\n        /* \"#utility.yul\":7782:7812   */\n      gt\n        /* \"#utility.yul\":7779:7835   */\n      iszero\n      tag_231\n      jumpi\n        /* \"#utility.yul\":7815:7833   */\n      tag_232\n      tag_43\n      jump\t// in\n    tag_232:\n        /* \"#utility.yul\":7779:7835   */\n    tag_231:\n        /* \"#utility.yul\":7853:7882   */\n      tag_233\n        /* \"#utility.yul\":7875:7881   */\n      dup3\n        /* \"#utility.yul\":7853:7882   */\n      tag_102\n      jump\t// in\n    tag_233:\n        /* \"#utility.yul\":7845:7882   */\n      swap1\n      pop\n        /* \"#utility.yul\":7937:7941   */\n      0x20\n        /* \"#utility.yul\":7931:7935   */\n      dup2\n        /* \"#utility.yul\":7927:7942   */\n      add\n        /* \"#utility.yul\":7919:7942   */\n      swap1\n      pop\n        /* \"#utility.yul\":7641:7949   */\n      swap2\n      swap1\n      pop\n      jump\t// out\n        /* \"#utility.yul\":7955:8103   */\n    tag_122:\n        /* \"#utility.yul\":8053:8059   */\n      dup3\n        /* \"#utility.yul\":8048:8051   */\n      dup2\n        /* \"#utility.yul\":8043:8046   */\n      dup4\n        /* \"#utility.yul\":8030:8060   */\n      calldatacopy\n        /* \"#utility.yul\":8094:8095   */\n      0x00\n        /* \"#utility.yul\":8085:8091   */\n      dup4\n        /* \"#utility.yul\":8080:8083   */\n      dup4\n        /* \"#utility.yul\":8076:8092   */\n      add\n        /* \"#utility.yul\":8069:8096   */\n      mstore\n        /* \"#utility.yul\":7955:8103   */\n      pop\n      pop\n      pop\n      jump\t// out\n        /* \"#utility.yul\":8109:8534   */\n    tag_123:\n        /* \"#utility.yul\":8187:8192   */\n      0x00\n        /* \"#utility.yul\":8212:8278   */\n      tag_236\n        /* \"#utility.yul\":8228:8277   */\n      tag_237\n        /* \"#utility.yul\":8270:8276   */\n      dup5\n        /* \"#utility.yul\":8228:8277   */\n      tag_121\n      jump\t// in\n    tag_237:\n        /* \"#utility.yul\":8212:8278   */\n      tag_120\n      jump\t// in\n    tag_236:\n        /* \"#utility.yul\":8203:8278   */\n      swap1\n      pop\n        /* \"#utility.yul\":8301:8307   */\n      dup3\n        /* \"#utility.yul\":8294:8299   */\n      dup2\n        /* \"#utility.yul\":8287:8308   */\n      mstore\n        /* \"#utility.yul\":8339:8343   */\n      0x20\n        /* \"#utility.yul\":8332:8337   */\n      dup2\n        /* \"#utility.yul\":8328:8344   */\n      add\n        /* \"#utility.yul\":8377:8380   */\n      dup5\n        /* \"#utility.yul\":8368:8374   */\n      dup5\n        /* \"#utility.yul\":8363:8366   */\n      dup5\n        /* \"#utility.yul\":8359:8375   */\n      add\n        /* \"#utility.yul\":8356:8381   */\n      gt\n        /* \"#utility.yul\":8353:8465   */\n      iszero\n      tag_238\n      jumpi\n        /* \"#utility.yul\":8384:8463   */\n      tag_239\n      tag_118\n      jump\t// in\n    tag_239:\n        /* \"#utility.yul\":8353:8465   */\n    tag_238:\n        /* \"#utility.yul\":8474:8528   */\n      tag_240\n        /* \"#utility.yul\":8521:8527   */\n      dup5\n        /* \"#utility.yul\":8516:8519   */\n      dup3\n        /* \"#utility.yul\":8511:8514   */\n      dup6\n        /* \"#utility.yul\":8474:8528   */\n      tag_122\n      jump\t// in\n    tag_240:\n        /* \"#utility.yul\":8193:8534   */\n      pop\n        /* \"#utility.yul\":8109:8534   */\n      swap4\n      swap3\n      pop\n      pop\n      pop\n      jump\t// out\n        /* \"#utility.yul\":8554:8894   */\n    tag_124:\n        /* \"#utility.yul\":8610:8615   */\n      0x00\n        /* \"#utility.yul\":8659:8662   */\n      dup3\n        /* \"#utility.yul\":8652:8656   */\n      0x1f\n        /* \"#utility.yul\":8644:8650   */\n      dup4\n        /* \"#utility.yul\":8640:8657   */\n      add\n        /* \"#utility.yul\":8636:8663   */\n      slt\n        /* \"#utility.yul\":8626:8748   */\n      tag_242\n      jumpi\n        /* \"#utility.yul\":8667:8746   */\n      tag_243\n      tag_117\n      jump\t// in\n    tag_243:\n        /* \"#utility.yul\":8626:8748   */\n    tag_242:\n        /* \"#utility.yul\":8784:8790   */\n      dup2\n        /* \"#utility.yul\":8771:8791   */\n      calldataload\n        /* \"#utility.yul\":8809:8888   */\n      tag_244\n        /* \"#utility.yul\":8884:8887   */\n      dup5\n        /* \"#utility.yul\":8876:8882   */\n      dup3\n        /* \"#utility.yul\":8869:8873   */\n      0x20\n        /* \"#utility.yul\":8861:8867   */\n      dup7\n        /* \"#utility.yul\":8857:8874   */\n      add\n        /* \"#utility.yul\":8809:8888   */\n      tag_123\n      jump\t// in\n    tag_244:\n        /* \"#utility.yul\":8800:8888   */\n      swap2\n      pop\n        /* \"#utility.yul\":8616:8894   */\n      pop\n        /* \"#utility.yul\":8554:8894   */\n      swap3\n      swap2\n      pop\n      pop\n      jump\t// out\n        /* \"#utility.yul\":8900:9861   */\n    tag_20:\n        /* \"#utility.yul\":9004:9010   */\n      0x00\n        /* \"#utility.yul\":9012:9018   */\n      dup1\n        /* \"#utility.yul\":9020:9026   */\n      0x00\n        /* \"#utility.yul\":9028:9034   */\n      dup1\n        /* \"#utility.yul\":9077:9080   */\n      0x80\n        /* \"#utility.yul\":9065:9074   */\n      dup6\n        /* \"#utility.yul\":9056:9063   */\n      dup8\n        /* \"#utility.yul\":9052:9075   */\n      sub\n        /* \"#utility.yul\":9048:9081   */\n      slt\n        /* \"#utility.yul\":9045:9165   */\n      iszero\n      tag_246\n      jumpi\n        /* \"#utility.yul\":9084:9163   */\n      tag_247\n      tag_91\n      jump\t// in\n    tag_247:\n        /* \"#utility.yul\":9045:9165   */\n    tag_246:\n        /* \"#utility.yul\":9204:9205   */\n      0x00\n        /* \"#utility.yul\":9229:9290   */\n      tag_248\n        /* \"#utility.yul\":9282:9289   */\n      dup8\n        /* \"#utility.yul\":9273:9279   */\n      dup3\n        /* \"#utility.yul\":9262:9271   */\n      dup9\n        /* \"#utility.yul\":9258:9280   */\n      add\n        /* \"#utility.yul\":9229:9290   */\n      tag_116\n      jump\t// in\n    tag_248:\n        /* \"#utility.yul\":9219:9290   */\n      swap5\n      pop\n        /* \"#utility.yul\":9175:9300   */\n      pop\n        /* \"#utility.yul\":9367:9369   */\n      0x20\n        /* \"#utility.yul\":9356:9365   */\n      dup6\n        /* \"#utility.yul\":9352:9370   */\n      add\n        /* \"#utility.yul\":9339:9371   */\n      calldataload\n        /* \"#utility.yul\":9398:9416   */\n      0xffffffffffffffff\n        /* \"#utility.yul\":9390:9396   */\n      dup2\n        /* \"#utility.yul\":9387:9417   */\n      gt\n        /* \"#utility.yul\":9384:9501   */\n      iszero\n      tag_249\n      jumpi\n        /* \"#utility.yul\":9420:9499   */\n      tag_250\n      tag_92\n      jump\t// in\n    tag_250:\n        /* \"#utility.yul\":9384:9501   */\n    tag_249:\n        /* \"#utility.yul\":9525:9588   */\n      tag_251\n        /* \"#utility.yul\":9580:9587   */\n      dup8\n        /* \"#utility.yul\":9571:9577   */\n      dup3\n        /* \"#utility.yul\":9560:9569   */\n      dup9\n        /* \"#utility.yul\":9556:9578   */\n      add\n        /* \"#utility.yul\":9525:9588   */\n      tag_124\n      jump\t// in\n    tag_251:\n        /* \"#utility.yul\":9515:9588   */\n      swap4\n      pop\n        /* \"#utility.yul\":9310:9598   */\n      pop\n        /* \"#utility.yul\":9637:9639   */\n      0x40\n        /* \"#utility.yul\":9663:9716   */\n      tag_252\n        /* \"#utility.yul\":9708:9715   */\n      dup8\n        /* \"#utility.yul\":9699:9705   */\n      dup3\n        /* \"#utility.yul\":9688:9697   */\n      dup9\n        /* \"#utility.yul\":9684:9706   */\n      add\n        /* \"#utility.yul\":9663:9716   */\n      tag_95\n      jump\t// in\n    tag_252:\n        /* \"#utility.yul\":9653:9716   */\n      swap3\n      pop\n        /* \"#utility.yul\":9608:9726   */\n      pop\n        /* \"#utility.yul\":9765:9767   */\n      0x60\n        /* \"#utility.yul\":9791:9844   */\n      tag_253\n        /* \"#utility.yul\":9836:9843   */\n      dup8\n        /* \"#utility.yul\":9827:9833   */\n      dup3\n        /* \"#utility.yul\":9816:9825   */\n      dup9\n        /* \"#utility.yul\":9812:9834   */\n      add\n        /* \"#utility.yul\":9791:9844   */\n      tag_95\n      jump\t// in\n    tag_253:\n        /* \"#utility.yul\":9781:9844   */\n      swap2\n      pop\n        /* \"#utility.yul\":9736:9854   */\n      pop\n        /* \"#utility.yul\":8900:9861   */\n      swap3\n      swap6\n      swap2\n      swap5\n      pop\n      swap3\n      pop\n      jump\t// out\n        /* \"#utility.yul\":9867:10376   */\n    tag_24:\n        /* \"#utility.yul\":9936:9942   */\n      0x00\n        /* \"#utility.yul\":9985:9987   */\n      0x20\n        /* \"#utility.yul\":9973:9982   */\n      dup3\n        /* \"#utility.yul\":9964:9971   */\n      dup5\n        /* \"#utility.yul\":9960:9983   */\n      sub\n        /* \"#utility.yul\":9956:9988   */\n      slt\n        /* \"#utility.yul\":9953:10072   */\n      iszero\n      tag_255\n      jumpi\n        /* \"#utility.yul\":9991:10070   */\n      tag_256\n      tag_91\n      jump\t// in\n    tag_256:\n        /* \"#utility.yul\":9953:10072   */\n    tag_255:\n        /* \"#utility.yul\":10139:10140   */\n      0x00\n        /* \"#utility.yul\":10128:10137   */\n      dup3\n        /* \"#utility.yul\":10124:10141   */\n      add\n        /* \"#utility.yul\":10111:10142   */\n      calldataload\n        /* \"#utility.yul\":10169:10187   */\n      0xffffffffffffffff\n        /* \"#utility.yul\":10161:10167   */\n      dup2\n        /* \"#utility.yul\":10158:10188   */\n      gt\n        /* \"#utility.yul\":10155:10272   */\n      iszero\n      tag_257\n      jumpi\n        /* \"#utility.yul\":10191:10270   */\n      tag_258\n      tag_92\n      jump\t// in\n    tag_258:\n        /* \"#utility.yul\":10155:10272   */\n    tag_257:\n        /* \"#utility.yul\":10296:10359   */\n      tag_259\n        /* \"#utility.yul\":10351:10358   */\n      dup5\n        /* \"#utility.yul\":10342:10348   */\n      dup3\n        /* \"#utility.yul\":10331:10340   */\n      dup6\n        /* \"#utility.yul\":10327:10349   */\n      add\n        /* \"#utility.yul\":10296:10359   */\n      tag_124\n      jump\t// in\n    tag_259:\n        /* \"#utility.yul\":10286:10359   */\n      swap2\n      pop\n        /* \"#utility.yul\":10082:10369   */\n      pop\n        /* \"#utility.yul\":9867:10376   */\n      swap3\n      swap2\n      pop\n      pop\n      jump\t// out\n        /* \"#utility.yul\":10382:10856   */\n    tag_27:\n        /* \"#utility.yul\":10547:10551   */\n      0x00\n        /* \"#utility.yul\":10585:10587   */\n      0x60\n        /* \"#utility.yul\":10574:10583   */\n      dup3\n        /* \"#utility.yul\":10570:10588   */\n      add\n        /* \"#utility.yul\":10562:10588   */\n      swap1\n      pop\n        /* \"#utility.yul\":10598:10685   */\n      tag_261\n        /* \"#utility.yul\":10682:10683   */\n      0x00\n        /* \"#utility.yul\":10671:10680   */\n      dup4\n        /* \"#utility.yul\":10667:10684   */\n      add\n        /* \"#utility.yul\":10658:10664   */\n      dup7\n        /* \"#utility.yul\":10598:10685   */\n      tag_98\n      jump\t// in\n    tag_261:\n        /* \"#utility.yul\":10695:10767   */\n      tag_262\n        /* \"#utility.yul\":10763:10765   */\n      0x20\n        /* \"#utility.yul\":10752:10761   */\n      dup4\n        /* \"#utility.yul\":10748:10766   */\n      add\n        /* \"#utility.yul\":10739:10745   */\n      dup6\n        /* \"#utility.yul\":10695:10767   */\n      tag_104\n      jump\t// in\n    tag_262:\n        /* \"#utility.yul\":10777:10849   */\n      tag_263\n        /* \"#utility.yul\":10845:10847   */\n      0x40\n        /* \"#utility.yul\":10834:10843   */\n      dup4\n        /* \"#utility.yul\":10830:10848   */\n      add\n        /* \"#utility.yul\":10821:10827   */\n      dup5\n        /* \"#utility.yul\":10777:10849   */\n      tag_104\n      jump\t// in\n    tag_263:\n        /* \"#utility.yul\":10382:10856   */\n      swap5\n      swap4\n      pop\n      pop\n      pop\n      pop\n      jump\t// out\n        /* \"#utility.yul\":10862:11042   */\n    tag_125:\n        /* \"#utility.yul\":10910:10987   */\n      0x4e487b7100000000000000000000000000000000000000000000000000000000\n        /* \"#utility.yul\":10907:10908   */\n      0x00\n        /* \"#utility.yul\":10900:10988   */\n      mstore\n        /* \"#utility.yul\":11007:11011   */\n      0x22\n        /* \"#utility.yul\":11004:11005   */\n      0x04\n        /* \"#utility.yul\":10997:11012   */\n      mstore\n        /* \"#utility.yul\":11031:11035   */\n      0x24\n        /* \"#utility.yul\":11028:11029   */\n      0x00\n        /* \"#utility.yul\":11021:11036   */\n      revert\n        /* \"#utility.yul\":11048:11368   */\n    tag_35:\n        /* \"#utility.yul\":11092:11098   */\n      0x00\n        /* \"#utility.yul\":11129:11130   */\n      0x02\n        /* \"#utility.yul\":11123:11127   */\n      dup3\n        /* \"#utility.yul\":11119:11131   */\n      div\n        /* \"#utility.yul\":11109:11131   */\n      swap1\n      pop\n        /* \"#utility.yul\":11176:11177   */\n      0x01\n        /* \"#utility.yul\":11170:11174   */\n      dup3\n        /* \"#utility.yul\":11166:11178   */\n      and\n        /* \"#utility.yul\":11197:11215   */\n      dup1\n        /* \"#utility.yul\":11187:11268   */\n      tag_266\n      jumpi\n        /* \"#utility.yul\":11253:11257   */\n      0x7f\n        /* \"#utility.yul\":11245:11251   */\n      dup3\n        /* \"#utility.yul\":11241:11258   */\n      and\n        /* \"#utility.yul\":11231:11258   */\n      swap2\n      pop\n        /* \"#utility.yul\":11187:11268   */\n    tag_266:\n        /* \"#utility.yul\":11315:11317   */\n      0x20\n        /* \"#utility.yul\":11307:11313   */\n      dup3\n        /* \"#utility.yul\":11304:11318   */\n      lt\n        /* \"#utility.yul\":11284:11302   */\n      dup2\n        /* \"#utility.yul\":11281:11319   */\n      sub\n        /* \"#utility.yul\":11278:11362   */\n      tag_267\n      jumpi\n        /* \"#utility.yul\":11334:11352   */\n      tag_268\n      tag_125\n      jump\t// in\n    tag_268:\n        /* \"#utility.yul\":11278:11362   */\n    tag_267:\n        /* \"#utility.yul\":11099:11368   */\n      pop\n        /* \"#utility.yul\":11048:11368   */\n      swap2\n      swap1\n      pop\n      jump\t// out\n        /* \"#utility.yul\":11374:11554   */\n    tag_51:\n        /* \"#utility.yul\":11422:11499   */\n      0x4e487b7100000000000000000000000000000000000000000000000000000000\n        /* \"#utility.yul\":11419:11420   */\n      0x00\n        /* \"#utility.yul\":11412:11500   */\n      mstore\n        /* \"#utility.yul\":11519:11523   */\n      0x32\n        /* \"#utility.yul\":11516:11517   */\n      0x04\n        /* \"#utility.yul\":11509:11524   */\n      mstore\n        /* \"#utility.yul\":11543:11547   */\n      0x24\n        /* \"#utility.yul\":11540:11541   */\n      0x00\n        /* \"#utility.yul\":11533:11548   */\n      revert\n        /* \"#utility.yul\":11560:11708   */\n    tag_126:\n        /* \"#utility.yul\":11662:11673   */\n      0x00\n        /* \"#utility.yul\":11699:11702   */\n      dup2\n        /* \"#utility.yul\":11684:11702   */\n      swap1\n      pop\n        /* \"#utility.yul\":11560:11708   */\n      swap3\n      swap2\n      pop\n      pop\n      jump\t// out\n        /* \"#utility.yul\":11714:12104   */\n    tag_127:\n        /* \"#utility.yul\":11820:11823   */\n      0x00\n        /* \"#utility.yul\":11848:11887   */\n      tag_272\n        /* \"#utility.yul\":11881:11886   */\n      dup3\n        /* \"#utility.yul\":11848:11887   */\n      tag_99\n      jump\t// in\n    tag_272:\n        /* \"#utility.yul\":11903:11992   */\n      tag_273\n        /* \"#utility.yul\":11985:11991   */\n      dup2\n        /* \"#utility.yul\":11980:11983   */\n      dup6\n        /* \"#utility.yul\":11903:11992   */\n      tag_126\n      jump\t// in\n    tag_273:\n        /* \"#utility.yul\":11896:11992   */\n      swap4\n      pop\n        /* \"#utility.yul\":12001:12066   */\n      tag_274\n        /* \"#utility.yul\":12059:12065   */\n      dup2\n        /* \"#utility.yul\":12054:12057   */\n      dup6\n        /* \"#utility.yul\":12047:12051   */\n      0x20\n        /* \"#utility.yul\":12040:12045   */\n      dup7\n        /* \"#utility.yul\":12036:12052   */\n      add\n        /* \"#utility.yul\":12001:12066   */\n      tag_101\n      jump\t// in\n    tag_274:\n        /* \"#utility.yul\":12091:12097   */\n      dup1\n        /* \"#utility.yul\":12086:12089   */\n      dup5\n        /* \"#utility.yul\":12082:12098   */\n      add\n        /* \"#utility.yul\":12075:12098   */\n      swap2\n      pop\n        /* \"#utility.yul\":11824:12104   */\n      pop\n        /* \"#utility.yul\":11714:12104   */\n      swap3\n      swap2\n      pop\n      pop\n      jump\t// out\n        /* \"#utility.yul\":12110:12385   */\n    tag_62:\n        /* \"#utility.yul\":12242:12245   */\n      0x00\n        /* \"#utility.yul\":12264:12359   */\n      tag_276\n        /* \"#utility.yul\":12355:12358   */\n      dup3\n        /* \"#utility.yul\":12346:12352   */\n      dup5\n        /* \"#utility.yul\":12264:12359   */\n      tag_127\n      jump\t// in\n    tag_276:\n        /* \"#utility.yul\":12257:12359   */\n      swap2\n      pop\n        /* \"#utility.yul\":12376:12379   */\n      dup2\n        /* \"#utility.yul\":12369:12379   */\n      swap1\n      pop\n        /* \"#utility.yul\":12110:12385   */\n      swap3\n      swap2\n      pop\n      pop\n      jump\t// out\n        /* \"#utility.yul\":12391:12571   */\n    tag_128:\n        /* \"#utility.yul\":12531:12563   */\n      0x47757920796f75206e6f2066697420637265617465206e616d65206e69690000\n        /* \"#utility.yul\":12527:12528   */\n      0x00\n        /* \"#utility.yul\":12519:12525   */\n      dup3\n        /* \"#utility.yul\":12515:12529   */\n      add\n        /* \"#utility.yul\":12508:12564   */\n      mstore\n        /* \"#utility.yul\":12391:12571   */\n      pop\n      jump\t// out\n        /* \"#utility.yul\":12577:12943   */\n    tag_129:\n        /* \"#utility.yul\":12719:12722   */\n      0x00\n        /* \"#utility.yul\":12740:12807   */\n      tag_279\n        /* \"#utility.yul\":12804:12806   */\n      0x1e\n        /* \"#utility.yul\":12799:12802   */\n      dup4\n        /* \"#utility.yul\":12740:12807   */\n      tag_100\n      jump\t// in\n    tag_279:\n        /* \"#utility.yul\":12733:12807   */\n      swap2\n      pop\n        /* \"#utility.yul\":12816:12909   */\n      tag_280\n        /* \"#utility.yul\":12905:12908   */\n      dup3\n        /* \"#utility.yul\":12816:12909   */\n      tag_128\n      jump\t// in\n    tag_280:\n        /* \"#utility.yul\":12934:12936   */\n      0x20\n        /* \"#utility.yul\":12929:12932   */\n      dup3\n        /* \"#utility.yul\":12925:12937   */\n      add\n        /* \"#utility.yul\":12918:12937   */\n      swap1\n      pop\n        /* \"#utility.yul\":12577:12943   */\n      swap2\n      swap1\n      pop\n      jump\t// out\n        /* \"#utility.yul\":12949:13368   */\n    tag_66:\n        /* \"#utility.yul\":13115:13119   */\n      0x00\n        /* \"#utility.yul\":13153:13155   */\n      0x20\n        /* \"#utility.yul\":13142:13151   */\n      dup3\n        /* \"#utility.yul\":13138:13156   */\n      add\n        /* \"#utility.yul\":13130:13156   */\n      swap1\n      pop\n        /* \"#utility.yul\":13202:13211   */\n      dup2\n        /* \"#utility.yul\":13196:13200   */\n      dup2\n        /* \"#utility.yul\":13192:13212   */\n      sub\n        /* \"#utility.yul\":13188:13189   */\n      0x00\n        /* \"#utility.yul\":13177:13186   */\n      dup4\n        /* \"#utility.yul\":13173:13190   */\n      add\n        /* \"#utility.yul\":13166:13213   */\n      mstore\n        /* \"#utility.yul\":13230:13361   */\n      tag_282\n        /* \"#utility.yul\":13356:13360   */\n      dup2\n        /* \"#utility.yul\":13230:13361   */\n      tag_129\n      jump\t// in\n    tag_282:\n        /* \"#utility.yul\":13222:13361   */\n      swap1\n      pop\n        /* \"#utility.yul\":12949:13368   */\n      swap2\n      swap1\n      pop\n      jump\t// out\n        /* \"#utility.yul\":13374:13550   */\n    tag_130:\n        /* \"#utility.yul\":13514:13542   */\n      0x5768696368206b696e6420616464726573732062652074686973000000000000\n        /* \"#utility.yul\":13510:13511   */\n      0x00\n        /* \"#utility.yul\":13502:13508   */\n      dup3\n        /* \"#utility.yul\":13498:13512   */\n      add\n        /* \"#utility.yul\":13491:13543   */\n      mstore\n        /* \"#utility.yul\":13374:13550   */\n      pop\n      jump\t// out\n        /* \"#utility.yul\":13556:13922   */\n    tag_131:\n        /* \"#utility.yul\":13698:13701   */\n      0x00\n        /* \"#utility.yul\":13719:13786   */\n      tag_285\n        /* \"#utility.yul\":13783:13785   */\n      0x1a\n        /* \"#utility.yul\":13778:13781   */\n      dup4\n        /* \"#utility.yul\":13719:13786   */\n      tag_100\n      jump\t// in\n    tag_285:\n        /* \"#utility.yul\":13712:13786   */\n      swap2\n      pop\n        /* \"#utility.yul\":13795:13888   */\n      tag_286\n        /* \"#utility.yul\":13884:13887   */\n      dup3\n        /* \"#utility.yul\":13795:13888   */\n      tag_130\n      jump\t// in\n    tag_286:\n        /* \"#utility.yul\":13913:13915   */\n      0x20\n        /* \"#utility.yul\":13908:13911   */\n      dup3\n        /* \"#utility.yul\":13904:13916   */\n      add\n        /* \"#utility.yul\":13897:13916   */\n      swap1\n      pop\n        /* \"#utility.yul\":13556:13922   */\n      swap2\n      swap1\n      pop\n      jump\t// out\n        /* \"#utility.yul\":13928:14347   */\n    tag_69:\n        /* \"#utility.yul\":14094:14098   */\n      0x00\n        /* \"#utility.yul\":14132:14134   */\n      0x20\n        /* \"#utility.yul\":14121:14130   */\n      dup3\n        /* \"#utility.yul\":14117:14135   */\n      add\n        /* \"#utility.yul\":14109:14135   */\n      swap1\n      pop\n        /* \"#utility.yul\":14181:14190   */\n      dup2\n        /* \"#utility.yul\":14175:14179   */\n      dup2\n        /* \"#utility.yul\":14171:14191   */\n      sub\n        /* \"#utility.yul\":14167:14168   */\n      0x00\n        /* \"#utility.yul\":14156:14165   */\n      dup4\n        /* \"#utility.yul\":14152:14169   */\n      add\n        /* \"#utility.yul\":14145:14192   */\n      mstore\n        /* \"#utility.yul\":14209:14340   */\n      tag_288\n        /* \"#utility.yul\":14335:14339   */\n      dup2\n        /* \"#utility.yul\":14209:14340   */\n      tag_131\n      jump\t// in\n    tag_288:\n        /* \"#utility.yul\":14201:14340   */\n      swap1\n      pop\n        /* \"#utility.yul\":13928:14347   */\n      swap2\n      swap1\n      pop\n      jump\t// out\n        /* \"#utility.yul\":14353:14528   */\n    tag_132:\n        /* \"#utility.yul\":14493:14520   */\n      0x596f75722063616d706169676e206e6f20676574206e616d6500000000000000\n        /* \"#utility.yul\":14489:14490   */\n      0x00\n        /* \"#utility.yul\":14481:14487   */\n      dup3\n        /* \"#utility.yul\":14477:14491   */\n      add\n        /* \"#utility.yul\":14470:14521   */\n      mstore\n        /* \"#utility.yul\":14353:14528   */\n      pop\n      jump\t// out\n        /* \"#utility.yul\":14534:14900   */\n    tag_133:\n        /* \"#utility.yul\":14676:14679   */\n      0x00\n        /* \"#utility.yul\":14697:14764   */\n      tag_291\n        /* \"#utility.yul\":14761:14763   */\n      0x19\n        /* \"#utility.yul\":14756:14759   */\n      dup4\n        /* \"#utility.yul\":14697:14764   */\n      tag_100\n      jump\t// in\n    tag_291:\n        /* \"#utility.yul\":14690:14764   */\n      swap2\n      pop\n        /* \"#utility.yul\":14773:14866   */\n      tag_292\n        /* \"#utility.yul\":14862:14865   */\n      dup3\n        /* \"#utility.yul\":14773:14866   */\n      tag_132\n      jump\t// in\n    tag_292:\n        /* \"#utility.yul\":14891:14893   */\n      0x20\n        /* \"#utility.yul\":14886:14889   */\n      dup3\n        /* \"#utility.yul\":14882:14894   */\n      add\n        /* \"#utility.yul\":14875:14894   */\n      swap1\n      pop\n        /* \"#utility.yul\":14534:14900   */\n      swap2\n      swap1\n      pop\n      jump\t// out\n        /* \"#utility.yul\":14906:15325   */\n    tag_72:\n        /* \"#utility.yul\":15072:15076   */\n      0x00\n        /* \"#utility.yul\":15110:15112   */\n      0x20\n        /* \"#utility.yul\":15099:15108   */\n      dup3\n        /* \"#utility.yul\":15095:15113   */\n      add\n        /* \"#utility.yul\":15087:15113   */\n      swap1\n      pop\n        /* \"#utility.yul\":15159:15168   */\n      dup2\n        /* \"#utility.yul\":15153:15157   */\n      dup2\n        /* \"#utility.yul\":15149:15169   */\n      sub\n        /* \"#utility.yul\":15145:15146   */\n      0x00\n        /* \"#utility.yul\":15134:15143   */\n      dup4\n        /* \"#utility.yul\":15130:15147   */\n      add\n        /* \"#utility.yul\":15123:15170   */\n      mstore\n        /* \"#utility.yul\":15187:15318   */\n      tag_294\n        /* \"#utility.yul\":15313:15317   */\n      dup2\n        /* \"#utility.yul\":15187:15318   */\n      tag_133\n      jump\t// in\n    tag_294:\n        /* \"#utility.yul\":15179:15318   */\n      swap1\n      pop\n        /* \"#utility.yul\":14906:15325   */\n      swap2\n      swap1\n      pop\n      jump\t// out\n        /* \"#utility.yul\":15331:15507   */\n    tag_134:\n        /* \"#utility.yul\":15471:15499   */\n      0x42727568682063616e20796f75206e6f7420646f20746861743f000000000000\n        /* \"#utility.yul\":15467:15468   */\n      0x00\n        /* \"#utility.yul\":15459:15465   */\n      dup3\n        /* \"#utility.yul\":15455:15469   */\n      add\n        /* \"#utility.yul\":15448:15500   */\n      mstore\n        /* \"#utility.yul\":15331:15507   */\n      pop\n      jump\t// out\n        /* \"#utility.yul\":15513:15879   */\n    tag_135:\n        /* \"#utility.yul\":15655:15658   */\n      0x00\n        /* \"#utility.yul\":15676:15743   */\n      tag_297\n        /* \"#utility.yul\":15740:15742   */\n      0x1a\n        /* \"#utility.yul\":15735:15738   */\n      dup4\n        /* \"#utility.yul\":15676:15743   */\n      tag_100\n      jump\t// in\n    tag_297:\n        /* \"#utility.yul\":15669:15743   */\n      swap2\n      pop\n        /* \"#utility.yul\":15752:15845   */\n      tag_298\n        /* \"#utility.yul\":15841:15844   */\n      dup3\n        /* \"#utility.yul\":15752:15845   */\n      tag_134\n      jump\t// in\n    tag_298:\n        /* \"#utility.yul\":15870:15872   */\n      0x20\n        /* \"#utility.yul\":15865:15868   */\n      dup3\n        /* \"#utility.yul\":15861:15873   */\n      add\n        /* \"#utility.yul\":15854:15873   */\n      swap1\n      pop\n        /* \"#utility.yul\":15513:15879   */\n      swap2\n      swap1\n      pop\n      jump\t// out\n        /* \"#utility.yul\":15885:16304   */\n    tag_75:\n        /* \"#utility.yul\":16051:16055   */\n      0x00\n        /* \"#utility.yul\":16089:16091   */\n      0x20\n        /* \"#utility.yul\":16078:16087   */\n      dup3\n        /* \"#utility.yul\":16074:16092   */\n      add\n        /* \"#utility.yul\":16066:16092   */\n      swap1\n      pop\n        /* \"#utility.yul\":16138:16147   */\n      dup2\n        /* \"#utility.yul\":16132:16136   */\n      dup2\n        /* \"#utility.yul\":16128:16148   */\n      sub\n        /* \"#utility.yul\":16124:16125   */\n      0x00\n        /* \"#utility.yul\":16113:16122   */\n      dup4\n        /* \"#utility.yul\":16109:16126   */\n      add\n        /* \"#utility.yul\":16102:16149   */\n      mstore\n        /* \"#utility.yul\":16166:16297   */\n      tag_300\n        /* \"#utility.yul\":16292:16296   */\n      dup2\n        /* \"#utility.yul\":16166:16297   */\n      tag_135\n      jump\t// in\n    tag_300:\n        /* \"#utility.yul\":16158:16297   */\n      swap1\n      pop\n        /* \"#utility.yul\":15885:16304   */\n      swap2\n      swap1\n      pop\n      jump\t// out\n        /* \"#utility.yul\":16310:16451   */\n    tag_136:\n        /* \"#utility.yul\":16359:16363   */\n      0x00\n        /* \"#utility.yul\":16382:16385   */\n      dup2\n        /* \"#utility.yul\":16374:16385   */\n      swap1\n      pop\n        /* \"#utility.yul\":16405:16408   */\n      dup2\n        /* \"#utility.yul\":16402:16403   */\n      0x00\n        /* \"#utility.yul\":16395:16409   */\n      mstore\n        /* \"#utility.yul\":16439:16443   */\n      0x20\n        /* \"#utility.yul\":16436:16437   */\n      0x00\n        /* \"#utility.yul\":16426:16444   */\n      keccak256\n        /* \"#utility.yul\":16418:16444   */\n      swap1\n      pop\n        /* \"#utility.yul\":16310:16451   */\n      swap2\n      swap1\n      pop\n      jump\t// out\n        /* \"#utility.yul\":16457:16550   */\n    tag_137:\n        /* \"#utility.yul\":16494:16500   */\n      0x00\n        /* \"#utility.yul\":16541:16543   */\n      0x20\n        /* \"#utility.yul\":16536:16538   */\n      0x1f\n        /* \"#utility.yul\":16529:16534   */\n      dup4\n        /* \"#utility.yul\":16525:16539   */\n      add\n        /* \"#utility.yul\":16521:16544   */\n      div\n        /* \"#utility.yul\":16511:16544   */\n      swap1\n      pop\n        /* \"#utility.yul\":16457:16550   */\n      swap2\n      swap1\n      pop\n      jump\t// out\n        /* \"#utility.yul\":16556:16663   */\n    tag_138:\n        /* \"#utility.yul\":16600:16608   */\n      0x00\n        /* \"#utility.yul\":16650:16655   */\n      dup3\n        /* \"#utility.yul\":16644:16648   */\n      dup3\n        /* \"#utility.yul\":16640:16656   */\n      shl\n        /* \"#utility.yul\":16619:16656   */\n      swap1\n      pop\n        /* \"#utility.yul\":16556:16663   */\n      swap3\n      swap2\n      pop\n      pop\n      jump\t// out\n        /* \"#utility.yul\":16669:17062   */\n    tag_139:\n        /* \"#utility.yul\":16738:16744   */\n      0x00\n        /* \"#utility.yul\":16788:16789   */\n      0x08\n        /* \"#utility.yul\":16776:16786   */\n      dup4\n        /* \"#utility.yul\":16772:16790   */\n      mul\n        /* \"#utility.yul\":16811:16908   */\n      tag_305\n        /* \"#utility.yul\":16841:16907   */\n      0xffffffffffffffffffffffffffffffffffffffffffffffffffffffffffffffff\n        /* \"#utility.yul\":16830:16839   */\n      dup3\n        /* \"#utility.yul\":16811:16908   */\n      tag_138\n      jump\t// in\n    tag_305:\n        /* \"#utility.yul\":16929:16968   */\n      tag_306\n        /* \"#utility.yul\":16959:16967   */\n      dup7\n        /* \"#utility.yul\":16948:16957   */\n      dup4\n        /* \"#utility.yul\":16929:16968   */\n      tag_138\n      jump\t// in\n    tag_306:\n        /* \"#utility.yul\":16917:16968   */\n      swap6\n      pop\n        /* \"#utility.yul\":17001:17005   */\n      dup1\n        /* \"#utility.yul\":16997:17006   */\n      not\n        /* \"#utility.yul\":16990:16995   */\n      dup5\n        /* \"#utility.yul\":16986:17007   */\n      and\n        /* \"#utility.yul\":16977:17007   */\n      swap4\n      pop\n        /* \"#utility.yul\":17050:17054   */\n      dup1\n        /* \"#utility.yul\":17040:17048   */\n      dup7\n        /* \"#utility.yul\":17036:17055   */\n      and\n        /* \"#utility.yul\":17029:17034   */\n      dup5\n        /* \"#utility.yul\":17026:17056   */\n      or\n        /* \"#utility.yul\":17016:17056   */\n      swap3\n      pop\n        /* \"#utility.yul\":16745:17062   */\n      pop\n      pop\n        /* \"#utility.yul\":16669:17062   */\n      swap4\n      swap3\n      pop\n      pop\n      pop\n      jump\t// out\n        /* \"#utility.yul\":17068:17128   */\n    tag_140:\n        /* \"#utility.yul\":17096:17099   */\n      0x00\n        /* \"#utility.yul\":17117:17122   */\n      dup2\n        /* \"#utility.yul\":17110:17122   */\n      swap1\n      pop\n        /* \"#utility.yul\":17068:17128   */\n      swap2\n      swap1\n      pop\n      jump\t// out\n        /* \"#utility.yul\":17134:17276   */\n    tag_141:\n        /* \"#utility.yul\":17184:17193   */\n      0x00\n        /* \"#utility.yul\":17217:17270   */\n      tag_309\n        /* \"#utility.yul\":17235:17269   */\n      tag_310\n        /* \"#utility.yul\":17244:17268   */\n      tag_311\n        /* \"#utility.yul\":17262:17267   */\n      dup5\n        /* \"#utility.yul\":17244:17268   */\n      tag_93\n      jump\t// in\n    tag_311:\n        /* \"#utility.yul\":17235:17269   */\n      tag_140\n      jump\t// in\n    tag_310:\n        /* \"#utility.yul\":17217:17270   */\n      tag_93\n      jump\t// in\n    tag_309:\n        /* \"#utility.yul\":17204:17270   */\n      swap1\n      pop\n        /* \"#utility.yul\":17134:17276   */\n      swap2\n      swap1\n      pop\n      jump\t// out\n        /* \"#utility.yul\":17282:17357   */\n    tag_142:\n        /* \"#utility.yul\":17325:17328   */\n      0x00\n        /* \"#utility.yul\":17346:17351   */\n      dup2\n        /* \"#utility.yul\":17339:17351   */\n      swap1\n      pop\n        /* \"#utility.yul\":17282:17357   */\n      swap2\n      swap1\n      pop\n      jump\t// out\n        /* \"#utility.yul\":17363:17632   */\n    tag_143:\n        /* \"#utility.yul\":17473:17512   */\n      tag_314\n        /* \"#utility.yul\":17504:17511   */\n      dup4\n        /* \"#utility.yul\":17473:17512   */\n      tag_141\n      jump\t// in\n    tag_314:\n        /* \"#utility.yul\":17534:17625   */\n      tag_315\n        /* \"#utility.yul\":17583:17624   */\n      tag_316\n        /* \"#utility.yul\":17607:17623   */\n      dup3\n        /* \"#utility.yul\":17583:17624   */\n      tag_142\n      jump\t// in\n    tag_316:\n        /* \"#utility.yul\":17575:17581   */\n      dup5\n        /* \"#utility.yul\":17568:17572   */\n      dup5\n        /* \"#utility.yul\":17562:17573   */\n      sload\n        /* \"#utility.yul\":17534:17625   */\n      tag_139\n      jump\t// in\n    tag_315:\n        /* \"#utility.yul\":17528:17532   */\n      dup3\n        /* \"#utility.yul\":17521:17626   */\n      sstore\n        /* \"#utility.yul\":17439:17632   */\n      pop\n        /* \"#utility.yul\":17363:17632   */\n      pop\n      pop\n      pop\n      jump\t// out\n        /* \"#utility.yul\":17638:17711   */\n    tag_144:\n        /* \"#utility.yul\":17683:17686   */\n      0x00\n        /* \"#utility.yul\":17638:17711   */\n      swap1\n      jump\t// out\n        /* \"#utility.yul\":17717:17906   */\n    tag_145:\n        /* \"#utility.yul\":17794:17826   */\n      tag_319\n      tag_144\n      jump\t// in\n    tag_319:\n        /* \"#utility.yul\":17835:17900   */\n      tag_320\n        /* \"#utility.yul\":17893:17899   */\n      dup2\n        /* \"#utility.yul\":17885:17891   */\n      dup5\n        /* \"#utility.yul\":17879:17883   */\n      dup5\n        /* \"#utility.yul\":17835:17900   */\n      tag_143\n      jump\t// in\n    tag_320:\n        /* \"#utility.yul\":17770:17906   */\n      pop\n        /* \"#utility.yul\":17717:17906   */\n      pop\n      pop\n      jump\t// out\n        /* \"#utility.yul\":17912:18098   */\n    tag_146:\n        /* \"#utility.yul\":17972:18092   */\n    tag_322:\n        /* \"#utility.yul\":17989:17992   */\n      dup2\n        /* \"#utility.yul\":17982:17987   */\n      dup2\n        /* \"#utility.yul\":17979:17993   */\n      lt\n        /* \"#utility.yul\":17972:18092   */\n      iszero\n      tag_324\n      jumpi\n        /* \"#utility.yul\":18043:18082   */\n      tag_325\n        /* \"#utility.yul\":18080:18081   */\n      0x00\n        /* \"#utility.yul\":18073:18078   */\n      dup3\n        /* \"#utility.yul\":18043:18082   */\n      tag_145\n      jump\t// in\n    tag_325:\n        /* \"#utility.yul\":18016:18017   */\n      0x01\n        /* \"#utility.yul\":18009:18014   */\n      dup2\n        /* \"#utility.yul\":18005:18018   */\n      add\n        /* \"#utility.yul\":17996:18018   */\n      swap1\n      pop\n        /* \"#utility.yul\":17972:18092   */\n      jump(tag_322)\n    tag_324:\n        /* \"#utility.yul\":17912:18098   */\n      pop\n      pop\n      jump\t// out\n        /* \"#utility.yul\":18104:18647   */\n    tag_147:\n        /* \"#utility.yul\":18205:18207   */\n      0x1f\n        /* \"#utility.yul\":18200:18203   */\n      dup3\n        /* \"#utility.yul\":18197:18208   */\n      gt\n        /* \"#utility.yul\":18194:18640   */\n      iszero\n      tag_327\n      jumpi\n        /* \"#utility.yul\":18239:18277   */\n      tag_328\n        /* \"#utility.yul\":18271:18276   */\n      dup2\n        /* \"#utility.yul\":18239:18277   */\n      tag_136\n      jump\t// in\n    tag_328:\n        /* \"#utility.yul\":18323:18352   */\n      tag_329\n        /* \"#utility.yul\":18341:18351   */\n      dup5\n        /* \"#utility.yul\":18323:18352   */\n      tag_137\n      jump\t// in\n    tag_329:\n        /* \"#utility.yul\":18313:18321   */\n      dup2\n        /* \"#utility.yul\":18309:18353   */\n      add\n        /* \"#utility.yul\":18506:18508   */\n      0x20\n        /* \"#utility.yul\":18494:18504   */\n      dup6\n        /* \"#utility.yul\":18491:18509   */\n      lt\n        /* \"#utility.yul\":18488:18537   */\n      iszero\n      tag_330\n      jumpi\n        /* \"#utility.yul\":18527:18535   */\n      dup2\n        /* \"#utility.yul\":18512:18535   */\n      swap1\n      pop\n        /* \"#utility.yul\":18488:18537   */\n    tag_330:\n        /* \"#utility.yul\":18550:18630   */\n      tag_331\n        /* \"#utility.yul\":18606:18628   */\n      tag_332\n        /* \"#utility.yul\":18624:18627   */\n      dup6\n        /* \"#utility.yul\":18606:18628   */\n      tag_137\n      jump\t// in\n    tag_332:\n        /* \"#utility.yul\":18596:18604   */\n      dup4\n        /* \"#utility.yul\":18592:18629   */\n      add\n        /* \"#utility.yul\":18579:18590   */\n      dup3\n        /* \"#utility.yul\":18550:18630   */\n      tag_146\n      jump\t// in\n    tag_331:\n        /* \"#utility.yul\":18209:18640   */\n      pop\n      pop\n        /* \"#utility.yul\":18194:18640   */\n    tag_327:\n        /* \"#utility.yul\":18104:18647   */\n      pop\n      pop\n      pop\n      jump\t// out\n        /* \"#utility.yul\":18653:18770   */\n    tag_148:\n        /* \"#utility.yul\":18707:18715   */\n      0x00\n        /* \"#utility.yul\":18757:18762   */\n      dup3\n        /* \"#utility.yul\":18751:18755   */\n      dup3\n        /* \"#utility.yul\":18747:18763   */\n      shr\n        /* \"#utility.yul\":18726:18763   */\n      swap1\n      pop\n        /* \"#utility.yul\":18653:18770   */\n      swap3\n      swap2\n      pop\n      pop\n      jump\t// out\n        /* \"#utility.yul\":18776:18945   */\n    tag_149:\n        /* \"#utility.yul\":18820:18826   */\n      0x00\n        /* \"#utility.yul\":18853:18904   */\n      tag_335\n        /* \"#utility.yul\":18901:18902   */\n      0x00\n        /* \"#utility.yul\":18897:18903   */\n      not\n        /* \"#utility.yul\":18889:18894   */\n      dup5\n        /* \"#utility.yul\":18886:18887   */\n      0x08\n        /* \"#utility.yul\":18882:18895   */\n      mul\n        /* \"#utility.yul\":18853:18904   */\n      tag_148\n      jump\t// in\n    tag_335:\n        /* \"#utility.yul\":18849:18905   */\n      not\n        /* \"#utility.yul\":18934:18938   */\n      dup1\n        /* \"#utility.yul\":18928:18932   */\n      dup4\n        /* \"#utility.yul\":18924:18939   */\n      and\n        /* \"#utility.yul\":18914:18939   */\n      swap2\n      pop\n        /* \"#utility.yul\":18827:18945   */\n      pop\n        /* \"#utility.yul\":18776:18945   */\n      swap3\n      swap2\n      pop\n      pop\n      jump\t// out\n        /* \"#utility.yul\":18950:19245   */\n    tag_150:\n        /* \"#utility.yul\":19026:19030   */\n      0x00\n        /* \"#utility.yul\":19172:19201   */\n      tag_337\n        /* \"#utility.yul\":19197:19200   */\n      dup4\n        /* \"#utility.yul\":19191:19195   */\n      dup4\n        /* \"#utility.yul\":19172:19201   */\n      tag_149\n      jump\t// in\n    tag_337:\n        /* \"#utility.yul\":19164:19201   */\n      swap2\n      pop\n        /* \"#utility.yul\":19234:19237   */\n      dup3\n        /* \"#utility.yul\":19231:19232   */\n      0x02\n        /* \"#utility.yul\":19227:19238   */\n      mul\n        /* \"#utility.yul\":19221:19225   */\n      dup3\n        /* \"#utility.yul\":19218:19239   */\n      or\n        /* \"#utility.yul\":19210:19239   */\n      swap1\n      pop\n        /* \"#utility.yul\":18950:19245   */\n      swap3\n      swap2\n      pop\n      pop\n      jump\t// out\n        /* \"#utility.yul\":19250:20645   */\n    tag_78:\n        /* \"#utility.yul\":19367:19404   */\n      tag_339\n        /* \"#utility.yul\":19400:19403   */\n      dup3\n        /* \"#utility.yul\":19367:19404   */\n      tag_99\n      jump\t// in\n    tag_339:\n        /* \"#utility.yul\":19469:19487   */\n      0xffffffffffffffff\n        /* \"#utility.yul\":19461:19467   */\n      dup2\n        /* \"#utility.yul\":19458:19488   */\n      gt\n        /* \"#utility.yul\":19455:19511   */\n      iszero\n      tag_340\n      jumpi\n        /* \"#utility.yul\":19491:19509   */\n      tag_341\n      tag_43\n      jump\t// in\n    tag_341:\n        /* \"#utility.yul\":19455:19511   */\n    tag_340:\n        /* \"#utility.yul\":19535:19573   */\n      tag_342\n        /* \"#utility.yul\":19567:19571   */\n      dup3\n        /* \"#utility.yul\":19561:19572   */\n      sload\n        /* \"#utility.yul\":19535:19573   */\n      tag_35\n      jump\t// in\n    tag_342:\n        /* \"#utility.yul\":19620:19687   */\n      tag_343\n        /* \"#utility.yul\":19680:19686   */\n      dup3\n        /* \"#utility.yul\":19672:19678   */\n      dup3\n        /* \"#utility.yul\":19666:19670   */\n      dup6\n        /* \"#utility.yul\":19620:19687   */\n      tag_147\n      jump\t// in\n    tag_343:\n        /* \"#utility.yul\":19714:19715   */\n      0x00\n        /* \"#utility.yul\":19738:19742   */\n      0x20\n        /* \"#utility.yul\":19725:19742   */\n      swap1\n      pop\n        /* \"#utility.yul\":19770:19772   */\n      0x1f\n        /* \"#utility.yul\":19762:19768   */\n      dup4\n        /* \"#utility.yul\":19759:19773   */\n      gt\n        /* \"#utility.yul\":19787:19788   */\n      0x01\n        /* \"#utility.yul\":19782:20400   */\n      dup2\n      eq\n      tag_345\n      jumpi\n        /* \"#utility.yul\":20444:20445   */\n      0x00\n        /* \"#utility.yul\":20461:20467   */\n      dup5\n        /* \"#utility.yul\":20458:20535   */\n      iszero\n      tag_346\n      jumpi\n        /* \"#utility.yul\":20510:20519   */\n      dup3\n        /* \"#utility.yul\":20505:20508   */\n      dup8\n        /* \"#utility.yul\":20501:20520   */\n      add\n        /* \"#utility.yul\":20495:20521   */\n      mload\n        /* \"#utility.yul\":20486:20521   */\n      swap1\n      pop\n        /* \"#utility.yul\":20458:20535   */\n    tag_346:\n        /* \"#utility.yul\":20561:20628   */\n      tag_347\n        /* \"#utility.yul\":20621:20627   */\n      dup6\n        /* \"#utility.yul\":20614:20619   */\n      dup3\n        /* \"#utility.yul\":20561:20628   */\n      tag_150\n      jump\t// in\n    tag_347:\n        /* \"#utility.yul\":20555:20559   */\n      dup7\n        /* \"#utility.yul\":20548:20629   */\n      sstore\n        /* \"#utility.yul\":20417:20639   */\n      pop\n        /* \"#utility.yul\":19752:20639   */\n      jump(tag_344)\n        /* \"#utility.yul\":19782:20400   */\n    tag_345:\n        /* \"#utility.yul\":19834:19838   */\n      0x1f\n        /* \"#utility.yul\":19830:19839   */\n      not\n        /* \"#utility.yul\":19822:19828   */\n      dup5\n        /* \"#utility.yul\":19818:19840   */\n      and\n        /* \"#utility.yul\":19868:19905   */\n      tag_348\n        /* \"#utility.yul\":19900:19904   */\n      dup7\n        /* \"#utility.yul\":19868:19905   */\n      tag_136\n      jump\t// in\n    tag_348:\n        /* \"#utility.yul\":19927:19928   */\n      0x00\n        /* \"#utility.yul\":19941:20149   */\n    tag_349:\n        /* \"#utility.yul\":19955:19962   */\n      dup3\n        /* \"#utility.yul\":19952:19953   */\n      dup2\n        /* \"#utility.yul\":19949:19963   */\n      lt\n        /* \"#utility.yul\":19941:20149   */\n      iszero\n      tag_351\n      jumpi\n        /* \"#utility.yul\":20034:20043   */\n      dup5\n        /* \"#utility.yul\":20029:20032   */\n      dup10\n        /* \"#utility.yul\":20025:20044   */\n      add\n        /* \"#utility.yul\":20019:20045   */\n      mload\n        /* \"#utility.yul\":20011:20017   */\n      dup3\n        /* \"#utility.yul\":20004:20046   */\n      sstore\n        /* \"#utility.yul\":20085:20086   */\n      0x01\n        /* \"#utility.yul\":20077:20083   */\n      dup3\n        /* \"#utility.yul\":20073:20087   */\n      add\n        /* \"#utility.yul\":20063:20087   */\n      swap2\n      pop\n        /* \"#utility.yul\":20132:20134   */\n      0x20\n        /* \"#utility.yul\":20121:20130   */\n      dup6\n        /* \"#utility.yul\":20117:20135   */\n      add\n        /* \"#utility.yul\":20104:20135   */\n      swap5\n      pop\n        /* \"#utility.yul\":19978:19982   */\n      0x20\n        /* \"#utility.yul\":19975:19976   */\n      dup2\n        /* \"#utility.yul\":19971:19983   */\n      add\n        /* \"#utility.yul\":19966:19983   */\n      swap1\n      pop\n        /* \"#utility.yul\":19941:20149   */\n      jump(tag_349)\n    tag_351:\n        /* \"#utility.yul\":20177:20183   */\n      dup7\n        /* \"#utility.yul\":20168:20175   */\n      dup4\n        /* \"#utility.yul\":20165:20184   */\n      lt\n        /* \"#utility.yul\":20162:20341   */\n      iszero\n      tag_352\n      jumpi\n        /* \"#utility.yul\":20235:20244   */\n      dup5\n        /* \"#utility.yul\":20230:20233   */\n      dup10\n        /* \"#utility.yul\":20226:20245   */\n      add\n        /* \"#utility.yul\":20220:20246   */\n      mload\n        /* \"#utility.yul\":20278:20326   */\n      tag_353\n        /* \"#utility.yul\":20320:20324   */\n      0x1f\n        /* \"#utility.yul\":20312:20318   */\n      dup10\n        /* \"#utility.yul\":20308:20325   */\n      and\n        /* \"#utility.yul\":20297:20306   */\n      dup3\n        /* \"#utility.yul\":20278:20326   */\n      tag_149\n      jump\t// in\n    tag_353:\n        /* \"#utility.yul\":20270:20276   */\n      dup4\n        /* \"#utility.yul\":20263:20327   */\n      sstore\n        /* \"#utility.yul\":20185:20341   */\n      pop\n        /* \"#utility.yul\":20162:20341   */\n    tag_352:\n        /* \"#utility.yul\":20387:20388   */\n      0x01\n        /* \"#utility.yul\":20383:20384   */\n      0x02\n        /* \"#utility.yul\":20375:20381   */\n      dup9\n        /* \"#utility.yul\":20371:20385   */\n      mul\n        /* \"#utility.yul\":20367:20389   */\n      add\n        /* \"#utility.yul\":20361:20365   */\n      dup9\n        /* \"#utility.yul\":20354:20390   */\n      sstore\n        /* \"#utility.yul\":19789:20400   */\n      pop\n      pop\n      pop\n        /* \"#utility.yul\":19752:20639   */\n    tag_344:\n      pop\n        /* \"#utility.yul\":19342:20645   */\n      pop\n      pop\n      pop\n        /* \"#utility.yul\":19250:20645   */\n      pop\n      pop\n      jump\t// out\n\n    auxdata: 0xa2646970667358221220df87118f36cdc1354edf165ecb338e45420d9fca54ab84f6301d39bacd79f6e164736f6c634300081a0033\n}\n",
				"bytecode": {
					"linkReferences": {},
					"object": "6080604052348015600e575f80fd5b506113688061001c5f395ff3fe608060405234801561000f575f80fd5b5060043610610055575f3560e01c80634912c6581461005957806386cdf6041461008f57806390f9f50c146100ad5780639fb9f379146100c9578063c50a40d0146100fb575b5f80fd5b610073600480360381019061006e9190610960565b610131565b6040516100869796959493929190610a63565b60405180910390f35b61009761024d565b6040516100a49190610bda565b60405180910390f35b6100c760048036038101906100c29190610d50565b61038e565b005b6100e360048036038101906100de9190610dd0565b610761565b6040516100f293929190610e17565b60405180910390f35b61011560048036038101906101109190610dd0565b6107f6565b6040516101289796959493929190610a63565b60405180910390f35b5f818154811061013f575f80fd5b905f5260205f2090600702015f91509050805f015f9054906101000a900473ffffffffffffffffffffffffffffffffffffffff1690806001015f9054906101000a900473ffffffffffffffffffffffffffffffffffffffff16908060020180546101a890610e79565b80601f01602080910402602001604051908101604052809291908181526020018280546101d490610e79565b801561021f5780601f106101f65761010080835404028352916020019161021f565b820191905f5260205f20905b81548152906001019060200180831161020257829003601f168201915b505050505090806003015490806004015490806005015490806006015f9054906101000a900460ff16905087565b60605f808054905067ffffffffffffffff81111561026e5761026d610c2c565b5b6040519080825280602002602001820160405280156102a157816020015b606081526020019060019003908161028c5790505b5090505f5b5f80549050811015610386575f81815481106102c5576102c4610ea9565b5b905f5260205f20906007020160020180546102df90610e79565b80601f016020809104026020016040519081016040528092919081815260200182805461030b90610e79565b80156103565780601f1061032d57610100808354040283529160200191610356565b820191905f5260205f20905b81548152906001019060200180831161033957829003601f168201915b505050505082828151811061036e5761036d610ea9565b5b602002602001018190525080806001019150506102a6565b508091505090565b5f60018460405161039f9190610f10565b908152602001604051809103902060020180546103bb90610e79565b9050146103fd576040517f08c379a00000000000000000000000000000000000000000000000000000000081526004016103f490610f70565b60405180910390fd5b5f73ffffffffffffffffffffffffffffffffffffffff168473ffffffffffffffffffffffffffffffffffffffff160361046b576040517f08c379a000000000000000000000000000000000000000000000000000000000815260040161046290610fd8565b60405180910390fd5b5f8351116104ae576040517f08c379a00000000000000000000000000000000000000000000000000000000081526004016104a590611040565b60405180910390fd5b5f81116104f0576040517f08c379a00000000000000000000000000000000000000000000000000000000081526004016104e7906110a8565b60405180910390fd5b5f6040518060e001604052803373ffffffffffffffffffffffffffffffffffffffff1681526020018673ffffffffffffffffffffffffffffffffffffffff1681526020018581526020018481526020018381526020015f81526020015f15158152509050806001856040516105659190610f10565b90815260200160405180910390205f820151815f015f6101000a81548173ffffffffffffffffffffffffffffffffffffffff021916908373ffffffffffffffffffffffffffffffffffffffff1602179055506020820151816001015f6101000a81548173ffffffffffffffffffffffffffffffffffffffff021916908373ffffffffffffffffffffffffffffffffffffffff16021790555060408201518160020190816106129190611263565b50606082015181600301556080820151816004015560a0820151816005015560c0820151816006015f6101000a81548160ff0219169083151502179055509050505f81908060018154018082558091505060019003905f5260205f2090600702015f909190919091505f820151815f015f6101000a81548173ffffffffffffffffffffffffffffffffffffffff021916908373ffffffffffffffffffffffffffffffffffffffff1602179055506020820151816001015f6101000a81548173ffffffffffffffffffffffffffffffffffffffff021916908373ffffffffffffffffffffffffffffffffffffffff160217905550604082015181600201908161071a9190611263565b50606082015181600301556080820151816004015560a0820151816005015560c0820151816006015f6101000a81548160ff02191690831515021790555050505050505050565b5f805f6001846040516107749190610f10565b90815260200160405180910390206001015f9054906101000a900473ffffffffffffffffffffffffffffffffffffffff166001856040516107b59190610f10565b9081526020016040518091039020600501546001866040516107d79190610f10565b9081526020016040518091039020600301549250925092509193909250565b6001818051602081018201805184825260208301602085012081835280955050505050505f91509050805f015f9054906101000a900473ffffffffffffffffffffffffffffffffffffffff1690806001015f9054906101000a900473ffffffffffffffffffffffffffffffffffffffff169080600201805461087790610e79565b80601f01602080910402602001604051908101604052809291908181526020018280546108a390610e79565b80156108ee5780601f106108c5576101008083540402835291602001916108ee565b820191905f5260205f20905b8154815290600101906020018083116108d157829003601f168201915b505050505090806003015490806004015490806005015490806006015f9054906101000a900460ff16905087565b5f604051905090565b5f80fd5b5f80fd5b5f819050919050565b61093f8161092d565b8114610949575f80fd5b50565b5f8135905061095a81610936565b92915050565b5f6020828403121561097557610974610925565b5b5f6109828482850161094c565b91505092915050565b5f73ffffffffffffffffffffffffffffffffffffffff82169050919050565b5f6109b48261098b565b9050919050565b6109c4816109aa565b82525050565b5f81519050919050565b5f82825260208201905092915050565b8281835e5f83830152505050565b5f601f19601f8301169050919050565b5f610a0c826109ca565b610a1681856109d4565b9350610a268185602086016109e4565b610a2f816109f2565b840191505092915050565b610a438161092d565b82525050565b5f8115159050919050565b610a5d81610a49565b82525050565b5f60e082019050610a765f83018a6109bb565b610a8360208301896109bb565b8181036040830152610a958188610a02565b9050610aa46060830187610a3a565b610ab16080830186610a3a565b610abe60a0830185610a3a565b610acb60c0830184610a54565b98975050505050505050565b5f81519050919050565b5f82825260208201905092915050565b5f819050602082019050919050565b5f82825260208201905092915050565b5f610b1a826109ca565b610b248185610b00565b9350610b348185602086016109e4565b610b3d816109f2565b840191505092915050565b5f610b538383610b10565b905092915050565b5f602082019050919050565b5f610b7182610ad7565b610b7b8185610ae1565b935083602082028501610b8d85610af1565b805f5b85811015610bc85784840389528151610ba98582610b48565b9450610bb483610b5b565b925060208a01995050600181019050610b90565b50829750879550505050505092915050565b5f6020820190508181035f830152610bf28184610b67565b905092915050565b610c03816109aa565b8114610c0d575f80fd5b50565b5f81359050610c1e81610bfa565b92915050565b5f80fd5b5f80fd5b7f4e487b71000000000000000000000000000000000000000000000000000000005f52604160045260245ffd5b610c62826109f2565b810181811067ffffffffffffffff82111715610c8157610c80610c2c565b5b80604052505050565b5f610c9361091c565b9050610c9f8282610c59565b919050565b5f67ffffffffffffffff821115610cbe57610cbd610c2c565b5b610cc7826109f2565b9050602081019050919050565b828183375f83830152505050565b5f610cf4610cef84610ca4565b610c8a565b905082815260208101848484011115610d1057610d0f610c28565b5b610d1b848285610cd4565b509392505050565b5f82601f830112610d3757610d36610c24565b5b8135610d47848260208601610ce2565b91505092915050565b5f805f8060808587031215610d6857610d67610925565b5b5f610d7587828801610c10565b945050602085013567ffffffffffffffff811115610d9657610d95610929565b5b610da287828801610d23565b9350506040610db38782880161094c565b9250506060610dc48782880161094c565b91505092959194509250565b5f60208284031215610de557610de4610925565b5b5f82013567ffffffffffffffff811115610e0257610e01610929565b5b610e0e84828501610d23565b91505092915050565b5f606082019050610e2a5f8301866109bb565b610e376020830185610a3a565b610e446040830184610a3a565b949350505050565b7f4e487b71000000000000000000000000000000000000000000000000000000005f52602260045260245ffd5b5f6002820490506001821680610e9057607f821691505b602082108103610ea357610ea2610e4c565b5b50919050565b7f4e487b71000000000000000000000000000000000000000000000000000000005f52603260045260245ffd5b5f81905092915050565b5f610eea826109ca565b610ef48185610ed6565b9350610f048185602086016109e4565b80840191505092915050565b5f610f1b8284610ee0565b915081905092915050565b7f47757920796f75206e6f2066697420637265617465206e616d65206e696900005f82015250565b5f610f5a601e836109d4565b9150610f6582610f26565b602082019050919050565b5f6020820190508181035f830152610f8781610f4e565b9050919050565b7f5768696368206b696e64206164647265737320626520746869730000000000005f82015250565b5f610fc2601a836109d4565b9150610fcd82610f8e565b602082019050919050565b5f6020820190508181035f830152610fef81610fb6565b9050919050565b7f596f75722063616d706169676e206e6f20676574206e616d65000000000000005f82015250565b5f61102a6019836109d4565b915061103582610ff6565b602082019050919050565b5f6020820190508181035f8301526110578161101e565b9050919050565b7f42727568682063616e20796f75206e6f7420646f20746861743f0000000000005f82015250565b5f611092601a836109d4565b915061109d8261105e565b602082019050919050565b5f6020820190508181035f8301526110bf81611086565b9050919050565b5f819050815f5260205f209050919050565b5f6020601f8301049050919050565b5f82821b905092915050565b5f600883026111227fffffffffffffffffffffffffffffffffffffffffffffffffffffffffffffffff826110e7565b61112c86836110e7565b95508019841693508086168417925050509392505050565b5f819050919050565b5f61116761116261115d8461092d565b611144565b61092d565b9050919050565b5f819050919050565b6111808361114d565b61119461118c8261116e565b8484546110f3565b825550505050565b5f90565b6111a861119c565b6111b3818484611177565b505050565b5b818110156111d6576111cb5f826111a0565b6001810190506111b9565b5050565b601f82111561121b576111ec816110c6565b6111f5846110d8565b81016020851015611204578190505b611218611210856110d8565b8301826111b8565b50505b505050565b5f82821c905092915050565b5f61123b5f1984600802611220565b1980831691505092915050565b5f611253838361122c565b9150826002028217905092915050565b61126c826109ca565b67ffffffffffffffff81111561128557611284610c2c565b5b61128f8254610e79565b61129a8282856111da565b5f60209050601f8311600181146112cb575f84156112b9578287015190505b6112c38582611248565b86555061132a565b601f1984166112d9866110c6565b5f5b82811015611300578489015182556001820191506020850194506020810190506112db565b8683101561131d5784890151611319601f89168261122c565b8355505b6001600288020188555050505b50505050505056fea2646970667358221220df87118f36cdc1354edf165ecb338e45420d9fca54ab84f6301d39bacd79f6e164736f6c634300081a0033",
					"opcodes": "PUSH1 0x80 PUSH1 0x40 MSTORE CALLVALUE DUP1 ISZERO PUSH1 0xE JUMPI PUSH0 DUP1 REVERT JUMPDEST POP PUSH2 0x1368 DUP1 PUSH2 0x1C PUSH0 CODECOPY PUSH0 RETURN INVALID PUSH1 0x80 PUSH1 0x40 MSTORE CALLVALUE DUP1 ISZERO PUSH2 0xF JUMPI PUSH0 DUP1 REVERT JUMPDEST POP PUSH1 0x4 CALLDATASIZE LT PUSH2 0x55 JUMPI PUSH0 CALLDATALOAD PUSH1 0xE0 SHR DUP1 PUSH4 0x4912C658 EQ PUSH2 0x59 JUMPI DUP1 PUSH4 0x86CDF604 EQ PUSH2 0x8F JUMPI DUP1 PUSH4 0x90F9F50C EQ PUSH2 0xAD JUMPI DUP1 PUSH4 0x9FB9F379 EQ PUSH2 0xC9 JUMPI DUP1 PUSH4 0xC50A40D0 EQ PUSH2 0xFB JUMPI JUMPDEST PUSH0 DUP1 REVERT JUMPDEST PUSH2 0x73 PUSH1 0x4 DUP1 CALLDATASIZE SUB DUP2 ADD SWAP1 PUSH2 0x6E SWAP2 SWAP1 PUSH2 0x960 JUMP JUMPDEST PUSH2 0x131 JUMP JUMPDEST PUSH1 0x40 MLOAD PUSH2 0x86 SWAP8 SWAP7 SWAP6 SWAP5 SWAP4 SWAP3 SWAP2 SWAP1 PUSH2 0xA63 JUMP JUMPDEST PUSH1 0x40 MLOAD DUP1 SWAP2 SUB SWAP1 RETURN JUMPDEST PUSH2 0x97 PUSH2 0x24D JUMP JUMPDEST PUSH1 0x40 MLOAD PUSH2 0xA4 SWAP2 SWAP1 PUSH2 0xBDA JUMP JUMPDEST PUSH1 0x40 MLOAD DUP1 SWAP2 SUB SWAP1 RETURN JUMPDEST PUSH2 0xC7 PUSH1 0x4 DUP1 CALLDATASIZE SUB DUP2 ADD SWAP1 PUSH2 0xC2 SWAP2 SWAP1 PUSH2 0xD50 JUMP JUMPDEST PUSH2 0x38E JUMP JUMPDEST STOP JUMPDEST PUSH2 0xE3 PUSH1 0x4 DUP1 CALLDATASIZE SUB DUP2 ADD SWAP1 PUSH2 0xDE SWAP2 SWAP1 PUSH2 0xDD0 JUMP JUMPDEST PUSH2 0x761 JUMP JUMPDEST PUSH1 0x40 MLOAD PUSH2 0xF2 SWAP4 SWAP3 SWAP2 SWAP1 PUSH2 0xE17 JUMP JUMPDEST PUSH1 0x40 MLOAD DUP1 SWAP2 SUB SWAP1 RETURN JUMPDEST PUSH2 0x115 PUSH1 0x4 DUP1 CALLDATASIZE SUB DUP2 ADD SWAP1 PUSH2 0x110 SWAP2 SWAP1 PUSH2 0xDD0 JUMP JUMPDEST PUSH2 0x7F6 JUMP JUMPDEST PUSH1 0x40 MLOAD PUSH2 0x128 SWAP8 SWAP7 SWAP6 SWAP5 SWAP4 SWAP3 SWAP2 SWAP1 PUSH2 0xA63 JUMP JUMPDEST PUSH1 0x40 MLOAD DUP1 SWAP2 SUB SWAP1 RETURN JUMPDEST PUSH0 DUP2 DUP2 SLOAD DUP2 LT PUSH2 0x13F JUMPI PUSH0 DUP1 REVERT JUMPDEST SWAP1 PUSH0 MSTORE PUSH1 0x20 PUSH0 KECCAK256 SWAP1 PUSH1 0x7 MUL ADD PUSH0 SWAP2 POP SWAP1 POP DUP1 PUSH0 ADD PUSH0 SWAP1 SLOAD SWAP1 PUSH2 0x100 EXP SWAP1 DIV PUSH20 0xFFFFFFFFFFFFFFFFFFFFFFFFFFFFFFFFFFFFFFFF AND SWAP1 DUP1 PUSH1 0x1 ADD PUSH0 SWAP1 SLOAD SWAP1 PUSH2 0x100 EXP SWAP1 DIV PUSH20 0xFFFFFFFFFFFFFFFFFFFFFFFFFFFFFFFFFFFFFFFF AND SWAP1 DUP1 PUSH1 0x2 ADD DUP1 SLOAD PUSH2 0x1A8 SWAP1 PUSH2 0xE79 JUMP JUMPDEST DUP1 PUSH1 0x1F ADD PUSH1 0x20 DUP1 SWAP2 DIV MUL PUSH1 0x20 ADD PUSH1 0x40 MLOAD SWAP1 DUP2 ADD PUSH1 0x40 MSTORE DUP1 SWAP3 SWAP2 SWAP1 DUP2 DUP2 MSTORE PUSH1 0x20 ADD DUP3 DUP1 SLOAD PUSH2 0x1D4 SWAP1 PUSH2 0xE79 JUMP JUMPDEST DUP1 ISZERO PUSH2 0x21F JUMPI DUP1 PUSH1 0x1F LT PUSH2 0x1F6 JUMPI PUSH2 0x100 DUP1 DUP4 SLOAD DIV MUL DUP4 MSTORE SWAP2 PUSH1 0x20 ADD SWAP2 PUSH2 0x21F JUMP JUMPDEST DUP3 ADD SWAP2 SWAP1 PUSH0 MSTORE PUSH1 0x20 PUSH0 KECCAK256 SWAP1 JUMPDEST DUP2 SLOAD DUP2 MSTORE SWAP1 PUSH1 0x1 ADD SWAP1 PUSH1 0x20 ADD DUP1 DUP4 GT PUSH2 0x202 JUMPI DUP3 SWAP1 SUB PUSH1 0x1F AND DUP3 ADD SWAP2 JUMPDEST POP POP POP POP POP SWAP1 DUP1 PUSH1 0x3 ADD SLOAD SWAP1 DUP1 PUSH1 0x4 ADD SLOAD SWAP1 DUP1 PUSH1 0x5 ADD SLOAD SWAP1 DUP1 PUSH1 0x6 ADD PUSH0 SWAP1 SLOAD SWAP1 PUSH2 0x100 EXP SWAP1 DIV PUSH1 0xFF AND SWAP1 POP DUP8 JUMP JUMPDEST PUSH1 0x60 PUSH0 DUP1 DUP1 SLOAD SWAP1 POP PUSH8 0xFFFFFFFFFFFFFFFF DUP2 GT ISZERO PUSH2 0x26E JUMPI PUSH2 0x26D PUSH2 0xC2C JUMP JUMPDEST JUMPDEST PUSH1 0x40 MLOAD SWAP1 DUP1 DUP3 MSTORE DUP1 PUSH1 0x20 MUL PUSH1 0x20 ADD DUP3 ADD PUSH1 0x40 MSTORE DUP1 ISZERO PUSH2 0x2A1 JUMPI DUP2 PUSH1 0x20 ADD JUMPDEST PUSH1 0x60 DUP2 MSTORE PUSH1 0x20 ADD SWAP1 PUSH1 0x1 SWAP1 SUB SWAP1 DUP2 PUSH2 0x28C JUMPI SWAP1 POP JUMPDEST POP SWAP1 POP PUSH0 JUMPDEST PUSH0 DUP1 SLOAD SWAP1 POP DUP2 LT ISZERO PUSH2 0x386 JUMPI PUSH0 DUP2 DUP2 SLOAD DUP2 LT PUSH2 0x2C5 JUMPI PUSH2 0x2C4 PUSH2 0xEA9 JUMP JUMPDEST JUMPDEST SWAP1 PUSH0 MSTORE PUSH1 0x20 PUSH0 KECCAK256 SWAP1 PUSH1 0x7 MUL ADD PUSH1 0x2 ADD DUP1 SLOAD PUSH2 0x2DF SWAP1 PUSH2 0xE79 JUMP JUMPDEST DUP1 PUSH1 0x1F ADD PUSH1 0x20 DUP1 SWAP2 DIV MUL PUSH1 0x20 ADD PUSH1 0x40 MLOAD SWAP1 DUP2 ADD PUSH1 0x40 MSTORE DUP1 SWAP3 SWAP2 SWAP1 DUP2 DUP2 MSTORE PUSH1 0x20 ADD DUP3 DUP1 SLOAD PUSH2 0x30B SWAP1 PUSH2 0xE79 JUMP JUMPDEST DUP1 ISZERO PUSH2 0x356 JUMPI DUP1 PUSH1 0x1F LT PUSH2 0x32D JUMPI PUSH2 0x100 DUP1 DUP4 SLOAD DIV MUL DUP4 MSTORE SWAP2 PUSH1 0x20 ADD SWAP2 PUSH2 0x356 JUMP JUMPDEST DUP3 ADD SWAP2 SWAP1 PUSH0 MSTORE PUSH1 0x20 PUSH0 KECCAK256 SWAP1 JUMPDEST DUP2 SLOAD DUP2 MSTORE SWAP1 PUSH1 0x1 ADD SWAP1 PUSH1 0x20 ADD DUP1 DUP4 GT PUSH2 0x339 JUMPI DUP3 SWAP1 SUB PUSH1 0x1F AND DUP3 ADD SWAP2 JUMPDEST POP POP POP POP POP DUP3 DUP3 DUP2 MLOAD DUP2 LT PUSH2 0x36E JUMPI PUSH2 0x36D PUSH2 0xEA9 JUMP JUMPDEST JUMPDEST PUSH1 0x20 MUL PUSH1 0x20 ADD ADD DUP2 SWAP1 MSTORE POP DUP1 DUP1 PUSH1 0x1 ADD SWAP2 POP POP PUSH2 0x2A6 JUMP JUMPDEST POP DUP1 SWAP2 POP POP SWAP1 JUMP JUMPDEST PUSH0 PUSH1 0x1 DUP5 PUSH1 0x40 MLOAD PUSH2 0x39F SWAP2 SWAP1 PUSH2 0xF10 JUMP JUMPDEST SWAP1 DUP2 MSTORE PUSH1 0x20 ADD PUSH1 0x40 MLOAD DUP1 SWAP2 SUB SWAP1 KECCAK256 PUSH1 0x2 ADD DUP1 SLOAD PUSH2 0x3BB SWAP1 PUSH2 0xE79 JUMP JUMPDEST SWAP1 POP EQ PUSH2 0x3FD JUMPI PUSH1 0x40 MLOAD PUSH32 0x8C379A000000000000000000000000000000000000000000000000000000000 DUP2 MSTORE PUSH1 0x4 ADD PUSH2 0x3F4 SWAP1 PUSH2 0xF70 JUMP JUMPDEST PUSH1 0x40 MLOAD DUP1 SWAP2 SUB SWAP1 REVERT JUMPDEST PUSH0 PUSH20 0xFFFFFFFFFFFFFFFFFFFFFFFFFFFFFFFFFFFFFFFF AND DUP5 PUSH20 0xFFFFFFFFFFFFFFFFFFFFFFFFFFFFFFFFFFFFFFFF AND SUB PUSH2 0x46B JUMPI PUSH1 0x40 MLOAD PUSH32 0x8C379A000000000000000000000000000000000000000000000000000000000 DUP2 MSTORE PUSH1 0x4 ADD PUSH2 0x462 SWAP1 PUSH2 0xFD8 JUMP JUMPDEST PUSH1 0x40 MLOAD DUP1 SWAP2 SUB SWAP1 REVERT JUMPDEST PUSH0 DUP4 MLOAD GT PUSH2 0x4AE JUMPI PUSH1 0x40 MLOAD PUSH32 0x8C379A000000000000000000000000000000000000000000000000000000000 DUP2 MSTORE PUSH1 0x4 ADD PUSH2 0x4A5 SWAP1 PUSH2 0x1040 JUMP JUMPDEST PUSH1 0x40 MLOAD DUP1 SWAP2 SUB SWAP1 REVERT JUMPDEST PUSH0 DUP2 GT PUSH2 0x4F0 JUMPI PUSH1 0x40 MLOAD PUSH32 0x8C379A000000000000000000000000000000000000000000000000000000000 DUP2 MSTORE PUSH1 0x4 ADD PUSH2 0x4E7 SWAP1 PUSH2 0x10A8 JUMP JUMPDEST PUSH1 0x40 MLOAD DUP1 SWAP2 SUB SWAP1 REVERT JUMPDEST PUSH0 PUSH1 0x40 MLOAD DUP1 PUSH1 0xE0 ADD PUSH1 0x40 MSTORE DUP1 CALLER PUSH20 0xFFFFFFFFFFFFFFFFFFFFFFFFFFFFFFFFFFFFFFFF AND DUP2 MSTORE PUSH1 0x20 ADD DUP7 PUSH20 0xFFFFFFFFFFFFFFFFFFFFFFFFFFFFFFFFFFFFFFFF AND DUP2 MSTORE PUSH1 0x20 ADD DUP6 DUP2 MSTORE PUSH1 0x20 ADD DUP5 DUP2 MSTORE PUSH1 0x20 ADD DUP4 DUP2 MSTORE PUSH1 0x20 ADD PUSH0 DUP2 MSTORE PUSH1 0x20 ADD PUSH0 ISZERO ISZERO DUP2 MSTORE POP SWAP1 POP DUP1 PUSH1 0x1 DUP6 PUSH1 0x40 MLOAD PUSH2 0x565 SWAP2 SWAP1 PUSH2 0xF10 JUMP JUMPDEST SWAP1 DUP2 MSTORE PUSH1 0x20 ADD PUSH1 0x40 MLOAD DUP1 SWAP2 SUB SWAP1 KECCAK256 PUSH0 DUP3 ADD MLOAD DUP2 PUSH0 ADD PUSH0 PUSH2 0x100 EXP DUP2 SLOAD DUP2 PUSH20 0xFFFFFFFFFFFFFFFFFFFFFFFFFFFFFFFFFFFFFFFF MUL NOT AND SWAP1 DUP4 PUSH20 0xFFFFFFFFFFFFFFFFFFFFFFFFFFFFFFFFFFFFFFFF AND MUL OR SWAP1 SSTORE POP PUSH1 0x20 DUP3 ADD MLOAD DUP2 PUSH1 0x1 ADD PUSH0 PUSH2 0x100 EXP DUP2 SLOAD DUP2 PUSH20 0xFFFFFFFFFFFFFFFFFFFFFFFFFFFFFFFFFFFFFFFF MUL NOT AND SWAP1 DUP4 PUSH20 0xFFFFFFFFFFFFFFFFFFFFFFFFFFFFFFFFFFFFFFFF AND MUL OR SWAP1 SSTORE POP PUSH1 0x40 DUP3 ADD MLOAD DUP2 PUSH1 0x2 ADD SWAP1 DUP2 PUSH2 0x612 SWAP2 SWAP1 PUSH2 0x1263 JUMP JUMPDEST POP PUSH1 0x60 DUP3 ADD MLOAD DUP2 PUSH1 0x3 ADD SSTORE PUSH1 0x80 DUP3 ADD MLOAD DUP2 PUSH1 0x4 ADD SSTORE PUSH1 0xA0 DUP3 ADD MLOAD DUP2 PUSH1 0x5 ADD SSTORE PUSH1 0xC0 DUP3 ADD MLOAD DUP2 PUSH1 0x6 ADD PUSH0 PUSH2 0x100 EXP DUP2 SLOAD DUP2 PUSH1 0xFF MUL NOT AND SWAP1 DUP4 ISZERO ISZERO MUL OR SWAP1 SSTORE POP SWAP1 POP POP PUSH0 DUP2 SWAP1 DUP1 PUSH1 0x1 DUP2 SLOAD ADD DUP1 DUP3 SSTORE DUP1 SWAP2 POP POP PUSH1 0x1 SWAP1 SUB SWAP1 PUSH0 MSTORE PUSH1 0x20 PUSH0 KECCAK256 SWAP1 PUSH1 0x7 MUL ADD PUSH0 SWAP1 SWAP2 SWAP1 SWAP2 SWAP1 SWAP2 POP PUSH0 DUP3 ADD MLOAD DUP2 PUSH0 ADD PUSH0 PUSH2 0x100 EXP DUP2 SLOAD DUP2 PUSH20 0xFFFFFFFFFFFFFFFFFFFFFFFFFFFFFFFFFFFFFFFF MUL NOT AND SWAP1 DUP4 PUSH20 0xFFFFFFFFFFFFFFFFFFFFFFFFFFFFFFFFFFFFFFFF AND MUL OR SWAP1 SSTORE POP PUSH1 0x20 DUP3 ADD MLOAD DUP2 PUSH1 0x1 ADD PUSH0 PUSH2 0x100 EXP DUP2 SLOAD DUP2 PUSH20 0xFFFFFFFFFFFFFFFFFFFFFFFFFFFFFFFFFFFFFFFF MUL NOT AND SWAP1 DUP4 PUSH20 0xFFFFFFFFFFFFFFFFFFFFFFFFFFFFFFFFFFFFFFFF AND MUL OR SWAP1 SSTORE POP PUSH1 0x40 DUP3 ADD MLOAD DUP2 PUSH1 0x2 ADD SWAP1 DUP2 PUSH2 0x71A SWAP2 SWAP1 PUSH2 0x1263 JUMP JUMPDEST POP PUSH1 0x60 DUP3 ADD MLOAD DUP2 PUSH1 0x3 ADD SSTORE PUSH1 0x80 DUP3 ADD MLOAD DUP2 PUSH1 0x4 ADD SSTORE PUSH1 0xA0 DUP3 ADD MLOAD DUP2 PUSH1 0x5 ADD SSTORE PUSH1 0xC0 DUP3 ADD MLOAD DUP2 PUSH1 0x6 ADD PUSH0 PUSH2 0x100 EXP DUP2 SLOAD DUP2 PUSH1 0xFF MUL NOT AND SWAP1 DUP4 ISZERO ISZERO MUL OR SWAP1 SSTORE POP POP POP POP POP POP POP POP JUMP JUMPDEST PUSH0 DUP1 PUSH0 PUSH1 0x1 DUP5 PUSH1 0x40 MLOAD PUSH2 0x774 SWAP2 SWAP1 PUSH2 0xF10 JUMP JUMPDEST SWAP1 DUP2 MSTORE PUSH1 0x20 ADD PUSH1 0x40 MLOAD DUP1 SWAP2 SUB SWAP1 KECCAK256 PUSH1 0x1 ADD PUSH0 SWAP1 SLOAD SWAP1 PUSH2 0x100 EXP SWAP1 DIV PUSH20 0xFFFFFFFFFFFFFFFFFFFFFFFFFFFFFFFFFFFFFFFF AND PUSH1 0x1 DUP6 PUSH1 0x40 MLOAD PUSH2 0x7B5 SWAP2 SWAP1 PUSH2 0xF10 JUMP JUMPDEST SWAP1 DUP2 MSTORE PUSH1 0x20 ADD PUSH1 0x40 MLOAD DUP1 SWAP2 SUB SWAP1 KECCAK256 PUSH1 0x5 ADD SLOAD PUSH1 0x1 DUP7 PUSH1 0x40 MLOAD PUSH2 0x7D7 SWAP2 SWAP1 PUSH2 0xF10 JUMP JUMPDEST SWAP1 DUP2 MSTORE PUSH1 0x20 ADD PUSH1 0x40 MLOAD DUP1 SWAP2 SUB SWAP1 KECCAK256 PUSH1 0x3 ADD SLOAD SWAP3 POP SWAP3 POP SWAP3 POP SWAP2 SWAP4 SWAP1 SWAP3 POP JUMP JUMPDEST PUSH1 0x1 DUP2 DUP1 MLOAD PUSH1 0x20 DUP2 ADD DUP3 ADD DUP1 MLOAD DUP5 DUP3 MSTORE PUSH1 0x20 DUP4 ADD PUSH1 0x20 DUP6 ADD KECCAK256 DUP2 DUP4 MSTORE DUP1 SWAP6 POP POP POP POP POP POP PUSH0 SWAP2 POP SWAP1 POP DUP1 PUSH0 ADD PUSH0 SWAP1 SLOAD SWAP1 PUSH2 0x100 EXP SWAP1 DIV PUSH20 0xFFFFFFFFFFFFFFFFFFFFFFFFFFFFFFFFFFFFFFFF AND SWAP1 DUP1 PUSH1 0x1 ADD PUSH0 SWAP1 SLOAD SWAP1 PUSH2 0x100 EXP SWAP1 DIV PUSH20 0xFFFFFFFFFFFFFFFFFFFFFFFFFFFFFFFFFFFFFFFF AND SWAP1 DUP1 PUSH1 0x2 ADD DUP1 SLOAD PUSH2 0x877 SWAP1 PUSH2 0xE79 JUMP JUMPDEST DUP1 PUSH1 0x1F ADD PUSH1 0x20 DUP1 SWAP2 DIV MUL PUSH1 0x20 ADD PUSH1 0x40 MLOAD SWAP1 DUP2 ADD PUSH1 0x40 MSTORE DUP1 SWAP3 SWAP2 SWAP1 DUP2 DUP2 MSTORE PUSH1 0x20 ADD DUP3 DUP1 SLOAD PUSH2 0x8A3 SWAP1 PUSH2 0xE79 JUMP JUMPDEST DUP1 ISZERO PUSH2 0x8EE JUMPI DUP1 PUSH1 0x1F LT PUSH2 0x8C5 JUMPI PUSH2 0x100 DUP1 DUP4 SLOAD DIV MUL DUP4 MSTORE SWAP2 PUSH1 0x20 ADD SWAP2 PUSH2 0x8EE JUMP JUMPDEST DUP3 ADD SWAP2 SWAP1 PUSH0 MSTORE PUSH1 0x20 PUSH0 KECCAK256 SWAP1 JUMPDEST DUP2 SLOAD DUP2 MSTORE SWAP1 PUSH1 0x1 ADD SWAP1 PUSH1 0x20 ADD DUP1 DUP4 GT PUSH2 0x8D1 JUMPI DUP3 SWAP1 SUB PUSH1 0x1F AND DUP3 ADD SWAP2 JUMPDEST POP POP POP POP POP SWAP1 DUP1 PUSH1 0x3 ADD SLOAD SWAP1 DUP1 PUSH1 0x4 ADD SLOAD SWAP1 DUP1 PUSH1 0x5 ADD SLOAD SWAP1 DUP1 PUSH1 0x6 ADD PUSH0 SWAP1 SLOAD SWAP1 PUSH2 0x100 EXP SWAP1 DIV PUSH1 0xFF AND SWAP1 POP DUP8 JUMP JUMPDEST PUSH0 PUSH1 0x40 MLOAD SWAP1 POP SWAP1 JUMP JUMPDEST PUSH0 DUP1 REVERT JUMPDEST PUSH0 DUP1 REVERT JUMPDEST PUSH0 DUP2 SWAP1 POP SWAP2 SWAP1 POP JUMP JUMPDEST PUSH2 0x93F DUP2 PUSH2 0x92D JUMP JUMPDEST DUP2 EQ PUSH2 0x949 JUMPI PUSH0 DUP1 REVERT JUMPDEST POP JUMP JUMPDEST PUSH0 DUP2 CALLDATALOAD SWAP1 POP PUSH2 0x95A DUP2 PUSH2 0x936 JUMP JUMPDEST SWAP3 SWAP2 POP POP JUMP JUMPDEST PUSH0 PUSH1 0x20 DUP3 DUP5 SUB SLT ISZERO PUSH2 0x975 JUMPI PUSH2 0x974 PUSH2 0x925 JUMP JUMPDEST JUMPDEST PUSH0 PUSH2 0x982 DUP5 DUP3 DUP6 ADD PUSH2 0x94C JUMP JUMPDEST SWAP2 POP POP SWAP3 SWAP2 POP POP JUMP JUMPDEST PUSH0 PUSH20 0xFFFFFFFFFFFFFFFFFFFFFFFFFFFFFFFFFFFFFFFF DUP3 AND SWAP1 POP SWAP2 SWAP1 POP JUMP JUMPDEST PUSH0 PUSH2 0x9B4 DUP3 PUSH2 0x98B JUMP JUMPDEST SWAP1 POP SWAP2 SWAP1 POP JUMP JUMPDEST PUSH2 0x9C4 DUP2 PUSH2 0x9AA JUMP JUMPDEST DUP3 MSTORE POP POP JUMP JUMPDEST PUSH0 DUP2 MLOAD SWAP1 POP SWAP2 SWAP1 POP JUMP JUMPDEST PUSH0 DUP3 DUP3 MSTORE PUSH1 0x20 DUP3 ADD SWAP1 POP SWAP3 SWAP2 POP POP JUMP JUMPDEST DUP3 DUP2 DUP4 MCOPY PUSH0 DUP4 DUP4 ADD MSTORE POP POP POP JUMP JUMPDEST PUSH0 PUSH1 0x1F NOT PUSH1 0x1F DUP4 ADD AND SWAP1 POP SWAP2 SWAP1 POP JUMP JUMPDEST PUSH0 PUSH2 0xA0C DUP3 PUSH2 0x9CA JUMP JUMPDEST PUSH2 0xA16 DUP2 DUP6 PUSH2 0x9D4 JUMP JUMPDEST SWAP4 POP PUSH2 0xA26 DUP2 DUP6 PUSH1 0x20 DUP7 ADD PUSH2 0x9E4 JUMP JUMPDEST PUSH2 0xA2F DUP2 PUSH2 0x9F2 JUMP JUMPDEST DUP5 ADD SWAP2 POP POP SWAP3 SWAP2 POP POP JUMP JUMPDEST PUSH2 0xA43 DUP2 PUSH2 0x92D JUMP JUMPDEST DUP3 MSTORE POP POP JUMP JUMPDEST PUSH0 DUP2 ISZERO ISZERO SWAP1 POP SWAP2 SWAP1 POP JUMP JUMPDEST PUSH2 0xA5D DUP2 PUSH2 0xA49 JUMP JUMPDEST DUP3 MSTORE POP POP JUMP JUMPDEST PUSH0 PUSH1 0xE0 DUP3 ADD SWAP1 POP PUSH2 0xA76 PUSH0 DUP4 ADD DUP11 PUSH2 0x9BB JUMP JUMPDEST PUSH2 0xA83 PUSH1 0x20 DUP4 ADD DUP10 PUSH2 0x9BB JUMP JUMPDEST DUP2 DUP2 SUB PUSH1 0x40 DUP4 ADD MSTORE PUSH2 0xA95 DUP2 DUP9 PUSH2 0xA02 JUMP JUMPDEST SWAP1 POP PUSH2 0xAA4 PUSH1 0x60 DUP4 ADD DUP8 PUSH2 0xA3A JUMP JUMPDEST PUSH2 0xAB1 PUSH1 0x80 DUP4 ADD DUP7 PUSH2 0xA3A JUMP JUMPDEST PUSH2 0xABE PUSH1 0xA0 DUP4 ADD DUP6 PUSH2 0xA3A JUMP JUMPDEST PUSH2 0xACB PUSH1 0xC0 DUP4 ADD DUP5 PUSH2 0xA54 JUMP JUMPDEST SWAP9 SWAP8 POP POP POP POP POP POP POP POP JUMP JUMPDEST PUSH0 DUP2 MLOAD SWAP1 POP SWAP2 SWAP1 POP JUMP JUMPDEST PUSH0 DUP3 DUP3 MSTORE PUSH1 0x20 DUP3 ADD SWAP1 POP SWAP3 SWAP2 POP POP JUMP JUMPDEST PUSH0 DUP2 SWAP1 POP PUSH1 0x20 DUP3 ADD SWAP1 POP SWAP2 SWAP1 POP JUMP JUMPDEST PUSH0 DUP3 DUP3 MSTORE PUSH1 0x20 DUP3 ADD SWAP1 POP SWAP3 SWAP2 POP POP JUMP JUMPDEST PUSH0 PUSH2 0xB1A DUP3 PUSH2 0x9CA JUMP JUMPDEST PUSH2 0xB24 DUP2 DUP6 PUSH2 0xB00 JUMP JUMPDEST SWAP4 POP PUSH2 0xB34 DUP2 DUP6 PUSH1 0x20 DUP7 ADD PUSH2 0x9E4 JUMP JUMPDEST PUSH2 0xB3D DUP2 PUSH2 0x9F2 JUMP JUMPDEST DUP5 ADD SWAP2 POP POP SWAP3 SWAP2 POP POP JUMP JUMPDEST PUSH0 PUSH2 0xB53 DUP4 DUP4 PUSH2 0xB10 JUMP JUMPDEST SWAP1 POP SWAP3 SWAP2 POP POP JUMP JUMPDEST PUSH0 PUSH1 0x20 DUP3 ADD SWAP1 POP SWAP2 SWAP1 POP JUMP JUMPDEST PUSH0 PUSH2 0xB71 DUP3 PUSH2 0xAD7 JUMP JUMPDEST PUSH2 0xB7B DUP2 DUP6 PUSH2 0xAE1 JUMP JUMPDEST SWAP4 POP DUP4 PUSH1 0x20 DUP3 MUL DUP6 ADD PUSH2 0xB8D DUP6 PUSH2 0xAF1 JUMP JUMPDEST DUP1 PUSH0 JUMPDEST DUP6 DUP2 LT ISZERO PUSH2 0xBC8 JUMPI DUP5 DUP5 SUB DUP10 MSTORE DUP2 MLOAD PUSH2 0xBA9 DUP6 DUP3 PUSH2 0xB48 JUMP JUMPDEST SWAP5 POP PUSH2 0xBB4 DUP4 PUSH2 0xB5B JUMP JUMPDEST SWAP3 POP PUSH1 0x20 DUP11 ADD SWAP10 POP POP PUSH1 0x1 DUP2 ADD SWAP1 POP PUSH2 0xB90 JUMP JUMPDEST POP DUP3 SWAP8 POP DUP8 SWAP6 POP POP POP POP POP POP SWAP3 SWAP2 POP POP JUMP JUMPDEST PUSH0 PUSH1 0x20 DUP3 ADD SWAP1 POP DUP2 DUP2 SUB PUSH0 DUP4 ADD MSTORE PUSH2 0xBF2 DUP2 DUP5 PUSH2 0xB67 JUMP JUMPDEST SWAP1 POP SWAP3 SWAP2 POP POP JUMP JUMPDEST PUSH2 0xC03 DUP2 PUSH2 0x9AA JUMP JUMPDEST DUP2 EQ PUSH2 0xC0D JUMPI PUSH0 DUP1 REVERT JUMPDEST POP JUMP JUMPDEST PUSH0 DUP2 CALLDATALOAD SWAP1 POP PUSH2 0xC1E DUP2 PUSH2 0xBFA JUMP JUMPDEST SWAP3 SWAP2 POP POP JUMP JUMPDEST PUSH0 DUP1 REVERT JUMPDEST PUSH0 DUP1 REVERT JUMPDEST PUSH32 0x4E487B7100000000000000000000000000000000000000000000000000000000 PUSH0 MSTORE PUSH1 0x41 PUSH1 0x4 MSTORE PUSH1 0x24 PUSH0 REVERT JUMPDEST PUSH2 0xC62 DUP3 PUSH2 0x9F2 JUMP JUMPDEST DUP2 ADD DUP2 DUP2 LT PUSH8 0xFFFFFFFFFFFFFFFF DUP3 GT OR ISZERO PUSH2 0xC81 JUMPI PUSH2 0xC80 PUSH2 0xC2C JUMP JUMPDEST JUMPDEST DUP1 PUSH1 0x40 MSTORE POP POP POP JUMP JUMPDEST PUSH0 PUSH2 0xC93 PUSH2 0x91C JUMP JUMPDEST SWAP1 POP PUSH2 0xC9F DUP3 DUP3 PUSH2 0xC59 JUMP JUMPDEST SWAP2 SWAP1 POP JUMP JUMPDEST PUSH0 PUSH8 0xFFFFFFFFFFFFFFFF DUP3 GT ISZERO PUSH2 0xCBE JUMPI PUSH2 0xCBD PUSH2 0xC2C JUMP JUMPDEST JUMPDEST PUSH2 0xCC7 DUP3 PUSH2 0x9F2 JUMP JUMPDEST SWAP1 POP PUSH1 0x20 DUP2 ADD SWAP1 POP SWAP2 SWAP1 POP JUMP JUMPDEST DUP3 DUP2 DUP4 CALLDATACOPY PUSH0 DUP4 DUP4 ADD MSTORE POP POP POP JUMP JUMPDEST PUSH0 PUSH2 0xCF4 PUSH2 0xCEF DUP5 PUSH2 0xCA4 JUMP JUMPDEST PUSH2 0xC8A JUMP JUMPDEST SWAP1 POP DUP3 DUP2 MSTORE PUSH1 0x20 DUP2 ADD DUP5 DUP5 DUP5 ADD GT ISZERO PUSH2 0xD10 JUMPI PUSH2 0xD0F PUSH2 0xC28 JUMP JUMPDEST JUMPDEST PUSH2 0xD1B DUP5 DUP3 DUP6 PUSH2 0xCD4 JUMP JUMPDEST POP SWAP4 SWAP3 POP POP POP JUMP JUMPDEST PUSH0 DUP3 PUSH1 0x1F DUP4 ADD SLT PUSH2 0xD37 JUMPI PUSH2 0xD36 PUSH2 0xC24 JUMP JUMPDEST JUMPDEST DUP2 CALLDATALOAD PUSH2 0xD47 DUP5 DUP3 PUSH1 0x20 DUP7 ADD PUSH2 0xCE2 JUMP JUMPDEST SWAP2 POP POP SWAP3 SWAP2 POP POP JUMP JUMPDEST PUSH0 DUP1 PUSH0 DUP1 PUSH1 0x80 DUP6 DUP8 SUB SLT ISZERO PUSH2 0xD68 JUMPI PUSH2 0xD67 PUSH2 0x925 JUMP JUMPDEST JUMPDEST PUSH0 PUSH2 0xD75 DUP8 DUP3 DUP9 ADD PUSH2 0xC10 JUMP JUMPDEST SWAP5 POP POP PUSH1 0x20 DUP6 ADD CALLDATALOAD PUSH8 0xFFFFFFFFFFFFFFFF DUP2 GT ISZERO PUSH2 0xD96 JUMPI PUSH2 0xD95 PUSH2 0x929 JUMP JUMPDEST JUMPDEST PUSH2 0xDA2 DUP8 DUP3 DUP9 ADD PUSH2 0xD23 JUMP JUMPDEST SWAP4 POP POP PUSH1 0x40 PUSH2 0xDB3 DUP8 DUP3 DUP9 ADD PUSH2 0x94C JUMP JUMPDEST SWAP3 POP POP PUSH1 0x60 PUSH2 0xDC4 DUP8 DUP3 DUP9 ADD PUSH2 0x94C JUMP JUMPDEST SWAP2 POP POP SWAP3 SWAP6 SWAP2 SWAP5 POP SWAP3 POP JUMP JUMPDEST PUSH0 PUSH1 0x20 DUP3 DUP5 SUB SLT ISZERO PUSH2 0xDE5 JUMPI PUSH2 0xDE4 PUSH2 0x925 JUMP JUMPDEST JUMPDEST PUSH0 DUP3 ADD CALLDATALOAD PUSH8 0xFFFFFFFFFFFFFFFF DUP2 GT ISZERO PUSH2 0xE02 JUMPI PUSH2 0xE01 PUSH2 0x929 JUMP JUMPDEST JUMPDEST PUSH2 0xE0E DUP5 DUP3 DUP6 ADD PUSH2 0xD23 JUMP JUMPDEST SWAP2 POP POP SWAP3 SWAP2 POP POP JUMP JUMPDEST PUSH0 PUSH1 0x60 DUP3 ADD SWAP1 POP PUSH2 0xE2A PUSH0 DUP4 ADD DUP7 PUSH2 0x9BB JUMP JUMPDEST PUSH2 0xE37 PUSH1 0x20 DUP4 ADD DUP6 PUSH2 0xA3A JUMP JUMPDEST PUSH2 0xE44 PUSH1 0x40 DUP4 ADD DUP5 PUSH2 0xA3A JUMP JUMPDEST SWAP5 SWAP4 POP POP POP POP JUMP JUMPDEST PUSH32 0x4E487B7100000000000000000000000000000000000000000000000000000000 PUSH0 MSTORE PUSH1 0x22 PUSH1 0x4 MSTORE PUSH1 0x24 PUSH0 REVERT JUMPDEST PUSH0 PUSH1 0x2 DUP3 DIV SWAP1 POP PUSH1 0x1 DUP3 AND DUP1 PUSH2 0xE90 JUMPI PUSH1 0x7F DUP3 AND SWAP2 POP JUMPDEST PUSH1 0x20 DUP3 LT DUP2 SUB PUSH2 0xEA3 JUMPI PUSH2 0xEA2 PUSH2 0xE4C JUMP JUMPDEST JUMPDEST POP SWAP2 SWAP1 POP JUMP JUMPDEST PUSH32 0x4E487B7100000000000000000000000000000000000000000000000000000000 PUSH0 MSTORE PUSH1 0x32 PUSH1 0x4 MSTORE PUSH1 0x24 PUSH0 REVERT JUMPDEST PUSH0 DUP2 SWAP1 POP SWAP3 SWAP2 POP POP JUMP JUMPDEST PUSH0 PUSH2 0xEEA DUP3 PUSH2 0x9CA JUMP JUMPDEST PUSH2 0xEF4 DUP2 DUP6 PUSH2 0xED6 JUMP JUMPDEST SWAP4 POP PUSH2 0xF04 DUP2 DUP6 PUSH1 0x20 DUP7 ADD PUSH2 0x9E4 JUMP JUMPDEST DUP1 DUP5 ADD SWAP2 POP POP SWAP3 SWAP2 POP POP JUMP JUMPDEST PUSH0 PUSH2 0xF1B DUP3 DUP5 PUSH2 0xEE0 JUMP JUMPDEST SWAP2 POP DUP2 SWAP1 POP SWAP3 SWAP2 POP POP JUMP JUMPDEST PUSH32 0x47757920796F75206E6F2066697420637265617465206E616D65206E69690000 PUSH0 DUP3 ADD MSTORE POP JUMP JUMPDEST PUSH0 PUSH2 0xF5A PUSH1 0x1E DUP4 PUSH2 0x9D4 JUMP JUMPDEST SWAP2 POP PUSH2 0xF65 DUP3 PUSH2 0xF26 JUMP JUMPDEST PUSH1 0x20 DUP3 ADD SWAP1 POP SWAP2 SWAP1 POP JUMP JUMPDEST PUSH0 PUSH1 0x20 DUP3 ADD SWAP1 POP DUP2 DUP2 SUB PUSH0 DUP4 ADD MSTORE PUSH2 0xF87 DUP2 PUSH2 0xF4E JUMP JUMPDEST SWAP1 POP SWAP2 SWAP1 POP JUMP JUMPDEST PUSH32 0x5768696368206B696E6420616464726573732062652074686973000000000000 PUSH0 DUP3 ADD MSTORE POP JUMP JUMPDEST PUSH0 PUSH2 0xFC2 PUSH1 0x1A DUP4 PUSH2 0x9D4 JUMP JUMPDEST SWAP2 POP PUSH2 0xFCD DUP3 PUSH2 0xF8E JUMP JUMPDEST PUSH1 0x20 DUP3 ADD SWAP1 POP SWAP2 SWAP1 POP JUMP JUMPDEST PUSH0 PUSH1 0x20 DUP3 ADD SWAP1 POP DUP2 DUP2 SUB PUSH0 DUP4 ADD MSTORE PUSH2 0xFEF DUP2 PUSH2 0xFB6 JUMP JUMPDEST SWAP1 POP SWAP2 SWAP1 POP JUMP JUMPDEST PUSH32 0x596F75722063616D706169676E206E6F20676574206E616D6500000000000000 PUSH0 DUP3 ADD MSTORE POP JUMP JUMPDEST PUSH0 PUSH2 0x102A PUSH1 0x19 DUP4 PUSH2 0x9D4 JUMP JUMPDEST SWAP2 POP PUSH2 0x1035 DUP3 PUSH2 0xFF6 JUMP JUMPDEST PUSH1 0x20 DUP3 ADD SWAP1 POP SWAP2 SWAP1 POP JUMP JUMPDEST PUSH0 PUSH1 0x20 DUP3 ADD SWAP1 POP DUP2 DUP2 SUB PUSH0 DUP4 ADD MSTORE PUSH2 0x1057 DUP2 PUSH2 0x101E JUMP JUMPDEST SWAP1 POP SWAP2 SWAP1 POP JUMP JUMPDEST PUSH32 0x42727568682063616E20796F75206E6F7420646F20746861743F000000000000 PUSH0 DUP3 ADD MSTORE POP JUMP JUMPDEST PUSH0 PUSH2 0x1092 PUSH1 0x1A DUP4 PUSH2 0x9D4 JUMP JUMPDEST SWAP2 POP PUSH2 0x109D DUP3 PUSH2 0x105E JUMP JUMPDEST PUSH1 0x20 DUP3 ADD SWAP1 POP SWAP2 SWAP1 POP JUMP JUMPDEST PUSH0 PUSH1 0x20 DUP3 ADD SWAP1 POP DUP2 DUP2 SUB PUSH0 DUP4 ADD MSTORE PUSH2 0x10BF DUP2 PUSH2 0x1086 JUMP JUMPDEST SWAP1 POP SWAP2 SWAP1 POP JUMP JUMPDEST PUSH0 DUP2 SWAP1 POP DUP2 PUSH0 MSTORE PUSH1 0x20 PUSH0 KECCAK256 SWAP1 POP SWAP2 SWAP1 POP JUMP JUMPDEST PUSH0 PUSH1 0x20 PUSH1 0x1F DUP4 ADD DIV SWAP1 POP SWAP2 SWAP1 POP JUMP JUMPDEST PUSH0 DUP3 DUP3 SHL SWAP1 POP SWAP3 SWAP2 POP POP JUMP JUMPDEST PUSH0 PUSH1 0x8 DUP4 MUL PUSH2 0x1122 PUSH32 0xFFFFFFFFFFFFFFFFFFFFFFFFFFFFFFFFFFFFFFFFFFFFFFFFFFFFFFFFFFFFFFFF DUP3 PUSH2 0x10E7 JUMP JUMPDEST PUSH2 0x112C DUP7 DUP4 PUSH2 0x10E7 JUMP JUMPDEST SWAP6 POP DUP1 NOT DUP5 AND SWAP4 POP DUP1 DUP7 AND DUP5 OR SWAP3 POP POP POP SWAP4 SWAP3 POP POP POP JUMP JUMPDEST PUSH0 DUP2 SWAP1 POP SWAP2 SWAP1 POP JUMP JUMPDEST PUSH0 PUSH2 0x1167 PUSH2 0x1162 PUSH2 0x115D DUP5 PUSH2 0x92D JUMP JUMPDEST PUSH2 0x1144 JUMP JUMPDEST PUSH2 0x92D JUMP JUMPDEST SWAP1 POP SWAP2 SWAP1 POP JUMP JUMPDEST PUSH0 DUP2 SWAP1 POP SWAP2 SWAP1 POP JUMP JUMPDEST PUSH2 0x1180 DUP4 PUSH2 0x114D JUMP JUMPDEST PUSH2 0x1194 PUSH2 0x118C DUP3 PUSH2 0x116E JUMP JUMPDEST DUP5 DUP5 SLOAD PUSH2 0x10F3 JUMP JUMPDEST DUP3 SSTORE POP POP POP POP JUMP JUMPDEST PUSH0 SWAP1 JUMP JUMPDEST PUSH2 0x11A8 PUSH2 0x119C JUMP JUMPDEST PUSH2 0x11B3 DUP2 DUP5 DUP5 PUSH2 0x1177 JUMP JUMPDEST POP POP POP JUMP JUMPDEST JUMPDEST DUP2 DUP2 LT ISZERO PUSH2 0x11D6 JUMPI PUSH2 0x11CB PUSH0 DUP3 PUSH2 0x11A0 JUMP JUMPDEST PUSH1 0x1 DUP2 ADD SWAP1 POP PUSH2 0x11B9 JUMP JUMPDEST POP POP JUMP JUMPDEST PUSH1 0x1F DUP3 GT ISZERO PUSH2 0x121B JUMPI PUSH2 0x11EC DUP2 PUSH2 0x10C6 JUMP JUMPDEST PUSH2 0x11F5 DUP5 PUSH2 0x10D8 JUMP JUMPDEST DUP2 ADD PUSH1 0x20 DUP6 LT ISZERO PUSH2 0x1204 JUMPI DUP2 SWAP1 POP JUMPDEST PUSH2 0x1218 PUSH2 0x1210 DUP6 PUSH2 0x10D8 JUMP JUMPDEST DUP4 ADD DUP3 PUSH2 0x11B8 JUMP JUMPDEST POP POP JUMPDEST POP POP POP JUMP JUMPDEST PUSH0 DUP3 DUP3 SHR SWAP1 POP SWAP3 SWAP2 POP POP JUMP JUMPDEST PUSH0 PUSH2 0x123B PUSH0 NOT DUP5 PUSH1 0x8 MUL PUSH2 0x1220 JUMP JUMPDEST NOT DUP1 DUP4 AND SWAP2 POP POP SWAP3 SWAP2 POP POP JUMP JUMPDEST PUSH0 PUSH2 0x1253 DUP4 DUP4 PUSH2 0x122C JUMP JUMPDEST SWAP2 POP DUP3 PUSH1 0x2 MUL DUP3 OR SWAP1 POP SWAP3 SWAP2 POP POP JUMP JUMPDEST PUSH2 0x126C DUP3 PUSH2 0x9CA JUMP JUMPDEST PUSH8 0xFFFFFFFFFFFFFFFF DUP2 GT ISZERO PUSH2 0x1285 JUMPI PUSH2 0x1284 PUSH2 0xC2C JUMP JUMPDEST JUMPDEST PUSH2 0x128F DUP3 SLOAD PUSH2 0xE79 JUMP JUMPDEST PUSH2 0x129A DUP3 DUP3 DUP6 PUSH2 0x11DA JUMP JUMPDEST PUSH0 PUSH1 0x20 SWAP1 POP PUSH1 0x1F DUP4 GT PUSH1 0x1 DUP2 EQ PUSH2 0x12CB JUMPI PUSH0 DUP5 ISZERO PUSH2 0x12B9 JUMPI DUP3 DUP8 ADD MLOAD SWAP1 POP JUMPDEST PUSH2 0x12C3 DUP6 DUP3 PUSH2 0x1248 JUMP JUMPDEST DUP7 SSTORE POP PUSH2 0x132A JUMP JUMPDEST PUSH1 0x1F NOT DUP5 AND PUSH2 0x12D9 DUP7 PUSH2 0x10C6 JUMP JUMPDEST PUSH0 JUMPDEST DUP3 DUP2 LT ISZERO PUSH2 0x1300 JUMPI DUP5 DUP10 ADD MLOAD DUP3 SSTORE PUSH1 0x1 DUP3 ADD SWAP2 POP PUSH1 0x20 DUP6 ADD SWAP5 POP PUSH1 0x20 DUP2 ADD SWAP1 POP PUSH2 0x12DB JUMP JUMPDEST DUP7 DUP4 LT ISZERO PUSH2 0x131D JUMPI DUP5 DUP10 ADD MLOAD PUSH2 0x1319 PUSH1 0x1F DUP10 AND DUP3 PUSH2 0x122C JUMP JUMPDEST DUP4 SSTORE POP JUMPDEST PUSH1 0x1 PUSH1 0x2 DUP9 MUL ADD DUP9 SSTORE POP POP POP JUMPDEST POP POP POP POP POP POP JUMP INVALID LOG2 PUSH5 0x6970667358 0x22 SLT KECCAK256 0xDF DUP8 GT DUP16 CALLDATASIZE 0xCD 0xC1 CALLDATALOAD 0x4E 0xDF AND MCOPY 0xCB CALLER DUP15 GASLIMIT TIMESTAMP 0xD SWAP16 0xCA SLOAD 0xAB DUP5 0xF6 ADDRESS SAR CODECOPY 0xBA 0xCD PUSH26 0xF6E164736F6C634300081A003300000000000000000000000000 "
				},
				"gasEstimates": {
					"creation": {
						"codeDepositCost": "993600",
						"executionCost": "1032",
						"totalCost": "994632"
					},
					"external": {
						"campaignList(uint256)": "infinite",
						"createCampaign(address,string,uint256,uint256)": "infinite",
						"getAllCampaigns()": "infinite",
						"getCampaigns(string)": "infinite",
						"titleToCampaign(string)": "infinite"
					}
				},
				"methodIdentifiers": {
					"campaignList(uint256)": "4912c658",
					"createCampaign(address,string,uint256,uint256)": "90f9f50c",
					"getAllCampaigns()": "86cdf604",
					"getCampaigns(string)": "9fb9f379",
					"titleToCampaign(string)": "c50a40d0"
				}
			},
			"storageLayout": {
				"storage": [
					{
						"astId": 20,
						"contract": "CrowdFundingApp/Factory.sol:Factory",
						"label": "campaignList",
						"offset": 0,
						"slot": "0",
						"type": "t_array(t_struct(Campaign)16_storage)dyn_storage"
					},
					{
						"astId": 25,
						"contract": "CrowdFundingApp/Factory.sol:Factory",
						"label": "titleToCampaign",
						"offset": 0,
						"slot": "1",
						"type": "t_mapping(t_string_memory_ptr,t_struct(Campaign)16_storage)"
					}
				],
				"types": {
					"t_address_payable": {
						"encoding": "inplace",
						"label": "address payable",
						"numberOfBytes": "20"
					},
					"t_array(t_struct(Campaign)16_storage)dyn_storage": {
						"base": "t_struct(Campaign)16_storage",
						"encoding": "dynamic_array",
						"label": "struct Factory.Campaign[]",
						"numberOfBytes": "32"
					},
					"t_bool": {
						"encoding": "inplace",
						"label": "bool",
						"numberOfBytes": "1"
					},
					"t_mapping(t_string_memory_ptr,t_struct(Campaign)16_storage)": {
						"encoding": "mapping",
						"key": "t_string_memory_ptr",
						"label": "mapping(string => struct Factory.Campaign)",
						"numberOfBytes": "32",
						"value": "t_struct(Campaign)16_storage"
					},
					"t_string_memory_ptr": {
						"encoding": "bytes",
						"label": "string",
						"numberOfBytes": "32"
					},
					"t_string_storage": {
						"encoding": "bytes",
						"label": "string",
						"numberOfBytes": "32"
					},
					"t_struct(Campaign)16_storage": {
						"encoding": "inplace",
						"label": "struct Factory.Campaign",
						"members": [
							{
								"astId": 3,
								"contract": "CrowdFundingApp/Factory.sol:Factory",
								"label": "campaignOwner",
								"offset": 0,
								"slot": "0",
								"type": "t_address_payable"
							},
							{
								"astId": 5,
								"contract": "CrowdFundingApp/Factory.sol:Factory",
								"label": "beneficiary",
								"offset": 0,
								"slot": "1",
								"type": "t_address_payable"
							},
							{
								"astId": 7,
								"contract": "CrowdFundingApp/Factory.sol:Factory",
								"label": "title",
								"offset": 0,
								"slot": "2",
								"type": "t_string_storage"
							},
							{
								"astId": 9,
								"contract": "CrowdFundingApp/Factory.sol:Factory",
								"label": "deadline",
								"offset": 0,
								"slot": "3",
								"type": "t_uint256"
							},
							{
								"astId": 11,
								"contract": "CrowdFundingApp/Factory.sol:Factory",
								"label": "amountToRaise",
								"offset": 0,
								"slot": "4",
								"type": "t_uint256"
							},
							{
								"astId": 13,
								"contract": "CrowdFundingApp/Factory.sol:Factory",
								"label": "raisedAmount",
								"offset": 0,
								"slot": "5",
								"type": "t_uint256"
							},
							{
								"astId": 15,
								"contract": "CrowdFundingApp/Factory.sol:Factory",
								"label": "closed",
								"offset": 0,
								"slot": "6",
								"type": "t_bool"
							}
						],
						"numberOfBytes": "224"
					},
					"t_uint256": {
						"encoding": "inplace",
						"label": "uint256",
						"numberOfBytes": "32"
					}
				}
			},
			"userdoc": {
				"kind": "user",
				"methods": {},
				"version": 1
			}
		}
	}
}