{
	"CrowdFundingApp/Factory.sol": {
		"Factory": {
			"abi": [
				{
					"inputs": [
						{
							"internalType": "address payable",
							"name": "beneficiary",
							"type": "address"
						},
						{
							"internalType": "string",
							"name": "title",
							"type": "string"
						},
						{
							"internalType": "uint256",
							"name": "deadline",
							"type": "uint256"
						},
						{
							"internalType": "uint256",
							"name": "amountToRaise",
							"type": "uint256"
						}
					],
					"name": "addCampaign",
					"outputs": [],
					"stateMutability": "nonpayable",
					"type": "function"
				},
				{
					"inputs": [
						{
							"internalType": "uint256",
							"name": "",
							"type": "uint256"
						}
					],
					"name": "campaignList",
					"outputs": [
						{
							"internalType": "address payable",
							"name": "campaignOwner",
							"type": "address"
						},
						{
							"internalType": "address payable",
							"name": "beneficiary",
							"type": "address"
						},
						{
							"internalType": "string",
							"name": "title",
							"type": "string"
						},
						{
							"internalType": "uint256",
							"name": "deadline",
							"type": "uint256"
						},
						{
							"internalType": "uint256",
							"name": "amountToRaise",
							"type": "uint256"
						},
						{
							"internalType": "uint256",
							"name": "raisedAmount",
							"type": "uint256"
						},
						{
							"internalType": "bool",
							"name": "closed",
							"type": "bool"
						}
					],
					"stateMutability": "view",
					"type": "function"
				},
				{
					"inputs": [],
					"name": "getAllCampaigns",
					"outputs": [
						{
							"components": [
								{
									"internalType": "address payable",
									"name": "campaignOwner",
									"type": "address"
								},
								{
									"internalType": "address payable",
									"name": "beneficiary",
									"type": "address"
								},
								{
									"internalType": "string",
									"name": "title",
									"type": "string"
								},
								{
									"internalType": "uint256",
									"name": "deadline",
									"type": "uint256"
								},
								{
									"internalType": "uint256",
									"name": "amountToRaise",
									"type": "uint256"
								},
								{
									"internalType": "uint256",
									"name": "raisedAmount",
									"type": "uint256"
								},
								{
									"internalType": "bool",
									"name": "closed",
									"type": "bool"
								}
							],
							"internalType": "struct Factory.Campaign[]",
							"name": "_campaignList",
							"type": "tuple[]"
						}
					],
					"stateMutability": "pure",
					"type": "function"
				},
				{
					"inputs": [
						{
							"internalType": "string",
							"name": "",
							"type": "string"
						}
					],
					"name": "titleToCampaign",
					"outputs": [
						{
							"internalType": "address payable",
							"name": "campaignOwner",
							"type": "address"
						},
						{
							"internalType": "address payable",
							"name": "beneficiary",
							"type": "address"
						},
						{
							"internalType": "string",
							"name": "title",
							"type": "string"
						},
						{
							"internalType": "uint256",
							"name": "deadline",
							"type": "uint256"
						},
						{
							"internalType": "uint256",
							"name": "amountToRaise",
							"type": "uint256"
						},
						{
							"internalType": "uint256",
							"name": "raisedAmount",
							"type": "uint256"
						},
						{
							"internalType": "bool",
							"name": "closed",
							"type": "bool"
						}
					],
					"stateMutability": "view",
					"type": "function"
				}
			],
			"devdoc": {
				"kind": "dev",
				"methods": {},
				"version": 1
			},
			"evm": {
				"assembly": "    /* \"CrowdFundingApp/Factory.sol\":57:2088  contract Factory{... */\n  mstore(0x40, 0x80)\n  callvalue\n  dup1\n  iszero\n  tag_1\n  jumpi\n  0x00\n  dup1\n  revert\ntag_1:\n  pop\n  dataSize(sub_0)\n  dup1\n  dataOffset(sub_0)\n  0x00\n  codecopy\n  0x00\n  return\nstop\n\nsub_0: assembly {\n        /* \"CrowdFundingApp/Factory.sol\":57:2088  contract Factory{... */\n      mstore(0x40, 0x80)\n      callvalue\n      dup1\n      iszero\n      tag_1\n      jumpi\n      0x00\n      dup1\n      revert\n    tag_1:\n      pop\n      jumpi(tag_2, lt(calldatasize, 0x04))\n      shr(0xe0, calldataload(0x00))\n      dup1\n      0x4912c658\n      eq\n      tag_3\n      jumpi\n      dup1\n      0x77bbc464\n      eq\n      tag_4\n      jumpi\n      dup1\n      0x86cdf604\n      eq\n      tag_5\n      jumpi\n      dup1\n      0xc50a40d0\n      eq\n      tag_6\n      jumpi\n    tag_2:\n      0x00\n      dup1\n      revert\n        /* \"CrowdFundingApp/Factory.sol\":299:329  Campaign[] public campaignList */\n    tag_3:\n      tag_7\n      0x04\n      dup1\n      calldatasize\n      sub\n      dup2\n      add\n      swap1\n      tag_8\n      swap2\n      swap1\n      tag_9\n      jump\t// in\n    tag_8:\n      tag_10\n      jump\t// in\n    tag_7:\n      mload(0x40)\n      tag_11\n      swap8\n      swap7\n      swap6\n      swap5\n      swap4\n      swap3\n      swap2\n      swap1\n      tag_12\n      jump\t// in\n    tag_11:\n      mload(0x40)\n      dup1\n      swap2\n      sub\n      swap1\n      return\n        /* \"CrowdFundingApp/Factory.sol\":385:1641  function addCampaign(... */\n    tag_4:\n      tag_13\n      0x04\n      dup1\n      calldatasize\n      sub\n      dup2\n      add\n      swap1\n      tag_14\n      swap2\n      swap1\n      tag_15\n      jump\t// in\n    tag_14:\n      tag_16\n      jump\t// in\n    tag_13:\n      stop\n        /* \"CrowdFundingApp/Factory.sol\":1973:2084  function getAllCampaigns() public pure returns(Campaign [] memory _campaignList ){... */\n    tag_5:\n      tag_17\n      tag_18\n      jump\t// in\n    tag_17:\n      mload(0x40)\n      tag_19\n      swap2\n      swap1\n      tag_20\n      jump\t// in\n    tag_19:\n      mload(0x40)\n      dup1\n      swap2\n      sub\n      swap1\n      return\n        /* \"CrowdFundingApp/Factory.sol\":331:382  mapping (string => Campaign) public titleToCampaign */\n    tag_6:\n      tag_21\n      0x04\n      dup1\n      calldatasize\n      sub\n      dup2\n      add\n      swap1\n      tag_22\n      swap2\n      swap1\n      tag_23\n      jump\t// in\n    tag_22:\n      tag_24\n      jump\t// in\n    tag_21:\n      mload(0x40)\n      tag_25\n      swap8\n      swap7\n      swap6\n      swap5\n      swap4\n      swap3\n      swap2\n      swap1\n      tag_12\n      jump\t// in\n    tag_25:\n      mload(0x40)\n      dup1\n      swap2\n      sub\n      swap1\n      return\n        /* \"CrowdFundingApp/Factory.sol\":299:329  Campaign[] public campaignList */\n    tag_10:\n      0x00\n      dup2\n      dup2\n      sload\n      dup2\n      lt\n      tag_26\n      jumpi\n      0x00\n      dup1\n      revert\n    tag_26:\n      swap1\n      0x00\n      mstore\n      keccak256(0x00, 0x20)\n      swap1\n      0x07\n      mul\n      add\n      0x00\n      swap2\n      pop\n      swap1\n      pop\n      dup1\n      0x00\n      add\n      0x00\n      swap1\n      sload\n      swap1\n      0x0100\n      exp\n      swap1\n      div\n      0xffffffffffffffffffffffffffffffffffffffff\n      and\n      swap1\n      dup1\n      0x01\n      add\n      0x00\n      swap1\n      sload\n      swap1\n      0x0100\n      exp\n      swap1\n      div\n      0xffffffffffffffffffffffffffffffffffffffff\n      and\n      swap1\n      dup1\n      0x02\n      add\n      dup1\n      sload\n      tag_28\n      swap1\n      tag_29\n      jump\t// in\n    tag_28:\n      dup1\n      0x1f\n      add\n      0x20\n      dup1\n      swap2\n      div\n      mul\n      0x20\n      add\n      mload(0x40)\n      swap1\n      dup2\n      add\n      0x40\n      mstore\n      dup1\n      swap3\n      swap2\n      swap1\n      dup2\n      dup2\n      mstore\n      0x20\n      add\n      dup3\n      dup1\n      sload\n      tag_30\n      swap1\n      tag_29\n      jump\t// in\n    tag_30:\n      dup1\n      iszero\n      tag_31\n      jumpi\n      dup1\n      0x1f\n      lt\n      tag_32\n      jumpi\n      0x0100\n      dup1\n      dup4\n      sload\n      div\n      mul\n      dup4\n      mstore\n      swap2\n      0x20\n      add\n      swap2\n      jump(tag_31)\n    tag_32:\n      dup3\n      add\n      swap2\n      swap1\n      0x00\n      mstore\n      keccak256(0x00, 0x20)\n      swap1\n    tag_33:\n      dup2\n      sload\n      dup2\n      mstore\n      swap1\n      0x01\n      add\n      swap1\n      0x20\n      add\n      dup1\n      dup4\n      gt\n      tag_33\n      jumpi\n      dup3\n      swap1\n      sub\n      0x1f\n      and\n      dup3\n      add\n      swap2\n    tag_31:\n      pop\n      pop\n      pop\n      pop\n      pop\n      swap1\n      dup1\n      0x03\n      add\n      sload\n      swap1\n      dup1\n      0x04\n      add\n      sload\n      swap1\n      dup1\n      0x05\n      add\n      sload\n      swap1\n      dup1\n      0x06\n      add\n      0x00\n      swap1\n      sload\n      swap1\n      0x0100\n      exp\n      swap1\n      div\n      0xff\n      and\n      swap1\n      pop\n      dup8\n      jump\t// out\n        /* \"CrowdFundingApp/Factory.sol\":385:1641  function addCampaign(... */\n    tag_16:\n        /* \"CrowdFundingApp/Factory.sol\":642:643  0 */\n      0x00\n        /* \"CrowdFundingApp/Factory.sol\":602:617  titleToCampaign */\n      0x01\n        /* \"CrowdFundingApp/Factory.sol\":618:623  title */\n      dup5\n        /* \"CrowdFundingApp/Factory.sol\":602:624  titleToCampaign[title] */\n      mload(0x40)\n      tag_35\n      swap2\n      swap1\n      tag_36\n      jump\t// in\n    tag_35:\n      swap1\n      dup2\n      mstore\n      0x20\n      add\n      mload(0x40)\n      dup1\n      swap2\n      sub\n      swap1\n      keccak256\n        /* \"CrowdFundingApp/Factory.sol\":602:630  titleToCampaign[title].title */\n      0x02\n      add\n        /* \"CrowdFundingApp/Factory.sol\":596:638  bytes(titleToCampaign[title].title).length */\n      dup1\n      sload\n      tag_37\n      swap1\n      tag_29\n      jump\t// in\n    tag_37:\n      swap1\n      pop\n        /* \"CrowdFundingApp/Factory.sol\":596:643  bytes(titleToCampaign[title].title).length == 0 */\n      eq\n        /* \"CrowdFundingApp/Factory.sol\":588:687  require(bytes(titleToCampaign[title].title).length == 0, \"Campaign with this title already exists\") */\n      tag_38\n      jumpi\n      mload(0x40)\n      0x08c379a000000000000000000000000000000000000000000000000000000000\n      dup2\n      mstore\n      0x04\n      add\n      tag_39\n      swap1\n      tag_40\n      jump\t// in\n    tag_39:\n      mload(0x40)\n      dup1\n      swap2\n      sub\n      swap1\n      revert\n    tag_38:\n        /* \"CrowdFundingApp/Factory.sol\":783:784  0 */\n      0x00\n        /* \"CrowdFundingApp/Factory.sol\":760:785  beneficiary != address(0) */\n      0xffffffffffffffffffffffffffffffffffffffff\n      and\n        /* \"CrowdFundingApp/Factory.sol\":760:771  beneficiary */\n      dup5\n        /* \"CrowdFundingApp/Factory.sol\":760:785  beneficiary != address(0) */\n      0xffffffffffffffffffffffffffffffffffffffff\n      and\n      sub\n        /* \"CrowdFundingApp/Factory.sol\":752:816  require(beneficiary != address(0), \"Which kind address be this\") */\n      tag_41\n      jumpi\n      mload(0x40)\n      0x08c379a000000000000000000000000000000000000000000000000000000000\n      dup2\n      mstore\n      0x04\n      add\n      tag_42\n      swap1\n      tag_43\n      jump\t// in\n    tag_42:\n      mload(0x40)\n      dup1\n      swap2\n      sub\n      swap1\n      revert\n    tag_41:\n        /* \"CrowdFundingApp/Factory.sol\":890:891  0 */\n      0x00\n        /* \"CrowdFundingApp/Factory.sol\":874:879  title */\n      dup4\n        /* \"CrowdFundingApp/Factory.sol\":868:887  bytes(title).length */\n      mload\n        /* \"CrowdFundingApp/Factory.sol\":868:891  bytes(title).length > 0 */\n      gt\n        /* \"CrowdFundingApp/Factory.sol\":860:921  require(bytes(title).length > 0, \"Your campaign no get name\") */\n      tag_44\n      jumpi\n      mload(0x40)\n      0x08c379a000000000000000000000000000000000000000000000000000000000\n      dup2\n      mstore\n      0x04\n      add\n      tag_45\n      swap1\n      tag_46\n      jump\t// in\n    tag_45:\n      mload(0x40)\n      dup1\n      swap2\n      sub\n      swap1\n      revert\n    tag_44:\n        /* \"CrowdFundingApp/Factory.sol\":1122:1123  0 */\n      0x00\n        /* \"CrowdFundingApp/Factory.sol\":1106:1119  amountToRaise */\n      dup2\n        /* \"CrowdFundingApp/Factory.sol\":1106:1123  amountToRaise > 0 */\n      gt\n        /* \"CrowdFundingApp/Factory.sol\":1098:1154  require(amountToRaise > 0, \"Bruhh can you not do that?\") */\n      tag_47\n      jumpi\n      mload(0x40)\n      0x08c379a000000000000000000000000000000000000000000000000000000000\n      dup2\n      mstore\n      0x04\n      add\n      tag_48\n      swap1\n      tag_49\n      jump\t// in\n    tag_48:\n      mload(0x40)\n      dup1\n      swap2\n      sub\n      swap1\n      revert\n    tag_47:\n        /* \"CrowdFundingApp/Factory.sol\":1219:1246  Campaign memory newCampaign */\n      0x00\n        /* \"CrowdFundingApp/Factory.sol\":1249:1264  titleToCampaign */\n      0x01\n        /* \"CrowdFundingApp/Factory.sol\":1265:1270  title */\n      dup5\n        /* \"CrowdFundingApp/Factory.sol\":1249:1271  titleToCampaign[title] */\n      mload(0x40)\n      tag_50\n      swap2\n      swap1\n      tag_36\n      jump\t// in\n    tag_50:\n      swap1\n      dup2\n      mstore\n      0x20\n      add\n      mload(0x40)\n      dup1\n      swap2\n      sub\n      swap1\n      keccak256\n        /* \"CrowdFundingApp/Factory.sol\":1219:1271  Campaign memory newCampaign = titleToCampaign[title] */\n      mload(0x40)\n      dup1\n      0xe0\n      add\n      0x40\n      mstore\n      swap1\n      dup2\n      0x00\n      dup3\n      add\n      0x00\n      swap1\n      sload\n      swap1\n      0x0100\n      exp\n      swap1\n      div\n      0xffffffffffffffffffffffffffffffffffffffff\n      and\n      0xffffffffffffffffffffffffffffffffffffffff\n      and\n      0xffffffffffffffffffffffffffffffffffffffff\n      and\n      dup2\n      mstore\n      0x20\n      add\n      0x01\n      dup3\n      add\n      0x00\n      swap1\n      sload\n      swap1\n      0x0100\n      exp\n      swap1\n      div\n      0xffffffffffffffffffffffffffffffffffffffff\n      and\n      0xffffffffffffffffffffffffffffffffffffffff\n      and\n      0xffffffffffffffffffffffffffffffffffffffff\n      and\n      dup2\n      mstore\n      0x20\n      add\n      0x02\n      dup3\n      add\n      dup1\n      sload\n      tag_51\n      swap1\n      tag_29\n      jump\t// in\n    tag_51:\n      dup1\n      0x1f\n      add\n      0x20\n      dup1\n      swap2\n      div\n      mul\n      0x20\n      add\n      mload(0x40)\n      swap1\n      dup2\n      add\n      0x40\n      mstore\n      dup1\n      swap3\n      swap2\n      swap1\n      dup2\n      dup2\n      mstore\n      0x20\n      add\n      dup3\n      dup1\n      sload\n      tag_52\n      swap1\n      tag_29\n      jump\t// in\n    tag_52:\n      dup1\n      iszero\n      tag_53\n      jumpi\n      dup1\n      0x1f\n      lt\n      tag_54\n      jumpi\n      0x0100\n      dup1\n      dup4\n      sload\n      div\n      mul\n      dup4\n      mstore\n      swap2\n      0x20\n      add\n      swap2\n      jump(tag_53)\n    tag_54:\n      dup3\n      add\n      swap2\n      swap1\n      0x00\n      mstore\n      keccak256(0x00, 0x20)\n      swap1\n    tag_55:\n      dup2\n      sload\n      dup2\n      mstore\n      swap1\n      0x01\n      add\n      swap1\n      0x20\n      add\n      dup1\n      dup4\n      gt\n      tag_55\n      jumpi\n      dup3\n      swap1\n      sub\n      0x1f\n      and\n      dup3\n      add\n      swap2\n    tag_53:\n      pop\n      pop\n      pop\n      pop\n      pop\n      dup2\n      mstore\n      0x20\n      add\n      0x03\n      dup3\n      add\n      sload\n      dup2\n      mstore\n      0x20\n      add\n      0x04\n      dup3\n      add\n      sload\n      dup2\n      mstore\n      0x20\n      add\n      0x05\n      dup3\n      add\n      sload\n      dup2\n      mstore\n      0x20\n      add\n      0x06\n      dup3\n      add\n      0x00\n      swap1\n      sload\n      swap1\n      0x0100\n      exp\n      swap1\n      div\n      0xff\n      and\n      iszero\n      iszero\n      iszero\n      iszero\n      dup2\n      mstore\n      pop\n      pop\n      swap1\n      pop\n        /* \"CrowdFundingApp/Factory.sol\":1313:1323  msg.sender */\n      caller\n        /* \"CrowdFundingApp/Factory.sol\":1277:1288  newCampaign */\n      dup2\n        /* \"CrowdFundingApp/Factory.sol\":1277:1302  newCampaign.campaignOwner */\n      0x00\n      add\n        /* \"CrowdFundingApp/Factory.sol\":1277:1324  newCampaign.campaignOwner = payable(msg.sender) */\n      swap1\n      0xffffffffffffffffffffffffffffffffffffffff\n      and\n      swap1\n      dup2\n      0xffffffffffffffffffffffffffffffffffffffff\n      and\n      dup2\n      mstore\n      pop\n      pop\n        /* \"CrowdFundingApp/Factory.sol\":1357:1368  beneficiary */\n      dup5\n        /* \"CrowdFundingApp/Factory.sol\":1330:1341  newCampaign */\n      dup2\n        /* \"CrowdFundingApp/Factory.sol\":1330:1353  newCampaign.beneficiary */\n      0x20\n      add\n        /* \"CrowdFundingApp/Factory.sol\":1330:1368  newCampaign.beneficiary  = beneficiary */\n      swap1\n      0xffffffffffffffffffffffffffffffffffffffff\n      and\n      swap1\n      dup2\n      0xffffffffffffffffffffffffffffffffffffffff\n      and\n      dup2\n      mstore\n      pop\n      pop\n        /* \"CrowdFundingApp/Factory.sol\":1396:1401  title */\n      dup4\n        /* \"CrowdFundingApp/Factory.sol\":1374:1385  newCampaign */\n      dup2\n        /* \"CrowdFundingApp/Factory.sol\":1374:1391  newCampaign.title */\n      0x40\n      add\n        /* \"CrowdFundingApp/Factory.sol\":1374:1401  newCampaign.title   = title */\n      dup2\n      swap1\n      mstore\n      pop\n        /* \"CrowdFundingApp/Factory.sol\":1433:1441  deadline */\n      dup3\n        /* \"CrowdFundingApp/Factory.sol\":1407:1418  newCampaign */\n      dup2\n        /* \"CrowdFundingApp/Factory.sol\":1407:1427  newCampaign.deadline */\n      0x60\n      add\n        /* \"CrowdFundingApp/Factory.sol\":1407:1441  newCampaign.deadline    = deadline */\n      dup2\n      dup2\n      mstore\n      pop\n      pop\n        /* \"CrowdFundingApp/Factory.sol\":1474:1487  amountToRaise */\n      dup2\n        /* \"CrowdFundingApp/Factory.sol\":1447:1458  newCampaign */\n      dup2\n        /* \"CrowdFundingApp/Factory.sol\":1447:1472  newCampaign.amountToRaise */\n      0x80\n      add\n        /* \"CrowdFundingApp/Factory.sol\":1447:1487  newCampaign.amountToRaise= amountToRaise */\n      dup2\n      dup2\n      mstore\n      pop\n      pop\n        /* \"CrowdFundingApp/Factory.sol\":1520:1521  0 */\n      0x00\n        /* \"CrowdFundingApp/Factory.sol\":1493:1504  newCampaign */\n      dup2\n        /* \"CrowdFundingApp/Factory.sol\":1493:1517  newCampaign.raisedAmount */\n      0xa0\n      add\n        /* \"CrowdFundingApp/Factory.sol\":1493:1521  newCampaign.raisedAmount = 0 */\n      dup2\n      dup2\n      mstore\n      pop\n      pop\n        /* \"CrowdFundingApp/Factory.sol\":1551:1556  false */\n      0x00\n        /* \"CrowdFundingApp/Factory.sol\":1527:1538  newCampaign */\n      dup2\n        /* \"CrowdFundingApp/Factory.sol\":1527:1545  newCampaign.closed */\n      0xc0\n      add\n        /* \"CrowdFundingApp/Factory.sol\":1527:1556  newCampaign.closed    = false */\n      swap1\n      iszero\n      iszero\n      swap1\n      dup2\n      iszero\n      iszero\n      dup2\n      mstore\n      pop\n      pop\n        /* \"CrowdFundingApp/Factory.sol\":1562:1574  campaignList */\n      0x00\n        /* \"CrowdFundingApp/Factory.sol\":1581:1592  newCampaign */\n      dup2\n        /* \"CrowdFundingApp/Factory.sol\":1562:1593  campaignList.push (newCampaign) */\n      swap1\n      dup1\n      0x01\n      dup2\n      sload\n      add\n      dup1\n      dup3\n      sstore\n      dup1\n      swap2\n      pop\n      pop\n      0x01\n      swap1\n      sub\n      swap1\n      0x00\n      mstore\n      keccak256(0x00, 0x20)\n      swap1\n      0x07\n      mul\n      add\n      0x00\n      swap1\n      swap2\n      swap1\n      swap2\n      swap1\n      swap2\n      pop\n      0x00\n      dup3\n      add\n      mload\n      dup2\n      0x00\n      add\n      exp(0x0100, 0x00)\n      dup2\n      sload\n      dup2\n      0xffffffffffffffffffffffffffffffffffffffff\n      mul\n      not\n      and\n      swap1\n      dup4\n      0xffffffffffffffffffffffffffffffffffffffff\n      and\n      mul\n      or\n      swap1\n      sstore\n      pop\n      0x20\n      dup3\n      add\n      mload\n      dup2\n      0x01\n      add\n      exp(0x0100, 0x00)\n      dup2\n      sload\n      dup2\n      0xffffffffffffffffffffffffffffffffffffffff\n      mul\n      not\n      and\n      swap1\n      dup4\n      0xffffffffffffffffffffffffffffffffffffffff\n      and\n      mul\n      or\n      swap1\n      sstore\n      pop\n      0x40\n      dup3\n      add\n      mload\n      dup2\n      0x02\n      add\n      swap1\n      dup2\n      tag_57\n      swap2\n      swap1\n      tag_58\n      jump\t// in\n    tag_57:\n      pop\n      0x60\n      dup3\n      add\n      mload\n      dup2\n      0x03\n      add\n      sstore\n      0x80\n      dup3\n      add\n      mload\n      dup2\n      0x04\n      add\n      sstore\n      0xa0\n      dup3\n      add\n      mload\n      dup2\n      0x05\n      add\n      sstore\n      0xc0\n      dup3\n      add\n      mload\n      dup2\n      0x06\n      add\n      exp(0x0100, 0x00)\n      dup2\n      sload\n      dup2\n      0xff\n      mul\n      not\n      and\n      swap1\n      dup4\n      iszero\n      iszero\n      mul\n      or\n      swap1\n      sstore\n      pop\n      pop\n      pop\n        /* \"CrowdFundingApp/Factory.sol\":518:1641  {... */\n      pop\n        /* \"CrowdFundingApp/Factory.sol\":385:1641  function addCampaign(... */\n      pop\n      pop\n      pop\n      pop\n      jump\t// out\n        /* \"CrowdFundingApp/Factory.sol\":1973:2084  function getAllCampaigns() public pure returns(Campaign [] memory _campaignList ){... */\n    tag_18:\n        /* \"CrowdFundingApp/Factory.sol\":2020:2052  Campaign [] memory _campaignList */\n      0x60\n        /* \"CrowdFundingApp/Factory.sol\":1973:2084  function getAllCampaigns() public pure returns(Campaign [] memory _campaignList ){... */\n      swap1\n      jump\t// out\n        /* \"CrowdFundingApp/Factory.sol\":331:382  mapping (string => Campaign) public titleToCampaign */\n    tag_24:\n      0x01\n      dup2\n      dup1\n      mload\n      0x20\n      dup2\n      add\n      dup3\n      add\n      dup1\n      mload\n      dup5\n      dup3\n      mstore\n      0x20\n      dup4\n      add\n      0x20\n      dup6\n      add\n      keccak256\n      dup2\n      dup4\n      mstore\n      dup1\n      swap6\n      pop\n      pop\n      pop\n      pop\n      pop\n      pop\n      0x00\n      swap2\n      pop\n      swap1\n      pop\n      dup1\n      0x00\n      add\n      0x00\n      swap1\n      sload\n      swap1\n      0x0100\n      exp\n      swap1\n      div\n      0xffffffffffffffffffffffffffffffffffffffff\n      and\n      swap1\n      dup1\n      0x01\n      add\n      0x00\n      swap1\n      sload\n      swap1\n      0x0100\n      exp\n      swap1\n      div\n      0xffffffffffffffffffffffffffffffffffffffff\n      and\n      swap1\n      dup1\n      0x02\n      add\n      dup1\n      sload\n      tag_60\n      swap1\n      tag_29\n      jump\t// in\n    tag_60:\n      dup1\n      0x1f\n      add\n      0x20\n      dup1\n      swap2\n      div\n      mul\n      0x20\n      add\n      mload(0x40)\n      swap1\n      dup2\n      add\n      0x40\n      mstore\n      dup1\n      swap3\n      swap2\n      swap1\n      dup2\n      dup2\n      mstore\n      0x20\n      add\n      dup3\n      dup1\n      sload\n      tag_61\n      swap1\n      tag_29\n      jump\t// in\n    tag_61:\n      dup1\n      iszero\n      tag_62\n      jumpi\n      dup1\n      0x1f\n      lt\n      tag_63\n      jumpi\n      0x0100\n      dup1\n      dup4\n      sload\n      div\n      mul\n      dup4\n      mstore\n      swap2\n      0x20\n      add\n      swap2\n      jump(tag_62)\n    tag_63:\n      dup3\n      add\n      swap2\n      swap1\n      0x00\n      mstore\n      keccak256(0x00, 0x20)\n      swap1\n    tag_64:\n      dup2\n      sload\n      dup2\n      mstore\n      swap1\n      0x01\n      add\n      swap1\n      0x20\n      add\n      dup1\n      dup4\n      gt\n      tag_64\n      jumpi\n      dup3\n      swap1\n      sub\n      0x1f\n      and\n      dup3\n      add\n      swap2\n    tag_62:\n      pop\n      pop\n      pop\n      pop\n      pop\n      swap1\n      dup1\n      0x03\n      add\n      sload\n      swap1\n      dup1\n      0x04\n      add\n      sload\n      swap1\n      dup1\n      0x05\n      add\n      sload\n      swap1\n      dup1\n      0x06\n      add\n      0x00\n      swap1\n      sload\n      swap1\n      0x0100\n      exp\n      swap1\n      div\n      0xff\n      and\n      swap1\n      pop\n      dup8\n      jump\t// out\n        /* \"#utility.yul\":7:82   */\n    tag_65:\n        /* \"#utility.yul\":40:46   */\n      0x00\n        /* \"#utility.yul\":73:75   */\n      0x40\n        /* \"#utility.yul\":67:76   */\n      mload\n        /* \"#utility.yul\":57:76   */\n      swap1\n      pop\n        /* \"#utility.yul\":7:82   */\n      swap1\n      jump\t// out\n        /* \"#utility.yul\":88:205   */\n    tag_66:\n        /* \"#utility.yul\":197:198   */\n      0x00\n        /* \"#utility.yul\":194:195   */\n      dup1\n        /* \"#utility.yul\":187:199   */\n      revert\n        /* \"#utility.yul\":211:328   */\n    tag_67:\n        /* \"#utility.yul\":320:321   */\n      0x00\n        /* \"#utility.yul\":317:318   */\n      dup1\n        /* \"#utility.yul\":310:322   */\n      revert\n        /* \"#utility.yul\":334:411   */\n    tag_68:\n        /* \"#utility.yul\":371:378   */\n      0x00\n        /* \"#utility.yul\":400:405   */\n      dup2\n        /* \"#utility.yul\":389:405   */\n      swap1\n      pop\n        /* \"#utility.yul\":334:411   */\n      swap2\n      swap1\n      pop\n      jump\t// out\n        /* \"#utility.yul\":417:539   */\n    tag_69:\n        /* \"#utility.yul\":490:514   */\n      tag_137\n        /* \"#utility.yul\":508:513   */\n      dup2\n        /* \"#utility.yul\":490:514   */\n      tag_68\n      jump\t// in\n    tag_137:\n        /* \"#utility.yul\":483:488   */\n      dup2\n        /* \"#utility.yul\":480:515   */\n      eq\n        /* \"#utility.yul\":470:533   */\n      tag_138\n      jumpi\n        /* \"#utility.yul\":529:530   */\n      0x00\n        /* \"#utility.yul\":526:527   */\n      dup1\n        /* \"#utility.yul\":519:531   */\n      revert\n        /* \"#utility.yul\":470:533   */\n    tag_138:\n        /* \"#utility.yul\":417:539   */\n      pop\n      jump\t// out\n        /* \"#utility.yul\":545:684   */\n    tag_70:\n        /* \"#utility.yul\":591:596   */\n      0x00\n        /* \"#utility.yul\":629:635   */\n      dup2\n        /* \"#utility.yul\":616:636   */\n      calldataload\n        /* \"#utility.yul\":607:636   */\n      swap1\n      pop\n        /* \"#utility.yul\":645:678   */\n      tag_140\n        /* \"#utility.yul\":672:677   */\n      dup2\n        /* \"#utility.yul\":645:678   */\n      tag_69\n      jump\t// in\n    tag_140:\n        /* \"#utility.yul\":545:684   */\n      swap3\n      swap2\n      pop\n      pop\n      jump\t// out\n        /* \"#utility.yul\":690:1019   */\n    tag_9:\n        /* \"#utility.yul\":749:755   */\n      0x00\n        /* \"#utility.yul\":798:800   */\n      0x20\n        /* \"#utility.yul\":786:795   */\n      dup3\n        /* \"#utility.yul\":777:784   */\n      dup5\n        /* \"#utility.yul\":773:796   */\n      sub\n        /* \"#utility.yul\":769:801   */\n      slt\n        /* \"#utility.yul\":766:885   */\n      iszero\n      tag_142\n      jumpi\n        /* \"#utility.yul\":804:883   */\n      tag_143\n      tag_66\n      jump\t// in\n    tag_143:\n        /* \"#utility.yul\":766:885   */\n    tag_142:\n        /* \"#utility.yul\":924:925   */\n      0x00\n        /* \"#utility.yul\":949:1002   */\n      tag_144\n        /* \"#utility.yul\":994:1001   */\n      dup5\n        /* \"#utility.yul\":985:991   */\n      dup3\n        /* \"#utility.yul\":974:983   */\n      dup6\n        /* \"#utility.yul\":970:992   */\n      add\n        /* \"#utility.yul\":949:1002   */\n      tag_70\n      jump\t// in\n    tag_144:\n        /* \"#utility.yul\":939:1002   */\n      swap2\n      pop\n        /* \"#utility.yul\":895:1012   */\n      pop\n        /* \"#utility.yul\":690:1019   */\n      swap3\n      swap2\n      pop\n      pop\n      jump\t// out\n        /* \"#utility.yul\":1025:1151   */\n    tag_71:\n        /* \"#utility.yul\":1062:1069   */\n      0x00\n        /* \"#utility.yul\":1102:1144   */\n      0xffffffffffffffffffffffffffffffffffffffff\n        /* \"#utility.yul\":1095:1100   */\n      dup3\n        /* \"#utility.yul\":1091:1145   */\n      and\n        /* \"#utility.yul\":1080:1145   */\n      swap1\n      pop\n        /* \"#utility.yul\":1025:1151   */\n      swap2\n      swap1\n      pop\n      jump\t// out\n        /* \"#utility.yul\":1157:1261   */\n    tag_72:\n        /* \"#utility.yul\":1202:1209   */\n      0x00\n        /* \"#utility.yul\":1231:1255   */\n      tag_147\n        /* \"#utility.yul\":1249:1254   */\n      dup3\n        /* \"#utility.yul\":1231:1255   */\n      tag_71\n      jump\t// in\n    tag_147:\n        /* \"#utility.yul\":1220:1255   */\n      swap1\n      pop\n        /* \"#utility.yul\":1157:1261   */\n      swap2\n      swap1\n      pop\n      jump\t// out\n        /* \"#utility.yul\":1267:1409   */\n    tag_73:\n        /* \"#utility.yul\":1370:1402   */\n      tag_149\n        /* \"#utility.yul\":1396:1401   */\n      dup2\n        /* \"#utility.yul\":1370:1402   */\n      tag_72\n      jump\t// in\n    tag_149:\n        /* \"#utility.yul\":1365:1368   */\n      dup3\n        /* \"#utility.yul\":1358:1403   */\n      mstore\n        /* \"#utility.yul\":1267:1409   */\n      pop\n      pop\n      jump\t// out\n        /* \"#utility.yul\":1415:1514   */\n    tag_74:\n        /* \"#utility.yul\":1467:1473   */\n      0x00\n        /* \"#utility.yul\":1501:1506   */\n      dup2\n        /* \"#utility.yul\":1495:1507   */\n      mload\n        /* \"#utility.yul\":1485:1507   */\n      swap1\n      pop\n        /* \"#utility.yul\":1415:1514   */\n      swap2\n      swap1\n      pop\n      jump\t// out\n        /* \"#utility.yul\":1520:1689   */\n    tag_75:\n        /* \"#utility.yul\":1604:1615   */\n      0x00\n        /* \"#utility.yul\":1638:1644   */\n      dup3\n        /* \"#utility.yul\":1633:1636   */\n      dup3\n        /* \"#utility.yul\":1626:1645   */\n      mstore\n        /* \"#utility.yul\":1678:1682   */\n      0x20\n        /* \"#utility.yul\":1673:1676   */\n      dup3\n        /* \"#utility.yul\":1669:1683   */\n      add\n        /* \"#utility.yul\":1654:1683   */\n      swap1\n      pop\n        /* \"#utility.yul\":1520:1689   */\n      swap3\n      swap2\n      pop\n      pop\n      jump\t// out\n        /* \"#utility.yul\":1695:1834   */\n    tag_76:\n        /* \"#utility.yul\":1784:1790   */\n      dup3\n        /* \"#utility.yul\":1779:1782   */\n      dup2\n        /* \"#utility.yul\":1774:1777   */\n      dup4\n        /* \"#utility.yul\":1768:1791   */\n      mcopy\n        /* \"#utility.yul\":1825:1826   */\n      0x00\n        /* \"#utility.yul\":1816:1822   */\n      dup4\n        /* \"#utility.yul\":1811:1814   */\n      dup4\n        /* \"#utility.yul\":1807:1823   */\n      add\n        /* \"#utility.yul\":1800:1827   */\n      mstore\n        /* \"#utility.yul\":1695:1834   */\n      pop\n      pop\n      pop\n      jump\t// out\n        /* \"#utility.yul\":1840:1942   */\n    tag_77:\n        /* \"#utility.yul\":1881:1887   */\n      0x00\n        /* \"#utility.yul\":1932:1934   */\n      0x1f\n        /* \"#utility.yul\":1928:1935   */\n      not\n        /* \"#utility.yul\":1923:1925   */\n      0x1f\n        /* \"#utility.yul\":1916:1921   */\n      dup4\n        /* \"#utility.yul\":1912:1926   */\n      add\n        /* \"#utility.yul\":1908:1936   */\n      and\n        /* \"#utility.yul\":1898:1936   */\n      swap1\n      pop\n        /* \"#utility.yul\":1840:1942   */\n      swap2\n      swap1\n      pop\n      jump\t// out\n        /* \"#utility.yul\":1948:2325   */\n    tag_78:\n        /* \"#utility.yul\":2036:2039   */\n      0x00\n        /* \"#utility.yul\":2064:2103   */\n      tag_155\n        /* \"#utility.yul\":2097:2102   */\n      dup3\n        /* \"#utility.yul\":2064:2103   */\n      tag_74\n      jump\t// in\n    tag_155:\n        /* \"#utility.yul\":2119:2190   */\n      tag_156\n        /* \"#utility.yul\":2183:2189   */\n      dup2\n        /* \"#utility.yul\":2178:2181   */\n      dup6\n        /* \"#utility.yul\":2119:2190   */\n      tag_75\n      jump\t// in\n    tag_156:\n        /* \"#utility.yul\":2112:2190   */\n      swap4\n      pop\n        /* \"#utility.yul\":2199:2264   */\n      tag_157\n        /* \"#utility.yul\":2257:2263   */\n      dup2\n        /* \"#utility.yul\":2252:2255   */\n      dup6\n        /* \"#utility.yul\":2245:2249   */\n      0x20\n        /* \"#utility.yul\":2238:2243   */\n      dup7\n        /* \"#utility.yul\":2234:2250   */\n      add\n        /* \"#utility.yul\":2199:2264   */\n      tag_76\n      jump\t// in\n    tag_157:\n        /* \"#utility.yul\":2289:2318   */\n      tag_158\n        /* \"#utility.yul\":2311:2317   */\n      dup2\n        /* \"#utility.yul\":2289:2318   */\n      tag_77\n      jump\t// in\n    tag_158:\n        /* \"#utility.yul\":2284:2287   */\n      dup5\n        /* \"#utility.yul\":2280:2319   */\n      add\n        /* \"#utility.yul\":2273:2319   */\n      swap2\n      pop\n        /* \"#utility.yul\":2040:2325   */\n      pop\n        /* \"#utility.yul\":1948:2325   */\n      swap3\n      swap2\n      pop\n      pop\n      jump\t// out\n        /* \"#utility.yul\":2331:2449   */\n    tag_79:\n        /* \"#utility.yul\":2418:2442   */\n      tag_160\n        /* \"#utility.yul\":2436:2441   */\n      dup2\n        /* \"#utility.yul\":2418:2442   */\n      tag_68\n      jump\t// in\n    tag_160:\n        /* \"#utility.yul\":2413:2416   */\n      dup3\n        /* \"#utility.yul\":2406:2443   */\n      mstore\n        /* \"#utility.yul\":2331:2449   */\n      pop\n      pop\n      jump\t// out\n        /* \"#utility.yul\":2455:2545   */\n    tag_80:\n        /* \"#utility.yul\":2489:2496   */\n      0x00\n        /* \"#utility.yul\":2532:2537   */\n      dup2\n        /* \"#utility.yul\":2525:2538   */\n      iszero\n        /* \"#utility.yul\":2518:2539   */\n      iszero\n        /* \"#utility.yul\":2507:2539   */\n      swap1\n      pop\n        /* \"#utility.yul\":2455:2545   */\n      swap2\n      swap1\n      pop\n      jump\t// out\n        /* \"#utility.yul\":2551:2660   */\n    tag_81:\n        /* \"#utility.yul\":2632:2653   */\n      tag_163\n        /* \"#utility.yul\":2647:2652   */\n      dup2\n        /* \"#utility.yul\":2632:2653   */\n      tag_80\n      jump\t// in\n    tag_163:\n        /* \"#utility.yul\":2627:2630   */\n      dup3\n        /* \"#utility.yul\":2620:2654   */\n      mstore\n        /* \"#utility.yul\":2551:2660   */\n      pop\n      pop\n      jump\t// out\n        /* \"#utility.yul\":2666:3695   */\n    tag_12:\n        /* \"#utility.yul\":2973:2977   */\n      0x00\n        /* \"#utility.yul\":3011:3014   */\n      0xe0\n        /* \"#utility.yul\":3000:3009   */\n      dup3\n        /* \"#utility.yul\":2996:3015   */\n      add\n        /* \"#utility.yul\":2988:3015   */\n      swap1\n      pop\n        /* \"#utility.yul\":3025:3112   */\n      tag_165\n        /* \"#utility.yul\":3109:3110   */\n      0x00\n        /* \"#utility.yul\":3098:3107   */\n      dup4\n        /* \"#utility.yul\":3094:3111   */\n      add\n        /* \"#utility.yul\":3085:3091   */\n      dup11\n        /* \"#utility.yul\":3025:3112   */\n      tag_73\n      jump\t// in\n    tag_165:\n        /* \"#utility.yul\":3122:3210   */\n      tag_166\n        /* \"#utility.yul\":3206:3208   */\n      0x20\n        /* \"#utility.yul\":3195:3204   */\n      dup4\n        /* \"#utility.yul\":3191:3209   */\n      add\n        /* \"#utility.yul\":3182:3188   */\n      dup10\n        /* \"#utility.yul\":3122:3210   */\n      tag_73\n      jump\t// in\n    tag_166:\n        /* \"#utility.yul\":3257:3266   */\n      dup2\n        /* \"#utility.yul\":3251:3255   */\n      dup2\n        /* \"#utility.yul\":3247:3267   */\n      sub\n        /* \"#utility.yul\":3242:3244   */\n      0x40\n        /* \"#utility.yul\":3231:3240   */\n      dup4\n        /* \"#utility.yul\":3227:3245   */\n      add\n        /* \"#utility.yul\":3220:3268   */\n      mstore\n        /* \"#utility.yul\":3285:3363   */\n      tag_167\n        /* \"#utility.yul\":3358:3362   */\n      dup2\n        /* \"#utility.yul\":3349:3355   */\n      dup9\n        /* \"#utility.yul\":3285:3363   */\n      tag_78\n      jump\t// in\n    tag_167:\n        /* \"#utility.yul\":3277:3363   */\n      swap1\n      pop\n        /* \"#utility.yul\":3373:3445   */\n      tag_168\n        /* \"#utility.yul\":3441:3443   */\n      0x60\n        /* \"#utility.yul\":3430:3439   */\n      dup4\n        /* \"#utility.yul\":3426:3444   */\n      add\n        /* \"#utility.yul\":3417:3423   */\n      dup8\n        /* \"#utility.yul\":3373:3445   */\n      tag_79\n      jump\t// in\n    tag_168:\n        /* \"#utility.yul\":3455:3528   */\n      tag_169\n        /* \"#utility.yul\":3523:3526   */\n      0x80\n        /* \"#utility.yul\":3512:3521   */\n      dup4\n        /* \"#utility.yul\":3508:3527   */\n      add\n        /* \"#utility.yul\":3499:3505   */\n      dup7\n        /* \"#utility.yul\":3455:3528   */\n      tag_79\n      jump\t// in\n    tag_169:\n        /* \"#utility.yul\":3538:3611   */\n      tag_170\n        /* \"#utility.yul\":3606:3609   */\n      0xa0\n        /* \"#utility.yul\":3595:3604   */\n      dup4\n        /* \"#utility.yul\":3591:3610   */\n      add\n        /* \"#utility.yul\":3582:3588   */\n      dup6\n        /* \"#utility.yul\":3538:3611   */\n      tag_79\n      jump\t// in\n    tag_170:\n        /* \"#utility.yul\":3621:3688   */\n      tag_171\n        /* \"#utility.yul\":3683:3686   */\n      0xc0\n        /* \"#utility.yul\":3672:3681   */\n      dup4\n        /* \"#utility.yul\":3668:3687   */\n      add\n        /* \"#utility.yul\":3659:3665   */\n      dup5\n        /* \"#utility.yul\":3621:3688   */\n      tag_81\n      jump\t// in\n    tag_171:\n        /* \"#utility.yul\":2666:3695   */\n      swap9\n      swap8\n      pop\n      pop\n      pop\n      pop\n      pop\n      pop\n      pop\n      pop\n      jump\t// out\n        /* \"#utility.yul\":3701:3839   */\n    tag_82:\n        /* \"#utility.yul\":3782:3814   */\n      tag_173\n        /* \"#utility.yul\":3808:3813   */\n      dup2\n        /* \"#utility.yul\":3782:3814   */\n      tag_72\n      jump\t// in\n    tag_173:\n        /* \"#utility.yul\":3775:3780   */\n      dup2\n        /* \"#utility.yul\":3772:3815   */\n      eq\n        /* \"#utility.yul\":3762:3833   */\n      tag_174\n      jumpi\n        /* \"#utility.yul\":3829:3830   */\n      0x00\n        /* \"#utility.yul\":3826:3827   */\n      dup1\n        /* \"#utility.yul\":3819:3831   */\n      revert\n        /* \"#utility.yul\":3762:3833   */\n    tag_174:\n        /* \"#utility.yul\":3701:3839   */\n      pop\n      jump\t// out\n        /* \"#utility.yul\":3845:4000   */\n    tag_83:\n        /* \"#utility.yul\":3899:3904   */\n      0x00\n        /* \"#utility.yul\":3937:3943   */\n      dup2\n        /* \"#utility.yul\":3924:3944   */\n      calldataload\n        /* \"#utility.yul\":3915:3944   */\n      swap1\n      pop\n        /* \"#utility.yul\":3953:3994   */\n      tag_176\n        /* \"#utility.yul\":3988:3993   */\n      dup2\n        /* \"#utility.yul\":3953:3994   */\n      tag_82\n      jump\t// in\n    tag_176:\n        /* \"#utility.yul\":3845:4000   */\n      swap3\n      swap2\n      pop\n      pop\n      jump\t// out\n        /* \"#utility.yul\":4006:4123   */\n    tag_84:\n        /* \"#utility.yul\":4115:4116   */\n      0x00\n        /* \"#utility.yul\":4112:4113   */\n      dup1\n        /* \"#utility.yul\":4105:4117   */\n      revert\n        /* \"#utility.yul\":4129:4246   */\n    tag_85:\n        /* \"#utility.yul\":4238:4239   */\n      0x00\n        /* \"#utility.yul\":4235:4236   */\n      dup1\n        /* \"#utility.yul\":4228:4240   */\n      revert\n        /* \"#utility.yul\":4252:4432   */\n    tag_86:\n        /* \"#utility.yul\":4300:4377   */\n      0x4e487b7100000000000000000000000000000000000000000000000000000000\n        /* \"#utility.yul\":4297:4298   */\n      0x00\n        /* \"#utility.yul\":4290:4378   */\n      mstore\n        /* \"#utility.yul\":4397:4401   */\n      0x41\n        /* \"#utility.yul\":4394:4395   */\n      0x04\n        /* \"#utility.yul\":4387:4402   */\n      mstore\n        /* \"#utility.yul\":4421:4425   */\n      0x24\n        /* \"#utility.yul\":4418:4419   */\n      0x00\n        /* \"#utility.yul\":4411:4426   */\n      revert\n        /* \"#utility.yul\":4438:4719   */\n    tag_87:\n        /* \"#utility.yul\":4521:4548   */\n      tag_181\n        /* \"#utility.yul\":4543:4547   */\n      dup3\n        /* \"#utility.yul\":4521:4548   */\n      tag_77\n      jump\t// in\n    tag_181:\n        /* \"#utility.yul\":4513:4519   */\n      dup2\n        /* \"#utility.yul\":4509:4549   */\n      add\n        /* \"#utility.yul\":4651:4657   */\n      dup2\n        /* \"#utility.yul\":4639:4649   */\n      dup2\n        /* \"#utility.yul\":4636:4658   */\n      lt\n        /* \"#utility.yul\":4615:4633   */\n      0xffffffffffffffff\n        /* \"#utility.yul\":4603:4613   */\n      dup3\n        /* \"#utility.yul\":4600:4634   */\n      gt\n        /* \"#utility.yul\":4597:4659   */\n      or\n        /* \"#utility.yul\":4594:4682   */\n      iszero\n      tag_182\n      jumpi\n        /* \"#utility.yul\":4662:4680   */\n      tag_183\n      tag_86\n      jump\t// in\n    tag_183:\n        /* \"#utility.yul\":4594:4682   */\n    tag_182:\n        /* \"#utility.yul\":4702:4712   */\n      dup1\n        /* \"#utility.yul\":4698:4700   */\n      0x40\n        /* \"#utility.yul\":4691:4713   */\n      mstore\n        /* \"#utility.yul\":4481:4719   */\n      pop\n        /* \"#utility.yul\":4438:4719   */\n      pop\n      pop\n      jump\t// out\n        /* \"#utility.yul\":4725:4854   */\n    tag_88:\n        /* \"#utility.yul\":4759:4765   */\n      0x00\n        /* \"#utility.yul\":4786:4806   */\n      tag_185\n      tag_65\n      jump\t// in\n    tag_185:\n        /* \"#utility.yul\":4776:4806   */\n      swap1\n      pop\n        /* \"#utility.yul\":4815:4848   */\n      tag_186\n        /* \"#utility.yul\":4843:4847   */\n      dup3\n        /* \"#utility.yul\":4835:4841   */\n      dup3\n        /* \"#utility.yul\":4815:4848   */\n      tag_87\n      jump\t// in\n    tag_186:\n        /* \"#utility.yul\":4725:4854   */\n      swap2\n      swap1\n      pop\n      jump\t// out\n        /* \"#utility.yul\":4860:5168   */\n    tag_89:\n        /* \"#utility.yul\":4922:4926   */\n      0x00\n        /* \"#utility.yul\":5012:5030   */\n      0xffffffffffffffff\n        /* \"#utility.yul\":5004:5010   */\n      dup3\n        /* \"#utility.yul\":5001:5031   */\n      gt\n        /* \"#utility.yul\":4998:5054   */\n      iszero\n      tag_188\n      jumpi\n        /* \"#utility.yul\":5034:5052   */\n      tag_189\n      tag_86\n      jump\t// in\n    tag_189:\n        /* \"#utility.yul\":4998:5054   */\n    tag_188:\n        /* \"#utility.yul\":5072:5101   */\n      tag_190\n        /* \"#utility.yul\":5094:5100   */\n      dup3\n        /* \"#utility.yul\":5072:5101   */\n      tag_77\n      jump\t// in\n    tag_190:\n        /* \"#utility.yul\":5064:5101   */\n      swap1\n      pop\n        /* \"#utility.yul\":5156:5160   */\n      0x20\n        /* \"#utility.yul\":5150:5154   */\n      dup2\n        /* \"#utility.yul\":5146:5161   */\n      add\n        /* \"#utility.yul\":5138:5161   */\n      swap1\n      pop\n        /* \"#utility.yul\":4860:5168   */\n      swap2\n      swap1\n      pop\n      jump\t// out\n        /* \"#utility.yul\":5174:5322   */\n    tag_90:\n        /* \"#utility.yul\":5272:5278   */\n      dup3\n        /* \"#utility.yul\":5267:5270   */\n      dup2\n        /* \"#utility.yul\":5262:5265   */\n      dup4\n        /* \"#utility.yul\":5249:5279   */\n      calldatacopy\n        /* \"#utility.yul\":5313:5314   */\n      0x00\n        /* \"#utility.yul\":5304:5310   */\n      dup4\n        /* \"#utility.yul\":5299:5302   */\n      dup4\n        /* \"#utility.yul\":5295:5311   */\n      add\n        /* \"#utility.yul\":5288:5315   */\n      mstore\n        /* \"#utility.yul\":5174:5322   */\n      pop\n      pop\n      pop\n      jump\t// out\n        /* \"#utility.yul\":5328:5753   */\n    tag_91:\n        /* \"#utility.yul\":5406:5411   */\n      0x00\n        /* \"#utility.yul\":5431:5497   */\n      tag_193\n        /* \"#utility.yul\":5447:5496   */\n      tag_194\n        /* \"#utility.yul\":5489:5495   */\n      dup5\n        /* \"#utility.yul\":5447:5496   */\n      tag_89\n      jump\t// in\n    tag_194:\n        /* \"#utility.yul\":5431:5497   */\n      tag_88\n      jump\t// in\n    tag_193:\n        /* \"#utility.yul\":5422:5497   */\n      swap1\n      pop\n        /* \"#utility.yul\":5520:5526   */\n      dup3\n        /* \"#utility.yul\":5513:5518   */\n      dup2\n        /* \"#utility.yul\":5506:5527   */\n      mstore\n        /* \"#utility.yul\":5558:5562   */\n      0x20\n        /* \"#utility.yul\":5551:5556   */\n      dup2\n        /* \"#utility.yul\":5547:5563   */\n      add\n        /* \"#utility.yul\":5596:5599   */\n      dup5\n        /* \"#utility.yul\":5587:5593   */\n      dup5\n        /* \"#utility.yul\":5582:5585   */\n      dup5\n        /* \"#utility.yul\":5578:5594   */\n      add\n        /* \"#utility.yul\":5575:5600   */\n      gt\n        /* \"#utility.yul\":5572:5684   */\n      iszero\n      tag_195\n      jumpi\n        /* \"#utility.yul\":5603:5682   */\n      tag_196\n      tag_85\n      jump\t// in\n    tag_196:\n        /* \"#utility.yul\":5572:5684   */\n    tag_195:\n        /* \"#utility.yul\":5693:5747   */\n      tag_197\n        /* \"#utility.yul\":5740:5746   */\n      dup5\n        /* \"#utility.yul\":5735:5738   */\n      dup3\n        /* \"#utility.yul\":5730:5733   */\n      dup6\n        /* \"#utility.yul\":5693:5747   */\n      tag_90\n      jump\t// in\n    tag_197:\n        /* \"#utility.yul\":5412:5753   */\n      pop\n        /* \"#utility.yul\":5328:5753   */\n      swap4\n      swap3\n      pop\n      pop\n      pop\n      jump\t// out\n        /* \"#utility.yul\":5773:6113   */\n    tag_92:\n        /* \"#utility.yul\":5829:5834   */\n      0x00\n        /* \"#utility.yul\":5878:5881   */\n      dup3\n        /* \"#utility.yul\":5871:5875   */\n      0x1f\n        /* \"#utility.yul\":5863:5869   */\n      dup4\n        /* \"#utility.yul\":5859:5876   */\n      add\n        /* \"#utility.yul\":5855:5882   */\n      slt\n        /* \"#utility.yul\":5845:5967   */\n      tag_199\n      jumpi\n        /* \"#utility.yul\":5886:5965   */\n      tag_200\n      tag_84\n      jump\t// in\n    tag_200:\n        /* \"#utility.yul\":5845:5967   */\n    tag_199:\n        /* \"#utility.yul\":6003:6009   */\n      dup2\n        /* \"#utility.yul\":5990:6010   */\n      calldataload\n        /* \"#utility.yul\":6028:6107   */\n      tag_201\n        /* \"#utility.yul\":6103:6106   */\n      dup5\n        /* \"#utility.yul\":6095:6101   */\n      dup3\n        /* \"#utility.yul\":6088:6092   */\n      0x20\n        /* \"#utility.yul\":6080:6086   */\n      dup7\n        /* \"#utility.yul\":6076:6093   */\n      add\n        /* \"#utility.yul\":6028:6107   */\n      tag_91\n      jump\t// in\n    tag_201:\n        /* \"#utility.yul\":6019:6107   */\n      swap2\n      pop\n        /* \"#utility.yul\":5835:6113   */\n      pop\n        /* \"#utility.yul\":5773:6113   */\n      swap3\n      swap2\n      pop\n      pop\n      jump\t// out\n        /* \"#utility.yul\":6119:7080   */\n    tag_15:\n        /* \"#utility.yul\":6223:6229   */\n      0x00\n        /* \"#utility.yul\":6231:6237   */\n      dup1\n        /* \"#utility.yul\":6239:6245   */\n      0x00\n        /* \"#utility.yul\":6247:6253   */\n      dup1\n        /* \"#utility.yul\":6296:6299   */\n      0x80\n        /* \"#utility.yul\":6284:6293   */\n      dup6\n        /* \"#utility.yul\":6275:6282   */\n      dup8\n        /* \"#utility.yul\":6271:6294   */\n      sub\n        /* \"#utility.yul\":6267:6300   */\n      slt\n        /* \"#utility.yul\":6264:6384   */\n      iszero\n      tag_203\n      jumpi\n        /* \"#utility.yul\":6303:6382   */\n      tag_204\n      tag_66\n      jump\t// in\n    tag_204:\n        /* \"#utility.yul\":6264:6384   */\n    tag_203:\n        /* \"#utility.yul\":6423:6424   */\n      0x00\n        /* \"#utility.yul\":6448:6509   */\n      tag_205\n        /* \"#utility.yul\":6501:6508   */\n      dup8\n        /* \"#utility.yul\":6492:6498   */\n      dup3\n        /* \"#utility.yul\":6481:6490   */\n      dup9\n        /* \"#utility.yul\":6477:6499   */\n      add\n        /* \"#utility.yul\":6448:6509   */\n      tag_83\n      jump\t// in\n    tag_205:\n        /* \"#utility.yul\":6438:6509   */\n      swap5\n      pop\n        /* \"#utility.yul\":6394:6519   */\n      pop\n        /* \"#utility.yul\":6586:6588   */\n      0x20\n        /* \"#utility.yul\":6575:6584   */\n      dup6\n        /* \"#utility.yul\":6571:6589   */\n      add\n        /* \"#utility.yul\":6558:6590   */\n      calldataload\n        /* \"#utility.yul\":6617:6635   */\n      0xffffffffffffffff\n        /* \"#utility.yul\":6609:6615   */\n      dup2\n        /* \"#utility.yul\":6606:6636   */\n      gt\n        /* \"#utility.yul\":6603:6720   */\n      iszero\n      tag_206\n      jumpi\n        /* \"#utility.yul\":6639:6718   */\n      tag_207\n      tag_67\n      jump\t// in\n    tag_207:\n        /* \"#utility.yul\":6603:6720   */\n    tag_206:\n        /* \"#utility.yul\":6744:6807   */\n      tag_208\n        /* \"#utility.yul\":6799:6806   */\n      dup8\n        /* \"#utility.yul\":6790:6796   */\n      dup3\n        /* \"#utility.yul\":6779:6788   */\n      dup9\n        /* \"#utility.yul\":6775:6797   */\n      add\n        /* \"#utility.yul\":6744:6807   */\n      tag_92\n      jump\t// in\n    tag_208:\n        /* \"#utility.yul\":6734:6807   */\n      swap4\n      pop\n        /* \"#utility.yul\":6529:6817   */\n      pop\n        /* \"#utility.yul\":6856:6858   */\n      0x40\n        /* \"#utility.yul\":6882:6935   */\n      tag_209\n        /* \"#utility.yul\":6927:6934   */\n      dup8\n        /* \"#utility.yul\":6918:6924   */\n      dup3\n        /* \"#utility.yul\":6907:6916   */\n      dup9\n        /* \"#utility.yul\":6903:6925   */\n      add\n        /* \"#utility.yul\":6882:6935   */\n      tag_70\n      jump\t// in\n    tag_209:\n        /* \"#utility.yul\":6872:6935   */\n      swap3\n      pop\n        /* \"#utility.yul\":6827:6945   */\n      pop\n        /* \"#utility.yul\":6984:6986   */\n      0x60\n        /* \"#utility.yul\":7010:7063   */\n      tag_210\n        /* \"#utility.yul\":7055:7062   */\n      dup8\n        /* \"#utility.yul\":7046:7052   */\n      dup3\n        /* \"#utility.yul\":7035:7044   */\n      dup9\n        /* \"#utility.yul\":7031:7053   */\n      add\n        /* \"#utility.yul\":7010:7063   */\n      tag_70\n      jump\t// in\n    tag_210:\n        /* \"#utility.yul\":7000:7063   */\n      swap2\n      pop\n        /* \"#utility.yul\":6955:7073   */\n      pop\n        /* \"#utility.yul\":6119:7080   */\n      swap3\n      swap6\n      swap2\n      swap5\n      pop\n      swap3\n      pop\n      jump\t// out\n        /* \"#utility.yul\":7086:7224   */\n    tag_93:\n        /* \"#utility.yul\":7177:7183   */\n      0x00\n        /* \"#utility.yul\":7211:7216   */\n      dup2\n        /* \"#utility.yul\":7205:7217   */\n      mload\n        /* \"#utility.yul\":7195:7217   */\n      swap1\n      pop\n        /* \"#utility.yul\":7086:7224   */\n      swap2\n      swap1\n      pop\n      jump\t// out\n        /* \"#utility.yul\":7230:7438   */\n    tag_94:\n        /* \"#utility.yul\":7353:7364   */\n      0x00\n        /* \"#utility.yul\":7387:7393   */\n      dup3\n        /* \"#utility.yul\":7382:7385   */\n      dup3\n        /* \"#utility.yul\":7375:7394   */\n      mstore\n        /* \"#utility.yul\":7427:7431   */\n      0x20\n        /* \"#utility.yul\":7422:7425   */\n      dup3\n        /* \"#utility.yul\":7418:7432   */\n      add\n        /* \"#utility.yul\":7403:7432   */\n      swap1\n      pop\n        /* \"#utility.yul\":7230:7438   */\n      swap3\n      swap2\n      pop\n      pop\n      jump\t// out\n        /* \"#utility.yul\":7444:7600   */\n    tag_95:\n        /* \"#utility.yul\":7535:7539   */\n      0x00\n        /* \"#utility.yul\":7558:7561   */\n      dup2\n        /* \"#utility.yul\":7550:7561   */\n      swap1\n      pop\n        /* \"#utility.yul\":7588:7592   */\n      0x20\n        /* \"#utility.yul\":7583:7586   */\n      dup3\n        /* \"#utility.yul\":7579:7593   */\n      add\n        /* \"#utility.yul\":7571:7593   */\n      swap1\n      pop\n        /* \"#utility.yul\":7444:7600   */\n      swap2\n      swap1\n      pop\n      jump\t// out\n        /* \"#utility.yul\":7606:7738   */\n    tag_96:\n        /* \"#utility.yul\":7699:7731   */\n      tag_215\n        /* \"#utility.yul\":7725:7730   */\n      dup2\n        /* \"#utility.yul\":7699:7731   */\n      tag_72\n      jump\t// in\n    tag_215:\n        /* \"#utility.yul\":7694:7697   */\n      dup3\n        /* \"#utility.yul\":7687:7732   */\n      mstore\n        /* \"#utility.yul\":7606:7738   */\n      pop\n      pop\n      jump\t// out\n        /* \"#utility.yul\":7744:7903   */\n    tag_97:\n        /* \"#utility.yul\":7818:7829   */\n      0x00\n        /* \"#utility.yul\":7852:7858   */\n      dup3\n        /* \"#utility.yul\":7847:7850   */\n      dup3\n        /* \"#utility.yul\":7840:7859   */\n      mstore\n        /* \"#utility.yul\":7892:7896   */\n      0x20\n        /* \"#utility.yul\":7887:7890   */\n      dup3\n        /* \"#utility.yul\":7883:7897   */\n      add\n        /* \"#utility.yul\":7868:7897   */\n      swap1\n      pop\n        /* \"#utility.yul\":7744:7903   */\n      swap3\n      swap2\n      pop\n      pop\n      jump\t// out\n        /* \"#utility.yul\":7909:8266   */\n    tag_98:\n        /* \"#utility.yul\":7987:7990   */\n      0x00\n        /* \"#utility.yul\":8015:8054   */\n      tag_218\n        /* \"#utility.yul\":8048:8053   */\n      dup3\n        /* \"#utility.yul\":8015:8054   */\n      tag_74\n      jump\t// in\n    tag_218:\n        /* \"#utility.yul\":8070:8131   */\n      tag_219\n        /* \"#utility.yul\":8124:8130   */\n      dup2\n        /* \"#utility.yul\":8119:8122   */\n      dup6\n        /* \"#utility.yul\":8070:8131   */\n      tag_97\n      jump\t// in\n    tag_219:\n        /* \"#utility.yul\":8063:8131   */\n      swap4\n      pop\n        /* \"#utility.yul\":8140:8205   */\n      tag_220\n        /* \"#utility.yul\":8198:8204   */\n      dup2\n        /* \"#utility.yul\":8193:8196   */\n      dup6\n        /* \"#utility.yul\":8186:8190   */\n      0x20\n        /* \"#utility.yul\":8179:8184   */\n      dup7\n        /* \"#utility.yul\":8175:8191   */\n      add\n        /* \"#utility.yul\":8140:8205   */\n      tag_76\n      jump\t// in\n    tag_220:\n        /* \"#utility.yul\":8230:8259   */\n      tag_221\n        /* \"#utility.yul\":8252:8258   */\n      dup2\n        /* \"#utility.yul\":8230:8259   */\n      tag_77\n      jump\t// in\n    tag_221:\n        /* \"#utility.yul\":8225:8228   */\n      dup5\n        /* \"#utility.yul\":8221:8260   */\n      add\n        /* \"#utility.yul\":8214:8260   */\n      swap2\n      pop\n        /* \"#utility.yul\":7991:8266   */\n      pop\n        /* \"#utility.yul\":7909:8266   */\n      swap3\n      swap2\n      pop\n      pop\n      jump\t// out\n        /* \"#utility.yul\":8272:8380   */\n    tag_99:\n        /* \"#utility.yul\":8349:8373   */\n      tag_223\n        /* \"#utility.yul\":8367:8372   */\n      dup2\n        /* \"#utility.yul\":8349:8373   */\n      tag_68\n      jump\t// in\n    tag_223:\n        /* \"#utility.yul\":8344:8347   */\n      dup3\n        /* \"#utility.yul\":8337:8374   */\n      mstore\n        /* \"#utility.yul\":8272:8380   */\n      pop\n      pop\n      jump\t// out\n        /* \"#utility.yul\":8386:8485   */\n    tag_100:\n        /* \"#utility.yul\":8457:8478   */\n      tag_225\n        /* \"#utility.yul\":8472:8477   */\n      dup2\n        /* \"#utility.yul\":8457:8478   */\n      tag_80\n      jump\t// in\n    tag_225:\n        /* \"#utility.yul\":8452:8455   */\n      dup3\n        /* \"#utility.yul\":8445:8479   */\n      mstore\n        /* \"#utility.yul\":8386:8485   */\n      pop\n      pop\n      jump\t// out\n        /* \"#utility.yul\":8549:10079   */\n    tag_101:\n        /* \"#utility.yul\":8656:8659   */\n      0x00\n        /* \"#utility.yul\":8692:8696   */\n      0xe0\n        /* \"#utility.yul\":8687:8690   */\n      dup4\n        /* \"#utility.yul\":8683:8697   */\n      add\n        /* \"#utility.yul\":8788:8792   */\n      0x00\n        /* \"#utility.yul\":8781:8786   */\n      dup4\n        /* \"#utility.yul\":8777:8793   */\n      add\n        /* \"#utility.yul\":8771:8794   */\n      mload\n        /* \"#utility.yul\":8807:8886   */\n      tag_227\n        /* \"#utility.yul\":8880:8884   */\n      0x00\n        /* \"#utility.yul\":8875:8878   */\n      dup7\n        /* \"#utility.yul\":8871:8885   */\n      add\n        /* \"#utility.yul\":8857:8869   */\n      dup3\n        /* \"#utility.yul\":8807:8886   */\n      tag_96\n      jump\t// in\n    tag_227:\n        /* \"#utility.yul\":8707:8896   */\n      pop\n        /* \"#utility.yul\":8985:8989   */\n      0x20\n        /* \"#utility.yul\":8978:8983   */\n      dup4\n        /* \"#utility.yul\":8974:8990   */\n      add\n        /* \"#utility.yul\":8968:8991   */\n      mload\n        /* \"#utility.yul\":9004:9083   */\n      tag_228\n        /* \"#utility.yul\":9077:9081   */\n      0x20\n        /* \"#utility.yul\":9072:9075   */\n      dup7\n        /* \"#utility.yul\":9068:9082   */\n      add\n        /* \"#utility.yul\":9054:9066   */\n      dup3\n        /* \"#utility.yul\":9004:9083   */\n      tag_96\n      jump\t// in\n    tag_228:\n        /* \"#utility.yul\":8906:9093   */\n      pop\n        /* \"#utility.yul\":9176:9180   */\n      0x40\n        /* \"#utility.yul\":9169:9174   */\n      dup4\n        /* \"#utility.yul\":9165:9181   */\n      add\n        /* \"#utility.yul\":9159:9182   */\n      mload\n        /* \"#utility.yul\":9229:9232   */\n      dup5\n        /* \"#utility.yul\":9223:9227   */\n      dup3\n        /* \"#utility.yul\":9219:9233   */\n      sub\n        /* \"#utility.yul\":9212:9216   */\n      0x40\n        /* \"#utility.yul\":9207:9210   */\n      dup7\n        /* \"#utility.yul\":9203:9217   */\n      add\n        /* \"#utility.yul\":9196:9234   */\n      mstore\n        /* \"#utility.yul\":9255:9328   */\n      tag_229\n        /* \"#utility.yul\":9323:9327   */\n      dup3\n        /* \"#utility.yul\":9309:9321   */\n      dup3\n        /* \"#utility.yul\":9255:9328   */\n      tag_98\n      jump\t// in\n    tag_229:\n        /* \"#utility.yul\":9247:9328   */\n      swap2\n      pop\n        /* \"#utility.yul\":9103:9339   */\n      pop\n        /* \"#utility.yul\":9425:9429   */\n      0x60\n        /* \"#utility.yul\":9418:9423   */\n      dup4\n        /* \"#utility.yul\":9414:9430   */\n      add\n        /* \"#utility.yul\":9408:9431   */\n      mload\n        /* \"#utility.yul\":9444:9507   */\n      tag_230\n        /* \"#utility.yul\":9501:9505   */\n      0x60\n        /* \"#utility.yul\":9496:9499   */\n      dup7\n        /* \"#utility.yul\":9492:9506   */\n      add\n        /* \"#utility.yul\":9478:9490   */\n      dup3\n        /* \"#utility.yul\":9444:9507   */\n      tag_99\n      jump\t// in\n    tag_230:\n        /* \"#utility.yul\":9349:9517   */\n      pop\n        /* \"#utility.yul\":9608:9612   */\n      0x80\n        /* \"#utility.yul\":9601:9606   */\n      dup4\n        /* \"#utility.yul\":9597:9613   */\n      add\n        /* \"#utility.yul\":9591:9614   */\n      mload\n        /* \"#utility.yul\":9627:9690   */\n      tag_231\n        /* \"#utility.yul\":9684:9688   */\n      0x80\n        /* \"#utility.yul\":9679:9682   */\n      dup7\n        /* \"#utility.yul\":9675:9689   */\n      add\n        /* \"#utility.yul\":9661:9673   */\n      dup3\n        /* \"#utility.yul\":9627:9690   */\n      tag_99\n      jump\t// in\n    tag_231:\n        /* \"#utility.yul\":9527:9700   */\n      pop\n        /* \"#utility.yul\":9790:9794   */\n      0xa0\n        /* \"#utility.yul\":9783:9788   */\n      dup4\n        /* \"#utility.yul\":9779:9795   */\n      add\n        /* \"#utility.yul\":9773:9796   */\n      mload\n        /* \"#utility.yul\":9809:9872   */\n      tag_232\n        /* \"#utility.yul\":9866:9870   */\n      0xa0\n        /* \"#utility.yul\":9861:9864   */\n      dup7\n        /* \"#utility.yul\":9857:9871   */\n      add\n        /* \"#utility.yul\":9843:9855   */\n      dup3\n        /* \"#utility.yul\":9809:9872   */\n      tag_99\n      jump\t// in\n    tag_232:\n        /* \"#utility.yul\":9710:9882   */\n      pop\n        /* \"#utility.yul\":9966:9970   */\n      0xc0\n        /* \"#utility.yul\":9959:9964   */\n      dup4\n        /* \"#utility.yul\":9955:9971   */\n      add\n        /* \"#utility.yul\":9949:9972   */\n      mload\n        /* \"#utility.yul\":9985:10042   */\n      tag_233\n        /* \"#utility.yul\":10036:10040   */\n      0xc0\n        /* \"#utility.yul\":10031:10034   */\n      dup7\n        /* \"#utility.yul\":10027:10041   */\n      add\n        /* \"#utility.yul\":10013:10025   */\n      dup3\n        /* \"#utility.yul\":9985:10042   */\n      tag_100\n      jump\t// in\n    tag_233:\n        /* \"#utility.yul\":9892:10052   */\n      pop\n        /* \"#utility.yul\":10069:10073   */\n      dup1\n        /* \"#utility.yul\":10062:10073   */\n      swap2\n      pop\n        /* \"#utility.yul\":8661:10079   */\n      pop\n        /* \"#utility.yul\":8549:10079   */\n      swap3\n      swap2\n      pop\n      pop\n      jump\t// out\n        /* \"#utility.yul\":10085:10337   */\n    tag_102:\n        /* \"#utility.yul\":10202:10212   */\n      0x00\n        /* \"#utility.yul\":10237:10331   */\n      tag_235\n        /* \"#utility.yul\":10327:10330   */\n      dup4\n        /* \"#utility.yul\":10319:10325   */\n      dup4\n        /* \"#utility.yul\":10237:10331   */\n      tag_101\n      jump\t// in\n    tag_235:\n        /* \"#utility.yul\":10223:10331   */\n      swap1\n      pop\n        /* \"#utility.yul\":10085:10337   */\n      swap3\n      swap2\n      pop\n      pop\n      jump\t// out\n        /* \"#utility.yul\":10343:10480   */\n    tag_103:\n        /* \"#utility.yul\":10437:10441   */\n      0x00\n        /* \"#utility.yul\":10469:10473   */\n      0x20\n        /* \"#utility.yul\":10464:10467   */\n      dup3\n        /* \"#utility.yul\":10460:10474   */\n      add\n        /* \"#utility.yul\":10452:10474   */\n      swap1\n      pop\n        /* \"#utility.yul\":10343:10480   */\n      swap2\n      swap1\n      pop\n      jump\t// out\n        /* \"#utility.yul\":10548:11651   */\n    tag_104:\n        /* \"#utility.yul\":10715:10718   */\n      0x00\n        /* \"#utility.yul\":10744:10822   */\n      tag_238\n        /* \"#utility.yul\":10816:10821   */\n      dup3\n        /* \"#utility.yul\":10744:10822   */\n      tag_93\n      jump\t// in\n    tag_238:\n        /* \"#utility.yul\":10838:10948   */\n      tag_239\n        /* \"#utility.yul\":10941:10947   */\n      dup2\n        /* \"#utility.yul\":10936:10939   */\n      dup6\n        /* \"#utility.yul\":10838:10948   */\n      tag_94\n      jump\t// in\n    tag_239:\n        /* \"#utility.yul\":10831:10948   */\n      swap4\n      pop\n        /* \"#utility.yul\":10974:10977   */\n      dup4\n        /* \"#utility.yul\":11019:11023   */\n      0x20\n        /* \"#utility.yul\":11011:11017   */\n      dup3\n        /* \"#utility.yul\":11007:11024   */\n      mul\n        /* \"#utility.yul\":11002:11005   */\n      dup6\n        /* \"#utility.yul\":10998:11025   */\n      add\n        /* \"#utility.yul\":11049:11129   */\n      tag_240\n        /* \"#utility.yul\":11123:11128   */\n      dup6\n        /* \"#utility.yul\":11049:11129   */\n      tag_95\n      jump\t// in\n    tag_240:\n        /* \"#utility.yul\":11152:11159   */\n      dup1\n        /* \"#utility.yul\":11183:11184   */\n      0x00\n        /* \"#utility.yul\":11168:11606   */\n    tag_241:\n        /* \"#utility.yul\":11193:11199   */\n      dup6\n        /* \"#utility.yul\":11190:11191   */\n      dup2\n        /* \"#utility.yul\":11187:11200   */\n      lt\n        /* \"#utility.yul\":11168:11606   */\n      iszero\n      tag_243\n      jumpi\n        /* \"#utility.yul\":11264:11273   */\n      dup5\n        /* \"#utility.yul\":11258:11262   */\n      dup5\n        /* \"#utility.yul\":11254:11274   */\n      sub\n        /* \"#utility.yul\":11249:11252   */\n      dup10\n        /* \"#utility.yul\":11242:11275   */\n      mstore\n        /* \"#utility.yul\":11315:11321   */\n      dup2\n        /* \"#utility.yul\":11309:11322   */\n      mload\n        /* \"#utility.yul\":11343:11455   */\n      tag_244\n        /* \"#utility.yul\":11450:11454   */\n      dup6\n        /* \"#utility.yul\":11435:11448   */\n      dup3\n        /* \"#utility.yul\":11343:11455   */\n      tag_102\n      jump\t// in\n    tag_244:\n        /* \"#utility.yul\":11335:11455   */\n      swap5\n      pop\n        /* \"#utility.yul\":11478:11562   */\n      tag_245\n        /* \"#utility.yul\":11555:11561   */\n      dup4\n        /* \"#utility.yul\":11478:11562   */\n      tag_103\n      jump\t// in\n    tag_245:\n        /* \"#utility.yul\":11468:11562   */\n      swap3\n      pop\n        /* \"#utility.yul\":11591:11595   */\n      0x20\n        /* \"#utility.yul\":11586:11589   */\n      dup11\n        /* \"#utility.yul\":11582:11596   */\n      add\n        /* \"#utility.yul\":11575:11596   */\n      swap10\n      pop\n        /* \"#utility.yul\":11228:11606   */\n      pop\n        /* \"#utility.yul\":11215:11216   */\n      0x01\n        /* \"#utility.yul\":11212:11213   */\n      dup2\n        /* \"#utility.yul\":11208:11217   */\n      add\n        /* \"#utility.yul\":11203:11217   */\n      swap1\n      pop\n        /* \"#utility.yul\":11168:11606   */\n      jump(tag_241)\n    tag_243:\n        /* \"#utility.yul\":11172:11186   */\n      pop\n        /* \"#utility.yul\":11622:11626   */\n      dup3\n        /* \"#utility.yul\":11615:11626   */\n      swap8\n      pop\n        /* \"#utility.yul\":11642:11645   */\n      dup8\n        /* \"#utility.yul\":11635:11645   */\n      swap6\n      pop\n        /* \"#utility.yul\":10720:11651   */\n      pop\n      pop\n      pop\n      pop\n      pop\n        /* \"#utility.yul\":10548:11651   */\n      swap3\n      swap2\n      pop\n      pop\n      jump\t// out\n        /* \"#utility.yul\":11657:12126   */\n    tag_20:\n        /* \"#utility.yul\":11848:11852   */\n      0x00\n        /* \"#utility.yul\":11886:11888   */\n      0x20\n        /* \"#utility.yul\":11875:11884   */\n      dup3\n        /* \"#utility.yul\":11871:11889   */\n      add\n        /* \"#utility.yul\":11863:11889   */\n      swap1\n      pop\n        /* \"#utility.yul\":11935:11944   */\n      dup2\n        /* \"#utility.yul\":11929:11933   */\n      dup2\n        /* \"#utility.yul\":11925:11945   */\n      sub\n        /* \"#utility.yul\":11921:11922   */\n      0x00\n        /* \"#utility.yul\":11910:11919   */\n      dup4\n        /* \"#utility.yul\":11906:11923   */\n      add\n        /* \"#utility.yul\":11899:11946   */\n      mstore\n        /* \"#utility.yul\":11963:12119   */\n      tag_247\n        /* \"#utility.yul\":12114:12118   */\n      dup2\n        /* \"#utility.yul\":12105:12111   */\n      dup5\n        /* \"#utility.yul\":11963:12119   */\n      tag_104\n      jump\t// in\n    tag_247:\n        /* \"#utility.yul\":11955:12119   */\n      swap1\n      pop\n        /* \"#utility.yul\":11657:12126   */\n      swap3\n      swap2\n      pop\n      pop\n      jump\t// out\n        /* \"#utility.yul\":12132:12641   */\n    tag_23:\n        /* \"#utility.yul\":12201:12207   */\n      0x00\n        /* \"#utility.yul\":12250:12252   */\n      0x20\n        /* \"#utility.yul\":12238:12247   */\n      dup3\n        /* \"#utility.yul\":12229:12236   */\n      dup5\n        /* \"#utility.yul\":12225:12248   */\n      sub\n        /* \"#utility.yul\":12221:12253   */\n      slt\n        /* \"#utility.yul\":12218:12337   */\n      iszero\n      tag_249\n      jumpi\n        /* \"#utility.yul\":12256:12335   */\n      tag_250\n      tag_66\n      jump\t// in\n    tag_250:\n        /* \"#utility.yul\":12218:12337   */\n    tag_249:\n        /* \"#utility.yul\":12404:12405   */\n      0x00\n        /* \"#utility.yul\":12393:12402   */\n      dup3\n        /* \"#utility.yul\":12389:12406   */\n      add\n        /* \"#utility.yul\":12376:12407   */\n      calldataload\n        /* \"#utility.yul\":12434:12452   */\n      0xffffffffffffffff\n        /* \"#utility.yul\":12426:12432   */\n      dup2\n        /* \"#utility.yul\":12423:12453   */\n      gt\n        /* \"#utility.yul\":12420:12537   */\n      iszero\n      tag_251\n      jumpi\n        /* \"#utility.yul\":12456:12535   */\n      tag_252\n      tag_67\n      jump\t// in\n    tag_252:\n        /* \"#utility.yul\":12420:12537   */\n    tag_251:\n        /* \"#utility.yul\":12561:12624   */\n      tag_253\n        /* \"#utility.yul\":12616:12623   */\n      dup5\n        /* \"#utility.yul\":12607:12613   */\n      dup3\n        /* \"#utility.yul\":12596:12605   */\n      dup6\n        /* \"#utility.yul\":12592:12614   */\n      add\n        /* \"#utility.yul\":12561:12624   */\n      tag_92\n      jump\t// in\n    tag_253:\n        /* \"#utility.yul\":12551:12624   */\n      swap2\n      pop\n        /* \"#utility.yul\":12347:12634   */\n      pop\n        /* \"#utility.yul\":12132:12641   */\n      swap3\n      swap2\n      pop\n      pop\n      jump\t// out\n        /* \"#utility.yul\":12647:12827   */\n    tag_105:\n        /* \"#utility.yul\":12695:12772   */\n      0x4e487b7100000000000000000000000000000000000000000000000000000000\n        /* \"#utility.yul\":12692:12693   */\n      0x00\n        /* \"#utility.yul\":12685:12773   */\n      mstore\n        /* \"#utility.yul\":12792:12796   */\n      0x22\n        /* \"#utility.yul\":12789:12790   */\n      0x04\n        /* \"#utility.yul\":12782:12797   */\n      mstore\n        /* \"#utility.yul\":12816:12820   */\n      0x24\n        /* \"#utility.yul\":12813:12814   */\n      0x00\n        /* \"#utility.yul\":12806:12821   */\n      revert\n        /* \"#utility.yul\":12833:13153   */\n    tag_29:\n        /* \"#utility.yul\":12877:12883   */\n      0x00\n        /* \"#utility.yul\":12914:12915   */\n      0x02\n        /* \"#utility.yul\":12908:12912   */\n      dup3\n        /* \"#utility.yul\":12904:12916   */\n      div\n        /* \"#utility.yul\":12894:12916   */\n      swap1\n      pop\n        /* \"#utility.yul\":12961:12962   */\n      0x01\n        /* \"#utility.yul\":12955:12959   */\n      dup3\n        /* \"#utility.yul\":12951:12963   */\n      and\n        /* \"#utility.yul\":12982:13000   */\n      dup1\n        /* \"#utility.yul\":12972:13053   */\n      tag_256\n      jumpi\n        /* \"#utility.yul\":13038:13042   */\n      0x7f\n        /* \"#utility.yul\":13030:13036   */\n      dup3\n        /* \"#utility.yul\":13026:13043   */\n      and\n        /* \"#utility.yul\":13016:13043   */\n      swap2\n      pop\n        /* \"#utility.yul\":12972:13053   */\n    tag_256:\n        /* \"#utility.yul\":13100:13102   */\n      0x20\n        /* \"#utility.yul\":13092:13098   */\n      dup3\n        /* \"#utility.yul\":13089:13103   */\n      lt\n        /* \"#utility.yul\":13069:13087   */\n      dup2\n        /* \"#utility.yul\":13066:13104   */\n      sub\n        /* \"#utility.yul\":13063:13147   */\n      tag_257\n      jumpi\n        /* \"#utility.yul\":13119:13137   */\n      tag_258\n      tag_105\n      jump\t// in\n    tag_258:\n        /* \"#utility.yul\":13063:13147   */\n    tag_257:\n        /* \"#utility.yul\":12884:13153   */\n      pop\n        /* \"#utility.yul\":12833:13153   */\n      swap2\n      swap1\n      pop\n      jump\t// out\n        /* \"#utility.yul\":13159:13307   */\n    tag_106:\n        /* \"#utility.yul\":13261:13272   */\n      0x00\n        /* \"#utility.yul\":13298:13301   */\n      dup2\n        /* \"#utility.yul\":13283:13301   */\n      swap1\n      pop\n        /* \"#utility.yul\":13159:13307   */\n      swap3\n      swap2\n      pop\n      pop\n      jump\t// out\n        /* \"#utility.yul\":13313:13703   */\n    tag_107:\n        /* \"#utility.yul\":13419:13422   */\n      0x00\n        /* \"#utility.yul\":13447:13486   */\n      tag_261\n        /* \"#utility.yul\":13480:13485   */\n      dup3\n        /* \"#utility.yul\":13447:13486   */\n      tag_74\n      jump\t// in\n    tag_261:\n        /* \"#utility.yul\":13502:13591   */\n      tag_262\n        /* \"#utility.yul\":13584:13590   */\n      dup2\n        /* \"#utility.yul\":13579:13582   */\n      dup6\n        /* \"#utility.yul\":13502:13591   */\n      tag_106\n      jump\t// in\n    tag_262:\n        /* \"#utility.yul\":13495:13591   */\n      swap4\n      pop\n        /* \"#utility.yul\":13600:13665   */\n      tag_263\n        /* \"#utility.yul\":13658:13664   */\n      dup2\n        /* \"#utility.yul\":13653:13656   */\n      dup6\n        /* \"#utility.yul\":13646:13650   */\n      0x20\n        /* \"#utility.yul\":13639:13644   */\n      dup7\n        /* \"#utility.yul\":13635:13651   */\n      add\n        /* \"#utility.yul\":13600:13665   */\n      tag_76\n      jump\t// in\n    tag_263:\n        /* \"#utility.yul\":13690:13696   */\n      dup1\n        /* \"#utility.yul\":13685:13688   */\n      dup5\n        /* \"#utility.yul\":13681:13697   */\n      add\n        /* \"#utility.yul\":13674:13697   */\n      swap2\n      pop\n        /* \"#utility.yul\":13423:13703   */\n      pop\n        /* \"#utility.yul\":13313:13703   */\n      swap3\n      swap2\n      pop\n      pop\n      jump\t// out\n        /* \"#utility.yul\":13709:13984   */\n    tag_36:\n        /* \"#utility.yul\":13841:13844   */\n      0x00\n        /* \"#utility.yul\":13863:13958   */\n      tag_265\n        /* \"#utility.yul\":13954:13957   */\n      dup3\n        /* \"#utility.yul\":13945:13951   */\n      dup5\n        /* \"#utility.yul\":13863:13958   */\n      tag_107\n      jump\t// in\n    tag_265:\n        /* \"#utility.yul\":13856:13958   */\n      swap2\n      pop\n        /* \"#utility.yul\":13975:13978   */\n      dup2\n        /* \"#utility.yul\":13968:13978   */\n      swap1\n      pop\n        /* \"#utility.yul\":13709:13984   */\n      swap3\n      swap2\n      pop\n      pop\n      jump\t// out\n        /* \"#utility.yul\":13990:14216   */\n    tag_108:\n        /* \"#utility.yul\":14130:14164   */\n      0x43616d706169676e20776974682074686973207469746c6520616c7265616479\n        /* \"#utility.yul\":14126:14127   */\n      0x00\n        /* \"#utility.yul\":14118:14124   */\n      dup3\n        /* \"#utility.yul\":14114:14128   */\n      add\n        /* \"#utility.yul\":14107:14165   */\n      mstore\n        /* \"#utility.yul\":14199:14208   */\n      0x2065786973747300000000000000000000000000000000000000000000000000\n        /* \"#utility.yul\":14194:14196   */\n      0x20\n        /* \"#utility.yul\":14186:14192   */\n      dup3\n        /* \"#utility.yul\":14182:14197   */\n      add\n        /* \"#utility.yul\":14175:14209   */\n      mstore\n        /* \"#utility.yul\":13990:14216   */\n      pop\n      jump\t// out\n        /* \"#utility.yul\":14222:14588   */\n    tag_109:\n        /* \"#utility.yul\":14364:14367   */\n      0x00\n        /* \"#utility.yul\":14385:14452   */\n      tag_268\n        /* \"#utility.yul\":14449:14451   */\n      0x27\n        /* \"#utility.yul\":14444:14447   */\n      dup4\n        /* \"#utility.yul\":14385:14452   */\n      tag_75\n      jump\t// in\n    tag_268:\n        /* \"#utility.yul\":14378:14452   */\n      swap2\n      pop\n        /* \"#utility.yul\":14461:14554   */\n      tag_269\n        /* \"#utility.yul\":14550:14553   */\n      dup3\n        /* \"#utility.yul\":14461:14554   */\n      tag_108\n      jump\t// in\n    tag_269:\n        /* \"#utility.yul\":14579:14581   */\n      0x40\n        /* \"#utility.yul\":14574:14577   */\n      dup3\n        /* \"#utility.yul\":14570:14582   */\n      add\n        /* \"#utility.yul\":14563:14582   */\n      swap1\n      pop\n        /* \"#utility.yul\":14222:14588   */\n      swap2\n      swap1\n      pop\n      jump\t// out\n        /* \"#utility.yul\":14594:15013   */\n    tag_40:\n        /* \"#utility.yul\":14760:14764   */\n      0x00\n        /* \"#utility.yul\":14798:14800   */\n      0x20\n        /* \"#utility.yul\":14787:14796   */\n      dup3\n        /* \"#utility.yul\":14783:14801   */\n      add\n        /* \"#utility.yul\":14775:14801   */\n      swap1\n      pop\n        /* \"#utility.yul\":14847:14856   */\n      dup2\n        /* \"#utility.yul\":14841:14845   */\n      dup2\n        /* \"#utility.yul\":14837:14857   */\n      sub\n        /* \"#utility.yul\":14833:14834   */\n      0x00\n        /* \"#utility.yul\":14822:14831   */\n      dup4\n        /* \"#utility.yul\":14818:14835   */\n      add\n        /* \"#utility.yul\":14811:14858   */\n      mstore\n        /* \"#utility.yul\":14875:15006   */\n      tag_271\n        /* \"#utility.yul\":15001:15005   */\n      dup2\n        /* \"#utility.yul\":14875:15006   */\n      tag_109\n      jump\t// in\n    tag_271:\n        /* \"#utility.yul\":14867:15006   */\n      swap1\n      pop\n        /* \"#utility.yul\":14594:15013   */\n      swap2\n      swap1\n      pop\n      jump\t// out\n        /* \"#utility.yul\":15019:15195   */\n    tag_110:\n        /* \"#utility.yul\":15159:15187   */\n      0x5768696368206b696e6420616464726573732062652074686973000000000000\n        /* \"#utility.yul\":15155:15156   */\n      0x00\n        /* \"#utility.yul\":15147:15153   */\n      dup3\n        /* \"#utility.yul\":15143:15157   */\n      add\n        /* \"#utility.yul\":15136:15188   */\n      mstore\n        /* \"#utility.yul\":15019:15195   */\n      pop\n      jump\t// out\n        /* \"#utility.yul\":15201:15567   */\n    tag_111:\n        /* \"#utility.yul\":15343:15346   */\n      0x00\n        /* \"#utility.yul\":15364:15431   */\n      tag_274\n        /* \"#utility.yul\":15428:15430   */\n      0x1a\n        /* \"#utility.yul\":15423:15426   */\n      dup4\n        /* \"#utility.yul\":15364:15431   */\n      tag_75\n      jump\t// in\n    tag_274:\n        /* \"#utility.yul\":15357:15431   */\n      swap2\n      pop\n        /* \"#utility.yul\":15440:15533   */\n      tag_275\n        /* \"#utility.yul\":15529:15532   */\n      dup3\n        /* \"#utility.yul\":15440:15533   */\n      tag_110\n      jump\t// in\n    tag_275:\n        /* \"#utility.yul\":15558:15560   */\n      0x20\n        /* \"#utility.yul\":15553:15556   */\n      dup3\n        /* \"#utility.yul\":15549:15561   */\n      add\n        /* \"#utility.yul\":15542:15561   */\n      swap1\n      pop\n        /* \"#utility.yul\":15201:15567   */\n      swap2\n      swap1\n      pop\n      jump\t// out\n        /* \"#utility.yul\":15573:15992   */\n    tag_43:\n        /* \"#utility.yul\":15739:15743   */\n      0x00\n        /* \"#utility.yul\":15777:15779   */\n      0x20\n        /* \"#utility.yul\":15766:15775   */\n      dup3\n        /* \"#utility.yul\":15762:15780   */\n      add\n        /* \"#utility.yul\":15754:15780   */\n      swap1\n      pop\n        /* \"#utility.yul\":15826:15835   */\n      dup2\n        /* \"#utility.yul\":15820:15824   */\n      dup2\n        /* \"#utility.yul\":15816:15836   */\n      sub\n        /* \"#utility.yul\":15812:15813   */\n      0x00\n        /* \"#utility.yul\":15801:15810   */\n      dup4\n        /* \"#utility.yul\":15797:15814   */\n      add\n        /* \"#utility.yul\":15790:15837   */\n      mstore\n        /* \"#utility.yul\":15854:15985   */\n      tag_277\n        /* \"#utility.yul\":15980:15984   */\n      dup2\n        /* \"#utility.yul\":15854:15985   */\n      tag_111\n      jump\t// in\n    tag_277:\n        /* \"#utility.yul\":15846:15985   */\n      swap1\n      pop\n        /* \"#utility.yul\":15573:15992   */\n      swap2\n      swap1\n      pop\n      jump\t// out\n        /* \"#utility.yul\":15998:16173   */\n    tag_112:\n        /* \"#utility.yul\":16138:16165   */\n      0x596f75722063616d706169676e206e6f20676574206e616d6500000000000000\n        /* \"#utility.yul\":16134:16135   */\n      0x00\n        /* \"#utility.yul\":16126:16132   */\n      dup3\n        /* \"#utility.yul\":16122:16136   */\n      add\n        /* \"#utility.yul\":16115:16166   */\n      mstore\n        /* \"#utility.yul\":15998:16173   */\n      pop\n      jump\t// out\n        /* \"#utility.yul\":16179:16545   */\n    tag_113:\n        /* \"#utility.yul\":16321:16324   */\n      0x00\n        /* \"#utility.yul\":16342:16409   */\n      tag_280\n        /* \"#utility.yul\":16406:16408   */\n      0x19\n        /* \"#utility.yul\":16401:16404   */\n      dup4\n        /* \"#utility.yul\":16342:16409   */\n      tag_75\n      jump\t// in\n    tag_280:\n        /* \"#utility.yul\":16335:16409   */\n      swap2\n      pop\n        /* \"#utility.yul\":16418:16511   */\n      tag_281\n        /* \"#utility.yul\":16507:16510   */\n      dup3\n        /* \"#utility.yul\":16418:16511   */\n      tag_112\n      jump\t// in\n    tag_281:\n        /* \"#utility.yul\":16536:16538   */\n      0x20\n        /* \"#utility.yul\":16531:16534   */\n      dup3\n        /* \"#utility.yul\":16527:16539   */\n      add\n        /* \"#utility.yul\":16520:16539   */\n      swap1\n      pop\n        /* \"#utility.yul\":16179:16545   */\n      swap2\n      swap1\n      pop\n      jump\t// out\n        /* \"#utility.yul\":16551:16970   */\n    tag_46:\n        /* \"#utility.yul\":16717:16721   */\n      0x00\n        /* \"#utility.yul\":16755:16757   */\n      0x20\n        /* \"#utility.yul\":16744:16753   */\n      dup3\n        /* \"#utility.yul\":16740:16758   */\n      add\n        /* \"#utility.yul\":16732:16758   */\n      swap1\n      pop\n        /* \"#utility.yul\":16804:16813   */\n      dup2\n        /* \"#utility.yul\":16798:16802   */\n      dup2\n        /* \"#utility.yul\":16794:16814   */\n      sub\n        /* \"#utility.yul\":16790:16791   */\n      0x00\n        /* \"#utility.yul\":16779:16788   */\n      dup4\n        /* \"#utility.yul\":16775:16792   */\n      add\n        /* \"#utility.yul\":16768:16815   */\n      mstore\n        /* \"#utility.yul\":16832:16963   */\n      tag_283\n        /* \"#utility.yul\":16958:16962   */\n      dup2\n        /* \"#utility.yul\":16832:16963   */\n      tag_113\n      jump\t// in\n    tag_283:\n        /* \"#utility.yul\":16824:16963   */\n      swap1\n      pop\n        /* \"#utility.yul\":16551:16970   */\n      swap2\n      swap1\n      pop\n      jump\t// out\n        /* \"#utility.yul\":16976:17152   */\n    tag_114:\n        /* \"#utility.yul\":17116:17144   */\n      0x42727568682063616e20796f75206e6f7420646f20746861743f000000000000\n        /* \"#utility.yul\":17112:17113   */\n      0x00\n        /* \"#utility.yul\":17104:17110   */\n      dup3\n        /* \"#utility.yul\":17100:17114   */\n      add\n        /* \"#utility.yul\":17093:17145   */\n      mstore\n        /* \"#utility.yul\":16976:17152   */\n      pop\n      jump\t// out\n        /* \"#utility.yul\":17158:17524   */\n    tag_115:\n        /* \"#utility.yul\":17300:17303   */\n      0x00\n        /* \"#utility.yul\":17321:17388   */\n      tag_286\n        /* \"#utility.yul\":17385:17387   */\n      0x1a\n        /* \"#utility.yul\":17380:17383   */\n      dup4\n        /* \"#utility.yul\":17321:17388   */\n      tag_75\n      jump\t// in\n    tag_286:\n        /* \"#utility.yul\":17314:17388   */\n      swap2\n      pop\n        /* \"#utility.yul\":17397:17490   */\n      tag_287\n        /* \"#utility.yul\":17486:17489   */\n      dup3\n        /* \"#utility.yul\":17397:17490   */\n      tag_114\n      jump\t// in\n    tag_287:\n        /* \"#utility.yul\":17515:17517   */\n      0x20\n        /* \"#utility.yul\":17510:17513   */\n      dup3\n        /* \"#utility.yul\":17506:17518   */\n      add\n        /* \"#utility.yul\":17499:17518   */\n      swap1\n      pop\n        /* \"#utility.yul\":17158:17524   */\n      swap2\n      swap1\n      pop\n      jump\t// out\n        /* \"#utility.yul\":17530:17949   */\n    tag_49:\n        /* \"#utility.yul\":17696:17700   */\n      0x00\n        /* \"#utility.yul\":17734:17736   */\n      0x20\n        /* \"#utility.yul\":17723:17732   */\n      dup3\n        /* \"#utility.yul\":17719:17737   */\n      add\n        /* \"#utility.yul\":17711:17737   */\n      swap1\n      pop\n        /* \"#utility.yul\":17783:17792   */\n      dup2\n        /* \"#utility.yul\":17777:17781   */\n      dup2\n        /* \"#utility.yul\":17773:17793   */\n      sub\n        /* \"#utility.yul\":17769:17770   */\n      0x00\n        /* \"#utility.yul\":17758:17767   */\n      dup4\n        /* \"#utility.yul\":17754:17771   */\n      add\n        /* \"#utility.yul\":17747:17794   */\n      mstore\n        /* \"#utility.yul\":17811:17942   */\n      tag_289\n        /* \"#utility.yul\":17937:17941   */\n      dup2\n        /* \"#utility.yul\":17811:17942   */\n      tag_115\n      jump\t// in\n    tag_289:\n        /* \"#utility.yul\":17803:17942   */\n      swap1\n      pop\n        /* \"#utility.yul\":17530:17949   */\n      swap2\n      swap1\n      pop\n      jump\t// out\n        /* \"#utility.yul\":17955:18096   */\n    tag_116:\n        /* \"#utility.yul\":18004:18008   */\n      0x00\n        /* \"#utility.yul\":18027:18030   */\n      dup2\n        /* \"#utility.yul\":18019:18030   */\n      swap1\n      pop\n        /* \"#utility.yul\":18050:18053   */\n      dup2\n        /* \"#utility.yul\":18047:18048   */\n      0x00\n        /* \"#utility.yul\":18040:18054   */\n      mstore\n        /* \"#utility.yul\":18084:18088   */\n      0x20\n        /* \"#utility.yul\":18081:18082   */\n      0x00\n        /* \"#utility.yul\":18071:18089   */\n      keccak256\n        /* \"#utility.yul\":18063:18089   */\n      swap1\n      pop\n        /* \"#utility.yul\":17955:18096   */\n      swap2\n      swap1\n      pop\n      jump\t// out\n        /* \"#utility.yul\":18102:18195   */\n    tag_117:\n        /* \"#utility.yul\":18139:18145   */\n      0x00\n        /* \"#utility.yul\":18186:18188   */\n      0x20\n        /* \"#utility.yul\":18181:18183   */\n      0x1f\n        /* \"#utility.yul\":18174:18179   */\n      dup4\n        /* \"#utility.yul\":18170:18184   */\n      add\n        /* \"#utility.yul\":18166:18189   */\n      div\n        /* \"#utility.yul\":18156:18189   */\n      swap1\n      pop\n        /* \"#utility.yul\":18102:18195   */\n      swap2\n      swap1\n      pop\n      jump\t// out\n        /* \"#utility.yul\":18201:18308   */\n    tag_118:\n        /* \"#utility.yul\":18245:18253   */\n      0x00\n        /* \"#utility.yul\":18295:18300   */\n      dup3\n        /* \"#utility.yul\":18289:18293   */\n      dup3\n        /* \"#utility.yul\":18285:18301   */\n      shl\n        /* \"#utility.yul\":18264:18301   */\n      swap1\n      pop\n        /* \"#utility.yul\":18201:18308   */\n      swap3\n      swap2\n      pop\n      pop\n      jump\t// out\n        /* \"#utility.yul\":18314:18707   */\n    tag_119:\n        /* \"#utility.yul\":18383:18389   */\n      0x00\n        /* \"#utility.yul\":18433:18434   */\n      0x08\n        /* \"#utility.yul\":18421:18431   */\n      dup4\n        /* \"#utility.yul\":18417:18435   */\n      mul\n        /* \"#utility.yul\":18456:18553   */\n      tag_294\n        /* \"#utility.yul\":18486:18552   */\n      0xffffffffffffffffffffffffffffffffffffffffffffffffffffffffffffffff\n        /* \"#utility.yul\":18475:18484   */\n      dup3\n        /* \"#utility.yul\":18456:18553   */\n      tag_118\n      jump\t// in\n    tag_294:\n        /* \"#utility.yul\":18574:18613   */\n      tag_295\n        /* \"#utility.yul\":18604:18612   */\n      dup7\n        /* \"#utility.yul\":18593:18602   */\n      dup4\n        /* \"#utility.yul\":18574:18613   */\n      tag_118\n      jump\t// in\n    tag_295:\n        /* \"#utility.yul\":18562:18613   */\n      swap6\n      pop\n        /* \"#utility.yul\":18646:18650   */\n      dup1\n        /* \"#utility.yul\":18642:18651   */\n      not\n        /* \"#utility.yul\":18635:18640   */\n      dup5\n        /* \"#utility.yul\":18631:18652   */\n      and\n        /* \"#utility.yul\":18622:18652   */\n      swap4\n      pop\n        /* \"#utility.yul\":18695:18699   */\n      dup1\n        /* \"#utility.yul\":18685:18693   */\n      dup7\n        /* \"#utility.yul\":18681:18700   */\n      and\n        /* \"#utility.yul\":18674:18679   */\n      dup5\n        /* \"#utility.yul\":18671:18701   */\n      or\n        /* \"#utility.yul\":18661:18701   */\n      swap3\n      pop\n        /* \"#utility.yul\":18390:18707   */\n      pop\n      pop\n        /* \"#utility.yul\":18314:18707   */\n      swap4\n      swap3\n      pop\n      pop\n      pop\n      jump\t// out\n        /* \"#utility.yul\":18713:18773   */\n    tag_120:\n        /* \"#utility.yul\":18741:18744   */\n      0x00\n        /* \"#utility.yul\":18762:18767   */\n      dup2\n        /* \"#utility.yul\":18755:18767   */\n      swap1\n      pop\n        /* \"#utility.yul\":18713:18773   */\n      swap2\n      swap1\n      pop\n      jump\t// out\n        /* \"#utility.yul\":18779:18921   */\n    tag_121:\n        /* \"#utility.yul\":18829:18838   */\n      0x00\n        /* \"#utility.yul\":18862:18915   */\n      tag_298\n        /* \"#utility.yul\":18880:18914   */\n      tag_299\n        /* \"#utility.yul\":18889:18913   */\n      tag_300\n        /* \"#utility.yul\":18907:18912   */\n      dup5\n        /* \"#utility.yul\":18889:18913   */\n      tag_68\n      jump\t// in\n    tag_300:\n        /* \"#utility.yul\":18880:18914   */\n      tag_120\n      jump\t// in\n    tag_299:\n        /* \"#utility.yul\":18862:18915   */\n      tag_68\n      jump\t// in\n    tag_298:\n        /* \"#utility.yul\":18849:18915   */\n      swap1\n      pop\n        /* \"#utility.yul\":18779:18921   */\n      swap2\n      swap1\n      pop\n      jump\t// out\n        /* \"#utility.yul\":18927:19002   */\n    tag_122:\n        /* \"#utility.yul\":18970:18973   */\n      0x00\n        /* \"#utility.yul\":18991:18996   */\n      dup2\n        /* \"#utility.yul\":18984:18996   */\n      swap1\n      pop\n        /* \"#utility.yul\":18927:19002   */\n      swap2\n      swap1\n      pop\n      jump\t// out\n        /* \"#utility.yul\":19008:19277   */\n    tag_123:\n        /* \"#utility.yul\":19118:19157   */\n      tag_303\n        /* \"#utility.yul\":19149:19156   */\n      dup4\n        /* \"#utility.yul\":19118:19157   */\n      tag_121\n      jump\t// in\n    tag_303:\n        /* \"#utility.yul\":19179:19270   */\n      tag_304\n        /* \"#utility.yul\":19228:19269   */\n      tag_305\n        /* \"#utility.yul\":19252:19268   */\n      dup3\n        /* \"#utility.yul\":19228:19269   */\n      tag_122\n      jump\t// in\n    tag_305:\n        /* \"#utility.yul\":19220:19226   */\n      dup5\n        /* \"#utility.yul\":19213:19217   */\n      dup5\n        /* \"#utility.yul\":19207:19218   */\n      sload\n        /* \"#utility.yul\":19179:19270   */\n      tag_119\n      jump\t// in\n    tag_304:\n        /* \"#utility.yul\":19173:19177   */\n      dup3\n        /* \"#utility.yul\":19166:19271   */\n      sstore\n        /* \"#utility.yul\":19084:19277   */\n      pop\n        /* \"#utility.yul\":19008:19277   */\n      pop\n      pop\n      pop\n      jump\t// out\n        /* \"#utility.yul\":19283:19356   */\n    tag_124:\n        /* \"#utility.yul\":19328:19331   */\n      0x00\n        /* \"#utility.yul\":19283:19356   */\n      swap1\n      jump\t// out\n        /* \"#utility.yul\":19362:19551   */\n    tag_125:\n        /* \"#utility.yul\":19439:19471   */\n      tag_308\n      tag_124\n      jump\t// in\n    tag_308:\n        /* \"#utility.yul\":19480:19545   */\n      tag_309\n        /* \"#utility.yul\":19538:19544   */\n      dup2\n        /* \"#utility.yul\":19530:19536   */\n      dup5\n        /* \"#utility.yul\":19524:19528   */\n      dup5\n        /* \"#utility.yul\":19480:19545   */\n      tag_123\n      jump\t// in\n    tag_309:\n        /* \"#utility.yul\":19415:19551   */\n      pop\n        /* \"#utility.yul\":19362:19551   */\n      pop\n      pop\n      jump\t// out\n        /* \"#utility.yul\":19557:19743   */\n    tag_126:\n        /* \"#utility.yul\":19617:19737   */\n    tag_311:\n        /* \"#utility.yul\":19634:19637   */\n      dup2\n        /* \"#utility.yul\":19627:19632   */\n      dup2\n        /* \"#utility.yul\":19624:19638   */\n      lt\n        /* \"#utility.yul\":19617:19737   */\n      iszero\n      tag_313\n      jumpi\n        /* \"#utility.yul\":19688:19727   */\n      tag_314\n        /* \"#utility.yul\":19725:19726   */\n      0x00\n        /* \"#utility.yul\":19718:19723   */\n      dup3\n        /* \"#utility.yul\":19688:19727   */\n      tag_125\n      jump\t// in\n    tag_314:\n        /* \"#utility.yul\":19661:19662   */\n      0x01\n        /* \"#utility.yul\":19654:19659   */\n      dup2\n        /* \"#utility.yul\":19650:19663   */\n      add\n        /* \"#utility.yul\":19641:19663   */\n      swap1\n      pop\n        /* \"#utility.yul\":19617:19737   */\n      jump(tag_311)\n    tag_313:\n        /* \"#utility.yul\":19557:19743   */\n      pop\n      pop\n      jump\t// out\n        /* \"#utility.yul\":19749:20292   */\n    tag_127:\n        /* \"#utility.yul\":19850:19852   */\n      0x1f\n        /* \"#utility.yul\":19845:19848   */\n      dup3\n        /* \"#utility.yul\":19842:19853   */\n      gt\n        /* \"#utility.yul\":19839:20285   */\n      iszero\n      tag_316\n      jumpi\n        /* \"#utility.yul\":19884:19922   */\n      tag_317\n        /* \"#utility.yul\":19916:19921   */\n      dup2\n        /* \"#utility.yul\":19884:19922   */\n      tag_116\n      jump\t// in\n    tag_317:\n        /* \"#utility.yul\":19968:19997   */\n      tag_318\n        /* \"#utility.yul\":19986:19996   */\n      dup5\n        /* \"#utility.yul\":19968:19997   */\n      tag_117\n      jump\t// in\n    tag_318:\n        /* \"#utility.yul\":19958:19966   */\n      dup2\n        /* \"#utility.yul\":19954:19998   */\n      add\n        /* \"#utility.yul\":20151:20153   */\n      0x20\n        /* \"#utility.yul\":20139:20149   */\n      dup6\n        /* \"#utility.yul\":20136:20154   */\n      lt\n        /* \"#utility.yul\":20133:20182   */\n      iszero\n      tag_319\n      jumpi\n        /* \"#utility.yul\":20172:20180   */\n      dup2\n        /* \"#utility.yul\":20157:20180   */\n      swap1\n      pop\n        /* \"#utility.yul\":20133:20182   */\n    tag_319:\n        /* \"#utility.yul\":20195:20275   */\n      tag_320\n        /* \"#utility.yul\":20251:20273   */\n      tag_321\n        /* \"#utility.yul\":20269:20272   */\n      dup6\n        /* \"#utility.yul\":20251:20273   */\n      tag_117\n      jump\t// in\n    tag_321:\n        /* \"#utility.yul\":20241:20249   */\n      dup4\n        /* \"#utility.yul\":20237:20274   */\n      add\n        /* \"#utility.yul\":20224:20235   */\n      dup3\n        /* \"#utility.yul\":20195:20275   */\n      tag_126\n      jump\t// in\n    tag_320:\n        /* \"#utility.yul\":19854:20285   */\n      pop\n      pop\n        /* \"#utility.yul\":19839:20285   */\n    tag_316:\n        /* \"#utility.yul\":19749:20292   */\n      pop\n      pop\n      pop\n      jump\t// out\n        /* \"#utility.yul\":20298:20415   */\n    tag_128:\n        /* \"#utility.yul\":20352:20360   */\n      0x00\n        /* \"#utility.yul\":20402:20407   */\n      dup3\n        /* \"#utility.yul\":20396:20400   */\n      dup3\n        /* \"#utility.yul\":20392:20408   */\n      shr\n        /* \"#utility.yul\":20371:20408   */\n      swap1\n      pop\n        /* \"#utility.yul\":20298:20415   */\n      swap3\n      swap2\n      pop\n      pop\n      jump\t// out\n        /* \"#utility.yul\":20421:20590   */\n    tag_129:\n        /* \"#utility.yul\":20465:20471   */\n      0x00\n        /* \"#utility.yul\":20498:20549   */\n      tag_324\n        /* \"#utility.yul\":20546:20547   */\n      0x00\n        /* \"#utility.yul\":20542:20548   */\n      not\n        /* \"#utility.yul\":20534:20539   */\n      dup5\n        /* \"#utility.yul\":20531:20532   */\n      0x08\n        /* \"#utility.yul\":20527:20540   */\n      mul\n        /* \"#utility.yul\":20498:20549   */\n      tag_128\n      jump\t// in\n    tag_324:\n        /* \"#utility.yul\":20494:20550   */\n      not\n        /* \"#utility.yul\":20579:20583   */\n      dup1\n        /* \"#utility.yul\":20573:20577   */\n      dup4\n        /* \"#utility.yul\":20569:20584   */\n      and\n        /* \"#utility.yul\":20559:20584   */\n      swap2\n      pop\n        /* \"#utility.yul\":20472:20590   */\n      pop\n        /* \"#utility.yul\":20421:20590   */\n      swap3\n      swap2\n      pop\n      pop\n      jump\t// out\n        /* \"#utility.yul\":20595:20890   */\n    tag_130:\n        /* \"#utility.yul\":20671:20675   */\n      0x00\n        /* \"#utility.yul\":20817:20846   */\n      tag_326\n        /* \"#utility.yul\":20842:20845   */\n      dup4\n        /* \"#utility.yul\":20836:20840   */\n      dup4\n        /* \"#utility.yul\":20817:20846   */\n      tag_129\n      jump\t// in\n    tag_326:\n        /* \"#utility.yul\":20809:20846   */\n      swap2\n      pop\n        /* \"#utility.yul\":20879:20882   */\n      dup3\n        /* \"#utility.yul\":20876:20877   */\n      0x02\n        /* \"#utility.yul\":20872:20883   */\n      mul\n        /* \"#utility.yul\":20866:20870   */\n      dup3\n        /* \"#utility.yul\":20863:20884   */\n      or\n        /* \"#utility.yul\":20855:20884   */\n      swap1\n      pop\n        /* \"#utility.yul\":20595:20890   */\n      swap3\n      swap2\n      pop\n      pop\n      jump\t// out\n        /* \"#utility.yul\":20895:22290   */\n    tag_58:\n        /* \"#utility.yul\":21012:21049   */\n      tag_328\n        /* \"#utility.yul\":21045:21048   */\n      dup3\n        /* \"#utility.yul\":21012:21049   */\n      tag_74\n      jump\t// in\n    tag_328:\n        /* \"#utility.yul\":21114:21132   */\n      0xffffffffffffffff\n        /* \"#utility.yul\":21106:21112   */\n      dup2\n        /* \"#utility.yul\":21103:21133   */\n      gt\n        /* \"#utility.yul\":21100:21156   */\n      iszero\n      tag_329\n      jumpi\n        /* \"#utility.yul\":21136:21154   */\n      tag_330\n      tag_86\n      jump\t// in\n    tag_330:\n        /* \"#utility.yul\":21100:21156   */\n    tag_329:\n        /* \"#utility.yul\":21180:21218   */\n      tag_331\n        /* \"#utility.yul\":21212:21216   */\n      dup3\n        /* \"#utility.yul\":21206:21217   */\n      sload\n        /* \"#utility.yul\":21180:21218   */\n      tag_29\n      jump\t// in\n    tag_331:\n        /* \"#utility.yul\":21265:21332   */\n      tag_332\n        /* \"#utility.yul\":21325:21331   */\n      dup3\n        /* \"#utility.yul\":21317:21323   */\n      dup3\n        /* \"#utility.yul\":21311:21315   */\n      dup6\n        /* \"#utility.yul\":21265:21332   */\n      tag_127\n      jump\t// in\n    tag_332:\n        /* \"#utility.yul\":21359:21360   */\n      0x00\n        /* \"#utility.yul\":21383:21387   */\n      0x20\n        /* \"#utility.yul\":21370:21387   */\n      swap1\n      pop\n        /* \"#utility.yul\":21415:21417   */\n      0x1f\n        /* \"#utility.yul\":21407:21413   */\n      dup4\n        /* \"#utility.yul\":21404:21418   */\n      gt\n        /* \"#utility.yul\":21432:21433   */\n      0x01\n        /* \"#utility.yul\":21427:22045   */\n      dup2\n      eq\n      tag_334\n      jumpi\n        /* \"#utility.yul\":22089:22090   */\n      0x00\n        /* \"#utility.yul\":22106:22112   */\n      dup5\n        /* \"#utility.yul\":22103:22180   */\n      iszero\n      tag_335\n      jumpi\n        /* \"#utility.yul\":22155:22164   */\n      dup3\n        /* \"#utility.yul\":22150:22153   */\n      dup8\n        /* \"#utility.yul\":22146:22165   */\n      add\n        /* \"#utility.yul\":22140:22166   */\n      mload\n        /* \"#utility.yul\":22131:22166   */\n      swap1\n      pop\n        /* \"#utility.yul\":22103:22180   */\n    tag_335:\n        /* \"#utility.yul\":22206:22273   */\n      tag_336\n        /* \"#utility.yul\":22266:22272   */\n      dup6\n        /* \"#utility.yul\":22259:22264   */\n      dup3\n        /* \"#utility.yul\":22206:22273   */\n      tag_130\n      jump\t// in\n    tag_336:\n        /* \"#utility.yul\":22200:22204   */\n      dup7\n        /* \"#utility.yul\":22193:22274   */\n      sstore\n        /* \"#utility.yul\":22062:22284   */\n      pop\n        /* \"#utility.yul\":21397:22284   */\n      jump(tag_333)\n        /* \"#utility.yul\":21427:22045   */\n    tag_334:\n        /* \"#utility.yul\":21479:21483   */\n      0x1f\n        /* \"#utility.yul\":21475:21484   */\n      not\n        /* \"#utility.yul\":21467:21473   */\n      dup5\n        /* \"#utility.yul\":21463:21485   */\n      and\n        /* \"#utility.yul\":21513:21550   */\n      tag_337\n        /* \"#utility.yul\":21545:21549   */\n      dup7\n        /* \"#utility.yul\":21513:21550   */\n      tag_116\n      jump\t// in\n    tag_337:\n        /* \"#utility.yul\":21572:21573   */\n      0x00\n        /* \"#utility.yul\":21586:21794   */\n    tag_338:\n        /* \"#utility.yul\":21600:21607   */\n      dup3\n        /* \"#utility.yul\":21597:21598   */\n      dup2\n        /* \"#utility.yul\":21594:21608   */\n      lt\n        /* \"#utility.yul\":21586:21794   */\n      iszero\n      tag_340\n      jumpi\n        /* \"#utility.yul\":21679:21688   */\n      dup5\n        /* \"#utility.yul\":21674:21677   */\n      dup10\n        /* \"#utility.yul\":21670:21689   */\n      add\n        /* \"#utility.yul\":21664:21690   */\n      mload\n        /* \"#utility.yul\":21656:21662   */\n      dup3\n        /* \"#utility.yul\":21649:21691   */\n      sstore\n        /* \"#utility.yul\":21730:21731   */\n      0x01\n        /* \"#utility.yul\":21722:21728   */\n      dup3\n        /* \"#utility.yul\":21718:21732   */\n      add\n        /* \"#utility.yul\":21708:21732   */\n      swap2\n      pop\n        /* \"#utility.yul\":21777:21779   */\n      0x20\n        /* \"#utility.yul\":21766:21775   */\n      dup6\n        /* \"#utility.yul\":21762:21780   */\n      add\n        /* \"#utility.yul\":21749:21780   */\n      swap5\n      pop\n        /* \"#utility.yul\":21623:21627   */\n      0x20\n        /* \"#utility.yul\":21620:21621   */\n      dup2\n        /* \"#utility.yul\":21616:21628   */\n      add\n        /* \"#utility.yul\":21611:21628   */\n      swap1\n      pop\n        /* \"#utility.yul\":21586:21794   */\n      jump(tag_338)\n    tag_340:\n        /* \"#utility.yul\":21822:21828   */\n      dup7\n        /* \"#utility.yul\":21813:21820   */\n      dup4\n        /* \"#utility.yul\":21810:21829   */\n      lt\n        /* \"#utility.yul\":21807:21986   */\n      iszero\n      tag_341\n      jumpi\n        /* \"#utility.yul\":21880:21889   */\n      dup5\n        /* \"#utility.yul\":21875:21878   */\n      dup10\n        /* \"#utility.yul\":21871:21890   */\n      add\n        /* \"#utility.yul\":21865:21891   */\n      mload\n        /* \"#utility.yul\":21923:21971   */\n      tag_342\n        /* \"#utility.yul\":21965:21969   */\n      0x1f\n        /* \"#utility.yul\":21957:21963   */\n      dup10\n        /* \"#utility.yul\":21953:21970   */\n      and\n        /* \"#utility.yul\":21942:21951   */\n      dup3\n        /* \"#utility.yul\":21923:21971   */\n      tag_129\n      jump\t// in\n    tag_342:\n        /* \"#utility.yul\":21915:21921   */\n      dup4\n        /* \"#utility.yul\":21908:21972   */\n      sstore\n        /* \"#utility.yul\":21830:21986   */\n      pop\n        /* \"#utility.yul\":21807:21986   */\n    tag_341:\n        /* \"#utility.yul\":22032:22033   */\n      0x01\n        /* \"#utility.yul\":22028:22029   */\n      0x02\n        /* \"#utility.yul\":22020:22026   */\n      dup9\n        /* \"#utility.yul\":22016:22030   */\n      mul\n        /* \"#utility.yul\":22012:22034   */\n      add\n        /* \"#utility.yul\":22006:22010   */\n      dup9\n        /* \"#utility.yul\":21999:22035   */\n      sstore\n        /* \"#utility.yul\":21434:22045   */\n      pop\n      pop\n      pop\n        /* \"#utility.yul\":21397:22284   */\n    tag_333:\n      pop\n        /* \"#utility.yul\":20987:22290   */\n      pop\n      pop\n      pop\n        /* \"#utility.yul\":20895:22290   */\n      pop\n      pop\n      jump\t// out\n\n    auxdata: 0xa2646970667358221220aaee9abff8e412b336b73927e86a8e7c4fd193dfd8f07da4c24d1eab68e670de64736f6c634300081a0033\n}\n",
				"bytecode": {
					"linkReferences": {},
					"object": "6080604052348015600e575f80fd5b506112c48061001c5f395ff3fe608060405234801561000f575f80fd5b506004361061004a575f3560e01c80634912c6581461004e57806377bbc4641461008457806386cdf604146100a0578063c50a40d0146100be575b5f80fd5b61006860048036038101906100639190610832565b6100f4565b60405161007b9796959493929190610935565b60405180910390f35b61009e60048036038101906100999190610aff565b610210565b005b6100a86106c3565b6040516100b59190610d48565b60405180910390f35b6100d860048036038101906100d39190610d68565b6106c8565b6040516100eb9796959493929190610935565b60405180910390f35b5f8181548110610102575f80fd5b905f5260205f2090600702015f91509050805f015f9054906101000a900473ffffffffffffffffffffffffffffffffffffffff1690806001015f9054906101000a900473ffffffffffffffffffffffffffffffffffffffff169080600201805461016b90610ddc565b80601f016020809104026020016040519081016040528092919081815260200182805461019790610ddc565b80156101e25780601f106101b9576101008083540402835291602001916101e2565b820191905f5260205f20905b8154815290600101906020018083116101c557829003601f168201915b505050505090806003015490806004015490806005015490806006015f9054906101000a900460ff16905087565b5f6001846040516102219190610e46565b9081526020016040518091039020600201805461023d90610ddc565b90501461027f576040517f08c379a000000000000000000000000000000000000000000000000000000000815260040161027690610ecc565b60405180910390fd5b5f73ffffffffffffffffffffffffffffffffffffffff168473ffffffffffffffffffffffffffffffffffffffff16036102ed576040517f08c379a00000000000000000000000000000000000000000000000000000000081526004016102e490610f34565b60405180910390fd5b5f835111610330576040517f08c379a000000000000000000000000000000000000000000000000000000000815260040161032790610f9c565b60405180910390fd5b5f8111610372576040517f08c379a000000000000000000000000000000000000000000000000000000000815260040161036990611004565b60405180910390fd5b5f6001846040516103839190610e46565b90815260200160405180910390206040518060e00160405290815f82015f9054906101000a900473ffffffffffffffffffffffffffffffffffffffff1673ffffffffffffffffffffffffffffffffffffffff1673ffffffffffffffffffffffffffffffffffffffff168152602001600182015f9054906101000a900473ffffffffffffffffffffffffffffffffffffffff1673ffffffffffffffffffffffffffffffffffffffff1673ffffffffffffffffffffffffffffffffffffffff16815260200160028201805461045590610ddc565b80601f016020809104026020016040519081016040528092919081815260200182805461048190610ddc565b80156104cc5780601f106104a3576101008083540402835291602001916104cc565b820191905f5260205f20905b8154815290600101906020018083116104af57829003601f168201915b50505050508152602001600382015481526020016004820154815260200160058201548152602001600682015f9054906101000a900460ff161515151581525050905033815f019073ffffffffffffffffffffffffffffffffffffffff16908173ffffffffffffffffffffffffffffffffffffffff168152505084816020019073ffffffffffffffffffffffffffffffffffffffff16908173ffffffffffffffffffffffffffffffffffffffff168152505083816040018190525082816060018181525050818160800181815250505f8160a00181815250505f8160c00190151590811515815250505f81908060018154018082558091505060019003905f5260205f2090600702015f909190919091505f820151815f015f6101000a81548173ffffffffffffffffffffffffffffffffffffffff021916908373ffffffffffffffffffffffffffffffffffffffff1602179055506020820151816001015f6101000a81548173ffffffffffffffffffffffffffffffffffffffff021916908373ffffffffffffffffffffffffffffffffffffffff160217905550604082015181600201908161067c91906111bf565b50606082015181600301556080820151816004015560a0820151816005015560c0820151816006015f6101000a81548160ff02191690831515021790555050505050505050565b606090565b6001818051602081018201805184825260208301602085012081835280955050505050505f91509050805f015f9054906101000a900473ffffffffffffffffffffffffffffffffffffffff1690806001015f9054906101000a900473ffffffffffffffffffffffffffffffffffffffff169080600201805461074990610ddc565b80601f016020809104026020016040519081016040528092919081815260200182805461077590610ddc565b80156107c05780601f10610797576101008083540402835291602001916107c0565b820191905f5260205f20905b8154815290600101906020018083116107a357829003601f168201915b505050505090806003015490806004015490806005015490806006015f9054906101000a900460ff16905087565b5f604051905090565b5f80fd5b5f80fd5b5f819050919050565b610811816107ff565b811461081b575f80fd5b50565b5f8135905061082c81610808565b92915050565b5f60208284031215610847576108466107f7565b5b5f6108548482850161081e565b91505092915050565b5f73ffffffffffffffffffffffffffffffffffffffff82169050919050565b5f6108868261085d565b9050919050565b6108968161087c565b82525050565b5f81519050919050565b5f82825260208201905092915050565b8281835e5f83830152505050565b5f601f19601f8301169050919050565b5f6108de8261089c565b6108e881856108a6565b93506108f88185602086016108b6565b610901816108c4565b840191505092915050565b610915816107ff565b82525050565b5f8115159050919050565b61092f8161091b565b82525050565b5f60e0820190506109485f83018a61088d565b610955602083018961088d565b818103604083015261096781886108d4565b9050610976606083018761090c565b610983608083018661090c565b61099060a083018561090c565b61099d60c0830184610926565b98975050505050505050565b6109b28161087c565b81146109bc575f80fd5b50565b5f813590506109cd816109a9565b92915050565b5f80fd5b5f80fd5b7f4e487b71000000000000000000000000000000000000000000000000000000005f52604160045260245ffd5b610a11826108c4565b810181811067ffffffffffffffff82111715610a3057610a2f6109db565b5b80604052505050565b5f610a426107ee565b9050610a4e8282610a08565b919050565b5f67ffffffffffffffff821115610a6d57610a6c6109db565b5b610a76826108c4565b9050602081019050919050565b828183375f83830152505050565b5f610aa3610a9e84610a53565b610a39565b905082815260208101848484011115610abf57610abe6109d7565b5b610aca848285610a83565b509392505050565b5f82601f830112610ae657610ae56109d3565b5b8135610af6848260208601610a91565b91505092915050565b5f805f8060808587031215610b1757610b166107f7565b5b5f610b24878288016109bf565b945050602085013567ffffffffffffffff811115610b4557610b446107fb565b5b610b5187828801610ad2565b9350506040610b628782880161081e565b9250506060610b738782880161081e565b91505092959194509250565b5f81519050919050565b5f82825260208201905092915050565b5f819050602082019050919050565b610bb18161087c565b82525050565b5f82825260208201905092915050565b5f610bd18261089c565b610bdb8185610bb7565b9350610beb8185602086016108b6565b610bf4816108c4565b840191505092915050565b610c08816107ff565b82525050565b610c178161091b565b82525050565b5f60e083015f830151610c325f860182610ba8565b506020830151610c456020860182610ba8565b5060408301518482036040860152610c5d8282610bc7565b9150506060830151610c726060860182610bff565b506080830151610c856080860182610bff565b5060a0830151610c9860a0860182610bff565b5060c0830151610cab60c0860182610c0e565b508091505092915050565b5f610cc18383610c1d565b905092915050565b5f602082019050919050565b5f610cdf82610b7f565b610ce98185610b89565b935083602082028501610cfb85610b99565b805f5b85811015610d365784840389528151610d178582610cb6565b9450610d2283610cc9565b925060208a01995050600181019050610cfe565b50829750879550505050505092915050565b5f6020820190508181035f830152610d608184610cd5565b905092915050565b5f60208284031215610d7d57610d7c6107f7565b5b5f82013567ffffffffffffffff811115610d9a57610d996107fb565b5b610da684828501610ad2565b91505092915050565b7f4e487b71000000000000000000000000000000000000000000000000000000005f52602260045260245ffd5b5f6002820490506001821680610df357607f821691505b602082108103610e0657610e05610daf565b5b50919050565b5f81905092915050565b5f610e208261089c565b610e2a8185610e0c565b9350610e3a8185602086016108b6565b80840191505092915050565b5f610e518284610e16565b915081905092915050565b7f43616d706169676e20776974682074686973207469746c6520616c72656164795f8201527f2065786973747300000000000000000000000000000000000000000000000000602082015250565b5f610eb66027836108a6565b9150610ec182610e5c565b604082019050919050565b5f6020820190508181035f830152610ee381610eaa565b9050919050565b7f5768696368206b696e64206164647265737320626520746869730000000000005f82015250565b5f610f1e601a836108a6565b9150610f2982610eea565b602082019050919050565b5f6020820190508181035f830152610f4b81610f12565b9050919050565b7f596f75722063616d706169676e206e6f20676574206e616d65000000000000005f82015250565b5f610f866019836108a6565b9150610f9182610f52565b602082019050919050565b5f6020820190508181035f830152610fb381610f7a565b9050919050565b7f42727568682063616e20796f75206e6f7420646f20746861743f0000000000005f82015250565b5f610fee601a836108a6565b9150610ff982610fba565b602082019050919050565b5f6020820190508181035f83015261101b81610fe2565b9050919050565b5f819050815f5260205f209050919050565b5f6020601f8301049050919050565b5f82821b905092915050565b5f6008830261107e7fffffffffffffffffffffffffffffffffffffffffffffffffffffffffffffffff82611043565b6110888683611043565b95508019841693508086168417925050509392505050565b5f819050919050565b5f6110c36110be6110b9846107ff565b6110a0565b6107ff565b9050919050565b5f819050919050565b6110dc836110a9565b6110f06110e8826110ca565b84845461104f565b825550505050565b5f90565b6111046110f8565b61110f8184846110d3565b505050565b5b81811015611132576111275f826110fc565b600181019050611115565b5050565b601f8211156111775761114881611022565b61115184611034565b81016020851015611160578190505b61117461116c85611034565b830182611114565b50505b505050565b5f82821c905092915050565b5f6111975f198460080261117c565b1980831691505092915050565b5f6111af8383611188565b9150826002028217905092915050565b6111c88261089c565b67ffffffffffffffff8111156111e1576111e06109db565b5b6111eb8254610ddc565b6111f6828285611136565b5f60209050601f831160018114611227575f8415611215578287015190505b61121f85826111a4565b865550611286565b601f19841661123586611022565b5f5b8281101561125c57848901518255600182019150602085019450602081019050611237565b868310156112795784890151611275601f891682611188565b8355505b6001600288020188555050505b50505050505056fea2646970667358221220aaee9abff8e412b336b73927e86a8e7c4fd193dfd8f07da4c24d1eab68e670de64736f6c634300081a0033",
					"opcodes": "PUSH1 0x80 PUSH1 0x40 MSTORE CALLVALUE DUP1 ISZERO PUSH1 0xE JUMPI PUSH0 DUP1 REVERT JUMPDEST POP PUSH2 0x12C4 DUP1 PUSH2 0x1C PUSH0 CODECOPY PUSH0 RETURN INVALID PUSH1 0x80 PUSH1 0x40 MSTORE CALLVALUE DUP1 ISZERO PUSH2 0xF JUMPI PUSH0 DUP1 REVERT JUMPDEST POP PUSH1 0x4 CALLDATASIZE LT PUSH2 0x4A JUMPI PUSH0 CALLDATALOAD PUSH1 0xE0 SHR DUP1 PUSH4 0x4912C658 EQ PUSH2 0x4E JUMPI DUP1 PUSH4 0x77BBC464 EQ PUSH2 0x84 JUMPI DUP1 PUSH4 0x86CDF604 EQ PUSH2 0xA0 JUMPI DUP1 PUSH4 0xC50A40D0 EQ PUSH2 0xBE JUMPI JUMPDEST PUSH0 DUP1 REVERT JUMPDEST PUSH2 0x68 PUSH1 0x4 DUP1 CALLDATASIZE SUB DUP2 ADD SWAP1 PUSH2 0x63 SWAP2 SWAP1 PUSH2 0x832 JUMP JUMPDEST PUSH2 0xF4 JUMP JUMPDEST PUSH1 0x40 MLOAD PUSH2 0x7B SWAP8 SWAP7 SWAP6 SWAP5 SWAP4 SWAP3 SWAP2 SWAP1 PUSH2 0x935 JUMP JUMPDEST PUSH1 0x40 MLOAD DUP1 SWAP2 SUB SWAP1 RETURN JUMPDEST PUSH2 0x9E PUSH1 0x4 DUP1 CALLDATASIZE SUB DUP2 ADD SWAP1 PUSH2 0x99 SWAP2 SWAP1 PUSH2 0xAFF JUMP JUMPDEST PUSH2 0x210 JUMP JUMPDEST STOP JUMPDEST PUSH2 0xA8 PUSH2 0x6C3 JUMP JUMPDEST PUSH1 0x40 MLOAD PUSH2 0xB5 SWAP2 SWAP1 PUSH2 0xD48 JUMP JUMPDEST PUSH1 0x40 MLOAD DUP1 SWAP2 SUB SWAP1 RETURN JUMPDEST PUSH2 0xD8 PUSH1 0x4 DUP1 CALLDATASIZE SUB DUP2 ADD SWAP1 PUSH2 0xD3 SWAP2 SWAP1 PUSH2 0xD68 JUMP JUMPDEST PUSH2 0x6C8 JUMP JUMPDEST PUSH1 0x40 MLOAD PUSH2 0xEB SWAP8 SWAP7 SWAP6 SWAP5 SWAP4 SWAP3 SWAP2 SWAP1 PUSH2 0x935 JUMP JUMPDEST PUSH1 0x40 MLOAD DUP1 SWAP2 SUB SWAP1 RETURN JUMPDEST PUSH0 DUP2 DUP2 SLOAD DUP2 LT PUSH2 0x102 JUMPI PUSH0 DUP1 REVERT JUMPDEST SWAP1 PUSH0 MSTORE PUSH1 0x20 PUSH0 KECCAK256 SWAP1 PUSH1 0x7 MUL ADD PUSH0 SWAP2 POP SWAP1 POP DUP1 PUSH0 ADD PUSH0 SWAP1 SLOAD SWAP1 PUSH2 0x100 EXP SWAP1 DIV PUSH20 0xFFFFFFFFFFFFFFFFFFFFFFFFFFFFFFFFFFFFFFFF AND SWAP1 DUP1 PUSH1 0x1 ADD PUSH0 SWAP1 SLOAD SWAP1 PUSH2 0x100 EXP SWAP1 DIV PUSH20 0xFFFFFFFFFFFFFFFFFFFFFFFFFFFFFFFFFFFFFFFF AND SWAP1 DUP1 PUSH1 0x2 ADD DUP1 SLOAD PUSH2 0x16B SWAP1 PUSH2 0xDDC JUMP JUMPDEST DUP1 PUSH1 0x1F ADD PUSH1 0x20 DUP1 SWAP2 DIV MUL PUSH1 0x20 ADD PUSH1 0x40 MLOAD SWAP1 DUP2 ADD PUSH1 0x40 MSTORE DUP1 SWAP3 SWAP2 SWAP1 DUP2 DUP2 MSTORE PUSH1 0x20 ADD DUP3 DUP1 SLOAD PUSH2 0x197 SWAP1 PUSH2 0xDDC JUMP JUMPDEST DUP1 ISZERO PUSH2 0x1E2 JUMPI DUP1 PUSH1 0x1F LT PUSH2 0x1B9 JUMPI PUSH2 0x100 DUP1 DUP4 SLOAD DIV MUL DUP4 MSTORE SWAP2 PUSH1 0x20 ADD SWAP2 PUSH2 0x1E2 JUMP JUMPDEST DUP3 ADD SWAP2 SWAP1 PUSH0 MSTORE PUSH1 0x20 PUSH0 KECCAK256 SWAP1 JUMPDEST DUP2 SLOAD DUP2 MSTORE SWAP1 PUSH1 0x1 ADD SWAP1 PUSH1 0x20 ADD DUP1 DUP4 GT PUSH2 0x1C5 JUMPI DUP3 SWAP1 SUB PUSH1 0x1F AND DUP3 ADD SWAP2 JUMPDEST POP POP POP POP POP SWAP1 DUP1 PUSH1 0x3 ADD SLOAD SWAP1 DUP1 PUSH1 0x4 ADD SLOAD SWAP1 DUP1 PUSH1 0x5 ADD SLOAD SWAP1 DUP1 PUSH1 0x6 ADD PUSH0 SWAP1 SLOAD SWAP1 PUSH2 0x100 EXP SWAP1 DIV PUSH1 0xFF AND SWAP1 POP DUP8 JUMP JUMPDEST PUSH0 PUSH1 0x1 DUP5 PUSH1 0x40 MLOAD PUSH2 0x221 SWAP2 SWAP1 PUSH2 0xE46 JUMP JUMPDEST SWAP1 DUP2 MSTORE PUSH1 0x20 ADD PUSH1 0x40 MLOAD DUP1 SWAP2 SUB SWAP1 KECCAK256 PUSH1 0x2 ADD DUP1 SLOAD PUSH2 0x23D SWAP1 PUSH2 0xDDC JUMP JUMPDEST SWAP1 POP EQ PUSH2 0x27F JUMPI PUSH1 0x40 MLOAD PUSH32 0x8C379A000000000000000000000000000000000000000000000000000000000 DUP2 MSTORE PUSH1 0x4 ADD PUSH2 0x276 SWAP1 PUSH2 0xECC JUMP JUMPDEST PUSH1 0x40 MLOAD DUP1 SWAP2 SUB SWAP1 REVERT JUMPDEST PUSH0 PUSH20 0xFFFFFFFFFFFFFFFFFFFFFFFFFFFFFFFFFFFFFFFF AND DUP5 PUSH20 0xFFFFFFFFFFFFFFFFFFFFFFFFFFFFFFFFFFFFFFFF AND SUB PUSH2 0x2ED JUMPI PUSH1 0x40 MLOAD PUSH32 0x8C379A000000000000000000000000000000000000000000000000000000000 DUP2 MSTORE PUSH1 0x4 ADD PUSH2 0x2E4 SWAP1 PUSH2 0xF34 JUMP JUMPDEST PUSH1 0x40 MLOAD DUP1 SWAP2 SUB SWAP1 REVERT JUMPDEST PUSH0 DUP4 MLOAD GT PUSH2 0x330 JUMPI PUSH1 0x40 MLOAD PUSH32 0x8C379A000000000000000000000000000000000000000000000000000000000 DUP2 MSTORE PUSH1 0x4 ADD PUSH2 0x327 SWAP1 PUSH2 0xF9C JUMP JUMPDEST PUSH1 0x40 MLOAD DUP1 SWAP2 SUB SWAP1 REVERT JUMPDEST PUSH0 DUP2 GT PUSH2 0x372 JUMPI PUSH1 0x40 MLOAD PUSH32 0x8C379A000000000000000000000000000000000000000000000000000000000 DUP2 MSTORE PUSH1 0x4 ADD PUSH2 0x369 SWAP1 PUSH2 0x1004 JUMP JUMPDEST PUSH1 0x40 MLOAD DUP1 SWAP2 SUB SWAP1 REVERT JUMPDEST PUSH0 PUSH1 0x1 DUP5 PUSH1 0x40 MLOAD PUSH2 0x383 SWAP2 SWAP1 PUSH2 0xE46 JUMP JUMPDEST SWAP1 DUP2 MSTORE PUSH1 0x20 ADD PUSH1 0x40 MLOAD DUP1 SWAP2 SUB SWAP1 KECCAK256 PUSH1 0x40 MLOAD DUP1 PUSH1 0xE0 ADD PUSH1 0x40 MSTORE SWAP1 DUP2 PUSH0 DUP3 ADD PUSH0 SWAP1 SLOAD SWAP1 PUSH2 0x100 EXP SWAP1 DIV PUSH20 0xFFFFFFFFFFFFFFFFFFFFFFFFFFFFFFFFFFFFFFFF AND PUSH20 0xFFFFFFFFFFFFFFFFFFFFFFFFFFFFFFFFFFFFFFFF AND PUSH20 0xFFFFFFFFFFFFFFFFFFFFFFFFFFFFFFFFFFFFFFFF AND DUP2 MSTORE PUSH1 0x20 ADD PUSH1 0x1 DUP3 ADD PUSH0 SWAP1 SLOAD SWAP1 PUSH2 0x100 EXP SWAP1 DIV PUSH20 0xFFFFFFFFFFFFFFFFFFFFFFFFFFFFFFFFFFFFFFFF AND PUSH20 0xFFFFFFFFFFFFFFFFFFFFFFFFFFFFFFFFFFFFFFFF AND PUSH20 0xFFFFFFFFFFFFFFFFFFFFFFFFFFFFFFFFFFFFFFFF AND DUP2 MSTORE PUSH1 0x20 ADD PUSH1 0x2 DUP3 ADD DUP1 SLOAD PUSH2 0x455 SWAP1 PUSH2 0xDDC JUMP JUMPDEST DUP1 PUSH1 0x1F ADD PUSH1 0x20 DUP1 SWAP2 DIV MUL PUSH1 0x20 ADD PUSH1 0x40 MLOAD SWAP1 DUP2 ADD PUSH1 0x40 MSTORE DUP1 SWAP3 SWAP2 SWAP1 DUP2 DUP2 MSTORE PUSH1 0x20 ADD DUP3 DUP1 SLOAD PUSH2 0x481 SWAP1 PUSH2 0xDDC JUMP JUMPDEST DUP1 ISZERO PUSH2 0x4CC JUMPI DUP1 PUSH1 0x1F LT PUSH2 0x4A3 JUMPI PUSH2 0x100 DUP1 DUP4 SLOAD DIV MUL DUP4 MSTORE SWAP2 PUSH1 0x20 ADD SWAP2 PUSH2 0x4CC JUMP JUMPDEST DUP3 ADD SWAP2 SWAP1 PUSH0 MSTORE PUSH1 0x20 PUSH0 KECCAK256 SWAP1 JUMPDEST DUP2 SLOAD DUP2 MSTORE SWAP1 PUSH1 0x1 ADD SWAP1 PUSH1 0x20 ADD DUP1 DUP4 GT PUSH2 0x4AF JUMPI DUP3 SWAP1 SUB PUSH1 0x1F AND DUP3 ADD SWAP2 JUMPDEST POP POP POP POP POP DUP2 MSTORE PUSH1 0x20 ADD PUSH1 0x3 DUP3 ADD SLOAD DUP2 MSTORE PUSH1 0x20 ADD PUSH1 0x4 DUP3 ADD SLOAD DUP2 MSTORE PUSH1 0x20 ADD PUSH1 0x5 DUP3 ADD SLOAD DUP2 MSTORE PUSH1 0x20 ADD PUSH1 0x6 DUP3 ADD PUSH0 SWAP1 SLOAD SWAP1 PUSH2 0x100 EXP SWAP1 DIV PUSH1 0xFF AND ISZERO ISZERO ISZERO ISZERO DUP2 MSTORE POP POP SWAP1 POP CALLER DUP2 PUSH0 ADD SWAP1 PUSH20 0xFFFFFFFFFFFFFFFFFFFFFFFFFFFFFFFFFFFFFFFF AND SWAP1 DUP2 PUSH20 0xFFFFFFFFFFFFFFFFFFFFFFFFFFFFFFFFFFFFFFFF AND DUP2 MSTORE POP POP DUP5 DUP2 PUSH1 0x20 ADD SWAP1 PUSH20 0xFFFFFFFFFFFFFFFFFFFFFFFFFFFFFFFFFFFFFFFF AND SWAP1 DUP2 PUSH20 0xFFFFFFFFFFFFFFFFFFFFFFFFFFFFFFFFFFFFFFFF AND DUP2 MSTORE POP POP DUP4 DUP2 PUSH1 0x40 ADD DUP2 SWAP1 MSTORE POP DUP3 DUP2 PUSH1 0x60 ADD DUP2 DUP2 MSTORE POP POP DUP2 DUP2 PUSH1 0x80 ADD DUP2 DUP2 MSTORE POP POP PUSH0 DUP2 PUSH1 0xA0 ADD DUP2 DUP2 MSTORE POP POP PUSH0 DUP2 PUSH1 0xC0 ADD SWAP1 ISZERO ISZERO SWAP1 DUP2 ISZERO ISZERO DUP2 MSTORE POP POP PUSH0 DUP2 SWAP1 DUP1 PUSH1 0x1 DUP2 SLOAD ADD DUP1 DUP3 SSTORE DUP1 SWAP2 POP POP PUSH1 0x1 SWAP1 SUB SWAP1 PUSH0 MSTORE PUSH1 0x20 PUSH0 KECCAK256 SWAP1 PUSH1 0x7 MUL ADD PUSH0 SWAP1 SWAP2 SWAP1 SWAP2 SWAP1 SWAP2 POP PUSH0 DUP3 ADD MLOAD DUP2 PUSH0 ADD PUSH0 PUSH2 0x100 EXP DUP2 SLOAD DUP2 PUSH20 0xFFFFFFFFFFFFFFFFFFFFFFFFFFFFFFFFFFFFFFFF MUL NOT AND SWAP1 DUP4 PUSH20 0xFFFFFFFFFFFFFFFFFFFFFFFFFFFFFFFFFFFFFFFF AND MUL OR SWAP1 SSTORE POP PUSH1 0x20 DUP3 ADD MLOAD DUP2 PUSH1 0x1 ADD PUSH0 PUSH2 0x100 EXP DUP2 SLOAD DUP2 PUSH20 0xFFFFFFFFFFFFFFFFFFFFFFFFFFFFFFFFFFFFFFFF MUL NOT AND SWAP1 DUP4 PUSH20 0xFFFFFFFFFFFFFFFFFFFFFFFFFFFFFFFFFFFFFFFF AND MUL OR SWAP1 SSTORE POP PUSH1 0x40 DUP3 ADD MLOAD DUP2 PUSH1 0x2 ADD SWAP1 DUP2 PUSH2 0x67C SWAP2 SWAP1 PUSH2 0x11BF JUMP JUMPDEST POP PUSH1 0x60 DUP3 ADD MLOAD DUP2 PUSH1 0x3 ADD SSTORE PUSH1 0x80 DUP3 ADD MLOAD DUP2 PUSH1 0x4 ADD SSTORE PUSH1 0xA0 DUP3 ADD MLOAD DUP2 PUSH1 0x5 ADD SSTORE PUSH1 0xC0 DUP3 ADD MLOAD DUP2 PUSH1 0x6 ADD PUSH0 PUSH2 0x100 EXP DUP2 SLOAD DUP2 PUSH1 0xFF MUL NOT AND SWAP1 DUP4 ISZERO ISZERO MUL OR SWAP1 SSTORE POP POP POP POP POP POP POP POP JUMP JUMPDEST PUSH1 0x60 SWAP1 JUMP JUMPDEST PUSH1 0x1 DUP2 DUP1 MLOAD PUSH1 0x20 DUP2 ADD DUP3 ADD DUP1 MLOAD DUP5 DUP3 MSTORE PUSH1 0x20 DUP4 ADD PUSH1 0x20 DUP6 ADD KECCAK256 DUP2 DUP4 MSTORE DUP1 SWAP6 POP POP POP POP POP POP PUSH0 SWAP2 POP SWAP1 POP DUP1 PUSH0 ADD PUSH0 SWAP1 SLOAD SWAP1 PUSH2 0x100 EXP SWAP1 DIV PUSH20 0xFFFFFFFFFFFFFFFFFFFFFFFFFFFFFFFFFFFFFFFF AND SWAP1 DUP1 PUSH1 0x1 ADD PUSH0 SWAP1 SLOAD SWAP1 PUSH2 0x100 EXP SWAP1 DIV PUSH20 0xFFFFFFFFFFFFFFFFFFFFFFFFFFFFFFFFFFFFFFFF AND SWAP1 DUP1 PUSH1 0x2 ADD DUP1 SLOAD PUSH2 0x749 SWAP1 PUSH2 0xDDC JUMP JUMPDEST DUP1 PUSH1 0x1F ADD PUSH1 0x20 DUP1 SWAP2 DIV MUL PUSH1 0x20 ADD PUSH1 0x40 MLOAD SWAP1 DUP2 ADD PUSH1 0x40 MSTORE DUP1 SWAP3 SWAP2 SWAP1 DUP2 DUP2 MSTORE PUSH1 0x20 ADD DUP3 DUP1 SLOAD PUSH2 0x775 SWAP1 PUSH2 0xDDC JUMP JUMPDEST DUP1 ISZERO PUSH2 0x7C0 JUMPI DUP1 PUSH1 0x1F LT PUSH2 0x797 JUMPI PUSH2 0x100 DUP1 DUP4 SLOAD DIV MUL DUP4 MSTORE SWAP2 PUSH1 0x20 ADD SWAP2 PUSH2 0x7C0 JUMP JUMPDEST DUP3 ADD SWAP2 SWAP1 PUSH0 MSTORE PUSH1 0x20 PUSH0 KECCAK256 SWAP1 JUMPDEST DUP2 SLOAD DUP2 MSTORE SWAP1 PUSH1 0x1 ADD SWAP1 PUSH1 0x20 ADD DUP1 DUP4 GT PUSH2 0x7A3 JUMPI DUP3 SWAP1 SUB PUSH1 0x1F AND DUP3 ADD SWAP2 JUMPDEST POP POP POP POP POP SWAP1 DUP1 PUSH1 0x3 ADD SLOAD SWAP1 DUP1 PUSH1 0x4 ADD SLOAD SWAP1 DUP1 PUSH1 0x5 ADD SLOAD SWAP1 DUP1 PUSH1 0x6 ADD PUSH0 SWAP1 SLOAD SWAP1 PUSH2 0x100 EXP SWAP1 DIV PUSH1 0xFF AND SWAP1 POP DUP8 JUMP JUMPDEST PUSH0 PUSH1 0x40 MLOAD SWAP1 POP SWAP1 JUMP JUMPDEST PUSH0 DUP1 REVERT JUMPDEST PUSH0 DUP1 REVERT JUMPDEST PUSH0 DUP2 SWAP1 POP SWAP2 SWAP1 POP JUMP JUMPDEST PUSH2 0x811 DUP2 PUSH2 0x7FF JUMP JUMPDEST DUP2 EQ PUSH2 0x81B JUMPI PUSH0 DUP1 REVERT JUMPDEST POP JUMP JUMPDEST PUSH0 DUP2 CALLDATALOAD SWAP1 POP PUSH2 0x82C DUP2 PUSH2 0x808 JUMP JUMPDEST SWAP3 SWAP2 POP POP JUMP JUMPDEST PUSH0 PUSH1 0x20 DUP3 DUP5 SUB SLT ISZERO PUSH2 0x847 JUMPI PUSH2 0x846 PUSH2 0x7F7 JUMP JUMPDEST JUMPDEST PUSH0 PUSH2 0x854 DUP5 DUP3 DUP6 ADD PUSH2 0x81E JUMP JUMPDEST SWAP2 POP POP SWAP3 SWAP2 POP POP JUMP JUMPDEST PUSH0 PUSH20 0xFFFFFFFFFFFFFFFFFFFFFFFFFFFFFFFFFFFFFFFF DUP3 AND SWAP1 POP SWAP2 SWAP1 POP JUMP JUMPDEST PUSH0 PUSH2 0x886 DUP3 PUSH2 0x85D JUMP JUMPDEST SWAP1 POP SWAP2 SWAP1 POP JUMP JUMPDEST PUSH2 0x896 DUP2 PUSH2 0x87C JUMP JUMPDEST DUP3 MSTORE POP POP JUMP JUMPDEST PUSH0 DUP2 MLOAD SWAP1 POP SWAP2 SWAP1 POP JUMP JUMPDEST PUSH0 DUP3 DUP3 MSTORE PUSH1 0x20 DUP3 ADD SWAP1 POP SWAP3 SWAP2 POP POP JUMP JUMPDEST DUP3 DUP2 DUP4 MCOPY PUSH0 DUP4 DUP4 ADD MSTORE POP POP POP JUMP JUMPDEST PUSH0 PUSH1 0x1F NOT PUSH1 0x1F DUP4 ADD AND SWAP1 POP SWAP2 SWAP1 POP JUMP JUMPDEST PUSH0 PUSH2 0x8DE DUP3 PUSH2 0x89C JUMP JUMPDEST PUSH2 0x8E8 DUP2 DUP6 PUSH2 0x8A6 JUMP JUMPDEST SWAP4 POP PUSH2 0x8F8 DUP2 DUP6 PUSH1 0x20 DUP7 ADD PUSH2 0x8B6 JUMP JUMPDEST PUSH2 0x901 DUP2 PUSH2 0x8C4 JUMP JUMPDEST DUP5 ADD SWAP2 POP POP SWAP3 SWAP2 POP POP JUMP JUMPDEST PUSH2 0x915 DUP2 PUSH2 0x7FF JUMP JUMPDEST DUP3 MSTORE POP POP JUMP JUMPDEST PUSH0 DUP2 ISZERO ISZERO SWAP1 POP SWAP2 SWAP1 POP JUMP JUMPDEST PUSH2 0x92F DUP2 PUSH2 0x91B JUMP JUMPDEST DUP3 MSTORE POP POP JUMP JUMPDEST PUSH0 PUSH1 0xE0 DUP3 ADD SWAP1 POP PUSH2 0x948 PUSH0 DUP4 ADD DUP11 PUSH2 0x88D JUMP JUMPDEST PUSH2 0x955 PUSH1 0x20 DUP4 ADD DUP10 PUSH2 0x88D JUMP JUMPDEST DUP2 DUP2 SUB PUSH1 0x40 DUP4 ADD MSTORE PUSH2 0x967 DUP2 DUP9 PUSH2 0x8D4 JUMP JUMPDEST SWAP1 POP PUSH2 0x976 PUSH1 0x60 DUP4 ADD DUP8 PUSH2 0x90C JUMP JUMPDEST PUSH2 0x983 PUSH1 0x80 DUP4 ADD DUP7 PUSH2 0x90C JUMP JUMPDEST PUSH2 0x990 PUSH1 0xA0 DUP4 ADD DUP6 PUSH2 0x90C JUMP JUMPDEST PUSH2 0x99D PUSH1 0xC0 DUP4 ADD DUP5 PUSH2 0x926 JUMP JUMPDEST SWAP9 SWAP8 POP POP POP POP POP POP POP POP JUMP JUMPDEST PUSH2 0x9B2 DUP2 PUSH2 0x87C JUMP JUMPDEST DUP2 EQ PUSH2 0x9BC JUMPI PUSH0 DUP1 REVERT JUMPDEST POP JUMP JUMPDEST PUSH0 DUP2 CALLDATALOAD SWAP1 POP PUSH2 0x9CD DUP2 PUSH2 0x9A9 JUMP JUMPDEST SWAP3 SWAP2 POP POP JUMP JUMPDEST PUSH0 DUP1 REVERT JUMPDEST PUSH0 DUP1 REVERT JUMPDEST PUSH32 0x4E487B7100000000000000000000000000000000000000000000000000000000 PUSH0 MSTORE PUSH1 0x41 PUSH1 0x4 MSTORE PUSH1 0x24 PUSH0 REVERT JUMPDEST PUSH2 0xA11 DUP3 PUSH2 0x8C4 JUMP JUMPDEST DUP2 ADD DUP2 DUP2 LT PUSH8 0xFFFFFFFFFFFFFFFF DUP3 GT OR ISZERO PUSH2 0xA30 JUMPI PUSH2 0xA2F PUSH2 0x9DB JUMP JUMPDEST JUMPDEST DUP1 PUSH1 0x40 MSTORE POP POP POP JUMP JUMPDEST PUSH0 PUSH2 0xA42 PUSH2 0x7EE JUMP JUMPDEST SWAP1 POP PUSH2 0xA4E DUP3 DUP3 PUSH2 0xA08 JUMP JUMPDEST SWAP2 SWAP1 POP JUMP JUMPDEST PUSH0 PUSH8 0xFFFFFFFFFFFFFFFF DUP3 GT ISZERO PUSH2 0xA6D JUMPI PUSH2 0xA6C PUSH2 0x9DB JUMP JUMPDEST JUMPDEST PUSH2 0xA76 DUP3 PUSH2 0x8C4 JUMP JUMPDEST SWAP1 POP PUSH1 0x20 DUP2 ADD SWAP1 POP SWAP2 SWAP1 POP JUMP JUMPDEST DUP3 DUP2 DUP4 CALLDATACOPY PUSH0 DUP4 DUP4 ADD MSTORE POP POP POP JUMP JUMPDEST PUSH0 PUSH2 0xAA3 PUSH2 0xA9E DUP5 PUSH2 0xA53 JUMP JUMPDEST PUSH2 0xA39 JUMP JUMPDEST SWAP1 POP DUP3 DUP2 MSTORE PUSH1 0x20 DUP2 ADD DUP5 DUP5 DUP5 ADD GT ISZERO PUSH2 0xABF JUMPI PUSH2 0xABE PUSH2 0x9D7 JUMP JUMPDEST JUMPDEST PUSH2 0xACA DUP5 DUP3 DUP6 PUSH2 0xA83 JUMP JUMPDEST POP SWAP4 SWAP3 POP POP POP JUMP JUMPDEST PUSH0 DUP3 PUSH1 0x1F DUP4 ADD SLT PUSH2 0xAE6 JUMPI PUSH2 0xAE5 PUSH2 0x9D3 JUMP JUMPDEST JUMPDEST DUP2 CALLDATALOAD PUSH2 0xAF6 DUP5 DUP3 PUSH1 0x20 DUP7 ADD PUSH2 0xA91 JUMP JUMPDEST SWAP2 POP POP SWAP3 SWAP2 POP POP JUMP JUMPDEST PUSH0 DUP1 PUSH0 DUP1 PUSH1 0x80 DUP6 DUP8 SUB SLT ISZERO PUSH2 0xB17 JUMPI PUSH2 0xB16 PUSH2 0x7F7 JUMP JUMPDEST JUMPDEST PUSH0 PUSH2 0xB24 DUP8 DUP3 DUP9 ADD PUSH2 0x9BF JUMP JUMPDEST SWAP5 POP POP PUSH1 0x20 DUP6 ADD CALLDATALOAD PUSH8 0xFFFFFFFFFFFFFFFF DUP2 GT ISZERO PUSH2 0xB45 JUMPI PUSH2 0xB44 PUSH2 0x7FB JUMP JUMPDEST JUMPDEST PUSH2 0xB51 DUP8 DUP3 DUP9 ADD PUSH2 0xAD2 JUMP JUMPDEST SWAP4 POP POP PUSH1 0x40 PUSH2 0xB62 DUP8 DUP3 DUP9 ADD PUSH2 0x81E JUMP JUMPDEST SWAP3 POP POP PUSH1 0x60 PUSH2 0xB73 DUP8 DUP3 DUP9 ADD PUSH2 0x81E JUMP JUMPDEST SWAP2 POP POP SWAP3 SWAP6 SWAP2 SWAP5 POP SWAP3 POP JUMP JUMPDEST PUSH0 DUP2 MLOAD SWAP1 POP SWAP2 SWAP1 POP JUMP JUMPDEST PUSH0 DUP3 DUP3 MSTORE PUSH1 0x20 DUP3 ADD SWAP1 POP SWAP3 SWAP2 POP POP JUMP JUMPDEST PUSH0 DUP2 SWAP1 POP PUSH1 0x20 DUP3 ADD SWAP1 POP SWAP2 SWAP1 POP JUMP JUMPDEST PUSH2 0xBB1 DUP2 PUSH2 0x87C JUMP JUMPDEST DUP3 MSTORE POP POP JUMP JUMPDEST PUSH0 DUP3 DUP3 MSTORE PUSH1 0x20 DUP3 ADD SWAP1 POP SWAP3 SWAP2 POP POP JUMP JUMPDEST PUSH0 PUSH2 0xBD1 DUP3 PUSH2 0x89C JUMP JUMPDEST PUSH2 0xBDB DUP2 DUP6 PUSH2 0xBB7 JUMP JUMPDEST SWAP4 POP PUSH2 0xBEB DUP2 DUP6 PUSH1 0x20 DUP7 ADD PUSH2 0x8B6 JUMP JUMPDEST PUSH2 0xBF4 DUP2 PUSH2 0x8C4 JUMP JUMPDEST DUP5 ADD SWAP2 POP POP SWAP3 SWAP2 POP POP JUMP JUMPDEST PUSH2 0xC08 DUP2 PUSH2 0x7FF JUMP JUMPDEST DUP3 MSTORE POP POP JUMP JUMPDEST PUSH2 0xC17 DUP2 PUSH2 0x91B JUMP JUMPDEST DUP3 MSTORE POP POP JUMP JUMPDEST PUSH0 PUSH1 0xE0 DUP4 ADD PUSH0 DUP4 ADD MLOAD PUSH2 0xC32 PUSH0 DUP7 ADD DUP3 PUSH2 0xBA8 JUMP JUMPDEST POP PUSH1 0x20 DUP4 ADD MLOAD PUSH2 0xC45 PUSH1 0x20 DUP7 ADD DUP3 PUSH2 0xBA8 JUMP JUMPDEST POP PUSH1 0x40 DUP4 ADD MLOAD DUP5 DUP3 SUB PUSH1 0x40 DUP7 ADD MSTORE PUSH2 0xC5D DUP3 DUP3 PUSH2 0xBC7 JUMP JUMPDEST SWAP2 POP POP PUSH1 0x60 DUP4 ADD MLOAD PUSH2 0xC72 PUSH1 0x60 DUP7 ADD DUP3 PUSH2 0xBFF JUMP JUMPDEST POP PUSH1 0x80 DUP4 ADD MLOAD PUSH2 0xC85 PUSH1 0x80 DUP7 ADD DUP3 PUSH2 0xBFF JUMP JUMPDEST POP PUSH1 0xA0 DUP4 ADD MLOAD PUSH2 0xC98 PUSH1 0xA0 DUP7 ADD DUP3 PUSH2 0xBFF JUMP JUMPDEST POP PUSH1 0xC0 DUP4 ADD MLOAD PUSH2 0xCAB PUSH1 0xC0 DUP7 ADD DUP3 PUSH2 0xC0E JUMP JUMPDEST POP DUP1 SWAP2 POP POP SWAP3 SWAP2 POP POP JUMP JUMPDEST PUSH0 PUSH2 0xCC1 DUP4 DUP4 PUSH2 0xC1D JUMP JUMPDEST SWAP1 POP SWAP3 SWAP2 POP POP JUMP JUMPDEST PUSH0 PUSH1 0x20 DUP3 ADD SWAP1 POP SWAP2 SWAP1 POP JUMP JUMPDEST PUSH0 PUSH2 0xCDF DUP3 PUSH2 0xB7F JUMP JUMPDEST PUSH2 0xCE9 DUP2 DUP6 PUSH2 0xB89 JUMP JUMPDEST SWAP4 POP DUP4 PUSH1 0x20 DUP3 MUL DUP6 ADD PUSH2 0xCFB DUP6 PUSH2 0xB99 JUMP JUMPDEST DUP1 PUSH0 JUMPDEST DUP6 DUP2 LT ISZERO PUSH2 0xD36 JUMPI DUP5 DUP5 SUB DUP10 MSTORE DUP2 MLOAD PUSH2 0xD17 DUP6 DUP3 PUSH2 0xCB6 JUMP JUMPDEST SWAP5 POP PUSH2 0xD22 DUP4 PUSH2 0xCC9 JUMP JUMPDEST SWAP3 POP PUSH1 0x20 DUP11 ADD SWAP10 POP POP PUSH1 0x1 DUP2 ADD SWAP1 POP PUSH2 0xCFE JUMP JUMPDEST POP DUP3 SWAP8 POP DUP8 SWAP6 POP POP POP POP POP POP SWAP3 SWAP2 POP POP JUMP JUMPDEST PUSH0 PUSH1 0x20 DUP3 ADD SWAP1 POP DUP2 DUP2 SUB PUSH0 DUP4 ADD MSTORE PUSH2 0xD60 DUP2 DUP5 PUSH2 0xCD5 JUMP JUMPDEST SWAP1 POP SWAP3 SWAP2 POP POP JUMP JUMPDEST PUSH0 PUSH1 0x20 DUP3 DUP5 SUB SLT ISZERO PUSH2 0xD7D JUMPI PUSH2 0xD7C PUSH2 0x7F7 JUMP JUMPDEST JUMPDEST PUSH0 DUP3 ADD CALLDATALOAD PUSH8 0xFFFFFFFFFFFFFFFF DUP2 GT ISZERO PUSH2 0xD9A JUMPI PUSH2 0xD99 PUSH2 0x7FB JUMP JUMPDEST JUMPDEST PUSH2 0xDA6 DUP5 DUP3 DUP6 ADD PUSH2 0xAD2 JUMP JUMPDEST SWAP2 POP POP SWAP3 SWAP2 POP POP JUMP JUMPDEST PUSH32 0x4E487B7100000000000000000000000000000000000000000000000000000000 PUSH0 MSTORE PUSH1 0x22 PUSH1 0x4 MSTORE PUSH1 0x24 PUSH0 REVERT JUMPDEST PUSH0 PUSH1 0x2 DUP3 DIV SWAP1 POP PUSH1 0x1 DUP3 AND DUP1 PUSH2 0xDF3 JUMPI PUSH1 0x7F DUP3 AND SWAP2 POP JUMPDEST PUSH1 0x20 DUP3 LT DUP2 SUB PUSH2 0xE06 JUMPI PUSH2 0xE05 PUSH2 0xDAF JUMP JUMPDEST JUMPDEST POP SWAP2 SWAP1 POP JUMP JUMPDEST PUSH0 DUP2 SWAP1 POP SWAP3 SWAP2 POP POP JUMP JUMPDEST PUSH0 PUSH2 0xE20 DUP3 PUSH2 0x89C JUMP JUMPDEST PUSH2 0xE2A DUP2 DUP6 PUSH2 0xE0C JUMP JUMPDEST SWAP4 POP PUSH2 0xE3A DUP2 DUP6 PUSH1 0x20 DUP7 ADD PUSH2 0x8B6 JUMP JUMPDEST DUP1 DUP5 ADD SWAP2 POP POP SWAP3 SWAP2 POP POP JUMP JUMPDEST PUSH0 PUSH2 0xE51 DUP3 DUP5 PUSH2 0xE16 JUMP JUMPDEST SWAP2 POP DUP2 SWAP1 POP SWAP3 SWAP2 POP POP JUMP JUMPDEST PUSH32 0x43616D706169676E20776974682074686973207469746C6520616C7265616479 PUSH0 DUP3 ADD MSTORE PUSH32 0x2065786973747300000000000000000000000000000000000000000000000000 PUSH1 0x20 DUP3 ADD MSTORE POP JUMP JUMPDEST PUSH0 PUSH2 0xEB6 PUSH1 0x27 DUP4 PUSH2 0x8A6 JUMP JUMPDEST SWAP2 POP PUSH2 0xEC1 DUP3 PUSH2 0xE5C JUMP JUMPDEST PUSH1 0x40 DUP3 ADD SWAP1 POP SWAP2 SWAP1 POP JUMP JUMPDEST PUSH0 PUSH1 0x20 DUP3 ADD SWAP1 POP DUP2 DUP2 SUB PUSH0 DUP4 ADD MSTORE PUSH2 0xEE3 DUP2 PUSH2 0xEAA JUMP JUMPDEST SWAP1 POP SWAP2 SWAP1 POP JUMP JUMPDEST PUSH32 0x5768696368206B696E6420616464726573732062652074686973000000000000 PUSH0 DUP3 ADD MSTORE POP JUMP JUMPDEST PUSH0 PUSH2 0xF1E PUSH1 0x1A DUP4 PUSH2 0x8A6 JUMP JUMPDEST SWAP2 POP PUSH2 0xF29 DUP3 PUSH2 0xEEA JUMP JUMPDEST PUSH1 0x20 DUP3 ADD SWAP1 POP SWAP2 SWAP1 POP JUMP JUMPDEST PUSH0 PUSH1 0x20 DUP3 ADD SWAP1 POP DUP2 DUP2 SUB PUSH0 DUP4 ADD MSTORE PUSH2 0xF4B DUP2 PUSH2 0xF12 JUMP JUMPDEST SWAP1 POP SWAP2 SWAP1 POP JUMP JUMPDEST PUSH32 0x596F75722063616D706169676E206E6F20676574206E616D6500000000000000 PUSH0 DUP3 ADD MSTORE POP JUMP JUMPDEST PUSH0 PUSH2 0xF86 PUSH1 0x19 DUP4 PUSH2 0x8A6 JUMP JUMPDEST SWAP2 POP PUSH2 0xF91 DUP3 PUSH2 0xF52 JUMP JUMPDEST PUSH1 0x20 DUP3 ADD SWAP1 POP SWAP2 SWAP1 POP JUMP JUMPDEST PUSH0 PUSH1 0x20 DUP3 ADD SWAP1 POP DUP2 DUP2 SUB PUSH0 DUP4 ADD MSTORE PUSH2 0xFB3 DUP2 PUSH2 0xF7A JUMP JUMPDEST SWAP1 POP SWAP2 SWAP1 POP JUMP JUMPDEST PUSH32 0x42727568682063616E20796F75206E6F7420646F20746861743F000000000000 PUSH0 DUP3 ADD MSTORE POP JUMP JUMPDEST PUSH0 PUSH2 0xFEE PUSH1 0x1A DUP4 PUSH2 0x8A6 JUMP JUMPDEST SWAP2 POP PUSH2 0xFF9 DUP3 PUSH2 0xFBA JUMP JUMPDEST PUSH1 0x20 DUP3 ADD SWAP1 POP SWAP2 SWAP1 POP JUMP JUMPDEST PUSH0 PUSH1 0x20 DUP3 ADD SWAP1 POP DUP2 DUP2 SUB PUSH0 DUP4 ADD MSTORE PUSH2 0x101B DUP2 PUSH2 0xFE2 JUMP JUMPDEST SWAP1 POP SWAP2 SWAP1 POP JUMP JUMPDEST PUSH0 DUP2 SWAP1 POP DUP2 PUSH0 MSTORE PUSH1 0x20 PUSH0 KECCAK256 SWAP1 POP SWAP2 SWAP1 POP JUMP JUMPDEST PUSH0 PUSH1 0x20 PUSH1 0x1F DUP4 ADD DIV SWAP1 POP SWAP2 SWAP1 POP JUMP JUMPDEST PUSH0 DUP3 DUP3 SHL SWAP1 POP SWAP3 SWAP2 POP POP JUMP JUMPDEST PUSH0 PUSH1 0x8 DUP4 MUL PUSH2 0x107E PUSH32 0xFFFFFFFFFFFFFFFFFFFFFFFFFFFFFFFFFFFFFFFFFFFFFFFFFFFFFFFFFFFFFFFF DUP3 PUSH2 0x1043 JUMP JUMPDEST PUSH2 0x1088 DUP7 DUP4 PUSH2 0x1043 JUMP JUMPDEST SWAP6 POP DUP1 NOT DUP5 AND SWAP4 POP DUP1 DUP7 AND DUP5 OR SWAP3 POP POP POP SWAP4 SWAP3 POP POP POP JUMP JUMPDEST PUSH0 DUP2 SWAP1 POP SWAP2 SWAP1 POP JUMP JUMPDEST PUSH0 PUSH2 0x10C3 PUSH2 0x10BE PUSH2 0x10B9 DUP5 PUSH2 0x7FF JUMP JUMPDEST PUSH2 0x10A0 JUMP JUMPDEST PUSH2 0x7FF JUMP JUMPDEST SWAP1 POP SWAP2 SWAP1 POP JUMP JUMPDEST PUSH0 DUP2 SWAP1 POP SWAP2 SWAP1 POP JUMP JUMPDEST PUSH2 0x10DC DUP4 PUSH2 0x10A9 JUMP JUMPDEST PUSH2 0x10F0 PUSH2 0x10E8 DUP3 PUSH2 0x10CA JUMP JUMPDEST DUP5 DUP5 SLOAD PUSH2 0x104F JUMP JUMPDEST DUP3 SSTORE POP POP POP POP JUMP JUMPDEST PUSH0 SWAP1 JUMP JUMPDEST PUSH2 0x1104 PUSH2 0x10F8 JUMP JUMPDEST PUSH2 0x110F DUP2 DUP5 DUP5 PUSH2 0x10D3 JUMP JUMPDEST POP POP POP JUMP JUMPDEST JUMPDEST DUP2 DUP2 LT ISZERO PUSH2 0x1132 JUMPI PUSH2 0x1127 PUSH0 DUP3 PUSH2 0x10FC JUMP JUMPDEST PUSH1 0x1 DUP2 ADD SWAP1 POP PUSH2 0x1115 JUMP JUMPDEST POP POP JUMP JUMPDEST PUSH1 0x1F DUP3 GT ISZERO PUSH2 0x1177 JUMPI PUSH2 0x1148 DUP2 PUSH2 0x1022 JUMP JUMPDEST PUSH2 0x1151 DUP5 PUSH2 0x1034 JUMP JUMPDEST DUP2 ADD PUSH1 0x20 DUP6 LT ISZERO PUSH2 0x1160 JUMPI DUP2 SWAP1 POP JUMPDEST PUSH2 0x1174 PUSH2 0x116C DUP6 PUSH2 0x1034 JUMP JUMPDEST DUP4 ADD DUP3 PUSH2 0x1114 JUMP JUMPDEST POP POP JUMPDEST POP POP POP JUMP JUMPDEST PUSH0 DUP3 DUP3 SHR SWAP1 POP SWAP3 SWAP2 POP POP JUMP JUMPDEST PUSH0 PUSH2 0x1197 PUSH0 NOT DUP5 PUSH1 0x8 MUL PUSH2 0x117C JUMP JUMPDEST NOT DUP1 DUP4 AND SWAP2 POP POP SWAP3 SWAP2 POP POP JUMP JUMPDEST PUSH0 PUSH2 0x11AF DUP4 DUP4 PUSH2 0x1188 JUMP JUMPDEST SWAP2 POP DUP3 PUSH1 0x2 MUL DUP3 OR SWAP1 POP SWAP3 SWAP2 POP POP JUMP JUMPDEST PUSH2 0x11C8 DUP3 PUSH2 0x89C JUMP JUMPDEST PUSH8 0xFFFFFFFFFFFFFFFF DUP2 GT ISZERO PUSH2 0x11E1 JUMPI PUSH2 0x11E0 PUSH2 0x9DB JUMP JUMPDEST JUMPDEST PUSH2 0x11EB DUP3 SLOAD PUSH2 0xDDC JUMP JUMPDEST PUSH2 0x11F6 DUP3 DUP3 DUP6 PUSH2 0x1136 JUMP JUMPDEST PUSH0 PUSH1 0x20 SWAP1 POP PUSH1 0x1F DUP4 GT PUSH1 0x1 DUP2 EQ PUSH2 0x1227 JUMPI PUSH0 DUP5 ISZERO PUSH2 0x1215 JUMPI DUP3 DUP8 ADD MLOAD SWAP1 POP JUMPDEST PUSH2 0x121F DUP6 DUP3 PUSH2 0x11A4 JUMP JUMPDEST DUP7 SSTORE POP PUSH2 0x1286 JUMP JUMPDEST PUSH1 0x1F NOT DUP5 AND PUSH2 0x1235 DUP7 PUSH2 0x1022 JUMP JUMPDEST PUSH0 JUMPDEST DUP3 DUP2 LT ISZERO PUSH2 0x125C JUMPI DUP5 DUP10 ADD MLOAD DUP3 SSTORE PUSH1 0x1 DUP3 ADD SWAP2 POP PUSH1 0x20 DUP6 ADD SWAP5 POP PUSH1 0x20 DUP2 ADD SWAP1 POP PUSH2 0x1237 JUMP JUMPDEST DUP7 DUP4 LT ISZERO PUSH2 0x1279 JUMPI DUP5 DUP10 ADD MLOAD PUSH2 0x1275 PUSH1 0x1F DUP10 AND DUP3 PUSH2 0x1188 JUMP JUMPDEST DUP4 SSTORE POP JUMPDEST PUSH1 0x1 PUSH1 0x2 DUP9 MUL ADD DUP9 SSTORE POP POP POP JUMPDEST POP POP POP POP POP POP JUMP INVALID LOG2 PUSH5 0x6970667358 0x22 SLT KECCAK256 0xAA 0xEE SWAP11 0xBF 0xF8 0xE4 SLT 0xB3 CALLDATASIZE 0xB7 CODECOPY 0x27 0xE8 PUSH11 0x8E7C4FD193DFD8F07DA4C2 0x4D 0x1E 0xAB PUSH9 0xE670DE64736F6C6343 STOP ADDMOD BYTE STOP CALLER "
				},
				"gasEstimates": {
					"creation": {
						"codeDepositCost": "960800",
						"executionCost": "999",
						"totalCost": "961799"
					},
					"external": {
						"addCampaign(address,string,uint256,uint256)": "infinite",
						"campaignList(uint256)": "infinite",
						"getAllCampaigns()": "infinite",
						"titleToCampaign(string)": "infinite"
					}
				},
				"methodIdentifiers": {
					"addCampaign(address,string,uint256,uint256)": "77bbc464",
					"campaignList(uint256)": "4912c658",
					"getAllCampaigns()": "86cdf604",
					"titleToCampaign(string)": "c50a40d0"
				}
			},
			"storageLayout": {
				"storage": [
					{
						"astId": 20,
						"contract": "CrowdFundingApp/Factory.sol:Factory",
						"label": "campaignList",
						"offset": 0,
						"slot": "0",
						"type": "t_array(t_struct(Campaign)16_storage)dyn_storage"
					},
					{
						"astId": 25,
						"contract": "CrowdFundingApp/Factory.sol:Factory",
						"label": "titleToCampaign",
						"offset": 0,
						"slot": "1",
						"type": "t_mapping(t_string_memory_ptr,t_struct(Campaign)16_storage)"
					}
				],
				"types": {
					"t_address_payable": {
						"encoding": "inplace",
						"label": "address payable",
						"numberOfBytes": "20"
					},
					"t_array(t_struct(Campaign)16_storage)dyn_storage": {
						"base": "t_struct(Campaign)16_storage",
						"encoding": "dynamic_array",
						"label": "struct Factory.Campaign[]",
						"numberOfBytes": "32"
					},
					"t_bool": {
						"encoding": "inplace",
						"label": "bool",
						"numberOfBytes": "1"
					},
					"t_mapping(t_string_memory_ptr,t_struct(Campaign)16_storage)": {
						"encoding": "mapping",
						"key": "t_string_memory_ptr",
						"label": "mapping(string => struct Factory.Campaign)",
						"numberOfBytes": "32",
						"value": "t_struct(Campaign)16_storage"
					},
					"t_string_memory_ptr": {
						"encoding": "bytes",
						"label": "string",
						"numberOfBytes": "32"
					},
					"t_string_storage": {
						"encoding": "bytes",
						"label": "string",
						"numberOfBytes": "32"
					},
					"t_struct(Campaign)16_storage": {
						"encoding": "inplace",
						"label": "struct Factory.Campaign",
						"members": [
							{
								"astId": 3,
								"contract": "CrowdFundingApp/Factory.sol:Factory",
								"label": "campaignOwner",
								"offset": 0,
								"slot": "0",
								"type": "t_address_payable"
							},
							{
								"astId": 5,
								"contract": "CrowdFundingApp/Factory.sol:Factory",
								"label": "beneficiary",
								"offset": 0,
								"slot": "1",
								"type": "t_address_payable"
							},
							{
								"astId": 7,
								"contract": "CrowdFundingApp/Factory.sol:Factory",
								"label": "title",
								"offset": 0,
								"slot": "2",
								"type": "t_string_storage"
							},
							{
								"astId": 9,
								"contract": "CrowdFundingApp/Factory.sol:Factory",
								"label": "deadline",
								"offset": 0,
								"slot": "3",
								"type": "t_uint256"
							},
							{
								"astId": 11,
								"contract": "CrowdFundingApp/Factory.sol:Factory",
								"label": "amountToRaise",
								"offset": 0,
								"slot": "4",
								"type": "t_uint256"
							},
							{
								"astId": 13,
								"contract": "CrowdFundingApp/Factory.sol:Factory",
								"label": "raisedAmount",
								"offset": 0,
								"slot": "5",
								"type": "t_uint256"
							},
							{
								"astId": 15,
								"contract": "CrowdFundingApp/Factory.sol:Factory",
								"label": "closed",
								"offset": 0,
								"slot": "6",
								"type": "t_bool"
							}
						],
						"numberOfBytes": "224"
					},
					"t_uint256": {
						"encoding": "inplace",
						"label": "uint256",
						"numberOfBytes": "32"
					}
				}
			},
			"userdoc": {
				"kind": "user",
				"methods": {},
				"version": 1
			}
		}
	}
}