{
	"CrowdFundingApp/Factory.sol": {
		"Factory": {
			"abi": [
				{
					"inputs": [
						{
							"internalType": "address payable",
							"name": "beneficiary",
							"type": "address"
						},
						{
							"internalType": "string",
							"name": "title",
							"type": "string"
						},
						{
							"internalType": "uint256",
							"name": "deadline",
							"type": "uint256"
						},
						{
							"internalType": "uint256",
							"name": "amountToRaise",
							"type": "uint256"
						}
					],
					"name": "addCampaign",
					"outputs": [],
					"stateMutability": "nonpayable",
					"type": "function"
				},
				{
					"inputs": [
						{
							"internalType": "uint256",
							"name": "",
							"type": "uint256"
						}
					],
					"name": "campaignList",
					"outputs": [
						{
							"internalType": "address payable",
							"name": "campaignOwner",
							"type": "address"
						},
						{
							"internalType": "address payable",
							"name": "beneficiary",
							"type": "address"
						},
						{
							"internalType": "string",
							"name": "title",
							"type": "string"
						},
						{
							"internalType": "uint256",
							"name": "deadline",
							"type": "uint256"
						},
						{
							"internalType": "uint256",
							"name": "amountToRaise",
							"type": "uint256"
						},
						{
							"internalType": "uint256",
							"name": "raisedAmount",
							"type": "uint256"
						},
						{
							"internalType": "bool",
							"name": "closed",
							"type": "bool"
						}
					],
					"stateMutability": "view",
					"type": "function"
				},
				{
					"inputs": [
						{
							"internalType": "string",
							"name": "",
							"type": "string"
						}
					],
					"name": "titleToCampaign",
					"outputs": [
						{
							"internalType": "address payable",
							"name": "campaignOwner",
							"type": "address"
						},
						{
							"internalType": "address payable",
							"name": "beneficiary",
							"type": "address"
						},
						{
							"internalType": "string",
							"name": "title",
							"type": "string"
						},
						{
							"internalType": "uint256",
							"name": "deadline",
							"type": "uint256"
						},
						{
							"internalType": "uint256",
							"name": "amountToRaise",
							"type": "uint256"
						},
						{
							"internalType": "uint256",
							"name": "raisedAmount",
							"type": "uint256"
						},
						{
							"internalType": "bool",
							"name": "closed",
							"type": "bool"
						}
					],
					"stateMutability": "view",
					"type": "function"
				}
			],
			"devdoc": {
				"kind": "dev",
				"methods": {},
				"version": 1
			},
			"evm": {
				"assembly": "    /* \"CrowdFundingApp/Factory.sol\":57:1622  contract Factory{... */\n  mstore(0x40, 0x80)\n  callvalue\n  dup1\n  iszero\n  tag_1\n  jumpi\n  0x00\n  dup1\n  revert\ntag_1:\n  pop\n  dataSize(sub_0)\n  dup1\n  dataOffset(sub_0)\n  0x00\n  codecopy\n  0x00\n  return\nstop\n\nsub_0: assembly {\n        /* \"CrowdFundingApp/Factory.sol\":57:1622  contract Factory{... */\n      mstore(0x40, 0x80)\n      callvalue\n      dup1\n      iszero\n      tag_1\n      jumpi\n      0x00\n      dup1\n      revert\n    tag_1:\n      pop\n      jumpi(tag_2, lt(calldatasize, 0x04))\n      shr(0xe0, calldataload(0x00))\n      dup1\n      0x4912c658\n      eq\n      tag_3\n      jumpi\n      dup1\n      0x77bbc464\n      eq\n      tag_4\n      jumpi\n      dup1\n      0xc50a40d0\n      eq\n      tag_5\n      jumpi\n    tag_2:\n      0x00\n      dup1\n      revert\n        /* \"CrowdFundingApp/Factory.sol\":299:329  Campaign[] public campaignList */\n    tag_3:\n      tag_6\n      0x04\n      dup1\n      calldatasize\n      sub\n      dup2\n      add\n      swap1\n      tag_7\n      swap2\n      swap1\n      tag_8\n      jump\t// in\n    tag_7:\n      tag_9\n      jump\t// in\n    tag_6:\n      mload(0x40)\n      tag_10\n      swap8\n      swap7\n      swap6\n      swap5\n      swap4\n      swap3\n      swap2\n      swap1\n      tag_11\n      jump\t// in\n    tag_10:\n      mload(0x40)\n      dup1\n      swap2\n      sub\n      swap1\n      return\n        /* \"CrowdFundingApp/Factory.sol\":385:1617  function addCampaign(address payable beneficiary, string memory title,uint deadline, uint amountToRaise) public {... */\n    tag_4:\n      tag_12\n      0x04\n      dup1\n      calldatasize\n      sub\n      dup2\n      add\n      swap1\n      tag_13\n      swap2\n      swap1\n      tag_14\n      jump\t// in\n    tag_13:\n      tag_15\n      jump\t// in\n    tag_12:\n      stop\n        /* \"CrowdFundingApp/Factory.sol\":331:382  mapping (string => Campaign) public titleToCampaign */\n    tag_5:\n      tag_16\n      0x04\n      dup1\n      calldatasize\n      sub\n      dup2\n      add\n      swap1\n      tag_17\n      swap2\n      swap1\n      tag_18\n      jump\t// in\n    tag_17:\n      tag_19\n      jump\t// in\n    tag_16:\n      mload(0x40)\n      tag_20\n      swap8\n      swap7\n      swap6\n      swap5\n      swap4\n      swap3\n      swap2\n      swap1\n      tag_11\n      jump\t// in\n    tag_20:\n      mload(0x40)\n      dup1\n      swap2\n      sub\n      swap1\n      return\n        /* \"CrowdFundingApp/Factory.sol\":299:329  Campaign[] public campaignList */\n    tag_9:\n      0x00\n      dup2\n      dup2\n      sload\n      dup2\n      lt\n      tag_21\n      jumpi\n      0x00\n      dup1\n      revert\n    tag_21:\n      swap1\n      0x00\n      mstore\n      keccak256(0x00, 0x20)\n      swap1\n      0x07\n      mul\n      add\n      0x00\n      swap2\n      pop\n      swap1\n      pop\n      dup1\n      0x00\n      add\n      0x00\n      swap1\n      sload\n      swap1\n      0x0100\n      exp\n      swap1\n      div\n      0xffffffffffffffffffffffffffffffffffffffff\n      and\n      swap1\n      dup1\n      0x01\n      add\n      0x00\n      swap1\n      sload\n      swap1\n      0x0100\n      exp\n      swap1\n      div\n      0xffffffffffffffffffffffffffffffffffffffff\n      and\n      swap1\n      dup1\n      0x02\n      add\n      dup1\n      sload\n      tag_23\n      swap1\n      tag_24\n      jump\t// in\n    tag_23:\n      dup1\n      0x1f\n      add\n      0x20\n      dup1\n      swap2\n      div\n      mul\n      0x20\n      add\n      mload(0x40)\n      swap1\n      dup2\n      add\n      0x40\n      mstore\n      dup1\n      swap3\n      swap2\n      swap1\n      dup2\n      dup2\n      mstore\n      0x20\n      add\n      dup3\n      dup1\n      sload\n      tag_25\n      swap1\n      tag_24\n      jump\t// in\n    tag_25:\n      dup1\n      iszero\n      tag_26\n      jumpi\n      dup1\n      0x1f\n      lt\n      tag_27\n      jumpi\n      0x0100\n      dup1\n      dup4\n      sload\n      div\n      mul\n      dup4\n      mstore\n      swap2\n      0x20\n      add\n      swap2\n      jump(tag_26)\n    tag_27:\n      dup3\n      add\n      swap2\n      swap1\n      0x00\n      mstore\n      keccak256(0x00, 0x20)\n      swap1\n    tag_28:\n      dup2\n      sload\n      dup2\n      mstore\n      swap1\n      0x01\n      add\n      swap1\n      0x20\n      add\n      dup1\n      dup4\n      gt\n      tag_28\n      jumpi\n      dup3\n      swap1\n      sub\n      0x1f\n      and\n      dup3\n      add\n      swap2\n    tag_26:\n      pop\n      pop\n      pop\n      pop\n      pop\n      swap1\n      dup1\n      0x03\n      add\n      sload\n      swap1\n      dup1\n      0x04\n      add\n      sload\n      swap1\n      dup1\n      0x05\n      add\n      sload\n      swap1\n      dup1\n      0x06\n      add\n      0x00\n      swap1\n      sload\n      swap1\n      0x0100\n      exp\n      swap1\n      div\n      0xff\n      and\n      swap1\n      pop\n      dup8\n      jump\t// out\n        /* \"CrowdFundingApp/Factory.sol\":385:1617  function addCampaign(address payable beneficiary, string memory title,uint deadline, uint amountToRaise) public {... */\n    tag_15:\n        /* \"CrowdFundingApp/Factory.sol\":621:622  0 */\n      0x00\n        /* \"CrowdFundingApp/Factory.sol\":581:596  titleToCampaign */\n      0x01\n        /* \"CrowdFundingApp/Factory.sol\":597:602  title */\n      dup5\n        /* \"CrowdFundingApp/Factory.sol\":581:603  titleToCampaign[title] */\n      mload(0x40)\n      tag_30\n      swap2\n      swap1\n      tag_31\n      jump\t// in\n    tag_30:\n      swap1\n      dup2\n      mstore\n      0x20\n      add\n      mload(0x40)\n      dup1\n      swap2\n      sub\n      swap1\n      keccak256\n        /* \"CrowdFundingApp/Factory.sol\":581:609  titleToCampaign[title].title */\n      0x02\n      add\n        /* \"CrowdFundingApp/Factory.sol\":575:617  bytes(titleToCampaign[title].title).length */\n      dup1\n      sload\n      tag_32\n      swap1\n      tag_24\n      jump\t// in\n    tag_32:\n      swap1\n      pop\n        /* \"CrowdFundingApp/Factory.sol\":575:622  bytes(titleToCampaign[title].title).length == 0 */\n      eq\n        /* \"CrowdFundingApp/Factory.sol\":567:666  require(bytes(titleToCampaign[title].title).length == 0, \"Campaign with this title already exists\") */\n      tag_33\n      jumpi\n      mload(0x40)\n      0x08c379a000000000000000000000000000000000000000000000000000000000\n      dup2\n      mstore\n      0x04\n      add\n      tag_34\n      swap1\n      tag_35\n      jump\t// in\n    tag_34:\n      mload(0x40)\n      dup1\n      swap2\n      sub\n      swap1\n      revert\n    tag_33:\n        /* \"CrowdFundingApp/Factory.sol\":762:763  0 */\n      0x00\n        /* \"CrowdFundingApp/Factory.sol\":739:764  beneficiary != address(0) */\n      0xffffffffffffffffffffffffffffffffffffffff\n      and\n        /* \"CrowdFundingApp/Factory.sol\":739:750  beneficiary */\n      dup5\n        /* \"CrowdFundingApp/Factory.sol\":739:764  beneficiary != address(0) */\n      0xffffffffffffffffffffffffffffffffffffffff\n      and\n      sub\n        /* \"CrowdFundingApp/Factory.sol\":731:795  require(beneficiary != address(0), \"Which kind address be this\") */\n      tag_36\n      jumpi\n      mload(0x40)\n      0x08c379a000000000000000000000000000000000000000000000000000000000\n      dup2\n      mstore\n      0x04\n      add\n      tag_37\n      swap1\n      tag_38\n      jump\t// in\n    tag_37:\n      mload(0x40)\n      dup1\n      swap2\n      sub\n      swap1\n      revert\n    tag_36:\n        /* \"CrowdFundingApp/Factory.sol\":869:870  0 */\n      0x00\n        /* \"CrowdFundingApp/Factory.sol\":853:858  title */\n      dup4\n        /* \"CrowdFundingApp/Factory.sol\":847:866  bytes(title).length */\n      mload\n        /* \"CrowdFundingApp/Factory.sol\":847:870  bytes(title).length > 0 */\n      gt\n        /* \"CrowdFundingApp/Factory.sol\":839:900  require(bytes(title).length > 0, \"Your campaign no get name\") */\n      tag_39\n      jumpi\n      mload(0x40)\n      0x08c379a000000000000000000000000000000000000000000000000000000000\n      dup2\n      mstore\n      0x04\n      add\n      tag_40\n      swap1\n      tag_41\n      jump\t// in\n    tag_40:\n      mload(0x40)\n      dup1\n      swap2\n      sub\n      swap1\n      revert\n    tag_39:\n        /* \"CrowdFundingApp/Factory.sol\":970:985  block.timestamp */\n      timestamp\n        /* \"CrowdFundingApp/Factory.sol\":959:967  deadline */\n      dup3\n        /* \"CrowdFundingApp/Factory.sol\":959:985  deadline > block.timestamp */\n      gt\n        /* \"CrowdFundingApp/Factory.sol\":951:1012  require(deadline > block.timestamp, \"Sheee you are wise now\") */\n      tag_42\n      jumpi\n      mload(0x40)\n      0x08c379a000000000000000000000000000000000000000000000000000000000\n      dup2\n      mstore\n      0x04\n      add\n      tag_43\n      swap1\n      tag_44\n      jump\t// in\n    tag_43:\n      mload(0x40)\n      dup1\n      swap2\n      sub\n      swap1\n      revert\n    tag_42:\n        /* \"CrowdFundingApp/Factory.sol\":1098:1099  0 */\n      0x00\n        /* \"CrowdFundingApp/Factory.sol\":1082:1095  amountToRaise */\n      dup2\n        /* \"CrowdFundingApp/Factory.sol\":1082:1099  amountToRaise > 0 */\n      gt\n        /* \"CrowdFundingApp/Factory.sol\":1074:1130  require(amountToRaise > 0, \"Bruhh can you not do that?\") */\n      tag_45\n      jumpi\n      mload(0x40)\n      0x08c379a000000000000000000000000000000000000000000000000000000000\n      dup2\n      mstore\n      0x04\n      add\n      tag_46\n      swap1\n      tag_47\n      jump\t// in\n    tag_46:\n      mload(0x40)\n      dup1\n      swap2\n      sub\n      swap1\n      revert\n    tag_45:\n        /* \"CrowdFundingApp/Factory.sol\":1195:1222  Campaign memory newCampaign */\n      0x00\n        /* \"CrowdFundingApp/Factory.sol\":1225:1240  titleToCampaign */\n      0x01\n        /* \"CrowdFundingApp/Factory.sol\":1241:1246  title */\n      dup5\n        /* \"CrowdFundingApp/Factory.sol\":1225:1247  titleToCampaign[title] */\n      mload(0x40)\n      tag_48\n      swap2\n      swap1\n      tag_31\n      jump\t// in\n    tag_48:\n      swap1\n      dup2\n      mstore\n      0x20\n      add\n      mload(0x40)\n      dup1\n      swap2\n      sub\n      swap1\n      keccak256\n        /* \"CrowdFundingApp/Factory.sol\":1195:1247  Campaign memory newCampaign = titleToCampaign[title] */\n      mload(0x40)\n      dup1\n      0xe0\n      add\n      0x40\n      mstore\n      swap1\n      dup2\n      0x00\n      dup3\n      add\n      0x00\n      swap1\n      sload\n      swap1\n      0x0100\n      exp\n      swap1\n      div\n      0xffffffffffffffffffffffffffffffffffffffff\n      and\n      0xffffffffffffffffffffffffffffffffffffffff\n      and\n      0xffffffffffffffffffffffffffffffffffffffff\n      and\n      dup2\n      mstore\n      0x20\n      add\n      0x01\n      dup3\n      add\n      0x00\n      swap1\n      sload\n      swap1\n      0x0100\n      exp\n      swap1\n      div\n      0xffffffffffffffffffffffffffffffffffffffff\n      and\n      0xffffffffffffffffffffffffffffffffffffffff\n      and\n      0xffffffffffffffffffffffffffffffffffffffff\n      and\n      dup2\n      mstore\n      0x20\n      add\n      0x02\n      dup3\n      add\n      dup1\n      sload\n      tag_49\n      swap1\n      tag_24\n      jump\t// in\n    tag_49:\n      dup1\n      0x1f\n      add\n      0x20\n      dup1\n      swap2\n      div\n      mul\n      0x20\n      add\n      mload(0x40)\n      swap1\n      dup2\n      add\n      0x40\n      mstore\n      dup1\n      swap3\n      swap2\n      swap1\n      dup2\n      dup2\n      mstore\n      0x20\n      add\n      dup3\n      dup1\n      sload\n      tag_50\n      swap1\n      tag_24\n      jump\t// in\n    tag_50:\n      dup1\n      iszero\n      tag_51\n      jumpi\n      dup1\n      0x1f\n      lt\n      tag_52\n      jumpi\n      0x0100\n      dup1\n      dup4\n      sload\n      div\n      mul\n      dup4\n      mstore\n      swap2\n      0x20\n      add\n      swap2\n      jump(tag_51)\n    tag_52:\n      dup3\n      add\n      swap2\n      swap1\n      0x00\n      mstore\n      keccak256(0x00, 0x20)\n      swap1\n    tag_53:\n      dup2\n      sload\n      dup2\n      mstore\n      swap1\n      0x01\n      add\n      swap1\n      0x20\n      add\n      dup1\n      dup4\n      gt\n      tag_53\n      jumpi\n      dup3\n      swap1\n      sub\n      0x1f\n      and\n      dup3\n      add\n      swap2\n    tag_51:\n      pop\n      pop\n      pop\n      pop\n      pop\n      dup2\n      mstore\n      0x20\n      add\n      0x03\n      dup3\n      add\n      sload\n      dup2\n      mstore\n      0x20\n      add\n      0x04\n      dup3\n      add\n      sload\n      dup2\n      mstore\n      0x20\n      add\n      0x05\n      dup3\n      add\n      sload\n      dup2\n      mstore\n      0x20\n      add\n      0x06\n      dup3\n      add\n      0x00\n      swap1\n      sload\n      swap1\n      0x0100\n      exp\n      swap1\n      div\n      0xff\n      and\n      iszero\n      iszero\n      iszero\n      iszero\n      dup2\n      mstore\n      pop\n      pop\n      swap1\n      pop\n        /* \"CrowdFundingApp/Factory.sol\":1289:1299  msg.sender */\n      caller\n        /* \"CrowdFundingApp/Factory.sol\":1253:1264  newCampaign */\n      dup2\n        /* \"CrowdFundingApp/Factory.sol\":1253:1278  newCampaign.campaignOwner */\n      0x00\n      add\n        /* \"CrowdFundingApp/Factory.sol\":1253:1300  newCampaign.campaignOwner = payable(msg.sender) */\n      swap1\n      0xffffffffffffffffffffffffffffffffffffffff\n      and\n      swap1\n      dup2\n      0xffffffffffffffffffffffffffffffffffffffff\n      and\n      dup2\n      mstore\n      pop\n      pop\n        /* \"CrowdFundingApp/Factory.sol\":1333:1344  beneficiary */\n      dup5\n        /* \"CrowdFundingApp/Factory.sol\":1306:1317  newCampaign */\n      dup2\n        /* \"CrowdFundingApp/Factory.sol\":1306:1329  newCampaign.beneficiary */\n      0x20\n      add\n        /* \"CrowdFundingApp/Factory.sol\":1306:1344  newCampaign.beneficiary  = beneficiary */\n      swap1\n      0xffffffffffffffffffffffffffffffffffffffff\n      and\n      swap1\n      dup2\n      0xffffffffffffffffffffffffffffffffffffffff\n      and\n      dup2\n      mstore\n      pop\n      pop\n        /* \"CrowdFundingApp/Factory.sol\":1372:1377  title */\n      dup4\n        /* \"CrowdFundingApp/Factory.sol\":1350:1361  newCampaign */\n      dup2\n        /* \"CrowdFundingApp/Factory.sol\":1350:1367  newCampaign.title */\n      0x40\n      add\n        /* \"CrowdFundingApp/Factory.sol\":1350:1377  newCampaign.title   = title */\n      dup2\n      swap1\n      mstore\n      pop\n        /* \"CrowdFundingApp/Factory.sol\":1409:1417  deadline */\n      dup3\n        /* \"CrowdFundingApp/Factory.sol\":1383:1394  newCampaign */\n      dup2\n        /* \"CrowdFundingApp/Factory.sol\":1383:1403  newCampaign.deadline */\n      0x60\n      add\n        /* \"CrowdFundingApp/Factory.sol\":1383:1417  newCampaign.deadline    = deadline */\n      dup2\n      dup2\n      mstore\n      pop\n      pop\n        /* \"CrowdFundingApp/Factory.sol\":1450:1463  amountToRaise */\n      dup2\n        /* \"CrowdFundingApp/Factory.sol\":1423:1434  newCampaign */\n      dup2\n        /* \"CrowdFundingApp/Factory.sol\":1423:1448  newCampaign.amountToRaise */\n      0x80\n      add\n        /* \"CrowdFundingApp/Factory.sol\":1423:1463  newCampaign.amountToRaise= amountToRaise */\n      dup2\n      dup2\n      mstore\n      pop\n      pop\n        /* \"CrowdFundingApp/Factory.sol\":1496:1497  0 */\n      0x00\n        /* \"CrowdFundingApp/Factory.sol\":1469:1480  newCampaign */\n      dup2\n        /* \"CrowdFundingApp/Factory.sol\":1469:1493  newCampaign.raisedAmount */\n      0xa0\n      add\n        /* \"CrowdFundingApp/Factory.sol\":1469:1497  newCampaign.raisedAmount = 0 */\n      dup2\n      dup2\n      mstore\n      pop\n      pop\n        /* \"CrowdFundingApp/Factory.sol\":1527:1532  false */\n      0x00\n        /* \"CrowdFundingApp/Factory.sol\":1503:1514  newCampaign */\n      dup2\n        /* \"CrowdFundingApp/Factory.sol\":1503:1521  newCampaign.closed */\n      0xc0\n      add\n        /* \"CrowdFundingApp/Factory.sol\":1503:1532  newCampaign.closed    = false */\n      swap1\n      iszero\n      iszero\n      swap1\n      dup2\n      iszero\n      iszero\n      dup2\n      mstore\n      pop\n      pop\n        /* \"CrowdFundingApp/Factory.sol\":1538:1550  campaignList */\n      0x00\n        /* \"CrowdFundingApp/Factory.sol\":1557:1568  newCampaign */\n      dup2\n        /* \"CrowdFundingApp/Factory.sol\":1538:1569  campaignList.push (newCampaign) */\n      swap1\n      dup1\n      0x01\n      dup2\n      sload\n      add\n      dup1\n      dup3\n      sstore\n      dup1\n      swap2\n      pop\n      pop\n      0x01\n      swap1\n      sub\n      swap1\n      0x00\n      mstore\n      keccak256(0x00, 0x20)\n      swap1\n      0x07\n      mul\n      add\n      0x00\n      swap1\n      swap2\n      swap1\n      swap2\n      swap1\n      swap2\n      pop\n      0x00\n      dup3\n      add\n      mload\n      dup2\n      0x00\n      add\n      exp(0x0100, 0x00)\n      dup2\n      sload\n      dup2\n      0xffffffffffffffffffffffffffffffffffffffff\n      mul\n      not\n      and\n      swap1\n      dup4\n      0xffffffffffffffffffffffffffffffffffffffff\n      and\n      mul\n      or\n      swap1\n      sstore\n      pop\n      0x20\n      dup3\n      add\n      mload\n      dup2\n      0x01\n      add\n      exp(0x0100, 0x00)\n      dup2\n      sload\n      dup2\n      0xffffffffffffffffffffffffffffffffffffffff\n      mul\n      not\n      and\n      swap1\n      dup4\n      0xffffffffffffffffffffffffffffffffffffffff\n      and\n      mul\n      or\n      swap1\n      sstore\n      pop\n      0x40\n      dup3\n      add\n      mload\n      dup2\n      0x02\n      add\n      swap1\n      dup2\n      tag_55\n      swap2\n      swap1\n      tag_56\n      jump\t// in\n    tag_55:\n      pop\n      0x60\n      dup3\n      add\n      mload\n      dup2\n      0x03\n      add\n      sstore\n      0x80\n      dup3\n      add\n      mload\n      dup2\n      0x04\n      add\n      sstore\n      0xa0\n      dup3\n      add\n      mload\n      dup2\n      0x05\n      add\n      sstore\n      0xc0\n      dup3\n      add\n      mload\n      dup2\n      0x06\n      add\n      exp(0x0100, 0x00)\n      dup2\n      sload\n      dup2\n      0xff\n      mul\n      not\n      and\n      swap1\n      dup4\n      iszero\n      iszero\n      mul\n      or\n      swap1\n      sstore\n      pop\n      pop\n      pop\n        /* \"CrowdFundingApp/Factory.sol\":497:1617  {... */\n      pop\n        /* \"CrowdFundingApp/Factory.sol\":385:1617  function addCampaign(address payable beneficiary, string memory title,uint deadline, uint amountToRaise) public {... */\n      pop\n      pop\n      pop\n      pop\n      jump\t// out\n        /* \"CrowdFundingApp/Factory.sol\":331:382  mapping (string => Campaign) public titleToCampaign */\n    tag_19:\n      0x01\n      dup2\n      dup1\n      mload\n      0x20\n      dup2\n      add\n      dup3\n      add\n      dup1\n      mload\n      dup5\n      dup3\n      mstore\n      0x20\n      dup4\n      add\n      0x20\n      dup6\n      add\n      keccak256\n      dup2\n      dup4\n      mstore\n      dup1\n      swap6\n      pop\n      pop\n      pop\n      pop\n      pop\n      pop\n      0x00\n      swap2\n      pop\n      swap1\n      pop\n      dup1\n      0x00\n      add\n      0x00\n      swap1\n      sload\n      swap1\n      0x0100\n      exp\n      swap1\n      div\n      0xffffffffffffffffffffffffffffffffffffffff\n      and\n      swap1\n      dup1\n      0x01\n      add\n      0x00\n      swap1\n      sload\n      swap1\n      0x0100\n      exp\n      swap1\n      div\n      0xffffffffffffffffffffffffffffffffffffffff\n      and\n      swap1\n      dup1\n      0x02\n      add\n      dup1\n      sload\n      tag_57\n      swap1\n      tag_24\n      jump\t// in\n    tag_57:\n      dup1\n      0x1f\n      add\n      0x20\n      dup1\n      swap2\n      div\n      mul\n      0x20\n      add\n      mload(0x40)\n      swap1\n      dup2\n      add\n      0x40\n      mstore\n      dup1\n      swap3\n      swap2\n      swap1\n      dup2\n      dup2\n      mstore\n      0x20\n      add\n      dup3\n      dup1\n      sload\n      tag_58\n      swap1\n      tag_24\n      jump\t// in\n    tag_58:\n      dup1\n      iszero\n      tag_59\n      jumpi\n      dup1\n      0x1f\n      lt\n      tag_60\n      jumpi\n      0x0100\n      dup1\n      dup4\n      sload\n      div\n      mul\n      dup4\n      mstore\n      swap2\n      0x20\n      add\n      swap2\n      jump(tag_59)\n    tag_60:\n      dup3\n      add\n      swap2\n      swap1\n      0x00\n      mstore\n      keccak256(0x00, 0x20)\n      swap1\n    tag_61:\n      dup2\n      sload\n      dup2\n      mstore\n      swap1\n      0x01\n      add\n      swap1\n      0x20\n      add\n      dup1\n      dup4\n      gt\n      tag_61\n      jumpi\n      dup3\n      swap1\n      sub\n      0x1f\n      and\n      dup3\n      add\n      swap2\n    tag_59:\n      pop\n      pop\n      pop\n      pop\n      pop\n      swap1\n      dup1\n      0x03\n      add\n      sload\n      swap1\n      dup1\n      0x04\n      add\n      sload\n      swap1\n      dup1\n      0x05\n      add\n      sload\n      swap1\n      dup1\n      0x06\n      add\n      0x00\n      swap1\n      sload\n      swap1\n      0x0100\n      exp\n      swap1\n      div\n      0xff\n      and\n      swap1\n      pop\n      dup8\n      jump\t// out\n        /* \"#utility.yul\":7:82   */\n    tag_62:\n        /* \"#utility.yul\":40:46   */\n      0x00\n        /* \"#utility.yul\":73:75   */\n      0x40\n        /* \"#utility.yul\":67:76   */\n      mload\n        /* \"#utility.yul\":57:76   */\n      swap1\n      pop\n        /* \"#utility.yul\":7:82   */\n      swap1\n      jump\t// out\n        /* \"#utility.yul\":88:205   */\n    tag_63:\n        /* \"#utility.yul\":197:198   */\n      0x00\n        /* \"#utility.yul\":194:195   */\n      dup1\n        /* \"#utility.yul\":187:199   */\n      revert\n        /* \"#utility.yul\":211:328   */\n    tag_64:\n        /* \"#utility.yul\":320:321   */\n      0x00\n        /* \"#utility.yul\":317:318   */\n      dup1\n        /* \"#utility.yul\":310:322   */\n      revert\n        /* \"#utility.yul\":334:411   */\n    tag_65:\n        /* \"#utility.yul\":371:378   */\n      0x00\n        /* \"#utility.yul\":400:405   */\n      dup2\n        /* \"#utility.yul\":389:405   */\n      swap1\n      pop\n        /* \"#utility.yul\":334:411   */\n      swap2\n      swap1\n      pop\n      jump\t// out\n        /* \"#utility.yul\":417:539   */\n    tag_66:\n        /* \"#utility.yul\":490:514   */\n      tag_124\n        /* \"#utility.yul\":508:513   */\n      dup2\n        /* \"#utility.yul\":490:514   */\n      tag_65\n      jump\t// in\n    tag_124:\n        /* \"#utility.yul\":483:488   */\n      dup2\n        /* \"#utility.yul\":480:515   */\n      eq\n        /* \"#utility.yul\":470:533   */\n      tag_125\n      jumpi\n        /* \"#utility.yul\":529:530   */\n      0x00\n        /* \"#utility.yul\":526:527   */\n      dup1\n        /* \"#utility.yul\":519:531   */\n      revert\n        /* \"#utility.yul\":470:533   */\n    tag_125:\n        /* \"#utility.yul\":417:539   */\n      pop\n      jump\t// out\n        /* \"#utility.yul\":545:684   */\n    tag_67:\n        /* \"#utility.yul\":591:596   */\n      0x00\n        /* \"#utility.yul\":629:635   */\n      dup2\n        /* \"#utility.yul\":616:636   */\n      calldataload\n        /* \"#utility.yul\":607:636   */\n      swap1\n      pop\n        /* \"#utility.yul\":645:678   */\n      tag_127\n        /* \"#utility.yul\":672:677   */\n      dup2\n        /* \"#utility.yul\":645:678   */\n      tag_66\n      jump\t// in\n    tag_127:\n        /* \"#utility.yul\":545:684   */\n      swap3\n      swap2\n      pop\n      pop\n      jump\t// out\n        /* \"#utility.yul\":690:1019   */\n    tag_8:\n        /* \"#utility.yul\":749:755   */\n      0x00\n        /* \"#utility.yul\":798:800   */\n      0x20\n        /* \"#utility.yul\":786:795   */\n      dup3\n        /* \"#utility.yul\":777:784   */\n      dup5\n        /* \"#utility.yul\":773:796   */\n      sub\n        /* \"#utility.yul\":769:801   */\n      slt\n        /* \"#utility.yul\":766:885   */\n      iszero\n      tag_129\n      jumpi\n        /* \"#utility.yul\":804:883   */\n      tag_130\n      tag_63\n      jump\t// in\n    tag_130:\n        /* \"#utility.yul\":766:885   */\n    tag_129:\n        /* \"#utility.yul\":924:925   */\n      0x00\n        /* \"#utility.yul\":949:1002   */\n      tag_131\n        /* \"#utility.yul\":994:1001   */\n      dup5\n        /* \"#utility.yul\":985:991   */\n      dup3\n        /* \"#utility.yul\":974:983   */\n      dup6\n        /* \"#utility.yul\":970:992   */\n      add\n        /* \"#utility.yul\":949:1002   */\n      tag_67\n      jump\t// in\n    tag_131:\n        /* \"#utility.yul\":939:1002   */\n      swap2\n      pop\n        /* \"#utility.yul\":895:1012   */\n      pop\n        /* \"#utility.yul\":690:1019   */\n      swap3\n      swap2\n      pop\n      pop\n      jump\t// out\n        /* \"#utility.yul\":1025:1151   */\n    tag_68:\n        /* \"#utility.yul\":1062:1069   */\n      0x00\n        /* \"#utility.yul\":1102:1144   */\n      0xffffffffffffffffffffffffffffffffffffffff\n        /* \"#utility.yul\":1095:1100   */\n      dup3\n        /* \"#utility.yul\":1091:1145   */\n      and\n        /* \"#utility.yul\":1080:1145   */\n      swap1\n      pop\n        /* \"#utility.yul\":1025:1151   */\n      swap2\n      swap1\n      pop\n      jump\t// out\n        /* \"#utility.yul\":1157:1261   */\n    tag_69:\n        /* \"#utility.yul\":1202:1209   */\n      0x00\n        /* \"#utility.yul\":1231:1255   */\n      tag_134\n        /* \"#utility.yul\":1249:1254   */\n      dup3\n        /* \"#utility.yul\":1231:1255   */\n      tag_68\n      jump\t// in\n    tag_134:\n        /* \"#utility.yul\":1220:1255   */\n      swap1\n      pop\n        /* \"#utility.yul\":1157:1261   */\n      swap2\n      swap1\n      pop\n      jump\t// out\n        /* \"#utility.yul\":1267:1409   */\n    tag_70:\n        /* \"#utility.yul\":1370:1402   */\n      tag_136\n        /* \"#utility.yul\":1396:1401   */\n      dup2\n        /* \"#utility.yul\":1370:1402   */\n      tag_69\n      jump\t// in\n    tag_136:\n        /* \"#utility.yul\":1365:1368   */\n      dup3\n        /* \"#utility.yul\":1358:1403   */\n      mstore\n        /* \"#utility.yul\":1267:1409   */\n      pop\n      pop\n      jump\t// out\n        /* \"#utility.yul\":1415:1514   */\n    tag_71:\n        /* \"#utility.yul\":1467:1473   */\n      0x00\n        /* \"#utility.yul\":1501:1506   */\n      dup2\n        /* \"#utility.yul\":1495:1507   */\n      mload\n        /* \"#utility.yul\":1485:1507   */\n      swap1\n      pop\n        /* \"#utility.yul\":1415:1514   */\n      swap2\n      swap1\n      pop\n      jump\t// out\n        /* \"#utility.yul\":1520:1689   */\n    tag_72:\n        /* \"#utility.yul\":1604:1615   */\n      0x00\n        /* \"#utility.yul\":1638:1644   */\n      dup3\n        /* \"#utility.yul\":1633:1636   */\n      dup3\n        /* \"#utility.yul\":1626:1645   */\n      mstore\n        /* \"#utility.yul\":1678:1682   */\n      0x20\n        /* \"#utility.yul\":1673:1676   */\n      dup3\n        /* \"#utility.yul\":1669:1683   */\n      add\n        /* \"#utility.yul\":1654:1683   */\n      swap1\n      pop\n        /* \"#utility.yul\":1520:1689   */\n      swap3\n      swap2\n      pop\n      pop\n      jump\t// out\n        /* \"#utility.yul\":1695:1834   */\n    tag_73:\n        /* \"#utility.yul\":1784:1790   */\n      dup3\n        /* \"#utility.yul\":1779:1782   */\n      dup2\n        /* \"#utility.yul\":1774:1777   */\n      dup4\n        /* \"#utility.yul\":1768:1791   */\n      mcopy\n        /* \"#utility.yul\":1825:1826   */\n      0x00\n        /* \"#utility.yul\":1816:1822   */\n      dup4\n        /* \"#utility.yul\":1811:1814   */\n      dup4\n        /* \"#utility.yul\":1807:1823   */\n      add\n        /* \"#utility.yul\":1800:1827   */\n      mstore\n        /* \"#utility.yul\":1695:1834   */\n      pop\n      pop\n      pop\n      jump\t// out\n        /* \"#utility.yul\":1840:1942   */\n    tag_74:\n        /* \"#utility.yul\":1881:1887   */\n      0x00\n        /* \"#utility.yul\":1932:1934   */\n      0x1f\n        /* \"#utility.yul\":1928:1935   */\n      not\n        /* \"#utility.yul\":1923:1925   */\n      0x1f\n        /* \"#utility.yul\":1916:1921   */\n      dup4\n        /* \"#utility.yul\":1912:1926   */\n      add\n        /* \"#utility.yul\":1908:1936   */\n      and\n        /* \"#utility.yul\":1898:1936   */\n      swap1\n      pop\n        /* \"#utility.yul\":1840:1942   */\n      swap2\n      swap1\n      pop\n      jump\t// out\n        /* \"#utility.yul\":1948:2325   */\n    tag_75:\n        /* \"#utility.yul\":2036:2039   */\n      0x00\n        /* \"#utility.yul\":2064:2103   */\n      tag_142\n        /* \"#utility.yul\":2097:2102   */\n      dup3\n        /* \"#utility.yul\":2064:2103   */\n      tag_71\n      jump\t// in\n    tag_142:\n        /* \"#utility.yul\":2119:2190   */\n      tag_143\n        /* \"#utility.yul\":2183:2189   */\n      dup2\n        /* \"#utility.yul\":2178:2181   */\n      dup6\n        /* \"#utility.yul\":2119:2190   */\n      tag_72\n      jump\t// in\n    tag_143:\n        /* \"#utility.yul\":2112:2190   */\n      swap4\n      pop\n        /* \"#utility.yul\":2199:2264   */\n      tag_144\n        /* \"#utility.yul\":2257:2263   */\n      dup2\n        /* \"#utility.yul\":2252:2255   */\n      dup6\n        /* \"#utility.yul\":2245:2249   */\n      0x20\n        /* \"#utility.yul\":2238:2243   */\n      dup7\n        /* \"#utility.yul\":2234:2250   */\n      add\n        /* \"#utility.yul\":2199:2264   */\n      tag_73\n      jump\t// in\n    tag_144:\n        /* \"#utility.yul\":2289:2318   */\n      tag_145\n        /* \"#utility.yul\":2311:2317   */\n      dup2\n        /* \"#utility.yul\":2289:2318   */\n      tag_74\n      jump\t// in\n    tag_145:\n        /* \"#utility.yul\":2284:2287   */\n      dup5\n        /* \"#utility.yul\":2280:2319   */\n      add\n        /* \"#utility.yul\":2273:2319   */\n      swap2\n      pop\n        /* \"#utility.yul\":2040:2325   */\n      pop\n        /* \"#utility.yul\":1948:2325   */\n      swap3\n      swap2\n      pop\n      pop\n      jump\t// out\n        /* \"#utility.yul\":2331:2449   */\n    tag_76:\n        /* \"#utility.yul\":2418:2442   */\n      tag_147\n        /* \"#utility.yul\":2436:2441   */\n      dup2\n        /* \"#utility.yul\":2418:2442   */\n      tag_65\n      jump\t// in\n    tag_147:\n        /* \"#utility.yul\":2413:2416   */\n      dup3\n        /* \"#utility.yul\":2406:2443   */\n      mstore\n        /* \"#utility.yul\":2331:2449   */\n      pop\n      pop\n      jump\t// out\n        /* \"#utility.yul\":2455:2545   */\n    tag_77:\n        /* \"#utility.yul\":2489:2496   */\n      0x00\n        /* \"#utility.yul\":2532:2537   */\n      dup2\n        /* \"#utility.yul\":2525:2538   */\n      iszero\n        /* \"#utility.yul\":2518:2539   */\n      iszero\n        /* \"#utility.yul\":2507:2539   */\n      swap1\n      pop\n        /* \"#utility.yul\":2455:2545   */\n      swap2\n      swap1\n      pop\n      jump\t// out\n        /* \"#utility.yul\":2551:2660   */\n    tag_78:\n        /* \"#utility.yul\":2632:2653   */\n      tag_150\n        /* \"#utility.yul\":2647:2652   */\n      dup2\n        /* \"#utility.yul\":2632:2653   */\n      tag_77\n      jump\t// in\n    tag_150:\n        /* \"#utility.yul\":2627:2630   */\n      dup3\n        /* \"#utility.yul\":2620:2654   */\n      mstore\n        /* \"#utility.yul\":2551:2660   */\n      pop\n      pop\n      jump\t// out\n        /* \"#utility.yul\":2666:3695   */\n    tag_11:\n        /* \"#utility.yul\":2973:2977   */\n      0x00\n        /* \"#utility.yul\":3011:3014   */\n      0xe0\n        /* \"#utility.yul\":3000:3009   */\n      dup3\n        /* \"#utility.yul\":2996:3015   */\n      add\n        /* \"#utility.yul\":2988:3015   */\n      swap1\n      pop\n        /* \"#utility.yul\":3025:3112   */\n      tag_152\n        /* \"#utility.yul\":3109:3110   */\n      0x00\n        /* \"#utility.yul\":3098:3107   */\n      dup4\n        /* \"#utility.yul\":3094:3111   */\n      add\n        /* \"#utility.yul\":3085:3091   */\n      dup11\n        /* \"#utility.yul\":3025:3112   */\n      tag_70\n      jump\t// in\n    tag_152:\n        /* \"#utility.yul\":3122:3210   */\n      tag_153\n        /* \"#utility.yul\":3206:3208   */\n      0x20\n        /* \"#utility.yul\":3195:3204   */\n      dup4\n        /* \"#utility.yul\":3191:3209   */\n      add\n        /* \"#utility.yul\":3182:3188   */\n      dup10\n        /* \"#utility.yul\":3122:3210   */\n      tag_70\n      jump\t// in\n    tag_153:\n        /* \"#utility.yul\":3257:3266   */\n      dup2\n        /* \"#utility.yul\":3251:3255   */\n      dup2\n        /* \"#utility.yul\":3247:3267   */\n      sub\n        /* \"#utility.yul\":3242:3244   */\n      0x40\n        /* \"#utility.yul\":3231:3240   */\n      dup4\n        /* \"#utility.yul\":3227:3245   */\n      add\n        /* \"#utility.yul\":3220:3268   */\n      mstore\n        /* \"#utility.yul\":3285:3363   */\n      tag_154\n        /* \"#utility.yul\":3358:3362   */\n      dup2\n        /* \"#utility.yul\":3349:3355   */\n      dup9\n        /* \"#utility.yul\":3285:3363   */\n      tag_75\n      jump\t// in\n    tag_154:\n        /* \"#utility.yul\":3277:3363   */\n      swap1\n      pop\n        /* \"#utility.yul\":3373:3445   */\n      tag_155\n        /* \"#utility.yul\":3441:3443   */\n      0x60\n        /* \"#utility.yul\":3430:3439   */\n      dup4\n        /* \"#utility.yul\":3426:3444   */\n      add\n        /* \"#utility.yul\":3417:3423   */\n      dup8\n        /* \"#utility.yul\":3373:3445   */\n      tag_76\n      jump\t// in\n    tag_155:\n        /* \"#utility.yul\":3455:3528   */\n      tag_156\n        /* \"#utility.yul\":3523:3526   */\n      0x80\n        /* \"#utility.yul\":3512:3521   */\n      dup4\n        /* \"#utility.yul\":3508:3527   */\n      add\n        /* \"#utility.yul\":3499:3505   */\n      dup7\n        /* \"#utility.yul\":3455:3528   */\n      tag_76\n      jump\t// in\n    tag_156:\n        /* \"#utility.yul\":3538:3611   */\n      tag_157\n        /* \"#utility.yul\":3606:3609   */\n      0xa0\n        /* \"#utility.yul\":3595:3604   */\n      dup4\n        /* \"#utility.yul\":3591:3610   */\n      add\n        /* \"#utility.yul\":3582:3588   */\n      dup6\n        /* \"#utility.yul\":3538:3611   */\n      tag_76\n      jump\t// in\n    tag_157:\n        /* \"#utility.yul\":3621:3688   */\n      tag_158\n        /* \"#utility.yul\":3683:3686   */\n      0xc0\n        /* \"#utility.yul\":3672:3681   */\n      dup4\n        /* \"#utility.yul\":3668:3687   */\n      add\n        /* \"#utility.yul\":3659:3665   */\n      dup5\n        /* \"#utility.yul\":3621:3688   */\n      tag_78\n      jump\t// in\n    tag_158:\n        /* \"#utility.yul\":2666:3695   */\n      swap9\n      swap8\n      pop\n      pop\n      pop\n      pop\n      pop\n      pop\n      pop\n      pop\n      jump\t// out\n        /* \"#utility.yul\":3701:3839   */\n    tag_79:\n        /* \"#utility.yul\":3782:3814   */\n      tag_160\n        /* \"#utility.yul\":3808:3813   */\n      dup2\n        /* \"#utility.yul\":3782:3814   */\n      tag_69\n      jump\t// in\n    tag_160:\n        /* \"#utility.yul\":3775:3780   */\n      dup2\n        /* \"#utility.yul\":3772:3815   */\n      eq\n        /* \"#utility.yul\":3762:3833   */\n      tag_161\n      jumpi\n        /* \"#utility.yul\":3829:3830   */\n      0x00\n        /* \"#utility.yul\":3826:3827   */\n      dup1\n        /* \"#utility.yul\":3819:3831   */\n      revert\n        /* \"#utility.yul\":3762:3833   */\n    tag_161:\n        /* \"#utility.yul\":3701:3839   */\n      pop\n      jump\t// out\n        /* \"#utility.yul\":3845:4000   */\n    tag_80:\n        /* \"#utility.yul\":3899:3904   */\n      0x00\n        /* \"#utility.yul\":3937:3943   */\n      dup2\n        /* \"#utility.yul\":3924:3944   */\n      calldataload\n        /* \"#utility.yul\":3915:3944   */\n      swap1\n      pop\n        /* \"#utility.yul\":3953:3994   */\n      tag_163\n        /* \"#utility.yul\":3988:3993   */\n      dup2\n        /* \"#utility.yul\":3953:3994   */\n      tag_79\n      jump\t// in\n    tag_163:\n        /* \"#utility.yul\":3845:4000   */\n      swap3\n      swap2\n      pop\n      pop\n      jump\t// out\n        /* \"#utility.yul\":4006:4123   */\n    tag_81:\n        /* \"#utility.yul\":4115:4116   */\n      0x00\n        /* \"#utility.yul\":4112:4113   */\n      dup1\n        /* \"#utility.yul\":4105:4117   */\n      revert\n        /* \"#utility.yul\":4129:4246   */\n    tag_82:\n        /* \"#utility.yul\":4238:4239   */\n      0x00\n        /* \"#utility.yul\":4235:4236   */\n      dup1\n        /* \"#utility.yul\":4228:4240   */\n      revert\n        /* \"#utility.yul\":4252:4432   */\n    tag_83:\n        /* \"#utility.yul\":4300:4377   */\n      0x4e487b7100000000000000000000000000000000000000000000000000000000\n        /* \"#utility.yul\":4297:4298   */\n      0x00\n        /* \"#utility.yul\":4290:4378   */\n      mstore\n        /* \"#utility.yul\":4397:4401   */\n      0x41\n        /* \"#utility.yul\":4394:4395   */\n      0x04\n        /* \"#utility.yul\":4387:4402   */\n      mstore\n        /* \"#utility.yul\":4421:4425   */\n      0x24\n        /* \"#utility.yul\":4418:4419   */\n      0x00\n        /* \"#utility.yul\":4411:4426   */\n      revert\n        /* \"#utility.yul\":4438:4719   */\n    tag_84:\n        /* \"#utility.yul\":4521:4548   */\n      tag_168\n        /* \"#utility.yul\":4543:4547   */\n      dup3\n        /* \"#utility.yul\":4521:4548   */\n      tag_74\n      jump\t// in\n    tag_168:\n        /* \"#utility.yul\":4513:4519   */\n      dup2\n        /* \"#utility.yul\":4509:4549   */\n      add\n        /* \"#utility.yul\":4651:4657   */\n      dup2\n        /* \"#utility.yul\":4639:4649   */\n      dup2\n        /* \"#utility.yul\":4636:4658   */\n      lt\n        /* \"#utility.yul\":4615:4633   */\n      0xffffffffffffffff\n        /* \"#utility.yul\":4603:4613   */\n      dup3\n        /* \"#utility.yul\":4600:4634   */\n      gt\n        /* \"#utility.yul\":4597:4659   */\n      or\n        /* \"#utility.yul\":4594:4682   */\n      iszero\n      tag_169\n      jumpi\n        /* \"#utility.yul\":4662:4680   */\n      tag_170\n      tag_83\n      jump\t// in\n    tag_170:\n        /* \"#utility.yul\":4594:4682   */\n    tag_169:\n        /* \"#utility.yul\":4702:4712   */\n      dup1\n        /* \"#utility.yul\":4698:4700   */\n      0x40\n        /* \"#utility.yul\":4691:4713   */\n      mstore\n        /* \"#utility.yul\":4481:4719   */\n      pop\n        /* \"#utility.yul\":4438:4719   */\n      pop\n      pop\n      jump\t// out\n        /* \"#utility.yul\":4725:4854   */\n    tag_85:\n        /* \"#utility.yul\":4759:4765   */\n      0x00\n        /* \"#utility.yul\":4786:4806   */\n      tag_172\n      tag_62\n      jump\t// in\n    tag_172:\n        /* \"#utility.yul\":4776:4806   */\n      swap1\n      pop\n        /* \"#utility.yul\":4815:4848   */\n      tag_173\n        /* \"#utility.yul\":4843:4847   */\n      dup3\n        /* \"#utility.yul\":4835:4841   */\n      dup3\n        /* \"#utility.yul\":4815:4848   */\n      tag_84\n      jump\t// in\n    tag_173:\n        /* \"#utility.yul\":4725:4854   */\n      swap2\n      swap1\n      pop\n      jump\t// out\n        /* \"#utility.yul\":4860:5168   */\n    tag_86:\n        /* \"#utility.yul\":4922:4926   */\n      0x00\n        /* \"#utility.yul\":5012:5030   */\n      0xffffffffffffffff\n        /* \"#utility.yul\":5004:5010   */\n      dup3\n        /* \"#utility.yul\":5001:5031   */\n      gt\n        /* \"#utility.yul\":4998:5054   */\n      iszero\n      tag_175\n      jumpi\n        /* \"#utility.yul\":5034:5052   */\n      tag_176\n      tag_83\n      jump\t// in\n    tag_176:\n        /* \"#utility.yul\":4998:5054   */\n    tag_175:\n        /* \"#utility.yul\":5072:5101   */\n      tag_177\n        /* \"#utility.yul\":5094:5100   */\n      dup3\n        /* \"#utility.yul\":5072:5101   */\n      tag_74\n      jump\t// in\n    tag_177:\n        /* \"#utility.yul\":5064:5101   */\n      swap1\n      pop\n        /* \"#utility.yul\":5156:5160   */\n      0x20\n        /* \"#utility.yul\":5150:5154   */\n      dup2\n        /* \"#utility.yul\":5146:5161   */\n      add\n        /* \"#utility.yul\":5138:5161   */\n      swap1\n      pop\n        /* \"#utility.yul\":4860:5168   */\n      swap2\n      swap1\n      pop\n      jump\t// out\n        /* \"#utility.yul\":5174:5322   */\n    tag_87:\n        /* \"#utility.yul\":5272:5278   */\n      dup3\n        /* \"#utility.yul\":5267:5270   */\n      dup2\n        /* \"#utility.yul\":5262:5265   */\n      dup4\n        /* \"#utility.yul\":5249:5279   */\n      calldatacopy\n        /* \"#utility.yul\":5313:5314   */\n      0x00\n        /* \"#utility.yul\":5304:5310   */\n      dup4\n        /* \"#utility.yul\":5299:5302   */\n      dup4\n        /* \"#utility.yul\":5295:5311   */\n      add\n        /* \"#utility.yul\":5288:5315   */\n      mstore\n        /* \"#utility.yul\":5174:5322   */\n      pop\n      pop\n      pop\n      jump\t// out\n        /* \"#utility.yul\":5328:5753   */\n    tag_88:\n        /* \"#utility.yul\":5406:5411   */\n      0x00\n        /* \"#utility.yul\":5431:5497   */\n      tag_180\n        /* \"#utility.yul\":5447:5496   */\n      tag_181\n        /* \"#utility.yul\":5489:5495   */\n      dup5\n        /* \"#utility.yul\":5447:5496   */\n      tag_86\n      jump\t// in\n    tag_181:\n        /* \"#utility.yul\":5431:5497   */\n      tag_85\n      jump\t// in\n    tag_180:\n        /* \"#utility.yul\":5422:5497   */\n      swap1\n      pop\n        /* \"#utility.yul\":5520:5526   */\n      dup3\n        /* \"#utility.yul\":5513:5518   */\n      dup2\n        /* \"#utility.yul\":5506:5527   */\n      mstore\n        /* \"#utility.yul\":5558:5562   */\n      0x20\n        /* \"#utility.yul\":5551:5556   */\n      dup2\n        /* \"#utility.yul\":5547:5563   */\n      add\n        /* \"#utility.yul\":5596:5599   */\n      dup5\n        /* \"#utility.yul\":5587:5593   */\n      dup5\n        /* \"#utility.yul\":5582:5585   */\n      dup5\n        /* \"#utility.yul\":5578:5594   */\n      add\n        /* \"#utility.yul\":5575:5600   */\n      gt\n        /* \"#utility.yul\":5572:5684   */\n      iszero\n      tag_182\n      jumpi\n        /* \"#utility.yul\":5603:5682   */\n      tag_183\n      tag_82\n      jump\t// in\n    tag_183:\n        /* \"#utility.yul\":5572:5684   */\n    tag_182:\n        /* \"#utility.yul\":5693:5747   */\n      tag_184\n        /* \"#utility.yul\":5740:5746   */\n      dup5\n        /* \"#utility.yul\":5735:5738   */\n      dup3\n        /* \"#utility.yul\":5730:5733   */\n      dup6\n        /* \"#utility.yul\":5693:5747   */\n      tag_87\n      jump\t// in\n    tag_184:\n        /* \"#utility.yul\":5412:5753   */\n      pop\n        /* \"#utility.yul\":5328:5753   */\n      swap4\n      swap3\n      pop\n      pop\n      pop\n      jump\t// out\n        /* \"#utility.yul\":5773:6113   */\n    tag_89:\n        /* \"#utility.yul\":5829:5834   */\n      0x00\n        /* \"#utility.yul\":5878:5881   */\n      dup3\n        /* \"#utility.yul\":5871:5875   */\n      0x1f\n        /* \"#utility.yul\":5863:5869   */\n      dup4\n        /* \"#utility.yul\":5859:5876   */\n      add\n        /* \"#utility.yul\":5855:5882   */\n      slt\n        /* \"#utility.yul\":5845:5967   */\n      tag_186\n      jumpi\n        /* \"#utility.yul\":5886:5965   */\n      tag_187\n      tag_81\n      jump\t// in\n    tag_187:\n        /* \"#utility.yul\":5845:5967   */\n    tag_186:\n        /* \"#utility.yul\":6003:6009   */\n      dup2\n        /* \"#utility.yul\":5990:6010   */\n      calldataload\n        /* \"#utility.yul\":6028:6107   */\n      tag_188\n        /* \"#utility.yul\":6103:6106   */\n      dup5\n        /* \"#utility.yul\":6095:6101   */\n      dup3\n        /* \"#utility.yul\":6088:6092   */\n      0x20\n        /* \"#utility.yul\":6080:6086   */\n      dup7\n        /* \"#utility.yul\":6076:6093   */\n      add\n        /* \"#utility.yul\":6028:6107   */\n      tag_88\n      jump\t// in\n    tag_188:\n        /* \"#utility.yul\":6019:6107   */\n      swap2\n      pop\n        /* \"#utility.yul\":5835:6113   */\n      pop\n        /* \"#utility.yul\":5773:6113   */\n      swap3\n      swap2\n      pop\n      pop\n      jump\t// out\n        /* \"#utility.yul\":6119:7080   */\n    tag_14:\n        /* \"#utility.yul\":6223:6229   */\n      0x00\n        /* \"#utility.yul\":6231:6237   */\n      dup1\n        /* \"#utility.yul\":6239:6245   */\n      0x00\n        /* \"#utility.yul\":6247:6253   */\n      dup1\n        /* \"#utility.yul\":6296:6299   */\n      0x80\n        /* \"#utility.yul\":6284:6293   */\n      dup6\n        /* \"#utility.yul\":6275:6282   */\n      dup8\n        /* \"#utility.yul\":6271:6294   */\n      sub\n        /* \"#utility.yul\":6267:6300   */\n      slt\n        /* \"#utility.yul\":6264:6384   */\n      iszero\n      tag_190\n      jumpi\n        /* \"#utility.yul\":6303:6382   */\n      tag_191\n      tag_63\n      jump\t// in\n    tag_191:\n        /* \"#utility.yul\":6264:6384   */\n    tag_190:\n        /* \"#utility.yul\":6423:6424   */\n      0x00\n        /* \"#utility.yul\":6448:6509   */\n      tag_192\n        /* \"#utility.yul\":6501:6508   */\n      dup8\n        /* \"#utility.yul\":6492:6498   */\n      dup3\n        /* \"#utility.yul\":6481:6490   */\n      dup9\n        /* \"#utility.yul\":6477:6499   */\n      add\n        /* \"#utility.yul\":6448:6509   */\n      tag_80\n      jump\t// in\n    tag_192:\n        /* \"#utility.yul\":6438:6509   */\n      swap5\n      pop\n        /* \"#utility.yul\":6394:6519   */\n      pop\n        /* \"#utility.yul\":6586:6588   */\n      0x20\n        /* \"#utility.yul\":6575:6584   */\n      dup6\n        /* \"#utility.yul\":6571:6589   */\n      add\n        /* \"#utility.yul\":6558:6590   */\n      calldataload\n        /* \"#utility.yul\":6617:6635   */\n      0xffffffffffffffff\n        /* \"#utility.yul\":6609:6615   */\n      dup2\n        /* \"#utility.yul\":6606:6636   */\n      gt\n        /* \"#utility.yul\":6603:6720   */\n      iszero\n      tag_193\n      jumpi\n        /* \"#utility.yul\":6639:6718   */\n      tag_194\n      tag_64\n      jump\t// in\n    tag_194:\n        /* \"#utility.yul\":6603:6720   */\n    tag_193:\n        /* \"#utility.yul\":6744:6807   */\n      tag_195\n        /* \"#utility.yul\":6799:6806   */\n      dup8\n        /* \"#utility.yul\":6790:6796   */\n      dup3\n        /* \"#utility.yul\":6779:6788   */\n      dup9\n        /* \"#utility.yul\":6775:6797   */\n      add\n        /* \"#utility.yul\":6744:6807   */\n      tag_89\n      jump\t// in\n    tag_195:\n        /* \"#utility.yul\":6734:6807   */\n      swap4\n      pop\n        /* \"#utility.yul\":6529:6817   */\n      pop\n        /* \"#utility.yul\":6856:6858   */\n      0x40\n        /* \"#utility.yul\":6882:6935   */\n      tag_196\n        /* \"#utility.yul\":6927:6934   */\n      dup8\n        /* \"#utility.yul\":6918:6924   */\n      dup3\n        /* \"#utility.yul\":6907:6916   */\n      dup9\n        /* \"#utility.yul\":6903:6925   */\n      add\n        /* \"#utility.yul\":6882:6935   */\n      tag_67\n      jump\t// in\n    tag_196:\n        /* \"#utility.yul\":6872:6935   */\n      swap3\n      pop\n        /* \"#utility.yul\":6827:6945   */\n      pop\n        /* \"#utility.yul\":6984:6986   */\n      0x60\n        /* \"#utility.yul\":7010:7063   */\n      tag_197\n        /* \"#utility.yul\":7055:7062   */\n      dup8\n        /* \"#utility.yul\":7046:7052   */\n      dup3\n        /* \"#utility.yul\":7035:7044   */\n      dup9\n        /* \"#utility.yul\":7031:7053   */\n      add\n        /* \"#utility.yul\":7010:7063   */\n      tag_67\n      jump\t// in\n    tag_197:\n        /* \"#utility.yul\":7000:7063   */\n      swap2\n      pop\n        /* \"#utility.yul\":6955:7073   */\n      pop\n        /* \"#utility.yul\":6119:7080   */\n      swap3\n      swap6\n      swap2\n      swap5\n      pop\n      swap3\n      pop\n      jump\t// out\n        /* \"#utility.yul\":7086:7595   */\n    tag_18:\n        /* \"#utility.yul\":7155:7161   */\n      0x00\n        /* \"#utility.yul\":7204:7206   */\n      0x20\n        /* \"#utility.yul\":7192:7201   */\n      dup3\n        /* \"#utility.yul\":7183:7190   */\n      dup5\n        /* \"#utility.yul\":7179:7202   */\n      sub\n        /* \"#utility.yul\":7175:7207   */\n      slt\n        /* \"#utility.yul\":7172:7291   */\n      iszero\n      tag_199\n      jumpi\n        /* \"#utility.yul\":7210:7289   */\n      tag_200\n      tag_63\n      jump\t// in\n    tag_200:\n        /* \"#utility.yul\":7172:7291   */\n    tag_199:\n        /* \"#utility.yul\":7358:7359   */\n      0x00\n        /* \"#utility.yul\":7347:7356   */\n      dup3\n        /* \"#utility.yul\":7343:7360   */\n      add\n        /* \"#utility.yul\":7330:7361   */\n      calldataload\n        /* \"#utility.yul\":7388:7406   */\n      0xffffffffffffffff\n        /* \"#utility.yul\":7380:7386   */\n      dup2\n        /* \"#utility.yul\":7377:7407   */\n      gt\n        /* \"#utility.yul\":7374:7491   */\n      iszero\n      tag_201\n      jumpi\n        /* \"#utility.yul\":7410:7489   */\n      tag_202\n      tag_64\n      jump\t// in\n    tag_202:\n        /* \"#utility.yul\":7374:7491   */\n    tag_201:\n        /* \"#utility.yul\":7515:7578   */\n      tag_203\n        /* \"#utility.yul\":7570:7577   */\n      dup5\n        /* \"#utility.yul\":7561:7567   */\n      dup3\n        /* \"#utility.yul\":7550:7559   */\n      dup6\n        /* \"#utility.yul\":7546:7568   */\n      add\n        /* \"#utility.yul\":7515:7578   */\n      tag_89\n      jump\t// in\n    tag_203:\n        /* \"#utility.yul\":7505:7578   */\n      swap2\n      pop\n        /* \"#utility.yul\":7301:7588   */\n      pop\n        /* \"#utility.yul\":7086:7595   */\n      swap3\n      swap2\n      pop\n      pop\n      jump\t// out\n        /* \"#utility.yul\":7601:7781   */\n    tag_90:\n        /* \"#utility.yul\":7649:7726   */\n      0x4e487b7100000000000000000000000000000000000000000000000000000000\n        /* \"#utility.yul\":7646:7647   */\n      0x00\n        /* \"#utility.yul\":7639:7727   */\n      mstore\n        /* \"#utility.yul\":7746:7750   */\n      0x22\n        /* \"#utility.yul\":7743:7744   */\n      0x04\n        /* \"#utility.yul\":7736:7751   */\n      mstore\n        /* \"#utility.yul\":7770:7774   */\n      0x24\n        /* \"#utility.yul\":7767:7768   */\n      0x00\n        /* \"#utility.yul\":7760:7775   */\n      revert\n        /* \"#utility.yul\":7787:8107   */\n    tag_24:\n        /* \"#utility.yul\":7831:7837   */\n      0x00\n        /* \"#utility.yul\":7868:7869   */\n      0x02\n        /* \"#utility.yul\":7862:7866   */\n      dup3\n        /* \"#utility.yul\":7858:7870   */\n      div\n        /* \"#utility.yul\":7848:7870   */\n      swap1\n      pop\n        /* \"#utility.yul\":7915:7916   */\n      0x01\n        /* \"#utility.yul\":7909:7913   */\n      dup3\n        /* \"#utility.yul\":7905:7917   */\n      and\n        /* \"#utility.yul\":7936:7954   */\n      dup1\n        /* \"#utility.yul\":7926:8007   */\n      tag_206\n      jumpi\n        /* \"#utility.yul\":7992:7996   */\n      0x7f\n        /* \"#utility.yul\":7984:7990   */\n      dup3\n        /* \"#utility.yul\":7980:7997   */\n      and\n        /* \"#utility.yul\":7970:7997   */\n      swap2\n      pop\n        /* \"#utility.yul\":7926:8007   */\n    tag_206:\n        /* \"#utility.yul\":8054:8056   */\n      0x20\n        /* \"#utility.yul\":8046:8052   */\n      dup3\n        /* \"#utility.yul\":8043:8057   */\n      lt\n        /* \"#utility.yul\":8023:8041   */\n      dup2\n        /* \"#utility.yul\":8020:8058   */\n      sub\n        /* \"#utility.yul\":8017:8101   */\n      tag_207\n      jumpi\n        /* \"#utility.yul\":8073:8091   */\n      tag_208\n      tag_90\n      jump\t// in\n    tag_208:\n        /* \"#utility.yul\":8017:8101   */\n    tag_207:\n        /* \"#utility.yul\":7838:8107   */\n      pop\n        /* \"#utility.yul\":7787:8107   */\n      swap2\n      swap1\n      pop\n      jump\t// out\n        /* \"#utility.yul\":8113:8261   */\n    tag_91:\n        /* \"#utility.yul\":8215:8226   */\n      0x00\n        /* \"#utility.yul\":8252:8255   */\n      dup2\n        /* \"#utility.yul\":8237:8255   */\n      swap1\n      pop\n        /* \"#utility.yul\":8113:8261   */\n      swap3\n      swap2\n      pop\n      pop\n      jump\t// out\n        /* \"#utility.yul\":8267:8657   */\n    tag_92:\n        /* \"#utility.yul\":8373:8376   */\n      0x00\n        /* \"#utility.yul\":8401:8440   */\n      tag_211\n        /* \"#utility.yul\":8434:8439   */\n      dup3\n        /* \"#utility.yul\":8401:8440   */\n      tag_71\n      jump\t// in\n    tag_211:\n        /* \"#utility.yul\":8456:8545   */\n      tag_212\n        /* \"#utility.yul\":8538:8544   */\n      dup2\n        /* \"#utility.yul\":8533:8536   */\n      dup6\n        /* \"#utility.yul\":8456:8545   */\n      tag_91\n      jump\t// in\n    tag_212:\n        /* \"#utility.yul\":8449:8545   */\n      swap4\n      pop\n        /* \"#utility.yul\":8554:8619   */\n      tag_213\n        /* \"#utility.yul\":8612:8618   */\n      dup2\n        /* \"#utility.yul\":8607:8610   */\n      dup6\n        /* \"#utility.yul\":8600:8604   */\n      0x20\n        /* \"#utility.yul\":8593:8598   */\n      dup7\n        /* \"#utility.yul\":8589:8605   */\n      add\n        /* \"#utility.yul\":8554:8619   */\n      tag_73\n      jump\t// in\n    tag_213:\n        /* \"#utility.yul\":8644:8650   */\n      dup1\n        /* \"#utility.yul\":8639:8642   */\n      dup5\n        /* \"#utility.yul\":8635:8651   */\n      add\n        /* \"#utility.yul\":8628:8651   */\n      swap2\n      pop\n        /* \"#utility.yul\":8377:8657   */\n      pop\n        /* \"#utility.yul\":8267:8657   */\n      swap3\n      swap2\n      pop\n      pop\n      jump\t// out\n        /* \"#utility.yul\":8663:8938   */\n    tag_31:\n        /* \"#utility.yul\":8795:8798   */\n      0x00\n        /* \"#utility.yul\":8817:8912   */\n      tag_215\n        /* \"#utility.yul\":8908:8911   */\n      dup3\n        /* \"#utility.yul\":8899:8905   */\n      dup5\n        /* \"#utility.yul\":8817:8912   */\n      tag_92\n      jump\t// in\n    tag_215:\n        /* \"#utility.yul\":8810:8912   */\n      swap2\n      pop\n        /* \"#utility.yul\":8929:8932   */\n      dup2\n        /* \"#utility.yul\":8922:8932   */\n      swap1\n      pop\n        /* \"#utility.yul\":8663:8938   */\n      swap3\n      swap2\n      pop\n      pop\n      jump\t// out\n        /* \"#utility.yul\":8944:9170   */\n    tag_93:\n        /* \"#utility.yul\":9084:9118   */\n      0x43616d706169676e20776974682074686973207469746c6520616c7265616479\n        /* \"#utility.yul\":9080:9081   */\n      0x00\n        /* \"#utility.yul\":9072:9078   */\n      dup3\n        /* \"#utility.yul\":9068:9082   */\n      add\n        /* \"#utility.yul\":9061:9119   */\n      mstore\n        /* \"#utility.yul\":9153:9162   */\n      0x2065786973747300000000000000000000000000000000000000000000000000\n        /* \"#utility.yul\":9148:9150   */\n      0x20\n        /* \"#utility.yul\":9140:9146   */\n      dup3\n        /* \"#utility.yul\":9136:9151   */\n      add\n        /* \"#utility.yul\":9129:9163   */\n      mstore\n        /* \"#utility.yul\":8944:9170   */\n      pop\n      jump\t// out\n        /* \"#utility.yul\":9176:9542   */\n    tag_94:\n        /* \"#utility.yul\":9318:9321   */\n      0x00\n        /* \"#utility.yul\":9339:9406   */\n      tag_218\n        /* \"#utility.yul\":9403:9405   */\n      0x27\n        /* \"#utility.yul\":9398:9401   */\n      dup4\n        /* \"#utility.yul\":9339:9406   */\n      tag_72\n      jump\t// in\n    tag_218:\n        /* \"#utility.yul\":9332:9406   */\n      swap2\n      pop\n        /* \"#utility.yul\":9415:9508   */\n      tag_219\n        /* \"#utility.yul\":9504:9507   */\n      dup3\n        /* \"#utility.yul\":9415:9508   */\n      tag_93\n      jump\t// in\n    tag_219:\n        /* \"#utility.yul\":9533:9535   */\n      0x40\n        /* \"#utility.yul\":9528:9531   */\n      dup3\n        /* \"#utility.yul\":9524:9536   */\n      add\n        /* \"#utility.yul\":9517:9536   */\n      swap1\n      pop\n        /* \"#utility.yul\":9176:9542   */\n      swap2\n      swap1\n      pop\n      jump\t// out\n        /* \"#utility.yul\":9548:9967   */\n    tag_35:\n        /* \"#utility.yul\":9714:9718   */\n      0x00\n        /* \"#utility.yul\":9752:9754   */\n      0x20\n        /* \"#utility.yul\":9741:9750   */\n      dup3\n        /* \"#utility.yul\":9737:9755   */\n      add\n        /* \"#utility.yul\":9729:9755   */\n      swap1\n      pop\n        /* \"#utility.yul\":9801:9810   */\n      dup2\n        /* \"#utility.yul\":9795:9799   */\n      dup2\n        /* \"#utility.yul\":9791:9811   */\n      sub\n        /* \"#utility.yul\":9787:9788   */\n      0x00\n        /* \"#utility.yul\":9776:9785   */\n      dup4\n        /* \"#utility.yul\":9772:9789   */\n      add\n        /* \"#utility.yul\":9765:9812   */\n      mstore\n        /* \"#utility.yul\":9829:9960   */\n      tag_221\n        /* \"#utility.yul\":9955:9959   */\n      dup2\n        /* \"#utility.yul\":9829:9960   */\n      tag_94\n      jump\t// in\n    tag_221:\n        /* \"#utility.yul\":9821:9960   */\n      swap1\n      pop\n        /* \"#utility.yul\":9548:9967   */\n      swap2\n      swap1\n      pop\n      jump\t// out\n        /* \"#utility.yul\":9973:10149   */\n    tag_95:\n        /* \"#utility.yul\":10113:10141   */\n      0x5768696368206b696e6420616464726573732062652074686973000000000000\n        /* \"#utility.yul\":10109:10110   */\n      0x00\n        /* \"#utility.yul\":10101:10107   */\n      dup3\n        /* \"#utility.yul\":10097:10111   */\n      add\n        /* \"#utility.yul\":10090:10142   */\n      mstore\n        /* \"#utility.yul\":9973:10149   */\n      pop\n      jump\t// out\n        /* \"#utility.yul\":10155:10521   */\n    tag_96:\n        /* \"#utility.yul\":10297:10300   */\n      0x00\n        /* \"#utility.yul\":10318:10385   */\n      tag_224\n        /* \"#utility.yul\":10382:10384   */\n      0x1a\n        /* \"#utility.yul\":10377:10380   */\n      dup4\n        /* \"#utility.yul\":10318:10385   */\n      tag_72\n      jump\t// in\n    tag_224:\n        /* \"#utility.yul\":10311:10385   */\n      swap2\n      pop\n        /* \"#utility.yul\":10394:10487   */\n      tag_225\n        /* \"#utility.yul\":10483:10486   */\n      dup3\n        /* \"#utility.yul\":10394:10487   */\n      tag_95\n      jump\t// in\n    tag_225:\n        /* \"#utility.yul\":10512:10514   */\n      0x20\n        /* \"#utility.yul\":10507:10510   */\n      dup3\n        /* \"#utility.yul\":10503:10515   */\n      add\n        /* \"#utility.yul\":10496:10515   */\n      swap1\n      pop\n        /* \"#utility.yul\":10155:10521   */\n      swap2\n      swap1\n      pop\n      jump\t// out\n        /* \"#utility.yul\":10527:10946   */\n    tag_38:\n        /* \"#utility.yul\":10693:10697   */\n      0x00\n        /* \"#utility.yul\":10731:10733   */\n      0x20\n        /* \"#utility.yul\":10720:10729   */\n      dup3\n        /* \"#utility.yul\":10716:10734   */\n      add\n        /* \"#utility.yul\":10708:10734   */\n      swap1\n      pop\n        /* \"#utility.yul\":10780:10789   */\n      dup2\n        /* \"#utility.yul\":10774:10778   */\n      dup2\n        /* \"#utility.yul\":10770:10790   */\n      sub\n        /* \"#utility.yul\":10766:10767   */\n      0x00\n        /* \"#utility.yul\":10755:10764   */\n      dup4\n        /* \"#utility.yul\":10751:10768   */\n      add\n        /* \"#utility.yul\":10744:10791   */\n      mstore\n        /* \"#utility.yul\":10808:10939   */\n      tag_227\n        /* \"#utility.yul\":10934:10938   */\n      dup2\n        /* \"#utility.yul\":10808:10939   */\n      tag_96\n      jump\t// in\n    tag_227:\n        /* \"#utility.yul\":10800:10939   */\n      swap1\n      pop\n        /* \"#utility.yul\":10527:10946   */\n      swap2\n      swap1\n      pop\n      jump\t// out\n        /* \"#utility.yul\":10952:11127   */\n    tag_97:\n        /* \"#utility.yul\":11092:11119   */\n      0x596f75722063616d706169676e206e6f20676574206e616d6500000000000000\n        /* \"#utility.yul\":11088:11089   */\n      0x00\n        /* \"#utility.yul\":11080:11086   */\n      dup3\n        /* \"#utility.yul\":11076:11090   */\n      add\n        /* \"#utility.yul\":11069:11120   */\n      mstore\n        /* \"#utility.yul\":10952:11127   */\n      pop\n      jump\t// out\n        /* \"#utility.yul\":11133:11499   */\n    tag_98:\n        /* \"#utility.yul\":11275:11278   */\n      0x00\n        /* \"#utility.yul\":11296:11363   */\n      tag_230\n        /* \"#utility.yul\":11360:11362   */\n      0x19\n        /* \"#utility.yul\":11355:11358   */\n      dup4\n        /* \"#utility.yul\":11296:11363   */\n      tag_72\n      jump\t// in\n    tag_230:\n        /* \"#utility.yul\":11289:11363   */\n      swap2\n      pop\n        /* \"#utility.yul\":11372:11465   */\n      tag_231\n        /* \"#utility.yul\":11461:11464   */\n      dup3\n        /* \"#utility.yul\":11372:11465   */\n      tag_97\n      jump\t// in\n    tag_231:\n        /* \"#utility.yul\":11490:11492   */\n      0x20\n        /* \"#utility.yul\":11485:11488   */\n      dup3\n        /* \"#utility.yul\":11481:11493   */\n      add\n        /* \"#utility.yul\":11474:11493   */\n      swap1\n      pop\n        /* \"#utility.yul\":11133:11499   */\n      swap2\n      swap1\n      pop\n      jump\t// out\n        /* \"#utility.yul\":11505:11924   */\n    tag_41:\n        /* \"#utility.yul\":11671:11675   */\n      0x00\n        /* \"#utility.yul\":11709:11711   */\n      0x20\n        /* \"#utility.yul\":11698:11707   */\n      dup3\n        /* \"#utility.yul\":11694:11712   */\n      add\n        /* \"#utility.yul\":11686:11712   */\n      swap1\n      pop\n        /* \"#utility.yul\":11758:11767   */\n      dup2\n        /* \"#utility.yul\":11752:11756   */\n      dup2\n        /* \"#utility.yul\":11748:11768   */\n      sub\n        /* \"#utility.yul\":11744:11745   */\n      0x00\n        /* \"#utility.yul\":11733:11742   */\n      dup4\n        /* \"#utility.yul\":11729:11746   */\n      add\n        /* \"#utility.yul\":11722:11769   */\n      mstore\n        /* \"#utility.yul\":11786:11917   */\n      tag_233\n        /* \"#utility.yul\":11912:11916   */\n      dup2\n        /* \"#utility.yul\":11786:11917   */\n      tag_98\n      jump\t// in\n    tag_233:\n        /* \"#utility.yul\":11778:11917   */\n      swap1\n      pop\n        /* \"#utility.yul\":11505:11924   */\n      swap2\n      swap1\n      pop\n      jump\t// out\n        /* \"#utility.yul\":11930:12102   */\n    tag_99:\n        /* \"#utility.yul\":12070:12094   */\n      0x536865656520796f75206172652077697365206e6f7700000000000000000000\n        /* \"#utility.yul\":12066:12067   */\n      0x00\n        /* \"#utility.yul\":12058:12064   */\n      dup3\n        /* \"#utility.yul\":12054:12068   */\n      add\n        /* \"#utility.yul\":12047:12095   */\n      mstore\n        /* \"#utility.yul\":11930:12102   */\n      pop\n      jump\t// out\n        /* \"#utility.yul\":12108:12474   */\n    tag_100:\n        /* \"#utility.yul\":12250:12253   */\n      0x00\n        /* \"#utility.yul\":12271:12338   */\n      tag_236\n        /* \"#utility.yul\":12335:12337   */\n      0x16\n        /* \"#utility.yul\":12330:12333   */\n      dup4\n        /* \"#utility.yul\":12271:12338   */\n      tag_72\n      jump\t// in\n    tag_236:\n        /* \"#utility.yul\":12264:12338   */\n      swap2\n      pop\n        /* \"#utility.yul\":12347:12440   */\n      tag_237\n        /* \"#utility.yul\":12436:12439   */\n      dup3\n        /* \"#utility.yul\":12347:12440   */\n      tag_99\n      jump\t// in\n    tag_237:\n        /* \"#utility.yul\":12465:12467   */\n      0x20\n        /* \"#utility.yul\":12460:12463   */\n      dup3\n        /* \"#utility.yul\":12456:12468   */\n      add\n        /* \"#utility.yul\":12449:12468   */\n      swap1\n      pop\n        /* \"#utility.yul\":12108:12474   */\n      swap2\n      swap1\n      pop\n      jump\t// out\n        /* \"#utility.yul\":12480:12899   */\n    tag_44:\n        /* \"#utility.yul\":12646:12650   */\n      0x00\n        /* \"#utility.yul\":12684:12686   */\n      0x20\n        /* \"#utility.yul\":12673:12682   */\n      dup3\n        /* \"#utility.yul\":12669:12687   */\n      add\n        /* \"#utility.yul\":12661:12687   */\n      swap1\n      pop\n        /* \"#utility.yul\":12733:12742   */\n      dup2\n        /* \"#utility.yul\":12727:12731   */\n      dup2\n        /* \"#utility.yul\":12723:12743   */\n      sub\n        /* \"#utility.yul\":12719:12720   */\n      0x00\n        /* \"#utility.yul\":12708:12717   */\n      dup4\n        /* \"#utility.yul\":12704:12721   */\n      add\n        /* \"#utility.yul\":12697:12744   */\n      mstore\n        /* \"#utility.yul\":12761:12892   */\n      tag_239\n        /* \"#utility.yul\":12887:12891   */\n      dup2\n        /* \"#utility.yul\":12761:12892   */\n      tag_100\n      jump\t// in\n    tag_239:\n        /* \"#utility.yul\":12753:12892   */\n      swap1\n      pop\n        /* \"#utility.yul\":12480:12899   */\n      swap2\n      swap1\n      pop\n      jump\t// out\n        /* \"#utility.yul\":12905:13081   */\n    tag_101:\n        /* \"#utility.yul\":13045:13073   */\n      0x42727568682063616e20796f75206e6f7420646f20746861743f000000000000\n        /* \"#utility.yul\":13041:13042   */\n      0x00\n        /* \"#utility.yul\":13033:13039   */\n      dup3\n        /* \"#utility.yul\":13029:13043   */\n      add\n        /* \"#utility.yul\":13022:13074   */\n      mstore\n        /* \"#utility.yul\":12905:13081   */\n      pop\n      jump\t// out\n        /* \"#utility.yul\":13087:13453   */\n    tag_102:\n        /* \"#utility.yul\":13229:13232   */\n      0x00\n        /* \"#utility.yul\":13250:13317   */\n      tag_242\n        /* \"#utility.yul\":13314:13316   */\n      0x1a\n        /* \"#utility.yul\":13309:13312   */\n      dup4\n        /* \"#utility.yul\":13250:13317   */\n      tag_72\n      jump\t// in\n    tag_242:\n        /* \"#utility.yul\":13243:13317   */\n      swap2\n      pop\n        /* \"#utility.yul\":13326:13419   */\n      tag_243\n        /* \"#utility.yul\":13415:13418   */\n      dup3\n        /* \"#utility.yul\":13326:13419   */\n      tag_101\n      jump\t// in\n    tag_243:\n        /* \"#utility.yul\":13444:13446   */\n      0x20\n        /* \"#utility.yul\":13439:13442   */\n      dup3\n        /* \"#utility.yul\":13435:13447   */\n      add\n        /* \"#utility.yul\":13428:13447   */\n      swap1\n      pop\n        /* \"#utility.yul\":13087:13453   */\n      swap2\n      swap1\n      pop\n      jump\t// out\n        /* \"#utility.yul\":13459:13878   */\n    tag_47:\n        /* \"#utility.yul\":13625:13629   */\n      0x00\n        /* \"#utility.yul\":13663:13665   */\n      0x20\n        /* \"#utility.yul\":13652:13661   */\n      dup3\n        /* \"#utility.yul\":13648:13666   */\n      add\n        /* \"#utility.yul\":13640:13666   */\n      swap1\n      pop\n        /* \"#utility.yul\":13712:13721   */\n      dup2\n        /* \"#utility.yul\":13706:13710   */\n      dup2\n        /* \"#utility.yul\":13702:13722   */\n      sub\n        /* \"#utility.yul\":13698:13699   */\n      0x00\n        /* \"#utility.yul\":13687:13696   */\n      dup4\n        /* \"#utility.yul\":13683:13700   */\n      add\n        /* \"#utility.yul\":13676:13723   */\n      mstore\n        /* \"#utility.yul\":13740:13871   */\n      tag_245\n        /* \"#utility.yul\":13866:13870   */\n      dup2\n        /* \"#utility.yul\":13740:13871   */\n      tag_102\n      jump\t// in\n    tag_245:\n        /* \"#utility.yul\":13732:13871   */\n      swap1\n      pop\n        /* \"#utility.yul\":13459:13878   */\n      swap2\n      swap1\n      pop\n      jump\t// out\n        /* \"#utility.yul\":13884:14025   */\n    tag_103:\n        /* \"#utility.yul\":13933:13937   */\n      0x00\n        /* \"#utility.yul\":13956:13959   */\n      dup2\n        /* \"#utility.yul\":13948:13959   */\n      swap1\n      pop\n        /* \"#utility.yul\":13979:13982   */\n      dup2\n        /* \"#utility.yul\":13976:13977   */\n      0x00\n        /* \"#utility.yul\":13969:13983   */\n      mstore\n        /* \"#utility.yul\":14013:14017   */\n      0x20\n        /* \"#utility.yul\":14010:14011   */\n      0x00\n        /* \"#utility.yul\":14000:14018   */\n      keccak256\n        /* \"#utility.yul\":13992:14018   */\n      swap1\n      pop\n        /* \"#utility.yul\":13884:14025   */\n      swap2\n      swap1\n      pop\n      jump\t// out\n        /* \"#utility.yul\":14031:14124   */\n    tag_104:\n        /* \"#utility.yul\":14068:14074   */\n      0x00\n        /* \"#utility.yul\":14115:14117   */\n      0x20\n        /* \"#utility.yul\":14110:14112   */\n      0x1f\n        /* \"#utility.yul\":14103:14108   */\n      dup4\n        /* \"#utility.yul\":14099:14113   */\n      add\n        /* \"#utility.yul\":14095:14118   */\n      div\n        /* \"#utility.yul\":14085:14118   */\n      swap1\n      pop\n        /* \"#utility.yul\":14031:14124   */\n      swap2\n      swap1\n      pop\n      jump\t// out\n        /* \"#utility.yul\":14130:14237   */\n    tag_105:\n        /* \"#utility.yul\":14174:14182   */\n      0x00\n        /* \"#utility.yul\":14224:14229   */\n      dup3\n        /* \"#utility.yul\":14218:14222   */\n      dup3\n        /* \"#utility.yul\":14214:14230   */\n      shl\n        /* \"#utility.yul\":14193:14230   */\n      swap1\n      pop\n        /* \"#utility.yul\":14130:14237   */\n      swap3\n      swap2\n      pop\n      pop\n      jump\t// out\n        /* \"#utility.yul\":14243:14636   */\n    tag_106:\n        /* \"#utility.yul\":14312:14318   */\n      0x00\n        /* \"#utility.yul\":14362:14363   */\n      0x08\n        /* \"#utility.yul\":14350:14360   */\n      dup4\n        /* \"#utility.yul\":14346:14364   */\n      mul\n        /* \"#utility.yul\":14385:14482   */\n      tag_250\n        /* \"#utility.yul\":14415:14481   */\n      0xffffffffffffffffffffffffffffffffffffffffffffffffffffffffffffffff\n        /* \"#utility.yul\":14404:14413   */\n      dup3\n        /* \"#utility.yul\":14385:14482   */\n      tag_105\n      jump\t// in\n    tag_250:\n        /* \"#utility.yul\":14503:14542   */\n      tag_251\n        /* \"#utility.yul\":14533:14541   */\n      dup7\n        /* \"#utility.yul\":14522:14531   */\n      dup4\n        /* \"#utility.yul\":14503:14542   */\n      tag_105\n      jump\t// in\n    tag_251:\n        /* \"#utility.yul\":14491:14542   */\n      swap6\n      pop\n        /* \"#utility.yul\":14575:14579   */\n      dup1\n        /* \"#utility.yul\":14571:14580   */\n      not\n        /* \"#utility.yul\":14564:14569   */\n      dup5\n        /* \"#utility.yul\":14560:14581   */\n      and\n        /* \"#utility.yul\":14551:14581   */\n      swap4\n      pop\n        /* \"#utility.yul\":14624:14628   */\n      dup1\n        /* \"#utility.yul\":14614:14622   */\n      dup7\n        /* \"#utility.yul\":14610:14629   */\n      and\n        /* \"#utility.yul\":14603:14608   */\n      dup5\n        /* \"#utility.yul\":14600:14630   */\n      or\n        /* \"#utility.yul\":14590:14630   */\n      swap3\n      pop\n        /* \"#utility.yul\":14319:14636   */\n      pop\n      pop\n        /* \"#utility.yul\":14243:14636   */\n      swap4\n      swap3\n      pop\n      pop\n      pop\n      jump\t// out\n        /* \"#utility.yul\":14642:14702   */\n    tag_107:\n        /* \"#utility.yul\":14670:14673   */\n      0x00\n        /* \"#utility.yul\":14691:14696   */\n      dup2\n        /* \"#utility.yul\":14684:14696   */\n      swap1\n      pop\n        /* \"#utility.yul\":14642:14702   */\n      swap2\n      swap1\n      pop\n      jump\t// out\n        /* \"#utility.yul\":14708:14850   */\n    tag_108:\n        /* \"#utility.yul\":14758:14767   */\n      0x00\n        /* \"#utility.yul\":14791:14844   */\n      tag_254\n        /* \"#utility.yul\":14809:14843   */\n      tag_255\n        /* \"#utility.yul\":14818:14842   */\n      tag_256\n        /* \"#utility.yul\":14836:14841   */\n      dup5\n        /* \"#utility.yul\":14818:14842   */\n      tag_65\n      jump\t// in\n    tag_256:\n        /* \"#utility.yul\":14809:14843   */\n      tag_107\n      jump\t// in\n    tag_255:\n        /* \"#utility.yul\":14791:14844   */\n      tag_65\n      jump\t// in\n    tag_254:\n        /* \"#utility.yul\":14778:14844   */\n      swap1\n      pop\n        /* \"#utility.yul\":14708:14850   */\n      swap2\n      swap1\n      pop\n      jump\t// out\n        /* \"#utility.yul\":14856:14931   */\n    tag_109:\n        /* \"#utility.yul\":14899:14902   */\n      0x00\n        /* \"#utility.yul\":14920:14925   */\n      dup2\n        /* \"#utility.yul\":14913:14925   */\n      swap1\n      pop\n        /* \"#utility.yul\":14856:14931   */\n      swap2\n      swap1\n      pop\n      jump\t// out\n        /* \"#utility.yul\":14937:15206   */\n    tag_110:\n        /* \"#utility.yul\":15047:15086   */\n      tag_259\n        /* \"#utility.yul\":15078:15085   */\n      dup4\n        /* \"#utility.yul\":15047:15086   */\n      tag_108\n      jump\t// in\n    tag_259:\n        /* \"#utility.yul\":15108:15199   */\n      tag_260\n        /* \"#utility.yul\":15157:15198   */\n      tag_261\n        /* \"#utility.yul\":15181:15197   */\n      dup3\n        /* \"#utility.yul\":15157:15198   */\n      tag_109\n      jump\t// in\n    tag_261:\n        /* \"#utility.yul\":15149:15155   */\n      dup5\n        /* \"#utility.yul\":15142:15146   */\n      dup5\n        /* \"#utility.yul\":15136:15147   */\n      sload\n        /* \"#utility.yul\":15108:15199   */\n      tag_106\n      jump\t// in\n    tag_260:\n        /* \"#utility.yul\":15102:15106   */\n      dup3\n        /* \"#utility.yul\":15095:15200   */\n      sstore\n        /* \"#utility.yul\":15013:15206   */\n      pop\n        /* \"#utility.yul\":14937:15206   */\n      pop\n      pop\n      pop\n      jump\t// out\n        /* \"#utility.yul\":15212:15285   */\n    tag_111:\n        /* \"#utility.yul\":15257:15260   */\n      0x00\n        /* \"#utility.yul\":15212:15285   */\n      swap1\n      jump\t// out\n        /* \"#utility.yul\":15291:15480   */\n    tag_112:\n        /* \"#utility.yul\":15368:15400   */\n      tag_264\n      tag_111\n      jump\t// in\n    tag_264:\n        /* \"#utility.yul\":15409:15474   */\n      tag_265\n        /* \"#utility.yul\":15467:15473   */\n      dup2\n        /* \"#utility.yul\":15459:15465   */\n      dup5\n        /* \"#utility.yul\":15453:15457   */\n      dup5\n        /* \"#utility.yul\":15409:15474   */\n      tag_110\n      jump\t// in\n    tag_265:\n        /* \"#utility.yul\":15344:15480   */\n      pop\n        /* \"#utility.yul\":15291:15480   */\n      pop\n      pop\n      jump\t// out\n        /* \"#utility.yul\":15486:15672   */\n    tag_113:\n        /* \"#utility.yul\":15546:15666   */\n    tag_267:\n        /* \"#utility.yul\":15563:15566   */\n      dup2\n        /* \"#utility.yul\":15556:15561   */\n      dup2\n        /* \"#utility.yul\":15553:15567   */\n      lt\n        /* \"#utility.yul\":15546:15666   */\n      iszero\n      tag_269\n      jumpi\n        /* \"#utility.yul\":15617:15656   */\n      tag_270\n        /* \"#utility.yul\":15654:15655   */\n      0x00\n        /* \"#utility.yul\":15647:15652   */\n      dup3\n        /* \"#utility.yul\":15617:15656   */\n      tag_112\n      jump\t// in\n    tag_270:\n        /* \"#utility.yul\":15590:15591   */\n      0x01\n        /* \"#utility.yul\":15583:15588   */\n      dup2\n        /* \"#utility.yul\":15579:15592   */\n      add\n        /* \"#utility.yul\":15570:15592   */\n      swap1\n      pop\n        /* \"#utility.yul\":15546:15666   */\n      jump(tag_267)\n    tag_269:\n        /* \"#utility.yul\":15486:15672   */\n      pop\n      pop\n      jump\t// out\n        /* \"#utility.yul\":15678:16221   */\n    tag_114:\n        /* \"#utility.yul\":15779:15781   */\n      0x1f\n        /* \"#utility.yul\":15774:15777   */\n      dup3\n        /* \"#utility.yul\":15771:15782   */\n      gt\n        /* \"#utility.yul\":15768:16214   */\n      iszero\n      tag_272\n      jumpi\n        /* \"#utility.yul\":15813:15851   */\n      tag_273\n        /* \"#utility.yul\":15845:15850   */\n      dup2\n        /* \"#utility.yul\":15813:15851   */\n      tag_103\n      jump\t// in\n    tag_273:\n        /* \"#utility.yul\":15897:15926   */\n      tag_274\n        /* \"#utility.yul\":15915:15925   */\n      dup5\n        /* \"#utility.yul\":15897:15926   */\n      tag_104\n      jump\t// in\n    tag_274:\n        /* \"#utility.yul\":15887:15895   */\n      dup2\n        /* \"#utility.yul\":15883:15927   */\n      add\n        /* \"#utility.yul\":16080:16082   */\n      0x20\n        /* \"#utility.yul\":16068:16078   */\n      dup6\n        /* \"#utility.yul\":16065:16083   */\n      lt\n        /* \"#utility.yul\":16062:16111   */\n      iszero\n      tag_275\n      jumpi\n        /* \"#utility.yul\":16101:16109   */\n      dup2\n        /* \"#utility.yul\":16086:16109   */\n      swap1\n      pop\n        /* \"#utility.yul\":16062:16111   */\n    tag_275:\n        /* \"#utility.yul\":16124:16204   */\n      tag_276\n        /* \"#utility.yul\":16180:16202   */\n      tag_277\n        /* \"#utility.yul\":16198:16201   */\n      dup6\n        /* \"#utility.yul\":16180:16202   */\n      tag_104\n      jump\t// in\n    tag_277:\n        /* \"#utility.yul\":16170:16178   */\n      dup4\n        /* \"#utility.yul\":16166:16203   */\n      add\n        /* \"#utility.yul\":16153:16164   */\n      dup3\n        /* \"#utility.yul\":16124:16204   */\n      tag_113\n      jump\t// in\n    tag_276:\n        /* \"#utility.yul\":15783:16214   */\n      pop\n      pop\n        /* \"#utility.yul\":15768:16214   */\n    tag_272:\n        /* \"#utility.yul\":15678:16221   */\n      pop\n      pop\n      pop\n      jump\t// out\n        /* \"#utility.yul\":16227:16344   */\n    tag_115:\n        /* \"#utility.yul\":16281:16289   */\n      0x00\n        /* \"#utility.yul\":16331:16336   */\n      dup3\n        /* \"#utility.yul\":16325:16329   */\n      dup3\n        /* \"#utility.yul\":16321:16337   */\n      shr\n        /* \"#utility.yul\":16300:16337   */\n      swap1\n      pop\n        /* \"#utility.yul\":16227:16344   */\n      swap3\n      swap2\n      pop\n      pop\n      jump\t// out\n        /* \"#utility.yul\":16350:16519   */\n    tag_116:\n        /* \"#utility.yul\":16394:16400   */\n      0x00\n        /* \"#utility.yul\":16427:16478   */\n      tag_280\n        /* \"#utility.yul\":16475:16476   */\n      0x00\n        /* \"#utility.yul\":16471:16477   */\n      not\n        /* \"#utility.yul\":16463:16468   */\n      dup5\n        /* \"#utility.yul\":16460:16461   */\n      0x08\n        /* \"#utility.yul\":16456:16469   */\n      mul\n        /* \"#utility.yul\":16427:16478   */\n      tag_115\n      jump\t// in\n    tag_280:\n        /* \"#utility.yul\":16423:16479   */\n      not\n        /* \"#utility.yul\":16508:16512   */\n      dup1\n        /* \"#utility.yul\":16502:16506   */\n      dup4\n        /* \"#utility.yul\":16498:16513   */\n      and\n        /* \"#utility.yul\":16488:16513   */\n      swap2\n      pop\n        /* \"#utility.yul\":16401:16519   */\n      pop\n        /* \"#utility.yul\":16350:16519   */\n      swap3\n      swap2\n      pop\n      pop\n      jump\t// out\n        /* \"#utility.yul\":16524:16819   */\n    tag_117:\n        /* \"#utility.yul\":16600:16604   */\n      0x00\n        /* \"#utility.yul\":16746:16775   */\n      tag_282\n        /* \"#utility.yul\":16771:16774   */\n      dup4\n        /* \"#utility.yul\":16765:16769   */\n      dup4\n        /* \"#utility.yul\":16746:16775   */\n      tag_116\n      jump\t// in\n    tag_282:\n        /* \"#utility.yul\":16738:16775   */\n      swap2\n      pop\n        /* \"#utility.yul\":16808:16811   */\n      dup3\n        /* \"#utility.yul\":16805:16806   */\n      0x02\n        /* \"#utility.yul\":16801:16812   */\n      mul\n        /* \"#utility.yul\":16795:16799   */\n      dup3\n        /* \"#utility.yul\":16792:16813   */\n      or\n        /* \"#utility.yul\":16784:16813   */\n      swap1\n      pop\n        /* \"#utility.yul\":16524:16819   */\n      swap3\n      swap2\n      pop\n      pop\n      jump\t// out\n        /* \"#utility.yul\":16824:18219   */\n    tag_56:\n        /* \"#utility.yul\":16941:16978   */\n      tag_284\n        /* \"#utility.yul\":16974:16977   */\n      dup3\n        /* \"#utility.yul\":16941:16978   */\n      tag_71\n      jump\t// in\n    tag_284:\n        /* \"#utility.yul\":17043:17061   */\n      0xffffffffffffffff\n        /* \"#utility.yul\":17035:17041   */\n      dup2\n        /* \"#utility.yul\":17032:17062   */\n      gt\n        /* \"#utility.yul\":17029:17085   */\n      iszero\n      tag_285\n      jumpi\n        /* \"#utility.yul\":17065:17083   */\n      tag_286\n      tag_83\n      jump\t// in\n    tag_286:\n        /* \"#utility.yul\":17029:17085   */\n    tag_285:\n        /* \"#utility.yul\":17109:17147   */\n      tag_287\n        /* \"#utility.yul\":17141:17145   */\n      dup3\n        /* \"#utility.yul\":17135:17146   */\n      sload\n        /* \"#utility.yul\":17109:17147   */\n      tag_24\n      jump\t// in\n    tag_287:\n        /* \"#utility.yul\":17194:17261   */\n      tag_288\n        /* \"#utility.yul\":17254:17260   */\n      dup3\n        /* \"#utility.yul\":17246:17252   */\n      dup3\n        /* \"#utility.yul\":17240:17244   */\n      dup6\n        /* \"#utility.yul\":17194:17261   */\n      tag_114\n      jump\t// in\n    tag_288:\n        /* \"#utility.yul\":17288:17289   */\n      0x00\n        /* \"#utility.yul\":17312:17316   */\n      0x20\n        /* \"#utility.yul\":17299:17316   */\n      swap1\n      pop\n        /* \"#utility.yul\":17344:17346   */\n      0x1f\n        /* \"#utility.yul\":17336:17342   */\n      dup4\n        /* \"#utility.yul\":17333:17347   */\n      gt\n        /* \"#utility.yul\":17361:17362   */\n      0x01\n        /* \"#utility.yul\":17356:17974   */\n      dup2\n      eq\n      tag_290\n      jumpi\n        /* \"#utility.yul\":18018:18019   */\n      0x00\n        /* \"#utility.yul\":18035:18041   */\n      dup5\n        /* \"#utility.yul\":18032:18109   */\n      iszero\n      tag_291\n      jumpi\n        /* \"#utility.yul\":18084:18093   */\n      dup3\n        /* \"#utility.yul\":18079:18082   */\n      dup8\n        /* \"#utility.yul\":18075:18094   */\n      add\n        /* \"#utility.yul\":18069:18095   */\n      mload\n        /* \"#utility.yul\":18060:18095   */\n      swap1\n      pop\n        /* \"#utility.yul\":18032:18109   */\n    tag_291:\n        /* \"#utility.yul\":18135:18202   */\n      tag_292\n        /* \"#utility.yul\":18195:18201   */\n      dup6\n        /* \"#utility.yul\":18188:18193   */\n      dup3\n        /* \"#utility.yul\":18135:18202   */\n      tag_117\n      jump\t// in\n    tag_292:\n        /* \"#utility.yul\":18129:18133   */\n      dup7\n        /* \"#utility.yul\":18122:18203   */\n      sstore\n        /* \"#utility.yul\":17991:18213   */\n      pop\n        /* \"#utility.yul\":17326:18213   */\n      jump(tag_289)\n        /* \"#utility.yul\":17356:17974   */\n    tag_290:\n        /* \"#utility.yul\":17408:17412   */\n      0x1f\n        /* \"#utility.yul\":17404:17413   */\n      not\n        /* \"#utility.yul\":17396:17402   */\n      dup5\n        /* \"#utility.yul\":17392:17414   */\n      and\n        /* \"#utility.yul\":17442:17479   */\n      tag_293\n        /* \"#utility.yul\":17474:17478   */\n      dup7\n        /* \"#utility.yul\":17442:17479   */\n      tag_103\n      jump\t// in\n    tag_293:\n        /* \"#utility.yul\":17501:17502   */\n      0x00\n        /* \"#utility.yul\":17515:17723   */\n    tag_294:\n        /* \"#utility.yul\":17529:17536   */\n      dup3\n        /* \"#utility.yul\":17526:17527   */\n      dup2\n        /* \"#utility.yul\":17523:17537   */\n      lt\n        /* \"#utility.yul\":17515:17723   */\n      iszero\n      tag_296\n      jumpi\n        /* \"#utility.yul\":17608:17617   */\n      dup5\n        /* \"#utility.yul\":17603:17606   */\n      dup10\n        /* \"#utility.yul\":17599:17618   */\n      add\n        /* \"#utility.yul\":17593:17619   */\n      mload\n        /* \"#utility.yul\":17585:17591   */\n      dup3\n        /* \"#utility.yul\":17578:17620   */\n      sstore\n        /* \"#utility.yul\":17659:17660   */\n      0x01\n        /* \"#utility.yul\":17651:17657   */\n      dup3\n        /* \"#utility.yul\":17647:17661   */\n      add\n        /* \"#utility.yul\":17637:17661   */\n      swap2\n      pop\n        /* \"#utility.yul\":17706:17708   */\n      0x20\n        /* \"#utility.yul\":17695:17704   */\n      dup6\n        /* \"#utility.yul\":17691:17709   */\n      add\n        /* \"#utility.yul\":17678:17709   */\n      swap5\n      pop\n        /* \"#utility.yul\":17552:17556   */\n      0x20\n        /* \"#utility.yul\":17549:17550   */\n      dup2\n        /* \"#utility.yul\":17545:17557   */\n      add\n        /* \"#utility.yul\":17540:17557   */\n      swap1\n      pop\n        /* \"#utility.yul\":17515:17723   */\n      jump(tag_294)\n    tag_296:\n        /* \"#utility.yul\":17751:17757   */\n      dup7\n        /* \"#utility.yul\":17742:17749   */\n      dup4\n        /* \"#utility.yul\":17739:17758   */\n      lt\n        /* \"#utility.yul\":17736:17915   */\n      iszero\n      tag_297\n      jumpi\n        /* \"#utility.yul\":17809:17818   */\n      dup5\n        /* \"#utility.yul\":17804:17807   */\n      dup10\n        /* \"#utility.yul\":17800:17819   */\n      add\n        /* \"#utility.yul\":17794:17820   */\n      mload\n        /* \"#utility.yul\":17852:17900   */\n      tag_298\n        /* \"#utility.yul\":17894:17898   */\n      0x1f\n        /* \"#utility.yul\":17886:17892   */\n      dup10\n        /* \"#utility.yul\":17882:17899   */\n      and\n        /* \"#utility.yul\":17871:17880   */\n      dup3\n        /* \"#utility.yul\":17852:17900   */\n      tag_116\n      jump\t// in\n    tag_298:\n        /* \"#utility.yul\":17844:17850   */\n      dup4\n        /* \"#utility.yul\":17837:17901   */\n      sstore\n        /* \"#utility.yul\":17759:17915   */\n      pop\n        /* \"#utility.yul\":17736:17915   */\n    tag_297:\n        /* \"#utility.yul\":17961:17962   */\n      0x01\n        /* \"#utility.yul\":17957:17958   */\n      0x02\n        /* \"#utility.yul\":17949:17955   */\n      dup9\n        /* \"#utility.yul\":17945:17959   */\n      mul\n        /* \"#utility.yul\":17941:17963   */\n      add\n        /* \"#utility.yul\":17935:17939   */\n      dup9\n        /* \"#utility.yul\":17928:17964   */\n      sstore\n        /* \"#utility.yul\":17363:17974   */\n      pop\n      pop\n      pop\n        /* \"#utility.yul\":17326:18213   */\n    tag_289:\n      pop\n        /* \"#utility.yul\":16916:18219   */\n      pop\n      pop\n      pop\n        /* \"#utility.yul\":16824:18219   */\n      pop\n      pop\n      jump\t// out\n\n    auxdata: 0xa2646970667358221220458acfff14ab9f0665e70ff14924c444a2d35b5ba3165ba9191fa35d46aa4b8264736f6c634300081a0033\n}\n",
				"bytecode": {
					"linkReferences": {},
					"object": "6080604052348015600e575f80fd5b506111578061001c5f395ff3fe608060405234801561000f575f80fd5b506004361061003f575f3560e01c80634912c6581461004357806377bbc46414610079578063c50a40d014610095575b5f80fd5b61005d60048036038101906100589190610846565b6100cb565b6040516100709796959493929190610949565b60405180910390f35b610093600480360381019061008e9190610b13565b6101e7565b005b6100af60048036038101906100aa9190610b93565b6106dc565b6040516100c29796959493929190610949565b60405180910390f35b5f81815481106100d9575f80fd5b905f5260205f2090600702015f91509050805f015f9054906101000a900473ffffffffffffffffffffffffffffffffffffffff1690806001015f9054906101000a900473ffffffffffffffffffffffffffffffffffffffff169080600201805461014290610c07565b80601f016020809104026020016040519081016040528092919081815260200182805461016e90610c07565b80156101b95780601f10610190576101008083540402835291602001916101b9565b820191905f5260205f20905b81548152906001019060200180831161019c57829003601f168201915b505050505090806003015490806004015490806005015490806006015f9054906101000a900460ff16905087565b5f6001846040516101f89190610c71565b9081526020016040518091039020600201805461021490610c07565b905014610256576040517f08c379a000000000000000000000000000000000000000000000000000000000815260040161024d90610cf7565b60405180910390fd5b5f73ffffffffffffffffffffffffffffffffffffffff168473ffffffffffffffffffffffffffffffffffffffff16036102c4576040517f08c379a00000000000000000000000000000000000000000000000000000000081526004016102bb90610d5f565b60405180910390fd5b5f835111610307576040517f08c379a00000000000000000000000000000000000000000000000000000000081526004016102fe90610dc7565b60405180910390fd5b428211610349576040517f08c379a000000000000000000000000000000000000000000000000000000000815260040161034090610e2f565b60405180910390fd5b5f811161038b576040517f08c379a000000000000000000000000000000000000000000000000000000000815260040161038290610e97565b60405180910390fd5b5f60018460405161039c9190610c71565b90815260200160405180910390206040518060e00160405290815f82015f9054906101000a900473ffffffffffffffffffffffffffffffffffffffff1673ffffffffffffffffffffffffffffffffffffffff1673ffffffffffffffffffffffffffffffffffffffff168152602001600182015f9054906101000a900473ffffffffffffffffffffffffffffffffffffffff1673ffffffffffffffffffffffffffffffffffffffff1673ffffffffffffffffffffffffffffffffffffffff16815260200160028201805461046e90610c07565b80601f016020809104026020016040519081016040528092919081815260200182805461049a90610c07565b80156104e55780601f106104bc576101008083540402835291602001916104e5565b820191905f5260205f20905b8154815290600101906020018083116104c857829003601f168201915b50505050508152602001600382015481526020016004820154815260200160058201548152602001600682015f9054906101000a900460ff161515151581525050905033815f019073ffffffffffffffffffffffffffffffffffffffff16908173ffffffffffffffffffffffffffffffffffffffff168152505084816020019073ffffffffffffffffffffffffffffffffffffffff16908173ffffffffffffffffffffffffffffffffffffffff168152505083816040018190525082816060018181525050818160800181815250505f8160a00181815250505f8160c00190151590811515815250505f81908060018154018082558091505060019003905f5260205f2090600702015f909190919091505f820151815f015f6101000a81548173ffffffffffffffffffffffffffffffffffffffff021916908373ffffffffffffffffffffffffffffffffffffffff1602179055506020820151816001015f6101000a81548173ffffffffffffffffffffffffffffffffffffffff021916908373ffffffffffffffffffffffffffffffffffffffff16021790555060408201518160020190816106959190611052565b50606082015181600301556080820151816004015560a0820151816005015560c0820151816006015f6101000a81548160ff02191690831515021790555050505050505050565b6001818051602081018201805184825260208301602085012081835280955050505050505f91509050805f015f9054906101000a900473ffffffffffffffffffffffffffffffffffffffff1690806001015f9054906101000a900473ffffffffffffffffffffffffffffffffffffffff169080600201805461075d90610c07565b80601f016020809104026020016040519081016040528092919081815260200182805461078990610c07565b80156107d45780601f106107ab576101008083540402835291602001916107d4565b820191905f5260205f20905b8154815290600101906020018083116107b757829003601f168201915b505050505090806003015490806004015490806005015490806006015f9054906101000a900460ff16905087565b5f604051905090565b5f80fd5b5f80fd5b5f819050919050565b61082581610813565b811461082f575f80fd5b50565b5f813590506108408161081c565b92915050565b5f6020828403121561085b5761085a61080b565b5b5f61086884828501610832565b91505092915050565b5f73ffffffffffffffffffffffffffffffffffffffff82169050919050565b5f61089a82610871565b9050919050565b6108aa81610890565b82525050565b5f81519050919050565b5f82825260208201905092915050565b8281835e5f83830152505050565b5f601f19601f8301169050919050565b5f6108f2826108b0565b6108fc81856108ba565b935061090c8185602086016108ca565b610915816108d8565b840191505092915050565b61092981610813565b82525050565b5f8115159050919050565b6109438161092f565b82525050565b5f60e08201905061095c5f83018a6108a1565b61096960208301896108a1565b818103604083015261097b81886108e8565b905061098a6060830187610920565b6109976080830186610920565b6109a460a0830185610920565b6109b160c083018461093a565b98975050505050505050565b6109c681610890565b81146109d0575f80fd5b50565b5f813590506109e1816109bd565b92915050565b5f80fd5b5f80fd5b7f4e487b71000000000000000000000000000000000000000000000000000000005f52604160045260245ffd5b610a25826108d8565b810181811067ffffffffffffffff82111715610a4457610a436109ef565b5b80604052505050565b5f610a56610802565b9050610a628282610a1c565b919050565b5f67ffffffffffffffff821115610a8157610a806109ef565b5b610a8a826108d8565b9050602081019050919050565b828183375f83830152505050565b5f610ab7610ab284610a67565b610a4d565b905082815260208101848484011115610ad357610ad26109eb565b5b610ade848285610a97565b509392505050565b5f82601f830112610afa57610af96109e7565b5b8135610b0a848260208601610aa5565b91505092915050565b5f805f8060808587031215610b2b57610b2a61080b565b5b5f610b38878288016109d3565b945050602085013567ffffffffffffffff811115610b5957610b5861080f565b5b610b6587828801610ae6565b9350506040610b7687828801610832565b9250506060610b8787828801610832565b91505092959194509250565b5f60208284031215610ba857610ba761080b565b5b5f82013567ffffffffffffffff811115610bc557610bc461080f565b5b610bd184828501610ae6565b91505092915050565b7f4e487b71000000000000000000000000000000000000000000000000000000005f52602260045260245ffd5b5f6002820490506001821680610c1e57607f821691505b602082108103610c3157610c30610bda565b5b50919050565b5f81905092915050565b5f610c4b826108b0565b610c558185610c37565b9350610c658185602086016108ca565b80840191505092915050565b5f610c7c8284610c41565b915081905092915050565b7f43616d706169676e20776974682074686973207469746c6520616c72656164795f8201527f2065786973747300000000000000000000000000000000000000000000000000602082015250565b5f610ce16027836108ba565b9150610cec82610c87565b604082019050919050565b5f6020820190508181035f830152610d0e81610cd5565b9050919050565b7f5768696368206b696e64206164647265737320626520746869730000000000005f82015250565b5f610d49601a836108ba565b9150610d5482610d15565b602082019050919050565b5f6020820190508181035f830152610d7681610d3d565b9050919050565b7f596f75722063616d706169676e206e6f20676574206e616d65000000000000005f82015250565b5f610db16019836108ba565b9150610dbc82610d7d565b602082019050919050565b5f6020820190508181035f830152610dde81610da5565b9050919050565b7f536865656520796f75206172652077697365206e6f77000000000000000000005f82015250565b5f610e196016836108ba565b9150610e2482610de5565b602082019050919050565b5f6020820190508181035f830152610e4681610e0d565b9050919050565b7f42727568682063616e20796f75206e6f7420646f20746861743f0000000000005f82015250565b5f610e81601a836108ba565b9150610e8c82610e4d565b602082019050919050565b5f6020820190508181035f830152610eae81610e75565b9050919050565b5f819050815f5260205f209050919050565b5f6020601f8301049050919050565b5f82821b905092915050565b5f60088302610f117fffffffffffffffffffffffffffffffffffffffffffffffffffffffffffffffff82610ed6565b610f1b8683610ed6565b95508019841693508086168417925050509392505050565b5f819050919050565b5f610f56610f51610f4c84610813565b610f33565b610813565b9050919050565b5f819050919050565b610f6f83610f3c565b610f83610f7b82610f5d565b848454610ee2565b825550505050565b5f90565b610f97610f8b565b610fa2818484610f66565b505050565b5b81811015610fc557610fba5f82610f8f565b600181019050610fa8565b5050565b601f82111561100a57610fdb81610eb5565b610fe484610ec7565b81016020851015610ff3578190505b611007610fff85610ec7565b830182610fa7565b50505b505050565b5f82821c905092915050565b5f61102a5f198460080261100f565b1980831691505092915050565b5f611042838361101b565b9150826002028217905092915050565b61105b826108b0565b67ffffffffffffffff811115611074576110736109ef565b5b61107e8254610c07565b611089828285610fc9565b5f60209050601f8311600181146110ba575f84156110a8578287015190505b6110b28582611037565b865550611119565b601f1984166110c886610eb5565b5f5b828110156110ef578489015182556001820191506020850194506020810190506110ca565b8683101561110c5784890151611108601f89168261101b565b8355505b6001600288020188555050505b50505050505056fea2646970667358221220458acfff14ab9f0665e70ff14924c444a2d35b5ba3165ba9191fa35d46aa4b8264736f6c634300081a0033",
					"opcodes": "PUSH1 0x80 PUSH1 0x40 MSTORE CALLVALUE DUP1 ISZERO PUSH1 0xE JUMPI PUSH0 DUP1 REVERT JUMPDEST POP PUSH2 0x1157 DUP1 PUSH2 0x1C PUSH0 CODECOPY PUSH0 RETURN INVALID PUSH1 0x80 PUSH1 0x40 MSTORE CALLVALUE DUP1 ISZERO PUSH2 0xF JUMPI PUSH0 DUP1 REVERT JUMPDEST POP PUSH1 0x4 CALLDATASIZE LT PUSH2 0x3F JUMPI PUSH0 CALLDATALOAD PUSH1 0xE0 SHR DUP1 PUSH4 0x4912C658 EQ PUSH2 0x43 JUMPI DUP1 PUSH4 0x77BBC464 EQ PUSH2 0x79 JUMPI DUP1 PUSH4 0xC50A40D0 EQ PUSH2 0x95 JUMPI JUMPDEST PUSH0 DUP1 REVERT JUMPDEST PUSH2 0x5D PUSH1 0x4 DUP1 CALLDATASIZE SUB DUP2 ADD SWAP1 PUSH2 0x58 SWAP2 SWAP1 PUSH2 0x846 JUMP JUMPDEST PUSH2 0xCB JUMP JUMPDEST PUSH1 0x40 MLOAD PUSH2 0x70 SWAP8 SWAP7 SWAP6 SWAP5 SWAP4 SWAP3 SWAP2 SWAP1 PUSH2 0x949 JUMP JUMPDEST PUSH1 0x40 MLOAD DUP1 SWAP2 SUB SWAP1 RETURN JUMPDEST PUSH2 0x93 PUSH1 0x4 DUP1 CALLDATASIZE SUB DUP2 ADD SWAP1 PUSH2 0x8E SWAP2 SWAP1 PUSH2 0xB13 JUMP JUMPDEST PUSH2 0x1E7 JUMP JUMPDEST STOP JUMPDEST PUSH2 0xAF PUSH1 0x4 DUP1 CALLDATASIZE SUB DUP2 ADD SWAP1 PUSH2 0xAA SWAP2 SWAP1 PUSH2 0xB93 JUMP JUMPDEST PUSH2 0x6DC JUMP JUMPDEST PUSH1 0x40 MLOAD PUSH2 0xC2 SWAP8 SWAP7 SWAP6 SWAP5 SWAP4 SWAP3 SWAP2 SWAP1 PUSH2 0x949 JUMP JUMPDEST PUSH1 0x40 MLOAD DUP1 SWAP2 SUB SWAP1 RETURN JUMPDEST PUSH0 DUP2 DUP2 SLOAD DUP2 LT PUSH2 0xD9 JUMPI PUSH0 DUP1 REVERT JUMPDEST SWAP1 PUSH0 MSTORE PUSH1 0x20 PUSH0 KECCAK256 SWAP1 PUSH1 0x7 MUL ADD PUSH0 SWAP2 POP SWAP1 POP DUP1 PUSH0 ADD PUSH0 SWAP1 SLOAD SWAP1 PUSH2 0x100 EXP SWAP1 DIV PUSH20 0xFFFFFFFFFFFFFFFFFFFFFFFFFFFFFFFFFFFFFFFF AND SWAP1 DUP1 PUSH1 0x1 ADD PUSH0 SWAP1 SLOAD SWAP1 PUSH2 0x100 EXP SWAP1 DIV PUSH20 0xFFFFFFFFFFFFFFFFFFFFFFFFFFFFFFFFFFFFFFFF AND SWAP1 DUP1 PUSH1 0x2 ADD DUP1 SLOAD PUSH2 0x142 SWAP1 PUSH2 0xC07 JUMP JUMPDEST DUP1 PUSH1 0x1F ADD PUSH1 0x20 DUP1 SWAP2 DIV MUL PUSH1 0x20 ADD PUSH1 0x40 MLOAD SWAP1 DUP2 ADD PUSH1 0x40 MSTORE DUP1 SWAP3 SWAP2 SWAP1 DUP2 DUP2 MSTORE PUSH1 0x20 ADD DUP3 DUP1 SLOAD PUSH2 0x16E SWAP1 PUSH2 0xC07 JUMP JUMPDEST DUP1 ISZERO PUSH2 0x1B9 JUMPI DUP1 PUSH1 0x1F LT PUSH2 0x190 JUMPI PUSH2 0x100 DUP1 DUP4 SLOAD DIV MUL DUP4 MSTORE SWAP2 PUSH1 0x20 ADD SWAP2 PUSH2 0x1B9 JUMP JUMPDEST DUP3 ADD SWAP2 SWAP1 PUSH0 MSTORE PUSH1 0x20 PUSH0 KECCAK256 SWAP1 JUMPDEST DUP2 SLOAD DUP2 MSTORE SWAP1 PUSH1 0x1 ADD SWAP1 PUSH1 0x20 ADD DUP1 DUP4 GT PUSH2 0x19C JUMPI DUP3 SWAP1 SUB PUSH1 0x1F AND DUP3 ADD SWAP2 JUMPDEST POP POP POP POP POP SWAP1 DUP1 PUSH1 0x3 ADD SLOAD SWAP1 DUP1 PUSH1 0x4 ADD SLOAD SWAP1 DUP1 PUSH1 0x5 ADD SLOAD SWAP1 DUP1 PUSH1 0x6 ADD PUSH0 SWAP1 SLOAD SWAP1 PUSH2 0x100 EXP SWAP1 DIV PUSH1 0xFF AND SWAP1 POP DUP8 JUMP JUMPDEST PUSH0 PUSH1 0x1 DUP5 PUSH1 0x40 MLOAD PUSH2 0x1F8 SWAP2 SWAP1 PUSH2 0xC71 JUMP JUMPDEST SWAP1 DUP2 MSTORE PUSH1 0x20 ADD PUSH1 0x40 MLOAD DUP1 SWAP2 SUB SWAP1 KECCAK256 PUSH1 0x2 ADD DUP1 SLOAD PUSH2 0x214 SWAP1 PUSH2 0xC07 JUMP JUMPDEST SWAP1 POP EQ PUSH2 0x256 JUMPI PUSH1 0x40 MLOAD PUSH32 0x8C379A000000000000000000000000000000000000000000000000000000000 DUP2 MSTORE PUSH1 0x4 ADD PUSH2 0x24D SWAP1 PUSH2 0xCF7 JUMP JUMPDEST PUSH1 0x40 MLOAD DUP1 SWAP2 SUB SWAP1 REVERT JUMPDEST PUSH0 PUSH20 0xFFFFFFFFFFFFFFFFFFFFFFFFFFFFFFFFFFFFFFFF AND DUP5 PUSH20 0xFFFFFFFFFFFFFFFFFFFFFFFFFFFFFFFFFFFFFFFF AND SUB PUSH2 0x2C4 JUMPI PUSH1 0x40 MLOAD PUSH32 0x8C379A000000000000000000000000000000000000000000000000000000000 DUP2 MSTORE PUSH1 0x4 ADD PUSH2 0x2BB SWAP1 PUSH2 0xD5F JUMP JUMPDEST PUSH1 0x40 MLOAD DUP1 SWAP2 SUB SWAP1 REVERT JUMPDEST PUSH0 DUP4 MLOAD GT PUSH2 0x307 JUMPI PUSH1 0x40 MLOAD PUSH32 0x8C379A000000000000000000000000000000000000000000000000000000000 DUP2 MSTORE PUSH1 0x4 ADD PUSH2 0x2FE SWAP1 PUSH2 0xDC7 JUMP JUMPDEST PUSH1 0x40 MLOAD DUP1 SWAP2 SUB SWAP1 REVERT JUMPDEST TIMESTAMP DUP3 GT PUSH2 0x349 JUMPI PUSH1 0x40 MLOAD PUSH32 0x8C379A000000000000000000000000000000000000000000000000000000000 DUP2 MSTORE PUSH1 0x4 ADD PUSH2 0x340 SWAP1 PUSH2 0xE2F JUMP JUMPDEST PUSH1 0x40 MLOAD DUP1 SWAP2 SUB SWAP1 REVERT JUMPDEST PUSH0 DUP2 GT PUSH2 0x38B JUMPI PUSH1 0x40 MLOAD PUSH32 0x8C379A000000000000000000000000000000000000000000000000000000000 DUP2 MSTORE PUSH1 0x4 ADD PUSH2 0x382 SWAP1 PUSH2 0xE97 JUMP JUMPDEST PUSH1 0x40 MLOAD DUP1 SWAP2 SUB SWAP1 REVERT JUMPDEST PUSH0 PUSH1 0x1 DUP5 PUSH1 0x40 MLOAD PUSH2 0x39C SWAP2 SWAP1 PUSH2 0xC71 JUMP JUMPDEST SWAP1 DUP2 MSTORE PUSH1 0x20 ADD PUSH1 0x40 MLOAD DUP1 SWAP2 SUB SWAP1 KECCAK256 PUSH1 0x40 MLOAD DUP1 PUSH1 0xE0 ADD PUSH1 0x40 MSTORE SWAP1 DUP2 PUSH0 DUP3 ADD PUSH0 SWAP1 SLOAD SWAP1 PUSH2 0x100 EXP SWAP1 DIV PUSH20 0xFFFFFFFFFFFFFFFFFFFFFFFFFFFFFFFFFFFFFFFF AND PUSH20 0xFFFFFFFFFFFFFFFFFFFFFFFFFFFFFFFFFFFFFFFF AND PUSH20 0xFFFFFFFFFFFFFFFFFFFFFFFFFFFFFFFFFFFFFFFF AND DUP2 MSTORE PUSH1 0x20 ADD PUSH1 0x1 DUP3 ADD PUSH0 SWAP1 SLOAD SWAP1 PUSH2 0x100 EXP SWAP1 DIV PUSH20 0xFFFFFFFFFFFFFFFFFFFFFFFFFFFFFFFFFFFFFFFF AND PUSH20 0xFFFFFFFFFFFFFFFFFFFFFFFFFFFFFFFFFFFFFFFF AND PUSH20 0xFFFFFFFFFFFFFFFFFFFFFFFFFFFFFFFFFFFFFFFF AND DUP2 MSTORE PUSH1 0x20 ADD PUSH1 0x2 DUP3 ADD DUP1 SLOAD PUSH2 0x46E SWAP1 PUSH2 0xC07 JUMP JUMPDEST DUP1 PUSH1 0x1F ADD PUSH1 0x20 DUP1 SWAP2 DIV MUL PUSH1 0x20 ADD PUSH1 0x40 MLOAD SWAP1 DUP2 ADD PUSH1 0x40 MSTORE DUP1 SWAP3 SWAP2 SWAP1 DUP2 DUP2 MSTORE PUSH1 0x20 ADD DUP3 DUP1 SLOAD PUSH2 0x49A SWAP1 PUSH2 0xC07 JUMP JUMPDEST DUP1 ISZERO PUSH2 0x4E5 JUMPI DUP1 PUSH1 0x1F LT PUSH2 0x4BC JUMPI PUSH2 0x100 DUP1 DUP4 SLOAD DIV MUL DUP4 MSTORE SWAP2 PUSH1 0x20 ADD SWAP2 PUSH2 0x4E5 JUMP JUMPDEST DUP3 ADD SWAP2 SWAP1 PUSH0 MSTORE PUSH1 0x20 PUSH0 KECCAK256 SWAP1 JUMPDEST DUP2 SLOAD DUP2 MSTORE SWAP1 PUSH1 0x1 ADD SWAP1 PUSH1 0x20 ADD DUP1 DUP4 GT PUSH2 0x4C8 JUMPI DUP3 SWAP1 SUB PUSH1 0x1F AND DUP3 ADD SWAP2 JUMPDEST POP POP POP POP POP DUP2 MSTORE PUSH1 0x20 ADD PUSH1 0x3 DUP3 ADD SLOAD DUP2 MSTORE PUSH1 0x20 ADD PUSH1 0x4 DUP3 ADD SLOAD DUP2 MSTORE PUSH1 0x20 ADD PUSH1 0x5 DUP3 ADD SLOAD DUP2 MSTORE PUSH1 0x20 ADD PUSH1 0x6 DUP3 ADD PUSH0 SWAP1 SLOAD SWAP1 PUSH2 0x100 EXP SWAP1 DIV PUSH1 0xFF AND ISZERO ISZERO ISZERO ISZERO DUP2 MSTORE POP POP SWAP1 POP CALLER DUP2 PUSH0 ADD SWAP1 PUSH20 0xFFFFFFFFFFFFFFFFFFFFFFFFFFFFFFFFFFFFFFFF AND SWAP1 DUP2 PUSH20 0xFFFFFFFFFFFFFFFFFFFFFFFFFFFFFFFFFFFFFFFF AND DUP2 MSTORE POP POP DUP5 DUP2 PUSH1 0x20 ADD SWAP1 PUSH20 0xFFFFFFFFFFFFFFFFFFFFFFFFFFFFFFFFFFFFFFFF AND SWAP1 DUP2 PUSH20 0xFFFFFFFFFFFFFFFFFFFFFFFFFFFFFFFFFFFFFFFF AND DUP2 MSTORE POP POP DUP4 DUP2 PUSH1 0x40 ADD DUP2 SWAP1 MSTORE POP DUP3 DUP2 PUSH1 0x60 ADD DUP2 DUP2 MSTORE POP POP DUP2 DUP2 PUSH1 0x80 ADD DUP2 DUP2 MSTORE POP POP PUSH0 DUP2 PUSH1 0xA0 ADD DUP2 DUP2 MSTORE POP POP PUSH0 DUP2 PUSH1 0xC0 ADD SWAP1 ISZERO ISZERO SWAP1 DUP2 ISZERO ISZERO DUP2 MSTORE POP POP PUSH0 DUP2 SWAP1 DUP1 PUSH1 0x1 DUP2 SLOAD ADD DUP1 DUP3 SSTORE DUP1 SWAP2 POP POP PUSH1 0x1 SWAP1 SUB SWAP1 PUSH0 MSTORE PUSH1 0x20 PUSH0 KECCAK256 SWAP1 PUSH1 0x7 MUL ADD PUSH0 SWAP1 SWAP2 SWAP1 SWAP2 SWAP1 SWAP2 POP PUSH0 DUP3 ADD MLOAD DUP2 PUSH0 ADD PUSH0 PUSH2 0x100 EXP DUP2 SLOAD DUP2 PUSH20 0xFFFFFFFFFFFFFFFFFFFFFFFFFFFFFFFFFFFFFFFF MUL NOT AND SWAP1 DUP4 PUSH20 0xFFFFFFFFFFFFFFFFFFFFFFFFFFFFFFFFFFFFFFFF AND MUL OR SWAP1 SSTORE POP PUSH1 0x20 DUP3 ADD MLOAD DUP2 PUSH1 0x1 ADD PUSH0 PUSH2 0x100 EXP DUP2 SLOAD DUP2 PUSH20 0xFFFFFFFFFFFFFFFFFFFFFFFFFFFFFFFFFFFFFFFF MUL NOT AND SWAP1 DUP4 PUSH20 0xFFFFFFFFFFFFFFFFFFFFFFFFFFFFFFFFFFFFFFFF AND MUL OR SWAP1 SSTORE POP PUSH1 0x40 DUP3 ADD MLOAD DUP2 PUSH1 0x2 ADD SWAP1 DUP2 PUSH2 0x695 SWAP2 SWAP1 PUSH2 0x1052 JUMP JUMPDEST POP PUSH1 0x60 DUP3 ADD MLOAD DUP2 PUSH1 0x3 ADD SSTORE PUSH1 0x80 DUP3 ADD MLOAD DUP2 PUSH1 0x4 ADD SSTORE PUSH1 0xA0 DUP3 ADD MLOAD DUP2 PUSH1 0x5 ADD SSTORE PUSH1 0xC0 DUP3 ADD MLOAD DUP2 PUSH1 0x6 ADD PUSH0 PUSH2 0x100 EXP DUP2 SLOAD DUP2 PUSH1 0xFF MUL NOT AND SWAP1 DUP4 ISZERO ISZERO MUL OR SWAP1 SSTORE POP POP POP POP POP POP POP POP JUMP JUMPDEST PUSH1 0x1 DUP2 DUP1 MLOAD PUSH1 0x20 DUP2 ADD DUP3 ADD DUP1 MLOAD DUP5 DUP3 MSTORE PUSH1 0x20 DUP4 ADD PUSH1 0x20 DUP6 ADD KECCAK256 DUP2 DUP4 MSTORE DUP1 SWAP6 POP POP POP POP POP POP PUSH0 SWAP2 POP SWAP1 POP DUP1 PUSH0 ADD PUSH0 SWAP1 SLOAD SWAP1 PUSH2 0x100 EXP SWAP1 DIV PUSH20 0xFFFFFFFFFFFFFFFFFFFFFFFFFFFFFFFFFFFFFFFF AND SWAP1 DUP1 PUSH1 0x1 ADD PUSH0 SWAP1 SLOAD SWAP1 PUSH2 0x100 EXP SWAP1 DIV PUSH20 0xFFFFFFFFFFFFFFFFFFFFFFFFFFFFFFFFFFFFFFFF AND SWAP1 DUP1 PUSH1 0x2 ADD DUP1 SLOAD PUSH2 0x75D SWAP1 PUSH2 0xC07 JUMP JUMPDEST DUP1 PUSH1 0x1F ADD PUSH1 0x20 DUP1 SWAP2 DIV MUL PUSH1 0x20 ADD PUSH1 0x40 MLOAD SWAP1 DUP2 ADD PUSH1 0x40 MSTORE DUP1 SWAP3 SWAP2 SWAP1 DUP2 DUP2 MSTORE PUSH1 0x20 ADD DUP3 DUP1 SLOAD PUSH2 0x789 SWAP1 PUSH2 0xC07 JUMP JUMPDEST DUP1 ISZERO PUSH2 0x7D4 JUMPI DUP1 PUSH1 0x1F LT PUSH2 0x7AB JUMPI PUSH2 0x100 DUP1 DUP4 SLOAD DIV MUL DUP4 MSTORE SWAP2 PUSH1 0x20 ADD SWAP2 PUSH2 0x7D4 JUMP JUMPDEST DUP3 ADD SWAP2 SWAP1 PUSH0 MSTORE PUSH1 0x20 PUSH0 KECCAK256 SWAP1 JUMPDEST DUP2 SLOAD DUP2 MSTORE SWAP1 PUSH1 0x1 ADD SWAP1 PUSH1 0x20 ADD DUP1 DUP4 GT PUSH2 0x7B7 JUMPI DUP3 SWAP1 SUB PUSH1 0x1F AND DUP3 ADD SWAP2 JUMPDEST POP POP POP POP POP SWAP1 DUP1 PUSH1 0x3 ADD SLOAD SWAP1 DUP1 PUSH1 0x4 ADD SLOAD SWAP1 DUP1 PUSH1 0x5 ADD SLOAD SWAP1 DUP1 PUSH1 0x6 ADD PUSH0 SWAP1 SLOAD SWAP1 PUSH2 0x100 EXP SWAP1 DIV PUSH1 0xFF AND SWAP1 POP DUP8 JUMP JUMPDEST PUSH0 PUSH1 0x40 MLOAD SWAP1 POP SWAP1 JUMP JUMPDEST PUSH0 DUP1 REVERT JUMPDEST PUSH0 DUP1 REVERT JUMPDEST PUSH0 DUP2 SWAP1 POP SWAP2 SWAP1 POP JUMP JUMPDEST PUSH2 0x825 DUP2 PUSH2 0x813 JUMP JUMPDEST DUP2 EQ PUSH2 0x82F JUMPI PUSH0 DUP1 REVERT JUMPDEST POP JUMP JUMPDEST PUSH0 DUP2 CALLDATALOAD SWAP1 POP PUSH2 0x840 DUP2 PUSH2 0x81C JUMP JUMPDEST SWAP3 SWAP2 POP POP JUMP JUMPDEST PUSH0 PUSH1 0x20 DUP3 DUP5 SUB SLT ISZERO PUSH2 0x85B JUMPI PUSH2 0x85A PUSH2 0x80B JUMP JUMPDEST JUMPDEST PUSH0 PUSH2 0x868 DUP5 DUP3 DUP6 ADD PUSH2 0x832 JUMP JUMPDEST SWAP2 POP POP SWAP3 SWAP2 POP POP JUMP JUMPDEST PUSH0 PUSH20 0xFFFFFFFFFFFFFFFFFFFFFFFFFFFFFFFFFFFFFFFF DUP3 AND SWAP1 POP SWAP2 SWAP1 POP JUMP JUMPDEST PUSH0 PUSH2 0x89A DUP3 PUSH2 0x871 JUMP JUMPDEST SWAP1 POP SWAP2 SWAP1 POP JUMP JUMPDEST PUSH2 0x8AA DUP2 PUSH2 0x890 JUMP JUMPDEST DUP3 MSTORE POP POP JUMP JUMPDEST PUSH0 DUP2 MLOAD SWAP1 POP SWAP2 SWAP1 POP JUMP JUMPDEST PUSH0 DUP3 DUP3 MSTORE PUSH1 0x20 DUP3 ADD SWAP1 POP SWAP3 SWAP2 POP POP JUMP JUMPDEST DUP3 DUP2 DUP4 MCOPY PUSH0 DUP4 DUP4 ADD MSTORE POP POP POP JUMP JUMPDEST PUSH0 PUSH1 0x1F NOT PUSH1 0x1F DUP4 ADD AND SWAP1 POP SWAP2 SWAP1 POP JUMP JUMPDEST PUSH0 PUSH2 0x8F2 DUP3 PUSH2 0x8B0 JUMP JUMPDEST PUSH2 0x8FC DUP2 DUP6 PUSH2 0x8BA JUMP JUMPDEST SWAP4 POP PUSH2 0x90C DUP2 DUP6 PUSH1 0x20 DUP7 ADD PUSH2 0x8CA JUMP JUMPDEST PUSH2 0x915 DUP2 PUSH2 0x8D8 JUMP JUMPDEST DUP5 ADD SWAP2 POP POP SWAP3 SWAP2 POP POP JUMP JUMPDEST PUSH2 0x929 DUP2 PUSH2 0x813 JUMP JUMPDEST DUP3 MSTORE POP POP JUMP JUMPDEST PUSH0 DUP2 ISZERO ISZERO SWAP1 POP SWAP2 SWAP1 POP JUMP JUMPDEST PUSH2 0x943 DUP2 PUSH2 0x92F JUMP JUMPDEST DUP3 MSTORE POP POP JUMP JUMPDEST PUSH0 PUSH1 0xE0 DUP3 ADD SWAP1 POP PUSH2 0x95C PUSH0 DUP4 ADD DUP11 PUSH2 0x8A1 JUMP JUMPDEST PUSH2 0x969 PUSH1 0x20 DUP4 ADD DUP10 PUSH2 0x8A1 JUMP JUMPDEST DUP2 DUP2 SUB PUSH1 0x40 DUP4 ADD MSTORE PUSH2 0x97B DUP2 DUP9 PUSH2 0x8E8 JUMP JUMPDEST SWAP1 POP PUSH2 0x98A PUSH1 0x60 DUP4 ADD DUP8 PUSH2 0x920 JUMP JUMPDEST PUSH2 0x997 PUSH1 0x80 DUP4 ADD DUP7 PUSH2 0x920 JUMP JUMPDEST PUSH2 0x9A4 PUSH1 0xA0 DUP4 ADD DUP6 PUSH2 0x920 JUMP JUMPDEST PUSH2 0x9B1 PUSH1 0xC0 DUP4 ADD DUP5 PUSH2 0x93A JUMP JUMPDEST SWAP9 SWAP8 POP POP POP POP POP POP POP POP JUMP JUMPDEST PUSH2 0x9C6 DUP2 PUSH2 0x890 JUMP JUMPDEST DUP2 EQ PUSH2 0x9D0 JUMPI PUSH0 DUP1 REVERT JUMPDEST POP JUMP JUMPDEST PUSH0 DUP2 CALLDATALOAD SWAP1 POP PUSH2 0x9E1 DUP2 PUSH2 0x9BD JUMP JUMPDEST SWAP3 SWAP2 POP POP JUMP JUMPDEST PUSH0 DUP1 REVERT JUMPDEST PUSH0 DUP1 REVERT JUMPDEST PUSH32 0x4E487B7100000000000000000000000000000000000000000000000000000000 PUSH0 MSTORE PUSH1 0x41 PUSH1 0x4 MSTORE PUSH1 0x24 PUSH0 REVERT JUMPDEST PUSH2 0xA25 DUP3 PUSH2 0x8D8 JUMP JUMPDEST DUP2 ADD DUP2 DUP2 LT PUSH8 0xFFFFFFFFFFFFFFFF DUP3 GT OR ISZERO PUSH2 0xA44 JUMPI PUSH2 0xA43 PUSH2 0x9EF JUMP JUMPDEST JUMPDEST DUP1 PUSH1 0x40 MSTORE POP POP POP JUMP JUMPDEST PUSH0 PUSH2 0xA56 PUSH2 0x802 JUMP JUMPDEST SWAP1 POP PUSH2 0xA62 DUP3 DUP3 PUSH2 0xA1C JUMP JUMPDEST SWAP2 SWAP1 POP JUMP JUMPDEST PUSH0 PUSH8 0xFFFFFFFFFFFFFFFF DUP3 GT ISZERO PUSH2 0xA81 JUMPI PUSH2 0xA80 PUSH2 0x9EF JUMP JUMPDEST JUMPDEST PUSH2 0xA8A DUP3 PUSH2 0x8D8 JUMP JUMPDEST SWAP1 POP PUSH1 0x20 DUP2 ADD SWAP1 POP SWAP2 SWAP1 POP JUMP JUMPDEST DUP3 DUP2 DUP4 CALLDATACOPY PUSH0 DUP4 DUP4 ADD MSTORE POP POP POP JUMP JUMPDEST PUSH0 PUSH2 0xAB7 PUSH2 0xAB2 DUP5 PUSH2 0xA67 JUMP JUMPDEST PUSH2 0xA4D JUMP JUMPDEST SWAP1 POP DUP3 DUP2 MSTORE PUSH1 0x20 DUP2 ADD DUP5 DUP5 DUP5 ADD GT ISZERO PUSH2 0xAD3 JUMPI PUSH2 0xAD2 PUSH2 0x9EB JUMP JUMPDEST JUMPDEST PUSH2 0xADE DUP5 DUP3 DUP6 PUSH2 0xA97 JUMP JUMPDEST POP SWAP4 SWAP3 POP POP POP JUMP JUMPDEST PUSH0 DUP3 PUSH1 0x1F DUP4 ADD SLT PUSH2 0xAFA JUMPI PUSH2 0xAF9 PUSH2 0x9E7 JUMP JUMPDEST JUMPDEST DUP2 CALLDATALOAD PUSH2 0xB0A DUP5 DUP3 PUSH1 0x20 DUP7 ADD PUSH2 0xAA5 JUMP JUMPDEST SWAP2 POP POP SWAP3 SWAP2 POP POP JUMP JUMPDEST PUSH0 DUP1 PUSH0 DUP1 PUSH1 0x80 DUP6 DUP8 SUB SLT ISZERO PUSH2 0xB2B JUMPI PUSH2 0xB2A PUSH2 0x80B JUMP JUMPDEST JUMPDEST PUSH0 PUSH2 0xB38 DUP8 DUP3 DUP9 ADD PUSH2 0x9D3 JUMP JUMPDEST SWAP5 POP POP PUSH1 0x20 DUP6 ADD CALLDATALOAD PUSH8 0xFFFFFFFFFFFFFFFF DUP2 GT ISZERO PUSH2 0xB59 JUMPI PUSH2 0xB58 PUSH2 0x80F JUMP JUMPDEST JUMPDEST PUSH2 0xB65 DUP8 DUP3 DUP9 ADD PUSH2 0xAE6 JUMP JUMPDEST SWAP4 POP POP PUSH1 0x40 PUSH2 0xB76 DUP8 DUP3 DUP9 ADD PUSH2 0x832 JUMP JUMPDEST SWAP3 POP POP PUSH1 0x60 PUSH2 0xB87 DUP8 DUP3 DUP9 ADD PUSH2 0x832 JUMP JUMPDEST SWAP2 POP POP SWAP3 SWAP6 SWAP2 SWAP5 POP SWAP3 POP JUMP JUMPDEST PUSH0 PUSH1 0x20 DUP3 DUP5 SUB SLT ISZERO PUSH2 0xBA8 JUMPI PUSH2 0xBA7 PUSH2 0x80B JUMP JUMPDEST JUMPDEST PUSH0 DUP3 ADD CALLDATALOAD PUSH8 0xFFFFFFFFFFFFFFFF DUP2 GT ISZERO PUSH2 0xBC5 JUMPI PUSH2 0xBC4 PUSH2 0x80F JUMP JUMPDEST JUMPDEST PUSH2 0xBD1 DUP5 DUP3 DUP6 ADD PUSH2 0xAE6 JUMP JUMPDEST SWAP2 POP POP SWAP3 SWAP2 POP POP JUMP JUMPDEST PUSH32 0x4E487B7100000000000000000000000000000000000000000000000000000000 PUSH0 MSTORE PUSH1 0x22 PUSH1 0x4 MSTORE PUSH1 0x24 PUSH0 REVERT JUMPDEST PUSH0 PUSH1 0x2 DUP3 DIV SWAP1 POP PUSH1 0x1 DUP3 AND DUP1 PUSH2 0xC1E JUMPI PUSH1 0x7F DUP3 AND SWAP2 POP JUMPDEST PUSH1 0x20 DUP3 LT DUP2 SUB PUSH2 0xC31 JUMPI PUSH2 0xC30 PUSH2 0xBDA JUMP JUMPDEST JUMPDEST POP SWAP2 SWAP1 POP JUMP JUMPDEST PUSH0 DUP2 SWAP1 POP SWAP3 SWAP2 POP POP JUMP JUMPDEST PUSH0 PUSH2 0xC4B DUP3 PUSH2 0x8B0 JUMP JUMPDEST PUSH2 0xC55 DUP2 DUP6 PUSH2 0xC37 JUMP JUMPDEST SWAP4 POP PUSH2 0xC65 DUP2 DUP6 PUSH1 0x20 DUP7 ADD PUSH2 0x8CA JUMP JUMPDEST DUP1 DUP5 ADD SWAP2 POP POP SWAP3 SWAP2 POP POP JUMP JUMPDEST PUSH0 PUSH2 0xC7C DUP3 DUP5 PUSH2 0xC41 JUMP JUMPDEST SWAP2 POP DUP2 SWAP1 POP SWAP3 SWAP2 POP POP JUMP JUMPDEST PUSH32 0x43616D706169676E20776974682074686973207469746C6520616C7265616479 PUSH0 DUP3 ADD MSTORE PUSH32 0x2065786973747300000000000000000000000000000000000000000000000000 PUSH1 0x20 DUP3 ADD MSTORE POP JUMP JUMPDEST PUSH0 PUSH2 0xCE1 PUSH1 0x27 DUP4 PUSH2 0x8BA JUMP JUMPDEST SWAP2 POP PUSH2 0xCEC DUP3 PUSH2 0xC87 JUMP JUMPDEST PUSH1 0x40 DUP3 ADD SWAP1 POP SWAP2 SWAP1 POP JUMP JUMPDEST PUSH0 PUSH1 0x20 DUP3 ADD SWAP1 POP DUP2 DUP2 SUB PUSH0 DUP4 ADD MSTORE PUSH2 0xD0E DUP2 PUSH2 0xCD5 JUMP JUMPDEST SWAP1 POP SWAP2 SWAP1 POP JUMP JUMPDEST PUSH32 0x5768696368206B696E6420616464726573732062652074686973000000000000 PUSH0 DUP3 ADD MSTORE POP JUMP JUMPDEST PUSH0 PUSH2 0xD49 PUSH1 0x1A DUP4 PUSH2 0x8BA JUMP JUMPDEST SWAP2 POP PUSH2 0xD54 DUP3 PUSH2 0xD15 JUMP JUMPDEST PUSH1 0x20 DUP3 ADD SWAP1 POP SWAP2 SWAP1 POP JUMP JUMPDEST PUSH0 PUSH1 0x20 DUP3 ADD SWAP1 POP DUP2 DUP2 SUB PUSH0 DUP4 ADD MSTORE PUSH2 0xD76 DUP2 PUSH2 0xD3D JUMP JUMPDEST SWAP1 POP SWAP2 SWAP1 POP JUMP JUMPDEST PUSH32 0x596F75722063616D706169676E206E6F20676574206E616D6500000000000000 PUSH0 DUP3 ADD MSTORE POP JUMP JUMPDEST PUSH0 PUSH2 0xDB1 PUSH1 0x19 DUP4 PUSH2 0x8BA JUMP JUMPDEST SWAP2 POP PUSH2 0xDBC DUP3 PUSH2 0xD7D JUMP JUMPDEST PUSH1 0x20 DUP3 ADD SWAP1 POP SWAP2 SWAP1 POP JUMP JUMPDEST PUSH0 PUSH1 0x20 DUP3 ADD SWAP1 POP DUP2 DUP2 SUB PUSH0 DUP4 ADD MSTORE PUSH2 0xDDE DUP2 PUSH2 0xDA5 JUMP JUMPDEST SWAP1 POP SWAP2 SWAP1 POP JUMP JUMPDEST PUSH32 0x536865656520796F75206172652077697365206E6F7700000000000000000000 PUSH0 DUP3 ADD MSTORE POP JUMP JUMPDEST PUSH0 PUSH2 0xE19 PUSH1 0x16 DUP4 PUSH2 0x8BA JUMP JUMPDEST SWAP2 POP PUSH2 0xE24 DUP3 PUSH2 0xDE5 JUMP JUMPDEST PUSH1 0x20 DUP3 ADD SWAP1 POP SWAP2 SWAP1 POP JUMP JUMPDEST PUSH0 PUSH1 0x20 DUP3 ADD SWAP1 POP DUP2 DUP2 SUB PUSH0 DUP4 ADD MSTORE PUSH2 0xE46 DUP2 PUSH2 0xE0D JUMP JUMPDEST SWAP1 POP SWAP2 SWAP1 POP JUMP JUMPDEST PUSH32 0x42727568682063616E20796F75206E6F7420646F20746861743F000000000000 PUSH0 DUP3 ADD MSTORE POP JUMP JUMPDEST PUSH0 PUSH2 0xE81 PUSH1 0x1A DUP4 PUSH2 0x8BA JUMP JUMPDEST SWAP2 POP PUSH2 0xE8C DUP3 PUSH2 0xE4D JUMP JUMPDEST PUSH1 0x20 DUP3 ADD SWAP1 POP SWAP2 SWAP1 POP JUMP JUMPDEST PUSH0 PUSH1 0x20 DUP3 ADD SWAP1 POP DUP2 DUP2 SUB PUSH0 DUP4 ADD MSTORE PUSH2 0xEAE DUP2 PUSH2 0xE75 JUMP JUMPDEST SWAP1 POP SWAP2 SWAP1 POP JUMP JUMPDEST PUSH0 DUP2 SWAP1 POP DUP2 PUSH0 MSTORE PUSH1 0x20 PUSH0 KECCAK256 SWAP1 POP SWAP2 SWAP1 POP JUMP JUMPDEST PUSH0 PUSH1 0x20 PUSH1 0x1F DUP4 ADD DIV SWAP1 POP SWAP2 SWAP1 POP JUMP JUMPDEST PUSH0 DUP3 DUP3 SHL SWAP1 POP SWAP3 SWAP2 POP POP JUMP JUMPDEST PUSH0 PUSH1 0x8 DUP4 MUL PUSH2 0xF11 PUSH32 0xFFFFFFFFFFFFFFFFFFFFFFFFFFFFFFFFFFFFFFFFFFFFFFFFFFFFFFFFFFFFFFFF DUP3 PUSH2 0xED6 JUMP JUMPDEST PUSH2 0xF1B DUP7 DUP4 PUSH2 0xED6 JUMP JUMPDEST SWAP6 POP DUP1 NOT DUP5 AND SWAP4 POP DUP1 DUP7 AND DUP5 OR SWAP3 POP POP POP SWAP4 SWAP3 POP POP POP JUMP JUMPDEST PUSH0 DUP2 SWAP1 POP SWAP2 SWAP1 POP JUMP JUMPDEST PUSH0 PUSH2 0xF56 PUSH2 0xF51 PUSH2 0xF4C DUP5 PUSH2 0x813 JUMP JUMPDEST PUSH2 0xF33 JUMP JUMPDEST PUSH2 0x813 JUMP JUMPDEST SWAP1 POP SWAP2 SWAP1 POP JUMP JUMPDEST PUSH0 DUP2 SWAP1 POP SWAP2 SWAP1 POP JUMP JUMPDEST PUSH2 0xF6F DUP4 PUSH2 0xF3C JUMP JUMPDEST PUSH2 0xF83 PUSH2 0xF7B DUP3 PUSH2 0xF5D JUMP JUMPDEST DUP5 DUP5 SLOAD PUSH2 0xEE2 JUMP JUMPDEST DUP3 SSTORE POP POP POP POP JUMP JUMPDEST PUSH0 SWAP1 JUMP JUMPDEST PUSH2 0xF97 PUSH2 0xF8B JUMP JUMPDEST PUSH2 0xFA2 DUP2 DUP5 DUP5 PUSH2 0xF66 JUMP JUMPDEST POP POP POP JUMP JUMPDEST JUMPDEST DUP2 DUP2 LT ISZERO PUSH2 0xFC5 JUMPI PUSH2 0xFBA PUSH0 DUP3 PUSH2 0xF8F JUMP JUMPDEST PUSH1 0x1 DUP2 ADD SWAP1 POP PUSH2 0xFA8 JUMP JUMPDEST POP POP JUMP JUMPDEST PUSH1 0x1F DUP3 GT ISZERO PUSH2 0x100A JUMPI PUSH2 0xFDB DUP2 PUSH2 0xEB5 JUMP JUMPDEST PUSH2 0xFE4 DUP5 PUSH2 0xEC7 JUMP JUMPDEST DUP2 ADD PUSH1 0x20 DUP6 LT ISZERO PUSH2 0xFF3 JUMPI DUP2 SWAP1 POP JUMPDEST PUSH2 0x1007 PUSH2 0xFFF DUP6 PUSH2 0xEC7 JUMP JUMPDEST DUP4 ADD DUP3 PUSH2 0xFA7 JUMP JUMPDEST POP POP JUMPDEST POP POP POP JUMP JUMPDEST PUSH0 DUP3 DUP3 SHR SWAP1 POP SWAP3 SWAP2 POP POP JUMP JUMPDEST PUSH0 PUSH2 0x102A PUSH0 NOT DUP5 PUSH1 0x8 MUL PUSH2 0x100F JUMP JUMPDEST NOT DUP1 DUP4 AND SWAP2 POP POP SWAP3 SWAP2 POP POP JUMP JUMPDEST PUSH0 PUSH2 0x1042 DUP4 DUP4 PUSH2 0x101B JUMP JUMPDEST SWAP2 POP DUP3 PUSH1 0x2 MUL DUP3 OR SWAP1 POP SWAP3 SWAP2 POP POP JUMP JUMPDEST PUSH2 0x105B DUP3 PUSH2 0x8B0 JUMP JUMPDEST PUSH8 0xFFFFFFFFFFFFFFFF DUP2 GT ISZERO PUSH2 0x1074 JUMPI PUSH2 0x1073 PUSH2 0x9EF JUMP JUMPDEST JUMPDEST PUSH2 0x107E DUP3 SLOAD PUSH2 0xC07 JUMP JUMPDEST PUSH2 0x1089 DUP3 DUP3 DUP6 PUSH2 0xFC9 JUMP JUMPDEST PUSH0 PUSH1 0x20 SWAP1 POP PUSH1 0x1F DUP4 GT PUSH1 0x1 DUP2 EQ PUSH2 0x10BA JUMPI PUSH0 DUP5 ISZERO PUSH2 0x10A8 JUMPI DUP3 DUP8 ADD MLOAD SWAP1 POP JUMPDEST PUSH2 0x10B2 DUP6 DUP3 PUSH2 0x1037 JUMP JUMPDEST DUP7 SSTORE POP PUSH2 0x1119 JUMP JUMPDEST PUSH1 0x1F NOT DUP5 AND PUSH2 0x10C8 DUP7 PUSH2 0xEB5 JUMP JUMPDEST PUSH0 JUMPDEST DUP3 DUP2 LT ISZERO PUSH2 0x10EF JUMPI DUP5 DUP10 ADD MLOAD DUP3 SSTORE PUSH1 0x1 DUP3 ADD SWAP2 POP PUSH1 0x20 DUP6 ADD SWAP5 POP PUSH1 0x20 DUP2 ADD SWAP1 POP PUSH2 0x10CA JUMP JUMPDEST DUP7 DUP4 LT ISZERO PUSH2 0x110C JUMPI DUP5 DUP10 ADD MLOAD PUSH2 0x1108 PUSH1 0x1F DUP10 AND DUP3 PUSH2 0x101B JUMP JUMPDEST DUP4 SSTORE POP JUMPDEST PUSH1 0x1 PUSH1 0x2 DUP9 MUL ADD DUP9 SSTORE POP POP POP JUMPDEST POP POP POP POP POP POP JUMP INVALID LOG2 PUSH5 0x6970667358 0x22 SLT KECCAK256 GASLIMIT DUP11 0xCF SELFDESTRUCT EQ 0xAB SWAP16 MOD PUSH6 0xE70FF14924C4 PREVRANDAO LOG2 0xD3 JUMPDEST JUMPDEST LOG3 AND JUMPDEST 0xA9 NOT 0x1F LOG3 TSTORE CHAINID 0xAA 0x4B DUP3 PUSH5 0x736F6C6343 STOP ADDMOD BYTE STOP CALLER "
				},
				"gasEstimates": {
					"creation": {
						"codeDepositCost": "887800",
						"executionCost": "920",
						"totalCost": "888720"
					},
					"external": {
						"addCampaign(address,string,uint256,uint256)": "infinite",
						"campaignList(uint256)": "infinite",
						"titleToCampaign(string)": "infinite"
					}
				},
				"methodIdentifiers": {
					"addCampaign(address,string,uint256,uint256)": "77bbc464",
					"campaignList(uint256)": "4912c658",
					"titleToCampaign(string)": "c50a40d0"
				}
			},
			"storageLayout": {
				"storage": [
					{
						"astId": 20,
						"contract": "CrowdFundingApp/Factory.sol:Factory",
						"label": "campaignList",
						"offset": 0,
						"slot": "0",
						"type": "t_array(t_struct(Campaign)16_storage)dyn_storage"
					},
					{
						"astId": 25,
						"contract": "CrowdFundingApp/Factory.sol:Factory",
						"label": "titleToCampaign",
						"offset": 0,
						"slot": "1",
						"type": "t_mapping(t_string_memory_ptr,t_struct(Campaign)16_storage)"
					}
				],
				"types": {
					"t_address_payable": {
						"encoding": "inplace",
						"label": "address payable",
						"numberOfBytes": "20"
					},
					"t_array(t_struct(Campaign)16_storage)dyn_storage": {
						"base": "t_struct(Campaign)16_storage",
						"encoding": "dynamic_array",
						"label": "struct Factory.Campaign[]",
						"numberOfBytes": "32"
					},
					"t_bool": {
						"encoding": "inplace",
						"label": "bool",
						"numberOfBytes": "1"
					},
					"t_mapping(t_string_memory_ptr,t_struct(Campaign)16_storage)": {
						"encoding": "mapping",
						"key": "t_string_memory_ptr",
						"label": "mapping(string => struct Factory.Campaign)",
						"numberOfBytes": "32",
						"value": "t_struct(Campaign)16_storage"
					},
					"t_string_memory_ptr": {
						"encoding": "bytes",
						"label": "string",
						"numberOfBytes": "32"
					},
					"t_string_storage": {
						"encoding": "bytes",
						"label": "string",
						"numberOfBytes": "32"
					},
					"t_struct(Campaign)16_storage": {
						"encoding": "inplace",
						"label": "struct Factory.Campaign",
						"members": [
							{
								"astId": 3,
								"contract": "CrowdFundingApp/Factory.sol:Factory",
								"label": "campaignOwner",
								"offset": 0,
								"slot": "0",
								"type": "t_address_payable"
							},
							{
								"astId": 5,
								"contract": "CrowdFundingApp/Factory.sol:Factory",
								"label": "beneficiary",
								"offset": 0,
								"slot": "1",
								"type": "t_address_payable"
							},
							{
								"astId": 7,
								"contract": "CrowdFundingApp/Factory.sol:Factory",
								"label": "title",
								"offset": 0,
								"slot": "2",
								"type": "t_string_storage"
							},
							{
								"astId": 9,
								"contract": "CrowdFundingApp/Factory.sol:Factory",
								"label": "deadline",
								"offset": 0,
								"slot": "3",
								"type": "t_uint256"
							},
							{
								"astId": 11,
								"contract": "CrowdFundingApp/Factory.sol:Factory",
								"label": "amountToRaise",
								"offset": 0,
								"slot": "4",
								"type": "t_uint256"
							},
							{
								"astId": 13,
								"contract": "CrowdFundingApp/Factory.sol:Factory",
								"label": "raisedAmount",
								"offset": 0,
								"slot": "5",
								"type": "t_uint256"
							},
							{
								"astId": 15,
								"contract": "CrowdFundingApp/Factory.sol:Factory",
								"label": "closed",
								"offset": 0,
								"slot": "6",
								"type": "t_bool"
							}
						],
						"numberOfBytes": "224"
					},
					"t_uint256": {
						"encoding": "inplace",
						"label": "uint256",
						"numberOfBytes": "32"
					}
				}
			},
			"userdoc": {
				"kind": "user",
				"methods": {},
				"version": 1
			}
		}
	}
}