{
	"data": {
		"bytecode": {
			"linkReferences": {},
			"object": "6080604052348015600e575f80fd5b506106018061001c5f395ff3fe608060405234801561000f575f80fd5b5060043610610034575f3560e01c806311456b471461003857806370119cc714610054575b5f80fd5b610052600480360381019061004d91906101e5565b610070565b005b61006e6004803603810190610069919061025f565b610083565b005b806001908161007f919061048e565b5050565b600a81610090919061058a565b5f8190555050565b5f604051905090565b5f80fd5b5f80fd5b5f80fd5b5f80fd5b5f601f19601f8301169050919050565b7f4e487b71000000000000000000000000000000000000000000000000000000005f52604160045260245ffd5b6100f7826100b1565b810181811067ffffffffffffffff82111715610116576101156100c1565b5b80604052505050565b5f610128610098565b905061013482826100ee565b919050565b5f67ffffffffffffffff821115610153576101526100c1565b5b61015c826100b1565b9050602081019050919050565b828183375f83830152505050565b5f61018961018484610139565b61011f565b9050828152602081018484840111156101a5576101a46100ad565b5b6101b0848285610169565b509392505050565b5f82601f8301126101cc576101cb6100a9565b5b81356101dc848260208601610177565b91505092915050565b5f602082840312156101fa576101f96100a1565b5b5f82013567ffffffffffffffff811115610217576102166100a5565b5b610223848285016101b8565b91505092915050565b5f819050919050565b61023e8161022c565b8114610248575f80fd5b50565b5f8135905061025981610235565b92915050565b5f60208284031215610274576102736100a1565b5b5f6102818482850161024b565b91505092915050565b5f81519050919050565b7f4e487b71000000000000000000000000000000000000000000000000000000005f52602260045260245ffd5b5f60028204905060018216806102d857607f821691505b6020821081036102eb576102ea610294565b5b50919050565b5f819050815f5260205f209050919050565b5f6020601f8301049050919050565b5f82821b905092915050565b5f6008830261034d7fffffffffffffffffffffffffffffffffffffffffffffffffffffffffffffffff82610312565b6103578683610312565b95508019841693508086168417925050509392505050565b5f819050919050565b5f61039261038d6103888461022c565b61036f565b61022c565b9050919050565b5f819050919050565b6103ab83610378565b6103bf6103b782610399565b84845461031e565b825550505050565b5f90565b6103d36103c7565b6103de8184846103a2565b505050565b5b81811015610401576103f65f826103cb565b6001810190506103e4565b5050565b601f82111561044657610417816102f1565b61042084610303565b8101602085101561042f578190505b61044361043b85610303565b8301826103e3565b50505b505050565b5f82821c905092915050565b5f6104665f198460080261044b565b1980831691505092915050565b5f61047e8383610457565b9150826002028217905092915050565b6104978261028a565b67ffffffffffffffff8111156104b0576104af6100c1565b5b6104ba82546102c1565b6104c5828285610405565b5f60209050601f8311600181146104f6575f84156104e4578287015190505b6104ee8582610473565b865550610555565b601f198416610504866102f1565b5f5b8281101561052b57848901518255600182019150602085019450602081019050610506565b868310156105485784890151610544601f891682610457565b8355505b6001600288020188555050505b505050505050565b7f4e487b71000000000000000000000000000000000000000000000000000000005f52601160045260245ffd5b5f6105948261022c565b915061059f8361022c565b92508282026105ad8161022c565b915082820484148315176105c4576105c361055d565b5b509291505056fea26469706673582212203e479a0b1b62f7da1b8fe24b1e732d70c5c11c7de541f862fbb04c977a599bd764736f6c634300081a0033",
			"opcodes": "PUSH1 0x80 PUSH1 0x40 MSTORE CALLVALUE DUP1 ISZERO PUSH1 0xE JUMPI PUSH0 DUP1 REVERT JUMPDEST POP PUSH2 0x601 DUP1 PUSH2 0x1C PUSH0 CODECOPY PUSH0 RETURN INVALID PUSH1 0x80 PUSH1 0x40 MSTORE CALLVALUE DUP1 ISZERO PUSH2 0xF JUMPI PUSH0 DUP1 REVERT JUMPDEST POP PUSH1 0x4 CALLDATASIZE LT PUSH2 0x34 JUMPI PUSH0 CALLDATALOAD PUSH1 0xE0 SHR DUP1 PUSH4 0x11456B47 EQ PUSH2 0x38 JUMPI DUP1 PUSH4 0x70119CC7 EQ PUSH2 0x54 JUMPI JUMPDEST PUSH0 DUP1 REVERT JUMPDEST PUSH2 0x52 PUSH1 0x4 DUP1 CALLDATASIZE SUB DUP2 ADD SWAP1 PUSH2 0x4D SWAP2 SWAP1 PUSH2 0x1E5 JUMP JUMPDEST PUSH2 0x70 JUMP JUMPDEST STOP JUMPDEST PUSH2 0x6E PUSH1 0x4 DUP1 CALLDATASIZE SUB DUP2 ADD SWAP1 PUSH2 0x69 SWAP2 SWAP1 PUSH2 0x25F JUMP JUMPDEST PUSH2 0x83 JUMP JUMPDEST STOP JUMPDEST DUP1 PUSH1 0x1 SWAP1 DUP2 PUSH2 0x7F SWAP2 SWAP1 PUSH2 0x48E JUMP JUMPDEST POP POP JUMP JUMPDEST PUSH1 0xA DUP2 PUSH2 0x90 SWAP2 SWAP1 PUSH2 0x58A JUMP JUMPDEST PUSH0 DUP2 SWAP1 SSTORE POP POP JUMP JUMPDEST PUSH0 PUSH1 0x40 MLOAD SWAP1 POP SWAP1 JUMP JUMPDEST PUSH0 DUP1 REVERT JUMPDEST PUSH0 DUP1 REVERT JUMPDEST PUSH0 DUP1 REVERT JUMPDEST PUSH0 DUP1 REVERT JUMPDEST PUSH0 PUSH1 0x1F NOT PUSH1 0x1F DUP4 ADD AND SWAP1 POP SWAP2 SWAP1 POP JUMP JUMPDEST PUSH32 0x4E487B7100000000000000000000000000000000000000000000000000000000 PUSH0 MSTORE PUSH1 0x41 PUSH1 0x4 MSTORE PUSH1 0x24 PUSH0 REVERT JUMPDEST PUSH2 0xF7 DUP3 PUSH2 0xB1 JUMP JUMPDEST DUP2 ADD DUP2 DUP2 LT PUSH8 0xFFFFFFFFFFFFFFFF DUP3 GT OR ISZERO PUSH2 0x116 JUMPI PUSH2 0x115 PUSH2 0xC1 JUMP JUMPDEST JUMPDEST DUP1 PUSH1 0x40 MSTORE POP POP POP JUMP JUMPDEST PUSH0 PUSH2 0x128 PUSH2 0x98 JUMP JUMPDEST SWAP1 POP PUSH2 0x134 DUP3 DUP3 PUSH2 0xEE JUMP JUMPDEST SWAP2 SWAP1 POP JUMP JUMPDEST PUSH0 PUSH8 0xFFFFFFFFFFFFFFFF DUP3 GT ISZERO PUSH2 0x153 JUMPI PUSH2 0x152 PUSH2 0xC1 JUMP JUMPDEST JUMPDEST PUSH2 0x15C DUP3 PUSH2 0xB1 JUMP JUMPDEST SWAP1 POP PUSH1 0x20 DUP2 ADD SWAP1 POP SWAP2 SWAP1 POP JUMP JUMPDEST DUP3 DUP2 DUP4 CALLDATACOPY PUSH0 DUP4 DUP4 ADD MSTORE POP POP POP JUMP JUMPDEST PUSH0 PUSH2 0x189 PUSH2 0x184 DUP5 PUSH2 0x139 JUMP JUMPDEST PUSH2 0x11F JUMP JUMPDEST SWAP1 POP DUP3 DUP2 MSTORE PUSH1 0x20 DUP2 ADD DUP5 DUP5 DUP5 ADD GT ISZERO PUSH2 0x1A5 JUMPI PUSH2 0x1A4 PUSH2 0xAD JUMP JUMPDEST JUMPDEST PUSH2 0x1B0 DUP5 DUP3 DUP6 PUSH2 0x169 JUMP JUMPDEST POP SWAP4 SWAP3 POP POP POP JUMP JUMPDEST PUSH0 DUP3 PUSH1 0x1F DUP4 ADD SLT PUSH2 0x1CC JUMPI PUSH2 0x1CB PUSH2 0xA9 JUMP JUMPDEST JUMPDEST DUP2 CALLDATALOAD PUSH2 0x1DC DUP5 DUP3 PUSH1 0x20 DUP7 ADD PUSH2 0x177 JUMP JUMPDEST SWAP2 POP POP SWAP3 SWAP2 POP POP JUMP JUMPDEST PUSH0 PUSH1 0x20 DUP3 DUP5 SUB SLT ISZERO PUSH2 0x1FA JUMPI PUSH2 0x1F9 PUSH2 0xA1 JUMP JUMPDEST JUMPDEST PUSH0 DUP3 ADD CALLDATALOAD PUSH8 0xFFFFFFFFFFFFFFFF DUP2 GT ISZERO PUSH2 0x217 JUMPI PUSH2 0x216 PUSH2 0xA5 JUMP JUMPDEST JUMPDEST PUSH2 0x223 DUP5 DUP3 DUP6 ADD PUSH2 0x1B8 JUMP JUMPDEST SWAP2 POP POP SWAP3 SWAP2 POP POP JUMP JUMPDEST PUSH0 DUP2 SWAP1 POP SWAP2 SWAP1 POP JUMP JUMPDEST PUSH2 0x23E DUP2 PUSH2 0x22C JUMP JUMPDEST DUP2 EQ PUSH2 0x248 JUMPI PUSH0 DUP1 REVERT JUMPDEST POP JUMP JUMPDEST PUSH0 DUP2 CALLDATALOAD SWAP1 POP PUSH2 0x259 DUP2 PUSH2 0x235 JUMP JUMPDEST SWAP3 SWAP2 POP POP JUMP JUMPDEST PUSH0 PUSH1 0x20 DUP3 DUP5 SUB SLT ISZERO PUSH2 0x274 JUMPI PUSH2 0x273 PUSH2 0xA1 JUMP JUMPDEST JUMPDEST PUSH0 PUSH2 0x281 DUP5 DUP3 DUP6 ADD PUSH2 0x24B JUMP JUMPDEST SWAP2 POP POP SWAP3 SWAP2 POP POP JUMP JUMPDEST PUSH0 DUP2 MLOAD SWAP1 POP SWAP2 SWAP1 POP JUMP JUMPDEST PUSH32 0x4E487B7100000000000000000000000000000000000000000000000000000000 PUSH0 MSTORE PUSH1 0x22 PUSH1 0x4 MSTORE PUSH1 0x24 PUSH0 REVERT JUMPDEST PUSH0 PUSH1 0x2 DUP3 DIV SWAP1 POP PUSH1 0x1 DUP3 AND DUP1 PUSH2 0x2D8 JUMPI PUSH1 0x7F DUP3 AND SWAP2 POP JUMPDEST PUSH1 0x20 DUP3 LT DUP2 SUB PUSH2 0x2EB JUMPI PUSH2 0x2EA PUSH2 0x294 JUMP JUMPDEST JUMPDEST POP SWAP2 SWAP1 POP JUMP JUMPDEST PUSH0 DUP2 SWAP1 POP DUP2 PUSH0 MSTORE PUSH1 0x20 PUSH0 KECCAK256 SWAP1 POP SWAP2 SWAP1 POP JUMP JUMPDEST PUSH0 PUSH1 0x20 PUSH1 0x1F DUP4 ADD DIV SWAP1 POP SWAP2 SWAP1 POP JUMP JUMPDEST PUSH0 DUP3 DUP3 SHL SWAP1 POP SWAP3 SWAP2 POP POP JUMP JUMPDEST PUSH0 PUSH1 0x8 DUP4 MUL PUSH2 0x34D PUSH32 0xFFFFFFFFFFFFFFFFFFFFFFFFFFFFFFFFFFFFFFFFFFFFFFFFFFFFFFFFFFFFFFFF DUP3 PUSH2 0x312 JUMP JUMPDEST PUSH2 0x357 DUP7 DUP4 PUSH2 0x312 JUMP JUMPDEST SWAP6 POP DUP1 NOT DUP5 AND SWAP4 POP DUP1 DUP7 AND DUP5 OR SWAP3 POP POP POP SWAP4 SWAP3 POP POP POP JUMP JUMPDEST PUSH0 DUP2 SWAP1 POP SWAP2 SWAP1 POP JUMP JUMPDEST PUSH0 PUSH2 0x392 PUSH2 0x38D PUSH2 0x388 DUP5 PUSH2 0x22C JUMP JUMPDEST PUSH2 0x36F JUMP JUMPDEST PUSH2 0x22C JUMP JUMPDEST SWAP1 POP SWAP2 SWAP1 POP JUMP JUMPDEST PUSH0 DUP2 SWAP1 POP SWAP2 SWAP1 POP JUMP JUMPDEST PUSH2 0x3AB DUP4 PUSH2 0x378 JUMP JUMPDEST PUSH2 0x3BF PUSH2 0x3B7 DUP3 PUSH2 0x399 JUMP JUMPDEST DUP5 DUP5 SLOAD PUSH2 0x31E JUMP JUMPDEST DUP3 SSTORE POP POP POP POP JUMP JUMPDEST PUSH0 SWAP1 JUMP JUMPDEST PUSH2 0x3D3 PUSH2 0x3C7 JUMP JUMPDEST PUSH2 0x3DE DUP2 DUP5 DUP5 PUSH2 0x3A2 JUMP JUMPDEST POP POP POP JUMP JUMPDEST JUMPDEST DUP2 DUP2 LT ISZERO PUSH2 0x401 JUMPI PUSH2 0x3F6 PUSH0 DUP3 PUSH2 0x3CB JUMP JUMPDEST PUSH1 0x1 DUP2 ADD SWAP1 POP PUSH2 0x3E4 JUMP JUMPDEST POP POP JUMP JUMPDEST PUSH1 0x1F DUP3 GT ISZERO PUSH2 0x446 JUMPI PUSH2 0x417 DUP2 PUSH2 0x2F1 JUMP JUMPDEST PUSH2 0x420 DUP5 PUSH2 0x303 JUMP JUMPDEST DUP2 ADD PUSH1 0x20 DUP6 LT ISZERO PUSH2 0x42F JUMPI DUP2 SWAP1 POP JUMPDEST PUSH2 0x443 PUSH2 0x43B DUP6 PUSH2 0x303 JUMP JUMPDEST DUP4 ADD DUP3 PUSH2 0x3E3 JUMP JUMPDEST POP POP JUMPDEST POP POP POP JUMP JUMPDEST PUSH0 DUP3 DUP3 SHR SWAP1 POP SWAP3 SWAP2 POP POP JUMP JUMPDEST PUSH0 PUSH2 0x466 PUSH0 NOT DUP5 PUSH1 0x8 MUL PUSH2 0x44B JUMP JUMPDEST NOT DUP1 DUP4 AND SWAP2 POP POP SWAP3 SWAP2 POP POP JUMP JUMPDEST PUSH0 PUSH2 0x47E DUP4 DUP4 PUSH2 0x457 JUMP JUMPDEST SWAP2 POP DUP3 PUSH1 0x2 MUL DUP3 OR SWAP1 POP SWAP3 SWAP2 POP POP JUMP JUMPDEST PUSH2 0x497 DUP3 PUSH2 0x28A JUMP JUMPDEST PUSH8 0xFFFFFFFFFFFFFFFF DUP2 GT ISZERO PUSH2 0x4B0 JUMPI PUSH2 0x4AF PUSH2 0xC1 JUMP JUMPDEST JUMPDEST PUSH2 0x4BA DUP3 SLOAD PUSH2 0x2C1 JUMP JUMPDEST PUSH2 0x4C5 DUP3 DUP3 DUP6 PUSH2 0x405 JUMP JUMPDEST PUSH0 PUSH1 0x20 SWAP1 POP PUSH1 0x1F DUP4 GT PUSH1 0x1 DUP2 EQ PUSH2 0x4F6 JUMPI PUSH0 DUP5 ISZERO PUSH2 0x4E4 JUMPI DUP3 DUP8 ADD MLOAD SWAP1 POP JUMPDEST PUSH2 0x4EE DUP6 DUP3 PUSH2 0x473 JUMP JUMPDEST DUP7 SSTORE POP PUSH2 0x555 JUMP JUMPDEST PUSH1 0x1F NOT DUP5 AND PUSH2 0x504 DUP7 PUSH2 0x2F1 JUMP JUMPDEST PUSH0 JUMPDEST DUP3 DUP2 LT ISZERO PUSH2 0x52B JUMPI DUP5 DUP10 ADD MLOAD DUP3 SSTORE PUSH1 0x1 DUP3 ADD SWAP2 POP PUSH1 0x20 DUP6 ADD SWAP5 POP PUSH1 0x20 DUP2 ADD SWAP1 POP PUSH2 0x506 JUMP JUMPDEST DUP7 DUP4 LT ISZERO PUSH2 0x548 JUMPI DUP5 DUP10 ADD MLOAD PUSH2 0x544 PUSH1 0x1F DUP10 AND DUP3 PUSH2 0x457 JUMP JUMPDEST DUP4 SSTORE POP JUMPDEST PUSH1 0x1 PUSH1 0x2 DUP9 MUL ADD DUP9 SSTORE POP POP POP JUMPDEST POP POP POP POP POP POP JUMP JUMPDEST PUSH32 0x4E487B7100000000000000000000000000000000000000000000000000000000 PUSH0 MSTORE PUSH1 0x11 PUSH1 0x4 MSTORE PUSH1 0x24 PUSH0 REVERT JUMPDEST PUSH0 PUSH2 0x594 DUP3 PUSH2 0x22C JUMP JUMPDEST SWAP2 POP PUSH2 0x59F DUP4 PUSH2 0x22C JUMP JUMPDEST SWAP3 POP DUP3 DUP3 MUL PUSH2 0x5AD DUP2 PUSH2 0x22C JUMP JUMPDEST SWAP2 POP DUP3 DUP3 DIV DUP5 EQ DUP4 ISZERO OR PUSH2 0x5C4 JUMPI PUSH2 0x5C3 PUSH2 0x55D JUMP JUMPDEST JUMPDEST POP SWAP3 SWAP2 POP POP JUMP INVALID LOG2 PUSH5 0x6970667358 0x22 SLT KECCAK256 RETURNDATACOPY SELFBALANCE SWAP11 SIGNEXTEND SHL PUSH3 0xF7DA1B DUP16 0xE2 0x4B 0x1E PUSH20 0x2D70C5C11C7DE541F862FBB04C977A599BD76473 PUSH16 0x6C634300081A00330000000000000000 "
		},
		"gasEstimates": {
			"creation": {
				"codeDepositCost": "307400",
				"executionCost": "347",
				"totalCost": "307747"
			},
			"external": {
				"addName(string)": "infinite",
				"storefavouriteNumber(uint256)": "infinite"
			}
		},
		"methodIdentifiers": {
			"addName(string)": "11456b47",
			"storefavouriteNumber(uint256)": "70119cc7"
		}
	},
	"abi": [
		{
			"inputs": [
				{
					"internalType": "string",
					"name": "_name",
					"type": "string"
				}
			],
			"name": "addName",
			"outputs": [],
			"stateMutability": "nonpayable",
			"type": "function"
		},
		{
			"inputs": [
				{
					"internalType": "uint256",
					"name": "_favouriteNumber",
					"type": "uint256"
				}
			],
			"name": "storefavouriteNumber",
			"outputs": [],
			"stateMutability": "nonpayable",
			"type": "function"
		}
	]
}