{
	"data": {
		"bytecode": {
			"linkReferences": {},
			"object": "6080604052348015600e575f80fd5b50610b338061001c5f395ff3fe608060405234801561000f575f80fd5b5060043610610055575f3560e01c80631f2de553146100595780634cf91f251461008957806357ccca42146100a5578063e2d9b3be146100c1578063f54769d0146100df575b5f80fd5b610073600480360381019061006e919061054a565b610113565b60405161008091906105a9565b60405180910390f35b6100a3600480360381019061009e91906105f7565b61013d565b005b6100bf60048036038101906100ba919061054a565b6101cd565b005b6100c961020d565b6040516100d691906105a9565b60405180910390f35b6100f960048036038101906100f4919061054a565b610215565b60405161010a95949392919061071e565b60405180910390f35b5f60018260405161012491906107be565b9081526020016040518091039020600401549050919050565b5f60018360405161014e91906107be565b9081526020016040518091039020905084815f01908161016e91906109ce565b508381600101908161018091906109ce565b5081816002015f6101000a81548160ff021916908315150217905550828160030190816101ad91906109ce565b5060015f808282546101bf9190610aca565b925050819055505050505050565b5f6001826040516101de91906107be565b908152602001604051809103902090506001816004015f8282546102029190610aca565b925050819055505050565b5f8054905090565b6001818051602081018201805184825260208301602085012081835280955050505050505f91509050805f01805461024c90610801565b80601f016020809104026020016040519081016040528092919081815260200182805461027890610801565b80156102c35780601f1061029a576101008083540402835291602001916102c3565b820191905f5260205f20905b8154815290600101906020018083116102a657829003601f168201915b5050505050908060010180546102d890610801565b80601f016020809104026020016040519081016040528092919081815260200182805461030490610801565b801561034f5780601f106103265761010080835404028352916020019161034f565b820191905f5260205f20905b81548152906001019060200180831161033257829003601f168201915b505050505090806002015f9054906101000a900460ff169080600301805461037690610801565b80601f01602080910402602001604051908101604052809291908181526020018280546103a290610801565b80156103ed5780601f106103c4576101008083540402835291602001916103ed565b820191905f5260205f20905b8154815290600101906020018083116103d057829003601f168201915b5050505050908060040154905085565b5f604051905090565b5f80fd5b5f80fd5b5f80fd5b5f80fd5b5f601f19601f8301169050919050565b7f4e487b71000000000000000000000000000000000000000000000000000000005f52604160045260245ffd5b61045c82610416565b810181811067ffffffffffffffff8211171561047b5761047a610426565b5b80604052505050565b5f61048d6103fd565b90506104998282610453565b919050565b5f67ffffffffffffffff8211156104b8576104b7610426565b5b6104c182610416565b9050602081019050919050565b828183375f83830152505050565b5f6104ee6104e98461049e565b610484565b90508281526020810184848401111561050a57610509610412565b5b6105158482856104ce565b509392505050565b5f82601f8301126105315761053061040e565b5b81356105418482602086016104dc565b91505092915050565b5f6020828403121561055f5761055e610406565b5b5f82013567ffffffffffffffff81111561057c5761057b61040a565b5b6105888482850161051d565b91505092915050565b5f819050919050565b6105a381610591565b82525050565b5f6020820190506105bc5f83018461059a565b92915050565b5f8115159050919050565b6105d6816105c2565b81146105e0575f80fd5b50565b5f813590506105f1816105cd565b92915050565b5f805f806080858703121561060f5761060e610406565b5b5f85013567ffffffffffffffff81111561062c5761062b61040a565b5b6106388782880161051d565b945050602085013567ffffffffffffffff8111156106595761065861040a565b5b6106658782880161051d565b935050604085013567ffffffffffffffff8111156106865761068561040a565b5b6106928782880161051d565b92505060606106a3878288016105e3565b91505092959194509250565b5f81519050919050565b5f82825260208201905092915050565b8281835e5f83830152505050565b5f6106e1826106af565b6106eb81856106b9565b93506106fb8185602086016106c9565b61070481610416565b840191505092915050565b610718816105c2565b82525050565b5f60a0820190508181035f83015261073681886106d7565b9050818103602083015261074a81876106d7565b9050610759604083018661070f565b818103606083015261076b81856106d7565b905061077a608083018461059a565b9695505050505050565b5f81905092915050565b5f610798826106af565b6107a28185610784565b93506107b28185602086016106c9565b80840191505092915050565b5f6107c9828461078e565b915081905092915050565b7f4e487b71000000000000000000000000000000000000000000000000000000005f52602260045260245ffd5b5f600282049050600182168061081857607f821691505b60208210810361082b5761082a6107d4565b5b50919050565b5f819050815f5260205f209050919050565b5f6020601f8301049050919050565b5f82821b905092915050565b5f6008830261088d7fffffffffffffffffffffffffffffffffffffffffffffffffffffffffffffffff82610852565b6108978683610852565b95508019841693508086168417925050509392505050565b5f819050919050565b5f6108d26108cd6108c884610591565b6108af565b610591565b9050919050565b5f819050919050565b6108eb836108b8565b6108ff6108f7826108d9565b84845461085e565b825550505050565b5f90565b610913610907565b61091e8184846108e2565b505050565b5b81811015610941576109365f8261090b565b600181019050610924565b5050565b601f8211156109865761095781610831565b61096084610843565b8101602085101561096f578190505b61098361097b85610843565b830182610923565b50505b505050565b5f82821c905092915050565b5f6109a65f198460080261098b565b1980831691505092915050565b5f6109be8383610997565b9150826002028217905092915050565b6109d7826106af565b67ffffffffffffffff8111156109f0576109ef610426565b5b6109fa8254610801565b610a05828285610945565b5f60209050601f831160018114610a36575f8415610a24578287015190505b610a2e85826109b3565b865550610a95565b601f198416610a4486610831565b5f5b82811015610a6b57848901518255600182019150602085019450602081019050610a46565b86831015610a885784890151610a84601f891682610997565b8355505b6001600288020188555050505b505050505050565b7f4e487b71000000000000000000000000000000000000000000000000000000005f52601160045260245ffd5b5f610ad482610591565b9150610adf83610591565b9250828201905080821115610af757610af6610a9d565b5b9291505056fea26469706673582212206d757c46a51f7a2f4124854970ccf3e1a56f1ded358b34f56df2983381dda3d764736f6c634300081a0033",
			"opcodes": "PUSH1 0x80 PUSH1 0x40 MSTORE CALLVALUE DUP1 ISZERO PUSH1 0xE JUMPI PUSH0 DUP1 REVERT JUMPDEST POP PUSH2 0xB33 DUP1 PUSH2 0x1C PUSH0 CODECOPY PUSH0 RETURN INVALID PUSH1 0x80 PUSH1 0x40 MSTORE CALLVALUE DUP1 ISZERO PUSH2 0xF JUMPI PUSH0 DUP1 REVERT JUMPDEST POP PUSH1 0x4 CALLDATASIZE LT PUSH2 0x55 JUMPI PUSH0 CALLDATALOAD PUSH1 0xE0 SHR DUP1 PUSH4 0x1F2DE553 EQ PUSH2 0x59 JUMPI DUP1 PUSH4 0x4CF91F25 EQ PUSH2 0x89 JUMPI DUP1 PUSH4 0x57CCCA42 EQ PUSH2 0xA5 JUMPI DUP1 PUSH4 0xE2D9B3BE EQ PUSH2 0xC1 JUMPI DUP1 PUSH4 0xF54769D0 EQ PUSH2 0xDF JUMPI JUMPDEST PUSH0 DUP1 REVERT JUMPDEST PUSH2 0x73 PUSH1 0x4 DUP1 CALLDATASIZE SUB DUP2 ADD SWAP1 PUSH2 0x6E SWAP2 SWAP1 PUSH2 0x54A JUMP JUMPDEST PUSH2 0x113 JUMP JUMPDEST PUSH1 0x40 MLOAD PUSH2 0x80 SWAP2 SWAP1 PUSH2 0x5A9 JUMP JUMPDEST PUSH1 0x40 MLOAD DUP1 SWAP2 SUB SWAP1 RETURN JUMPDEST PUSH2 0xA3 PUSH1 0x4 DUP1 CALLDATASIZE SUB DUP2 ADD SWAP1 PUSH2 0x9E SWAP2 SWAP1 PUSH2 0x5F7 JUMP JUMPDEST PUSH2 0x13D JUMP JUMPDEST STOP JUMPDEST PUSH2 0xBF PUSH1 0x4 DUP1 CALLDATASIZE SUB DUP2 ADD SWAP1 PUSH2 0xBA SWAP2 SWAP1 PUSH2 0x54A JUMP JUMPDEST PUSH2 0x1CD JUMP JUMPDEST STOP JUMPDEST PUSH2 0xC9 PUSH2 0x20D JUMP JUMPDEST PUSH1 0x40 MLOAD PUSH2 0xD6 SWAP2 SWAP1 PUSH2 0x5A9 JUMP JUMPDEST PUSH1 0x40 MLOAD DUP1 SWAP2 SUB SWAP1 RETURN JUMPDEST PUSH2 0xF9 PUSH1 0x4 DUP1 CALLDATASIZE SUB DUP2 ADD SWAP1 PUSH2 0xF4 SWAP2 SWAP1 PUSH2 0x54A JUMP JUMPDEST PUSH2 0x215 JUMP JUMPDEST PUSH1 0x40 MLOAD PUSH2 0x10A SWAP6 SWAP5 SWAP4 SWAP3 SWAP2 SWAP1 PUSH2 0x71E JUMP JUMPDEST PUSH1 0x40 MLOAD DUP1 SWAP2 SUB SWAP1 RETURN JUMPDEST PUSH0 PUSH1 0x1 DUP3 PUSH1 0x40 MLOAD PUSH2 0x124 SWAP2 SWAP1 PUSH2 0x7BE JUMP JUMPDEST SWAP1 DUP2 MSTORE PUSH1 0x20 ADD PUSH1 0x40 MLOAD DUP1 SWAP2 SUB SWAP1 KECCAK256 PUSH1 0x4 ADD SLOAD SWAP1 POP SWAP2 SWAP1 POP JUMP JUMPDEST PUSH0 PUSH1 0x1 DUP4 PUSH1 0x40 MLOAD PUSH2 0x14E SWAP2 SWAP1 PUSH2 0x7BE JUMP JUMPDEST SWAP1 DUP2 MSTORE PUSH1 0x20 ADD PUSH1 0x40 MLOAD DUP1 SWAP2 SUB SWAP1 KECCAK256 SWAP1 POP DUP5 DUP2 PUSH0 ADD SWAP1 DUP2 PUSH2 0x16E SWAP2 SWAP1 PUSH2 0x9CE JUMP JUMPDEST POP DUP4 DUP2 PUSH1 0x1 ADD SWAP1 DUP2 PUSH2 0x180 SWAP2 SWAP1 PUSH2 0x9CE JUMP JUMPDEST POP DUP2 DUP2 PUSH1 0x2 ADD PUSH0 PUSH2 0x100 EXP DUP2 SLOAD DUP2 PUSH1 0xFF MUL NOT AND SWAP1 DUP4 ISZERO ISZERO MUL OR SWAP1 SSTORE POP DUP3 DUP2 PUSH1 0x3 ADD SWAP1 DUP2 PUSH2 0x1AD SWAP2 SWAP1 PUSH2 0x9CE JUMP JUMPDEST POP PUSH1 0x1 PUSH0 DUP1 DUP3 DUP3 SLOAD PUSH2 0x1BF SWAP2 SWAP1 PUSH2 0xACA JUMP JUMPDEST SWAP3 POP POP DUP2 SWAP1 SSTORE POP POP POP POP POP POP JUMP JUMPDEST PUSH0 PUSH1 0x1 DUP3 PUSH1 0x40 MLOAD PUSH2 0x1DE SWAP2 SWAP1 PUSH2 0x7BE JUMP JUMPDEST SWAP1 DUP2 MSTORE PUSH1 0x20 ADD PUSH1 0x40 MLOAD DUP1 SWAP2 SUB SWAP1 KECCAK256 SWAP1 POP PUSH1 0x1 DUP2 PUSH1 0x4 ADD PUSH0 DUP3 DUP3 SLOAD PUSH2 0x202 SWAP2 SWAP1 PUSH2 0xACA JUMP JUMPDEST SWAP3 POP POP DUP2 SWAP1 SSTORE POP POP POP JUMP JUMPDEST PUSH0 DUP1 SLOAD SWAP1 POP SWAP1 JUMP JUMPDEST PUSH1 0x1 DUP2 DUP1 MLOAD PUSH1 0x20 DUP2 ADD DUP3 ADD DUP1 MLOAD DUP5 DUP3 MSTORE PUSH1 0x20 DUP4 ADD PUSH1 0x20 DUP6 ADD KECCAK256 DUP2 DUP4 MSTORE DUP1 SWAP6 POP POP POP POP POP POP PUSH0 SWAP2 POP SWAP1 POP DUP1 PUSH0 ADD DUP1 SLOAD PUSH2 0x24C SWAP1 PUSH2 0x801 JUMP JUMPDEST DUP1 PUSH1 0x1F ADD PUSH1 0x20 DUP1 SWAP2 DIV MUL PUSH1 0x20 ADD PUSH1 0x40 MLOAD SWAP1 DUP2 ADD PUSH1 0x40 MSTORE DUP1 SWAP3 SWAP2 SWAP1 DUP2 DUP2 MSTORE PUSH1 0x20 ADD DUP3 DUP1 SLOAD PUSH2 0x278 SWAP1 PUSH2 0x801 JUMP JUMPDEST DUP1 ISZERO PUSH2 0x2C3 JUMPI DUP1 PUSH1 0x1F LT PUSH2 0x29A JUMPI PUSH2 0x100 DUP1 DUP4 SLOAD DIV MUL DUP4 MSTORE SWAP2 PUSH1 0x20 ADD SWAP2 PUSH2 0x2C3 JUMP JUMPDEST DUP3 ADD SWAP2 SWAP1 PUSH0 MSTORE PUSH1 0x20 PUSH0 KECCAK256 SWAP1 JUMPDEST DUP2 SLOAD DUP2 MSTORE SWAP1 PUSH1 0x1 ADD SWAP1 PUSH1 0x20 ADD DUP1 DUP4 GT PUSH2 0x2A6 JUMPI DUP3 SWAP1 SUB PUSH1 0x1F AND DUP3 ADD SWAP2 JUMPDEST POP POP POP POP POP SWAP1 DUP1 PUSH1 0x1 ADD DUP1 SLOAD PUSH2 0x2D8 SWAP1 PUSH2 0x801 JUMP JUMPDEST DUP1 PUSH1 0x1F ADD PUSH1 0x20 DUP1 SWAP2 DIV MUL PUSH1 0x20 ADD PUSH1 0x40 MLOAD SWAP1 DUP2 ADD PUSH1 0x40 MSTORE DUP1 SWAP3 SWAP2 SWAP1 DUP2 DUP2 MSTORE PUSH1 0x20 ADD DUP3 DUP1 SLOAD PUSH2 0x304 SWAP1 PUSH2 0x801 JUMP JUMPDEST DUP1 ISZERO PUSH2 0x34F JUMPI DUP1 PUSH1 0x1F LT PUSH2 0x326 JUMPI PUSH2 0x100 DUP1 DUP4 SLOAD DIV MUL DUP4 MSTORE SWAP2 PUSH1 0x20 ADD SWAP2 PUSH2 0x34F JUMP JUMPDEST DUP3 ADD SWAP2 SWAP1 PUSH0 MSTORE PUSH1 0x20 PUSH0 KECCAK256 SWAP1 JUMPDEST DUP2 SLOAD DUP2 MSTORE SWAP1 PUSH1 0x1 ADD SWAP1 PUSH1 0x20 ADD DUP1 DUP4 GT PUSH2 0x332 JUMPI DUP3 SWAP1 SUB PUSH1 0x1F AND DUP3 ADD SWAP2 JUMPDEST POP POP POP POP POP SWAP1 DUP1 PUSH1 0x2 ADD PUSH0 SWAP1 SLOAD SWAP1 PUSH2 0x100 EXP SWAP1 DIV PUSH1 0xFF AND SWAP1 DUP1 PUSH1 0x3 ADD DUP1 SLOAD PUSH2 0x376 SWAP1 PUSH2 0x801 JUMP JUMPDEST DUP1 PUSH1 0x1F ADD PUSH1 0x20 DUP1 SWAP2 DIV MUL PUSH1 0x20 ADD PUSH1 0x40 MLOAD SWAP1 DUP2 ADD PUSH1 0x40 MSTORE DUP1 SWAP3 SWAP2 SWAP1 DUP2 DUP2 MSTORE PUSH1 0x20 ADD DUP3 DUP1 SLOAD PUSH2 0x3A2 SWAP1 PUSH2 0x801 JUMP JUMPDEST DUP1 ISZERO PUSH2 0x3ED JUMPI DUP1 PUSH1 0x1F LT PUSH2 0x3C4 JUMPI PUSH2 0x100 DUP1 DUP4 SLOAD DIV MUL DUP4 MSTORE SWAP2 PUSH1 0x20 ADD SWAP2 PUSH2 0x3ED JUMP JUMPDEST DUP3 ADD SWAP2 SWAP1 PUSH0 MSTORE PUSH1 0x20 PUSH0 KECCAK256 SWAP1 JUMPDEST DUP2 SLOAD DUP2 MSTORE SWAP1 PUSH1 0x1 ADD SWAP1 PUSH1 0x20 ADD DUP1 DUP4 GT PUSH2 0x3D0 JUMPI DUP3 SWAP1 SUB PUSH1 0x1F AND DUP3 ADD SWAP2 JUMPDEST POP POP POP POP POP SWAP1 DUP1 PUSH1 0x4 ADD SLOAD SWAP1 POP DUP6 JUMP JUMPDEST PUSH0 PUSH1 0x40 MLOAD SWAP1 POP SWAP1 JUMP JUMPDEST PUSH0 DUP1 REVERT JUMPDEST PUSH0 DUP1 REVERT JUMPDEST PUSH0 DUP1 REVERT JUMPDEST PUSH0 DUP1 REVERT JUMPDEST PUSH0 PUSH1 0x1F NOT PUSH1 0x1F DUP4 ADD AND SWAP1 POP SWAP2 SWAP1 POP JUMP JUMPDEST PUSH32 0x4E487B7100000000000000000000000000000000000000000000000000000000 PUSH0 MSTORE PUSH1 0x41 PUSH1 0x4 MSTORE PUSH1 0x24 PUSH0 REVERT JUMPDEST PUSH2 0x45C DUP3 PUSH2 0x416 JUMP JUMPDEST DUP2 ADD DUP2 DUP2 LT PUSH8 0xFFFFFFFFFFFFFFFF DUP3 GT OR ISZERO PUSH2 0x47B JUMPI PUSH2 0x47A PUSH2 0x426 JUMP JUMPDEST JUMPDEST DUP1 PUSH1 0x40 MSTORE POP POP POP JUMP JUMPDEST PUSH0 PUSH2 0x48D PUSH2 0x3FD JUMP JUMPDEST SWAP1 POP PUSH2 0x499 DUP3 DUP3 PUSH2 0x453 JUMP JUMPDEST SWAP2 SWAP1 POP JUMP JUMPDEST PUSH0 PUSH8 0xFFFFFFFFFFFFFFFF DUP3 GT ISZERO PUSH2 0x4B8 JUMPI PUSH2 0x4B7 PUSH2 0x426 JUMP JUMPDEST JUMPDEST PUSH2 0x4C1 DUP3 PUSH2 0x416 JUMP JUMPDEST SWAP1 POP PUSH1 0x20 DUP2 ADD SWAP1 POP SWAP2 SWAP1 POP JUMP JUMPDEST DUP3 DUP2 DUP4 CALLDATACOPY PUSH0 DUP4 DUP4 ADD MSTORE POP POP POP JUMP JUMPDEST PUSH0 PUSH2 0x4EE PUSH2 0x4E9 DUP5 PUSH2 0x49E JUMP JUMPDEST PUSH2 0x484 JUMP JUMPDEST SWAP1 POP DUP3 DUP2 MSTORE PUSH1 0x20 DUP2 ADD DUP5 DUP5 DUP5 ADD GT ISZERO PUSH2 0x50A JUMPI PUSH2 0x509 PUSH2 0x412 JUMP JUMPDEST JUMPDEST PUSH2 0x515 DUP5 DUP3 DUP6 PUSH2 0x4CE JUMP JUMPDEST POP SWAP4 SWAP3 POP POP POP JUMP JUMPDEST PUSH0 DUP3 PUSH1 0x1F DUP4 ADD SLT PUSH2 0x531 JUMPI PUSH2 0x530 PUSH2 0x40E JUMP JUMPDEST JUMPDEST DUP2 CALLDATALOAD PUSH2 0x541 DUP5 DUP3 PUSH1 0x20 DUP7 ADD PUSH2 0x4DC JUMP JUMPDEST SWAP2 POP POP SWAP3 SWAP2 POP POP JUMP JUMPDEST PUSH0 PUSH1 0x20 DUP3 DUP5 SUB SLT ISZERO PUSH2 0x55F JUMPI PUSH2 0x55E PUSH2 0x406 JUMP JUMPDEST JUMPDEST PUSH0 DUP3 ADD CALLDATALOAD PUSH8 0xFFFFFFFFFFFFFFFF DUP2 GT ISZERO PUSH2 0x57C JUMPI PUSH2 0x57B PUSH2 0x40A JUMP JUMPDEST JUMPDEST PUSH2 0x588 DUP5 DUP3 DUP6 ADD PUSH2 0x51D JUMP JUMPDEST SWAP2 POP POP SWAP3 SWAP2 POP POP JUMP JUMPDEST PUSH0 DUP2 SWAP1 POP SWAP2 SWAP1 POP JUMP JUMPDEST PUSH2 0x5A3 DUP2 PUSH2 0x591 JUMP JUMPDEST DUP3 MSTORE POP POP JUMP JUMPDEST PUSH0 PUSH1 0x20 DUP3 ADD SWAP1 POP PUSH2 0x5BC PUSH0 DUP4 ADD DUP5 PUSH2 0x59A JUMP JUMPDEST SWAP3 SWAP2 POP POP JUMP JUMPDEST PUSH0 DUP2 ISZERO ISZERO SWAP1 POP SWAP2 SWAP1 POP JUMP JUMPDEST PUSH2 0x5D6 DUP2 PUSH2 0x5C2 JUMP JUMPDEST DUP2 EQ PUSH2 0x5E0 JUMPI PUSH0 DUP1 REVERT JUMPDEST POP JUMP JUMPDEST PUSH0 DUP2 CALLDATALOAD SWAP1 POP PUSH2 0x5F1 DUP2 PUSH2 0x5CD JUMP JUMPDEST SWAP3 SWAP2 POP POP JUMP JUMPDEST PUSH0 DUP1 PUSH0 DUP1 PUSH1 0x80 DUP6 DUP8 SUB SLT ISZERO PUSH2 0x60F JUMPI PUSH2 0x60E PUSH2 0x406 JUMP JUMPDEST JUMPDEST PUSH0 DUP6 ADD CALLDATALOAD PUSH8 0xFFFFFFFFFFFFFFFF DUP2 GT ISZERO PUSH2 0x62C JUMPI PUSH2 0x62B PUSH2 0x40A JUMP JUMPDEST JUMPDEST PUSH2 0x638 DUP8 DUP3 DUP9 ADD PUSH2 0x51D JUMP JUMPDEST SWAP5 POP POP PUSH1 0x20 DUP6 ADD CALLDATALOAD PUSH8 0xFFFFFFFFFFFFFFFF DUP2 GT ISZERO PUSH2 0x659 JUMPI PUSH2 0x658 PUSH2 0x40A JUMP JUMPDEST JUMPDEST PUSH2 0x665 DUP8 DUP3 DUP9 ADD PUSH2 0x51D JUMP JUMPDEST SWAP4 POP POP PUSH1 0x40 DUP6 ADD CALLDATALOAD PUSH8 0xFFFFFFFFFFFFFFFF DUP2 GT ISZERO PUSH2 0x686 JUMPI PUSH2 0x685 PUSH2 0x40A JUMP JUMPDEST JUMPDEST PUSH2 0x692 DUP8 DUP3 DUP9 ADD PUSH2 0x51D JUMP JUMPDEST SWAP3 POP POP PUSH1 0x60 PUSH2 0x6A3 DUP8 DUP3 DUP9 ADD PUSH2 0x5E3 JUMP JUMPDEST SWAP2 POP POP SWAP3 SWAP6 SWAP2 SWAP5 POP SWAP3 POP JUMP JUMPDEST PUSH0 DUP2 MLOAD SWAP1 POP SWAP2 SWAP1 POP JUMP JUMPDEST PUSH0 DUP3 DUP3 MSTORE PUSH1 0x20 DUP3 ADD SWAP1 POP SWAP3 SWAP2 POP POP JUMP JUMPDEST DUP3 DUP2 DUP4 MCOPY PUSH0 DUP4 DUP4 ADD MSTORE POP POP POP JUMP JUMPDEST PUSH0 PUSH2 0x6E1 DUP3 PUSH2 0x6AF JUMP JUMPDEST PUSH2 0x6EB DUP2 DUP6 PUSH2 0x6B9 JUMP JUMPDEST SWAP4 POP PUSH2 0x6FB DUP2 DUP6 PUSH1 0x20 DUP7 ADD PUSH2 0x6C9 JUMP JUMPDEST PUSH2 0x704 DUP2 PUSH2 0x416 JUMP JUMPDEST DUP5 ADD SWAP2 POP POP SWAP3 SWAP2 POP POP JUMP JUMPDEST PUSH2 0x718 DUP2 PUSH2 0x5C2 JUMP JUMPDEST DUP3 MSTORE POP POP JUMP JUMPDEST PUSH0 PUSH1 0xA0 DUP3 ADD SWAP1 POP DUP2 DUP2 SUB PUSH0 DUP4 ADD MSTORE PUSH2 0x736 DUP2 DUP9 PUSH2 0x6D7 JUMP JUMPDEST SWAP1 POP DUP2 DUP2 SUB PUSH1 0x20 DUP4 ADD MSTORE PUSH2 0x74A DUP2 DUP8 PUSH2 0x6D7 JUMP JUMPDEST SWAP1 POP PUSH2 0x759 PUSH1 0x40 DUP4 ADD DUP7 PUSH2 0x70F JUMP JUMPDEST DUP2 DUP2 SUB PUSH1 0x60 DUP4 ADD MSTORE PUSH2 0x76B DUP2 DUP6 PUSH2 0x6D7 JUMP JUMPDEST SWAP1 POP PUSH2 0x77A PUSH1 0x80 DUP4 ADD DUP5 PUSH2 0x59A JUMP JUMPDEST SWAP7 SWAP6 POP POP POP POP POP POP JUMP JUMPDEST PUSH0 DUP2 SWAP1 POP SWAP3 SWAP2 POP POP JUMP JUMPDEST PUSH0 PUSH2 0x798 DUP3 PUSH2 0x6AF JUMP JUMPDEST PUSH2 0x7A2 DUP2 DUP6 PUSH2 0x784 JUMP JUMPDEST SWAP4 POP PUSH2 0x7B2 DUP2 DUP6 PUSH1 0x20 DUP7 ADD PUSH2 0x6C9 JUMP JUMPDEST DUP1 DUP5 ADD SWAP2 POP POP SWAP3 SWAP2 POP POP JUMP JUMPDEST PUSH0 PUSH2 0x7C9 DUP3 DUP5 PUSH2 0x78E JUMP JUMPDEST SWAP2 POP DUP2 SWAP1 POP SWAP3 SWAP2 POP POP JUMP JUMPDEST PUSH32 0x4E487B7100000000000000000000000000000000000000000000000000000000 PUSH0 MSTORE PUSH1 0x22 PUSH1 0x4 MSTORE PUSH1 0x24 PUSH0 REVERT JUMPDEST PUSH0 PUSH1 0x2 DUP3 DIV SWAP1 POP PUSH1 0x1 DUP3 AND DUP1 PUSH2 0x818 JUMPI PUSH1 0x7F DUP3 AND SWAP2 POP JUMPDEST PUSH1 0x20 DUP3 LT DUP2 SUB PUSH2 0x82B JUMPI PUSH2 0x82A PUSH2 0x7D4 JUMP JUMPDEST JUMPDEST POP SWAP2 SWAP1 POP JUMP JUMPDEST PUSH0 DUP2 SWAP1 POP DUP2 PUSH0 MSTORE PUSH1 0x20 PUSH0 KECCAK256 SWAP1 POP SWAP2 SWAP1 POP JUMP JUMPDEST PUSH0 PUSH1 0x20 PUSH1 0x1F DUP4 ADD DIV SWAP1 POP SWAP2 SWAP1 POP JUMP JUMPDEST PUSH0 DUP3 DUP3 SHL SWAP1 POP SWAP3 SWAP2 POP POP JUMP JUMPDEST PUSH0 PUSH1 0x8 DUP4 MUL PUSH2 0x88D PUSH32 0xFFFFFFFFFFFFFFFFFFFFFFFFFFFFFFFFFFFFFFFFFFFFFFFFFFFFFFFFFFFFFFFF DUP3 PUSH2 0x852 JUMP JUMPDEST PUSH2 0x897 DUP7 DUP4 PUSH2 0x852 JUMP JUMPDEST SWAP6 POP DUP1 NOT DUP5 AND SWAP4 POP DUP1 DUP7 AND DUP5 OR SWAP3 POP POP POP SWAP4 SWAP3 POP POP POP JUMP JUMPDEST PUSH0 DUP2 SWAP1 POP SWAP2 SWAP1 POP JUMP JUMPDEST PUSH0 PUSH2 0x8D2 PUSH2 0x8CD PUSH2 0x8C8 DUP5 PUSH2 0x591 JUMP JUMPDEST PUSH2 0x8AF JUMP JUMPDEST PUSH2 0x591 JUMP JUMPDEST SWAP1 POP SWAP2 SWAP1 POP JUMP JUMPDEST PUSH0 DUP2 SWAP1 POP SWAP2 SWAP1 POP JUMP JUMPDEST PUSH2 0x8EB DUP4 PUSH2 0x8B8 JUMP JUMPDEST PUSH2 0x8FF PUSH2 0x8F7 DUP3 PUSH2 0x8D9 JUMP JUMPDEST DUP5 DUP5 SLOAD PUSH2 0x85E JUMP JUMPDEST DUP3 SSTORE POP POP POP POP JUMP JUMPDEST PUSH0 SWAP1 JUMP JUMPDEST PUSH2 0x913 PUSH2 0x907 JUMP JUMPDEST PUSH2 0x91E DUP2 DUP5 DUP5 PUSH2 0x8E2 JUMP JUMPDEST POP POP POP JUMP JUMPDEST JUMPDEST DUP2 DUP2 LT ISZERO PUSH2 0x941 JUMPI PUSH2 0x936 PUSH0 DUP3 PUSH2 0x90B JUMP JUMPDEST PUSH1 0x1 DUP2 ADD SWAP1 POP PUSH2 0x924 JUMP JUMPDEST POP POP JUMP JUMPDEST PUSH1 0x1F DUP3 GT ISZERO PUSH2 0x986 JUMPI PUSH2 0x957 DUP2 PUSH2 0x831 JUMP JUMPDEST PUSH2 0x960 DUP5 PUSH2 0x843 JUMP JUMPDEST DUP2 ADD PUSH1 0x20 DUP6 LT ISZERO PUSH2 0x96F JUMPI DUP2 SWAP1 POP JUMPDEST PUSH2 0x983 PUSH2 0x97B DUP6 PUSH2 0x843 JUMP JUMPDEST DUP4 ADD DUP3 PUSH2 0x923 JUMP JUMPDEST POP POP JUMPDEST POP POP POP JUMP JUMPDEST PUSH0 DUP3 DUP3 SHR SWAP1 POP SWAP3 SWAP2 POP POP JUMP JUMPDEST PUSH0 PUSH2 0x9A6 PUSH0 NOT DUP5 PUSH1 0x8 MUL PUSH2 0x98B JUMP JUMPDEST NOT DUP1 DUP4 AND SWAP2 POP POP SWAP3 SWAP2 POP POP JUMP JUMPDEST PUSH0 PUSH2 0x9BE DUP4 DUP4 PUSH2 0x997 JUMP JUMPDEST SWAP2 POP DUP3 PUSH1 0x2 MUL DUP3 OR SWAP1 POP SWAP3 SWAP2 POP POP JUMP JUMPDEST PUSH2 0x9D7 DUP3 PUSH2 0x6AF JUMP JUMPDEST PUSH8 0xFFFFFFFFFFFFFFFF DUP2 GT ISZERO PUSH2 0x9F0 JUMPI PUSH2 0x9EF PUSH2 0x426 JUMP JUMPDEST JUMPDEST PUSH2 0x9FA DUP3 SLOAD PUSH2 0x801 JUMP JUMPDEST PUSH2 0xA05 DUP3 DUP3 DUP6 PUSH2 0x945 JUMP JUMPDEST PUSH0 PUSH1 0x20 SWAP1 POP PUSH1 0x1F DUP4 GT PUSH1 0x1 DUP2 EQ PUSH2 0xA36 JUMPI PUSH0 DUP5 ISZERO PUSH2 0xA24 JUMPI DUP3 DUP8 ADD MLOAD SWAP1 POP JUMPDEST PUSH2 0xA2E DUP6 DUP3 PUSH2 0x9B3 JUMP JUMPDEST DUP7 SSTORE POP PUSH2 0xA95 JUMP JUMPDEST PUSH1 0x1F NOT DUP5 AND PUSH2 0xA44 DUP7 PUSH2 0x831 JUMP JUMPDEST PUSH0 JUMPDEST DUP3 DUP2 LT ISZERO PUSH2 0xA6B JUMPI DUP5 DUP10 ADD MLOAD DUP3 SSTORE PUSH1 0x1 DUP3 ADD SWAP2 POP PUSH1 0x20 DUP6 ADD SWAP5 POP PUSH1 0x20 DUP2 ADD SWAP1 POP PUSH2 0xA46 JUMP JUMPDEST DUP7 DUP4 LT ISZERO PUSH2 0xA88 JUMPI DUP5 DUP10 ADD MLOAD PUSH2 0xA84 PUSH1 0x1F DUP10 AND DUP3 PUSH2 0x997 JUMP JUMPDEST DUP4 SSTORE POP JUMPDEST PUSH1 0x1 PUSH1 0x2 DUP9 MUL ADD DUP9 SSTORE POP POP POP JUMPDEST POP POP POP POP POP POP JUMP JUMPDEST PUSH32 0x4E487B7100000000000000000000000000000000000000000000000000000000 PUSH0 MSTORE PUSH1 0x11 PUSH1 0x4 MSTORE PUSH1 0x24 PUSH0 REVERT JUMPDEST PUSH0 PUSH2 0xAD4 DUP3 PUSH2 0x591 JUMP JUMPDEST SWAP2 POP PUSH2 0xADF DUP4 PUSH2 0x591 JUMP JUMPDEST SWAP3 POP DUP3 DUP3 ADD SWAP1 POP DUP1 DUP3 GT ISZERO PUSH2 0xAF7 JUMPI PUSH2 0xAF6 PUSH2 0xA9D JUMP JUMPDEST JUMPDEST SWAP3 SWAP2 POP POP JUMP INVALID LOG2 PUSH5 0x6970667358 0x22 SLT KECCAK256 PUSH14 0x757C46A51F7A2F4124854970CCF3 0xE1 0xA5 PUSH16 0x1DED358B34F56DF2983381DDA3D76473 PUSH16 0x6C634300081A00330000000000000000 "
		},
		"gasEstimates": {
			"creation": {
				"codeDepositCost": "573400",
				"executionCost": "604",
				"totalCost": "574004"
			},
			"external": {
				"RegisterCandidate(string,string,string,bool)": "infinite",
				"VoteCandidate(string)": "infinite",
				"candidate(string)": "infinite",
				"getTotalNumberOfVotes(string)": "infinite",
				"getTotalNumberofCandidates()": "2476"
			}
		},
		"methodIdentifiers": {
			"RegisterCandidate(string,string,string,bool)": "4cf91f25",
			"VoteCandidate(string)": "57ccca42",
			"candidate(string)": "f54769d0",
			"getTotalNumberOfVotes(string)": "1f2de553",
			"getTotalNumberofCandidates()": "e2d9b3be"
		}
	},
	"abi": [
		{
			"inputs": [
				{
					"internalType": "string",
					"name": "_name",
					"type": "string"
				},
				{
					"internalType": "string",
					"name": "_Party",
					"type": "string"
				},
				{
					"internalType": "string",
					"name": "_aka",
					"type": "string"
				},
				{
					"internalType": "bool",
					"name": "_isQualified",
					"type": "bool"
				}
			],
			"name": "RegisterCandidate",
			"outputs": [],
			"stateMutability": "nonpayable",
			"type": "function"
		},
		{
			"inputs": [
				{
					"internalType": "string",
					"name": "_aka",
					"type": "string"
				}
			],
			"name": "VoteCandidate",
			"outputs": [],
			"stateMutability": "nonpayable",
			"type": "function"
		},
		{
			"inputs": [
				{
					"internalType": "string",
					"name": "",
					"type": "string"
				}
			],
			"name": "candidate",
			"outputs": [
				{
					"internalType": "string",
					"name": "name",
					"type": "string"
				},
				{
					"internalType": "string",
					"name": "politicalParty",
					"type": "string"
				},
				{
					"internalType": "bool",
					"name": "isQualified",
					"type": "bool"
				},
				{
					"internalType": "string",
					"name": "aka",
					"type": "string"
				},
				{
					"internalType": "uint256",
					"name": "noOfVote",
					"type": "uint256"
				}
			],
			"stateMutability": "view",
			"type": "function"
		},
		{
			"inputs": [
				{
					"internalType": "string",
					"name": "_aka",
					"type": "string"
				}
			],
			"name": "getTotalNumberOfVotes",
			"outputs": [
				{
					"internalType": "uint256",
					"name": "",
					"type": "uint256"
				}
			],
			"stateMutability": "view",
			"type": "function"
		},
		{
			"inputs": [],
			"name": "getTotalNumberofCandidates",
			"outputs": [
				{
					"internalType": "uint256",
					"name": "",
					"type": "uint256"
				}
			],
			"stateMutability": "view",
			"type": "function"
		}
	]
}